:100000000C9472040C949B040C949B040C949B041D
:100010000C949B040C949B040C949B040C949B04E4
:100020000C949B040C949B040C949B040C946C38CF
:100030000C949B040C949B040C949B040C949B04C4
:100040000C949B040C949B040C9430380C94FD3756
:100050000C949B040C949B040C949B040C949B04A4
:100060000C949B040C949B04072C7AA5BA6CC59045
:10007000DA3B9365FC8BBC53F810FD3C5692834DE4
:10008000BD879D3AB63DCBC9BF5BBE73DA0FC93F92
:1000900005A84CCDB2D44EB93836A9020C50B9914E
:1000A0008688083CA6AAAA2ABE000000803F302EFF
:1000B000352E310061746D656761333238007379B4
:1000C0006E7461783A20636F6D6D616E64206F703D
:1000D00074696F6E3D76616C7565202E2E2E3B0A1D
:1000E000636F6D6D616E6473206172653A20007498
:1000F000797065202768656C7020636F6D6D616E27
:10010000643B2720206F72202768656C7020616C2B
:100110006C3B270A636F6D6D616E6473206172655D
:100120003A20006461696C793D5420202020202011
:100130002020656E61626C6573206461696C792052
:1001400074696D65722E20542069732075702F6458
:100150006F776E206C696B6520303733302D206FE0
:1001600072203037333032303030206F72202D32F1
:100170003030302020666F722075702030373A336F
:100180003020616E642F6F7220646F776E20323082
:100190003A30300A7765656B6C793D545454545449
:1001A000545420656E61626C6573207765656B6C75
:1001B000792074696D65722E2054206C696B6520FE
:1001C0007769746820276461696C7927206F7220D1
:1001D000272B2720746F20636F7079207468652047
:1001E00054206F6E20746865206C6566742E20281C
:1001F0007765656B6C793D303733302D2B2B2B2B8E
:10020000303930302D2B290A617374726F5B3D4E8B
:100210005D202020202020656E61626C6573206166
:100220007374726F206175746F6D617469632E20D1
:100230004E20697320746865206F6666736574204C
:10024000746F20636976696C206475736B20696EC6
:10025000206D696E757465732E2043616E20626532
:1002600020706F7374697665206F72206E656761A8
:10027000746976652E0A73756E2D6175746F202012
:100280002020202020656E61626C65732073756E7E
:10029000206175746F6D617469630A72616E646F59
:1002A0006D202020202020202020656E61626C655A
:1002B000732072616E646F6D206175746F6D61740F
:1002C00069632E2073687574746572206F70656E33
:1002D0007320616E6420636C6F736573206174209A
:1002E00072616E646F6D2074696D65732E0A72742D
:1002F000632D6F6E6C7920202020202020646F6E8B
:100300002774206368616E67652074696D65727318
:100310002E206F6E6C792075706461746520696E33
:100320007465726E616C207265616C2074696D65B4
:1003300020636C6F636B0A612C206720616E642000
:100340006D3A202020206C696B6520696E207365F2
:100350006E6420636F6D6D616E640A72733D283048
:100360007C317C322920202020207265616420624B
:1003700061636B2073617665642074696D657220BA
:10038000646174612E2069662073657420746F2027
:10039000322C2072657475726E20616E79206461F2
:1003A0007461206D61746368696E67206720616E97
:1003B00064206D20652E672E206D3D302028616EF3
:1003C00079206D656D6265722920696E737465614F
:1003D00064206F66206D3D320A007072696E743D54
:1003E000287274637C63757C72657365742D696EA5
:1003F000666F290A75702D74696D653D3F0A7665D3
:100400007273696F6E3D66756C6C0A0027636F6E60
:10041000666967272073657473206F72206765743F
:1004200073206F7074696F6E732E205573653A2058
:10043000636F6E666967206F7074696F6E3D766179
:100440006C7565202E2E2E3B20746F207365742EE4
:10045000205573653A20636F6E666967206F70740C
:10046000696F6E3D3F202E2E2E3B20746F206765F6
:10047000742C20696620737570706F727465640ADD
:100480000A63753D2849447C6175746F7C3F29205F
:1004900020202020362D64696769742068657820E3
:1004A0004944206F662043656E7472616C2D556EF1
:1004B00069742E206175746F3A206361707475726F
:1004C00065204944207573696E6720636F6E6E65A1
:1004D000637465642052462072656365697665724F
:1004E0000A7274633D2849534F5F54494D457C3F20
:1004F00029202020736574206C6F63616C207469FF
:100500006D652077697468207468697320286F723C
:1005100020757365204E5450292E206578616D70CA
:100520006C653A20636F6E666967207274633D3252
:100530003031372D31322D33315432333A35393A67
:1005400035393B0A626175643D284E7C3F29202085
:100550002020202020202073657269616C20626158
:100560007564207261746520282E2E2E20626175BC
:10057000643D313135323030290A6C6F6E676974F1
:100580007564653D284445477C3F290A6C61746960
:10059000747564653D284445477C3F290A74696D3C
:1005A000652D7A6F6E653D284E7C3F2920202020E6
:1005B00074696D65207A6F6E6520686F7572206F43
:1005C000666673657420666F7220617374726F2043
:1005D000616E64207274630A6473743D2865757C6F
:1005E000307C317C3F2920202020206461796C6997
:1005F00067687420736176696E672074696D653A07
:10060000206175746F6D617469633A2065753D652D
:1006100075726F70652E206D616E75616C6C793AC4
:1006200020303D6F66662C20313D6F6E0A76657214
:10063000626F73653D28302E2E357C3F29202020A7
:100640007365742074657874206F75747075742088
:10065000766572626F73697479206C6576656C2E4D
:10066000203020666F72206E6F6E65202E2E2E2039
:100670003520666F72206D61780A7365742D70770E
:100680003D70617373776F726420202020736574EE
:10069000206120636F6E6669672070617373776F86
:1006A00072642E20696620736574206576657279A0
:1006B00020636F6E66696720636F6D6D616E647332
:1006C000206E6565647320746865207077206F7094
:1006D00074696F6E0A70773D5057202020202020CB
:1006E00020202020202020206578616D706C653AE4
:1006F00020636F6E6669672070773D6D795F70610A
:10070000737377206473743D65753B0A7265737407
:1007100061727420202020202020202020202072A0
:10072000657374617274204D43550A00613D283031
:100730007C494429202030202068657820494420C5
:100740006F662073656E646572206F7220726563D8
:1007500065697665722E2030207573657320276376
:10076000752720696E20636F6E6669670A673D5B57
:10077000302D375D20202030202067726F7570206B
:100780006E756D6265720A6D3D5B302D375D2020A0
:100790002030202067726F7570206D656D62657204
:1007A000206E756D6265720A633D2875707C646F9A
:1007B000776E7C73746F707C73756E2D646F776E5B
:1007C0007C73756E2D696E73747C7365740A723DEB
:1007D0004E2020202020202032202072657065616C
:1007E0007420636F6D6D616E6420312B4E207469CF
:1007F0006D65735345505B3D307C315D202020207A
:10080000456E74657220656E642D706F73697469CE
:100810006F6E2061646A7573746D656E74206D6FA0
:10082000646520286E656564732068617264776111
:10083000726520627574746F6E29000A2868696E8B
:10084000743A20747970652068656C703B20746F11
:1008500020676574206120636F6D6D616E64206C2C
:10086000697374290A002074696D652D7A6F6E654D
:100870003D00206C617469747564653D00636F6E42
:10088000666967206C6F6E6769747564653D003BCF
:100890000A0020626175643D00636F6E66696720BF
:1008A00063753D000A0A54726F6E6665726E6F2D35
:1008B0004D4355207374617274696E67202E2E2E1D
:1008C0000A6275696C642D646174653A20536570C1
:1008D00020323420323031382032333A31353A3414
:1008E000370A0A0011241FBECFEFD8E0DEBFCDBF0C
:1008F00014BE0FB6F894A89580916000886180932B
:100900006000109260000FBE15E0A0E0B1E0EEEFD5
:10091000FAE802C005900D92A63DB107D9F728E08C
:10092000A6EDB5E001C01D92A83CB207E1F70E9418
:10093000AE360C947D450C9400008F938FB78F9347
:10094000F8948091C2088F5F8093C2088091C30899
:100950008F4F8093C3088091C4088F4F8093C40841
:100960008091C5088F4F8093C5088F918FBF8F915D
:100970000895FC010FB6F8946091C2087091C30805
:100980008091C4089091C5080FBE309721F0608314
:100990007183828393830895CF938091D5068111CB
:1009A0003DC08091DB061816ACF58091DA068F7099
:1009B0008330C1F18091D50681112CC081E00E9465
:1009C000CC18C82F882331F18091DB0681508093A9
:1009D000DB0685E0E6EDF6E0ACE1B7E001900D92D4
:1009E0008A95E1F761E08CE197E00E94371E8091E3
:1009F0006D0881111CC08CE090E09093DD0680931F
:100A0000DC0681E08093D50680E00E94CC188C2F14
:100A1000CF910895C1E08C2FCF910895C0E08C2F25
:100A2000CF91089586ED96E00E94D005C3CF85E76B
:100A300091E00E94413261E08CE197E00E94E91F61
:100A4000DACF0F931F93CF93DF938C01D62F809132
:100A5000D506811136C00115110531F08091DB06F4
:100A6000181614F41092DB0681E00E94CC18C82FEF
:100A7000882339F1D130E9F185E0F801ACE1B7E044
:100A800001900D928A95E1F76D2F8CE197E00E941D
:100A9000371E80916D0881111BC0D23039F180E57D
:100AA00091E09093DD068093DC0681E08093D5068B
:100AB00080E00E94CC188C2FDF91CF911F910F9175
:100AC0000895C0E08C2FDF91CF911F910F91089571
:100AD00085E791E00E94413280916D08823040F1BB
:100AE0006D2F8CE197E00E94E91FD7CF8EE190E057
:100AF000D8CF0115110511F186E0F801A6EDB6E099
:100B000001900D928A95E1F785E0F801ACE1B7E03C
:100B100001900D928A95E1F761E08CE197E00E94E7
:100B2000371E80916D08811111C08CE090E0B9CF23
:100B300061E08CE197E00E94E91FAFCF8091DB0676
:100B400081508093DB0606ED16E0DECF85E791E06D
:100B50000E94413261E08CE197E00E94E91FE5CFFD
:100B6000FC01CB01AA27BB2780835183428322E16A
:100B7000238314822FEF25839927AA27BB2780324E
:100B80009105A105B10549F080399105A105B1058F
:100B900019F487E183830895089581E1838308959B
:100BA000FC013381932F92959F709F5F9F7041F05E
:100BB000292F2295207F932F9F70922B9383089546
:100BC00020E1932F9F70922B938308952F923F9251
:100BD0004F925F926F927F928F929F92AF92BF924D
:100BE000CF92DF92EF92FF920F931F93CF93DF93F9
:100BF000CDB7DEB762970FB6F894DEBF0FBECDBF9C
:100C00008C011D821E821F821886072E000C880B05
:100C1000990B0E94BB3F20E030E040E752E40E9485
:100C2000113F6D877E878F87988B9801285F3F4F94
:100C30003C872B87C8018C589F4F9A8B898B212C1E
:100C4000312C90E89987EFEBEA87412C80E8582E09
:100C500081EB682E83E4782E8B849C84F8E08F1AD5
:100C60009108A0905908B0905A08C0905B08D090A5
:100C70005C082091610830916208409163085091AE
:100C800064086D857E858F8598890E949B3E9B01B7
:100C9000AC01FDEBFF9386ED8F9397E79F93E0E523
:100CA000EF93809160088F9380915F088F9380917C
:100CB0005E088F9380915D088F9383017201BE015E
:100CC0006B5F7F4F80E090E00E94F238ED80FE8005
:100CD0000F8118850FB6F894DEBF0FBECDBF91010E
:100CE00049855A85B701C8010E94073F87FF69C03F
:100CF000C101A985BA858D839E83AF83B887CD0155
:100D0000AE014F5F5F4FB1010E94F6406B017C0165
:100D10003FEF8316930659F069817A818B819C811C
:100D20000E948A3F862F0E94BE3AF401818381147B
:100D3000910489F020E030E040E752E4C701B601B9
:100D40000E942A410E948A3F81E0860F8E7F0E9486
:100D5000BE3AF401808320E030E843E750E4C30169
:100D6000B2010E949A3E2B013C01F2E08F0E911CD1
:100D70002B853C858216930609F073CFC401099632
:100D80009C878B87E989FA898E179F0709F064CFC2
:100D900062960FB6F894DEBF0FBECDBFDF91CF9144
:100DA0001F910F91FF90EF90DF90CF90BF90AF9089
:100DB0009F908F907F906F905F904F903F902F907B
:100DC0000895170109871A87C8019ACFCF92DF9239
:100DD000EF92FF920F931F93CF93DF936C017B01F0
:100DE0000E94363281E0E816F10409F4D4C00CF414
:100DF00099C001E010E054C0BE01809100019091C3
:100E000001010E945944892B09F4A5C0BE018091BB
:100E10000601909107010E945944892B09F4AFC043
:100E2000BE0180910C0190910D010E945944892BC3
:100E300009F4A8C0BE0180911201909113010E9493
:100E40005944892B09F4A1C0BE01809118019091E9
:100E500019010E945944892B09F49AC082ED91E04E
:100E60000E9441328091E2069091E306892B09F0BD
:100E700068C08AE30E94223283EC91E00E944132F2
:100E80008CED94E00E944132CE010E9441328AE012
:100E90000E9422320F5F1F4F0E151F050CF042C03B
:100EA000F801EE0FFF1FEE0FFF1FEC0DFD1DC081BF
:100EB000D18164EB71E0CE010E945944892B09F085
:100EC0009BCF8EEB90E00E946432C0E0D1E08E01B7
:100ED000F801808191810E94413281EB91E00E9472
:100EE00041320A5F1F4FF1E00E311F0789F70E9460
:100EF0003632888199810E94413288EB91E00E94CC
:100F000041328C819D810E9464320E943632269645
:100F100081E0CE31D80769F706E010E00E151F0515
:100F20000CF4BECF88E791E00E94413280E090E06F
:100F3000DF91CF911F910F91FF90EF90DF90CF90B5
:100F4000089580E40E9422328091E2069091E306A7
:100F50000E94AE358ECF80E090E0FC01EE0FFF1FC7
:100F6000E80FF91FEE0FFF1FE050FF4F84819581BE
:100F70000E9464320E9436320F5F1F4F8DCF81E096
:100F800090E0EBCF82E090E0E8CF83E090E0E5CF27
:100F900084E090E0E2CF8FEE90E00E946432C0E007
:100FA000D1E00EE111E0888199810E94413281EB0C
:100FB00091E00E94413226960C171D07A1F70E946E
:100FC0003632B4CF2F923F924F925F926F927F92C0
:100FD0008F929F92AF92BF92CF92DF92EF92FF9249
:100FE0000F931F93CF93DF93CDB7DEB7A4970FB6C0
:100FF000F894DEBF0FBECDBF623071050CF49BC00C
:10100000FC01E480F580C680D780E114F10409F486
:1010100054C1C114D10409F450C14B018C018AEDB3
:1010200091E09AA389A3AA24A394B12CE091D305BB
:10103000F091D405FCA3EBA33E01FDE16F0E711C02
:101040002E0189E0480E511C1E019BE0290E311C27
:1010500026C065EE71E0C6010E945944892B09F44F
:10106000A7C06FE274E0C6010E945944892B09F4BD
:10107000ADC0FFEFAF1ABF0A8A149B0409F451C038
:10108000F801E084F184C284D384E114F10409F40A
:1010900014C10C5F1F4FC114D10409F40EC16FEDD0
:1010A00071E0C7010E945944892B99F26FEE71E0FB
:1010B000C7010E945944892B09F040C0F6010190F4
:1010C0000020E9F7CF0103978C159D0591F6F601F5
:1010D0008081805388A3818180538D8B21E0AE0174
:1010E0004B5E5F4FBE01605E7F4FCE0101960E9456
:1010F0006223882309F4BDCFCE0101967C01F7015C
:10110000819191917F010E94AE350E943632E214A6
:10111000F304A9F7FFEFAF1ABF0A8A149B0409F082
:10112000AFCF63EE74E089A19AA10E9459448C016B
:10113000892B09F418C100E010E0C1C062EF71E032
:10114000C7010E945944892B09F453C065EF71E02F
:10115000C7010E945944892B09F4CBC068E072E0B2
:10116000C7010E945944892B09F073C0F6018081A0
:101170008F3309F4DDC088EF91E00E944132809105
:10118000E2069091E306892B09F0F2C08AE30E94FF
:1011900022328EEF91E00E9441328CED94E00E9469
:1011A000413280E192E00E9441320E94363261CFAA
:1011B000CE0101960E94382C882309F45ACFCE0123
:1011C00001960E9441320E94363253CF89EE91E05F
:1011D0000E944132609151087091520880915308E9
:1011E0009091540840E150E00E9476350E943632DA
:1011F00040CFBE016F5F7F4FCE0145960E945925BB
:101200008D8D9E8D0E94AE350E943632CE01459660
:101210007C0161E0F70181917F010E94BA32E614FE
:10122000F704B9F70E94363289859A850E94AE3557
:101230000E943632CE0101967C0161E0F701819176
:101240007F010E94BA32E414F504B9F70E943632E5
:1012500010CF64E272E0C7010E945944892B09F063
:101260004BC06CE272E0C6010E945944892B09F020
:1012700000CF89A19AA10E944132C7010E94413248
:1012800087EB94E00E94413284EB90E00E9464324C
:1012900081E392E00E9441328EEA90E00E94643243
:1012A00081EB91E00E9441328BA19CA10E944132CE
:1012B000E3EEF4E0FAA3E9A3DCCE0FEF1FEFC801E1
:1012C000A4960FB6F894DEBF0FBECDBFDF91CF91CD
:1012D0001F910F91FF90EF90DF90CF90BF90AF9054
:1012E0009F908F907F906F905F904F903F902F9046
:1012F00008950E944930BDCE82ED91E00E944132B6
:101300008091E2069091E306892BE1F58AE30E9441
:10131000223283EC91E00E9441328CED94E00E94F5
:101320004132C7010E9441328AE00E942232A1CE9E
:1013300089A19AA10E944132C7010E94413287EBE4
:1013400094E00E9441326091DE067091DF06809148
:10135000E0069091E10640E00E94FA3383EE94E0CB
:101360009AA389A386CE83E392E00E944132A7CF5D
:1013700080E40E9422328091E2069091E3060E946E
:10138000AE3504CF80E40E9422328091E206909133
:10139000E3060E94AE35BACF2F923F924F925F92F2
:1013A0006F927F928F929F92AF92BF92CF92DF9275
:1013B000EF92FF920F931F93CF93DF9300D000D053
:1013C0001F92CDB7DEB75B01623071050CF44AC2E3
:1013D000FC0104811581C680D7800115110509F42F
:1013E000B2C09D838C83312C1B82212C1A82F2E0A7
:1013F000F98388248A94982C412C512C3201EE24B4
:10140000E394F12C20C0C114D10409F472C040E16E
:1014100050E060E070E0C6010E940E422B013C01EA
:101420002FEFE21AF20AAE14BF0469F1EC81FD81DC
:10143000008511853496FD83EC83C680D780011525
:10144000110509F480C066E372E0C8010E945944A6
:10145000892BC9F26CE274E0C8010E945944892BBF
:1014600089F5C114D10409F459C0C6010E94194478
:101470008830910508F052C0382E2FEFE21AF20A98
:10148000AE14BF0499F6CA80CC2009F4FAC0222019
:1014900009F4F5C0F9EFDF2ED20CD98284E692E090
:1014A0000E9441322981432DC301B2010E94212DA6
:1014B00060E00E944D3485E093E00E94413280E07C
:1014C00090E043C06BED73E0C8010E945944892B42
:1014D000A1F4C114D10411F1C6010E94194488304D
:1014E0009105E0F4009709F493C0B7E02B2E280E85
:1014F00097CF412C512C320193CF66E374E0C801A1
:101500000E945944892BC9F5C114D10439F0C60190
:101510000E94194489838B3008F482CF88EF91E0D0
:101520000E9441328091E2069091E306892B09F0F6
:10153000FBC08CED94E00E94413288E392E00E946F
:1015400041320E9436328FEF9FEF0F900F900F9035
:101550000F900F90DF91CF911F910F91FF90EF901F
:10156000DF90CF90BF90AF909F908F907F906F90C3
:101570005F904F903F902F90089567EB75E0C80102
:101580000E945944892B09F045C0C114D10431F29D
:10159000F60180818F3309F44FC067E472E0C60121
:1015A0000E945944892B09F46CC160E572E0C601C0
:1015B0000E945944892B09F467C16EE372E0C601A9
:1015C0000E945944892B09F475C163E472E0C60195
:1015D0000E945944892B09F45DC16CE472E0C60194
:1015E0000E945944892B09F462C163E572E0C60187
:1015F0000E945944892B09F44AC16CE572E0C60186
:101600000E945944892B09F089CF8DE08B8308CF44
:10161000212C06CF60E672E0C8010E945944892B54
:1016200089F4C114D10421F0F6018081813339F4A9
:1016300088248394912CF4CEF1E0FA83F1CE812CAE
:10164000912CEECE82ED91E00E9441328091E20633
:101650009091E306892B09F0DFC08AE30E942232D1
:1016600083EC91E00E9441328CED94E00E94413283
:10167000C8010E9441328AE00E942232D1CE1982F2
:101680000DCF411451046104710409F441C020914B
:10169000D905822F90E0A0E0B0E0DC0199278827EF
:1016A0003091DB05832B4091DA0550E0542F44271D
:1016B00060E070E0842B952BA62BB72B48165906BB
:1016C0006A067B0609F4C9C0B301A20189ED95E061
:1016D0000E94B0052091D905E9EDF5E0FD83EC838A
:1016E000207F203859F1FFEF8F169F06E1F1EC8142
:1016F000FD818481982F907F8B818F70892B8483CB
:10170000892869F0CF010E94962980E090E01DCFE2
:101710002091E40684EE96E09D838C83E1CF0E94C5
:101720006B2980E090E011CF80E40E94223280910A
:10173000E2069091E3060E94AE35FBCEEC81FD817E
:101740008481282F2F70F0E13F9EC0011124822B4D
:10175000EC81FD8184838381982F907F822D8F700F
:10176000892B8383C0CFCB80CC2009F45FC0EC8170
:10177000FD818481982F907F8C2D8F70892B84839D
:10178000CF010E94D005C980EC81FD81C58261E056
:10179000CF010E942105882309F448C088EF91E019
:1017A0000E9441328091E2069091E306892B09F074
:1017B00086C08CED94E00E94413280EC93E00E9460
:1017C00041320E943632222009F477C029EF220DDF
:1017D000EC81FD8104810F706081862F90E0A0E094
:1017E000B0E0DC01992788273281AC01BD01432B91
:1017F000818190E0982F8827A0E0B0E06A017B010A
:10180000C82AD92AEA2AFB2AC701B601432D0E9419
:101810004D2D80E090E099CE80E40E9422328091AC
:10182000E2069091E3060E94AE3517CF88EF91E073
:101830000E9441328091E2069091E306892B69F57E
:101840008CED94E00E94413288E392E00E944132A4
:101850000E94363280E090E078CE89ED95E09D835D
:101860008C833ECF2091E40688248A94982C212CE6
:101870001B82312C32E0398384EE96E09D838C8389
:101880002FCF85E08B83CCCD84E08B83C9CD88E0DE
:101890008B83C6CD86E08B83C3CD80E40E94223249
:1018A0008091E2069091E3060E94AE35C9CF87E0B1
:1018B0008B83B6CD83E08B83B3CD20E089CF80E4EA
:1018C0000E9422328091E2069091E3060E94AE359A
:1018D00070CFCF93DF93EC0182ED91E00E94413213
:1018E0008091E2069091E306892B99F48AE30E94A5
:1018F000223283EC91E00E9441328CED94E00E9410
:101900004132CE010E9441328AE0DF91CF910C94A6
:10191000223280E40E9422328091E2069091E30616
:101920000E94AE35E3CF2F923F924F925F926F921B
:101930007F928F929F92AF92BF92CF92DF92EF925F
:10194000FF920F931F93CF93DF93CDB7DEB7A2978C
:101950000FB6F894DEBF0FBECDBF4B0122242394F7
:10196000209172082111212C02E0801691040CF4C0
:1019700029C2FC0104811581C680D780011511059B
:1019800009F43AC1C114D10409F436C17C0184E7D9
:10199000682E82E0782E1AA219A2AA24A394B12C50
:1019A00025C0B60182E798E00E945944892B09F0CE
:1019B0001FC181E892E00E9441323FEFA31AB30AAF
:1019C0008A149B0409F453C0F70100851185C28471
:1019D000D3840115110509F40FC1F4E0EF0EF11CD9
:1019E00022242394C114D10409F406C169E273E0EE
:1019F000C8010E945944892BA1F2222009F419C27E
:101A00006EEB72E0C8010E945944892B09F4ACC006
:101A100065EE71E0C8010E945944892B09F04CC061
:101A2000F60180818F3309F452C1C6010E94682CEF
:101A3000882309F4C7C088EF91E00E944132809169
:101A4000E2069091E306892B09F021C18CED94E028
:101A50000E94413280EC93E00E9441320E94363273
:101A60003FEFA31AB30A8A149B0409F0ADCF63EECB
:101A700074E0C3010E945944892B09F4BBC129A019
:101A80003AA0232809F49EC188EF91E00E944132D8
:101A90008091E2069091E306892B09F08AC28CEDD1
:101AA00094E00E94413288E392E00E9441320E9419
:101AB000363280E090E0B7C06FE274E0C8010E9467
:101AC0005944892B09F053C0F60180818F3309F402
:101AD00096C161EE73E0C6010E945944892B09F456
:101AE0001AC167E073E0C6010E945944892B09F0CE
:101AF00041C160911507862F90E0A0E0B0E0DC01C5
:101B00009927882720911707AC01BD01422B8091AE
:101B1000160790E0982F8827A0E0B0E01A012B016B
:101B2000282A392A4A2A5B2AC201B10182012227C6
:101B30003327003811052105310509F05DC00093F8
:101B4000E4067093E5066093E6066093510870938F
:101B50005208809353089093540864E070E080E04A
:101B600090E00E94953629CF0E94C03626CF60E1D2
:101B700073E0C8010E945944892B09F492C068E1BE
:101B800073E0C8010E945944892B09F465C06DE1D6
:101B900073E0C8010E945944892B09F402C165E22F
:101BA00073E0C8010E945944892B09F061C1F60114
:101BB00001900020E9F73197EC19FD09E031F105BA
:101BC00008F4CBC188EF91E00E9441328091E20697
:101BD0009091E306892B09F094C08CED94E00E946B
:101BE000413288E392E00E9441320E943632E5CED3
:101BF0008EE892E00E94413288EF91E00E944132EB
:101C00008091E2069091E306892B09F0A9C08CED42
:101C100094E00E94413288E392E00E9441320E94A7
:101C200036328FEF9FEFA2960FB6F894DEBF0FBE4D
:101C3000CDBFDF91CF911F910F91FF90EF90DF907B
:101C4000CF90BF90AF909F908F907F906F905F905C
:101C50004F903F902F900895F60180818F3309F4C3
:101C6000EDC04AE050E060E070E0C6010E9424430D
:101C700060935508709356088093570890935808BE
:101C800060E170E080E090E00E94953696CE80E4BE
:101C90000E9422328091E2069091E3060E94AE35C6
:101CA000D5CE40E150E060E070E0C6010E942443E0
:101CB00060936E0870936F0880937008909371081A
:101CC00068E070E080E090E00E94953676CECE012C
:101CD00001960E94382C882309F46FCEC3010E941C
:101CE0004132C8010E94413287EB94E00E944132A8
:101CF000CE0101960E944132B3EE6B2EB4E07B2EF2
:101D00005CCE80E40E9422328091E2069091E3064C
:101D10000E94AE3562CF8091DE069091DF06A091E1
:101D2000E006B091E106CC96A11DB11D8093E705B8
:101D30009093E805A093E905B093EA051092150782
:101D40008091E2069091E3069093E6058093E50585
:101D5000F1E0F093140786EC92E00E9441326BCEE2
:101D600080E40E9422328091E2069091E3060E9474
:101D7000AE354DCF40E150E060E070E0C6010E941A
:101D800024438C0122273327003809F035CF292E30
:101D900033244424552423282428252809F4CFCE8D
:101DA0002BCFF60180818F3309F41DC1C6010E943B
:101DB000194480936D0860E470E080E090E00E9438
:101DC0009536FBCD88EF91E00E9441328091E2068A
:101DD0009091E306892B09F0E2C08CED94E00E941B
:101DE000413280EC93E00E9441320E94363280E022
:101DF00090E019CF83E392E00E94413240CEC301CC
:101E00000E944132C8010E94413287EB94E00E9457
:101E1000413260915108709152088091530890911D
:101E2000540840E00E942B33A3EE6A2EA4E07A2EE1
:101E3000C4CD85EA92E00E944132DECEC3010E9409
:101E40004132C8010E94413287EB94E00E94413246
:101E500060915508709156088091570890915808E4
:101E600040E00E94FA3383EE682E84E0782EA5CD00
:101E70006CE273E0C8010E945944892B09F4A3C0A5
:101E800069E373E0C8010E945944892B09F474C0C6
:101E900065E473E0C8010E945944892B09F0B7C07A
:101EA000F60180818F3309F4E6C18D3209F4FEC159
:101EB000082F60E070E0CB01212C312CA0E84A2EE5
:101EC000AFE35A2E2D8E3E8E4F8E58A2002309F47A
:101ED0000BC11FEFC11AD10A212C312C21011A8EFE
:101EE000198E34C010E0005311090A30110540F575
:101EF000298D3A8D232B71F020E030E040E251E44F
:101F00006D8D7E8D8F8D98A10E94113F6D8F7E8F7C
:101F10008F8F98A320E030E040E251E4C201B1018C
:101F20000E942A411B012C01B801110F880B990B4B
:101F30000E94BB3FA20191010E949B3E1B012C010C
:101F4000F60101916F01002309F4C6C00E3251F66B
:101F500001E010E01A8F098FF3CFAF014F5F5F4FA1
:101F6000B60182E798E00E94454460E072E080E0BC
:101F700090E00E94953621CD61E375E0C6010E9494
:101F80005944892B09F04BC12224239420926B08D9
:101F900062E070E080E090E00E9495364CCD80E4F5
:101FA0000E9422328091E2069091E3060E94AE35B3
:101FB00014CF80E40E9422328091E2069091E306E1
:101FC0000E94AE356CCD61E375E0C6010E945944B4
:101FD000892B09F09AC0F1E0F0936A0861E070E0A3
:101FE00080E090E0D9CFC3010E944132C8010E9435
:101FF000413287EB94E00E94413280916D0890E07D
:102000000E94AE3503EE602E04E0702ED6CC6FE455
:1020100073E0C8010E945944892B09F081C0F60180
:1020200080818F3309F457C18D3209F488C1082F9C
:1020300060E070E0CB01212C312C50E8452E5FE3AD
:10204000552E298E3A8E4B8E5C8E002309F4D6C015
:102050001FEFC11AD10A212C312C21011E8E1D8E99
:1020600034C010E0005311090A30110540F52D8DE0
:102070003E8D232B71F020E030E040E251E4698D89
:102080007A8D8B8D9C8D0E94113F698F7A8F8B8FFB
:102090009C8F20E030E040E251E4C201B1010E9497
:1020A0002A411B012C01B801110F880B990B0E94CA
:1020B000BB3FA20191010E949B3E1B012C01F60136
:1020C00001916F01002309F491C00E3251F601E035
:1020D00010E01E8F0D8FF3CF2D8D3E8D4F8D58A1AB
:1020E000C201B1010E942A416093590870935A08B5
:1020F00080935B0890935C080E94F72C60E074E08A
:1021000080E090E00E94953658CC65E373E0C6010C
:102110000E945944892B09F055CD10926A085ECF70
:1021200068E573E0C8010E945944892B09F082C018
:10213000F60180818F3309F43CC18D3209F41EC150
:10214000082F60E070E0CB01212C312C20E8422EDA
:102150002FE3522E002309F4E1C03FEFC31AD30A44
:10216000198E1A8E1B8E1C8E1E8E1D8E38C010E08E
:10217000005311090A30110560F54D8D5E8D452B18
:1021800051F020E030E040E251E4C201B1010E9490
:10219000113F1B012C0120E030E040E251E4698D49
:1021A0007A8D8B8D9C8D0E942A41698F7A8F8B8FBF
:1021B0009C8FB801110F880B990B0E94BB3F298D92
:1021C0003A8D4B8D5C8D0E949B3E698F7A8F8B8FF1
:1021D0009C8FF60101916F01002309F497C00E3224
:1021E00031F601E010E01E8F0D8FF3CF298D3A8D6F
:1021F0004B8D5C8DC201B1010E942A4160935D0844
:1022000070935E0880935F08909360080E94F72C9B
:1022100060E078E080E090E00E949536CECB65E308
:1022200073E0C6010E945944892B09F0CBCC10926F
:102230006B08AECE62E673E0C8010E945944892B58
:1022400009F0ADC0F60180818F3309F4D9C06EE783
:1022500072E0C6010E945944892B09F085C0F1E063
:10226000F09365080E94F72C60E070E480E090E055
:102270000E949536A2CBC3010E944132C8010E9440
:10228000413287EB94E00E9441326091590870918D
:102290005A0880915B0890915C0845E050E00E94EC
:1022A000A13413EE612E14E0712E87CBF60101816B
:1022B00096012F5F3F4F690160E070E080E090E899
:1022C000212C312CB0E84B2EBFEB5B2E2D8E3E8E99
:1022D0004F8E58A2FBCDC3010E944132C8010E941B
:1022E000413287EB94E00E94413260915D08709129
:1022F0005E0880915F089091600845E050E00E9480
:10230000A134F3EE6F2EF4E07F2E57CBA2019101A2
:10231000698D7A8D8B8D9C8D0E942A416093610816
:102320007093620880936308909364080E94F72C6E
:1023300060E070E280E090E00E9495363ECBF601CE
:10234000018196012F5F3F4F690160E070E080E0FE
:1023500090E8212C312CE0E84E2EEFEB5E2E298EFA
:102360003A8E4B8E5C8E71CE68E675E0C6010E9497
:102370005944892BC9F51092650874CFF601018183
:1023800096012F5F3F4F690160E070E080E090E8C8
:10239000212C312C30E8432E3FEB532EDBCE29A1EC
:1023A0003AA12F5F3F4F3AA329A3C8010E94690CAD
:1023B00004CBC3010E944132C8010E94413287EB25
:1023C00094E00E94413260916108709162088091AE
:1023D00063089091640842E050E00E94A13443EE0B
:1023E000642E44E0742EE9CA6CE772E0C6010E94D4
:1023F0005944892BF1F483E0282E2092650832CFCE
:10240000C3010E944132C8010E94413287EB94E02F
:102410000E94413280916508813091F081110DC098
:1024200088E695E00E94413293EE692E94E0792E81
:10243000C4CAC8010E94690C15CF8CE792E0F2CFA4
:102440008EE792E0EFCF0E942C328F3F2FEF920762
:10245000D9F08D309105D9F08A309105C1F08830DE
:10246000910509F445C082329105D1F02091EB0528
:10247000222321F1CB9739F71092EB050E942C32E1
:102480008F3F2FEF920729F780E090E00895109298
:102490006F0610926E0610926D0610926C06D3CFE6
:1024A00020916E0630916F062F5F3F4F30936F067D
:1024B00020936E062091EB052111C5CF20916C066B
:1024C00030916D062F37310584F540916E0640FD41
:1024D00003C08B339105B9F1A9014F5F5F4F509352
:1024E0006D0640936C06F901E451FA4F8083ABCF3F
:1024F00080916C0690916D06009709F4A4CF019726
:1025000090936D0680936C06FC01E451FA4F808134
:10251000823209F098CF80916E0690916F060197F4
:1025200090936F0680936E068ECF81E08093EB05CB
:1025300080E090E010926D0610926C0610926F068B
:1025400010926E0608952115310539F0F901E45114
:10255000FA4F10828CEE95E0EDCF80E090E0EACF6C
:10256000EF92FF920F931F93CF93DF93EC011092A2
:10257000E3061092E20600E010E08881803241F428
:10258000DE01FE013196EF011D9281918032D9F377
:10259000882309F487C07801EE0CFF1CEE0CFF1CA9
:1025A000F701E651F94FD183C0838881982F9F7D31
:1025B00061F08D33E9F0FE01319602C08D33C1F038
:1025C000EF018191982F9F7DC9F7F701E651F94FEF
:1025D000138212820F5F1F4F0A30110571F68FEFC1
:1025E0009FEFDF91CF911F910F91FF90EF90089592
:1025F000188289818B3399F3803289F38232B9F161
:10260000882369F3FE013196D701A651B94F13967D
:10261000FC93EE9312978981882371F08032F1F157
:102620008D33E1F1229604C08032C1F18D33B1F1D6
:10263000FE0189918111F8CFEF01C7018651994FB1
:102640007C016FE673E0FC01808191810E94594416
:10265000892B09F0BFCFF701828193810E94194431
:102660009093E3068093E20601501109B3CFCE01A7
:1026700002962A81222309F4B2CFF701E651F94FDD
:102680009383828362E270E00E944E44EC01892BC6
:1026900009F4A5CF8881882381F2FE01EF012196FC
:1026A0001082CBCFC801DF91CF911F910F91FF9086
:1026B000EF90089588EF91E00E9441328091E20608
:1026C0009091E306892B69F48CED94E00E944132ED
:1026D00088E392E00E9441320E9436328FEF9FEFF2
:1026E000089580E40E9422328091E2069091E306F0
:1026F0000E94AE35E9CF0F931F93CF93DF930097DE
:1027000031F58091E7059091E805A091E905B09138
:10271000EA050097A105B105A1F04091DE065091B0
:10272000DF066091E0067091E10684179507A60721
:10273000B70708F485C080911507982F907F9038CF
:1027400079F180E0DF91CF911F910F910895409131
:10275000DE065091DF066091E0067091E1068A0185
:102760009B01080F191F211D311D0093E7051093D0
:10277000E8052093E9053093EA051092150780914A
:10278000E2069091E3069093E6058093E50581E0EB
:102790008093140780E0DF91CF911F910F910895EE
:1027A00090E0A0E0B0E0DC0199278827209117078E
:1027B000822B4091160750E0542F442760E070E0D0
:1027C000842B952BA62BB72BA093E4069093E506BC
:1027D0008093E6068093510890935208A093530883
:1027E000B09354081092E7051092E8051092E9059D
:1027F0001092EA0586E993E00E94413288EF91E069
:102800000E9441328091E2069091E306892B09F003
:102810004EC08AE30E9422328BEB93E00E94413249
:102820008CED94E00E9441320E94363264E070E008
:1028300080E090E00E9495361092140781E082CFEC
:10284000C091E206D091E3061092E7051092E805E8
:102850001092E9051092EA0583E793E00E94413265
:102860008091E5059091E6059093E3068093E2065A
:1028700088EF91E00E9441328091E2069091E30658
:10288000892BF9F48AE30E94223288E893E00E94BF
:1028900041328CED94E00E9441320E943632D09356
:1028A000E306C093E2061092140780E04BCF80E469
:1028B0000E9422328091E2069091E3060E94AE359A
:1028C000A8CF80E40E9422328091E2069091E30634
:1028D0000E94AE35D7CF4F925F926F927F928F92C8
:1028E0009F92AF92BF92CF92DF92EF92FF920F939F
:1028F0001F93CF93DF9300D01F92CDB7DEB77C013B
:102900005B014A011B82452B09F4A9C0FC018081AF
:1029100020E030E0882309F45BC000E010E055249B
:102920005A949FE0492E1EC0F501E20FF31F50821A
:102930006801FFEFCF1ADF0AC814D90408F04CC0B1
:10294000F501EC0DFD1D40828FEFE81AF80A8601B3
:102950000F5F1F4F980108151905D0F5F701808109
:102960008823B1F18B3209F44CC08D32E9F28983AE
:10297000F70181818A836801FFEFCF1ADF0AC8144B
:10298000D90450F5CE0101960E9419440E94AF3A35
:10299000F501EC0DFD1D8083F701828189833701EC
:1029A000F4E06F0E711CF70183818A830A0D1B1DF1
:1029B000CE0101960E9419440E94AF3AF80180832B
:1029C000730186010F5F1F4F98010815190530F23A
:1029D00081E08216930609F080E00F900F900F902F
:1029E000DF91CF911F910F91FF90EF90DF90CF90EB
:1029F000BF90AF909F908F907F906F905F904F901F
:102A000008950430110544F3C80104968816990608
:102A100018F3D501A20FB31FFD01349780818C9369
:102A2000F8013196EA0DFB1DDF0114978C9180832C
:102A3000F8013296EA0DFB1DDF0114978C9180831B
:102A40006801E3E0CE0ED11CF501EC0DFD1DDF01A8
:102A500014978C918083FFEFEF1AFF0A78CF20E064
:102A600030E0B6CF2F923F924F925F926F927F925B
:102A70008F929F92AF92BF92CF92DF92EF92FF928E
:102A80000F931F93CF93DF93CDB7DEB7A8970FB601
:102A9000F894DEBF0FBECDBFFC014B012FEF2983A1
:102AA0009FE09A832B839C832D839E832F8398871B
:102AB00029879A872B879C872D879E872F87988BBE
:102AC000298B9A8B2B8B9C8B2D8B9E8B2F8B988F8E
:102AD000298F9A8F2B8F9C8F2D8F9E8F2F8F98A34E
:102AE000623071050CF44DC2E480F580A680B78099
:102AF000E114F10409F4ECC08F01312C18A6FEEFAB
:102B0000FFA319A2212C1BA21CA21DA21EA2612C94
:102B1000712C1AA2512C412CCC24C394D12C21C04D
:102B2000A114B10409F4B7C04CE150E0BE016F5FDD
:102B30007F4FC5010E946B14582E4FEFC41AD40A60
:102B40008C149D0481F1D8011896ED90FC90199792
:102B50000C5F1F4FF801A680B780E114F10409F45F
:102B6000B7C063EC73E0C7010E945944892BC1F2DE
:102B70006AEC73E0C7010E945944892B09F046C0F2
:102B8000A114B10409F487C044E050E0BE01635EC3
:102B90007F4FC5010E946B14482E4FEFC41AD40A10
:102BA0008C149D0481F66BA17CA18DA19EA1672B45
:102BB000682B692B09F4EDC02091DF05822F90E08E
:102BC000A0E0B0E0DC01992788273091E105832B54
:102BD0004091E00550E0542F442760E070E0842BE2
:102BE000952BA62BB72B4BA15CA16DA17EA14817FD
:102BF00059076A077B0709F44CC18FED95E00E94E5
:102C0000B0052091DF050FED15E0C7C060ED73E062
:102C1000C7010E945944892B59F4A114B10409F445
:102C2000ACC0C5010E9419443C0121E02AA385CF14
:102C300066ED73E0C7010E945944892B91F4A114F9
:102C4000B10441F0D5018C91803309F48FC08133F8
:102C500009F073CF79A1716079A3822D8160282E4C
:102C60006CCF6DED73E0C7010E945944892B09F0C8
:102C70004AC0A114B10441F0F5018081803309F408
:102C800081C0813309F059CF99A1906899A3A22DF1
:102C9000A0682A2E52CF88EF91E00E9441328091A5
:102CA000E2069091E306892B49F080E40E942232EB
:102CB0008091E2069091E3060E94AE358CED94E09F
:102CC0000E94413288E392E00E9441320E943632F3
:102CD0008FEF9FEFA8960FB6F894DEBF0FBECDBF63
:102CE000DF91CF911F910F91FF90EF90DF90CF90E8
:102CF000BF90AF909F908F907F906F905F904F901C
:102D00003F902F90089566EE73E0C7010E945944EA
:102D1000892B79F4A114B10409F41AC1D5018C915D
:102D2000803309F45FC0813309F0B6C0F1E0FFA33E
:102D300004CF66E372E0C7010E945944892B09F46D
:102D400041C06CE274E0C7010E945944892B09F02C
:102D5000BCC0A114B10409F445C1C5010E941944C5
:102D60008830910508F03EC1382EE7CE39A1316098
:102D700039A3422D4E7F242EE0CE612C712C31E000
:102D80003AA3DBCE59A1506859A3622D6F77262E46
:102D9000D4CE2091E40604EE16E0207F203809F41A
:102DA00063C0D80114968C918F60F8018483C801A8
:102DB0000E94D00581E00E94CC18811115C080E0EE
:102DC00090E088CFA114B10409F4BDC040E150E007
:102DD00060E070E0C5010E940E426BA37CA38DA34E
:102DE0009EA3ABCE1FA2A9CE8CE197E00E94282023
:102DF000FFA1F13009F4D5C05110BBC04110B1C0E2
:102E00002AA12111A8C060E08CE197E00E94432133
:102E100049A1622D8CE197E00E94AF21B8018CE1BD
:102E200097E00E94522263E0C8010E942105882396
:102E3000B1F188EF91E00E9441328091E2069091D9
:102E4000E306892B09F0C4C08CED94E00E94413266
:102E500080EC93E00E9441320E94363280E00E9472
:102E6000CC1880E090E036CFF8018481282F2F70B5
:102E7000F0E13F9EC0011124822BD80113969C9152
:102E80001397292F207F98A59F70922B13969C93C0
:102E90008BCF0FED15E081CFBFEFBFA34ECE88EFF4
:102EA00091E00E9441328091E2069091E306892BE5
:102EB00009F084C08CED94E00E94413288E392E0F6
:102EC0000E9441320E943632C9CF6BED73E0C701D8
:102ED0000E945944892B91F4A114B10409F482C0D1
:102EE000C5010E9419448830910508F07BC0009705
:102EF00009F47BC027E0280F28A71FCE6FEE73E0F0
:102F0000C7010E945944892B09F47BC082ED91E0EE
:102F10000E9441328091E2069091E306892B09F0EC
:102F200066C08AE30E94223283EC91E00E94413223
:102F30008CED94E00E944132C7010E9441328AE048
:102F40000E942232FACD1BA21CA21DA21EA2F5CD08
:102F5000E1E0EFA3F2CDB3018CE197E00E944F22B4
:102F600052CFBE01635E7F4F8CE197E00E94422208
:102F700047CFBE016F5F7F4F8CE197E00E94112227
:102F80003DCF2091E406312C512C612C712C212C49
:102F900019A23EEF3FA31AA2412C18A604EE16E098
:102FA000FCCE61E08CE197E00E94432149A1622DB3
:102FB0008CE197E00E94AF2162E036CF80E40E946E
:102FC00022328091E2069091E3060E94AE3572CFE4
:102FD00080E40E9422328091E2069091E3060E94F2
:102FE000AE3532CF0E945A1375CE18A6A6CD80E416
:102FF0000E9422328091E2069091E3060E94AE3553
:1030000090CF0E945A138FEF9FEF64CE0F931F93C0
:10301000CF93DF930E942312009709F447C00E94C8
:10302000B0128C0197FD52C00E946829811193C093
:10303000C091EA06D091EB06609100017091010108
:10304000CE010E945944892B09F466C060910601A3
:1030500070910701CE010E945944892B09F46FC079
:1030600060910C0170910D01CE010E945944892B91
:1030700009F468C06091120170911301CE010E94A1
:103080005944892B09F461C06091180170911901AC
:10309000CE010E945944892B09F45AC086E693E078
:1030A000DF91CF911F910F910C9441328091D805FF
:1030B000811107C086E693E00E94413281E080934F
:1030C000D805DF91CF911F910F91089588EF91E07E
:1030D0000E9441328091E2069091E306892B91F49F
:1030E0008CED94E00E94413288E392E00E944132EC
:1030F0000E94363286E693E0DF91CF911F910F91C7
:103100000C94413280E40E9422328091E206909138
:10311000E3060E94AE35E4CF80E090E0FC01EE0FC4
:10312000FF1FE80FF91FEE0FFF1FE050FF4F028057
:10313000F381E02DB8018AEE96E00995AFCF81E0EA
:1031400090E0ECCF82E090E0E9CF83E090E0E6CF42
:1031500084E090E0E3CF0E946B2988EF91E00E9429
:1031600041328091E2069091E306892B59F48CED6F
:1031700094E00E94413282EF93E00E9441320E942B
:1031800036328CCF80E40E9422328091E206909108
:10319000E3060E94AE35EBCF8823A1F08091900624
:1031A0008F5F8093900604C080916A08813041F45B
:1031B00084E690E00E94653880918F068823A1F311
:1031C00081E008958091900681508093900681E07F
:1031D000089510928C0610928B0610928D06109214
:1031E0008E0610928606109278061092770610923C
:1031F0001B07109276061092750686E090E0909379
:1032000074068093730608950E949D3680937E060F
:1032100090917D06891709F472C081115BC09FEF00
:103220009093850680937D0620911B07211109C08C
:103230002091D506211105C020918F06222309F483
:1032400060C080918306909184062091900622238D
:1032500009F442C020918F0621111AC010928C06E9
:1032600010928B0610928D0610928E061092860692
:10327000109278061092770610921B07109276062D
:103280001092750626E030E03093740620937306A2
:1032900021E020938F060196909384068093830605
:1032A00080917E068823D9F08091810690918206D4
:1032B0000196909382068093810680918506181668
:1032C000DCF410928406109283061092820610920B
:1032D0008106089591E0A4CF10928F06DCCF8091F3
:1032E0007F069091800601969093800680937F06DA
:1032F0008091850618162CF381117DC0089590E009
:103300008FCF4091790650917A0660917B0670913B
:103310007C06411551056105710509F44BC041500A
:103320005109610971094093790650937A066093B7
:103330007B0670937C06452B462B472BD9F51092C4
:103340008C0610928B0610928D0610928E061092AB
:103350008606109278061092770610921B0710923C
:1033600076061092750626E030E0309374062093BE
:103370007306913009F065CF20918606809183060F
:1033800090918406AC0127300CF0F9C04C505109E3
:103390004D31510508F059CF409181065091820678
:1033A000445051094131510508F04FCF2F5F209310
:1033B00086064BCF811124C080918E06882309F4A4
:1033C0004BC19F3F09F492C090918606973009F057
:1033D00038CF21E0280F2831E0F010928E0680913E
:1033E0008D068F5F8A30E0F480938D06809183068E
:1033F000909184062ACF1092800610927F0608953D
:1034000020917F0630918006213F310508F097CF4B
:10341000D3CF809183069091840620938E0615CF9A
:1034200010928D0620918B0630918C0620FDBCC039
:1034300080917306909174064091750650917606BE
:103440002F5F3F4F30938C0620938B064817590708
:1034500008F4F7CE8F30910509F470C0883A9105D1
:1034600009F468C0069709F0ECCE80917706909138
:103470007806892B01F580911C0791E0811190E07D
:1034800020911D07820F211190E020911E07820FCD
:10349000211190E020911F07820F211190E02091CF
:1034A0002007820F211102C0911105C090912107C0
:1034B000891709F4D6C010928C0610928B061092D0
:1034C0008606109278061092770610921B071092CB
:1034D00076061092750686E090E0909374068093CD
:1034E00073068091830690918406AFCE2091810669
:1034F00030918206E0918B06F0918C06E170FF27F7
:10350000EE0FFF1FE957F94F2C30310530F521E060
:1035100030E0A90100908D0602C0440F551F0A94A7
:10352000E2F720813181242B352B31832083909148
:1035300086064CCF83E080931B0783CE80912807BB
:1035400087FD9CC088EA90E0909374068093730690
:10355000809183069091840678CE21E030E000903F
:103560008D0602C0220F331F0A94E2F72095309592
:1035700040815181242335233183208325CF4C532F
:1035800051094D33510508F060CE409181065091AC
:103590008206445051094531510508F056CE273076
:1035A00009F053CE21E039CF40917506509176064F
:1035B000FA01E45EF84F8091870690918806DC015D
:1035C000BB27682F62956F70762F7827672F6695D7
:1035D00066956727762F7695672760FD5EC060E069
:1035E00070E06A2B7B2B8617970709F45CC08091EB
:1035F000890690918A06DC01BB27682F62956F705F
:10360000762F7827672F669566956727762F7695AC
:10361000672760FD45C060E073E06A2B7B2B86174F
:10362000970709F440C087E78083809177069091DF
:1036300078060196909378068093770680917306BA
:10364000909174068417950708F14F5F5F4F509370
:10365000760640937506F4CE20918D062111B1CEE9
:1036600088CE809120078F708F30F9F081E08093B1
:103670001B078091830690918406E7CD82E08093BA
:103680001B078091830690918406DFCD2F5F3F4F0B
:1036900030938C0620938B06DDCE60E072E0A1CFE4
:1036A00060E071E0BACF8083C9CF80911C07807F32
:1036B0008038E1F68FE090E0909374068093730673
:1036C0008091830690918406C0CD8091D5068111AA
:1036D00001C008959091710691111BC020918E0632
:1036E000223008F47CC0109272062F5F263008F456
:1036F0004CC010928E0620918D062F5F233008F467
:1037000080C010928D06982F80E0909371060C94E3
:10371000A2368091700681113CC090918E0681E0A6
:10372000923008F080E0809372069F5F943038F109
:1037300010928E0690918D069F5F973008F458C0C6
:1037400010928D0691E09093700690911C07492F7E
:1037500050E0292F22952F709227292F2695269504
:103760009227292F2695922790FF51C020E032E022
:10377000242B352B3093880620938706C8CF90934F
:103780008E06109270060C94A23680E020938E066E
:10379000BCCF20918D06422F50E0435051099091AB
:1037A0008E0657FD28C0923090F0943040F561E0CD
:1037B00070E002C0660F771F4A95E2F740918706D6
:1037C000509188064623572381E0452BC1F480930E
:1037D00072069F5F9630F0F490938E0698CF3091EA
:1037E0008D06311180CF31E0309372062F5FCECF3E
:1037F00090938D06C6CF211102C0923040F380E035
:10380000E6CF20938D0680E080CF9111AFCF20E0EE
:1038100030E0AECF10928E062F5F2D3018F420933B
:103820008D0675CF10928D0620918B0630918C06F7
:103830002F5F3F4F30938C0620938B064091DC0620
:103840005091DD0624173507D8F4F901F695E79570
:10385000E45EF84F9081492F50E0392F32953F7048
:103860009327392F369536959327392F36959327F9
:10387000917020FFCACF91111AC020E033E078CFB9
:1038800010928C0610928B061092700610927106A0
:103890000E94A2361092D50610928C0610928B06CA
:1038A00010928D0610928E0680E00C94A23620E0D5
:1038B00031E05ECFCF93DF93FC0190818181980F3F
:1038C0008281980F8381980F8481890F9581891354
:1038D000C6C1880F613009F4C6C19681980F27814F
:1038E000920F2085920F2185920F8285980F8385F4
:1038F000980F8485980F8585980F86859813AFC19A
:10390000990F623009F4AFC127858089280F81891A
:10391000280F8289280F8389280F8489280F858999
:10392000280F8689280F920F8789981398C1208DB8
:10393000818D820F228D820F238D820F248D820F25
:10394000258D820F268D820F378D830F890F292FAA
:10395000280F80A1281383C191A182A1890F93A16F
:10396000890F94A1890F95A1890F96A1890F97A11D
:10397000890F90A5890F820F982F920F81A5981318
:103980006EC122A583A5820F24A5820F25A5820FD3
:1039900026A5820F27A5820F20A9820F21A9820FB9
:1039A000890F890F92A989135AC124A993A9920F4B
:1039B00025A9920F26A9920F27A9920F20AD920F49
:1039C00021AD920F22AD920F980F890F23AD2813CE
:1039D00046C195AD84AD890F96AD890F97AD890F1E
:1039E000DF01A05CBF4F9C91890F11969C91890FBC
:1039F00011969C91890F11969C91890F820F820FCD
:103A000011969C9198132BC112962C9111979C9111
:103A1000920F12962C91920F11962C91920F119653
:103A20002C91920F11962C91920F11962C91920F2E
:103A300011962C91920F980F890F11964C91481363
:103A40000EC112969C9111978C91890F12969C91A0
:103A5000890F11969C91890F11969C91890F11964F
:103A60009C91890F11969C91890F11969C91890FB9
:103A7000840F480F11969C919413F1C011968C916C
:103A800011964C91840F11964C91840F11964C9184
:103A9000840F11964C91840F11964C91840F1196BE
:103AA0004C91840F11964C91840F890F292F280F68
:103AB00011968C912813D3C011969C9111968C91DC
:103AC000890F11969C91890F11969C91890F1196DF
:103AD0009C91890F11969C91890F11969C91890F49
:103AE00011969C91890F820F922F980F11968C91AD
:103AF0009813B5C011963C9111968C91380F119680
:103B00008C91380F11968C91380F11968C91380F3B
:103B100011968C91380F11968C91380F11968C91CB
:103B2000380F390F892F830F11969C91891397C0F5
:103B300011962C9111969C91290F11969C91290F09
:103B400011969C91290F11969C91290F11969C9189
:103B5000290F11969C91290F11969C91290F280FDE
:103B6000382F320F11968C91381379C011969C9191
:103B700011968C91980F11968C91980F11968C91AB
:103B8000980F11968C91980F11968C91980F119611
:103B90008C91980F11968C91980F930F232F290FCA
:103BA00011968C9128135BC011969C9111968C9163
:103BB000890F11969C91890F11969C91890F1196EE
:103BC0009C91890F11969C91890F11969C91890F58
:103BD00011969C91890F820F922F980F11968C91BC
:103BE00098133DC011962C9111968C91820F1196CD
:103BF0002C91820F11962C91820F11962C91820F8D
:103C000011962C91820F11962C91820F11962C9166
:103C1000820F890F890F11969C91891320C0EF01A3
:103C2000CA56DF4F129628819C91920F11962C91C3
:103C3000920F11962C91920F11962C91920F119632
:103C40002C91920F11962C91920F11962C91920F0C
:103C5000980F980FE256FF4F81E02081921380E089
:103C6000DF91CF91089581E0DF91CF910895CF93B7
:103C7000DF93FC0190818181980F8281980F83816D
:103C8000980F8481890F8583880F613009F49EC164
:103C90009681980F2781920F2085920F2185920F90
:103CA0008285980F8385980F8485980F8585980F56
:103CB0009687990F623009F489C137858089380F5A
:103CC0008189380F8289380F8389380F8489380FAA
:103CD0008589380F8689380F390F378B908D818D04
:103CE000890F928D890F938D890F948D890F958DF2
:103CF000890F968D890F478D840F830F932F980F0F
:103D000090A331A182A1380F83A1380F84A1380F6D
:103D100085A1380F86A1380F87A1380F80A5380FED
:103D2000390F832F890F81A722A593A5290F94A569
:103D3000290F95A5290F96A5290F97A5290F90A9B9
:103D4000290F91A9290F280F322F380F32AB93A9D1
:103D500084A9980F85A9980F86A9980F87A9980F0D
:103D600080AD980F81AD980F82AD980F930F292FDA
:103D7000230F23AF95AD84AD890F96AD890F97AD15
:103D8000890FDF01A05CBF4F9C91890F11969C9118
:103D9000890F11969C91890F11969C91890F820F22
:103DA000982F920F11969C93EF01CA5BDF4F1196EB
:103DB00028818C91820F12962C91820F11962C9152
:103DC000820F11962C91820F11962C91820F1196D1
:103DD0002C91820F11962C91820F890F890F1196C9
:103DE0008C932996119628819C91920F12962C9172
:103DF000920F11962C91920F11962C91920F119671
:103E00002C91920F11962C91920F11962C91920F4A
:103E1000980F890F11968C932996119628819C9161
:103E2000920F12962C91920F11962C91920F11963F
:103E30002C91920F11962C91920F11962C91920F1A
:103E400011962C91920F980F890F11968C932896AA
:103E5000129628819C91920F11962C91920F119697
:103E60002C91920F11962C91920F11962C91920FEA
:103E700011962C91920F11962C91920F980F890FF9
:103E800011968C932996129628819C91920F1196E7
:103E90002C91920F11962C91920F11962C91920FBA
:103EA00011962C91920F11962C91920F11962C91A4
:103EB000920F980F890F11968C932996129628814C
:103EC0009C91920F11962C91920F11962C91920F1A
:103ED00011962C91920F11962C91920F11962C9174
:103EE000920F11962C91920F980F890F11968C9327
:103EF0002996129628819C91920F11962C91920FDF
:103F000011962C91920F11962C91920F11962C9143
:103F1000920F11962C91920F11962C91920F980F4F
:103F2000282F290F11962C932996129698818C91FF
:103F3000890F11969C91890F11969C91890F11966A
:103F40009C91890F11969C91890F11969C91890FD4
:103F500011969C91890F820F280F11962C93299608
:103F6000129698818C91890F11969C91890F1196C8
:103F70009C91890F11969C91890F11969C91890FA4
:103F800011969C91890F11969C91890F820F820F37
:103F900011968C932996129628819C91920F1196D6
:103FA0002C91920F11962C91920F11962C91920FA9
:103FB00011962C91920F11962C91920F11962C9193
:103FC000920F980FE256FF4F890F8083DF91CF91B8
:103FD00008950F931F93CF93DF93EC01162F0E9448
:103FE000AA308EEF810F823028F0DF91CF911F91A0
:103FF0000F9108952696123039F160E002E110E049
:1040000080916D088530C8F0C801880F991F880F0E
:10401000991F880F991F080F191F0C0F1D1F69E0AA
:1040200070E0CE010E9448362996C017D107B9F733
:10403000DF91CF911F910F910895CE01DF91CF9124
:104040001F910F910C94BF3061E001E010E0D8CFD8
:10405000CF93DF93FC01DC01169688E0ED01199205
:104060008A95E9F79FEF97878FE0808B918B828B02
:10407000938B848B958B868B908F818F928F838F80
:10408000948F858F968F878F91A382A393A384A308
:1040900095A386A397A380A792A783A794A785A794
:1040A00096A787A790AB81AB93AB84AB95AB86AB60
:1040B00097AB80AF91AF82AF94AF85AF96AF87AF2C
:1040C000DA969C9311968C9311969C9311968C93EF
:1040D00012969C9311968C93119712969C9312971B
:1040E00013968C93139714969C93149715968C9310
:1040F000159716969C93169717968C931797199663
:104100009C9311968C93119712969C9312971396E9
:104110008C93139714969C93149715968C931597DC
:1041200016969C93169717968C93179719969C93AF
:1041300011968C93119712969C93129713968C93C9
:10414000139714969C93149715968C93159716961F
:104150009C93169717968C93179719969C93119684
:104160008C93119712969C93129713968C93139796
:1041700014969C93149715968C93159716969C936A
:10418000169717968C93179719969C9311968C9364
:10419000119712969C93129713968C9313971496DB
:1041A0009C93149715968C93159716969C93169737
:1041B00017968C93179719969C9311968C93119739
:1041C00012969C93129713968C93139714969C9324
:1041D000149715968C93159716969C931697179689
:1041E0008C93179719969C9311968C93119712960E
:1041F0009C93129713968C93139714969C931497F1
:1042000015968C93159716969C93169717968C93E4
:10421000179719969C9311968C93119712969C93CD
:10422000129713968C93139714969C931497159644
:104230008C93159716969C93169717968C931797B1
:1042400019969C9311968C93119712969C931297A2
:1042500013968C93139714969C93149715968C939E
:10426000159716969C93169717968C93EA56FF4FC0
:1042700090838183928383839483858396838783CA
:10428000DF91CF910895DF92EF92FF920F931F93EA
:10429000CF93DF9300D000D0CDB7DEB78C01D62E00
:1042A00080E090E00E94B90469837A838B839C83C9
:1042B000CE0101960E94D73A7C01FC0180810E94C8
:1042C000AF3AF8018683F70181810E94AF3AF80185
:1042D0008783F70182810E94AF3AF8018087F70156
:1042E00083810E94AF3AF8018287F70185818F5F51
:1042F0000E94AF3AF8018387DD2051F187E820E87A
:10430000F7019481992311F0892F822BF80184877A
:1043100081E090E0F701048002C0880F991F0A94A1
:10432000E2F7F8018187F70182859385F801892BEF
:1043300091F485858B7F85870F900F900F900F905C
:10434000DF91CF911F910F91FF90EF90DF90089533
:1043500087E020E0D5CF858584608587EDCFFC019F
:1043600040FF05C0858560FF59C081608587942F17
:104370009695262F269590FF05C0858520FF4BC07A
:10438000826085879695269590FF05C0858520FFDC
:104390003FC0846085879695269590FF05C08585EA
:1043A00020FF33C0886085879695269590FF05C0CD
:1043B000858520FF27C0806185879695269590FF8B
:1043C00005C0858520FF1BC0806285879695269550
:1043D00090FF05C0858520FF0FC080648587969576
:1043E0002695992341F08585222319F080688587D9
:1043F00008958F77858708958F7B8587F0CF8F7D90
:104400008587E4CF8F7E8587D8CF877F8587CCCF80
:104410008B7F8587C0CF8D7F8587B4CF8E7F858743
:10442000A6CFCF93DF93EC01FB01808191819C8B20
:104430008B8B828193819E8B8D8BDE015896349677
:1044400088E001900D928A95E1F7DE019196FB01DB
:104450003C9688E001900D928A95E1F7FB018489F2
:1044600095899BA78AA7868997899DA78CA7808D08
:10447000918D988B8F87828D938D9A8B898BDF910D
:10448000CF910895FB0120813181FC0137A726A738
:10449000FB0122813381FC0131AB20AB0895C3962F
:1044A0000C94E605FB01DC01A156BF4F1C92208154
:1044B00011962C93218111962C932281FC01EE55AB
:1044C000FF4F2083319623E5208331961082319669
:1044D00020E12083319621E12083319625E020835D
:1044E000089580E00895CF92DF92EF92FF920F93AC
:1044F0000E94CC040E94262A0E9406180E941729B6
:1045000080911B07882309F471C080911B078130BB
:10451000E9F060F0843050F480E494E00E9441328D
:1045200060911B078CE197E00E94E91F60911B07D7
:104530008CE197E00E945A1C882309F44CC00F912B
:10454000FF90EF90DF90CF900C94E91885E0ECE1BC
:10455000F7E0A5E1B7E001900D928A95E1F780E0E0
:1045600090E00E947B138DE394E00E9441326091C1
:104570001B078CE197E00E94E91F40912007042F60
:104580000F7020911F072F7042954F7060911C078C
:10459000862F90E0A0E0B0E0DC01992788273091D9
:1045A0001E076C017D01C32A80911D0790E0982FA2
:1045B0008827A0E0B0E0BC01CD016C297D298E29BF
:1045C0009F290E944D2D60911B078CE197E00E946E
:1045D0005A1C8111B4CF86E594E00E9441320F91BC
:1045E000FF90EF90DF90CF900C94E9180F91FF901F
:1045F000EF90DF90CF900895CF93DF9384EA98E017
:104600000E94643289E998E00E946432C1E5D8E0F2
:10461000688179818A819B8140E00E942B3382E905
:1046200098E00E9464326C817D818E819F8140E0A0
:104630000E94FA338FE898E00E9464328DE798E098
:104640000E946432688579858A859B8545E050E0C3
:104650000E94A13482E798E00E9464326C857D85D7
:104660008E859F8545E050E00E94A13486E698E063
:104670000E946432688979898A899B8942E050E086
:104680000E94A1348FE898E00E9464328BE398E0A6
:10469000DF91CF910C9464320E94F72C4091510825
:1046A00050915208609153087091540884EE96E03E
:1046B0000E94B0050E94FC2283E00E94CB3680E07D
:1046C00090E008952F923F924F925F926F927F9267
:1046D0008F929F92AF92BF92CF92DF92EF92FF9212
:1046E0000F931F93CF93DF93CDB7DEB7C155D10999
:1046F0000FB6F894DEBF0FBECDBF4C018B016A012F
:10470000F22E80E090E00E94B9042E966CAF7DAF4F
:104710008EAF9FAF2E97CE01865B9F4F0E94D73AF8
:10472000FC018085918560969FAF8EAF6097228453
:104730003384E48085E4EEE1F1E0DE01119601903E
:104740000D928A95E1F7EE2009F4B9C0EA942F2D75
:10475000A601B801CE0101960E947122782E88230D
:1047600009F492C08FEF9FEFF401918380839383CC
:1047700082839583848397838683918780878C81C6
:1047800081111EC18D85882309F479C0A12CB12C1B
:104790008E01035F1F4F0E2C000CFF089CE3692E57
:1047A00062C08D3209F406C129961FAE299727965B
:1047B0008FAF2797F801818128968FAF2897CE0178
:1047C0008A5B9F4F0E941944689E6001699ED00CCD
:1047D0001124F801828127968FAF2797838128962D
:1047E0008FAF2897CE018A5B9F4F0E941944C80E55
:1047F000D91E0C5F1F4FF80180818D3209F4D5C09E
:1048000029961FAE299727968FAF279781812896E3
:104810008FAF2897CE018A5B9F4F0E941944689EF4
:104820002001699E500C1124F801828127968FAFD8
:104830002797838128968FAF2897CE018A5B9F4F59
:104840000E941944840D951D0C5F1F4FEA14FB0450
:1048500009F423C1FFEFAF1ABF0A27E0A216B10483
:1048600071F0F80180818B3209F09BCF0F5F1F4FF1
:10487000FFEFAF1ABF0A27E0A216B10491F78981B2
:104880009A8180329E44F4F0872DCF5ADF4F0FB6C5
:10489000F894DEBF0FBECDBFDF91CF911F910F9176
:1048A000FF90EF90DF90CF90BF90AF909F908F9050
:1048B0007F906F905F904F903F902F90089527E0EA
:1048C000E22E45CF2A961CAE1DAE1EAE1FAE2A9715
:1048D000A0905908B0905A08C0905B08D0905C082E
:1048E00060966EAD7FAD60976F5F7F4F072E000CB7
:1048F000880B990B0E94BB3F62966CAF7DAF8EAF69
:104900009FAF629761E070E0232809F4BEC0072ED4
:10491000000C880B990B0E94BB3F209161083091DD
:10492000620840916308509164080E949B3E9B017D
:10493000AC018DEB8F9386ED8F9387E78F9380E5A6
:104940008F93809160088F9380915F088F938091FF
:104950005E088F9380915D088F936296ECACFDACFE
:104960000EAD1FAD6297BE016A5B7F4F80E090E0A5
:104970000E94F23820E030E040E752E42A966CAD25
:104980007DAD8EAD9FAD2A970E942A410E94833F44
:1049900029813A81620F731FF401718360830FB61E
:1049A000F894DEBF0FBECDBF6FCF0F5F1F4F8FEFED
:1049B0009FEF4CCF0F5F1F4FCC24CA94DC2C1BCF32
:1049C0008D3209F465C029961FAE299727968FAFBF
:1049D00027978D8128968FAF2897CE018A5B9F4FAE
:1049E0000E9419442CE3289F8001299F100D112457
:1049F000F401138302838E8127968FAF27978F81CF
:104A000028968FAF2897CE018A5B9F4F0E9419444A
:104A1000800F911FF4019383828388858E01085F44
:104A20001F4F8D3209F43FC029961FAE2997279654
:104A30008FAF2797F801818128968FAF2897CE01F5
:104A40008A5B9F4F0E9419442CE3289F6001299F95
:104A5000D00C1124F401D582C482F80182812796FA
:104A60008FAF2797838128968FAF2897CE018A5BD7
:104A70009F4F0E9419448C0D9D1DF40195838483E2
:104A80008D85882309F4FBCE81CE60E070E03FCFB6
:104A90008D818E010B5F1F4FC4CFF401D782C68278
:104AA00091878087ECCE8FEF9FEFF401958384830D
:104AB00069CE2F923F924F925F926F927F928F9228
:104AC0009F92AF92BF92CF92DF92EF92FF920F939D
:104AD0001F93CF93DF93CDB7DEB7C157D1090FB680
:104AE000F894DEBF0FBECDBF6E969FAF8EAF6E97B0
:104AF000A0967FAF6EAFA0972E0106E4400E511C2A
:104B000088E0D2011D928A95E9F780E090E00E944A
:104B1000B90466966CAF7DAF8EAF9FAF6697CE013E
:104B20008E5A9F4F0E94D73AFC01208531852F5F16
:104B30003F4F41E050E082859385892B11F440E09E
:104B400050E0648172818181082E000C990BFC0178
:104B50000CE37002E00DF11D1124E296FFAFEEAF01
:104B6000E2979BE06E96AEADBFAD6E97E92F1D92BA
:104B7000EA95E9F7EFEFFFEF6E96AEADBFAD6E973A
:104B80001996FC93EE9318971A968C911A97816058
:104B90001A968C93A096AEADBFADA0971D929A9534
:104BA000E9F7A096AEADBFADA0971996FC93EE9332
:104BB00018971A968C911A9782601A968C938FEF99
:104BC000860F611101C087E0EFEFFFEFE096FFAFC6
:104BD000EEAFE097212C7901330F000B110BAA9651
:104BE000ECAEFDAE0EAF1FAFAA978A01550F220B98
:104BF000330BAE960CAF1DAF2EAF3FAFAE97282F45
:104C0000880F330BA6963FAF2EAFA697322C68962F
:104C10001FAE689767961FAE679780E04CE3242E1F
:104C20002FC0992331F1882309F48AC16E96EEAD25
:104C3000FFAD6E97E20FF31F908190FF09C061E016
:104C400070E0082E01C0660F0A94EAF7692B6083B2
:104C5000A096EEADFFADA097E20FF31F908190FFFD
:104C600008C021E030E001C0220F4A95EAF7292B65
:104C700020838F5F67968FAF6797883008F025C1D4
:104C8000332099F068969FAD6897292F30E0482F20
:104C9000F201E20FF31F608170E0082E02C07595EB
:104CA00067950A94E2F760FFBCCF85E4EEE1F1E09E
:104CB000DE01119601900D928A95E1F720E0AE0198
:104CC0004A5A5F4FBE01695A7F4FCE0101960E943A
:104CD0007122882309F430C18C81811111C22FEF18
:104CE0003FEF6C963FAF2EAF6C974FEF5FEF6A963A
:104CF0005FAF4EAF6A978D85882309F47DC0A12CE4
:104D0000B12C6E015DE0C50ED11CA6960EAD1FAD97
:104D1000A69765C08D3209F408C161961FAE6197F0
:104D20002F968FAF2F97D60111968C9160968FAFEB
:104D30006097CE01825B9F4F0E941944289E3001EC
:104D4000299E700C1124F60182812F968FAF2F9728
:104D5000838160968FAF6097CE01825B9F4F0E94E8
:104D60001944680E791EF4E0CF0ED11CD6018C9147
:104D70008D3209F4D3C061961FAE61972F968FAF25
:104D80002F9711968C9160968FAF6097CE01825BC2
:104D90009F4F0E941944289E4001299E900C112487
:104DA000F60182812F968FAF2F97838160968FAF08
:104DB0006097CE01825B9F4F0E941944880E991E16
:104DC000F4E0CF0ED11CA016B106E1F02FEFA21A2D
:104DD000B20A37E0A316B10479F0D6018C918B3278
:104DE00009F098CF6FEFC61AD60A2FEFA21AB20AAF
:104DF00037E0A316B10489F788248A94982C662496
:104E00006A94762C89819A8180329E440CF4B2C0D7
:104E100068962FAD689730E067968FAD679741E051
:104E200050E0082E01C0440F0A94EAF7942FF201D3
:104E3000E20FF31F5081452B40836FEF7FEF33204C
:104E400009F4D2C1E0964EAD5FADE0974F3FAFEFB2
:104E50005A0709F4CEC16A96EEACFFAC6A974E15BC
:104E60005F0509F4C8C14615570509F4C4C1E096A9
:104E7000EEACFFACE097E616F70659F06C960EAD77
:104E80001FAD6C97E016F10621F0E814F90409F063
:104E9000F0CEA096EEADFFADA097E20FF31F2081FC
:104EA000922B9083E096EEADFFADE097A096AEAD6D
:104EB000BFADA0971996FC93EE9318978F5F6796F6
:104EC0008FAF6797883008F4DBCE68968FAD689710
:104ED0008F5F68968FAF6897883008F49BCE3394C5
:104EE000F2E03F1294CE81E0CF58DF4F0FB6F89436
:104EF000DEBF0FBECDBFDF91CF911F910F91FF900D
:104F0000EF90DF90CF90BF90AF909F908F907F9069
:104F10006F905F904F903F902F9008954FEFC41A7D
:104F2000D40A88248A94982C4ECF3FEFC31AD30A10
:104F300066246A94762C1ACF67968FAD679799CEC0
:104F40006E96AEADBFAD6E979C9190FF06C0FD0111
:104F5000E20FF31F908191609083A096EEADFFADBC
:104F6000A097908190FF85CEE20FF31F9081916012
:104F700090837FCE62961CAE1DAE1EAE1FAE6297B2
:104F8000A0905908B0905A08C0905B08D0905C0877
:104F9000AA966CAD7DAD8EAD9FADAA970E94BB3F2A
:104FA000A4966CAF7DAF8EAF9FAFA497AE966CAD5D
:104FB0007DAD8EAD9FADAE970E94BB3F2091610845
:104FC0003091620840916308509164080E949B3EB2
:104FD0009B01AC018DEB8F9386ED8F9387E78F93C9
:104FE00080E58F93809160088F9380915F088F9305
:104FF00080915E088F9380915D088F93A496ECACAE
:10500000FDAC0EAD1FADA497BE01625B7F4F80E08B
:1050100090E00E94F23820E030E040E752E46296EF
:105020006CAD7DAD8EAD9FAD62970E942A410E940E
:10503000833F29813A81620F731F68962FAD68976D
:1050400030E067968FAD679741E050E0082E01C0D1
:10505000440F0A94EAF7942FF201E20FF31F5081F4
:10506000452B40830FB6F894DEBF0FBECDBF311085
:10507000E9CEE296EEACFFACE2976E157F0510F438
:105080006FEF7FEF87016A962EAD3FAD6A972017CD
:10509000310720F02617370708F4A4C0E2964EAD7A
:1050A0005FADE2976C96AEADBFAD6C97A417B50738
:1050B00020F0A617B70708F4B8C0E296EEADFFAD32
:1050C000E2976E167F0620F06616770608F4ABC0EE
:1050D000E296EEACFFACE2978E149F0420F08616A9
:1050E000970608F49EC0E0960EAD1FADE0976017DE
:1050F000710708F0BECDE0967FAF6EAFE097B9CDF7
:105100008D3209F45BC061961FAE61972F968FAF09
:105110002F978D8160968FAF6097CE01825B9F4FF6
:105120000E9419446C018E812F968FAF2F978F812B
:1051300060968FAF6097CE01825B9F4F0E941944AB
:105140002C9C90012D9C300D1124820F931F6A9688
:105150009FAF8EAF6A9788858E01085F1F4F6801E9
:105160008D32C9F161961FAE61972F968FAF2F9741
:10517000D60111968C9160968FAF6097CE01825BBD
:105180009F4F0E9419445C01F60182812F968FAFD8
:105190002F97838160968FAF6097CE01825B9F4F80
:1051A0000E9419442A9C90012B9C300D1124820FDF
:1051B000931F6C969FAF8EAF6C979DCD8D810FEF37
:1051C0001FEF6A961FAF0EAF6A979E012B5F3F4F8E
:1051D00069018D3239F60FEF1FEF6C961FAF0EAFDE
:1051E0006C9789CDB9015ACFE2960EAD1FADE2970B
:1051F0004ACF80E079CE6E96EEADFFAD6E97E20FAE
:10520000F31F4081492B4083E096EEADFFADE09760
:105210006E96AEADBFAD6E971996FC93EE93189750
:1052200026CEB40160CFB30153CFBD0146CFCF939B
:10523000DF930E94042CEC01892B21F08091A706BA
:1052400081112AC06CE976E081E996E00E94592537
:1052500081E08093A7061092C407D7FD1AC0809101
:10526000990690919A068F3F2FEF920729F08C179D
:105270009D07B9F01092A7068091A4069091A5060B
:105280008F3F2FEF920729F08C179D07A9F01092FE
:10529000A706DF91CF9108958091C4078823E9F292
:1052A000D1CF80919B06682F617080FD64E681E913
:1052B00096E00E944B2EE0CF8091A606682F617089
:1052C00080FD64E68CE996E0DF91CF910C944B2E43
:1052D0008091AF0608958091AF06811101C00895B5
:1052E00082E08093B5068091B406807F83608093CE
:1052F000B40680EB96E00E94D00504C080EB96E0F7
:105300000E94D00561E080EB96E00E9421058111AA
:10531000F5CF89E694E00E9441321092AD061092DA
:10532000AE061092AF0680E00C94CC180F931F933A
:10533000CF938C018091AF06882361F182E0809346
:10534000B5068091B406807F83608093B40680EBBD
:1053500096E00E94D00504C080EB96E00E94D00544
:1053600061E080EB96E00E942105C82F8111F4CF07
:1053700089E694E00E9441321092AD061092AE068A
:105380001092AF0680E00E94CC188C2FCF911F9115
:105390000F9108950E94AC36C82F81114DC0F801BD
:1053A0008081807F8038A1F184818F70843009F4FE
:1053B00049C0853051F78AE08093AC0689E994E0D2
:1053C0000E94413286E0F801A0EBB6E001900D9218
:1053D0008A95E1F781E08093AF060E94CC18809116
:1053E000DE069091DF06A091E006B091E1064E96B0
:1053F000A11DB11D8093A8069093A906A093AA06AB
:10540000B093AB06C1E08C2FCF911F910F910895FF
:10541000F80183818F7090E00897079708F0B5CF67
:105420008481282F22952F7030E0215031092730B8
:10543000310508F4BACFA9CF86E794E00E94413243
:10544000C0E0A3CF89E08093AC06B8CF0F931F9341
:10545000CF93DF93D091AF06DD2321F0C091D50625
:10546000CC2339F0C1E08C2FDF91CF911F910F91A8
:1054700008950E94AC3681116CC010E00E94AC36D9
:10548000082F882329F08091AC068A3009F48EC059
:105490008091AE06811164C08091AD0681116AC011
:1054A0001093AE061111C8C01092AD068091A806E7
:1054B0009091A906A091AA06B091AB064091DE0694
:1054C0005091DF066091E0067091E1068417950720
:1054D000A607B70790F04091DE065091DF06609175
:1054E000E0067091E106415E5F4F6F4F7F4F4817B6
:1054F00059076A077B0708F0B5CF8091AF0688236C
:1055000009F4B1CF82E08093B5068091B406807F24
:1055100083608093B40680EB96E00E94D00504C0BF
:1055200080EB96E00E94D00561E080EB96E00E945F
:1055300021058111F5CF89E694E00E944132109255
:10554000AD061092AE061092AF0680E00E94CC1815
:105550008ACF11E08091AC06893009F08ECF8ECFD2
:105560001093AE06112309F443C08091AD06882341
:1055700009F478CF1092AD0682E08093B506809151
:10558000B406807F83608093B40680EB96E00E942F
:10559000D00504C080EB96E00E94D00561E080EB6E
:1055A00096E00E9421058111F5CF5CCF112309F40B
:1055B00069C08091AF06882309F455CF82E08093BB
:1055C000B5068091B406807F83608093B40680EB3B
:1055D00096E00E94D00504C080EB96E00E94D005C2
:1055E00061E080EB96E00E9421058111F5CFA3CF09
:1055F000C0E082E08093B5068091B406807F83602E
:105600008093B40680EB96E00E94D00504C080EB46
:1056100096E00E94D00561E080EB96E00E942105B3
:105620008111F5CF8091AD06882309F41BCFC0937B
:10563000AD06C11117CFA0CF1092B5068091B40668
:10564000807F89608093B40680EB96E00E94D0054D
:1056500061E080EB96E00E9421058091DE0690914A
:10566000DF06A091E006B091E1064E96A11DB11DA6
:105670008093A8069093A906A093AA06B093AB06C0
:10568000CD2FF1CE8091AE06811133C08091AD0651
:10569000882321F081E08093AD06E4CE1092AE061F
:1056A00081E08093AD061092B5068091B406807FAC
:1056B0008A608093B40680EB96E00E94D00561E09A
:1056C00080EB96E00E9421058091DE069091DF0636
:1056D000A091E006B091E1064E96A11DB11D809308
:1056E000A8069093A906A093AA06B093AB06C02F74
:1056F000BACE1092AE06C1E07CCFFC0180819181D0
:10570000A281B381B23C20F08058924AA149B44BA7
:10571000BC01CD016059794A8D4E984D20E83AE39D
:1057200049E050E00E94133EDA01C901880F991F39
:10573000AA1FBB1F880F991FAA1FBB1F880F991F85
:10574000AA1FBB1F821B930BA40BB50BBC01CD0181
:10575000660F771F881F991F660F771F881F991F75
:1057600025EB35E040E050E00E94133E6835734081
:1057700018F480E19EE0089580E090E0089580E1D3
:105780009EE00895FC0180819181A281B381B23CA9
:1057900020F08058924AA149B44BBC01CD01605918
:1057A000794A8D4E984D20E83AE349E050E00E9456
:1057B000133EDA01C901880F991FAA1FBB1F880F6A
:1057C000991FAA1FBB1F880F991FAA1FBB1F821BEF
:1057D000930BA40BB50BBC01CD01660F771F881F7F
:1057E000991F660F771F881F991F25EB35E040E052
:1057F00050E00E94133E6835734018F480E19EE04B
:10580000089580E090E00895CF93DF9300D000D01A
:10581000CDB7DEB780E090E00E94B90469837A8357
:105820008B839C83CE0101960E94D73AFC01218193
:10583000022E000C330B4091B6065091B706241788
:10584000350799F03093B7062093B6068281A901F7
:105850006CE38602400D511D1124CA010F900F9078
:105860000F900F90DF91CF9108958FEF9FEFF6CFBC
:105870000F931F93CF93DF93CDB7DEB760970FB62B
:10588000F894DEBF0FBECDBF8C0180E090E00E9497
:10589000B9046D877E878F87988BBE016F5F7F4FBE
:1058A000CE010D960E94DE3AB801CE0101960E940B
:1058B000AF3C84E5F801828781E060960FB6F894EA
:1058C000DEBF0FBECDBFDF91CF911F910F91089525
:1058D0000F931F93CF93DF93CDB7DEB7A0970FB68B
:1058E000F894DEBF0FBECDBFFC0101900020E9F7A8
:1058F0009F01245131092817390761F080E0A096F3
:105900000FB6F894DEBF0FBECDBFDF91CF911F91D0
:105910000F910895BC0143E150E0CE0101960E9431
:1059200062441C8A8E010B5E1F4F8CE0F8011192BD
:105930008A95E9F765EA74E0CE0101960E94404439
:105940000097E1F20E9419448C5697409C8F8B8FF0
:1059500065EA74E080E090E00E944044009771F2B4
:105960000E94194481508A8F67EA74E080E090E0D9
:105970000E944044009711F20E941944888F6EE300
:1059800074E080E090E00E944044009709F4B6CFB4
:105990000E9419448F8B6EE374E080E090E00E94D7
:1059A0004044009709F4AACF0E9419448E8B63E605
:1059B00071E080E090E00E944044009709F49ECF9F
:1059C0000E9419448D8B8FEF9FEF98A38F8FC80192
:1059D0000E94443B611571058105910509F48ECF44
:1059E00022E02093C5070E94B63D81E088CF20E0E9
:1059F00030E041E655E46091610870916208809161
:105A00006308909164080E942A410E94833F0E948B
:105A1000BF3D80916508823081F0833051F0813044
:105A200021F080E090E00C94B13B8DE79BE20C9478
:105A3000B13B8FEB9BE20C94B13B82EC9BE20C946C
:105A4000B13BE42FF0E081E090E002C0880F991FA5
:105A50002A95E2F7E854F94F208130E028233923D2
:105A6000232BA9F4208530E028233923232B91F41C
:105A7000208930E082239323009709F4089582E07F
:105A800090E0FC01EA52FB4F808190E0089580E0B5
:105A900090E0F7CF81E090E0F4CF4F925F926F9269
:105AA0007F928F929F92AF92BF92CF92DF92EF92AE
:105AB000FF920F931F93CF93DF930430C9F005300B
:105AC00009F4C5C0063009F4C5C08FEF9FEFDF9120
:105AD000CF911F910F91FF90EF90DF90CF90BF90EB
