:100000000C948F040C94B8040C94B8040C94B804A9
:100010000C94B8040C94B8040C94B8040C94B80470
:100020000C94B8040C94B8040C94B8040C94402FAD
:100030000C94B8040C94B8040C94B8040C94B80450
:100040000C94B8040C94B8040C94042F0C94D12E86
:100050000C94B8040C94B8040C94B8040C94B80430
:100060000C94B8040C94B804072C7AA5BA6CC5900B
:10007000DA3B9365FC8BBC53F810FD3C5692834DE4
:10008000BD879D3AB63DCBC9BF5BBE73DA0FC93F92
:1000900005A84CCDB2D44EB93836A9020C50B9914E
:1000A0008688083CA6AAAA2ABE000000803F737971
:1000B0006E7461783A20636F6D6D616E64206F704D
:1000C00074696F6E3D76616C7565202E2E2E3B0A2D
:1000D000636F6D6D616E6473206172653A200074A8
:1000E000797065202768656C7020636F6D6D616E37
:1000F000643B2720206F72202768656C7020616C3C
:100100006C3B270A636F6D6D616E6473206172656D
:100110003A20006461696C793D5420202020202021
:100120002020656E61626C6573206461696C792062
:1001300074696D65722E20542069732075702F6468
:100140006F776E206C696B6520303733302D206FF0
:1001500072203037333032303030206F72202D3201
:100160003030302020666F722075702030373A337F
:100170003020616E642F6F7220646F776E20323092
:100180003A30300A7765656B6C793D545454545459
:10019000545420656E61626C6573207765656B6C85
:1001A000792074696D65722E2054206C696B65200E
:1001B0007769746820276461696C7927206F7220E1
:1001C000272B2720746F20636F7079207468652057
:1001D00054206F6E20746865206C6566742E20282C
:1001E0007765656B6C793D303733302D2B2B2B2B9E
:1001F000303930302D2B290A617374726F5B3D4E9C
:100200005D202020202020656E61626C6573206176
:100210007374726F206175746F6D617469632E20E1
:100220004E20697320746865206F6666736574205C
:10023000746F20636976696C206475736B20696ED6
:10024000206D696E757465732E2043616E20626542
:1002500020706F7374697665206F72206E656761B8
:10026000746976652E0A73756E2D6175746F202022
:100270002020202020656E61626C65732073756E8E
:10028000206175746F6D617469630A72616E646F69
:100290006D202020202020202020656E61626C656A
:1002A000732072616E646F6D206175746F6D61741F
:1002B00069632E2073687574746572206F70656E43
:1002C0007320616E6420636C6F73657320617420AA
:1002D00072616E646F6D2074696D65732E0A72743D
:1002E000632D6F6E6C7920202020202020646F6E9B
:1002F0002774206368616E67652074696D65727329
:100300002E206F6E6C792075706461746520696E43
:100310007465726E616C207265616C2074696D65C4
:1003200020636C6F636B0A612C206720616E642010
:100330006D3A202020206C696B6520696E20736502
:100340006E6420636F6D6D616E640A72733D283058
:100350007C317C322920202020207265616420625B
:1003600061636B2073617665642074696D657220CA
:10037000646174612E2069662073657420746F2037
:10038000322C2072657475726E20616E7920646102
:100390007461206D61746368696E67206720616EA7
:1003A00064206D20652E672E206D3D302028616E03
:1003B00079206D656D6265722920696E737465615F
:1003C00064206F66206D3D320A007072696E743D64
:1003D000287274637C63757C72657365742D696EB5
:1003E000666F290A75702D74696D653D3F0A002797
:1003F000636F6E666967272073657473206F722060
:1004000067657473206F7074696F6E732E205573F7
:10041000653A20636F6E666967206F7074696F6EEE
:100420003D76616C7565202E2E2E3B20746F2073F7
:1004300065742E205573653A20636F6E6669672078
:100440006F7074696F6E3D3F202E2E2E3B20746FAF
:10045000206765742C20696620737570706F7274E4
:1004600065640A0A63753D2849447C6175746F7C34
:100470003F292020202020362D6469676974206878
:100480006578204944206F662043656E7472616C04
:100490002D556E69742E206175746F3A20636170FA
:1004A00074757265204944207769746820636F6EA3
:1004B0006E65637465642052462072656365697673
:1004C00065720A7274633D2849534F5F54494D4524
:1004D0007C3F29202020736574206C6F63616C2041
:1004E00074696D6520776974682074686973202861
:1004F0006F7220757365204E5450292E20657861E7
:100500006D706C653A20636F6E6669672072746304
:100510003D323031372D31322D33315432333A358B
:10052000393A35393B0A626175643D284E7C3F2972
:100530002020202020202020202020736572696147
:100540006C2062617564207261746520282E2E2EE5
:1005500020626175643D313135323030290A6C6F6B
:100560006E6769747564653D284445477C3F290A78
:100570006C617469747564653D284445477C3F2906
:100580000A74696D652D7A6F6E653D284E7C3F2932
:10059000202020202020206578616D706C653A2035
:1005A000636F6E66696720206C6F6E67697475642F
:1005B000653D2B31332E3233343532206C61746912
:1005C000747564653D2B35322E33343233342074E8
:1005D000696D652D7A6F6E653D2B312E303B0A6457
:1005E00073743D2865757C307C317C3F2920202048
:1005F0002020206461796C69676874207361766972
:100600006E672074696D653A206175746F6D6174F1
:1006100069633A2065753D6575726F70652E206D52
:10062000616E75616C6C793A20303D6F66662C2086
:10063000313D6F6E0A766572626F73653D28302EAC
:100640002E357C3F29202020207365742074657826
:1006500074206F757470757420766572626F73693B
:100660007479206C6576656C3A203020666F722054
:100670006E6F6E65202E2E2E203520666F72206DD7
:100680006178290A7365742D70773D706173737793
:100690006F7264202020736574206120636F6E6622
:1006A00069672070617373776F72642E20696620AA
:1006B00073657420657665727920636F6E6669670D
:1006C00020636F6D6D616E6473206E656564732069
:1006D000746865207077206F7074696F6E0A707728
:1006E0003D50572020202020202020202020202086
:1006F0006578616D706C653A20636F6E666967201E
:1007000070773D6D795F7061737377206473743DAA
:1007100065753B0A72657374617274202020202015
:1007200020202020202072657374617274204D4354
:10073000550A00613D28307C49442920202020684A
:100740006578204944206F662073656E6465722069
:100750006F722072656365697665722E203020287D
:1007600064656661756C74292075736573202763F1
:10077000752720696E20636F6E6669670A673D5B47
:10078000302D375D202020202067726F7570206E1D
:10079000756D6265722E2030202864656661756C07
:1007A00074292061646472657373657320616C6C75
:1007B0002067726F7570730A6D3D5B302D375D2059
:1007C0002020202067726F7570206D656D626572E4
:1007D0002E2030202864656661756C742920616460
:1007E0006472657373657320616C6C206D656D62F6
:1007F0006572730A633D636F6D6D616E64202020C6
:10080000436F6D6D616E6420746F2073656E642E2E
:10081000204F6E65206F663A2075702C20646F77CC
:100820006E2C2073746F702C2073756E2D646F772F
:100830006E2C2073756E2D696E73742C2073657425
:100840000A723D4E2020202020202020205265705A
:1008500065617465642073656E64696E6720666F98
:100860007220626574746572207265636570746964
:100870006F6E2E2053656E642074686520636F6D03
:100880006D616E6420312B4E2074696D6573534524
:10089000505B3D307C315D20202053776974636864
:1008A00020746F20656E61626C6520656E642D70CA
:1008B0006F736974696F6E2061646A7573746D65B6
:1008C0006E742E20486F6C64206861726477617268
:1008D0006520627574746F6E20746F2061646A7530
:1008E000737420656E6420706F736974696F6E2015
:1008F00028657370383236363A206770696F302F4A
:10090000666C61736820627574746F6E206F6E2000
:100910006D696E6920626F61726473290000112431
:100920001FBECFEFD8E0DEBFCDBF14BE0FB6F89428
:10093000A8958091600088618093600010926000AB
:100940000FBE15E0A0E0B1E0E0ECF4E702C00590D6
:100950000D92A63DB107D9F729E0A6EDB5E001C09B
:100960001D92A136B207E1F70E94822D0C945E3AE7
:100970000C9400008F938FB78F93F89480915B094C
:100980008F5F80935B0980915C098F4F80935C0936
:1009900080915D098F4F80935D0980915E098F4F33
:1009A00080935E098F918FBF8F910895FC010FB6E0
:1009B000F89460915B0970915C0980915D09909158
:1009C0005E090FBE309721F0608371838283938329
:1009D0000895CF938091A40681113DC08091AA060D
:1009E0001816ACF58091A9068F708330C1F1809103
:1009F000A40681112CC081E00E94BC18C82F882356
:100A000031F18091AA0681508093AA0685E0E5EA3B
:100A1000F6E0ABEEB6E001900D928A95E1F761E069
:100A20008BEE96E00E94271E8091A60881111CC0C3
:100A30008CE090E09093AC068093AB0681E08093CD
:100A4000A40680E00E94BC188C2FCF910895C1E0CD
:100A50008C2FCF910895C0E08C2FCF91089585EA17
:100A600096E00E94ED05C3CF80E391E00E945629F5
:100A700061E08BEE96E00E94D91FDACF0F931F93AF
:100A8000CF93DF938C01D62F8091A406811136C0BD
:100A90000115110531F08091AA06181614F4109270
:100AA000AA0681E00E94BC18C82F882339F1D130F2
:100AB000E9F185E0F801ABEEB6E001900D928A9580
:100AC000E1F76D2F8BEE96E00E94271E8091A6081D
:100AD00081111BC0D23039F180E591E09093AC06D2
:100AE0008093AB0681E08093A40680E00E94BC184E
:100AF0008C2FDF91CF911F910F910895C0E08C2F23
:100B0000DF91CF911F910F91089580E391E00E94B2
:100B100056298091A608823040F16D2F8BEE96E029
:100B20000E94D91FD7CF8EE190E0D8CF01151105D3
:100B300011F186E0F801A5EAB6E001900D928A95E0
:100B4000E1F785E0F801ABEEB6E001900D928A95F1
:100B5000E1F761E08BEE96E00E94271E8091A608E7
:100B6000811111C08CE090E0B9CF61E08BEE96E08E
:100B70000E94D91FAFCF8091AA0681508093AA0608
:100B800005EA16E0DECF80E391E00E94562961E09D
:100B90008BEE96E00E94D91FE5CFFC01CB01AA277E
:100BA000BB2780835183428322E1238314822FEF6A
:100BB00025839927AA27BB2780329105A105B10576
:100BC00049F080399105A105B10519F487E18383C6
:100BD0000895089581E183830895FC013381932F63
:100BE00092959F709F5F9F7041F0292F2295207FE3
:100BF000932F9F70922B9383089520E1932F9F70E2
:100C0000922B938308952F923F924F925F926F920F
:100C10007F928F929F92AF92BF92CF92DF92EF928C
:100C2000FF920F931F93CF93DF93CDB7DEB7A297B9
:100C30000FB6F894DEBF0FBECDBF9C01285F3F4FBB
:100C40003C872B87DC01AC58BF4FBAA3A9A3312C3A
:100C5000212CB0E8B987EFEBEA87412C80E8582EC9
:100C600081EB682E83E4782ECB01770FAA0BBB0BA8
:100C70008D8F9E8FAF8FB8A30B851C8508501109EF
:100C8000C0909608D0909708E0909808F090990846
:100C90008091920890919308A0919408B091950842
:100CA0008D879E87AF87B88B0E94B426698B7A8B1D
:100CB0008B8B9C8B2BED3FE049E450E4C701B601E0
:100CC0000E94E73520E030E044E353E40E94F23331
:100CD0004B015C0128E03CE240EA52E4C301B2016E
:100CE0000E94803324E73EE74AE85CE30E94E73550
:100CF0000E9454362CEF39EA41ED5EE30E94E7355D
:100D00006B017C01C501B4010E9454366D837E8362
:100D10008F839887C701B6010E9454366D8B7E8BF6
:100D20008F8B988FC501B4010E94ED334B015C019C
:100D3000C701B6010E94ED33698F7A8F8B8F9C8F2C
:100D40002D893E894F89588D6D817E818F8198854F
:100D50000E94E7359B01AC0165E073E186ED9DEBF8
:100D60000E9480336B017C01298D3A8D4B8D5C8D07
:100D7000C501B4010E94E7359B01AC01C701B60172
:100D80000E94F2330E946F336B017C0123E039E053
:100D90004AE05DE3C301B2010E94E7352BE734E18D
:100DA0004EEE5EE30E9481330E9454364B015C019B
:100DB0002BE134E642E95CE3C301B2010E94E7356E
:100DC00021E338E04CE25EE30E9480330E94543617
:100DD0006D837E838F83988720E030E040E451E488
:100DE000C701B6010E94E7352BED3FE049E450E42E
:100DF0000E94F23320E030E040E451E40E9481336D
:100E00006B017C0120EA3AE14FE25EEBC501B401DF
:100E10000E94E7354B015C0121E834E045E05EE3E8
:100E20006D817E818F8198850E94E7359B01AC01A1
:100E3000C501B4010E9480339B01AC01C701B6011A
:100E40000E9480336B017C0120E030E040E751E4F8
:100E50006D857E858F8598890E94F2339B01AC0158
:100E6000C701B6010E9480336B017C0169897A89D0
:100E70008B899C890E949A3420E030E041E655E459
:100E80000E94F2334B015C016D8D7E8D8F8D98A198
:100E90000E949C3420E030E040E752E40E94F233AC
:100EA0009B01AC01C501B4010E9481339B01AC01DF
:100EB000C701B6010E9481336B017C019B01AC012B
:100EC000632D722D89859A850E94AE35181624F0FF
:100ED0003C2C2D2CE986FA86AE014F5F5F4F632DC7
:100EE000722D89859A850E94B3356B017C010F3F75
:100EF0009FEF190761F069817A818B819C810E9443
:100F00006B34862F0E947022D80111968C930115A4
:100F1000110589F020E030E040E752E4C701B60156
:100F20000E94E7350E946B3481E0860F8E7F0E941D
:100F30007022F801808320E030E843E750E4C301E9
:100F4000B2010E9480332B013C010E5F1F4F2B85A5
:100F50003C852017310709F093CE275F3F4F3C8730
:100F60002B8789A19AA12817390709F085CEA29667
:100F70000FB6F894DEBF0FBECDBFDF91CF911F91AA
:100F80000F91FF90EF90DF90CF90BF90AF909F9028
:100F90008F907F906F905F904F903F902F9008952B
:100FA000CF92DF92EF92FF920F931F93CF93DF9335
:100FB0006C017B016130710509F4D4C00CF499C057
:100FC00001E010E054C0BE01809100019091010148
:100FD0000E943A39892B09F4A5C0BE01809106010F
:100FE000909107010E943A39892B09F4AFC0BE01E4
:100FF00080910C0190910D010E943A39892B09F4DE
:10100000A8C0BE0180911201909113010E943A394B
:10101000892B09F4A1C0BE0180911801909119019A
:101020000E943A39892B09F49AC08DE891E00E9418
:1010300056298091B1069091B206892B09F068C0BB
:101040008AE30E9437298EE791E00E94562985E2C3
:1010500095E00E945629CE010E9456298AE00E94FE
:1010600037290F5F1F4F0E151F050CF042C0F80106
:10107000EE0FFF1FEE0FFF1FEC0DFD1DC081D18194
:101080006FE671E0CE010E943A39892B09F09BCFBF
:101090008EEA90E00E947929C0E0D1E08E01F8014B
:1010A000808191810E9456298CE691E00E94562908
:1010B0000A5F1F4FF1E00E311F0789F70E944B298D
:1010C000888199810E94562983E791E00E945629E0
:1010D0008C819D810E9479290E944B29269681E06E
:1010E000CE31D80769F706E010E00E151F050CF4A5
:1010F000BECF83E391E00E94562980E090E0DF912B
:10110000CF911F910F91FF90EF90DF90CF900895B6
:1011100080E40E9437298091B1069091B2060E9426
:10112000852C8ECF80E090E0FC01EE0FFF1FE80FD2
:10113000F91FEE0FFF1FE050FF4F848195810E9441
:1011400079290E944B290F5F1F4F8DCF81E090E0DE
:10115000EBCF82E090E0E8CF83E090E0E5CF84E061
:1011600090E0E2CF8FED90E00E947929C0E0D1E0DD
:101170000EE111E0888199810E9456298CE691E068
:101180000E94562926960C171D07A1F70E944B298D
:10119000B4CF6F927F928F929F92AF92BF92CF9275
:1011A000DF92EF92FF920F931F93CF93DF93CDB710
:1011B000DEB764970FB6F894DEBF0FBECDBF6230C6
:1011C00071050CF47DC0FC01E480F580C680D780F9
:1011D000E114F10409F4D9C0C114D10409F4D5C053
:1011E0004B018C0195E9692E91E0792EAA24A394F4
:1011F000B12C26C060EA71E0C6010E943A39892B01
:1012000009F461C066EE73E0C6010E943A39892B89
:1012100009F484C0FFEFAF1ABF0A8A149B0409F4D3
:1012200046C0F801E084F184C284D384E114F1045F
:1012300009F4ABC00C5F1F4FC114D10409F4A5C061
:101240006AE971E0C7010E943A39892B99F26BEC87
:1012500071E0C7010E943A39892B09F042C0F601BA
:1012600080818F3309F46DC08BEB91E00E94562989
:101270008091B1069091B206892B09F07CC08AE377
:101280000E94372981EC91E00E94562985E295E081
:101290000E94562983ED91E00E9456290E944B2915
:1012A000FFEFAF1ABF0A8A149B0409F0BACF6CE2B1
:1012B00075E0C3010E943A398C01892B09F487C07B
:1012C00000E010E064C0CE0101960E94EF25882363
:1012D00009F4A0CFCE0101960E9456290E944B2905
:1012E00099CF8DE891E00E9456298091B1069091A6
:1012F000B206892B09F061C08AE30E9437298EE784
:1013000091E00E94562985E295E00E945629C70186
:101310000E9456298AE00E9437297CCF84EA91E016
:101320000E94562960918A0870918B0880918C08E0
:1013300090918D0840E150E00E944D2C0E944B2975
:1013400069CFC3010E945629C7010E94562984E132
:1013500095E00E9456296091AD067091AE0680918D
:10136000AF069091B00640E00E94D12A8CE2682E30
:1013700085E0782E4FCF80E40E9437298091B10616
:101380009091B2060E94852C7ACF0FEF1FEFC80113
:1013900064960FB6F894DEBF0FBECDBFDF91CF913C
:1013A0001F910F91FF90EF90DF90CF90BF90AF9083
:1013B0009F908F907F906F90089580E40E943729CE
:1013C0008091B1069091B2060E94852C95CF87EE50
:1013D00091E00E945629DBCF2F923F924F925F926D
:1013E0006F927F928F929F92AF92BF92CF92DF9235
:1013F000EF92FF920F931F93CF93DF9300D000D013
:101400001F92CDB7DEB75B01623071050CF447C2A5
:10141000FC0104811581C680D7800115110509F4EE
:10142000C7C09D838C83312C1B82212C1A82F2E051
:10143000F98388248A94982C412C512C3201EE2473
:10144000E394F12C20C0C114D10409F487C040E119
:1014500050E060E070E0C6010E94EF362B013C01D5
:101460002FEFE21AF20AAE14BF0471F1EC81FD8194
:10147000008511853496FD83EC83C680D7800115E5
:10148000110509F495C06AEE71E0C8010E943A396D
:10149000892BC9F263EE73E0C8010E943A39892BA7
:1014A00009F045C0C114D10409F46DC0C6010E9401
:1014B000FA388830910508F066C0382E2FEFE21A0E
:1014C000F20AAE14BF0491F63A813111B1C1411450
:1014D00051046104710409F407C12091D905822FD8
:1014E00090E0A0E0B0E0DC01992788273091DB058F
:1014F000832B4091DA0550E0542F442760E070E0E0
:10150000842B952BA62BB72B481659066A067B060B
:1015100009F4A2C1B301A20189ED95E00E94CD05B5
:101520002091D905E9EDF5E0FD83EC83E3C062E9A4
:1015300073E0C8010E943A39892BA1F4C114D10487
:1015400011F1C6010E94FA3888309105E0F4009745
:1015500009F493C0A7E02A2E280E82CF412C512CEB
:1015600032017ECF6DEE73E0C8010E943A39892BBB
:10157000C9F5C114D10439F0C6010E94FA38898333
:101580008B3008F46DCF8BEB91E00E94562980914F
:10159000B1069091B206892B09F063C185E295E00E
:1015A0000E9456298CEE91E00E9456290E944B29F8
:1015B0008FEF9FEF0F900F900F900F900F90DF9194
:1015C000CF911F910F91FF90EF90DF90CF90BF9040
:1015D000AF909F908F907F906F905F904F903F90D3
:1015E0002F90089562EA71E0C8010E943A39892B70
:1015F00009F045C0C114D10431F2F60180818F3366
:1016000009F44FC06BEF71E0C6010E943A39892B93
:1016100009F454C164E072E0C6010E943A39892B92
:1016200009F44FC162EF71E0C6010E943A39892B7B
:1016300009F44AC167EF71E0C6010E943A39892B6B
:1016400009F445C160E072E0C6010E943A39892B75
:1016500009F440C167E072E0C6010E943A39892B63
:1016600009F43BC160E172E0C6010E943A39892B5E
:1016700009F089CF8DE08B83F3CE212CF1CE64E18C
:1016800072E0C8010E943A39892B89F4C114D1044F
:1016900021F0F6018081813339F488248394912CE0
:1016A000DFCEF1E0FA83DCCE812C912CD9CE8DE80F
:1016B00091E00E9456298091B1069091B206892B43
:1016C00009F0D9C08AE30E9437298EE791E00E9491
:1016D000562985E295E00E945629C8010E945629A4
:1016E0008AE00E943729BCCE2091B30683EB96E0B6
:1016F0009D838C83207F2038D1F0FFEF8F169F06CB
:1017000059F1EC81FD818481982F907F8B818F70BE
:10171000892B8483892831F0CF010E94812380E0C6
:1017200090E048CF0E94562380E090E043CFEC81C8
:10173000FD8124812F70F0E13F9EC0011124322EE3
:10174000382AEC81FD8134828381982F907F822D0D
:101750008F70892B8383D1CFFB81FF2309F451C084
:10176000EC81FD818481982F907F8B818F70892BF4
:101770008483CF010E94ED052981EC81FD812583C1
:1017800061E0CF010E943E058823D9F18BEB91E007
:101790000E9456298091B1069091B206892B09F0DA
:1017A0009FC085E295E00E94562987E793E00E945A
:1017B00056290E944B29EC81FD814481042F0F7032
:1017C00023812F7042954F706081862F90E0A0E0BA
:1017D000B0E0DC019927882732816C017D01C32AA2
:1017E000818190E0982F8827A0E0B0E0BC01CD0176
:1017F0006C297D298E299F290E94292780E090E06D
:10180000D9CE8BEB91E00E9456298091B106909140
:10181000B206892BD1F585E295E00E9456298CEE1F
:1018200091E00E9456290E944B2980E090E0C2CEB0
:1018300088E192E00E945629222D432DC301B20176
:101840000E94072760E00E94242B8EE594E00E940E
:10185000562980E090E0AECE89ED95E09D838C83A3
:1018600049CF80E40E9437298091B1069091B20659
:101870000E94852C93CE80E40E9437298091B10686
:101880009091B2060E94852C1DCF80E40E943729DA
:101890008091B1069091B2060E94852CBCCF209118
:1018A000B30632E03983212C1B82312C88248A94A0
:1018B000982C83EB96E09D838C831CCF85E08B83F3
:1018C000CFCD84E08B83CCCD83E08B83C9CD86E004
:1018D0008B83C6CD87E08B83C3CD88E08B83C0CD5F
:1018E00080E40E9437298091B1069091B2060E944F
:1018F000852C57CFCF93DF93EC018DE891E00E94C8
:1019000056298091B1069091B206892B99F48AE309
:101910000E9437298EE791E00E94562985E295E0E2
:101920000E945629CE010E9456298AE0DF91CF916C
:101930000C94372980E40E9437298091B106909158
:10194000B2060E94852CE3CF2F923F924F925F9276
:101950006F927F928F929F92AF92BF92CF92DF92BF
:10196000EF92FF920F931F93CF93DF93CDB7DEB724
:10197000A0970FB6F894DEBF0FBECDBF4B01332446
:10198000339420910B092111312C22E0821691040D
:101990000CF4DEC1FC01E480F580C680D780E11440
:1019A000F10409F424C1C114D10409F420C18C014B
:1019B00078E2672E72E0772E212C412C512CAA243C
:1019C000A394B12C23C0B6018BE099E00E943A3970
:1019D000892B09F008C185E392E00E9456293FEF68
:1019E000A31AB30A8A149B0461F1F801E084F1841C
:1019F000C284D384E114F10409F4F9C00C5F1F4FD1
:101A000033243394C114D10409F4F1C060EE72E0C0
:101A1000C7010E943A39892BB1F2332009F40DC273
:101A200062E772E0C7010E943A39892B79F52110EB
:101A30000EC10E94942D3FEFA31AB30A8A149B048F
:101A4000A1F621109DC16CE275E0C3010E943A39F4
:101A5000892B09F498C1452809F47AC18BEB91E0F0
:101A60000E9456298091B1069091B206892B09F007
:101A7000A1C285E295E00E9456298CEE91E00E9479
:101A800056290E944B2980E090E0C8C060EA71E0CE
:101A9000C7010E943A39892B09F051C0F6018081B3
:101AA0008F3309F48FC1C6010E941F26882389F154
:101AB0008BEB91E00E9456298091B1069091B2067D
:101AC000892B09F0F7C085E295E00E94562987E747
:101AD00093E00E9456290E944B2981CF64ED72E069
:101AE000C7010E943A39892B09F425C16CED72E0D7
:101AF000C7010E943A39892B09F0BEC1F601019055
:101B00000020E9F73197EC19FD09E031F10508F4FF
:101B10002EC28BEB91E00E9456298091B1069091E4
:101B2000B206892B09F068C185E295E00E9456292A
:101B30008CEE91E00E9456290E944B2950CF66EE10
:101B400073E0C7010E943A39892B09F083C0F6017E
:101B500080818F3309F476C168E973E0C6010E9481
:101B60003A39892B09F4C2C06EEB72E0C6010E94BB
:101B70003A39892B09F04AC16091E406862F90E03A
:101B8000A0E0B0E0DC01992788272091E606AC01AF
:101B9000BD01422B8091E50690E0982F8827A0E0B8
:101BA000B0E06A017B01C82AD92AEA2AFB2AC701C8
:101BB000B6016701EE24FF2420E8C216D104E10437
:101BC000F104A9F4C092B3067093B4066093B5060D
:101BD00060938A0870938B0880938C0890938D088B
:101BE00022242394FCCE82E492E00E9456298BEBBF
:101BF00091E00E9456298091B1069091B206892BFE
:101C000009F04EC085E295E00E9456298CEE91E0E5
:101C10000E9456290E944B298FEF9FEFA0960FB686
:101C2000F894DEBF0FBECDBFDF91CF911F910F9112
:101C3000FF90EF90DF90CF90BF90AF909F908F90EC
:101C40007F906F905F904F903F902F9008950E94EB
:101C5000692DEFCE67EC72E0C7010E943A39892BFB
:101C600099F16FEC72E0C7010E943A39892B09F0B3
:101C700035CFF60180818F3309F48AC04AE050E005
:101C800060E070E0C6010E94053860938E08709392
:101C90008F088093900890939108222423949FCEDC
:101CA00080E40E9437298091B1069091B2060E948B
:101CB000852CA8CF80E40E9437298091B1069091AD
:101CC000B2060E94852CFFCE40E150E060E070E05B
:101CD000C6010E9405386093A7087093A8088093F6
:101CE000A9089093AA082224239479CE8091AD0666
:101CF0009091AE06A091AF06B091B006CC96A11D12
:101D0000B11D8093E7059093E805A093E905B09392
:101D1000EA051092E4068091B1069091B206909384
:101D2000E6058093E505F1E0F093E3068AE792E0AB
:101D30000E945629BDCEF60180818F3309F444C13B
:101D4000C6010E94FA388093A6082224239447CE25
:101D50008BEB91E00E9456298091B1069091B206DA
:101D6000892B09F01DC185E295E00E94562987E77D
:101D700093E00E9456290E944B2980E090E04ECFCC
:101D80000E94692D60CE87EE91E00E94562963CEB5
:101D9000C3010E945629C7010E94562984E195E09B
:101DA0000E94562960918E0870918F08809190084A
:101DB0009091910840E00E94D12A6CE2662E65E085
:101DC000762E0DCECE0101960E94EF25882309F4D0
:101DD00006CEC3010E945629C7010E94562984E1FC
:101DE00095E00E945629CE0101960E9456296CE288
:101DF000662E65E0762EF3CD80E40E94372980912F
:101E0000B1069091B2060E94852C8ECE40E150E042
:101E100060E070E0C6010E9405386C01EE24FF24EA
:101E200030E8C312E4CE292F332744275527232B2C
:101E3000242B252B09F4C6CEDACE89E592E00E9448
:101E40005629D5CEC3010E945629C7010E945629A2
:101E500084E195E00E94562960918A0870918B0870
:101E600080918C0890918D0840E00E94022A5CE2EB
:101E7000652E55E0752EB3CD63EE72E0C7010E946A
:101E80003A39892B09F47EC060EF72E0C7010E94E5
:101E90003A39892B09F417C16CEF72E0C7010E942F
:101EA0003A39892B09F0A4C0F60180818F3309F4F7
:101EB000C2C18D3209F4DAC1A82F60E070E0CB0115
:101EC00020E030E040E85FE32D8F3E8F4F8F58A336
:101ED000AA2309F40DC1A6014F5F5F4F5E8B4D8BA6
:101EE0008A2FC12CD12C76011A8E198E39C0282E3A
:101EF000312C50E3251A31088AE02816310440F5C8
:101F0000E98DFA8DEF2B71F020E030E040E251E4F2
:101F10006D8D7E8D8F8D98A10E94F2336D8F7E8F97
:101F20008F8F98A320E030E040E251E4C701B60172
:101F30000E94E7356B017C01B101330C880B990BD2
:101F40000E949C34A70196010E9481336B017C01A1
:101F5000ED89FE898191FE8BED8B882309F4C0C049
:101F60008E3229F621E030E03A8F298FF1CFAF0190
:101F70004F5F5F4FB6018BE099E00E942639222423
:101F800023942DCD6AE775E0C6010E943A39892B6A
:101F900009F0BBC0F1E0F093A3080E94692D88CD41
:101FA00080E40E9437298091B1069091B2060E9488
:101FB000852CD9CE80E40E9437298091B10690917A
:101FC000B2060E94852C55CDC3010E945629C70137
:101FD0000E94562984E195E00E9456298091A60826
:101FE00090E00E94852C5CE2652E55E0752EF7CCC2
:101FF00066E073E0C7010E943A39892B09F090C06E
:10200000F60180818F3309F461C18D3209F4BCC1BE
:10201000A82F60E070E0CB0120E030E040E85FE313
:10202000298F3A8F4B8F5C8FAA2309F4ECC0A6014D
:102030004F5F5F4F5E8B4D8B8A2FC12CD12C760169
:102040001E8E1D8E39C0282E312C50E3251A3108E2
:102050008AE02816310440F5ED8DFE8DEF2B71F0EE
:1020600020E030E040E251E4698D7A8D8B8D9C8DCB
:102070000E94F233698F7A8F8B8F9C8F20E030E043
:1020800040E251E4C701B6010E94E7356B017C01D3
:10209000B101330C880B990B0E949C34A701960167
:1020A0000E9481336B017C01ED89FE898191FE8B59
:1020B000ED8B882309F49FC08E3229F621E030E0B1
:1020C0003E8F2D8FF1CF6AE775E0C6010E943A3945
:1020D000892B09F0A5C0CC24C394C092A4085DCF7D
:1020E0002D8D3E8D4F8D58A1C701B6010E94E73559
:1020F0006093920870939308809394089093950846
:102100000E94DD26222423946ACC6CEE72E0C60184
:102110000E943A39892B09F0FCCC1092A3083DCFDC
:102120006FE073E0C7010E943A39892B09F0B1C012
:10213000F60180818F3309F40CC18D3209F4F6C0A9
:10214000A82F60E070E0CB0120E030E040E85FE3E2
:102150002D8B3E8B4F8B588FAA2309F4DAC0A60132
:102160004F5F5F4F5A8F498F8A2FC12CD12C760138
:102170001E8E1D8E39C0282E312C50E3251A3108B1
:102180008AE02816310440F5ED8DFE8DEF2B71F0BD
:1021900020E030E040E251E46D897E898F89988D9E
:1021A0000E94F2336D8B7E8B8F8B988F20E030E016
:1021B00040E251E4C701B6010E94E7356B017C01A2
:1021C000B101330C880B990B0E949C34A701960136
:1021D0000E9481336B017C01E98DFA8D8191FA8F28
:1021E000E98F882309F48DC08E3229F621E030E092
:1021F0003E8F2D8FF1CF298D3A8D4B8D5C8DC70190
:10220000B6010E94E7356093960870939708809313
:102210009808909399080E94DD2622242394DFCB0E
:102220006CEE72E0C6010E943A39892B09F071CC3C
:102230001092A408B2CEC3010E945629C7010E9481
:10224000562984E195E00E94562960919208709188
:102250009308809194089091950845E050E00E9481
:10226000782B4CE2642E45E0742EB9CBF601A181A7
:1022700096012F5F3F4F690160E070E080E090E8D9
:1022800020E030E040E85FEB2D8F3E8F4F8F58A36A
:102290001FCE69E173E0C7010E943A39892B09F02A
:1022A00090C0F60180818F3309F492C062E372E03E
:1022B000C6010E943A39892B09F079C0F1E0F09308
:1022C0009E080E94DD262224239489CBC3010E940C
:1022D0005629C7010E94562984E195E00E9456299B
:1022E000609196087091970880919808909199084C
:1022F00045E050E00E94782B3CE2632E35E0732EDF
:102300006ECB2D893E894F89588DC701B6010E9439
:10231000E73560939A0870939B0880939C0890938C
:102320009D080E94DD262224239459CBF601A18129
:1023300096012F5F3F4F690160E070E080E090E818
:1023400020E030E040E85FEB2D8B3E8B4F8B588FC9
:1023500003CFC3010E945629C7010E94562984E178
:1023600095E00E94562960919A0870919B0880918F
:102370009C0890919D0842E050E00E94782B2CE24E
:10238000622E25E0722E2BCBF601A18196012F5FE4
:102390003F4F690160E070E080E090E820E030E0CD
:1023A00040E85FEB298F3A8F4B8F5C8F3DCE64EB1B
:1023B00075E0C6010E943A39892B19F510929E08E2
:1023C00080CF2FEF421A520AC7010E947A0C07CB26
:1023D000C3010E945629C7010E94562984E195E055
:1023E0000E94562980919E088130D1F0811115C03C
:1023F00084EB95E00E9456299CE2692E95E0792EA7
:10240000EECA60E372E0C6010E943A39892B59F4A2
:1024100083E0C82EC0929E0854CF80E392E0EACFBA
:1024200082E392E0E7CFC7010E947A0C4ACF0E9474
:1024300041298F3F2FEF9207D9F08D309105D9F0C8
:102440008A309105C1F08830910509F441C082328B
:102450009105B1F02091EB05222301F1CB9739F7DB
:102460001092EB050E9441298F3F2FEF920729F729
:1024700080E090E0089510926F0610926E06D7CF1C
:1024800020916E0630916F062F5F3F4F30936F069D
:1024900020936E062091EB052111C9CF20916C0687
:1024A00030916D062F37310584F540916E0640FD61
:1024B00003C08B339105B9F1A9014F5F5F4F509372
:1024C0006D0640936C06F901E451FA4F8083AFCF5B
:1024D00080916C0690916D06009709F4A8CF019742
:1024E00090936D0680936C06FC01E451FA4F808155
:1024F000823209F09CCF80916E0690916F06019711
:1025000090936F0680936E0692CF81E08093EB05E7
:1025100080E090E010926D0610926C0610926F06AB
:1025200010926E0608952115310539F0F901E45134
:10253000FA4F10828CEE95E0EDCF80E090E0EACF8C
:10254000EF92FF920F931F93CF93DF93EC011092C2
:10255000B2061092B10600E010E08881803241F4AA
:10256000DE01FE013196EF011D9281918032D9F397
:10257000882309F487C07801EE0CFF1CEE0CFF1CC9
:10258000F701E754F94FD183C0838881982F9F7D4D
:1025900061F08D33E9F0FE01319602C08D33C1F058
:1025A000EF018191982F9F7DC9F7F701E754F94F0B
:1025B000138212820F5F1F4F0A30110571F68FEFE1
:1025C0009FEFDF91CF911F910F91FF90EF900895B2
:1025D000188289818B3399F3803289F38232B9F181
:1025E000882369F3FE013196D701A754B94F13969A
:1025F000FC93EE9312978981882371F08032F1F178
:102600008D33E1F1229604C08032C1F18D33B1F1F6
:10261000FE0189918111F8CFEF01C7018754994FCD
:102620007C0166E273E0FC01808191810E943A396D
:10263000892B09F0BFCFF701828193810E94FA387C
:102640009093B2068093B10601501109B3CFCE0129
:1026500002962A81222309F4B2CFF701E754F94FF9
:102660009383828362E270E00E942F39EC01892B10
:1026700009F4A5CF8881882381F2FE01EF0121961C
:102680001082CBCFC801DF91CF911F910F91FF90A6
:10269000EF9008958BEB91E00E9456298091B1064E
:1026A0009091B206892B69F485E295E00E94562943
:1026B0008CEE91E00E9456290E944B298FEF9FEFEC
:1026C000089580E40E9437298091B1069091B20666
:1026D0000E94852CE9CF0F931F93CF93DF93009730
:1026E00031F58091E7059091E805A091E905B09159
:1026F000EA050097A105B105A1F04091AD06509102
:10270000AE066091AF067091B00684179507A607D4
:10271000B70708F481C08091E406982F907F903825
:1027200079F180E0DF91CF911F910F910895409151
:10273000AD065091AE066091AF067091B0068A0169
:102740009B01080F191F211D311D0093E7051093F0
:10275000E8052093E9053093EA051092E40680919C
:10276000B1069091B2069093E6058093E50581E06D
:102770008093E30680E0DF91CF911F910F91089540
:1027800090E0A0E0B0E0DC01992788272091E606E0
:10279000822B4091E50650E0542F442760E070E022
:1027A000842B952BA62BB72BA093B3069093B4063E
:1027B0008093B50680938A0890938B08A0938C0829
:1027C000B0938D081092E7051092E8051092E90584
:1027D0001092EA058DE493E00E9456298BEB91E07C
:1027E0000E9456298091B1069091B206892B09F07A
:1027F0004AC08AE30E94372982E793E00E94562963
:1028000085E295E00E9456290E944B290E94692D7D
:102810001092E30681E086CFC091B106D091B20656
:102820001092E7051092E8051092E9051092EA056A
:102830008AE293E00E9456298091E5059091E60591
:102840009093B2068093B1068BEB91E00E945629DB
:102850008091B1069091B206892BF9F48AE30E9427
:1028600037298FE393E00E94562985E295E00E9484
:1028700056290E944B29D093B206C093B1061092FC
:10288000E30680E04FCF80E40E9437298091B106B3
:102890009091B2060E94852CACCF80E40E9437292B
:1028A0008091B1069091B2060E94852CD7CF4F92AD
:1028B0005F926F927F928F929F92AF92BF92CF92D0
:1028C000DF92EF92FF920F931F93CF93DF9300D08D
:1028D0001F92CDB7DEB77C015B014A011B82452BFD
:1028E00009F4A9C0FC01808120E030E0882309F4CC
:1028F0005BC000E010E055245A949FE0492E1EC0B2
:10290000F501E20FF31F50826801FFEFCF1ADF0AD3
:10291000C814D90408F04CC0F501EC0DFD1D40822F
:102920008FEFE81AF80A86010F5F1F4F980108150C
:102930001905D0F5F70180818823B1F18B3209F4B4
:102940004CC08D32E9F28983F70181818A83680165
:10295000FFEFCF1ADF0AC814D90450F5CE01019653
:102960000E94FA380E946122F501EC0DFD1D808362
:10297000F701828189833701F4E06F0E711CF70142
:1029800083818A830A0D1B1DCE0101960E94FA38AD
:102990000E946122F8018083730186010F5F1F4F3F
:1029A00098010815190530F281E08216930609F0A6
:1029B00080E00F900F900F90DF91CF911F910F91BA
:1029C000FF90EF90DF90CF90BF90AF909F908F904F
:1029D0007F906F905F904F9008950430110544F3FD
:1029E000C80104968816990618F3D501A20FB31FE3
:1029F000FD01349780818C93F8013196EA0DFB1D1F
:102A0000DF0114978C918083F8013296EA0DFB1D4B
:102A1000DF0114978C9180836801E3E0CE0ED11C16
:102A2000F501EC0DFD1DDF0114978C918083FFEF04
:102A3000EF1AFF0A78CF20E030E0B6CF2F923F9216
:102A40004F925F926F927F928F929F92AF92BF92BE
:102A5000CF92DF92EF92FF920F931F93CF93DF936A
:102A6000CDB7DEB7A8970FB6F894DEBF0FBECDBFC7
:102A7000FC014B012FEF29839FE09A832B839C83DA
:102A80002D839E832F83988729879A872B879C87FE
:102A90002D879E872F87988B298B9A8B2B8B9C8BCE
:102AA0002D8B9E8B2F8B988F298F9A8F2B8F9C8F9E
:102AB0002D8F9E8F2F8F98A3623071050CF44DC21D
:102AC000E480F580A680B780E114F10409F4ECC03D
:102AD0008F01312C18A6FEEFFFA319A2212C1BA2F7
:102AE0001CA21DA21EA2612C712C1AA2512C412CD9
:102AF000CC24C394D12C21C0A114B10409F4B7C0D3
:102B00004CE150E0BE016F5F7F4FC5010E9457143A
:102B1000582E4FEFC41AD40A8C149D0481F1D801A9
:102B20001896ED90FC9019970C5F1F4FF801A68046
:102B3000B780E114F10409F4B7C06AE773E0C70194
:102B40000E943A39892BC1F261E873E0C7010E9403
:102B50003A39892B09F046C0A114B10409F487C0A1
:102B600044E050E0BE01635E7F4FC5010E945714F0
:102B7000482E4FEFC41AD40A8C149D0481F66BA121
:102B80007CA18DA19EA1672B682B692B09F4EDC058
:102B90002091DF05822F90E0A0E0B0E0DC019927D2
:102BA00088273091E105832B4091E00550E0542FB8
:102BB000442760E070E0842B952BA62BB72B4BA10C
:102BC0005CA16DA17EA1481759076A077B0709F42C
:102BD0004CC18FED95E00E94CD052091DF050FEDF2
:102BE00015E0C7C067E873E0C7010E943A39892B36
:102BF00059F4A114B10409F4ACC0C5010E94FA381B
:102C00003C0121E02AA385CF6DE873E0C7010E9453
:102C10003A39892B91F4A114B10441F0D5018C917A
:102C2000803309F48FC0813309F073CF79A17160CB
:102C300079A3822D8160282E6CCF64E973E0C701EF
:102C40000E943A39892B09F04AC0A114B10441F01D
:102C5000F5018081803309F481C0813309F059CFB7
:102C600099A1906899A3A22DA0682A2E52CF8BEB30
:102C700091E00E9456298091B1069091B206892B6D
:102C800049F080E40E9437298091B1069091B20604
:102C90000E94852C85E295E00E9456298CEE91E0F9
:102CA0000E9456290E944B298FEF9FEFA8960FB6DE
:102CB000F894DEBF0FBECDBFDF91CF911F910F9172
:102CC000FF90EF90DF90CF90BF90AF909F908F904C
:102CD0007F906F905F904F903F902F9008956DE997
:102CE00073E0C7010E943A39892B79F4A114B10429
:102CF00009F41AC1D5018C91803309F45FC0813386
:102D000009F0B6C0F1E0FFA304CF6AEE71E0C7019D
:102D10000E943A39892B09F441C063EE73E0C70180
:102D20000E943A39892B09F0BCC0A114B10409F4FE
:102D300045C1C5010E94FA388830910508F03EC1AE
:102D4000382EE7CE39A1316039A3422D4E7F242E93
:102D5000E0CE612C712C31E03AA3DBCE59A1506852
:102D600059A3622D6F77262ED4CE2091B30603EBA4
:102D700016E0207F203809F463C0D80114968C91A6
:102D80008F60F8018483C8010E94ED0581E00E94F4
:102D9000BC18811115C080E090E088CFA114B10467
:102DA00009F4BDC040E150E060E070E0C5010E9460
:102DB000EF366BA37CA38DA39EA3ABCE1FA2A9CE9F
:102DC0008BEE96E00E941820FFA1F13009F4D5C0E7
:102DD0005110BBC04110B1C02AA12111A8C060E0B0
:102DE0008BEE96E00E94332149A1622D8BEE96E096
:102DF0000E949F21B8018BEE96E00E94422263E080
:102E0000C8010E943E058823B1F18BEB91E00E943E
:102E100056298091B1069091B206892B09F0C4C061
:102E200085E295E00E94562987E793E00E945629A3
:102E30000E944B2980E00E94BC1880E090E036CFD1
:102E4000F8018481282F2F70F0E13F9EC0011124EA
:102E5000822BD80113969C911397292F207F98A538
:102E60009F70922B13969C938BCF0FED15E081CF23
:102E7000BFEFBFA34ECE8BEB91E00E94562980910D
:102E8000B1069091B206892B09F084C085E295E0E5
:102E90000E9456298CEE91E00E9456290E944B29EF
:102EA000C9CF62E973E0C7010E943A39892B91F4D6
:102EB000A114B10409F482C0C5010E94FA38883017
:102EC000910508F07BC0009709F47BC027E0280F2C
:102ED00028A71FCE66EA73E0C7010E943A39892B02
:102EE00009F47BC08DE891E00E9456298091B106DB
:102EF0009091B206892B09F066C08AE30E943729B7
:102F00008EE791E00E94562985E295E00E945629BD
:102F1000C7010E9456298AE00E943729FACD1BA2D8
:102F20001CA21DA21EA2F5CDE1E0EFA3F2CDB301DC
:102F30008BEE96E00E943F2252CFBE01635E7F4F30
:102F40008BEE96E00E94322247CFBE016F5F7F4F2B
:102F50008BEE96E00E9401223DCF2091B306312CEA
:102F6000512C612C712C212C19A23EEF3FA31AA2E7
:102F7000412C18A603EB16E0FCCE61E08BEE96E048
:102F80000E94332149A1622D8BEE96E00E949F2181
:102F900062E036CF80E40E9437298091B10690919B
:102FA000B2060E94852C72CF80E40E94372980915E
:102FB000B1069091B2060E94852C32CF0E944A132E
:102FC00075CE18A6A6CD80E40E9437298091B1065F
:102FD0009091B2060E94852C90CF0E944A138FEFE9
:102FE0009FEF64CE0F931F93CF93DF930E9417122E
:102FF000EC01892B09F44AC00E944B29CE010E94A2
:10300000A0128C0197FD52C00E945323811193C0DE
:10301000C091B906D091BA0660910001709101018A
:10302000CE010E943A39892B09F466C060910601ED
:1030300070910701CE010E943A39892B09F46FC0C3
:1030400060910C0170910D01CE010E943A39892BDB
:1030500009F468C06091120170911301CE010E94C1
:103060003A39892B09F461C06091180170911901F6
:10307000CE010E943A39892B09F45AC08DE193E0C0
:10308000DF91CF911F910F910C9456298091D80513
:10309000811107C08DE193E00E94562981E0809361
:1030A000D805DF91CF911F910F9108958BEB91E09F
:1030B0000E9456298091B1069091B206892B91F415
:1030C00085E295E00E9456298CEE91E00E945629F7
:1030D0000E944B298DE193E0DF91CF911F910F91D9
:1030E0000C94562980E40E9437298091B106909172
:1030F000B2060E94852CE4CF80E090E0FC01EE0F48
:10310000FF1FE80FF91FEE0FFF1FE050FF4F028077
:10311000F381E02DB80189EB96E00995AFCF81E00E
:1031200090E0ECCF82E090E0E9CF83E090E0E6CF62
:1031300084E090E0E3CF0E9456238BEB91E00E9465
:1031400056298091B1069091B206892B59F485E2F7
:1031500095E00E94562989EA93E00E9456290E9430
:103160004B298CCF80E40E9437298091B106909141
:10317000B2060E94852CEBCF8823A1F080919006A7
:103180008F5F8093900604C08091A308813041F442
:1031900084E690E00E94392F80918F068823A1F366
:1031A00081E008958091900681508093900681E09F
:1031B000089510928C0610928B0610928D06109234
:1031C0008E0610928606109278061092770610925C
:1031D000EA06109276061092750686E090E09093CB
:1031E00074068093730608950E94712D80937E0665
:1031F00090917D06891709F472C081115BC09FEF21
:103200009093850680937D062091EA06211109C0DE
:103210002091A406211105C020918F06222309F4D4
:1032200060C08091830690918406209190062223AD
:1032300009F442C020918F0621111AC010928C0609
:1032400010928B0610928D0610928E0610928606B2
:1032500010927806109277061092EA06109276067F
:103260001092750626E030E03093740620937306C2
:1032700021E020938F060196909384068093830625
:1032800080917E068823D9F08091810690918206F4
:103290000196909382068093810680918506181688
:1032A000DCF410928406109283061092820610922B
:1032B0008106089591E0A4CF10928F06DCCF809113
:1032C0007F069091800601969093800680937F06FA
:1032D0008091850618162CF381117DC0089590E029
:1032E0008FCF4091790650917A0660917B0670915C
:1032F0007C06411551056105710509F44BC041502B
:103300005109610971094093790650937A066093D7
:103310007B0670937C06452B462B472BD9F51092E4
:103320008C0610928B0610928D0610928E061092CB
:10333000860610927806109277061092EA0610928E
:1033400076061092750626E030E0309374062093DE
:103350007306913009F065CF20918606809183062F
:1033600090918406AC0127300CF0F9C04C50510903
:103370004D31510508F059CF409181065091820698
:10338000445051094131510508F04FCF2F5F209330
:1033900086064BCF811124C080918E06882309F4C4
:1033A0004BC19F3F09F492C090918606973009F077
:1033B00038CF21E0280F2831E0F010928E0680915E
:1033C0008D068F5F8A30E0F480938D0680918306AE
:1033D000909184062ACF1092800610927F0608955D
:1033E00020917F0630918006213F310508F097CF6C
:1033F000D3CF809183069091840620938E0615CFBB
:1034000010928D0620918B0630918C0620FDBCC059
:1034100080917306909174064091750650917606DE
:103420002F5F3F4F30938C0620938B064817590728
:1034300008F4F7CE8F30910509F470C0883A9105F1
:1034400009F468C0069709F0ECCE80917706909158
:103450007806892B01F58091EB0691E0811190E0CF
:103460002091EC06820F211190E02091ED06820F51
:10347000211190E02091EE06820F211190E0209121
:10348000EF06820F211102C0911105C09091F00644
:10349000891709F4D6C010928C0610928B061092F0
:1034A000860610927806109277061092EA0610921D
:1034B00076061092750686E090E0909374068093ED
:1034C00073068091830690918406AFCE2091810689
:1034D00030918206E0918B06F0918C06E170FF2717
:1034E000EE0FFF1FE957F94F2C30310530F521E081
:1034F00030E0A90100908D0602C0440F551F0A94C8
:10350000E2F720813181242B352B31832083909168
:1035100086064CCF83E08093EA0683CE8091F7063F
:1035200087FD9CC088EA90E09093740680937306B0
:10353000809183069091840678CE21E030E000905F
:103540008D0602C0220F331F0A94E2F720953095B2
:1035500040815181242335233183208325CF4C534F
:1035600051094D33510508F060CE409181065091CC
:103570008206445051094531510508F056CE273096
:1035800009F053CE21E039CF40917506509176066F
:10359000FA01E551F94F8091870690918806DC0188
:1035A000BB27682F62956F70762F7827672F6695F7
:1035B00066956727762F7695672760FD5EC060E089
:1035C00070E06A2B7B2B8617970709F45CC080910B
:1035D000890690918A06DC01BB27682F62956F707F
:1035E000762F7827672F669566956727762F7695CD
:1035F000672760FD45C060E073E06A2B7B2B861770
:10360000970709F440C087E78083809177069091FF
:1036100078060196909378068093770680917306DA
:10362000909174068417950708F14F5F5F4F509390
:10363000760640937506F4CE20918D062111B1CE09
:1036400088CE8091EF068F708F30F9F081E0809303
:10365000EA068091830690918406E7CD82E080930C
:10366000EA068091830690918406DFCD2F5F3F4F5D
:1036700030938C0620938B06DDCE60E072E0A1CF04
:1036800060E071E0BACF8083C9CF8091EB06807F84
:103690008038E1F68FE090E0909374068093730693
:1036A0008091830690918406C0CD8091A4068111FB
:1036B00001C008959091710691111BC020918E0652
:1036C000223008F47CC0109272062F5F263008F476
:1036D0004CC010928E0620918D062F5F233008F487
:1036E00080C010928D06982F80E0909371060C9404
:1036F000762D8091700681113CC090918E0681E0FC
:10370000923008F080E0809372069F5F943038F129
:1037100010928E0690918D069F5F973008F458C0E6
:1037200010928D0691E0909370069091EB06492FD0
:1037300050E0292F22952F709227292F2695269524
:103740009227292F2695922790FF51C020E032E042
:10375000242B352B3093880620938706C8CF90936F
:103760008E06109270060C94762D80E020938E06C3
:10377000BCCF20918D06422F50E0435051099091CB
:103780008E0657FD28C0923090F0943040F561E0ED
:1037900070E002C0660F771F4A95E2F740918706F6
:1037A000509188064623572381E0452BC1F480932E
:1037B00072069F5F9630F0F490938E0698CF30910A
:1037C0008D06311180CF31E0309372062F5FCECF5E
:1037D00090938D06C6CF211102C0923040F380E055
:1037E000E6CF20938D0680E080CF9111AFCF20E00F
:1037F00030E0AECF10928E062F5F2D3018F420935C
:103800008D0675CF10928D0620918B0630918C0617
:103810002F5F3F4F30938C0620938B064091AB0671
:103820005091AC0624173507D8F4F901F695E795C1
:10383000E551F94F9081492F50E0392F32953F7073
:103840009327392F369536959327392F3695932719
:10385000917020FFCACF91111AC020E033E078CFD9
:1038600010928C0610928B061092700610927106C0
:103870000E94762D1092A40610928C0610928B0650
:1038800010928D0610928E0680E00C94762D20E02A
:1038900031E05ECFCF93DF93FC0190818181980F5F
:1038A0008281980F8381980F8481890F9581891374
:1038B000C6C1880F613009F4C6C19681980F27816F
:1038C000920F2085920F2185920F8285980F838514
:1038D000980F8485980F8585980F86859813AFC1BA
:1038E000990F623009F4AFC127858089280F81893B
:1038F000280F8289280F8389280F8489280F8589BA
:10390000280F8689280F920F8789981398C1208DD8
:10391000818D820F228D820F238D820F248D820F45
:10392000258D820F268D820F378D830F890F292FCA
:10393000280F80A1281383C191A182A1890F93A18F
:10394000890F94A1890F95A1890F96A1890F97A13D
:10395000890F90A5890F820F982F920F81A5981338
:103960006EC122A583A5820F24A5820F25A5820FF3
:1039700026A5820F27A5820F20A9820F21A9820FD9
:10398000890F890F92A989135AC124A993A9920F6B
:1039900025A9920F26A9920F27A9920F20AD920F69
:1039A00021AD920F22AD920F980F890F23AD2813EE
:1039B00046C195AD84AD890F96AD890F97AD890F3E
:1039C000DF01A05CBF4F9C91890F11969C91890FDC
:1039D00011969C91890F11969C91890F820F820FED
:1039E00011969C9198132BC112962C9111979C9132
:1039F000920F12962C91920F11962C91920F119674
:103A00002C91920F11962C91920F11962C91920F4E
:103A100011962C91920F980F890F11964C91481383
:103A20000EC112969C9111978C91890F12969C91C0
:103A3000890F11969C91890F11969C91890F11966F
:103A40009C91890F11969C91890F11969C91890FD9
:103A5000840F480F11969C919413F1C011968C918C
:103A600011964C91840F11964C91840F11964C91A4
:103A7000840F11964C91840F11964C91840F1196DE
:103A80004C91840F11964C91840F890F292F280F88
:103A900011968C912813D3C011969C9111968C91FC
:103AA000890F11969C91890F11969C91890F1196FF
:103AB0009C91890F11969C91890F11969C91890F69
:103AC00011969C91890F820F922F980F11968C91CD
:103AD0009813B5C011963C9111968C91380F1196A0
:103AE0008C91380F11968C91380F11968C91380F5C
:103AF00011968C91380F11968C91380F11968C91EC
:103B0000380F390F892F830F11969C91891397C015
:103B100011962C9111969C91290F11969C91290F29
:103B200011969C91290F11969C91290F11969C91A9
:103B3000290F11969C91290F11969C91290F280FFE
:103B4000382F320F11968C91381379C011969C91B1
:103B500011968C91980F11968C91980F11968C91CB
:103B6000980F11968C91980F11968C91980F119631
:103B70008C91980F11968C91980F930F232F290FEA
:103B800011968C9128135BC011969C9111968C9183
:103B9000890F11969C91890F11969C91890F11960E
:103BA0009C91890F11969C91890F11969C91890F78
:103BB00011969C91890F820F922F980F11968C91DC
:103BC00098133DC011962C9111968C91820F1196ED
:103BD0002C91820F11962C91820F11962C91820FAD
:103BE00011962C91820F11962C91820F11962C9187
:103BF000820F890F890F11969C91891320C0EF01C4
:103C0000CA56DF4F129628819C91920F11962C91E3
:103C1000920F11962C91920F11962C91920F119652
:103C20002C91920F11962C91920F11962C91920F2C
:103C3000980F980FE256FF4F81E02081921380E0A9
:103C4000DF91CF91089581E0DF91CF910895CF93D7
:103C5000DF93FC0190818181980F8281980F83818D
:103C6000980F8481890F8583880F613009F49EC184
:103C70009681980F2781920F2085920F2185920FB0
:103C80008285980F8385980F8485980F8585980F76
:103C90009687990F623009F489C137858089380F7A
:103CA0008189380F8289380F8389380F8489380FCA
:103CB0008589380F8689380F390F378B908D818D24
:103CC000890F928D890F938D890F948D890F958D12
:103CD000890F968D890F478D840F830F932F980F2F
:103CE00090A331A182A1380F83A1380F84A1380F8E
:103CF00085A1380F86A1380F87A1380F80A5380F0E
:103D0000390F832F890F81A722A593A5290F94A589
:103D1000290F95A5290F96A5290F97A5290F90A9D9
:103D2000290F91A9290F280F322F380F32AB93A9F1
:103D300084A9980F85A9980F86A9980F87A9980F2D
:103D400080AD980F81AD980F82AD980F930F292FFA
:103D5000230F23AF95AD84AD890F96AD890F97AD35
:103D6000890FDF01A05CBF4F9C91890F11969C9138
:103D7000890F11969C91890F11969C91890F820F42
:103D8000982F920F11969C93EF01CA5BDF4F11960B
:103D900028818C91820F12962C91820F11962C9172
:103DA000820F11962C91820F11962C91820F1196F1
:103DB0002C91820F11962C91820F890F890F1196E9
:103DC0008C932996119628819C91920F12962C9192
:103DD000920F11962C91920F11962C91920F119691
:103DE0002C91920F11962C91920F11962C91920F6B
:103DF000980F890F11968C932996119628819C9182
:103E0000920F12962C91920F11962C91920F11965F
:103E10002C91920F11962C91920F11962C91920F3A
:103E200011962C91920F980F890F11968C932896CA
:103E3000129628819C91920F11962C91920F1196B7
:103E40002C91920F11962C91920F11962C91920F0A
:103E500011962C91920F11962C91920F980F890F19
:103E600011968C932996129628819C91920F119607
:103E70002C91920F11962C91920F11962C91920FDA
:103E800011962C91920F11962C91920F11962C91C4
:103E9000920F980F890F11968C932996129628816C
:103EA0009C91920F11962C91920F11962C91920F3A
:103EB00011962C91920F11962C91920F11962C9194
:103EC000920F11962C91920F980F890F11968C9347
:103ED0002996129628819C91920F11962C91920FFF
:103EE00011962C91920F11962C91920F11962C9164
:103EF000920F11962C91920F11962C91920F980F70
:103F0000282F290F11962C932996129698818C911F
:103F1000890F11969C91890F11969C91890F11968A
:103F20009C91890F11969C91890F11969C91890FF4
:103F300011969C91890F820F280F11962C93299628
:103F4000129698818C91890F11969C91890F1196E8
:103F50009C91890F11969C91890F11969C91890FC4
:103F600011969C91890F11969C91890F820F820F57
:103F700011968C932996129628819C91920F1196F6
:103F80002C91920F11962C91920F11962C91920FC9
:103F900011962C91920F11962C91920F11962C91B3
:103FA000920F980FE256FF4F890F8083DF91CF91D8
:103FB00008950F931F93CF93DF93EC01162F0E9468
:103FC000BF278EEF810F823028F0DF91CF911F91B4
:103FD0000F9108952696123039F160E002E110E069
:103FE0008091A6088530C8F0C801880F991F880FF6
:103FF000991F880F991F080F191F0C0F1D1F69E0CB
:1040000070E0CE010E941F2D2996C017D107B9F785
:10401000DF91CF911F910F910895CE01DF91CF9144
:104020001F910F910C94D42761E001E010E0D8CFEC
:10403000CF93DF93FC01DC01169688E0ED01199225
:104040008A95E9F79FEF97878FE0808B918B828B22
:10405000938B848B958B868B908F818F928F838FA0
:10406000948F858F968F878F91A382A393A384A328
:1040700095A386A397A380A792A783A794A785A7B4
:1040800096A787A790AB81AB93AB84AB95AB86AB80
:1040900097AB80AF91AF82AF94AF85AF96AF87AF4C
:1040A000DA969C9311968C9311969C9311968C930F
:1040B00012969C9311968C93119712969C9312973B
:1040C00013968C93139714969C93149715968C9330
:1040D000159716969C93169717968C931797199683
:1040E0009C9311968C93119712969C93129713960A
:1040F0008C93139714969C93149715968C931597FD
:1041000016969C93169717968C93179719969C93CF
:1041100011968C93119712969C93129713968C93E9
:10412000139714969C93149715968C93159716963F
:104130009C93169717968C93179719969C931196A4
:104140008C93119712969C93129713968C931397B6
:1041500014969C93149715968C93159716969C938A
:10416000169717968C93179719969C9311968C9384
:10417000119712969C93129713968C9313971496FB
:104180009C93149715968C93159716969C93169757
:1041900017968C93179719969C9311968C93119759
:1041A00012969C93129713968C93139714969C9344
:1041B000149715968C93159716969C9316971796A9
:1041C0008C93179719969C9311968C93119712962E
:1041D0009C93129713968C93139714969C93149711
:1041E00015968C93159716969C93169717968C9305
:1041F000179719969C9311968C93119712969C93EE
:10420000129713968C93139714969C931497159664
:104210008C93159716969C93169717968C931797D1
:1042200019969C9311968C93119712969C931297C2
:1042300013968C93139714969C93149715968C93BE
:10424000159716969C93169717968C93EA56FF4FE0
:1042500090838183928383839483858396838783EA
:10426000DF91CF910895DF92EF92FF920F931F930A
:10427000CF93DF9300D000D0CDB7DEB78C01D62E20
:1042800080E090E00E94D60469837A838B839C83CC
:10429000CE0101960E94C62F7C01FC0180810E9404
:1042A0006122F8018683F70181810E946122F80171
:1042B0008783F70182810E946122F8018087F701DC
:1042C00083810E946122F8018287F70185818F5FD7
:1042D0000E946122F8018387DD2051F187E820E800
:1042E000F7019481992311F0892F822BF80184879B
:1042F00081E090E0F701048002C0880F991F0A94C2
:10430000E2F7F8018187F70182859385F801892B0F
:1043100091F485858B7F85870F900F900F900F907C
:10432000DF91CF911F910F91FF90EF90DF90089553
:1043300087E020E0D5CF858584608587EDCFFC01BF
:1043400040FF05C0858560FF59C081608587942F37
:104350009695262F269590FF05C0858520FF4BC09A
:10436000826085879695269590FF05C0858520FFFC
:104370003FC0846085879695269590FF05C085850A
:1043800020FF33C0886085879695269590FF05C0ED
:10439000858520FF27C0806185879695269590FFAB
:1043A00005C0858520FF1BC0806285879695269570
:1043B00090FF05C0858520FF0FC080648587969596
:1043C0002695992341F08585222319F080688587F9
:1043D00008958F77858708958F7B8587F0CF8F7DB0
:1043E0008587E4CF8F7E8587D8CF877F8587CCCFA1
:1043F0008B7F8587C0CF8D7F8587B4CF8E7F858764
:10440000A6CFCF93DF93EC01FB01808191819C8B40
:104410008B8B828193819E8B8D8BDE015896349697
:1044200088E001900D928A95E1F7DE019196FB01FB
:104430003C9688E001900D928A95E1F7FB01848912
:1044400095899BA78AA7868997899DA78CA7808D28
:10445000918D988B8F87828D938D9A8B898BDF912D
:10446000CF910895FB0120813181FC0137A726A758
:10447000FB0122813381FC0131AB20AB0895C3964F
:104480000C940306FB01DC01A156BF4F1C92208156
:1044900011962C93218111962C932281FC01EE55CB
:1044A000FF4F2083319623E5208331961082319689
:1044B00020E12083319621E12083319625E020837D
:1044C00008956AE070E090E00E94E5329B01229539
:1044D0003295307F3227207F32278F70822B0895CC
:1044E0006AE070E090E00E94E532AC01693071054D
:1044F00049F0262F2295207F4930510539F08F70E1
:10450000822B089520EF49305105C9F78FE0822BA7
:1045100008950F930E94E9040E9411240E94F2174B
:104520008091EA06882309F456C08091EA0681301A
:10453000C1F060F0843050F487EF93E00E94562978
:104540006091EA068BEE96E00E94D91F6091EA0620
:104550008BEE96E00E944A1C8823B1F10F910C94D7
:10456000D91885E0EBEEF6E0A4EEB6E001900D92EE
:104570008A95E1F780E090E00E946B1384EF93E06E
:104580000E9456296091EA068BEE96E00E94D91FA0
:104590004091EF06042F0F702091EE062F70429588
:1045A0004F706091EC067091ED06762767277627AD
:1045B00080E090E00E9429276091EA068BEE96E069
:1045C0000E944A1C8111CACF8DE094E00E945629B6
:1045D0000F910C94D9180F910895CF93DF9380E237
:1045E00094E00E94562980E694E00E945629CAE889
:1045F000D8E0688179818A819B8140E00E94022A0B
:104600008BE694E00E9456296C817D818E819F818A
:1046100040E00E94D12A87EE91E00E94562982E76D
:1046200094E00E945629688579858A859B8545E0B6
:1046300050E00E94782B84E894E00E9456296C8513
:104640007D858E859F8545E050E00E94782B8FE820
:1046500094E00E945629688979898A899B8942E079
:1046600050E00E94782B87EE91E00E9456298BE95A
:1046700094E0DF91CF910C9456290E94DD26409161
:104680008A0850918B0860918C0870918D0883EB9B
:1046900096E00E94CD050E94ED2283E00E949F2DAE
:1046A00080E090E0089580919806089580919806A2
:1046B000811101C0089582E080939E0680919D063D
:1046C000807F836080939D0689E996E00E94ED05D6
:1046D00004C089E996E00E94ED0561E089E996E071
:1046E0000E943E058111F5CF86EC94E00E94562988
:1046F00010929606109297061092980680E00C94FD
:10470000BC180F931F93CF938C0180919806882338
:1047100061F182E080939E0680919D06807F836098
:1047200080939D0689E996E00E94ED0504C089E921
:1047300096E00E94ED0561E089E996E00E943E0561
:10474000C82F8111F4CF86EC94E00E945629109274
:104750009606109297061092980680E00E94BC1868
:104760008C2FCF911F910F9108950E94802DC82FFB
:1047700081114DC0F8018081807F8038A1F1848152
:104780008F70843009F449C0853051F78AE08093F6
:10479000950686EF94E00E94562986E0F801A9E983
:1047A000B6E001900D928A95E1F781E0809398063A
:1047B0000E94BC188091AD069091AE06A091AF0604
:1047C000B091B0064E96A11DB11D809391069093B5
:1047D0009206A0939306B0939406C1E08C2FCF91DC
:1047E0001F910F910895F80183818F7090E00897D1
:1047F000079708F0B5CF8481282F22952F7030E0DD
:10480000215031092730310508F4BACFA9CF83ED03
:1048100094E00E945629C0E0A3CF89E080939506DA
:10482000B8CF0F931F93CF93DF93D0919806DD23DA
:1048300021F0C091A406CC2339F0C1E08C2FDF9188
:10484000CF911F910F9108950E94802D81116CC00E
:1048500010E00E94802D082F882329F08091950672
:104860008A3009F48EC080919706811164C08091CE
:10487000960681116AC0109397061111C8C0109254
:1048800096068091910690919206A0919306B09120
:1048900094064091AD065091AE066091AF067091BE
:1048A000B00684179507A607B70790F04091AD06AC
:1048B0005091AE066091AF067091B006415E5F4FB9
:1048C0006F4F7F4F481759076A077B0708F0B5CF2E
:1048D00080919806882309F4B1CF82E080939E06E8
:1048E00080919D06807F836080939D0689E996E094
:1048F0000E94ED0504C089E996E00E94ED0561E0A3
:1049000089E996E00E943E058111F5CF86EC94E09E
:104910000E945629109296061092970610929806B9
:1049200080E00E94BC188ACF11E080919506893002
:1049300009F08ECF8ECF10939706112309F443C050
:1049400080919606882309F478CF1092960682E02B
:1049500080939E0680919D06807F836080939D0654
:1049600089E996E00E94ED0504C089E996E00E947D
:10497000ED0561E089E996E00E943E058111F5CFE1
:104980005CCF112309F469C080919806882309F44B
:1049900055CF82E080939E0680919D06807F836044
:1049A00080939D0689E996E00E94ED0504C089E99F
:1049B00096E00E94ED0561E089E996E00E943E05DF
:1049C0008111F5CFA3CFC0E082E080939E06809155
:1049D0009D06807F836080939D0689E996E00E9412
:1049E000ED0504C089E996E00E94ED0561E089E9E2
:1049F00096E00E943E058111F5CF809196068823AE
:104A000009F41BCFC0939606C11117CFA0CF109207
:104A10009E0680919D06807F896080939D0689E92E
:104A200096E00E94ED0561E089E996E00E943E056E
:104A30008091AD069091AE06A091AF06B091B00600
:104A40004E96A11DB11D8093910690939206A0935E
:104A50009306B0939406CD2FF1CE809197068111E5
:104A600033C080919606882321F081E080939606DA
:104A7000E4CE1092970681E08093960610929E06EF
:104A800080919D06807F8A6080939D0689E996E0EB
:104A90000E94ED0561E089E996E00E943E05809163
:104AA000AD069091AE06A091AF06B091B0064E96BD
:104AB000A11DB11D8093910690939206A093930639
:104AC000B0939406C02FBACE10929706C1E07CCF67
:104AD000FC0180819181A281B381B23C20F0805899
:104AE000924AA149B44BBC01CD016059794A8D4E1F
:104AF000984D20E83AE349E050E00E94F932DA01AB
:104B0000C901880F991FAA1FBB1F880F991FAA1FD1
:104B1000BB1F880F991FAA1FBB1F821B930BA40BDF
:104B2000B50BBC01CD01660F771F881F991F660F5B
:104B3000771F881F991F25EB35E040E050E00E9469
:104B4000F9326835734018F480E19EE0089580E002
:104B500090E0089580E19EE00895FC0180819181BC
:104B6000A281B381B23C20F08058924AA149B44B53
:104B7000BC01CD016059794A8D4E984D20E83AE349
:104B800049E050E00E94F932DA01C901880F991F0B
:104B9000AA1FBB1F880F991FAA1FBB1F880F991F31
:104BA000AA1FBB1F821B930BA40BB50BBC01CD012D
:104BB000660F771F881F991F660F771F881F991F21
:104BC00025EB35E040E050E00E94F9326835734053
:104BD00018F480E19EE0089580E090E008950F933E
:104BE0001F93CF93DF93CDB7DEB760970FB6F894DE
:104BF000DEBF0FBECDBF8C0180E090E00E94D604E6
:104C00006D877E878F87988BBE016F5F7F4FCE0148
:104C10000D960E94CD2FB801CE0101960E949E31C3
:104C200084E5F801828781E060960FB6F894DEBFD4
:104C30000FBECDBFDF91CF911F910F9108950F93BC
:104C40001F93CF93DF93CDB7DEB7A0970FB6F8943D
:104C5000DEBF0FBECDBFFC0101900020E9F79F0130
:104C6000245131092817390761F080E0A0960FB66A
:104C7000F894DEBF0FBECDBFDF91CF911F910F9192
:104C80000895BC0143E150E0CE0101960E944339F2
:104C90001C8A8E010B5E1F4F8CE0F80111928A95E1
:104CA000E9F762E075E0CE0101960E942139009794
:104CB000E1F20E94FA388C5697409C8F8B8F62E00D
:104CC00075E080E090E00E942139009771F20E9427
:104CD000FA3881508A8F64E075E080E090E00E94AD
:104CE0002139009711F20E94FA38888F65EF73E03E
:104CF00080E090E00E942139009709F4B6CF0E942D
:104D0000FA388F8B65EF73E080E090E00E942139E4
:104D1000009709F4AACF0E94FA388E8B6EE171E0F9
:104D200080E090E00E942139009709F49ECF0E9414
:104D3000FA388D8B8FEF9FEF98A38F8FC8010E9459
:104D40003330611571058105910509F48ECF22E09C
:104D50002093970760939307709394078093950728
:104D60009093960781E082CFCF92DF92EF92FF92ED
:104D7000CF93DF9300D000D0CDB7DEB7CE01019640
:104D80000E94D6046B017C01CE0101960E94C62FC1
:104D900089819A81AB81BC81BC01CD016C197D09EF
:104DA0008E099F090F900F900F900F90DF91CF9178
:104DB000FF90EF90DF90CF90089520E030E041E643
:104DC00055E460919A0870919B0880919C0890919D
:104DD0009D080E94E7350E9464340E94A5328091AC
:104DE0009E08823081F0833051F0813021F080E0E4
:104DF00090E00C94A03088E695E20C94A0308AEA0A
:104E000095E20C94A0308DEA95E20C94A030283005
:104E1000E0F027502830C8F450E0CA010197079706
:104E2000A0F4FA01E956F84F808190E02150AC01DE
:104E300002C0559547952A95E2F7CA0181709927D6
:104E400040FF06C084E690E008958FEF9FEF08953D
:104E500008958F929F92AF92BF92EF92FF920F931D
:104E60001F93CF93DF933FEF320F373008F46EC0BC
:104E70002830B8F5C0E0D0E00430D1F1053009F4B5
:104E80007BC0042F10E0EE24EA94FE2CC8010197A9
:104E90008730910508F05AC0209709F457C02FEFCA
:104EA000E216F20609F455C0FC01E856F84F2197C6
:104EB00081E090E001C0880FCA95EAF7EF2809F475
:104EC00041C09081892B80838FEF9FEFDF91CF913D
:104ED0001F910F91FF90EF90BF90AF909F908F9098
:104EE00008952750283090F5C22FD0E0043031F6D5
:104EF00024E6E22EF12C042F4B015C0187E095E0C3
:104F00000E94562940E0C501B4010E94022A86E1B0
:104F100095E00E94562910E0C8010E94852C8AE184
:104F200095E00E945629CE010E94852C8EE195E0E5
:104F30000E945629C7010E94852C87EE91E00E94AD
:104F40005629A4CF80959081892380838FEF9FEF8E
:104F5000BDCFF801E956F84F208130E0219702C01B
:104F600035952795CA95E2F7C9018170992720FFE9
:104F7000ADCF84E690E0AACFE12CF12CBCCF0F930B
:104F80001F93CF93DF93EC018C010A5F1F4F61E009
:104F900089910E949129C017D107C9F7DF91CF915C
:104FA0001F910F910C944B298F929F92AF92BF92B9
:104FB000CF92DF92EF92FF920F931F93CF93DF93E5
:104FC000CDB7DEB760970FB6F894DEBF0FBECDBF8A
:104FD0006C01162F80E1E0E2F1E0DE011196019014
:104FE0000D928A95E1F782E295E00E945629D6015A
:104FF00014968C910E94BD2C88E295E00E9456295F
:10500000F60185810E94BD2C8AE295E00E94562916
:10501000D6011696EC91E770F0E0EE0FFF1F81E0ED
:1050200090E08C0F9D1FE80FF91F808191810E94F5
:1050300056298BE295E00E945629D60112968C9152
:105040000E94BD2C85EF93E00E945629F6018181D4
:105050000E94BD2C85EF93E00E945629D6018C91C9
:105060000E94BD2CF601878182FD78C00E944B29E9
:10507000111161C0D60117968C9187FD79C080FD12
:1050800072C08BE595E00E9456295601F9E0AF0EFB
:10509000B11C76018DE2E80EF11C450188E0880E16
:1050A000911C8501D80111968C910E94BD2C85EF31
:1050B00093E00E945629F80180810E94BD2C8CE665
:1050C00091E00E9456290E5F1F4F8016910651F7FE
:1050D0000E944B29F9E0AF0EB11CEA14FB04E9F67B
:1050E00088E695E00E945629560199E9A90EB11C5F
:1050F000670188E0C80ED11C8701D80111968C91F8
:105100000E94BD2C85EF93E00E945629F801808112
:105110000E94BD2C8CE691E00E9456290E5F1F4F25
:105120000C151D0551F70E944B29F9E0EF0EF11CFB
:10513000EA14FB04E9F660960FB6F894DEBF0FBEE2
:10514000CDBFDF91CF911F910F91FF90EF90DF9036
:10515000CF90BF90AF909F908F9008958EE295E092
:105160000E94562983CF88E495E00E94562989CF72
:1051700083E395E00E945629F601878180CF0F9343
:105180001F93CF93DF9300D01F92CDB7DEB7182FB8
:1051900040E1BE016F5F7F4F90E00E947939107F40
:1051A000E1F1A5E9B5E08C91E091A307F091A407A6
:1051B0008823D1F1309789F08D010F5F1F4F09953A
:1051C000019671F1F80181918F01882349F1E091F5
:1051D000A307F091A407309791F78981811115C039
:1051E000E0E0F0E0309789F00DE611E08CE20995FF
:1051F000019659F0F80181918F01882331F0E091F7
:10520000A307F091A407309791F70F900F900F909C
:10521000DF91CF911F910F910895A1E9B5E0C3CF20
:10522000E091A307F091A40789818823D9F23097F0
:1052300061F38E010E5F1F4F0995019699F0F801F9
:1052400081918F01882371F0E091A307F091A40769
:10525000309791F70F900F900F90DF91CF911F91A2
:105260000F910895E091A307F091A407BBCFE091BF
:10527000A307F091A407309709F009948FEF9FEFEF
:105280000895E091A107F091A207309709F00994E1
:105290008FEF9FEF0895E091A307F091A407309757
:1052A00011F08AE009948FEF9FEF0895CF93DF9379
:1052B000EC0188818823C1F0E091A307F091A40755
:1052C000309769F021960995019649F089918823D4
:1052D00059F0E091A307F091A4073097A1F78FEF61
:1052E0009FEFDF91CF91089580E090E0DF91CF9123
:1052F0000895CF93DF93EC01FE018491882361F040
:10530000E091A307F091A407309709F00995219641
:10531000FE0184918111F4CF80E090E0DF91CF9184
:105320000895FF920F931F93CF93DF9300D01F92A6
:10533000CDB7DEB7182FF62E40E1BE016F5F7F4F6D
:1053400090E00E947939107F09F059C0A1E9B5E0D9
:105350008C918823C9F1E091A307F091A4073097BD
:1053600089F08D010F5F1F4F0995019669F1F801D2
:1053700081918F01882341F1E091A307F091A40767
:10538000309791F7FF20B9F0E091A307F091A407BF
:10539000309789F00DE611E08CE20995019659F0FD
:1053A000F80181918F01882331F0E091A307F091FA
:1053B000A407309791F70F900F900F90DF91CF9146
:1053C0001F910F91FF90089589818823D9F2E09170
:1053D000A307F091A4073097A9F28E010E5F1F4F2B
:1053E0000995019679F2F80181918F01882351F294
:1053F000E091A307F091A407309791F7C3CFA5E9F7
:10540000B5E0A6CF8F929F92AF92BF92FF920F937B
:105410001F93CF93DF93CDB7DEB72A970FB6F894DB
:10542000DEBF0FBECDBF4B015C01F42E20E1AE010B
:105430004F5F5F4F0E948F39D501C401807F892B58
:105440008A2B8B2BD9F1D501C4018827892B8A2B74
:105450008B2B09F494C0D501C4018827907F892B38
:105460008A2B8B2B09F48EC0D501C401882799277C
:10547000892B8A2B8B2B09F488C0D501C40188277E
:105480009927A07F892B8A2B8B2B09F481C0D5010A
:10549000C40188279927AA27892B8A2B8B2B09F4EB
:1054A0007AC088249924AA2420EFB22289288A2845
:1054B0008B2809F473C0A5E9B5E002C0ACEAB5E0F9
:1054C0008C91882309F440C0E091A307F091A407D0
:1054D000309789F08D010F5F1F4F09950196A1F15B
:1054E000F80181918F01882379F1E091A307F09170
:1054F000A407309791F7FF20B9F0E091A307F0914E
:10550000A407309789F00DE611E08CE20995019629
:1055100059F0F80181918F01882331F0E091A307C0
:10552000F091A407309791F72A960FB6F894DEBF52
:105530000FBECDBFDF91CF911F910F91FF90BF9014
:10554000AF909F908F90089589818823A1F2E09178
:10555000A307F091A407309771F28E010E5F1F4FE1
:105560000995019641F2F80181918F01882319F282
:10557000E091A307F091A407309791F7BCCFA3EA7D
:10558000B5E09ECFADEBB5E09BCFA6EBB5E098CFF5
:10559000ADE9B5E095CFA8E9B5E092CFA1E9B5E0D6
:1055A0008FCFFF920F931F93CF93DF93CDB7DEB7CB
:1055B0002C970FB6F894DEBF0FBECDBFF42E2AE0B5
:1055C000AE014F5F5F4F0E948F3989818823B9F008
:1055D000E091A307F091A407309789F08E010E5F48
:1055E0001F4F0995019659F0F80181918F01882389
:1055F00031F0E091A307F091A407309791F7FF20D5
:10560000B9F0E091A307F091A407309789F00DE677
:1056100011E08CE20995019659F0F80181918F0112
:10562000882331F0E091A307F091A407309791F718
:105630002C960FB6F894DEBF0FBECDBFDF91CF9191
:105640001F910F91FF900895FF920F931F93CF9397
:10565000DF93CDB7DEB72A970FB6F894DEBF0FBE43
:10566000CDBFF62E4AE0BE016F5F7F4F0E947939B1
:10567000DC018C918823B9F0E091A307F091A40795
:10568000309789F08D010F5F1F4F0995019659F0F2
:10569000F80181918F01882331F0E091A307F09107
:1056A000A407309791F7FF20B9F0E091A307F0919C
:1056B000A407309789F00DE611E08CE20995019678
:1056C00059F0F80181918F01882331F0E091A3070F
:1056D000F091A407309791F72A960FB6F894DEBFA1
:1056E0000FBECDBFDF91CF911F910F91FF90089515
:1056F0002F923F924F925F926F927F928F929F92E2
:10570000AF92BF92CF92DF92EF92FF920F931F93CF
:10571000CF93DF93CDB7DEB72C970FB6F894DEBFEB
:105720000FBECDBF4B015C018A010E9464342B0186
:105730003C011B014AE0BE016F5F7F4FC2010E9426
:105740007939DC018C91E091A307F091A4078823BB
:1057500009F495C03097A1F07D012FEFE21AF20A0B
:105760000995019609F487C0F70181917F0188238B
:1057700009F481C0E091A307F091A407309781F765
:10578000B201550C880B990B0E949C349B01AC0113
:10579000C501B4010E9480336B017C0137FC75C0E8
:1057A00020E030E040E85FE361E070E080E090E01E
:1057B000101611060CF520E030E0DC01CB01880F5B
:1057C000991FAA1FBB1F2C013D01440C551C661CD0
:1057D000771C440C551C661C771CBC01CD01640D64
:1057E000751D861D971D2F5F3F4F0217130729F761
:1057F0000E949C349B01AC01C701B6010E94E735B1
:105800000E946B342AE0AE014F5F5F4F0E948F39D8
:1058100089818823B9F0E091A307F091A40730971C
:1058200089F08E010E5F1F4F0995019659F0F8011E
:1058300081918F01882331F0E091A307F091A407B3
:10584000309791F72C960FB6F894DEBF0FBECDBF00
:10585000DF91CF911F910F91FF90EF90DF90CF904C
:10586000BF90AF909F908F907F906F905F904F9080
:105870003F902F900895E091A307F091A4073097EF
:1058800009F47ECF8EE209957BCF20E030E040E83E
:105890005FEB6FEF7FEFCB018BCF0F931F93CF9316
:1058A000DF93CDB7DEB72D970FB6F894DEBF0FBEEE
:1058B000CDBF9A01AE014F5F5F4F0E948439DC017A
:1058C0008C918823B9F0E091A307F091A407309759
:1058D00089F08D010F5F1F4F0995019659F0F8016E
:1058E00081918F01882331F0E091A307F091A40703
:1058F000309791F72D960FB6F894DEBF0FBECDBF4F
:10590000DF91CF911F910F9108950F931F93CF9324
:10591000DF93CDB7DEB72A970FB6F894DEBF0FBE80
:10592000CDBF4AE0BE016F5F7F4F0E947939DC0135
:105930008C918823B9F0E091A307F091A4073097E8
:1059400089F08D010F5F1F4F0995019659F0F801FD
:1059500081918F01882331F0E091A307F091A40792
:10596000309791F72A960FB6F894DEBF0FBECDBFE1
:10597000DF91CF911F910F910895FF920F931F9385
:10598000CF93DF93CDB7DEB72A970FB6F894DEBF7B
:105990000FBECDBFF82E82958F7040E1BE016F5FC4
:1059A0007F4F90E00E947939DC018C918823B9F017
:1059B000E091A307F091A407309789F08D010F5F64
:1059C0001F4F0995019659F0F80181918F018823A5
:1059D00031F0E091A307F091A407309791F78F2D54
:1059E0008F7040E1BE016F5F7F4F90E00E94793978
:1059F000DC018C918823B9F0E091A307F091A40712
:105A0000309789F08D010F5F1F4F0995019659F06E
:105A1000F80181918F01882331F0E091A307F09183
:105A2000A407309791F72A960FB6F894DEBF0FBE01
:105A3000CDBFDF91CF911F910F91FF9008950F93EC
:105A40001F93CF93DF931616170654F4EC018C01C5
:105A5000060F171F89910E94BF28C017D107D1F7E1
:105A6000E091A307F091A407309731F08AE0DF912D
:105A7000CF911F910F910994DF91CF911F910F91B9
:105A800008950E94612D0E947C2D60918E08709176
:105A90008F0880919008909191080E941B2E0E947F
:105AA000FE2E85EC9DE29093A4078093A30789EFD7
:105AB0009DE29093A2078093A1070E94B72F78944C
:105AC000089541EA50E064E070E08AE898E00C94C0
:105AD000F53941EA50E064E070E08AE898E00C941F
