:100000000C9464040C948D040C948D040C948D0455
:100010000C948D040C948D040C948D040C948D041C
:100020000C948D040C948D040C948D040C94502F1E
:100030000C948D040C948D040C948D040C948D04FC
:100040000C948D040C948D040C94142F0C94E12EBC
:100050000C948D040C948D040C948D040C948D04DC
:100060000C948D040C948D04072C7AA5BA6CC59061
:10007000DA3B9365FC8BBC53F810FD3C5692834DE4
:10008000BD879D3AB63DCBC9BF5BBE73DA0FC93F92
:1000900005A84CCDB2D44EB93836A9020C50B9914E
:1000A0008688083CA6AAAA2ABE000000803F737971
:1000B0006E7461783A20636F6D6D616E64206F704D
:1000C00074696F6E3D76616C7565202E2E2E3B0A2D
:1000D000636F6D6D616E6473206172653A200074A8
:1000E000797065202768656C7020636F6D6D616E37
:1000F000643B2720206F72202768656C7020616C3C
:100100006C3B270A636F6D6D616E6473206172656D
:100110003A20006461696C793D5420202020202021
:100120002020656E61626C6573206461696C792062
:1001300074696D65722E20542069732075702F6468
:100140006F776E206C696B6520303733302D206FF0
:1001500072203037333032303030206F72202D3201
:100160003030302020666F722075702030373A337F
:100170003020616E642F6F7220646F776E20323092
:100180003A30300A7765656B6C793D545454545459
:10019000545420656E61626C6573207765656B6C85
:1001A000792074696D65722E2054206C696B65200E
:1001B0007769746820276461696C7927206F7220E1
:1001C000272B2720746F20636F7079207468652057
:1001D00054206F6E20746865206C6566742E20282C
:1001E0007765656B6C793D303733302D2B2B2B2B9E
:1001F000303930302D2B290A617374726F5B3D4E9C
:100200005D202020202020656E61626C6573206176
:100210007374726F206175746F6D617469632E20E1
:100220004E20697320746865206F6666736574205C
:10023000746F20636976696C206475736B20696ED6
:10024000206D696E757465732E2043616E20626542
:1002500020706F7374697665206F72206E656761B8
:10026000746976652E0A73756E2D6175746F202022
:100270002020202020656E61626C65732073756E8E
:10028000206175746F6D617469630A72616E646F69
:100290006D202020202020202020656E61626C656A
:1002A000732072616E646F6D206175746F6D61741F
:1002B00069632E2073687574746572206F70656E43
:1002C0007320616E6420636C6F73657320617420AA
:1002D00072616E646F6D2074696D65732E0A72743D
:1002E000632D6F6E6C7920202020202020646F6E9B
:1002F0002774206368616E67652074696D65727329
:100300002E206F6E6C792075706461746520696E43
:100310007465726E616C207265616C2074696D65C4
:1003200020636C6F636B0A612C206720616E642010
:100330006D3A202020206C696B6520696E20736502
:100340006E6420636F6D6D616E640A72733D283058
:100350007C317C322920202020207265616420625B
:1003600061636B2073617665642074696D657220CA
:10037000646174612E2069662073657420746F2037
:10038000322C2072657475726E20616E7920646102
:100390007461206D61746368696E67206720616EA7
:1003A00064206D20652E672E206D3D302028616E03
:1003B00079206D656D6265722920696E737465615F
:1003C00064206F66206D3D320A007072696E743D64
:1003D000287274637C63757C72657365742D696EB5
:1003E000666F290A75702D74696D653D3F0A002797
:1003F000636F6E666967272073657473206F722060
:1004000067657473206F7074696F6E732E205573F7
:10041000653A20636F6E666967206F7074696F6EEE
:100420003D76616C7565202E2E2E3B20746F2073F7
:1004300065742E205573653A20636F6E6669672078
:100440006F7074696F6E3D3F202E2E2E3B20746FAF
:10045000206765742C20696620737570706F7274E4
:1004600065640A0A63753D2849447C6175746F7C34
:100470003F292020202020362D6469676974206878
:100480006578204944206F662043656E7472616C04
:100490002D556E69742E206175746F3A20636170FA
:1004A00074757265204944207573696E6720636FA7
:1004B0006E6E65637465642052462072656365697B
:1004C0007665720A7274633D2849534F5F54494DF3
:1004D000457C3F29202020736574206C6F63616C1C
:1004E0002074696D65207769746820746869732069
:1004F000286F7220757365204E5450292E20657820
:10050000616D706C653A20636F6E66696720727406
:10051000633D323031372D31322D33315432333A5D
:1005200035393A35393B0A626175643D284E7C3F66
:100530002920202020202020202073657269616CF2
:100540002062617564207261746520282E2E2E2031
:10055000626175643D313135323030290A6C6F6E1D
:100560006769747564653D284445477C3F290A6C7A
:10057000617469747564653D284445477C3F290A68
:1005800074696D652D7A6F6E653D284E7C3F29201C
:1005900020202074696D65207A6F6E6520686F7504
:1005A00072206F666673657420666F722061737463
:1005B000726F20616E64207274630A6473743D28E4
:1005C00065757C307C317C3F2920202020206461AF
:1005D000796C6967687420736176696E67207469E5
:1005E0006D653A206175746F6D617469633A206559
:1005F000753D6575726F70652E206D616E75616CED
:100600006C793A20303D6F66662C20313D6F6E0A62
:10061000766572626F73653D28302E2E357C3F29DA
:100620002020207365742074657874206F75747051
:10063000757420766572626F73697479206C657663
:10064000656C2E203020666F72206E6F6E65202ED6
:100650002E2E203520666F72206D61780A736574C6
:100660002D70773D70617373776F72642020202046
:10067000736574206120636F6E66696720706173B3
:1006800073776F72642E20696620736574206576B7
:1006900065727920636F6E66696720636F6D6D6147
:1006A0006E6473206E65656473207468652070776E
:1006B000206F7074696F6E0A70773D50572020204C
:1006C00020202020202020202020206578616D70AF
:1006D0006C653A20636F6E6669672070773D6D794F
:1006E0005F7061737377206473743D65753B0A7244
:1006F0006573746172742020202020202020202027
:10070000202072657374617274204D43550A006134
:100710003D28307C494429202030202068657820FD
:100720004944206F662073656E646572206F722085
:1007300072656365697665722E2030207573657306
:10074000202763752720696E20636F6E6669670ACC
:10075000673D5B302D375D20202030202067726F91
:100760007570206E756D6265720A6D3D5B302D3758
:100770005D20202030202067726F7570206D656DC0
:10078000626572206E756D6265720A633D287570D0
:100790007C646F776E7C73746F707C73756E2D6480
:1007A0006F776E7C73756E2D696E73747C73657470
:1007B0000A723D4E20202020202020322020726509
:1007C0007065617420636F6D6D616E6420312B4EB6
:1007D0002074696D65735345505B3D307C315D20FD
:1007E000202020456E74657220656E642D706F73D5
:1007F0006974696F6E2061646A7573746D656E7477
:10080000206D6F646520286E656564732068617271
:10081000647761726520627574746F6E29000A28AE
:1008200068696E743A20747970652068656C703BF5
:1008300020746F20676574206120636F6D6D616E39
:1008400064206C697374290A002074696D652D7ABF
:100850006F6E653D00206C617469747564653D0060
:10086000636F6E666967206C6F6E67697475646527
:100870003D003B0A0020626175643D00636F6E6657
:1008800069672063753D000A0A54726F6E6665726F
:100890006E6F2D4D4355207374617274696E6720BD
:1008A0002E2E2E0A6275696C642D646174653A207F
:1008B00053657020313820323031382032313A32AD
:1008C000303A34390A0A000011241FBECFEFD8E0B5
:1008D000DEBFCDBF14BE0FB6F894A895809160001E
:1008E000886180936000109260000FBE15E0A0E068
:1008F000B1E0E2EFF4E702C005900D92AC32B1072F
:10090000D9F727E0ACE2B5E001C01D92A33FB207E2
:10091000E1F70E94B82D0C94773A0C9400008F9365
:100920008FB78F93F8948091ED078F5F8093ED07D9
:100930008091EE078F4F8093EE078091EF078F4FE6
:100940008093EF078091F0078F4F8093F0078F918E
:100950008FBF8F910895FC010FB6F8946091ED0759
:100960007091EE078091EF079091F0070FBE3097DE
:1009700021F060837183828393830895CF93809164
:10098000FA0581113DC0809100061816ACF58091E2
:10099000FF058F708330C1F18091FA0581112CC061
:1009A00081E00E94FE18C82F882331F18091000653
:1009B00081508093000685E0EBEFF5E0A1E4B6E01E
:1009C00001900D928A95E1F761E081E496E00E9442
:1009D000691E8091980781111CC08CE090E0909373
:1009E00002068093010681E08093FA0580E00E9470
:1009F000FE188C2FCF910895C1E08C2FCF910895D0
:100A0000C0E08C2FCF9108958BEF95E00E94C20536
:100A1000C3CF80E391E00E94892961E081E496E000
:100A20000E941B20DACF0F931F93CF93DF938C018B
:100A3000D62F8091FA05811136C00115110531F0CC
:100A400080910006181614F41092000681E00E94AE
:100A5000FE18C82F882339F1D130E9F185E0F8017B
:100A6000A1E4B6E001900D928A95E1F76D2F81E443
:100A700096E00E94691E8091980781111BC0D230B8
:100A800039F180E591E0909302068093010681E0C0
:100A90008093FA0580E00E94FE188C2FDF91CF91A1
:100AA0001F910F910895C0E08C2FDF91CF911F917E
:100AB0000F91089580E391E00E9489298091980721
:100AC000823040F16D2F81E496E00E941B20D7CF49
:100AD0008EE190E0D8CF0115110511F186E0F80103
:100AE000ABEFB5E001900D928A95E1F785E0F80152
:100AF000A1E4B6E001900D928A95E1F761E081E40E
:100B000096E00E94691E80919807811111C08CE0C7
:100B100090E0B9CF61E081E496E00E941B20AFCF66
:100B2000809100068150809300060BEF15E0DECF28
:100B300080E391E00E94892961E081E496E00E94CF
:100B40001B20E5CFFC01CB01AA27BB278083518363
:100B5000428322E1238314822FEF25839927AA273A
:100B6000BB2780329105A105B10549F08039910577
:100B7000A105B10519F487E183830895089581E102
:100B800083830895FC013381932F92959F709F5F1B
:100B90009F7041F0292F2295207F932F9F70922BD9
:100BA0009383089520E1932F9F70922B9383089550
:100BB0002F923F924F925F926F927F928F929F926D
:100BC000AF92BF92CF92DF92EF92FF920F931F935B
:100BD000CF93DF93CDB7DEB76E970FB6F894DEBF35
:100BE0000FBECDBF8C01072E000C880B990B0E9405
:100BF000B53420E030E040E752E40E940B34698FC6
:100C00007A8F8B8F9C8F9801285F3F4F38872F8377
:100C1000C8018C589F4F9E8F8D8F8AEE96E6ABED64
:100C2000BDEB8D8B9E8BAF8BB88F85E89BEBACE0DB
:100C3000BEEB898B9A8BAB8BBC8B80ED9BEEAAE6CF
:100C4000BFE38D879E87AF87B88B86E693E7ABECD3
:100C5000BEEB89879A87AB87BC87312C212C90E823
:100C60009D83AFEBAE83812C80E8982E81EBA82E7C
:100C700083E4B82E8901085011092BED3FE049E4C7
:100C800050E4609188077091890780918A0790915C
:100C90008B070E94003620E030E044E353E40E94DA
:100CA0000B346B017C010E946D362B013C01C701A6
:100CB000B6010E9406346B017C0129853A854B857B
:100CC0005C85C301B2010E9400369B01AC0165E066
:100CD00073E186ED9DEB0E9499332B013C012D853C
:100CE0003E854F855889C701B6010E9400369B0199
:100CF000AC01C301B2010E940B340E94883320E092
:100D000030E040E451E40E9400362BED3FE049E43E
:100D100050E40E940B3420E030E040E451E40E94B3
:100D20009A336B017C0120EA3AE14FE25EEB69897C
:100D30007A898B899C890E9400362B013C0121E82D
:100D400034E045E05EE36D897E898F89988D0E944D
:100D500000369B01AC01C301B2010E9499339B0193
:100D6000AC01C701B6010E9499336B017C0120E000
:100D700030E040E751E460918407709185078091ED
:100D80008607909187070E940B349B01AC01C70135
:100D9000B6010E9499336B017C0120918C07309140
:100DA0008D0740918E0750918F07698D7A8D8B8DBD
:100DB0009C8D0E949A339B01AC01C701B6010E9431
:100DC0009A336B017C019B01AC01632D722D8D81E7
:100DD0009E810E94C735181624F03C2C2D2CED82E4
:100DE000FE82AE014F5F5F4F632D722D8D819E811C
:100DF0000E94CC356B017C010F3FBFEF1B0759F000
:100E000069817A818B819C810E948434862F0E9423
:100E1000B222F80181830115110589F020E030E04C
:100E200040E752E4C701B6010E9400360E948434B4
:100E300081E0860F8E7F0E94B222D8018C9320E041
:100E400030E843E750E4C501B4010E9499334B01F7
:100E50005C010E5F1F4FEF81F885E017F10709F481
:100E60004FC028E03CE240EA52E4C501B4010E94D0
:100E7000993324E73EE74AE85CE30E9400360E948B
:100E80006D362CEF39EA41ED5EE30E9400366B01CE
:100E90007C010E946D3669877A878B879C87C701A2
:100EA000B6010E9406346D877E878F87988B23E07A
:100EB00039E04AE05DE3C501B4010E9400362BE74A
:100EC00034E14EEE5EE30E949A330E946D36698BE8
:100ED0007A8B8B8B9C8B2BE134E642E95CE3C5017A
:100EE000B4010E94003621E338E04CE25EE30E9448
:100EF00099330E946D366D8B7E8B8F8B988FBDCE14
:100F00003996F887EF832D8D3E8DE217F30709F4AC
:100F10004FC028E03CE240EA52E40E94993324E7C3
:100F20003EE74AE85CE30E9400360E946D362CEFF3
:100F300039EA41ED5EE30E9400366B017C010E94BC
:100F40006D3669877A878B879C87C701B6010E94B7
:100F500006346D877E878F87988B23E039E04AE0DF
:100F60005DE3C501B4010E9400362BE734E14EEE8B
:100F70005EE30E949A330E946D36698B7A8B8B8B6D
:100F80009C8B2BE134E642E95CE3C501B4010E948D
:100F9000003621E338E04CE25EE30E9499330E9480
:100FA0006D366D8B7E8B8F8B988F0F81188563CEFE
:100FB0006E960FB6F894DEBF0FBECDBFDF91CF9116
:100FC0001F910F91FF90EF90DF90CF90BF90AF9067
:100FD0009F908F907F906F905F904F903F902F9059
:100FE0000895CF92DF92EF92FF920F931F93CF93CA
:100FF000DF936C017B016130710509F4D4C00CF4FE
:1010000099C001E010E054C0BE01809100019091B0
:1010100001010E945339892B09F4A5C0BE018091BA
:101020000601909107010E945339892B09F4AFC042
:10103000BE0180910C0190910D010E945339892BC2
:1010400009F4A8C0BE0180911201909113010E9481
:101050005339892B09F4A1C0BE01809118019091E8
:1010600019010E945339892B09F49AC08DE891E047
:101070000E9489298091070690910806892B09F022
:1010800068C08AE30E946A298EE791E00E9489295C
:101090008CE794E00E948929CE010E9489298AE088
:1010A0000E946A290F5F1F4F0E151F050CF042C0EA
:1010B000F801EE0FFF1FEE0FFF1FEC0DFD1DC081AD
:1010C000D1816FE671E0CE010E945339892B09F07E
:1010D0009BCF8EEA90E00E94AC29C0E0D1E08E0167
:1010E000F801808191810E9489298CE691E00E941B
:1010F00089290A5F1F4FF1E00E311F0789F70E940F
:101100007E29888199810E94892983E791E00E9444
:1011100089298C819D810E94AC290E947E29269676
:1011200081E0CE31D80769F706E010E00E151F0503
:101130000CF4BECF83E391E00E94892980E090E027
:10114000DF91CF911F910F91FF90EF90DF90CF90A3
:10115000089580E40E946A2980910706909108060C
:101160000E94B82C8ECF80E090E0FC01EE0FFF1FB4
:10117000E80FF91FEE0FFF1FE050FF4F84819581AC
:101180000E94AC290E947E290F5F1F4F8DCF81E006
:1011900090E0EBCF82E090E0E8CF83E090E0E5CF15
:1011A00084E090E0E2CF8FED90E00E94AC29C0E0B7
:1011B000D1E00EE111E0888199810E9489298CE6B5
:1011C00091E00E94892926960C171D07A1F70E941D
:1011D0007E29B4CF6F927F928F929F92AF92BF92EF
:1011E000CF92DF92EF92FF920F931F93CF93DF93F3
:1011F000CDB7DEB764970FB6F894DEBF0FBECDBF94
:10120000623071050CF47DC0FC01E480F580C6807D
:10121000D780E114F10409F4D9C0C114D10409F450
:10122000D5C04B018C0195E9692E91E0792EAA2455
:10123000A394B12C26C060EA71E0C6010E94533924
:10124000892B09F461C063EE73E0C6010E94533933
:10125000892B09F484C0FFEFAF1ABF0A8A149B04DC
:1012600009F446C0F801E084F184C284D384E11417
:10127000F10409F4ABC00C5F1F4FC114D10409F491
:10128000A5C06AE971E0C7010E945339892B99F220
:101290006BEC71E0C7010E945339892B09F042C001
:1012A000F60180818F3309F46DC08BEB91E00E94D1
:1012B00089298091070690910806892B09F07CC046
:1012C0008AE30E946A2981EC91E00E9489298CE7D7
:1012D00094E00E94892983ED91E00E9489290E946F
:1012E0007E29FFEFAF1ABF0A8A149B0409F0BACF18
:1012F00063E874E0C3010E9453398C01892B09F41F
:1013000087C000E010E064C0CE0101960E94512623
:10131000882309F4A0CFCE0101960E9489290E945A
:101320007E2999CF8DE891E00E9489298091070656
:1013300090910806892B09F061C08AE30E946A290E
:101340008EE791E00E9489298CE794E00E94892928
:10135000C7010E9489298AE00E946A297CCF84EA19
:1013600091E00E94892960917C0770917D078091AE
:101370007E0790917F0740E150E00E94802C0E9400
:101380007E2969CFC3010E948929C7010E9489294A
:101390008BE694E00E94892960910306709104060F
:1013A000809105069091060640E00E94042B83E898
:1013B000682E84E0782E4FCF80E40E946A298091C5
:1013C0000706909108060E94B82C7ACF0FEF1FEF06
:1013D000C80164960FB6F894DEBF0FBECDBFDF9193
:1013E000CF911F910F91FF90EF90DF90CF90BF9022
:1013F000AF909F908F907F906F90089580E40E94AF
:101400006A2980910706909108060E94B82C95CF12
:1014100087EE91E00E948929DBCF2F923F924F9275
:101420005F926F927F928F929F92AF92BF92CF9274
:10143000DF92EF92FF920F931F93CF93DF9300D031
:1014400000D01F92CDB7DEB75B01623071050CF49E
:1014500047C2FC0104811581C680D78001151105A2
:1014600009F4C7C09D838C83312C1B82212C1A82E6
:10147000F2E0F98388248A94982C412C512C320173
:10148000EE24E394F12C20C0C114D10409F487C0E8
:1014900040E150E060E070E0C6010E9408372B0197
:1014A0003C012FEFE21AF20AAE14BF0471F1EC8195
:1014B000FD81008511853496FD83EC83C680D7803D
:1014C0000115110509F495C06AEE71E0C8010E948A
:1014D0005339892BC9F260EE73E0C8010E94533979
:1014E000892B09F045C0C114D10409F46DC0C601AF
:1014F0000E9413398830910508F066C0382E2FEF0E
:10150000E21AF20AAE14BF0491F63A813111B1C168
:10151000411451046104710409F407C120912F059D
:10152000822F90E0A0E0B0E0DC019927882730917D
:101530003105832B4091300550E0542F442760E063
:1015400070E0842B952BA62BB72B481659066A06FC
:101550007B0609F4A2C1B301A2018FE295E00E94CB
:10156000A20520912F05EFE2F5E0FD83EC83E3C0B7
:101570006FE873E0C8010E945339892BA1F4C114AC
:10158000D10411F1C6010E94133988309105E0F4AD
:10159000009709F493C0A7E02A2E280E82CF412C91
:1015A000512C32017ECF6AEE73E0C8010E9453399C
:1015B000892BC9F5C114D10439F0C6010E94133931
:1015C00089838B3008F46DCF8BEB91E00E948929E1
:1015D0008091070690910806892B09F063C18CE77A
:1015E00094E00E9489298CEE91E00E9489290E9452
:1015F0007E298FEF9FEF0F900F900F900F900F901D
:10160000DF91CF911F910F91FF90EF90DF90CF90DE
:10161000BF90AF909F908F907F906F905F904F9012
:101620003F902F90089562EA71E0C8010E945339FB
:10163000892B09F045C0C114D10431F2F601808133
:101640008F3309F44FC06BEF71E0C6010E9453392C
:10165000892B09F454C164E072E0C6010E94533939
:10166000892B09F44FC162EF71E0C6010E94533922
:10167000892B09F44AC167EF71E0C6010E94533912
:10168000892B09F445C160E072E0C6010E9453391C
:10169000892B09F440C167E072E0C6010E9453390A
:1016A000892B09F43BC160E172E0C6010E94533905
:1016B000892B09F089CF8DE08B83F3CE212CF1CEDD
:1016C00064E172E0C8010E945339892B89F4C11486
:1016D000D10421F0F6018081813339F48824839488
:1016E000912CDFCEF1E0FA83DCCE812C912CD9CE87
:1016F0008DE891E00E948929809107069091080663
:10170000892B09F0D9C08AE30E946A298EE791E00B
:101710000E9489298CE794E00E948929C8010E94CF
:1017200089298AE00E946A29BCCE2091090689E0B5
:1017300096E09D838C83207F2038D1F0FFEF8F16B9
:101740009F0659F1EC81FD818481982F907F8B81D8
:101750008F70892B8483892831F0CF010E94E32385
:1017600080E090E048CF0E94B82380E090E043CF33
:10177000EC81FD8124812F70F0E13F9EC001112496
:10178000322E382AEC81FD8134828381982F907F1C
:10179000822D8F70892B8383D1CFFB81FF2309F4A6
:1017A00051C0EC81FD818481982F907F8B818F7057
:1017B000892B8483CF010E94C2052981EC81FD81A0
:1017C000258361E0CF010E9413058823D9F18BEBBB
:1017D00091E00E9489298091070690910806892B43
:1017E00009F09FC08CE794E00E94892984E793E088
:1017F0000E9489290E947E29EC81FD814481042F69
:101800000F7023812F7042954F706081862F90E07A
:10181000A0E0B0E0DC019927882732816C017D01CE
:10182000C32A818190E0982F8827A0E0B0E0BC0116
:10183000CD016C297D298E299F290E945C2780E09B
:1018400090E0D9CE8BEB91E00E9489298091070628
:1018500090910806892BD1F58CE794E00E948929A4
:101860008CEE91E00E9489290E947E2980E090E020
:10187000C2CE88E192E00E948929222D432DC30126
:10188000B2010E943A2760E00E94572B89EB92E058
:101890000E94892980E090E0AECE8FE295E09D83A2
:1018A0008C8349CF80E40E946A2980910706909139
:1018B00008060E94B82C93CE80E40E946A29809189
:1018C0000706909108060E94B82C1DCF80E40E9464
:1018D0006A2980910706909108060E94B82CBCCF17
:1018E0002091090632E03983212C1B82312C882477
:1018F0008A94982C89E096E09D838C831CCF85E0A8
:101900008B83CFCD84E08B83CCCD83E08B83C9CD1B
:1019100086E08B83C6CD87E08B83C3CD88E08B8345
:10192000C0CD80E40E946A29809107069091080644
:101930000E94B82C57CFCF93DF93EC018DE891E054
:101940000E9489298091070690910806892B99F4B5
:101950008AE30E946A298EE791E00E9489298CE738
:1019600094E00E948929CE010E9489298AE0DF91B2
:10197000CF910C946A2980E40E946A29809107061D
:10198000909108060E94B82CE3CF2F923F924F927D
:101990005F926F927F928F929F92AF92BF92CF92FF
:1019A000DF92EF92FF920F931F93CF93DF93CDB708
:1019B000DEB7A2970FB6F894DEBF0FBECDBF4B01C6
:1019C0002224239420919D072111212C02E08016CE
:1019D00091040CF429C2FC0104811581C680D780D2
:1019E0000115110509F43AC1C114D10409F436C135
:1019F0007C0188E2682E82E0782E1AA219A2AA241D
:101A0000A394B12C25C0B6018DE997E00E9453390B
:101A1000892B09F01FC185E392E00E9489293FEFDD
:101A2000A31AB30A8A149B0409F453C0F701008572
:101A30001185C284D3840115110509F40FC1F4E0A6
:101A4000EF0EF11C22242394C114D10409F406C121
:101A50006DED72E0C8010E945339892BA1F222205A
:101A600009F419C262E772E0C8010E945339892B58
:101A700009F4ACC060EA71E0C8010E945339892BB7
:101A800009F04CC0F60180818F3309F452C1C601C0
:101A90000E948126882309F4C7C08BEB91E00E9445
:101AA00089298091070690910806892B09F021C1A8
:101AB0008CE794E00E94892984E793E00E948929B9
:101AC0000E947E293FEFA31AB30A8A149B0409F0EF
:101AD000ADCF63E874E0C3010E945339892B09F448
:101AE000BBC129A03AA0232809F49EC18BEB91E049
:101AF0000E9489298091070690910806892B09F098
:101B00008AC28CE794E00E9489298CEE91E00E94C1
:101B100089290E947E2980E090E0B7C063EE73E0DF
:101B2000C8010E945339892B09F053C0F601808106
:101B30008F3309F496C165E973E0C6010E945339F9
:101B4000892B09F41AC16BEB72E0C6010E9453396C
:101B5000892B09F041C160913A06862F90E0A0E000
:101B6000B0E0DC019927882720913C06AC01BD013B
:101B7000422B80913B0690E0982F8827A0E0B0E0B0
:101B80001A012B01282A392A4A2A5B2AC201B101EB
:101B9000820122273327003811052105310509F07C
:101BA0005DC00093090670930A0660930B0660936C
:101BB0007C0770937D0780937E0790937F0764E096
:101BC00070E080E090E00E949F2D29CF0E94CA2DF6
:101BD00026CF64EC72E0C8010E945339892B09F4C6
:101BE00092C06CEC72E0C8010E945339892B09F451
:101BF00065C061ED72E0C8010E945339892B09F478
:101C000002C169ED72E0C8010E945339892B09F0C5
:101C100061C1F60101900020E9F73197EC19FD0947
:101C2000E031F10508F4CBC18BEB91E00E948929EA
:101C30008091070690910806892B09F094C08CE7E3
:101C400094E00E9489298CEE91E00E9489290E94EB
:101C50007E29E5CE82E492E00E9489298BEB91E017
:101C60000E9489298091070690910806892B09F026
:101C7000A9C08CE794E00E9489298CEE91E00E9433
:101C800089290E947E298FEF9FEFA2960FB6F894C4
:101C9000DEBF0FBECDBFDF91CF911F910F91FF909F
:101CA000EF90DF90CF90BF90AF909F908F907F90FC
:101CB0006F905F904F903F902F900895F601808134
:101CC0008F3309F4EDC04AE050E060E070E0C601F7
:101CD0000E941E386093800770938107809382076B
:101CE0009093830760E170E080E090E00E949F2D78
:101CF00096CE80E40E946A2980910706909108069A
:101D00000E94B82CD5CE40E150E060E070E0C60102
:101D10000E941E386093990770939A0780939B07DF
:101D200090939C0768E070E080E090E00E949F2D17
:101D300076CECE0101960E945126882309F46FCEFB
:101D4000C3010E948929C8010E9489298BE694E079
:101D50000E948929CE0101960E948929B3E86B2E41
:101D6000B4E07B2E5CCE80E40E946A298091070655
:101D7000909108060E94B82C62CF80910306909142
:101D80000406A0910506B0910606CC96A11DB11DD2
:101D900080933D0590933E05A0933F05B093400589
:101DA00010923A06809107069091080690933C05A0
:101DB00080933B05F1E0F09339068AE792E00E94B8
:101DC00089296BCE80E40E946A2980910706909150
:101DD00008060E94B82C4DCF40E150E060E070E072
:101DE000C6010E941E388C0122273327003809F0D3
:101DF00035CF292E3324442455242328242825286C
:101E000009F4CFCE2BCFF60180818F3309F41DC1A9
:101E1000C6010E9413398093980760E470E080E067
:101E200090E00E949F2DFBCD8BEB91E00E948929D1
:101E30008091070690910806892B09F0E2C08CE793
:101E400094E00E94892984E793E00E9489290E94F6
:101E50007E2980E090E019CF87EE91E00E948929E9
:101E600040CEC3010E948929C8010E9489298BE6BE
:101E700094E00E94892960917C0770917D07809190
:101E80007E0790917F0740E00E94352AA3E86A2EE2
:101E9000A4E07A2EC4CD89E592E00E948929DECEA5
:101EA000C3010E948929C8010E9489298BE694E018
:101EB0000E94892960918007709181078091820733
:101EC0009091830740E00E94042B83E8682E84E011
:101ED000782EA5CD60EE72E0C8010E945339892B9F
:101EE00009F4A3C06DEE72E0C8010E945339892B3A
:101EF00009F474C069EF72E0C8010E945339892B5C
:101F000009F0B7C0F60180818F3309F4E6C18D3244
:101F100009F4FEC1082F60E070E0CB01212C312CC8
:101F2000A0E84A2EAFE35A2E2D8E3E8E4F8E58A239
:101F3000002309F40BC11FEFC11AD10A212C312C47
:101F400021011A8E198E34C010E0005311090A3095
:101F5000110540F5298D3A8D232B71F020E030E0FA
:101F600040E251E46D8D7E8D8F8D98A10E940B34DF
:101F70006D8F7E8F8F8F98A320E030E040E251E498
:101F8000C201B1010E9400361B012C01B801110FE2
:101F9000880B990B0E94B534A20191010E949A33DB
:101FA0001B012C01F60101916F01002309F4C6C049
:101FB0000E3251F601E010E01A8F098FF3CFAF0116
:101FC0004F5F5F4FB6018DE997E00E943F3960E0B7
:101FD00072E080E090E00E949F2D21CD61ED74E0E1
:101FE000C6010E945339892B09F04BC12224239446
:101FF0002092960762E070E080E090E00E949F2DC2
:102000004CCD80E40E946A298091070690910806D1
:102010000E94B82C14CF80E40E946A2980910706A0
:10202000909108060E94B82C6CCD61ED74E0C60159
:102030000E945339892B09F09AC0F1E0F09395077B
:1020400061E070E080E090E0D9CFC3010E9489296F
:10205000C8010E9489298BE694E00E948929809119
:10206000980790E00E94B82C03E8602E04E0702EE0
:10207000D6CC63E073E0C8010E945339892B09F084
:1020800081C0F60180818F3309F457C18D3209F484
:1020900088C1082F60E070E0CB01212C312C50E882
:1020A000452E5FE3552E298E3A8E4B8E5C8E002393
:1020B00009F4D6C01FEFC11AD10A212C312C2101FD
:1020C0001E8E1D8E34C010E0005311090A30110518
:1020D00040F52D8D3E8D232B71F020E030E040E265
:1020E00051E4698D7A8D8B8D9C8D0E940B34698FA4
:1020F0007A8F8B8F9C8F20E030E040E251E4C20168
:10210000B1010E9400361B012C01B801110F880B90
:10211000990B0E94B534A20191010E949A331B01D0
:102120002C01F60101916F01002309F491C00E32D8
:1021300051F601E010E01E8F0D8FF3CF2D8D3E8DF7
:102140004F8D58A1C201B1010E94003660938407EF
:102150007093850780938607909387070E941027C6
:1021600060E074E080E090E00E949F2D58CC69EE22
:1021700072E0C6010E945339892B09F055CD1092A7
:1021800095075ECF6CE073E0C8010E945339892B3C
:1021900009F082C0F60180818F3309F43CC18D3291
:1021A00009F41EC1082F60E070E0CB01212C312C16
:1021B00020E8422E2FE3522E002309F4E1C03FEF26
:1021C000C31AD30A198E1A8E1B8E1C8E1E8E1D8E5C
:1021D00038C010E0005311090A30110560F54D8D2B
:1021E0005E8D452B51F020E030E040E251E4C20129
:1021F000B1010E940B341B012C0120E030E040E2D1
:1022000051E4698D7A8D8B8D9C8D0E940036698F8B
:102210007A8F8B8F9C8FB801110F880B990B0E94BE
:10222000B534298D3A8D4B8D5C8D0E949A33698F20
:102230007A8F8B8F9C8FF60101916F01002309F437
:1022400097C00E3231F601E010E01E8F0D8FF3CFF4
:10225000298D3A8D4B8D5C8DC201B1010E940036F3
:10226000609388077093890780938A0790938B0700
:102270000E94102760E078E080E090E00E949F2DAF
:10228000CECB69EE72E0C6010E945339892B09F06A
:10229000CBCC10929607AECE66E173E0C8010E94E7
:1022A0005339892B09F0ADC0F60180818F3309F4D1
:1022B000D9C062E372E0C6010E945339892B09F04C
:1022C00085C0F1E0F09390070E94102760E070E471
:1022D00080E090E00E949F2DA2CBC3010E9489293B
:1022E000C8010E9489298BE694E00E9489296091A7
:1022F000840770918507809186079091870745E054
:1023000050E00E94AB2B13E8612E14E0712E87CBB6
:10231000F601018196012F5F3F4F690160E070E097
:1023200080E090E8212C312CB0E84B2EBFEB5B2EE7
:102330002D8E3E8E4F8E58A2FBCDC3010E9489295F
:10234000C8010E9489298BE694E00E948929609146
:1023500088077091890780918A0790918B0745E0E3
:1023600050E00E94AB2BF3E86F2EF4E07F2E57CBAA
:10237000A2019101698D7A8D8B8D9C8D0E94003612
:1023800060938C0770938D0780938E0790938F07CF
:102390000E94102760E070E280E090E00E949F2D94
:1023A0003ECBF601018196012F5F3F4F690160E04E
:1023B00070E080E090E8212C312CE0E84E2EEFEB2D
:1023C0005E2E298E3A8E4B8E5C8E71CE6BE075E060
:1023D000C6010E945339892BC9F51092900774CF1A
:1023E000F601018196012F5F3F4F690160E070E0C7
:1023F00080E090E8212C312C30E8432E3FEB532E27
:10240000DBCE29A13AA12F5F3F4F3AA329A3C801F0
:102410000E949B0C04CBC3010E948929C8010E9421
:1024200089298BE694E00E94892960918C0770913C
:102430008D0780918E0790918F0742E050E00E94B7
:10244000AB2B43E8642E44E0742EE9CA60E372E0EB
:10245000C6010E945339892BF1F483E0282E209283
:10246000900732CFC3010E948929C8010E9489299F
:102470008BE694E00E94892980919007813091F049
:1024800081110DC08BE095E00E94892993E8692EA7
:1024900094E0792EC4CAC8010E949B0C15CF80E33A
:1024A00092E0F2CF82E392E0EFCF0E9474298F3F57
:1024B0002FEF9207D9F08D309105D9F08A30910530
:1024C000C1F08830910509F441C082329105B1F024
:1024D00020914105222301F1CB9739F71092410554
:1024E0000E9474298F3F2FEF920729F780E090E038
:1024F00008951092C5051092C405D7CF2091C40548
:102500003091C5052F5F3F4F3093C5052093C4051B
:10251000209141052111C9CF2091C2053091C305F9
:102520002F37310584F54091C40540FD03C08B333E
:102530009105B9F1A9014F5F5F4F5093C3054093D7
:10254000C205F901EE5BFA4F8083AFCF8091C205DF
:102550009091C305009709F4A8CF01979093C30504
:102560008093C205FC01EE5BFA4F8081823209F054
:102570009CCF8091C4059091C50501979093C505A6
:102580008093C40592CF81E08093410580E090E084
:102590001092C3051092C2051092C5051092C40591
:1025A00008952115310539F0F901EE5BFA4F1082DB
:1025B00082E495E0EDCF80E090E0EACFEF92FF92E9
:1025C0000F931F93CF93DF93EC01109208061092A4
:1025D000070600E010E08881803241F4DE01FE0150
:1025E0003196EF011D9281918032D9F3882309F44D
:1025F00087C07801EE0CFF1CEE0CFF1CF701E15FB9
:10260000F94FD183C0838881982F9F7D61F08D33EE
:10261000E9F0FE01319602C08D33C1F0EF018191E6
:10262000982F9F7DC9F7F701E15FF94F138212825E
:102630000F5F1F4F0A30110571F68FEF9FEFDF918B
:10264000CF911F910F91FF90EF900895188289818B
:102650008B3399F3803289F38232B9F1882369F39D
:10266000FE013196D701A15FB94F1396FC93EE930B
:1026700012978981882371F08032F1F18D33E1F175
:10268000229604C08032C1F18D33B1F1FE018991EF
:102690008111F8CFEF01C701815F994F7C0163E29F
:1026A00073E0FC01808191810E945339892B09F0EC
:1026B000BFCFF701828193810E941339909308065E
:1026C0008093070601501109B3CFCE0102962A81EB
:1026D000222309F4B2CFF701E15FF94F938382839C
:1026E00062E270E00E944839EC01892B09F4A5CF21
:1026F0008881882381F2FE01EF0121961082CBCFE1
:10270000C801DF91CF911F910F91FF90EF90089535
:102710008BEB91E00E948929809107069091080631
:10272000892B69F48CE794E00E9489298CEE91E072
:102730000E9489290E947E298FEF9FEF089580E4EF
:102740000E946A2980910706909108060E94B82C81
:10275000E9CF0F931F93CF93DF93009731F58091CB
:102760003D0590913E05A0913F05B0914005009731
:10277000A105B105A1F040910306509104066091B6
:1027800005067091060684179507A607B70708F493
:1027900085C080913A06982F907F903879F180E03B
:1027A000DF91CF911F910F910895409103065091B1
:1027B000040660910506709106068A019B01080FC8
:1027C000191F211D311D00933D0510933E052093D7
:1027D0003F053093400510923A068091070690918C
:1027E000080690933C0580933B0581E08093390671
:1027F00080E0DF91CF911F910F91089590E0A0E0CC
:10280000B0E0DC019927882720913C06822B40917B
:102810003B0650E0542F442760E070E0842B952B5A
:10282000A62BB72BA093090690930A0680930B065C
:1028300080937C0790937D07A0937E07B0937F07DA
:1028400010923D0510923E0510923F0510924005F2
:102850008AE493E00E9489298BEB91E00E94892908
:102860008091070690910806892B09F04EC08AE3F3
:102870000E946A298FE693E00E9489298CE794E000
:102880000E9489290E947E2964E070E080E090E047
:102890000E949F2D1092390681E082CFC0910706D9
:1028A000D091080610923D0510923E0510923F050A
:1028B0001092400587E293E00E94892980913B05B0
:1028C00090913C0590930806809307068BEB91E06E
:1028D0000E9489298091070690910806892BF9F4B6
:1028E0008AE30E946A298CE393E00E9489298CE79D
:1028F00094E00E9489290E947E29D0930806C09303
:1029000007061092390680E04BCF80E40E946A29C6
:1029100080910706909108060E94B82CA8CF80E409
:102920000E946A2980910706909108060E94B82C9F
:10293000D7CF4F925F926F927F928F929F92AF927A
:10294000BF92CF92DF92EF92FF920F931F93CF939C
:10295000DF9300D01F92CDB7DEB77C015B014A0147
:102960001B82452B09F4A9C0FC01808120E030E0E6
:10297000882309F45BC000E010E055245A949FE0DE
:10298000492E1EC0F501E20FF31F50826801FFEFD0
:10299000CF1ADF0AC814D90408F04CC0F501EC0DB9
:1029A000FD1D40828FEFE81AF80A86010F5F1F4F66
:1029B000980108151905D0F5F70180818823B1F138
:1029C0008B3209F44CC08D32E9F28983F7018181A1
:1029D0008A836801FFEFCF1ADF0AC814D90450F5C3
:1029E000CE0101960E9413390E94A322F501EC0D3D
:1029F000FD1D8083F701828189833701F4E06F0E2A
:102A0000711CF70183818A830A0D1B1DCE0101967B
:102A10000E9413390E94A322F8018083730186016A
:102A20000F5F1F4F98010815190530F281E08216DB
:102A3000930609F080E00F900F900F90DF91CF91F7
:102A40001F910F91FF90EF90DF90CF90BF90AF90CC
:102A50009F908F907F906F905F904F90089504307B
:102A6000110544F3C80104968816990618F3D50198
:102A7000A20FB31FFD01349780818C93F80131962A
:102A8000EA0DFB1DDF0114978C918083F8013296CB
:102A9000EA0DFB1DDF0114978C9180836801E3E050
:102AA000CE0ED11CF501EC0DFD1DDF0114978C91AC
:102AB0008083FFEFEF1AFF0A78CF20E030E0B6CF37
:102AC0002F923F924F925F926F927F928F929F923E
:102AD000AF92BF92CF92DF92EF92FF920F931F932C
:102AE000CF93DF93CDB7DEB7A8970FB6F894DEBFCC
:102AF0000FBECDBFFC014B012FEF29839FE09A83CE
:102B00002B839C832D839E832F83988729879A8785
:102B10002B879C872D879E872F87988B298B9A8B55
:102B20002B8B9C8B2D8B9E8B2F8B988F298F9A8F25
:102B30002B8F9C8F2D8F9E8F2F8F98A362307105C6
:102B40000CF44DC2E480F580A680B780E114F10456
:102B500009F4ECC08F01312C18A6FEEFFFA319A2D7
:102B6000212C1BA21CA21DA21EA2612C712C1AA238
:102B7000512C412CCC24C394D12C21C0A114B104DC
:102B800009F4B7C04CE150E0BE016F5F7F4FC50153
:102B90000E949914582E4FEFC41AD40A8C149D0425
:102BA00081F1D8011896ED90FC9019970C5F1F4F9A
:102BB000F801A680B780E114F10409F4B7C067E713
:102BC00073E0C7010E945339892BC1F26EE773E0AD
:102BD000C7010E945339892B09F046C0A114B104E2
:102BE00009F487C044E050E0BE01635E7F4FC50139
:102BF0000E949914482E4FEFC41AD40A8C149D04D5
:102C000081F66BA17CA18DA19EA1672B682B692BFE
:102C100009F4EDC020913505822F90E0A0E0B0E0EE
:102C2000DC019927882730913705832B40913605A1
:102C300050E0542F442760E070E0842B952BA62BA6
:102C4000B72B4BA15CA16DA17EA1481759076A075C
:102C50007B0709F44CC185E395E00E94A205209111
:102C6000350505E315E0C7C064E873E0C7010E94BD
:102C70005339892B59F4A114B10409F4ACC0C5012E
:102C80000E9413393C0121E02AA385CF6AE873E052
:102C9000C7010E945339892B91F4A114B10441F06A
:102CA000D5018C91803309F48FC0813309F073CF43
:102CB00079A1716079A3822D8160282E6CCF61E9A2
:102CC00073E0C7010E945339892B09F04AC0A1144F
:102CD000B10441F0F5018081803309F481C0813372
:102CE00009F059CF99A1906899A3A22DA0682A2E26
:102CF00052CF8BEB91E00E94892980910706909139
:102D00000806892B49F080E40E946A298091070611
:102D1000909108060E94B82C8CE794E00E948929C3
:102D20008CEE91E00E9489290E947E298FEF9FEF0F
:102D3000A8960FB6F894DEBF0FBECDBFDF91CF913E
:102D40001F910F91FF90EF90DF90CF90BF90AF90C9
:102D50009F908F907F906F905F904F903F902F90BB
:102D600008956AE973E0C7010E945339892B79F409
:102D7000A114B10409F41AC1D5018C91803309F46E
:102D80005FC0813309F0B6C0F1E0FFA304CF6AEE63
:102D900071E0C7010E945339892B09F441C060EEEC
:102DA00073E0C7010E945339892B09F0BCC0A114FC
:102DB000B10409F445C1C5010E9413398830910559
:102DC00008F03EC1382EE7CE39A1316039A3422D3B
:102DD0004E7F242EE0CE612C712C31E03AA3DBCE65
:102DE00059A1506859A3622D6F77262ED4CE209119
:102DF000090609E016E0207F203809F463C0D801F5
:102E000014968C918F60F8018483C8010E94C205DA
:102E100081E00E94FE18811115C080E090E088CF0B
:102E2000A114B10409F4BDC040E150E060E070E0DD
:102E3000C5010E9408376BA37CA38DA39EA3ABCED4
:102E40001FA2A9CE81E496E00E945A20FFA1F13092
:102E500009F4D5C05110BBC04110B1C02AA1211145
:102E6000A8C060E081E496E00E94752149A1622D2E
:102E700081E496E00E94E121B80181E496E00E949D
:102E8000842263E0C8010E9413058823B1F18BEB13
:102E900091E00E9489298091070690910806892B6C
:102EA00009F0C4C08CE794E00E94892984E793E08C
:102EB0000E9489290E947E2980E00E94FE1880E0FD
:102EC00090E036CFF8018481282F2F70F0E13F9EEB
:102ED000C0011124822BD80113969C911397292F9E
:102EE000207F98A59F70922B13969C938BCF05E320
:102EF00015E081CFBFEFBFA34ECE8BEB91E00E94D8
:102F000089298091070690910806892B09F084C0D1
:102F10008CE794E00E9489298CEE91E00E94892937
:102F20000E947E29C9CF6FE873E0C7010E94533920
:102F3000892B91F4A114B10409F482C0C5010E9447
:102F400013398830910508F07BC0009709F47BC0E5
:102F500027E0280F28A71FCE63EA73E0C7010E946D
:102F60005339892B09F47BC08DE891E00E948929AF
:102F70008091070690910806892B09F066C08AE3C4
:102F80000E946A298EE791E00E9489298CE794E0EB
:102F90000E948929C7010E9489298AE00E946A2922
:102FA000FACD1BA21CA21DA21EA2F5CDE1E0EFA34B
:102FB000F2CDB30181E496E00E94812252CFBE019E
:102FC000635E7F4F81E496E00E94742247CFBE018A
:102FD0006F5F7F4F81E496E00E9443223DCF2091B6
:102FE0000906312C512C612C712C212C19A23EEF99
:102FF0003FA31AA2412C18A609E016E0FCCE61E01E
:1030000081E496E00E94752149A1622D81E496E059
:103010000E94E12162E036CF80E40E946A2980911B
:103020000706909108060E94B82C72CF80E40E9497
:103030006A2980910706909108060E94B82C32CF29
:103040000E94881375CE18A6A6CD80E40E946A2936
:1030500080910706909108060E94B82C90CF0E949C
:1030600088138FEF9FEF64CE0F931F93CF93DF935F
:103070000E945512EC01892B09F44AC00E947E2956
:10308000CE010E94DE128C0197FD52C00E94B52332
:10309000811193C0C0910F06D0911006609100017C
:1030A00070910101CE010E945339892B09F466C049
:1030B0006091060170910701CE010E945339892B5E
:1030C00009F46FC060910C0170910D01CE010E9456
:1030D0005339892B09F468C0609112017091130172
:1030E000CE010E945339892B09F461C06091180107
:1030F00070911901CE010E945339892B09F45AC0ED
:103100008AE193E0DF91CF911F910F910C9489296F
:1031100080912E05811107C08AE193E00E948929E0
:1031200081E080932E05DF91CF911F910F9108953B
:103130008BEB91E00E948929809107069091080607
:10314000892B91F48CE794E00E9489298CEE91E020
:103150000E9489290E947E298AE193E0DF91CF9124
:103160001F910F910C94892980E40E946A29809113
:103170000706909108060E94B82CE4CF80E090E00A
:10318000FC01EE0FFF1FE80FF91FEE0FFF1FE050CD
:10319000FF4F0280F381E02DB8018FE096E00995A2
:1031A000AFCF81E090E0ECCF82E090E0E9CF83E028
:1031B00090E0E6CF84E090E0E3CF0E94B8238BEB71
:1031C00091E00E9489298091070690910806892B39
:1031D00059F48CE794E00E94892986EA93E00E94E2
:1031E00089290E947E298CCF80E40E946A298091DF
:1031F0000706909108060E94B82CEBCF8823A1F017
:103200008091E6058F5F8093E60504C08091950765
:10321000813041F484E690E00E94492F8091E505D9
:103220008823A1F381E008958091E6058150809381
:10323000E60581E008951092E2051092E1051092F2
:10324000E3051092E4051092DC051092CE05109271
:10325000CD05109240061092CC051092CB0586E069
:1032600090E09093CA058093C90508950E94A72D08
:103270008093D4059091D305891709F472C0811108
:103280005BC09FEF9093DB058093D30520914006B0
:10329000211109C02091FA05211105C02091E505F1
:1032A000222309F460C08091D9059091DA0520911C
:1032B000E605222309F442C02091E50521111AC038
:1032C0001092E2051092E1051092E3051092E405D8
:1032D0001092DC051092CE051092CD05109240069A
:1032E0001092CC051092CB0526E030E03093CA0551
:1032F0002093C90521E02093E50501969093DA0516
:103300008093D9058091D4058823D9F08091D70581
:103310009091D80501969093D8058093D705809118
:10332000DB051816DCF41092DA051092D90510921C
:10333000D8051092D705089591E0A4CF1092E50525
:10334000DCCF8091D5059091D60501969093D60556
:103350008093D5058091DB0518162CF381117DC073
:10336000089590E08FCF4091CF055091D0056091A6
:10337000D1057091D205411551056105710509F41A
:103380004BC041505109610971094093CF055093D9
:10339000D0056093D1057093D205452B462B472B62
:1033A000D9F51092E2051092E1051092E305109212
:1033B000E4051092DC051092CE051092CD05109216
:1033C00040061092CC051092CB0526E030E03093F9
:1033D000CA052093C905913009F065CF2091DC051D
:1033E0008091D9059091DA05AC0127300CF0F9C035
:1033F0004C5051094D31510508F059CF4091D70536
:103400005091D805445051094131510508F04FCF32
:103410002F5F2093DC054BCF811124C08091E40500
:10342000882309F44BC19F3F09F492C09091DC05B9
:10343000973009F038CF21E0280F2831E0F01092C2
:10344000E4058091E3058F5F8A30E0F48093E30523
:103450008091D9059091DA052ACF1092D605109265
:10346000D50508952091D5053091D605213F310528
:1034700008F097CFD3CF8091D9059091DA052093AA
:10348000E40515CF1092E3052091E1053091E205A6
:1034900020FDBCC08091C9059091CA054091CB0523
:1034A0005091CC052F5F3F4F3093E2052093E1050B
:1034B0004817590708F4F7CE8F30910509F470C00A
:1034C000883A910509F468C0069709F0ECCE80911E
:1034D000CD059091CE05892B01F58091410691E0B3
:1034E000811190E020914206820F211190E02091FD
:1034F0004306820F211190E020914406820F211192
:1035000090E020914506820F211102C0911105C063
:1035100090914606891709F4D6C01092E2051092E0
:10352000E1051092DC051092CE051092CD051092A7
:1035300040061092CC051092CB0586E090E0909367
:10354000CA058093C9058091D9059091DA05AFCE5F
:103550002091D7053091D805E091E105F091E20581
:10356000E170FF27EE0FFF1FE352FA4F2C303105B9
:1035700030F521E030E0A9010090E30502C0440FDE
:10358000551F0A94E2F720813181242B352B31839A
:1035900020839091DC054CCF83E08093400683CE5E
:1035A00080914D0687FD9CC088EA90E09093CA0503
:1035B0008093C9058091D9059091DA0578CE21E0F4
:1035C00030E00090E30502C0220F331F0A94E2F7B7
:1035D00020953095408151812423352331832083E8
:1035E00025CF4C5351094D33510508F060CE409121
:1035F000D7055091D805445051094531510508F07F
:1036000056CE273009F053CE21E039CF4091CB057B
:103610005091CC05FA01EF5BF94F8091DD05909157
:10362000DE05DC01BB27682F62956F70762F782747
:10363000672F669566956727762F7695672760FDD5
:103640005EC060E070E06A2B7B2B8617970709F459
:103650005CC08091DF059091E005DC01BB27682FFD
:1036600062956F70762F7827672F66956695672726
:10367000762F7695672760FD45C060E073E06A2B82
:103680007B2B8617970709F440C087E780838091DA
:10369000CD059091CE0501969093CE058093CD05F2
:1036A0008091C9059091CA058417950708F14F5F6D
:1036B0005F4F5093CC054093CB05F4CE2091E305AA
:1036C0002111B1CE88CE809145068F708F30F9F0F0
:1036D00081E0809340068091D9059091DA05E7CD8D
:1036E00082E0809340068091D9059091DA05DFCD84
:1036F0002F5F3F4F3093E2052093E105DDCE60E080
:1037000072E0A1CF60E071E0BACF8083C9CF809131
:103710004106807F8038E1F68FE090E09093CA0503
:103720008093C9058091D9059091DA05C0CD80912B
:10373000FA05811101C008959091C70591111BC030
:103740002091E405223008F47CC01092C8052F5F58
:10375000263008F44CC01092E4052091E3052F5F59
:10376000233008F480C01092E305982F80E09093F6
:10377000C7050C94AC2D8091C60581113CC0909179
:10378000E40581E0923008F080E08093C8059F5FF7
:10379000943038F11092E4059091E3059F5F9730E3
:1037A00008F458C01092E30591E09093C6059091FB
:1037B0004106492F50E0292F22952F709227292F5B
:1037C000269526959227292F2695922790FF51C05E
:1037D00020E032E0242B352B3093DE052093DD05ED
:1037E000C8CF9093E4051092C6050C94AC2D80E0F0
:1037F0002093E405BCCF2091E305422F50E04350D5
:1038000051099091E40557FD28C0923090F0943012
:1038100040F561E070E002C0660F771F4A95E2F75D
:103820004091DD055091DE054623572381E0452B6D
:10383000C1F48093C8059F5F9630F0F49093E4053F
:1038400098CF3091E305311180CF31E03093C80536
:103850002F5FCECF9093E305C6CF211102C09230E7
:1038600040F380E0E6CF2093E30580E080CF911124
:10387000AFCF20E030E0AECF1092E4052F5F2D30C7
:1038800018F42093E30575CF1092E3052091E1052C
:103890003091E2052F5F3F4F3093E2052093E10521
:1038A000409101065091020624173507D8F4F9011A
:1038B000F695E795EF5BF94F9081492F50E0392F4E
:1038C00032953F709327392F369536959327392FA8
:1038D00036959327917020FFCACF91111AC020E02E
:1038E00033E078CF1092E2051092E1051092C60500
:1038F0001092C7050E94AC2D1092FA051092E205B5
:103900001092E1051092E3051092E40580E00C941A
:10391000AC2D20E031E05ECFCF93DF93FC019081AE
:103920008181980F8281980F8381980F8481890FFC
:1039300095818913C6C1880F613009F4C6C196818B
:10394000980F2781920F2085920F2185920F8285F3
:10395000980F8385980F8485980F8585980F8685A5
:103960009813AFC1990F623009F4AFC127858089E0
:10397000280F8189280F8289280F8389280F84893D
:10398000280F8589280F8689280F920F8789981319
:1039900098C1208D818D820F228D820F238D820F01
:1039A000248D820F258D820F268D820F378D830FF8
:1039B000890F292F280F80A1281383C191A182A1EB
:1039C000890F93A1890F94A1890F95A1890F96A1C1
:1039D000890F97A1890F90A5890F820F982F920FB9
:1039E00081A598136EC122A583A5820F24A5820FFD
:1039F00025A5820F26A5820F27A5820F20A9820F59
:103A000021A9820F890F890F92A989135AC124A96C
:103A100093A9920F25A9920F26A9920F27A9920F79
:103A200020AD920F21AD920F22AD920F980F890F0A
:103A300023AD281346C195AD84AD890F96AD890F8E
:103A400097AD890FDF01A05CBF4F9C91890F119644
:103A50009C91890F11969C91890F11969C91890FC9
:103A6000820F820F11969C9198132BC112962C9164
:103A700011979C91920F12962C91920F11962C9166
:103A8000920F11962C91920F11962C91920F1196E4
:103A90002C91920F11962C91920F980F890F1196DD
:103AA0004C9148130EC112969C9111978C91890FDD
:103AB00012969C91890F11969C91890F11969C9159
:103AC000890F11969C91890F11969C91890F1196DF
:103AD0009C91890F840F480F11969C919413F1C00B
:103AE00011968C9111964C91840F11964C91840FE4
:103AF00011964C91840F11964C91840F11964C9114
:103B0000840F11964C91840F11964C91840F890F5C
:103B1000292F280F11968C912813D3C011969C91B0
:103B200011968C91890F11969C91890F11969C91F9
:103B3000890F11969C91890F11969C91890F11966E
:103B40009C91890F11969C91890F820F922F980F4B
:103B500011968C919813B5C011963C9111968C9149
:103B6000380F11968C91380F11968C91380F119651
:103B70008C91380F11968C91380F11968C91380FCB
:103B800011968C91380F390F892F830F11969C91C4
:103B9000891397C011962C9111969C91290F11961B
:103BA0009C91290F11969C91290F11969C91290F98
:103BB00011969C91290F11969C91290F11969C9119
:103BC000290F280F382F320F11968C91381379C096
:103BD00011969C9111968C91980F11968C91980F3B
:103BE00011968C91980F11968C91980F11968C913B
:103BF000980F11968C91980F11968C91980F930FA6
:103C0000232F290F11968C9128135BC011969C913C
:103C100011968C91890F11969C91890F11969C9108
:103C2000890F11969C91890F11969C91890F11967D
:103C30009C91890F11969C91890F820F922F980F5A
:103C400011968C9198133DC011962C9111968C91E0
:103C5000820F11962C91820F11962C91820F119642
:103C60002C91820F11962C91820F11962C91820F1C
:103C700011962C91820F890F890F11969C918913AF
:103C800020C0EF01CA56DF4F129628819C91920FF7
:103C900011962C91920F11962C91920F11962C91B6
:103CA000920F11962C91920F11962C91920F1196C2
:103CB0002C91920F980F980FE256FF4F81E02081D0
:103CC000921380E0DF91CF91089581E0DF91CF9151
:103CD0000895CF93DF93FC0190818181980F8281B9
:103CE000980F8381980F8481890F8583880F6130B5
:103CF00009F49EC19681980F2781920F2085920F1B
:103D00002185920F8285980F8385980F8485980F5F
:103D10008585980F9687990F623009F489C1378598
:103D20008089380F8189380F8289380F8389380F4D
:103D30008489380F8589380F8689380F390F378B7A
:103D4000908D818D890F928D890F938D890F948D20
:103D5000890F958D890F968D890F478D840F830F5D
:103D6000932F980F90A331A182A1380F83A1380F10
:103D700084A1380F85A1380F86A1380F87A1380F8D
:103D800080A5380F390F832F890F81A722A593A50E
:103D9000290F94A5290F95A5290F96A5290F97A559
:103DA000290F90A9290F91A9290F280F322F380F19
:103DB00032AB93A984A9980F85A9980F86A9980F6B
:103DC00087A9980F80AD980F81AD980F82AD980F9D
:103DD000930F292F230F23AF95AD84AD890F96AD97
:103DE000890F97AD890FDF01A05CBF4F9C91890FB0
:103DF00011969C91890F11969C91890F11969C9117
:103E0000890F820F982F920F11969C93EF01CA5B36
:103E1000DF4F119628818C91820F12962C91820F80
:103E200011962C91820F11962C91820F11962C9144
:103E3000820F11962C91820F11962C91820F890F6F
:103E4000890F11968C932996119628819C91920F37
:103E500012962C91920F11962C91920F11962C91F3
:103E6000920F11962C91920F11962C91920F119600
:103E70002C91920F980F890F11968C932996119679
:103E800028819C91920F12962C91920F11962C9151
:103E9000920F11962C91920F11962C91920F1196D0
:103EA0002C91920F11962C91920F980F890F1196C9
:103EB0008C932896129628819C91920F11962C91A2
:103EC000920F11962C91920F11962C91920F1196A0
:103ED0002C91920F11962C91920F11962C91920F7A
:103EE000980F890F11968C932996129628819C9190
:103EF000920F11962C91920F11962C91920F119670
:103F00002C91920F11962C91920F11962C91920F49
:103F100011962C91920F980F890F11968C932996D8
:103F2000129628819C91920F11962C91920F1196C6
:103F30002C91920F11962C91920F11962C91920F19
:103F400011962C91920F11962C91920F980F890F28
:103F500011968C932996129628819C91920F119616
:103F60002C91920F11962C91920F11962C91920FE9
:103F700011962C91920F11962C91920F11962C91D3
:103F8000920F980F282F290F11962C93299612968D
:103F900098818C91890F11969C91890F11969C9113
:103FA000890F11969C91890F11969C91890F1196FA
:103FB0009C91890F11969C91890F820F280F119661
:103FC0002C932996129698818C91890F11969C9129
:103FD000890F11969C91890F11969C91890F1196CA
:103FE0009C91890F11969C91890F11969C91890F34
:103FF000820F820F11968C932996129628819C919C
:10400000920F11962C91920F11962C91920F11965E
:104010002C91920F11962C91920F11962C91920F38
:1040200011962C91920F980FE256FF4F890F8083C3
:10403000DF91CF9108950F931F93CF93DF93EC01FE
:10404000162F0E94F2278EEF810F823028F0DF9129
:10405000CF911F910F9108952696123039F160E0AB
:1040600002E110E0809198078530C8F0C801880F00
:10407000991F880F991F880F991F080F191F0C0F80
:104080001D1F69E070E0CE010E94522D2996C017D5
:10409000D107B9F7DF91CF911F910F910895CE010C
:1040A000DF91CF911F910F910C94072861E001E0FF
:1040B00010E0D8CFCF93DF93FC01DC01169688E0A7
:1040C000ED0119928A95E9F79FEF97878FE0808B32
:1040D000918B828B938B848B958B868B908F818F2A
:1040E000928F838F948F858F968F878F91A382A3D2
:1040F00093A384A395A386A397A380A792A783A73E
:1041000094A785A796A787A790AB81AB93AB84AB09
:1041100095AB86AB97AB80AF91AF82AF94AF85AFD5
:1041200096AF87AFDA969C9311968C9311969C93D9
:1041300011968C9312969C9311968C9311971296CC
:104140009C93129713968C93139714969C931497A1
:1041500015968C93159716969C93169717968C9395
:10416000179719969C9311968C93119712969C937E
:10417000129713968C93139714969C9314971596F5
:104180008C93159716969C93169717968C93179762
:1041900019969C9311968C93119712969C93129753
:1041A00013968C93139714969C93149715968C934F
:1041B000159716969C93169717968C9317971996A2
:1041C0009C9311968C93119712969C931297139629
:1041D0008C93139714969C93149715968C9315971C
:1041E00016969C93169717968C93179719969C93EF
:1041F00011968C93119712969C93129713968C9309
:10420000139714969C93149715968C93159716965E
:104210009C93169717968C93179719969C931196C3
:104220008C93119712969C93129713968C931397D5
:1042300014969C93149715968C93159716969C93A9
:10424000169717968C93179719969C9311968C93A3
:10425000119712969C93129713968C93139714961A
:104260009C93149715968C93159716969C93169776
:1042700017968C93179719969C9311968C93119778
:1042800012969C93129713968C93139714969C9363
:10429000149715968C93159716969C9316971796C8
:1042A0008C93179719969C9311968C93119712964D
:1042B0009C93129713968C93139714969C93149730
:1042C00015968C93159716969C93169717968C9324
:1042D000EA56FF4F908381839283838394838583FF
:1042E00096838783DF91CF910895DF92EF92FF92BB
:1042F0000F931F93CF93DF9300D000D0CDB7DEB7DD
:104300008C01D62E80E090E00E94AB0469837A8312
:104310008B839C83CE0101960E94D62F7C01FC01E9
:1043200080810E94A322F8018683F70181810E9487
:10433000A322F8018783F70182810E94A322F8015A
:104340008087F70183810E94A322F8018287F70109
:1043500085818F5F0E94A322F8018387DD2051F1C0
:1043600087E820E8F7019481992311F0892F822BA7
:10437000F801848781E090E0F701048002C0880F93
:10438000991F0A94E2F7F8018187F70182859385E6
:10439000F801892B91F485858B7F85870F900F908D
:1043A0000F900F90DF91CF911F910F91FF90EF90A1
:1043B000DF90089587E020E0D5CF858584608587EC
:1043C000EDCFFC0140FF05C0858560FF59C08160CD
:1043D0008587942F9695262F269590FF05C0858575
:1043E00020FF4BC0826085879695269590FF05C07B
:1043F000858520FF3FC0846085879695269590FF30
:1044000005C0858520FF33C08860858796952695F1
:1044100090FF05C0858520FF27C080618587969520
:10442000269590FF05C0858520FF1BC0806285878B
:104430009695269590FF05C0858520FF0FC0806466
:10444000858796952695992341F08585222319F035
:104450008068858708958F77858708958F7B858706
:10446000F0CF8F7D8587E4CF8F7E8587D8CF877FFC
:104470008587CCCF8B7F8587C0CF8D7F8587B4CF55
:104480008E7F8587A6CFCF93DF93EC01FB018081E0
:1044900091819C8B8B8B828193819E8B8D8BDE0196
:1044A0005896349688E001900D928A95E1F7DE01E6
:1044B0009196FB013C9688E001900D928A95E1F778
:1044C000FB01848995899BA78AA7868997899DA7DF
:1044D0008CA7808D918D988B8F87828D938D9A8BF1
:1044E000898BDF91CF910895FB0120813181FC01FF
:1044F00037A726A7FB0122813381FC0131AB20AB1A
:104500000895C3960C94D805FB01DC01A156BF4F5A
:104510001C92208111962C93218111962C9322813B
:10452000FC01EE55FF4F2083319623E52083319621
:104530001082319620E12083319621E1208331964B
:1045400025E0208308956AE070E090E00E94FE324A
:104550009B0122953295307F3227207F32278F7042
:10456000822B08956AE070E090E00E94FE32AC0178
:104570006930710549F0262F2295207F4930510579
:1045800039F08F70822B089520EF49305105C9F71B
:104590008FE0822B0895CF92DF92EF92FF920F93DC
:1045A0000E94BE040E9473240E9434188091400629
:1045B000882309F471C0809140068130E9F060F0F1
:1045C000843050F484EF93E00E9489296091400682
:1045D00081E496E00E941B206091400681E496E011
:1045E0000E948C1C882309F44CC00F91FF90EF901F
:1045F000DF90CF900C941B1985E0E1E4F6E0AAE38C
:10460000B6E001900D928A95E1F780E090E00E947B
:10461000A91381EF93E00E9489296091400681E40B
:1046200096E00E941B2040914506042F0F702091B8
:1046300044062F7042954F7060914106862F90E09E
:10464000A0E0B0E0DC0199278827309143066C0197
:104650007D01C32A8091420690E0982F8827A0E030
:10466000B0E0BC01CD016C297D298E299F290E94D3
:104670005C276091400681E496E00E948C1C8111C9
:10468000B4CF8AE094E00E9489290F91FF90EF90C7
:10469000DF90CF900C941B190F91FF90EF90DF905B
:1046A000CF900895CF93DF9387E898E00E94AC29DC
:1046B0008CE798E00E94AC29CCE7D7E0688179814B
:1046C0008A819B8140E00E94352A85E798E00E941C
:1046D000AC296C817D818E819F8140E00E94042BFA
:1046E00082E798E00E94AC2980E698E00E94AC291D
:1046F000688579858A859B8545E050E00E94AB2BD3
:1047000085E598E00E94AC296C857D858E859F8526
:1047100045E050E00E94AB2B89E498E00E94AC2970
:10472000688979898A899B8942E050E00E94AB2B95
:1047300082E798E00E94AC298EE198E0DF91CF916A
:104740000C94AC290E94102740917C0750917D0762
:1047500060917E0770917F0789E096E00E94A20534
:104760000E94522380E090E008958091EE05089524
:104770008091EE05811101C0089582E08093F405D7
:104780008091F305807F83608093F3058FEE95E041
:104790000E94C20504C08FEE95E00E94C20561E050
:1047A0008FEE95E00E9413058111F5CF8DE194E025
:1047B0000E9489291092EC051092ED051092EE05E9
:1047C00080E00C94FE180F931F93CF938C0180917F
:1047D000EE05882361F182E08093F4058091F30572
:1047E000807F83608093F3058FEE95E00E94C20581
:1047F00004C08FEE95E00E94C20561E08FEE95E067
:104800000E941305C82F8111F4CF8DE194E00E941E
:1048100089291092EC051092ED051092EE0580E0CA
:104820000E94FE188C2FCF911F910F9108950E9426
:10483000B62DC82F81114DC0F8018081807F80384E
:10484000A1F184818F70843009F449C0853051F71B
:104850008AE08093EB058DE494E00E94892986E04C
:10486000F801AFEEB5E001900D928A95E1F781E095
:104870008093EE050E94FE18809103069091040635
:10488000A0910506B09106064E96A11DB11D80931C
:10489000E7059093E805A093E905B093EA05C1E028
:1048A0008C2FCF911F910F910895F80183818F7004
:1048B00090E00897079708F0B5CF8481282F2295BC
:1048C0002F7030E0215031092730310508F4BACF7C
:1048D000A9CF8AE294E00E948929C0E0A3CF89E0B1
:1048E0008093EB05B8CF0F931F93CF93DF93D091B5
:1048F000EE05DD2321F0C091FA05CC2339F0C1E0AB
:104900008C2FDF91CF911F910F9108950E94B62DAA
:1049100081116CC010E00E94B62D082F882329F069
:104920008091EB058A3009F48EC08091ED058111EC
:1049300064C08091EC0581116AC01093ED051111DE
:10494000C8C01092EC058091E7059091E805A09110
:10495000E905B091EA054091030650910406609183
:1049600005067091060684179507A607B70790F00D
:104970004091030650910406609105067091060669
:10498000415E5F4F6F4F7F4F481759076A077B079C
:1049900008F0B5CF8091EE05882309F4B1CF82E00D
:1049A0008093F4058091F305807F83608093F30505
:1049B0008FEE95E00E94C20504C08FEE95E00E9444
:1049C000C20561E08FEE95E00E9413058111F5CFDD
:1049D0008DE194E00E9489291092EC051092ED057A
:1049E0001092EE0580E00E94FE188ACF11E08091BF
:1049F000EB05893009F08ECF8ECF1093ED05112392
:104A000009F443C08091EC05882309F478CF109213
:104A1000EC0582E08093F4058091F305807F83604C
:104A20008093F3058FEE95E00E94C20504C08FEEDF
:104A300095E00E94C20561E08FEE95E00E941305AB
:104A40008111F5CF5CCF112309F469C08091EE0587
:104A5000882309F455CF82E08093F4058091F30513
:104A6000807F83608093F3058FEE95E00E94C205FE
:104A700004C08FEE95E00E94C20561E08FEE95E0E4
:104A80000E9413058111F5CFA3CFC0E082E080938F
:104A9000F4058091F305807F83608093F3058FEEAA
:104AA00095E00E94C20504C08FEE95E00E94C20509
:104AB00061E08FEE95E00E9413058111F5CF8091A2
:104AC000EC05882309F41BCFC093EC05C11117CF67
:104AD000A0CF1092F4058091F305807F89608093C8
:104AE000F3058FEE95E00E94C20561E08FEE95E040
:104AF0000E9413058091030690910406A09105067B
:104B0000B09106064E96A11DB11D8093E7059093C6
:104B1000E805A093E905B093EA05CD2FF1CE809189
:104B2000ED05811133C08091EC05882321F081E0EF
:104B30008093EC05E4CE1092ED0581E08093EC05C6
:104B40001092F4058091F305807F8A608093F305CD
:104B50008FEE95E00E94C20561E08FEE95E00E9425
:104B600013058091030690910406A0910506B0916B
:104B700006064E96A11DB11D8093E7059093E805AA
:104B8000A093E905B093EA05C02FBACE1092ED05C7
:104B9000C1E07CCFFC0180819181A281B381B23CD4
:104BA00020F08058924AA149B44BBC01CD01605914
:104BB000794A8D4E984D20E83AE349E050E00E9452
:104BC0001233DA01C901880F991FAA1FBB1F880F72
:104BD000991FAA1FBB1F880F991FAA1FBB1F821BEB
:104BE000930BA40BB50BBC01CD01660F771F881F7B
:104BF000991F660F771F881F991F25EB35E040E04E
:104C000050E00E9412336835734018F480E19EE052
:104C1000089580E090E0089580E19EE00895FC0111
:104C200080819181A281B381B23C20F08058924A68
:104C3000A149B44BBC01CD016059794A8D4E984DC4
:104C400020E83AE349E050E00E941233DA01C9015A
:104C5000880F991FAA1FBB1F880F991FAA1FBB1F70
:104C6000880F991FAA1FBB1F821B930BA40BB50BA8
:104C7000BC01CD01660F771F881F991F660F771F34
:104C8000881F991F25EB35E040E050E00E94123369
:104C90006835734018F480E19EE0089580E090E06C
:104CA00008950F931F93CF93DF93CDB7DEB760972F
:104CB0000FB6F894DEBF0FBECDBF8C0180E090E050
:104CC0000E94AB046D877E878F87988BBE016F5FD4
:104CD0007F4FCE010D960E94DD2FB801CE010196C7
:104CE0000E94AE3184E5F801828781E060960FB6BC
:104CF000F894DEBF0FBECDBFDF91CF911F910F9112
:104D000008950F931F93CF93DF93CDB7DEB7A0978E
:104D10000FB6F894DEBF0FBECDBFFC01019000209E
:104D2000E9F79F01245131092817390761F080E024
:104D3000A0960FB6F894DEBF0FBECDBFDF91CF9126
:104D40001F910F910895BC0143E150E0CE010196FF
:104D50000E945C391C8A8E010B5E1F4F8CE0F801AB
:104D600011928A95E9F769E574E0CE0101960E94F7
:104D70003A390097E1F20E9413398C5697409C8F84
:104D80008B8F69E574E080E090E00E943A390097EB
:104D900071F20E94133981508A8F6BE574E080E0D4
:104DA00090E00E943A39009711F20E941339888FDF
:104DB00062EF73E080E090E00E943A39009709F4D6
:104DC000B6CF0E9413398F8B62EF73E080E090E0E2
:104DD0000E943A39009709F4AACF0E9413398E8BAA
:104DE0006EE171E080E090E00E943A39009709F4AA
:104DF0009ECF0E9413398D8B8FEF9FEF98A38F8FDB
:104E0000C8010E944330611571058105910509F4BF
:104E10008ECF22E02093E9060E94B53281E088CF50
:104E200020E030E041E655E460918C0770918D07F9
:104E300080918E0790918F070E9400360E947D34EA
:104E40000E94BE3280919007823081F0833051F011
:104E5000813021F080E090E00C94B0308AEC95E253
:104E60000C94B0308CE096E20C94B0308FE096E277
:104E70000C94B0302830E0F027502830C8F450E0CF
:104E8000CA0101970797A0F4FA01E751F94F808111
:104E900090E02150AC0102C0559547952A95E2F764
:104EA000CA018170992740FF06C084E690E008950A
:104EB0008FEF9FEF089508958F929F92AF92BF92C8
:104EC000EF92FF920F931F93CF93DF933FEF320F39
:104ED000373008F46EC02830B8F5C0E0D0E00430B8
:104EE000D1F1053009F47BC0042F10E0EE24EA94E0
:104EF000FE2CC80101978730910508F05AC0209711
:104F000009F457C02FEFE216F20609F455C0FC0170
:104F1000E651F94F219781E090E001C0880FCA95D2
:104F2000EAF7EF2809F441C09081892B80838FEF45
:104F30009FEFDF91CF911F910F91FF90EF90BF9066
:104F4000AF909F908F9008952750283090F5C22FF2
:104F5000D0E0043031F624E6E22EF12C042F4B0190
:104F60005C018EE594E00E94892940E0C501B4010E
:104F70000E94352A8DE694E00E94892910E0C8013C
:104F80000E94B82C81E794E00E948929CE010E94FA
:104F9000B82C85E794E00E948929C7010E94B82CAB
:104FA00087EE91E00E948929A4CF80959081892382
:104FB00080838FEF9FEFBDCFF801E751F94F20813C
:104FC00030E0219702C035952795CA95E2F7C901CF
:104FD0008170992720FFADCF84E690E0AACFE12C25
:104FE000F12CBCCF0F931F93CF93DF93EC018C0177
:104FF0000A5F1F4F61E089910E94C429C017D10741
:10500000C9F7DF91CF911F910F910C947E298F9258
:105010009F92AF92BF92CF92DF92EF92FF920F9347
:105020001F93CF93DF93CDB7DEB760970FB6F89499
:10503000DEBF0FBECDBF6C01162F80E1E0E2F1E0D4
:10504000DE01119601900D928A95E1F789E794E0CF
:105050000E948929D60114968C910E94F02C8FE72A
:1050600094E00E948929F60185810E94F02C81E854
:1050700094E00E948929D6011696EC91E770F0E041
:10508000EE0FFF1F81E090E08C0F9D1FE80FF91FCE
:10509000808191810E94892982E894E00E94892977
:1050A000D60112968C910E94F02C82EF93E00E9420
:1050B0008929F60181810E94F02C82EF93E00E9401
:1050C0008929D6018C910E94F02CF601878182FDFE
:1050D00078C00E947E29111161C0D60117968C916B
:1050E00087FD79C080FD72C082EB94E00E9489291F
:1050F0005601F9E0AF0EB11C76018DE2E80EF11C0D
:10510000450188E0880E911C8501D80111968C918B
:105110000E94F02C82EF93E00E948929F80180819F
:105120000E94F02C8CE691E00E9489290E5F1F4FAF
:105130008016910651F70E947E29F9E0AF0EB11C4E
:10514000EA14FB04E9F68FEB94E00E9489295601EA
:1051500099E9A90EB11C670188E0C80ED11C87012E
:10516000D80111968C910E94F02C82EF93E00E945E
:105170008929F80180810E94F02C8CE691E00E9440
:1051800089290E5F1F4F0C151D0551F70E947E29BE
:10519000F9E0EF0EF11CEA14FB04E9F660960FB695
:1051A000F894DEBF0FBECDBFDF91CF911F910F915D
:1051B000FF90EF90DF90CF90BF90AF909F908F9037
:1051C000089585E894E00E94892983CF8FE994E0CF
:1051D0000E94892989CF8AE894E00E948929F601F2
:1051E000878180CF0F931F93CF93DF9300D01F92BF
:1051F000CDB7DEB7182F40E1BE016F5F7F4F90E063
:105200000E949239107FE1F1ACEEB4E08C91E09114
:10521000F506F091F6068823D1F1309789F08D01DB
:105220000F5F1F4F0995019671F1F80181918F0170
:10523000882349F1E091F506F091F606309791F751
:105240008981811115C0E0E0F0E0309789F00DE62A
:1052500011E08CE20995019659F0F80181918F01D6
:10526000882331F0E091F506F091F606309791F73A
:105270000F900F900F90DF91CF911F910F91089594
:10528000A8EEB4E0C3CFE091F506F091F60689816F
:105290008823D9F2309761F38E010E5F1F4F099575
:1052A000019699F0F80181918F01882371F0E091C6
:1052B000F506F091F606309791F70F900F900F904A
:1052C000DF91CF911F910F910895E091F506F09134
:1052D000F606BBCFE091F506F091F606309709F09F
:1052E00009948FEF9FEF0895E091F306F091F40693
:1052F000309709F009948FEF9FEF0895E091F5063C
:10530000F091F606309711F08AE009948FEF9FEF45
:105310000895CF93DF93EC0188818823C1F0E09159
:10532000F506F091F606309769F0219609950196F9
:1053300049F08991882359F0E091F506F091F6063D
:105340003097A1F78FEF9FEFDF91CF91089580E025
:1053500090E0DF91CF910895CF93DF93EC01FE01B0
:105360008491882361F0E091F506F091F60630977C
:1053700009F009952196FE0184918111F4CF80E016
:1053800090E0DF91CF910895FF920F931F93CF93F9
:10539000DF9300D01F92CDB7DEB7182FF62E40E175
:1053A000BE016F5F7F4F90E00E949239107F09F03D
:1053B00059C0A8EEB4E08C918823C9F1E091F506BC
:1053C000F091F606309789F08D010F5F1F4F099518
:1053D000019669F1F80181918F01882341F1E091F3
:1053E000F506F091F606309791F7FF20B9F0E091BD
:1053F000F506F091F606309789F00DE611E08CE2A3
:105400000995019659F0F80181918F01882331F0B7
:10541000E091F506F091F606309791F70F900F9016
:105420000F90DF91CF911F910F91FF900895898187
:105430008823D9F2E091F506F091F6063097A9F2AB
:105440008E010E5F1F4F0995019679F2F801819147
:105450008F01882351F2E091F506F091F60630971E
:1054600091F7C3CFACEEB4E0A6CF8F929F92AF92EC
:10547000BF92FF920F931F93CF93DF93CDB7DEB709
:105480002A970FB6F894DEBF0FBECDBF4B015C016B
:10549000F42E20E1AE014F5F5F4F0E94A839D50185
:1054A000C401807F892B8A2B8B2BD9F1D501C401B4
:1054B0008827892B8A2B8B2B09F494C0D501C40132
:1054C0008827907F892B8A2B8B2B09F48EC0D501DE
:1054D000C40188279927892B8A2B8B2B09F488C034
:1054E000D501C40188279927A07F892B8A2B8B2B74
:1054F00009F481C0D501C40188279927AA27892BDF
:105500008A2B8B2B09F47AC088249924AA2420EFB3
:10551000B22289288A288B2809F473C0ACEEB4E043
:1055200002C0A3E0B5E08C91882309F440C0E0916B
:10553000F506F091F606309789F08D010F5F1F4F49
:1055400009950196A1F1F80181918F01882379F1E4
:10555000E091F506F091F606309791F7FF20B9F04B
:10556000E091F506F091F606309789F00DE611E02E
:105570008CE20995019659F0F80181918F018823F9
:1055800031F0E091F506F091F606309791F72A9602
:105590000FB6F894DEBF0FBECDBFDF91CF911F9144
:1055A0000F91FF90BF90AF909F908F900895898149
:1055B0008823A1F2E091F506F091F606309771F29A
:1055C0008E010E5F1F4F0995019641F2F8018191FE
:1055D0008F01882319F2E091F506F091F6063097D5
:1055E00091F7BCCFAAEFB4E09ECFA4E1B5E09BCF8A
:1055F000ADE0B5E098CFA4EFB4E095CFAFEEB4E066
:1056000092CFA8EEB4E08FCFFF920F931F93CF936A
:10561000DF93CDB7DEB72C970FB6F894DEBF0FBE81
:10562000CDBFF42E2AE0AE014F5F5F4F0E94A83934
:1056300089818823B9F0E091F506F091F60630975C
:1056400089F08E010E5F1F4F0995019659F0F80100
:1056500081918F01882331F0E091F506F091F606F3
:10566000309791F7FF20B9F0E091F506F091F6063A
:10567000309789F00DE611E08CE20995019659F01A
:10568000F80181918F01882331F0E091F506F091C6
:10569000F606309791F72C960FB6F894DEBF0FBE42
:1056A000CDBFDF91CF911F910F91FF900895FF9291
:1056B0000F931F93CF93DF93CDB7DEB72A970FB623
:1056C000F894DEBF0FBECDBFF62E4AE0BE016F5F7D
:1056D0007F4F0E949239DC018C918823B9F0E091D0
:1056E000F506F091F606309789F08D010F5F1F4F98
:1056F0000995019659F0F80181918F01882331F0C5
:10570000E091F506F091F606309791F7FF20B9F099
:10571000E091F506F091F606309789F00DE611E07C
:105720008CE20995019659F0F80181918F01882347
:1057300031F0E091F506F091F606309791F72A9650
:105740000FB6F894DEBF0FBECDBFDF91CF911F9192
:105750000F91FF9008952F923F924F925F926F9218
:105760007F928F929F92AF92BF92CF92DF92EF92F1
:10577000FF920F931F93CF93DF93CDB7DEB72C9794
:105780000FB6F894DEBF0FBECDBF4B015C018A019E
:105790000E947D342B013C011B014AE0BE016F5F7A
:1057A0007F4FC2010E949239DC018C91E091F50695
:1057B000F091F606882309F495C03097A1F07D0199
:1057C0002FEFE21AF20A0995019609F487C0F70152
:1057D00081917F01882309F481C0E091F506F09161
:1057E000F606309781F7B201550C880B990B0E9491
:1057F000B5349B01AC01C501B4010E9499336B0122
:105800007C0137FC75C020E030E040E85FE361E0F8
:1058100070E080E090E0101611060CF520E030E01A
:10582000DC01CB01880F991FAA1FBB1F2C013D0172
:10583000440C551C661C771C440C551C661C771CBC
:10584000BC01CD01640D751D861D971D2F5F3F4F57
:105850000217130729F70E94B5349B01AC01C70159
:10586000B6010E9400360E9484342AE0AE014F5FE8
:105870005F4F0E94A83989818823B9F0E091F5062D
:10588000F091F606309789F08E010E5F1F4F099553
:10589000019659F0F80181918F01882331F0E09150
:1058A000F506F091F606309791F72C960FB6F8941E
:1058B000DEBF0FBECDBFDF91CF911F910F91FF9043
:1058C000EF90DF90CF90BF90AF909F908F907F90A0
:1058D0006F905F904F903F902F900895E091F50664
:1058E000F091F606309709F47ECF8EE209957BCFD2
:1058F00020E030E040E85FEB6FEF7FEFCB018BCF34
:105900000F931F93CF93DF93CDB7DEB72D970FB6CD
:10591000F894DEBF0FBECDBF9A01AE014F5F5F4F5F
:105920000E949D39DC018C918823B9F0E091F50645
:10593000F091F606309789F08D010F5F1F4F0995A2
:10594000019659F0F80181918F01882331F0E0919F
:10595000F506F091F606309791F72D960FB6F8946C
:10596000DEBF0FBECDBFDF91CF911F910F91089584
:105970000F931F93CF93DF93CDB7DEB72A970FB660
:10598000F894DEBF0FBECDBF4AE0BE016F5F7F4F10
:105990000E949239DC018C918823B9F0E091F506E0
:1059A000F091F606309789F08D010F5F1F4F099532
:1059B000019659F0F80181918F01882331F0E0912F
:1059C000F506F091F606309791F72A960FB6F894FF
:1059D000DEBF0FBECDBFDF91CF911F910F91089514
:1059E000FF920F931F93CF93DF93CDB7DEB72A9724
:1059F0000FB6F894DEBF0FBECDBFF82E82958F7024
:105A000040E1BE016F5F7F4F90E00E949239DC0160
:105A10008C918823B9F0E091F506F091F606309765
:105A200089F08D010F5F1F4F0995019659F0F8011C
:105A300081918F01882331F0E091F506F091F6060F
:105A4000309791F78F2D8F7040E1BE016F5F7F4FD0
:105A500090E00E949239DC018C918823B9F0E091AA
:105A6000F506F091F606309789F08D010F5F1F4F14
:105A70000995019659F0F80181918F01882331F041
:105A8000E091F506F091F606309791F72A960FB659
:105A9000F894DEBF0FBECDBFDF91CF911F910F9164
:105AA000FF9008950F931F93CF93DF931616170659
:105AB00054F4EC018C01060F171F89910E94F22803
:105AC000C017D107D1F7E091F506F091F6063097AF
:105AD00031F08AE0DF91CF911F910F910994DF910E
