:100000000C9472040C949B040C949B040C949B041D
:100010000C949B040C949B040C949B040C949B04E4
:100020000C949B040C949B040C949B040C94822EC3
:100030000C949B040C949B040C949B040C949B04C4
:100040000C949B040C949B040C94462E0C94132E3D
:100050000C949B040C949B040C949B040C949B04A4
:100060000C949B040C949B04072C7AA5BA6CC59045
:10007000DA3B9365FC8BBC53F810FD3C5692834DE4
:10008000BD879D3AB63DCBC9BF5BBE73DA0FC93F92
:1000900005A84CCDB2D44EB93836A9020C50B9914E
:1000A0008688083CA6AAAA2ABE000000803F302EFF
:1000B000352E310061746D656761333238007379B4
:1000C0006E7461783A20636F6D6D616E64206F703D
:1000D00074696F6E3D76616C7565202E2E2E3B0A1D
:1000E000636F6D6D616E6473206172653A20007498
:1000F000797065202768656C7020636F6D6D616E27
:10010000643B2720206F72202768656C7020616C2B
:100110006C3B270A636F6D6D616E6473206172655D
:100120003A20006461696C793D5420202020202011
:100130002020656E61626C6573206461696C792052
:1001400074696D65722E20542069732075702F6458
:100150006F776E206C696B6520303733302D206FE0
:1001600072203037333032303030206F72202D32F1
:100170003030302020666F722075702030373A336F
:100180003020616E642F6F7220646F776E20323082
:100190003A30300A7765656B6C793D545454545449
:1001A000545420656E61626C6573207765656B6C75
:1001B000792074696D65722E2054206C696B6520FE
:1001C0007769746820276461696C7927206F7220D1
:1001D000272B2720746F20636F7079207468652047
:1001E00054206F6E20746865206C6566742E20281C
:1001F0007765656B6C793D303733302D2B2B2B2B8E
:10020000303930302D2B290A617374726F5B3D4E8B
:100210005D202020202020656E61626C6573206166
:100220007374726F206175746F6D617469632E20D1
:100230004E20697320746865206F6666736574204C
:10024000746F20636976696C206475736B20696EC6
:10025000206D696E757465732E2043616E20626532
:1002600020706F7374697665206F72206E656761A8
:10027000746976652E0A73756E2D6175746F202012
:100280002020202020656E61626C65732073756E7E
:10029000206175746F6D617469630A72616E646F59
:1002A0006D202020202020202020656E61626C655A
:1002B000732072616E646F6D206175746F6D61740F
:1002C00069632E2073687574746572206F70656E33
:1002D0007320616E6420636C6F736573206174209A
:1002E00072616E646F6D2074696D65732E0A72742D
:1002F000632D6F6E6C7920202020202020646F6E8B
:100300002774206368616E67652074696D65727318
:100310002E206F6E6C792075706461746520696E33
:100320007465726E616C207265616C2074696D65B4
:1003300020636C6F636B0A612C206720616E642000
:100340006D3A202020206C696B6520696E207365F2
:100350006E6420636F6D6D616E640A72733D283048
:100360007C317C322920202020207265616420624B
:1003700061636B2073617665642074696D657220BA
:10038000646174612E2069662073657420746F2027
:10039000322C2072657475726E20616E79206461F2
:1003A0007461206D61746368696E67206720616E97
:1003B00064206D20652E672E206D3D302028616EF3
:1003C00079206D656D6265722920696E737465614F
:1003D00064206F66206D3D320A007072696E743D54
:1003E000287274637C63757C72657365742D696EA5
:1003F000666F290A75702D74696D653D3F0A7665D3
:100400007273696F6E3D66756C6C0A0027636F6E60
:10041000666967272073657473206F72206765743F
:1004200073206F7074696F6E732E205573653A2058
:10043000636F6E666967206F7074696F6E3D766179
:100440006C7565202E2E2E3B20746F207365742EE4
:10045000205573653A20636F6E666967206F70740C
:10046000696F6E3D3F202E2E2E3B20746F206765F6
:10047000742C20696620737570706F727465640ADD
:100480000A63753D2849447C6175746F7C3F29205F
:1004900020202020362D64696769742068657820E3
:1004A0004944206F662043656E7472616C2D556EF1
:1004B00069742E206175746F3A206361707475726F
:1004C00065204944207573696E6720636F6E6E65A1
:1004D000637465642052462072656365697665724F
:1004E0000A7274633D2849534F5F54494D457C3F20
:1004F00029202020736574206C6F63616C207469FF
:100500006D652077697468207468697320286F723C
:1005100020757365204E5450292E206578616D70CA
:100520006C653A20636F6E666967207274633D3252
:100530003031372D31322D33315432333A35393A67
:1005400035393B0A626175643D284E7C3F29202085
:100550002020202020202073657269616C20626158
:100560007564207261746520282E2E2E20626175BC
:10057000643D313135323030290A6C6F6E676974F1
:100580007564653D284445477C3F290A6C61746960
:10059000747564653D284445477C3F290A74696D3C
:1005A000652D7A6F6E653D284E7C3F2920202020E6
:1005B00074696D65207A6F6E6520686F7572206F43
:1005C000666673657420666F7220617374726F2043
:1005D000616E64207274630A6473743D2865757C6F
:1005E000307C317C3F2920202020206461796C6997
:1005F00067687420736176696E672074696D653A07
:10060000206175746F6D617469633A2065753D652D
:1006100075726F70652E206D616E75616C6C793AC4
:1006200020303D6F66662C20313D6F6E0A76657214
:10063000626F73653D28302E2E357C3F29202020A7
:100640007365742074657874206F75747075742088
:10065000766572626F73697479206C6576656C2E4D
:10066000203020666F72206E6F6E65202E2E2E2039
:100670003520666F72206D61780A7365742D70770E
:100680003D70617373776F726420202020736574EE
:10069000206120636F6E6669672070617373776F86
:1006A00072642E20696620736574206576657279A0
:1006B00020636F6E66696720636F6D6D616E647332
:1006C000206E6565647320746865207077206F7094
:1006D00074696F6E0A70773D5057202020202020CB
:1006E00020202020202020206578616D706C653AE4
:1006F00020636F6E6669672070773D6D795F70610A
:10070000737377206473743D65753B0A7265737407
:1007100061727420202020202020202020202072A0
:10072000657374617274204D43550A00613D283031
:100730007C494429202030202068657820494420C5
:100740006F662073656E646572206F7220726563D8
:1007500065697665722E2030207573657320276376
:10076000752720696E20636F6E6669670A673D5B57
:10077000302D375D20202030202067726F7570206B
:100780006E756D6265720A6D3D5B302D375D2020A0
:100790002030202067726F7570206D656D62657204
:1007A000206E756D6265720A633D2875707C646F9A
:1007B000776E7C73746F707C73756E2D646F776E5B
:1007C0007C73756E2D696E73747C7365740A723DEB
:1007D0004E2020202020202032202072657065616C
:1007E0007420636F6D6D616E6420312B4E207469CF
:1007F0006D65735345505B3D307C315D202020207A
:10080000456E74657220656E642D706F73697469CE
:100810006F6E2061646A7573746D656E74206D6FA0
:10082000646520286E656564732068617264776111
:10083000726520627574746F6E29000A2868696E8B
:10084000743A20747970652068656C703B20746F11
:1008500020676574206120636F6D6D616E64206C2C
:10086000697374290A002074696D652D7A6F6E654D
:100870003D00206C617469747564653D00636F6E42
:10088000666967206C6F6E6769747564653D003BCF
:100890000A0020626175643D00636F6E66696720BF
:1008A00063753D000A0A54726F6E6665726E6F2D35
:1008B0004D4355207374617274696E67202E2E2E1D
:1008C0000A6275696C642D646174653A204D6172C9
:1008D00020313620323032302030313A35363A331A
:1008E000380A0A0011241FBECFEFD8E0DEBFCDBF0B
:1008F00014BE0FB6F894A89580916000886180932B
:100900006000109260000FBE15E0A0E0B1E0EAE5E3
:10091000F6E702C005900D92A437B107D9F728E099
:10092000A4E7B5E001C01D92AB33B207E1F70E9426
:10093000C42C0C942B3B0C9400008F938FB78F9397
:10094000F894809135088F5F809335088091360840
:100950008F4F80933608809137088F4F80933708E8
:10096000809138088F4F809338088F918FBF8F9177
:100970000895FC010FB6F89460913508709136081F
:1009800080913708909138080FBE309721F060832E
:100990007183828393830895CF938091420681115E
:1009A0003DC0809148061816ACF5809147068F70BF
:1009B0008330C1F18091420681112CC081E00E94F8
:1009C0002F18C82F882331F18091480681508093D9
:1009D000480685E0E3E4F6E0A9E8B6E001900D9270
:1009E0008A95E1F761E089E896E00E949A1D80917E
:1009F000E00781111CC08CE090E090934A06809340
:100A0000490681E08093420680E00E942F188C2FD7
:100A1000CF910895C1E08C2FCF910895C0E08C2F25
:100A2000CF91089583E496E00E94D005C3CF80E380
:100A300091E00E94952861E089E896E00E944C1FB1
:100A4000DACF0F931F93CF93DF938C01D62F809132
:100A50004206811136C00115110531F0809148061A
:100A6000181614F41092480681E00E942F18C82F1F
:100A7000882339F1D130E9F185E0F801A9E8B6E041
:100A800001900D928A95E1F76D2F89E896E00E941A
:100A90009A1D8091E00781111BC0D23039F180E5A9
:100AA00091E090934A068093490681E08093420644
:100AB00080E00E942F188C2FDF91CF911F910F9112
:100AC0000895C0E08C2FDF91CF911F910F91089571
:100AD00080E391E00E9495288091E007823040F108
:100AE0006D2F89E896E00E944C1FD7CF8EE190E0F1
:100AF000D8CF0115110511F186E0F801A3E4B6E0A5
:100B000001900D928A95E1F785E0F801A9E8B6E039
:100B100001900D928A95E1F761E089E896E00E94E4
:100B20009A1D8091E007811111C08CE090E0B9CF4F
:100B300061E089E896E00E944C1FAFCF80914806A3
:100B400081508093480603E416E0DECF80E391E015
:100B50000E94952861E089E896E00E944C1FE5CF4D
:100B6000FC01CB01AA27BB2780835183428322E16A
:100B7000238314822FEF25839927AA27BB2780324E
:100B80009105A105B10549F080399105A105B1058F
:100B900019F487E183830895089581E1838308959B
:100BA000FC013381932F92959F709F5F9F7041F05E
:100BB000292F2295207F932F9F70922B9383089546
:100BC00020E1932F9F70922B938308952F923F9251
:100BD0004F925F926F927F928F929F92AF92BF924D
:100BE000CF92DF92EF92FF920F931F93CF93DF93F9
:100BF000CDB7DEB762970FB6F894DEBF0FBECDBF9C
:100C00008C011D821E821F821886072E000C880B05
:100C1000990B0E946E3520E030E040E752E40E94DC
:100C2000C4346D877E878F87988B9801285F3F4FEC
:100C30003C872B87C8018C589F4F9A8B898B212C1E
:100C4000312C90E89987EFEBEA87412C80E8582E09
:100C500081EB682E83E4782E8B849C84F8E08F1AD5
:100C60009108A090CC07B090CD07C090CE07D0904F
:100C7000CF072091D4073091D5074091D6075091E6
:100C8000D7076D857E858F8598890E944E349B019C
:100C9000AC01FDEBFF9386ED8F9397E79F93E0E523
:100CA000EF938091D3078F938091D2078F93809198
:100CB000D1078F938091D0078F9383017201BE017A
:100CC0006B5F7F4F80E090E00E94082FED80FE80F8
:100CD0000F8118850FB6F894DEBF0FBECDBF91010E
:100CE00049855A85B701C8010E94BA3487FF69C097
:100CF000C101A985BA858D839E83AF83B887CD0155
:100D0000AE014F5F5F4FB1010E94A4366B017C01C1
:100D10003FEF8316930659F069817A818B819C811C
:100D20000E943D35862F0E947130F4018183811429
:100D3000910489F020E030E040E752E4C701B601B9
:100D40000E94D8360E943D3581E0860F8E7F0E943A
:100D50007130F401808320E030E843E750E4C301C0
:100D6000B2010E944D342B013C01F2E08F0E911C28
:100D70002B853C858216930609F073CFC401099632
:100D80009C878B87E989FA898E179F0709F064CFC2
:100D900062960FB6F894DEBF0FBECDBFDF91CF9144
:100DA0001F910F91FF90EF90DF90CF90BF90AF9089
:100DB0009F908F907F906F905F904F903F902F907B
:100DC0000895170109871A87C8019ACFCF92DF9239
:100DD000EF92FF920F931F93CF93DF936C017B01F0
:100DE0000E948A2881E0E816F10409F4D4C00CF4CA
:100DF00099C001E010E054C0BE01809100019091C3
:100E000001010E94073A892B09F4A5C0BE01809117
:100E10000601909107010E94073A892B09F4AFC09F
:100E2000BE0180910C0190910D010E94073A892B1F
:100E300009F4A8C0BE0180911201909113010E9493
:100E4000073A892B09F4A1C0BE0180911801909145
:100E500019010E94073A892B09F49AC08DE891E0A4
:100E60000E94952880914F0690915006892B09F099
:100E700068C08AE30E9476288EE791E00E94952858
:100E80008AE794E00E949528CE010E9495288AE086
:100E90000E9476280F5F1F4F0E151F050CF042C0F1
:100EA000F801EE0FFF1FEE0FFF1FEC0DFD1DC081BF
:100EB000D1816FE671E0CE010E94073A892B09F0DB
:100EC0009BCF8EEB90E00E94B828C0E0D1E08E016D
:100ED000F801808191810E9495288CE691E00E9422
:100EE00095280A5F1F4FF1E00E311F0789F70E9416
:100EF0008A28888199810E94952883E791E00E9441
:100F000095288C819D810E94B8280E948A28269667
:100F100081E0CE31D80769F706E010E00E151F0515
:100F20000CF4BECF83E391E00E94952880E090E02E
:100F3000DF91CF911F910F91FF90EF90DF90CF90B5
:100F4000089580E40E94762880914F069091500683
:100F50000E94C42B8ECF80E090E0FC01EE0FFF1FBB
:100F6000E80FF91FEE0FFF1FE050FF4F84819581BE
:100F70000E94B8280E948A280F5F1F4F8DCF81E002
:100F800090E0EBCF82E090E0E8CF83E090E0E5CF27
:100F900084E090E0E2CF8FEE90E00E94B828C0E0BD
:100FA000D1E00EE111E0888199810E9495288CE6BC
:100FB00091E00E94952826960C171D07A1F70E9424
:100FC0008A28B4CF4F925F926F927F928F929F92B6
:100FD000AF92BF92CF92DF92EF92FF920F931F9347
:100FE000CF93DF93CDB7DEB764970FB6F894DEBF2B
:100FF0000FBECDBF623071050CF480C0FC01E480EF
:10100000F580C680D780E114F10409F404C1C1144D
:10101000D10409F400C14B018C0125E9622E21E0C5
:10102000722EAA24A394B12C4090710550907205A1
:1010300026C060EA71E0C6010E94073A892B09F4D4
:1010400092C061EE73E0C6010E94073A892B09F451
:1010500098C0FFEFAF1ABF0A8A149B0409F445C079
:10106000F801E084F184C284D384E114F10409F42A
:10107000D2C00C5F1F4FC114D10409F4CCC06AE97F
:1010800071E0C7010E94073A892B99F26AEB71E07F
:10109000C7010E94073A892BA1F5F60180818F33A1
:1010A00009F49FC08AEA91E00E94952880914F063A
:1010B00090915006892B09F0C8C08AE30E947628D7
:1010C00080EB91E00E9495288AE794E00E949528A1
:1010D00082EC91E00E9495280E948A28FFEFAF1AC7
:1010E000BF0A8A149B0409F0BBCF61E874E0C30116
:1010F0000E94073A8C01892B09F4BBC000E010E084
:101100008CC066ED71E0C7010E94073A892B09F097
:101110004BC06EED71E0C6010E94073A892B09F0C1
:1011200098CFC3010E949528C7010E94952889E69F
:1011300094E00E94952884EB90E00E94B82883EE0A
:1011400091E00E9495288EEA90E00E94B8288CE6F3
:1011500091E00E949528C2010E94952881E8682E9E
:1011600084E0782E76CFCE0101960E945D258823FB
:1011700009F46FCFCE0101960E9495280E948A281B
:1011800068CF84EA91E00E9495286091C40770912D
:10119000C5078091C6079091C70740E150E00E94C3
:1011A0008C2B0E948A2855CF8DE891E00E949528CB
:1011B00080914F0690915006892B09F050C08AE328
:1011C0000E9476288EE791E00E9495288AE794E0B5
:1011D0000E949528C7010E9495288AE00E947628DF
:1011E00038CFC3010E949528C7010E94952889E63F
:1011F00094E00E94952860914B0670914C06809176
:101200004D0690914E0640E00E94102A91E8692E0A
:1012100094E0792E1ECF0FEF1FEFC80164960FB632
:10122000F894DEBF0FBECDBFDF91CF911F910F911C
:10123000FF90EF90DF90CF90BF90AF909F908F90F6
:101240007F906F905F904F90089580E40E94762881
:1012500080914F06909150060E94C42B2ECF80E4BF
:101260000E94762880914F06909150060E94C42BD0
:10127000A6CF85EE91E00E949528CFCF2F923F9286
:101280004F925F926F927F928F929F92AF92BF9296
:10129000CF92DF92EF92FF920F931F93CF93DF9342
:1012A00000D000D01F92CDB7DEB75B016230710570
:1012B0000CF447C2FC0104811581C680D78001155A
:1012C000110509F4C7C09D838C83312C1B82212C0E
:1012D0001A82F2E0F98388248A94982C412C512CAC
:1012E0003201EE24E394F12C20C0C114D10409F49E
:1012F00087C040E150E060E070E0C6010E94BC376A
:101300002B013C012FEFE21AF20AAE14BF0471F177
:10131000EC81FD81008511853496FD83EC83C680C8
:10132000D7800115110509F495C068EE71E0C80178
:101330000E94073A892BC9F26EED73E0C8010E9442
:10134000073A892B09F045C0C114D10409F46DC0D6
:10135000C6010E94C7398830910508F066C0382E52
:101360002FEFE21AF20AAE14BF0491F63A8131115E
:10137000B1C1411451046104710409F407C1209101
:101380007705822F90E0A0E0B0E0DC019927882764
:1013900030917905832B4091780550E0542F4427F4
:1013A00060E070E0842B952BA62BB72B48165906CE
:1013B0006A067B0609F4A2C1B301A20187E795E0A2
:1013C0000E94B00520917705E7E7F5E0FD83EC8307
:1013D000E3C06DE873E0C8010E94073A892BA1F4CD
:1013E000C114D10411F1C6010E94C739883091059A
:1013F000E0F4009709F493C0A7E02A2E280E82CFCC
:10140000412C512C32017ECF68EE73E0C8010E945E
:10141000073A892BC9F5C114D10439F0C6010E94DD
:10142000C73989838B3008F46DCF8AEA91E00E9436
:10143000952880914F0690915006892B09F063C141
:101440008AE794E00E9495288AEE91E00E94952810
:101450000E948A288FEF9FEF0F900F900F900F90B0
:101460000F90DF91CF911F910F91FF90EF90DF9040
:10147000CF90BF90AF909F908F907F906F905F9034
:101480004F903F902F90089562EA71E0C8010E944A
:10149000073A892B09F045C0C114D10431F2F60195
:1014A00080818F3309F44FC069EF71E0C6010E945B
:1014B000073A892B09F454C162E072E0C6010E9428
:1014C000073A892B09F44FC160EF71E0C6010E9411
:1014D000073A892B09F44AC165EF71E0C6010E9401
:1014E000073A892B09F445C16EEF71E0C6010E94ED
:1014F000073A892B09F440C165E072E0C6010E94F9
:10150000073A892B09F43BC16EE072E0C6010E94E4
:10151000073A892B09F089CF8DE08B83F3CE212CFC
:10152000F1CE62E172E0C8010E94073A892B89F48A
:10153000C114D10421F0F6018081813339F488246B
:101540008394912CDFCEF1E0FA83DCCE812C912CB8
:10155000D9CE8DE891E00E94952880914F06909118
:101560005006892B09F0D9C08AE30E9476288EE7BD
:1015700091E00E9495288AE794E00E949528C8018E
:101580000E9495288AE00E947628BCCE20915106C0
:1015900081E596E09D838C83207F2038D1F0FFEF9A
:1015A0008F169F0659F1EC81FD818481982F907FE1
:1015B0008B818F70892B8483892831F0CF010E9421
:1015C000EF2280E090E048CF0E94C42280E090E0CB
:1015D00043CFEC81FD8124812F70F0E13F9EC0015B
:1015E0001124322E382AEC81FD8134828381982F98
:1015F000907F822D8F70892B8383D1CFFB81FF2336
:1016000009F451C0EC81FD818481982F907F8B81FA
:101610008F70892B8483CF010E94D0052981EC81B2
:10162000FD81258361E0CF010E9421058823D9F146
:101630008AEA91E00E94952880914F069091500689
:10164000892B09F09FC08AE794E00E94952882E7E1
:1016500093E00E9495280E948A28EC81FD814481B4
:10166000042F0F7023812F7042954F706081862F59
:1016700090E0A0E0B0E0DC019927882732816C017E
:101680007D01C32A818190E0982F8827A0E0B0E0F7
:10169000BC01CD016C297D298E299F290E946826D5
:1016A00080E090E0D9CE8AEA91E00E94952880916E
:1016B0004F0690915006892BD1F58AE794E00E945D
:1016C00095288AEE91E00E9495280E948A2880E061
:1016D00090E0C2CE86E192E00E949528222D432D13
:1016E000C301B2010E94462660E00E94632A87EB94
:1016F00092E00E94952880E090E0AECE87E795E0EA
:101700009D838C8349CF80E40E94762880914F0688
:10171000909150060E94C42B93CE80E40E947628BC
:1017200080914F06909150060E94C42B1DCF80E4FB
:101730000E94762880914F06909150060E94C42BFB
:10174000BCCF2091510632E03983212C1B82312CF1
:1017500088248A94982C81E596E09D838C831CCF05
:1017600085E08B83CFCD84E08B83CCCD83E08B83EE
:10177000C9CD86E08B83C6CD87E08B83C3CD88E05F
:101780008B83C0CD80E40E94762880914F06909193
:1017900050060E94C42B57CFCF93DF93EC018DE806
:1017A00091E00E94952880914F0690915006892BD8
:1017B00099F48AE30E9476288EE791E00E949528AA
:1017C0008AE794E00E949528CE010E9495288AE03D
:1017D000DF91CF910C94762880E40E947628809146
:1017E0004F06909150060E94C42BE3CF2F923F9258
:1017F0004F925F926F927F928F929F92AF92BF9221
:10180000CF92DF92EF92FF920F931F93CF93DF93CC
:10181000CDB7DEB7A2970FB6F894DEBF0FBECDBF2F
:101820004B01222423942091E5072111212C02E071
:10183000801691040CF429C2FC0104811581C68034
:10184000D7800115110509F43AC1C114D10409F476
:1018500036C17C0186E2682E82E0782E1AA219A297
:10186000AA24A394B12C25C0B60185EE97E00E946E
:10187000073A892B09F01FC183E392E00E94952863
:101880003FEFA31AB30A8A149B0409F453C0F7016B
:1018900000851185C284D3840115110509F40FC197
:1018A000F4E0EF0EF11C22242394C114D10409F4B6
:1018B00006C16BED72E0C8010E94073A892BA1F2C4
:1018C000222009F419C260E772E0C8010E94073AB9
:1018D000892B09F4ACC060EA71E0C8010E94073AA4
:1018E000892B09F04CC0F60180818F3309F452C175
:1018F000C6010E948D25882309F4C7C08AEA91E0B9
:101900000E94952880914F0690915006892B09F0EE
:1019100021C18AE794E00E94952882E793E00E9423
:1019200095280E948A283FEFA31AB30A8A149B04C1
:1019300009F0ADCF61E874E0C3010E94073A892B3A
:1019400009F4BBC129A03AA0232809F49EC18AEA60
:1019500091E00E94952880914F0690915006892B26
:1019600009F08AC28AE794E00E9495288AEE91E005
:101970000E9495280E948A2880E090E0B7C061EE1E
:1019800073E0C8010E94073A892B09F053C0F601A1
:1019900080818F3309F496C163E973E0C6010E9428
:1019A000073A892B09F41AC169EB72E0C6010E945B
:1019B000073A892B09F041C160918206862F90E099
:1019C000A0E0B0E0DC019927882720918406AC01D3
:1019D000BD01422B8091830690E0982F8827A0E0DC
:1019E000B0E01A012B01282A392A4A2A5B2AC201AF
:1019F000B101820122273327003811052105310565
:101A000009F05DC00093510670935206609353062F
:101A10006093C4077093C5078093C6079093C70768
:101A200064E070E080E090E00E94AB2C29CF0E943F
:101A3000D62C26CF62EC72E0C8010E94073A892BAF
:101A400009F492C06AEC72E0C8010E94073A892B3F
:101A500009F465C06FEC72E0C8010E94073A892B57
:101A600009F402C167ED72E0C8010E94073A892BB0
:101A700009F061C1F60101900020E9F73197EC19F6
:101A8000FD09E031F10508F4CBC18AEA91E00E943A
:101A9000952880914F0690915006892B09F094C0AB
:101AA0008AE794E00E9495288AEE91E00E949528AA
:101AB0000E948A28E5CE80E492E00E9495288AEA76
:101AC00091E00E94952880914F0690915006892BB5
:101AD00009F0A9C08AE794E00E9495288AEE91E077
:101AE0000E9495280E948A288FEF9FEFA2960FB63A
:101AF000F894DEBF0FBECDBFDF91CF911F910F9144
:101B0000FF90EF90DF90CF90BF90AF909F908F901D
:101B10007F906F905F904F903F902F900895F601C7
:101B200080818F3309F4EDC04AE050E060E070E05E
:101B3000C6010E94D2386093C8077093C90780938A
:101B4000CA079093CB0760E170E080E090E00E94CC
:101B5000AB2C96CE80E40E94762880914F0690911F
:101B600050060E94C42BD5CE40E150E060E070E00A
:101B7000C6010E94D2386093E1077093E207809318
:101B8000E3079093E40768E070E080E090E00E9453
:101B9000AB2C76CECE0101960E945D25882309F4F8
:101BA0006FCEC3010E949528C8010E94952889E63E
:101BB00094E00E949528CE0101960E949528B1E8F4
:101BC0006B2EB4E07B2E5CCE80E40E947628809160
:101BD0004F06909150060E94C42B62CF80914B0615
:101BE00090914C06A0914D06B0914E06CC96A11D49
:101BF000B11D8093850590938605A0938705B093CA
:101C000088051092820680914F069091500690931D
:101C1000840580938305F1E0F093810688E792E0E4
:101C20000E9495286BCE80E40E94762880914F0612
:101C3000909150060E94C42B4DCF40E150E060E0EF
:101C400070E0C6010E94D2388C0122273327003869
:101C500009F035CF292E3324442455242328242861
:101C6000252809F4CFCE2BCFF60180818F3309F4DC
:101C70001DC1C6010E94C7398093E00760E470E08F
:101C800080E090E00E94AB2CFBCD8AEA91E00E94BC
:101C9000952880914F0690915006892B09F0E2C05B
:101CA0008AE794E00E94952882E793E00E949528B5
:101CB0000E948A2880E090E019CF85EE91E00E9492
:101CC000952840CEC3010E949528C8010E949528FE
:101CD00089E694E00E9495286091C4077091C50739
:101CE0008091C6079091C70740E00E944129A1E872
:101CF0006A2EA4E07A2EC4CD87E592E00E94952852
:101D0000DECEC3010E949528C8010E94952889E66D
:101D100094E00E9495286091C8077091C90780914E
:101D2000CA079091CB0740E00E94102A81E8682EF4
:101D300084E0782EA5CD6EED72E0C8010E94073ACE
:101D4000892B09F4A3C06BEE72E0C8010E94073A28
:101D5000892B09F474C067EF72E0C8010E94073A4A
:101D6000892B09F0B7C0F60180818F3309F4E6C1F1
:101D70008D3209F4FEC1082F60E070E0CB01212C08
:101D8000312CA0E84A2EAFE35A2E2D8E3E8E4F8E78
:101D900058A2002309F40BC11FEFC11AD10A212C4C
:101DA000312C21011A8E198E34C010E00053110914
:101DB0000A30110540F5298D3A8D232B71F020E072
:101DC00030E040E251E46D8D7E8D8F8D98A10E94B0
:101DD000C4346D8F7E8F8F8F98A320E030E040E277
:101DE00051E4C201B1010E94D8361B012C01B80197
:101DF000110F880B990B0E946E35A20191010E9470
:101E00004E341B012C01F60101916F01002309F4EE
:101E1000C6C00E3251F601E010E01A8F098FF3CFE1
:101E2000AF014F5F5F4FB60185EE97E00E94F33937
:101E300060E072E080E090E00E94AB2C21CD6FEC7E
:101E400074E0C6010E94073A892B09F04BC1222495
:101E500023942092DE0762E070E080E090E00E9430
:101E6000AB2C4CCD80E40E94762880914F06909157
:101E700050060E94C42B14CF80E40E9476288091E3
:101E80004F06909150060E94C42B6CCD6FEC74E00D
:101E9000C6010E94073A892B09F09AC0F1E0F0933D
:101EA000DD0761E070E080E090E0D9CFC3010E94DF
:101EB0009528C8010E94952889E694E00E949528FB
:101EC0008091E00790E00E94C42B01E8602E04E0BE
:101ED000702ED6CC61E073E0C8010E94073A892BCE
:101EE00009F081C0F60180818F3309F457C18D322A
:101EF00009F488C1082F60E070E0CB01212C312C5F
:101F000050E8452E5FE3552E298E3A8E4B8E5C8E1F
:101F1000002309F4D6C01FEFC11AD10A212C312C9D
:101F200021011E8E1D8E34C010E0005311090A30AD
:101F3000110540F52D8D3E8D232B71F020E030E012
:101F400040E251E4698D7A8D8B8D9C8D0E94C43462
:101F5000698F7A8F8B8F9C8F20E030E040E251E4D4
:101F6000C201B1010E94D8361B012C01B801110F2A
:101F7000880B990B0E946E35A20191010E944E348C
:101F80001B012C01F60101916F01002309F491C09E
:101F90000E3251F601E010E01E8F0D8FF3CF2D8D24
:101FA0003E8D4F8D58A1C201B1010E94D836609379
:101FB000CC077093CD078093CE079093CF070E94F4
:101FC0001C2660E074E080E090E00E94AB2C58CCCE
:101FD00067EE72E0C6010E94073A892B09F055CDE1
:101FE0001092DD075ECF6AE073E0C8010E94073AF5
:101FF000892B09F082C0F60180818F3309F43CC13E
:102000008D3209F41EC1082F60E070E0CB01212C55
:10201000312C20E8422E2FE3522E002309F4E1C098
:102020003FEFC31AD30A198E1A8E1B8E1C8E1E8E7A
:102030001D8E38C010E0005311090A30110560F5FB
:102040004D8D5E8D452B51F020E030E040E251E4B3
:10205000C201B1010E94C4341B012C0120E030E018
:1020600040E251E4698D7A8D8B8D9C8D0E94D8362B
:10207000698F7A8F8B8F9C8FB801110F880B990B0A
:102080000E946E35298D3A8D4B8D5C8D0E944E34A9
:10209000698F7A8F8B8F9C8FF60101916F010023DE
:1020A00009F497C00E3231F601E010E01E8F0D8F5B
:1020B000F3CF298D3A8D4B8D5C8DC201B1010E9409
:1020C000D8366093D0077093D1078093D20790934E
:1020D000D3070E941C2660E078E080E090E00E9438
:1020E000AB2CCECB67EE72E0C6010E94073A892B7B
:1020F00009F0CBCC1092DE07AECE64E173E0C801EC
:102100000E94073A892B09F0ADC0F60180818F3318
:1021100009F4D9C060E372E0C6010E94073A892B36
:1021200009F085C0F1E0F093D8070E941C2660E01A
:1021300070E480E090E00E94AB2CA2CBC3010E942F
:102140009528C8010E94952889E694E00E94952868
:102150006091CC077091CD078091CE079091CF0709
:1021600045E050E00E94B72A11E8612E14E0712E7C
:1021700087CBF601018196012F5F3F4F690160E037
:1021800070E080E090E8212C312CB0E84B2EBFEBC2
:102190005B2E2D8E3E8E4F8E58A2FBCDC3010E942A
:1021A0009528C8010E94952889E694E00E94952808
:1021B0006091D0077091D1078091D2079091D30799
:1021C00045E050E00E94B72AF1E86F2EF4E07F2E40
:1021D00057CBA2019101698D7A8D8B8D9C8D0E94C8
:1021E000D8366093D4077093D5078093D607909321
:1021F000D7070E941C2660E070E280E090E00E9419
:10220000AB2C3ECBF601018196012F5F3F4F690158
:1022100060E070E080E090E8212C312CE0E84E2E68
:10222000EFEB5E2E298E3A8E4B8E5C8E71CE66E081
:1022300075E0C6010E94073A892BC9F51092D807AC
:1022400074CFF601018196012F5F3F4F690160E075
:1022500070E080E090E8212C312C30E8432E3FEBF9
:10226000532EDBCE29A13AA12F5F3F4F3AA329A3DA
:10227000C8010E94CC0B04CBC3010E949528C80161
:102280000E94952889E694E00E9495286091D407E1
:102290007091D5078091D6079091D70742E050E022
:1022A0000E94B72A41E8642E44E0742EE9CA6EE227
:1022B00072E0C6010E94073A892BF1F483E0282ED0
:1022C0002092D80732CFC3010E949528C8010E94EE
:1022D000952889E694E00E9495288091D80781305E
:1022E00091F081110DC086E095E00E94952891E85B
:1022F000692E94E0792EC4CAC8010E94CC0B15CF78
:102300008EE292E0F2CF80E392E0EFCF0E9480284D
:102310008F3F2FEF9207D9F08D309105D9F08A3099
:102320009105C1F08830910509F445C082329105CC
:10233000D1F020918905222321F1CB9739F7109212
:1023400089050E9480288F3F2FEF920729F780E0B0
:1023500090E0089510920D0610920C0610920B0654
:1023600010920A06D3CF20910C0630910D062F5FF4
:102370003F4F30930D0620930C06209189052111C3
:10238000C5CF20910A0630910B062F37310584F511
:1023900040910C0640FD03C08B339105B9F1A901B2
:1023A0004F5F5F4F50930B0640930A06F901E657C3
:1023B000FA4F8083ABCF80910A0690910B0600976D
:1023C00009F4A4CF019790930B0680930A06FC01B1
:1023D000E657FA4F8081823209F098CF80910C063F
:1023E00090910D06019790930D0680930C068ECF69
:1023F00081E08093890580E090E010920B061092B6
:102400000A0610920D0610920C060895211531054A
:1024100039F0F901E657FA4F10828AE895E0EDCFDE
:1024200080E090E0EACFEF92FF920F931F93CF935B
:10243000DF93EC011092500610924F0600E010E07E
:102440008881803241F4DE01FE013196EF011D9258
:1024500081918032D9F3882309F487C07801EE0C8A
:10246000FF1CEE0CFF1CF701E95AF94FD183C08322
:102470008881982F9F7D61F08D33E9F0FE013196C0
:1024800002C08D33C1F0EF018191982F9F7DC9F774
:10249000F701E95AF94F138212820F5F1F4F0A307A
:1024A000110571F68FEF9FEFDF91CF911F910F9183
:1024B000FF90EF900895188289818B3399F38032D1
:1024C00089F38232B9F1882369F3FE013196D7018D
:1024D000A95AB94F1396FC93EE93129789818823DA
:1024E00071F08032F1F18D33E1F1229604C0803237
:1024F000C1F18D33B1F1FE0189918111F8CFEF0166
:10250000C701895A994F7C0161E273E0FC01808127
:1025100091810E94073A892B09F0BFCFF701828190
:1025200093810E94C7399093500680934F060150C3
:102530001109B3CFCE0102962A81222309F4B2CF2A
:10254000F701E95AF94F9383828362E270E00E94B7
:10255000FC39EC01892B09F4A5CF8881882381F20D
:10256000FE01EF0121961082CBCFC801DF91CF9100
:102570001F910F91FF90EF9008958AEA91E00E94D9
:10258000952880914F0690915006892B69F48AE72F
:1025900094E00E9495288AEE91E00E9495280E947E
:1025A0008A288FEF9FEF089580E40E94762880911B
:1025B0004F06909150060E94C42BE9CF0F931F93B2
:1025C000CF93DF93009731F5809185059091860533
:1025D000A0918705B09188050097A105B105A1F0EC
:1025E00040914B0650914C0660914D0670914E06FD
:1025F00084179507A607B70708F485C0809182065F
:10260000982F907F903879F180E0DF91CF911F91E2
:102610000F91089540914B0650914C0660914D06E4
:1026200070914E068A019B01080F191F211D311D53
:1026300000938505109386052093870530938805C0
:102640001092820680914F069091500690938405D7
:102650008093830581E08093810680E0DF91CF91B4
:102660001F910F91089590E0A0E0B0E0DC01992760
:10267000882720918406822B4091830650E0542FB6
:10268000442760E070E0842B952BA62BB72BA093FA
:10269000510690935206809353068093C4079093FB
:1026A000C507A093C607B093C7071092850510927F
:1026B0008605109287051092880588E493E00E94B1
:1026C00095288AEA91E00E94952880914F06909182
:1026D0005006892B09F04EC08AE30E9476288DE6C9
:1026E00093E00E9495288AE794E00E9495280E9432
:1026F0008A2864E070E080E090E00E94AB2C1092A9
:10270000810681E082CFC0914F06D0915006109291
:10271000850510928605109287051092880585E23E
:1027200093E00E9495288091830590918405909371
:10273000500680934F068AEA91E00E949528809186
:102740004F0690915006892BF9F48AE30E9476286F
:102750008AE393E00E9495288AE794E00E949528F6
:102760000E948A28D0935006C0934F06109281068B
:1027700080E04BCF80E40E94762880914F069091B4
:1027800050060E94C42BA8CF80E40E947628809136
:102790004F06909150060E94C42BD7CF4F925F9264
:1027A0006F927F928F929F92AF92BF92CF92DF9261
:1027B000EF92FF920F931F93CF93DF9300D01F925E
:1027C000CDB7DEB77C015B014A011B82452B09F4C2
:1027D000A9C0FC01808120E030E0882309F45BC0BF
:1027E00000E010E055245A949FE0492E1EC0F501E8
:1027F000E20FF31F50826801FFEFCF1ADF0AC814FF
:10280000D90408F04CC0F501EC0DFD1D40828FEF9E
:10281000E81AF80A86010F5F1F4F9801081519057D
:10282000D0F5F70180818823B1F18B3209F44CC0D7
:102830008D32E9F28983F70181818A836801FFEF94
:10284000CF1ADF0AC814D90450F5CE0101960E94B0
:10285000C7390E946230F501EC0DFD1D8083F70140
:10286000828189833701F4E06F0E711CF701838147
:102870008A830A0D1B1DCE0101960E94C7390E9452
:102880006230F8018083730186010F5F1F4F98014A
:102890000815190530F281E08216930609F080E0F0
:1028A0000F900F900F90DF91CF911F910F91FF909C
:1028B000EF90DF90CF90BF90AF909F908F907F90E0
:1028C0006F905F904F9008950430110544F3C80154
:1028D00004968816990618F3D501A20FB31FFD01BF
:1028E000349780818C93F8013196EA0DFB1DDF014E
:1028F00014978C918083F8013296EA0DFB1DDF015D
:1029000014978C9180836801E3E0CE0ED11CF50111
:10291000EC0DFD1DDF0114978C918083FFEFEF1A02
:10292000FF0A78CF20E030E0B6CF2F923F924F924F
:102930005F926F927F928F929F92AF92BF92CF924F
:10294000DF92EF92FF920F931F93CF93DF93CDB758
:10295000DEB7A8970FB6F894DEBF0FBECDBFFC015F
:102960004B012FEF29839FE09A832B839C832D8338
:102970009E832F83988729879A872B879C872D870B
:102980009E872F87988B298B9A8B2B8B9C8B2D8BDB
:102990009E8B2F8B988F298F9A8F2B8F9C8F2D8FAB
:1029A0009E8F2F8F98A3623071050CF44DC2E48086
:1029B000F580A680B780E114F10409F4ECC08F0122
:1029C000312C18A6FEEFFFA319A2212C1BA21CA2DA
:1029D0001DA21EA2612C712C1AA2512C412CCC24B8
:1029E000C394D12C21C0A114B10409F4B7C04CE1A7
:1029F00050E0BE016F5F7F4FC5010E94CE13582E7D
:102A00004FEFC41AD40A8C149D0481F1D801189692
:102A1000ED90FC9019970C5F1F4FF801A680B780CE
:102A2000E114F10409F4B7C065E773E0C7010E943F
:102A3000073A892BC1F26CE773E0C7010E94073A9D
:102A4000892B09F046C0A114B10409F487C044E001
:102A500050E0BE01635E7F4FC5010E94CE13482E39
:102A60004FEFC41AD40A8C149D0481F66BA17CA18B
:102A70008DA19EA1672B682B692B09F4EDC02091D5
:102A80007D05822F90E0A0E0B0E0DC019927882747
:102A900030917F05832B40917E0550E0542F4427D1
:102AA00060E070E0842B952BA62BB72B4BA15CA18B
:102AB0006DA17EA1481759076A077B0709F44CC12D
:102AC0008DE795E00E94B00520917D050DE715E0AA
:102AD000C7C062E873E0C7010E94073A892B59F426
:102AE000A114B10409F4ACC0C5010E94C7393C016E
:102AF00021E02AA385CF68E873E0C7010E94073A66
:102B0000892B91F4A114B10441F0D5018C9180334B
:102B100009F48FC0813309F073CF79A1716079A373
:102B2000822D8160282E6CCF6FE873E0C7010E9470
:102B3000073A892B09F04AC0A114B10441F0F5010C
:102B40008081803309F481C0813309F059CF99A184
:102B5000906899A3A22DA0682A2E52CF8AEA91E00C
:102B60000E94952880914F0690915006892B49F03C
:102B700080E40E94762880914F06909150060E9432
:102B8000C42B8AE794E00E9495288AEE91E00E9487
:102B900095280E948A288FEF9FEFA8960FB6F89489
:102BA000DEBF0FBECDBFDF91CF911F910F91FF9080
:102BB000EF90DF90CF90BF90AF909F908F907F90DD
:102BC0006F905F904F903F902F90089568E973E069
:102BD000C7010E94073A892B79F4A114B10409F4C2
:102BE0001AC1D5018C91803309F45FC0813309F09B
:102BF000B6C0F1E0FFA304CF68EE71E0C7010E9408
:102C0000073A892B09F441C06EED73E0C7010E94B9
:102C1000073A892B09F0BCC0A114B10409F445C1DD
:102C2000C5010E94C7398830910508F03EC1382E91
:102C3000E7CE39A1316039A3422D4E7F242EE0CE5C
:102C4000612C712C31E03AA3DBCE59A1506859A315
:102C5000622D6F77262ED4CE2091510601E516E025
:102C6000207F203809F463C0D80114968C918F60BE
:102C7000F8018483C8010E94D00581E00E942F18CA
:102C8000811115C080E090E088CFA114B10409F44F
:102C9000BDC040E150E060E070E0C5010E94BC377B
:102CA0006BA37CA38DA39EA3ABCE1FA2A9CE89E864
:102CB00096E00E948B1FFFA1F13009F4D5C051109E
:102CC000BBC04110B1C02AA12111A8C060E089E8B1
:102CD00096E00E94A62049A1622D89E896E00E9414
:102CE0001221B80189E896E00E94B52163E0C8018D
:102CF0000E9421058823B1F18AEA91E00E9495287B
:102D000080914F0690915006892B09F0C4C08AE744
:102D100094E00E94952882E793E00E9495280E9403
:102D20008A2880E00E942F1880E090E036CFF801DA
:102D30008481282F2F70F0E13F9EC0011124822B47
:102D4000D80113969C911397292F207F98A59F70E7
:102D5000922B13969C938BCF0DE715E081CFBFEF9D
:102D6000BFA34ECE8AEA91E00E94952880914F063B
:102D700090915006892B09F084C08AE794E00E9464
:102D800095288AEE91E00E9495280E948A28C9CF52
:102D90006DE873E0C7010E94073A892B91F4A114F2
:102DA000B10409F482C0C5010E94C7398830910579
:102DB00008F07BC0009709F47BC027E0280F28A704
:102DC0001FCE61EA73E0C7010E94073A892B09F41C
:102DD0007BC08DE891E00E94952880914F069091EC
:102DE0005006892B09F066C08AE30E9476288EE798
:102DF00091E00E9495288AE794E00E949528C701F7
:102E00000E9495288AE00E947628FACD1BA21CA277
:102E10001DA21EA2F5CDE1E0EFA3F2CDB30189E83A
:102E200096E00E94B22152CFBE01635E7F4F89E8D7
:102E300096E00E94A52147CFBE016F5F7F4F89E8D2
:102E400096E00E9474213DCF20915106312C512CE7
:102E5000612C712C212C19A23EEF3FA31AA2412C08
:102E600018A601E516E0FCCE61E089E896E00E9434
:102E7000A62049A1622D89E896E00E94122162E015
:102E800036CF80E40E94762880914F0690915006BC
:102E90000E94C42B72CF80E40E94762880914F0656
:102EA000909150060E94C42B32CF0E94BD1275CE65
:102EB00018A6A6CD80E40E94762880914F069091B6
:102EC00050060E94C42B90CF0E94BD128FEF9FEF3F
:102ED00064CE0F931F93CF93DF930E9486110097C8
:102EE00009F447C00E9413128C0197FD52C00E9442
:102EF000C122811193C0C0915706D09158066091AC
:102F0000000170910101CE010E94073A892B09F45A
:102F100066C06091060170910701CE010E94073AD8
:102F2000892B09F46FC060910C0170910D01CE01E5
:102F30000E94073A892B09F468C0609112017091D0
:102F40001301CE010E94073A892B09F461C06091F8
:102F5000180170911901CE010E94073A892B09F4DA
:102F60005AC088E193E0DF91CF911F910F910C94AB
:102F7000952880917605811107C088E193E00E9431
:102F8000952881E080937605DF91CF911F910F9175
:102F900008958AEA91E00E94952880914F069091C9
:102FA0005006892B91F48AE794E00E9495288AEED6
:102FB00091E00E9495280E948A2888E193E0DF91A1
:102FC000CF911F910F910C94952880E40E94762850
:102FD00080914F06909150060E94C42BE4CF80E070
:102FE00090E0FC01EE0FFF1FE80FF91FEE0FFF1F2F
:102FF000E050FF4F0280F381E02DB80187E596E0B5
:103000000995AFCF81E090E0ECCF82E090E0E9CF8E
:1030100083E090E0E6CF84E090E0E3CF0E94C4221A
:103020008AEA91E00E94952880914F06909150067F
:10303000892B59F48AE794E00E94952884EA93E06A
:103040000E9495280E948A288CCF80E40E947628CE
:1030500080914F06909150060E94C42BEBCF88239D
:10306000A1F080912E068F5F80932E0604C0809180
:10307000DD07813041F484E690E00E947B2E809150
:103080002D068823A1F381E0089580912E068150BA
:1030900080932E0681E0089510922A061092290648
:1030A00010922B0610922C061092240610921606EF
:1030B00010921506109288061092140610921306AC
:1030C00086E090E0909312068093110608950E9486
:1030D000B32C80931C0690911B06891709F472C0CB
:1030E00081115BC09FEF9093230680931B06209174
:1030F0008806211109C020914206211105C02091A6
:103100002D06222309F460C08091210690912206A9
:1031100020912E06222309F442C020912D06211170
:103120001AC010922A061092290610922B061092AD
:103130002C06109224061092160610921506109274
:103140008806109214061092130626E030E03093A1
:1031500012062093110621E020932D0601969093EC
:1031600022068093210680911C068823D9F0809145
:103170001F069091200601969093200680931F06CB
:10318000809123061816DCF4109222061092210674
:103190001092200610921F06089591E0A4CF10927D
:1031A0002D06DCCF80911D0690911E06019690930E
:1031B0001E0680931D068091230618162CF381119C
:1031C0007DC0089590E08FCF40911706509118066A
:1031D0006091190670911A06411551056105710536
:1031E00009F44BC041505109610971094093170618
:1031F000509318066093190670931A06452B462BB8
:10320000472BD9F510922A061092290610922B0608
:1032100010922C0610922406109216061092150693
:1032200010928806109214061092130626E030E0E1
:103230003093120620931106913009F065CF20914A
:1032400024068091210690912206AC0127300CF0D3
:10325000F9C04C5051094D31510508F059CF4091FA
:103260001F0650912006445051094131510508F084
:103270004FCF2F5F209324064BCF811124C0809124
:103280002C06882309F44BC19F3F09F492C090910A
:103290002406973009F038CF21E0280F2831E0F0DC
:1032A00010922C0680912B068F5F8A30E0F4809379
:1032B0002B0680912106909122062ACF10921E069D
:1032C00010921D06089520911D0630911E06213F83
:1032D000310508F097CFD3CF809121069091220637
:1032E00020932C0615CF10922B06209129063091A1
:1032F0002A0620FDBCC080911106909112064091D3
:103300001306509114062F5F3F4F30932A062093E7
:1033100029064817590708F4F7CE8F30910509F4AC
:1033200070C0883A910509F468C0069709F0ECCEA0
:103330008091150690911606892B01F580918906DA
:1033400091E0811190E020918A06820F211190E096
:1033500020918B06820F211190E020918C06820F24
:10336000211190E020918D06820F211102C0911150
:1033700005C090918E06891709F4D6C010922A06CE
:103380001092290610922406109216061092150625
:1033900010928806109214061092130686E090E0B0
:1033A0009093120680931106809121069091220637
:1033B000AFCE20911F0630912006E0912906F091B2
:1033C0002A06E170FF27EE0FFF1FEB5DF94F2C304F
:1033D000310530F521E030E0A90100902B0602C054
:1033E000440F551F0A94E2F720813181242B352B9D
:1033F00031832083909124064CCF83E0809388060C
:1034000083CE8091950687FD9CC088EA90E09093DA
:10341000120680931106809121069091220678CEA3
:1034200021E030E000902B0602C0220F331F0A94E7
:10343000E2F7209530954081518124233523318353
:10344000208325CF4C5351094D33510508F060CEF0
:1034500040911F06509120064450510945315105B5
:1034600008F056CE273009F053CE21E039CF4091F5
:10347000130650911406FA01E757F94F809125067B
:1034800090912606DC01BB27682F62956F70762F1E
:103490007827672F669566956727762F7695672735
:1034A00060FD5EC060E070E06A2B7B2B861797079B
:1034B00009F45CC08091270690912806DC01BB27A7
:1034C000682F62956F70762F7827672F66956695BF
:1034D0006727762F7695672760FD45C060E073E02B
:1034E0006A2B7B2B8617970709F440C087E78083F8
:1034F000809115069091160601969093160680937A
:10350000150680911106909112068417950708F10F
:103510004F5F5F4F5093140640931306F4CE2091F3
:103520002B062111B1CE88CE80918D068F708F3001
:10353000F9F081E08093880680912106909122061F
:10354000E7CD82E080938806809121069091220643
:10355000DFCD2F5F3F4F30932A0620932906DDCE23
:1035600060E072E0A1CF60E071E0BACF8083C9CFA4
:1035700080918906807F8038E1F68FE090E090931B
:103580001206809311068091210690912206C0CDEB
:1035900080914206811101C0089590910F0691110A
:1035A0001BC020912C06223008F47CC0109210061B
:1035B0002F5F263008F44CC010922C0620912B0669
:1035C0002F5F233008F480C010922B06982F80E0E4
:1035D00090930F060C94B82C80910E0681113CC07C
:1035E00090912C0681E0923008F080E080931006E4
:1035F0009F5F943038F110922C0690912B069F5FBC
:10360000973008F458C010922B0691E090930E0664
:1036100090918906492F50E0292F22952F709227EB
:10362000292F269526959227292F2695922790FFB8
:1036300051C020E032E0242B352B30932606209316
:103640002506C8CF90932C0610920E060C94B82C29
:1036500080E020932C06BCCF20912B06422F50E017
:103660004350510990912C0657FD28C0923090F09C
:10367000943040F561E070E002C0660F771F4A9514
:10368000E2F740912506509126064623572381E014
:10369000452BC1F4809310069F5F9630F0F4909311
:1036A0002C0698CF30912B06311180CF31E030932A
:1036B00010062F5FCECF90932B06C6CF211102C0EC
:1036C000923040F380E0E6CF20932B0680E080CF5D
:1036D0009111AFCF20E030E0AECF10922C062F5FDB
:1036E0002D3018F420932B0675CF10922B062091C5
:1036F000290630912A062F5F3F4F30932A062093E8
:1037000029064091490650914A0624173507D8F4F6
:10371000F901F695E795E757F94F9081492F50E069
:10372000392F32953F709327392F36953695932749
:10373000392F36959327917020FFCACF91111AC067
:1037400020E033E078CF10922A06109229061092DA
:103750000E0610920F060E94B82C1092420610928C
:103760002A061092290610922B0610922C0680E051
:103770000C94B82C20E031E05ECFCF93DF93FC01B6
:1037800090818181980F8281980F8381980F848125
:10379000890F95818913C6C1880F613009F4C6C1AC
:1037A0009681980F2781920F2085920F2185920F85
:1037B0008285980F8385980F8485980F8585980F4B
:1037C00086859813AFC1990F623009F4AFC1278580
:1037D0008089280F8189280F8289280F8389280FE3
:1037E0008489280F8589280F8689280F920F878959
:1037F000981398C1208D818D820F228D820F238D89
:10380000820F248D820F258D820F268D820F378D9A
:10381000830F890F292F280F80A1281383C191A11D
:1038200082A1890F93A1890F94A1890F95A1890F76
:1038300096A1890F97A1890F90A5890F820F982FC4
:10384000920F81A598136EC122A583A5820F24A58E
:10385000820F25A5820F26A5820F27A5820F20A9FA
:10386000820F21A9820F890F890F92A989135AC14A
:1038700024A993A9920F25A9920F26A9920F27A9EF
:10388000920F20AD920F21AD920F22AD920F980FA3
:10389000890F23AD281346C195AD84AD890F96AD30
:1038A000890F97AD890FDF01A05CBF4F9C91890FF5
:1038B00011969C91890F11969C91890F11969C915C
:1038C000890F820F820F11969C9198132BC112962B
:1038D0002C9111979C91920F12962C91920F119608
:1038E0002C91920F11962C91920F11962C91920F70
:1038F00011962C91920F11962C91920F980F890F7F
:1039000011964C9148130EC112969C9111978C916F
:10391000890F12969C91890F11969C91890F11968F
:103920009C91890F11969C91890F11969C91890FFA
:1039300011969C91890F840F480F11969C919413B6
:10394000F1C011968C9111964C91840F11964C9167
:10395000840F11964C91840F11964C91840F1196FF
:103960004C91840F11964C91840F11964C91840FB9
:10397000890F292F280F11968C912813D3C01196E7
:103980009C9111968C91890F11969C91890F11969B
:103990009C91890F11969C91890F11969C91890F8A
:1039A00011969C91890F11969C91890F820F922FED
:1039B000980F11968C919813B5C011963C91119661
:1039C0008C91380F11968C91380F11968C91380F7D
:1039D00011968C91380F11968C91380F11968C910D
:1039E000380F11968C91380F390F892F830F11964C
:1039F0009C91891397C011962C9111969C91290F37
:103A000011969C91290F11969C91290F11969C91CA
:103A1000290F11969C91290F11969C91290F1196AF
:103A20009C91290F280F382F320F11968C91381343
:103A300079C011969C9111968C91980F11968C914A
:103A4000980F11968C91980F11968C91980F119652
:103A50008C91980F11968C91980F11968C91980FCC
:103A6000930F232F290F11968C9128135BC0119669
:103A70009C9111968C91890F11969C91890F1196AA
:103A80009C91890F11969C91890F11969C91890F99
:103A900011969C91890F11969C91890F820F922FFC
:103AA000980F11968C9198133DC011962C911196F8
:103AB0008C91820F11962C91820F11962C91820F6E
:103AC00011962C91820F11962C91820F11962C91A8
:103AD000820F11962C91820F890F890F11969C915C
:103AE000891320C0EF01CA56DF4F129628819C919E
:103AF000920F11962C91920F11962C91920F119674
:103B00002C91920F11962C91920F11962C91920F4D
:103B100011962C91920F980F980FE256FF4F81E06B
:103B20002081921380E0DF91CF91089581E0DF91B1
:103B3000CF910895CF93DF93FC0190818181980FFD
:103B40008281980F8381980F8481890F8583880FE4
:103B5000613009F49EC19681980F2781920F2085CC
:103B6000920F2185920F8285980F8385980F848507
:103B7000980F8585980F9687990F623009F489C14F
:103B800037858089380F8189380F8289380F83897A
:103B9000380F8489380F8589380F8689380F390F97
:103BA000378B908D818D890F928D890F938D890F21
:103BB000948D890F958D890F968D890F478D840F70
:103BC000830F932F980F90A331A182A1380F83A167
:103BD000380F84A1380F85A1380F86A1380F87A12F
:103BE000380F80A5380F390F832F890F81A722A5A1
:103BF00093A5290F94A5290F95A5290F96A5290FFF
:103C000097A5290F90A9290F91A9290F280F322FC5
:103C1000380F32AB93A984A9980F85A9980F86A96C
:103C2000980F87A9980F80AD980F81AD980F82AD3E
:103C3000980F930F292F230F23AF95AD84AD890FD4
:103C400096AD890F97AD890FDF01A05CBF4F9C91A6
:103C5000890F11969C91890F11969C91890F11964D
:103C60009C91890F820F982F920F11969C93EF01D0
:103C7000CA5BDF4F119628818C91820F12962C918E
:103C8000820F11962C91820F11962C91820F119612
:103C90002C91820F11962C91820F11962C91820FEC
:103CA000890F890F11968C932996119628819C91E2
:103CB000920F12962C91920F11962C91920F1196B1
:103CC0002C91920F11962C91920F11962C91920F8C
:103CD00011962C91920F980F890F11968C9329961B
:103CE000119628819C91920F12962C91920F119609
:103CF0002C91920F11962C91920F11962C91920F5C
:103D000011962C91920F11962C91920F980F890F6A
:103D100011968C932896129628819C91920F119659
:103D20002C91920F11962C91920F11962C91920F2B
:103D300011962C91920F11962C91920F11962C9115
:103D4000920F980F890F11968C93299612962881BD
:103D50009C91920F11962C91920F11962C91920F8B
:103D600011962C91920F11962C91920F11962C91E5
:103D7000920F11962C91920F980F890F11968C9398
:103D80002996129628819C91920F11962C91920F50
:103D900011962C91920F11962C91920F11962C91B5
:103DA000920F11962C91920F11962C91920F980FC1
:103DB000890F11968C932996129628819C91920FC7
:103DC00011962C91920F11962C91920F11962C9185
:103DD000920F11962C91920F11962C91920F119691
:103DE0002C91920F980F282F290F11962C9329961A
:103DF000129698818C91890F11969C91890F11963A
:103E00009C91890F11969C91890F11969C91890F15
:103E100011969C91890F11969C91890F820F280F02
:103E200011962C932996129698818C91890F119650
:103E30009C91890F11969C91890F11969C91890FE5
:103E400011969C91890F11969C91890F11969C91C6
:103E5000890F820F820F11968C93299612962881D2
:103E60009C91920F11962C91920F11962C91920F7A
:103E700011962C91920F11962C91920F11962C91D4
:103E8000920F11962C91920F980FE256FF4F890FC7
:103E90008083DF91CF9108950F931F93CF93DF938A
:103EA000EC01162F0E94FE268EEF810F823028F043
:103EB000DF91CF911F910F9108952696123039F11D
:103EC00060E002E110E08091E0078530C8F0C801B1
:103ED000880F991F880F991F880F991F080F191FA6
:103EE0000C0F1D1F69E070E0CE010E945E2C299628
:103EF000C017D107B9F7DF91CF911F910F910895A6
:103F0000CE01DF91CF911F910F910C94132761E0A7
:103F100001E010E0D8CFCF93DF93FC01DC011696CF
:103F200088E0ED0119928A95E9F79FEF97878FE076
:103F3000808B918B828B938B848B958B868B908FD0
:103F4000818F928F838F948F858F968F878F91A388
:103F500082A393A384A395A386A397A380A792A7E4
:103F600083A794A785A796A787A790AB81AB93ABB0
:103F700084AB95AB86AB97AB80AF91AF82AF94AF7C
:103F800085AF96AF87AFDA969C9311968C93119676
:103F90009C9311968C9312969C9311968C931197E7
:103FA00012969C93129713968C93139714969C9346
:103FB000149715968C93159716969C9316971796AB
:103FC0008C93179719969C9311968C931197129630
:103FD0009C93129713968C93139714969C93149713
:103FE00015968C93159716969C93169717968C9307
:103FF000179719969C9311968C93119712969C93F0
:10400000129713968C93139714969C931497159666
:104010008C93159716969C93169717968C931797D3
:1040200019969C9311968C93119712969C931297C4
:1040300013968C93139714969C93149715968C93C0
:10404000159716969C93169717968C931797199613
:104050009C9311968C93119712969C93129713969A
:104060008C93139714969C93149715968C9315978D
:1040700016969C93169717968C93179719969C9360
:1040800011968C93119712969C93129713968C937A
:10409000139714969C93149715968C9315971696D0
:1040A0009C93169717968C93179719969C93119635
:1040B0008C93119712969C93129713968C93139747
:1040C00014969C93149715968C93159716969C931B
:1040D000169717968C93179719969C9311968C9315
:1040E000119712969C93129713968C93139714968C
:1040F0009C93149715968C93159716969C931697E8
:1041000017968C93179719969C9311968C931197E9
:1041100012969C93129713968C93139714969C93D4
:10412000149715968C93159716969C931697179639
:104130008C93EA56FF4F9083818392838383948389
:10414000858396838783DF91CF910895DF92EF92E5
:10415000FF920F931F93CF93DF9300D000D0CDB782
:10416000DEB78C01D62E80E090E00E94B90469830E
:104170007A838B839C83CE0101960E948A307C01D6
:10418000FC0180810E946230F8018683F701818101
:104190000E946230F8018783F70182810E946230B9
:1041A000F8018087F70183810E946230F8018287DD
:1041B000F70185818F5F0E946230F8018387DD20DF
:1041C00051F187E820E8F7019481992311F0892FB4
:1041D000822BF801848781E090E0F701048002C01F
:1041E000880F991F0A94E2F7F8018187F701828509
:1041F0009385F801892B91F485858B7F85870F90B6
:104200000F900F900F90DF91CF911F910F91FF9022
:10421000EF90DF90089587E020E0D5CF858584601A
:104220008587EDCFFC0140FF05C0858560FF59C043
:1042300081608587942F9695262F269590FF05C03F
:10424000858520FF4BC0826085879695269590FFD7
:1042500005C0858520FF3FC084608587969526959B
:1042600090FF05C0858520FF33C0886085879695BF
:10427000269590FF05C0858520FF27C08061858732
:104280009695269590FF05C0858520FF1BC080620E
:1042900085879695269590FF05C0858520FF0FC0E0
:1042A0008064858796952695992341F085852223FC
:1042B00019F08068858708958F77858708958F7BAB
:1042C0008587F0CF8F7D8587E4CF8F7E8587D8CF98
:1042D000877F8587CCCF8B7F8587C0CF8D7F858774
:1042E000B4CF8E7F8587A6CFCF93DF93EC01FB0100
:1042F000808191819C8B8B8B828193819E8B8D8B16
:10430000DE015896349688E001900D928A95E1F787
:10431000DE019196FB013C9688E001900D928A9512
:10432000E1F7FB01848995899BA78AA786899789EC
:104330009DA78CA7808D918D988B8F87828D938D73
:104340009A8B898BDF91CF910895FB012081318178
:10435000FC0137A726A7FB0122813381FC0131AB89
:1043600020AB0895C3960C94E605FB01DC01A15631
:10437000BF4F1C92208111962C93218111962C9372
:104380002281FC01EE55FF4F2083319623E52083E7
:1043900031961082319620E12083319621E12083ED
:1043A000319625E020830895CF92DF92EF92FF921D
:1043B0000F930E94CC040E947F230E946917809172
:1043C0008806882309F471C0809188068130E9F05D
:1043D00060F0843050F482EF93E00E949528609161
:1043E000880689E896E00E944C1F6091880689E85B
:1043F00096E00E94BD1B882309F44CC00F91FF90EA
:10440000EF90DF90CF900C944C1885E0E9E8F6E04F
:10441000A2E8B6E001900D928A95E1F780E090E085
:104420000E94DE128FEE93E00E949528609188062C
:1044300089E896E00E944C1F40918D06042F0F7072
:1044400020918C062F7042954F7060918906862FBF
:1044500090E0A0E0B0E0DC019927882730918B063E
:104460006C017D01C32A80918A0690E0982F8827ED
:10447000A0E0B0E0BC01CD016C297D298E299F29E7
:104480000E9468266091880689E896E00E94BD1B1C
:104490008111B4CF88E094E00E9495280F91FF909D
:1044A000EF90DF90CF900C944C180F91FF90EF900D
:1044B000DF90CF900895CF93DF9384EA98E00E9435
:1044C000B82889E998E00E94B828C4ECD7E0688150
:1044D00079818A819B8140E00E94412982E998E0AC
:1044E0000E94B8286C817D818E819F8140E00E946E
:1044F000102A8FE898E00E94B8288DE798E00E9483
:10450000B828688579858A859B8545E050E00E94BA
:10451000B72A82E798E00E94B8286C857D858E8551
:104520009F8545E050E00E94B72A86E698E00E9409
:10453000B828688979898A899B8942E050E00E947D
:10454000B72A8FE898E00E94B8288BE398E0DF91C3
:10455000CF910C94B8280E941C264091C40750911A
:10456000C5076091C6077091C70781E596E00E9474
:10457000B0050E945B2283E00E94E12C80E090E085
:10458000089580913606089580913606811101C004
:10459000089582E080933C0680913B06807F836093
:1045A00080933B0687E396E00E94D00504C087E332
:1045B00096E00E94D00561E087E396E00E94210525
:1045C0008111F5CF8BE194E00E949528109234067A
:1045D000109235061092360680E00C942F180F9337
:1045E0001F93CF938C0180913606882361F182E07E
:1045F00080933C0680913B06807F836080933B06DE
:1046000087E396E00E94D00504C087E396E00E940D
:10461000D00561E087E396E00E942105C82F811153
:10462000F4CF8BE194E00E9495281092340610920A
:1046300035061092360680E00E942F188C2FCF91FD
:104640001F910F9108950E94C22CC82F81114DC057
:10465000F8018081807F8038A1F184818F7084305F
:1046600009F449C0853051F78AE0809333068BE422
:1046700094E00E94952886E0F801A7E3B6E0019057
:104680000D928A95E1F781E0809336060E942F18FB
:1046900080914B0690914C06A0914D06B0914E062C
:1046A0004E96A11DB11D80932F0690933006A093C6
:1046B0003106B0933206C1E08C2FCF911F910F913C
:1046C0000895F80183818F7090E00897079708F0AC
:1046D000B5CF8481282F22952F7030E021503109E9
:1046E0002730310508F4BACFA9CF88E294E00E94C0
:1046F0009528C0E0A3CF89E080933306B8CF0F930D
:104700001F93CF93DF93D0913606DD2321F0C09124
:104710004206CC2339F0C1E08C2FDF91CF911F915D
:104720000F9108950E94C22C81116CC010E00E946C
:10473000C22C082F882329F0809133068A3009F48F
:104740008EC080913506811164C08091340681113C
:104750006AC0109335061111C8C0109234068091BA
:104760002F0690913006A0913106B091320640910B
:104770004B0650914C0660914D0670914E06841781
:104780009507A607B70790F040914B0650914C064D
:1047900060914D0670914E06415E5F4F6F4F7F4FA7
:1047A000481759076A077B0708F0B5CF809136068E
:1047B000882309F4B1CF82E080933C0680913B06C8
:1047C000807F836080933B0687E396E00E94D0055C
:1047D00004C087E396E00E94D00561E087E396E09D
:1047E0000E9421058111F5CF8BE194E00E9495286C
:1047F00010923406109235061092360680E00E9420
:104800002F188ACF11E080913306893009F08ECFBE
:104810008ECF10933506112309F443C080913406DE
:10482000882309F478CF1092340682E080933C0606
:1048300080913B06807F836080933B0687E396E010
:104840000E94D00504C087E396E00E94D00561E095
:1048500087E396E00E9421058111F5CF5CCF1123FB
:1048600009F469C080913606882309F455CF82E0A7
:1048700080933C0680913B06807F836080933B065B
:1048800087E396E00E94D00504C087E396E00E948B
:10489000D00561E087E396E00E9421058111F5CF04
:1048A000A3CFC0E082E080933C0680913B06807FEE
:1048B000836080933B0687E396E00E94D00504C0A6
:1048C00087E396E00E94D00561E087E396E00E94CE
:1048D00021058111F5CF80913406882309F41BCF7F
:1048E000C0933406C11117CFA0CF10923C0680911F
:1048F0003B06807F896080933B0687E396E00E94B9
:10490000D00561E087E396E00E94210580914B0687
:1049100090914C06A0914D06B0914E064E96A11D69
:10492000B11D80932F0690933006A0933106B0936B
:104930003206CD2FF1CE80913506811133C08091A2
:104940003406882321F081E080933406E4CE10926F
:10495000350681E08093340610923C0680913B0638
:10496000807F8A6080933B0687E396E00E94D005B3
:1049700061E087E396E00E94210580914B069091CB
:104980004C06A0914D06B0914E064E96A11DB11D4C
:1049900080932F0690933006A0933106B093320691
:1049A000C02FBACE10923506C1E07CCFFC018081C9
:1049B0009181A281B381B23C20F08058924AA149F2
:1049C000B44BBC01CD016059794A8D4E984D20E819
:1049D0003AE349E050E00E94C633DA01C901880F8A
:1049E000991FAA1FBB1F880F991FAA1FBB1F880FE3
:1049F000991FAA1FBB1F821B930BA40BB50BBC01F5
:104A0000CD01660F771F881F991F660F771F881FBC
:104A1000991F25EB35E040E050E00E94C633683531
:104A2000734018F480E19EE0089580E090E00895DE
:104A300080E19EE00895FC0180819181A281B38193
:104A4000B23C20F08058924AA149B44BBC01CD0140
:104A50006059794A8D4E984D20E83AE349E050E09C
:104A60000E94C633DA01C901880F991FAA1FBB1F14
:104A7000880F991FAA1FBB1F880F991FAA1FBB1F52
:104A8000821B930BA40BB50BBC01CD01660F771FE6
:104A9000881F991F660F771F881F991F25EB35E028
:104AA00040E050E00E94C6336835734018F480E15E
:104AB0009EE0089580E090E008950F931F93CF93B8
:104AC000DF93CDB7DEB760970FB6F894DEBF0FBEA9
:104AD000CDBF8C0180E090E00E94B9046D877E8795
:104AE0008F87988BBE016F5F7F4FCE010D960E941E
:104AF0009130B801CE0101960E94623284E5F8013E
:104B0000828781E060960FB6F894DEBF0FBECDBFFE
:104B1000DF91CF911F910F9108950F931F93CF9322
:104B2000DF93CDB7DEB7A0970FB6F894DEBF0FBE08
:104B3000CDBFFC0101900020E9F79F01245131090C
:104B40002817390761F080E0A0960FB6F894DEBF11
:104B50000FBECDBFDF91CF911F910F910895BC0182
:104B600043E150E0CE0101960E94103A1C8A8E016A
:104B70000B5E1F4F8CE0F80111928A95E9F767E50B
:104B800074E0CE0101960E94EE390097E1F20E9496
:104B9000C7398C5697409C8F8B8F67E574E080E017
:104BA00090E00E94EE39009771F20E94C73981505F
:104BB0008A8F69E574E080E090E00E94EE3900970A
:104BC00011F20E94C739888F60EF73E080E090E0B7
:104BD0000E94EE39009709F4B6CF0E94C7398F8B37
:104BE00060EF73E080E090E00E94EE39009709F4F6
:104BF000AACF0E94C7398E8B6EE171E080E090E011
:104C00000E94EE39009709F49ECF0E94C7398D8B20
:104C10008FEF9FEF98A38F8FC8010E94F730611527
:104C200071058105910509F48ECF22E020933107AB
:104C30000E94693381E088CF20E030E041E655E40E
:104C40006091D4077091D5078091D6079091D707CE
:104C50000E94D8360E9436350E9472338091D80760
:104C6000823081F0833051F0813021F080E090E09B
:104C70000C94643186ED94E20C94643188E195E201
:104C80000C9464318BE195E20C9464312830E0F0AF
:104C900027502830C8F450E0CA0101970797A0F4C4
:104CA000FA01EF5CF84F808190E02150AC0102C026
:104CB000559547952A95E2F7CA018170992740FFDB
:104CC00006C084E690E008958FEF9FEF0895089561
:104CD0008F929F92AF92BF92EF92FF920F931F938A
:104CE000CF93DF933FEF320F373008F46EC0283098
:104CF000B8F5C0E0D0E00430D1F1053009F47BC054
:104D0000042F10E0EE24EA94FE2CC80101978730AE
:104D1000910508F05AC0209709F457C02FEFE2160A
:104D2000F20609F455C0FC01EE5CF84F219781E0D2
:104D300090E001C0880FCA95EAF7EF2809F441C056
:104D40009081892B80838FEF9FEFDF91CF911F910F
:104D50000F91FF90EF90BF90AF909F908F9008952C
:104D60002750283090F5C22FD0E0043031F624E6E9
:104D7000E22EF12C042F4B015C018CE594E00E94A3
:104D8000952840E0C501B4010E9441298BE694E0DA
:104D90000E94952810E0C8010E94C42B8FE694E081
:104DA0000E949528CE010E94C42B83E794E00E94C4
:104DB0009528C7010E94C42B85EE91E00E9495289A
:104DC000A4CF80959081892380838FEF9FEFBDCF03
:104DD000F801EF5CF84F208130E0219702C0359553
:104DE0002795CA95E2F7C9018170992720FFADCFB9
:104DF00084E690E0AACFE12CF12CBCCF0F931F9357
:104E0000CF93DF93EC018C010A5F1F4F61E0899122
:104E10000E94D028C017D107C9F7DF91CF911F9109
:104E20000F910C948A288F929F92AF92BF92CF924B
:104E3000DF92EF92FF920F931F93CF93DF93CDB743
:104E4000DEB760970FB6F894DEBF0FBECDBF6C0122
:104E5000162F80E1E0E2F1E0DE01119601900D9263
:104E60008A95E1F787E794E00E949528D601149689
:104E70008C910E94FC2B8DE794E00E949528F6010E
:104E800085810E94FC2B8FE794E00E949528D60133
:104E90001696EC91E770F0E0EE0FFF1F81E090E0D6
:104EA0008C0F9D1FE80FF91F808191810E9495282A
:104EB00080E894E00E949528D60112968C910E9479
:104EC000FC2B80EF93E00E949528F60181810E94DF
:104ED000FC2B80EF93E00E949528D6018C910E94D4
:104EE000FC2BF601878182FD78C00E948A2811116F
:104EF00061C0D60117968C9187FD79C080FD72C084
:104F000080EB94E00E9495285601F9E0AF0EB11CA9
:104F100076018DE2E80EF11C450188E0880E911CB7
:104F20008501D80111968C910E94FC2B80EF93E0B3
:104F30000E949528F80180810E94FC2B8CE691E06C
:104F40000E9495280E5F1F4F8016910651F70E9410
:104F50008A28F9E0AF0EB11CEA14FB04E9F68DEBE8
:104F600094E00E949528560199E9A90EB11C6701A9
:104F700088E0C80ED11C8701D80111968C910E943F
:104F8000FC2B80EF93E00E949528F80180810E941D
:104F9000FC2B8CE691E00E9495280E5F1F4F0C15AC
:104FA0001D0551F70E948A28F9E0EF0EF11CEA1462
:104FB000FB04E9F660960FB6F894DEBF0FBECDBFD6
:104FC000DF91CF911F910F91FF90EF90DF90CF90E5
:104FD000BF90AF909F908F90089583E894E00E94D7
:104FE000952883CF8DE994E00E94952889CF88E8A1
:104FF00094E00E949528F601878180CF0F931F933C
:10500000CF93DF9300D01F92CDB7DEB7182F40E1CA
:10501000BE016F5F7F4F90E00E94463A107FE1F142
:10502000A7EAB1E08C91E0913D07F0913E0788231B
:10503000D1F1309789F08D010F5F1F4F09950196CF
:1050400071F1F80181918F01882349F1E0913D07C9
:10505000F0913E07309791F78981811115C0E0E00A
:10506000F0E0309789F00DE611E08CE209950196A9
:1050700059F0F80181918F01882331F0E0913D07CB
:10508000F0913E07309791F70F900F900F90DF91BE
:10509000CF911F910F910895A6EEB4E0C3CFE09198
:1050A0003D07F0913E0789818823D9F2309761F35B
:1050B0008E010E5F1F4F0995019699F0F8018191BD
:1050C0008F01882371F0E0913D07F0913E07309702
:1050D00091F70F900F900F90DF91CF911F910F914B
:1050E0000895E0913D07F0913E07BBCFE0913D0769
:1050F000F0913E07309709F009948FEF9FEF0895E4
:10510000E0913B07F0913C07309709F009948FEF4D
:105110009FEF0895E0913D07F0913E07309711F021
:105120008AE009948FEF9FEF0895CF93DF93EC010E
:1051300088818823C1F0E0913D07F0913E073097C8
:1051400069F021960995019649F08991882359F0D3
:10515000E0913D07F0913E073097A1F78FEF9FEF69
:10516000DF91CF91089580E090E0DF91CF91089595
:10517000CF93DF93EC01FE018491882361F0E091ED
:105180003D07F0913E07309709F009952196FE0101
:1051900084918111F4CF80E090E0DF91CF91089568
:1051A000FF920F931F93CF93DF9300D01F92CDB741
:1051B000DEB7182FF62E40E1BE016F5F7F4F90E003
:1051C0000E94463A107F09F059C0A6EEB4E08C91D7
:1051D0008823C9F1E0913D07F0913E07309789F0AF
:1051E0008D010F5F1F4F0995019669F1F8018191BB
:1051F0008F01882341F1E0913D07F0913E07309700
:1052000091F7FF20B9F0E0913D07F0913E0730970C
:1052100089F00DE611E08CE20995019659F0F8014C
:1052200081918F01882331F0E0913D07F0913E0795
:10523000309791F70F900F900F90DF91CF911F91C2
:105240000F91FF90089589818823D9F2E0913D075D
:10525000F0913E073097A9F28E010E5F1F4F09951E
:10526000019679F2F80181918F01882351F2E09142
:105270003D07F0913E07309791F7C3CFA7EAB1E021
:10528000A6CF8F929F92AF92BF92FF920F931F93E0
:10529000CF93DF93CDB7DEB72A970FB6F894DEBF72
:1052A0000FBECDBF4B015C01F42E20E1AE014F5F7C
:1052B0005F4F0E945C3AD501C401807F892B8A2B05
:1052C0008B2BD9F1D501C4018827892B8A2B8B2BF5
:1052D00009F494C0D501C4018827907F892B8A2BBB
:1052E0008B2B09F48EC0D501C40188279927892BFF
:1052F0008A2B8B2B09F488C0D501C40188279927F4
:10530000A07F892B8A2B8B2B09F481C0D501C40186
:1053100088279927AA27892B8A2B8B2B09F47AC0F7
:1053200088249924AA2420EFB22289288A288B284D
:1053300009F473C0A7EAB1E002C0AEEFB4E08C910B
:10534000882309F440C0E0913D07F0913E07309773
:1053500089F08D010F5F1F4F09950196A1F1F801AA
:1053600081918F01882379F1E0913D07F0913E070B
:10537000309791F7FF20B9F0E0913D07F0913E079B
:10538000309789F00DE611E08CE20995019659F00D
:10539000F80181918F01882331F0E0913D07F09170
:1053A0003E07309791F72A960FB6F894DEBF0FBEEE
:1053B000CDBFDF91CF911F910F91FF90BF90AF9024
:1053C0009F908F90089589818823A1F2E0913D07F5
:1053D000F0913E07309771F28E010E5F1F4F0995D5
:1053E000019641F2F80181918F01882319F2E09131
:1053F0003D07F0913E07309791F7BCCFA5EFB4E0A1
:105400009ECFAFE0B5E09BCFA8E0B5E098CFAFEE80
:10541000B4E095CFAAEEB4E092CFA6EEB4E08FCF81
:10542000FF920F931F93CF93DF93CDB7DEB72C97E7
:105430000FB6F894DEBF0FBECDBFF42E2AE0AE014A
:105440004F5F5F4F0E945C3A89818823B9F0E091F9
:105450003D07F0913E07309789F08E010E5F1F4F98
:105460000995019659F0F80181918F01882331F057
:10547000E0913D07F0913E07309791F7FF20B9F09A
:10548000E0913D07F0913E07309789F00DE611E07D
:105490008CE20995019659F0F80181918F018823DA
:1054A00031F0E0913D07F0913E07309791F72C964F
:1054B0000FB6F894DEBF0FBECDBFDF91CF911F9125
:1054C0000F91FF900895FF920F931F93CF93DF9357
:1054D000CDB7DEB72A970FB6F894DEBF0FBECDBFAB
:1054E000F62E4AE0BE016F5F7F4F0E94463ADC0114
:1054F0008C918823B9F0E0913D07F0913E073097F9
:1055000089F08D010F5F1F4F0995019659F0F80141
:1055100081918F01882331F0E0913D07F0913E07A2
:10552000309791F7FF20B9F0E0913D07F0913E07E9
:10553000309789F00DE611E08CE20995019659F05B
:10554000F80181918F01882331F0E0913D07F091BE
:105550003E07309791F72A960FB6F894DEBF0FBE3C
:10556000CDBFDF91CF911F910F91FF9008952F92A2
:105570003F924F925F926F927F928F929F92AF92E3
:10558000BF92CF92DF92EF92FF920F931F93CF9330
:10559000DF93CDB7DEB72C970FB6F894DEBF0FBE02
:1055A000CDBF4B015C018A010E9436352B013C01C5
:1055B0001B014AE0BE016F5F7F4FC2010E94463A65
:1055C000DC018C91E0913D07F0913E07882309F4BE
:1055D00095C03097A1F07D012FEFE21AF20A0995EC
:1055E000019609F487C0F70181917F01882309F4AE
:1055F00081C0E0913D07F0913E07309781F7B201FD
:10560000550C880B990B0E946E359B01AC01C501AE
:10561000B4010E944D346B017C0137FC75C020E061
:1056200030E040E85FE361E070E080E090E0101679
:1056300011060CF520E030E0DC01CB01880F991F4A
:10564000AA1FBB1F2C013D01440C551C661C771C76
:10565000440C551C661C771CBC01CD01640D751DE6
:10566000861D971D2F5F3F4F0217130729F70E94D2
:105670006E359B01AC01C701B6010E94D8360E946D
:105680003D352AE0AE014F5F5F4F0E945C3A898151
:105690008823B9F0E0913D07F0913E07309789F0FB
:1056A0008E010E5F1F4F0995019659F0F801819107
:1056B0008F01882331F0E0913D07F0913E0730974C
:1056C00091F72C960FB6F894DEBF0FBECDBFDF91D9
:1056D000CF911F910F91FF90EF90DF90CF90BF90EF
:1056E000AF909F908F907F906F905F904F903F9082
:1056F0002F900895E0913D07F0913E07309709F40F
:105700007ECF8EE209957BCF20E030E040E85FEB72
:105710006FEF7FEFCB018BCF0F931F93CF93DF936F
:10572000CDB7DEB72D970FB6F894DEBF0FBECDBF55
:105730009A01AE014F5F5F4F0E94513ADC018C919C
:105740008823B9F0E0913D07F0913E07309789F04A
:105750008D010F5F1F4F0995019659F0F801819156
:105760008F01882331F0E0913D07F0913E0730979B
:1057700091F72D960FB6F894DEBF0FBECDBFDF9127
:10578000CF911F910F9108950F931F93CF93DF93A4
:10579000CDB7DEB72A970FB6F894DEBF0FBECDBFE8
:1057A0004AE0BE016F5F7F4F0E94463ADC018C9158
:1057B0008823B9F0E0913D07F0913E07309789F0DA
:1057C0008D010F5F1F4F0995019659F0F8018191E6
:1057D0008F01882331F0E0913D07F0913E0730972B
:1057E00091F72A960FB6F894DEBF0FBECDBFDF91BA
:1057F000CF911F910F910895FF920F931F93CF9315
:10580000DF93CDB7DEB72A970FB6F894DEBF0FBE91
:10581000CDBFF82E82958F7040E1BE016F5F7F4F44
:1058200090E00E94463ADC018C918823B9F0E09127
:105830003D07F0913E07309789F08D010F5F1F4FB4
:105840000995019659F0F80181918F01882331F073
:10585000E0913D07F0913E07309791F78F2D8F70C3
:1058600040E1BE016F5F7F4F90E00E94463ADC014D
:105870008C918823B9F0E0913D07F0913E07309775
:1058800089F08D010F5F1F4F0995019659F0F801BE
:1058900081918F01882331F0E0913D07F0913E071F
:1058A000309791F72A960FB6F894DEBF0FBECDBFA2
:1058B000DF91CF911F910F91FF9008950F931F9348
:1058C000CF93DF931616170654F4EC018C01060FE4
:1058D000171F89910E94FE27C017D107D1F7E091C9
:1058E0003D07F0913E07309731F08AE0DF91CF918C
:1058F0001F910F910994DF91CF911F910F910895FE
:105900006FEF7FEFCB010E94A32C0E94BE2C609111
:10591000C8077091C9078091CA079091CB070E9470
:105920005D2D0E94402E87E09DE290933E0780937C
:105930003D078BE39DE290933C0780933B070E94D9
:10594000F92E7894089541E450E064E070E084EC2E
:1059500097E00C94C23A41E450E064E070E084ECDB
:1059600097E00C94D23A89B182FB882780F9089598
:10597000811102C02B9808952B9A08955298239A6A
:105980002B98089580E008950E94802C87E195E08F
:105990000E9495280E94AB2283B7816083BF8895BF
:1059A00083B78E7F83BF0E94D421F6CF98E088E131
:1059B0000FB6F894A895809360000FBE9093600096
:1059C000FFCF579A579A569A482F50E0440F551FC9
:1059D00090E012C05F9A5E9A5F9A292F30E02417F8
:1059E0003507A4F42FEF34E38CE0215030408040A1
:1059F000E1F700C000009F5F90FDECCF5F985E98DC
:105A00005F98292F30E02417350764F3089520911B
:105A100007089091220830E02F5F3F4F29272F7011
:105A20003327232B41F493B7916093BF889593B7A5
:105A30009E7F93BFECCF209107089091220830E021
:105A40002F5F3F4F29272F703327232B89F0909109
:105A500007089F5F90930708E0910708EF70F0E058
:105A6000EF5EF74F80838091C10080628093C10018
:105A700080E090E0089590910508809106088927BC
:105A80008770C1F09091050880910608892787707A
:105A900019F480E090E00895809106088F5F80936C
:105AA0000608E0910608E770F0E0E75FF74F8081B5
:105AB00090E008958FEF9FEF08954F925F926F925D
:105AC0007F928F929F92AF92BF92CF92DF92EF928E
:105AD000FF920F931F93CF93DF9300D000D000D09D
