:100000000C9420040C9449040C9449040C94490465
:100010000C9449040C9449040C9449040C9449042C
:100020000C9449040C9449040C9449040C94B62B88
:100030000C9449040C9449040C9449040C9449040C
:100040000C9449040C9449040C947A2B0C94472B7F
:100050000C9449040C9449040C9449040C944904EC
:100060000C9449040C944904072C7AA5BA6CC590E9
:10007000DA3B9365FC8BBC53F810FD3C5692834DE4
:10008000BD879D3AB63DCBC9BF5BBE73DA0FC93F92
:1000900005A84CCDB2D44EB93836A9020C50B9914E
:1000A0008688083CA6AAAA2ABE000000803F737971
:1000B0006E7461783A20636F6D6D616E64206F704D
:1000C00074696F6E3D76616C7565202E2E2E3B0A2D
:1000D000636F6D6D616E6473206172653A200074A8
:1000E000797065202768656C7020636F6D6D616E37
:1000F000643B2720206F72202768656C7020616C3C
:100100006C3B270A636F6D6D616E6473206172656D
:100110003A20006461696C793D5420202020202021
:100120002020656E61626C6573206461696C792062
:1001300074696D65722E20542069732075702F6468
:100140006F776E206C696B6520303733302D206FF0
:1001500072203037333032303030206F72202D3201
:100160003030302020666F722075702030373A337F
:100170003020616E642F6F7220646F776E20323092
:100180003A30300A7765656B6C793D545454545459
:10019000545420656E61626C6573207765656B6C85
:1001A000792074696D65722E2054206C696B65200E
:1001B0007769746820276461696C7927206F7220E1
:1001C000272B2720746F20636F7079207468652057
:1001D00054206F6E20746865206C6566742E20282C
:1001E0007765656B6C793D303733302D2B2B2B2B9E
:1001F000303930302D2B290A617374726F5B3D4E9C
:100200005D202020202020656E61626C6573206176
:100210007374726F206175746F6D617469632E20E1
:100220004E20697320746865206F6666736574205C
:10023000746F20636976696C206475736B20696ED6
:10024000206D696E757465732E2043616E20626542
:1002500020706F7374697665206F72206E656761B8
:10026000746976652E0A73756E2D6175746F202022
:100270002020202020656E61626C65732073756E8E
:10028000206175746F6D617469630A72616E646F69
:100290006D202020202020202020656E61626C656A
:1002A000732072616E646F6D206175746F6D61741F
:1002B00069632E2073687574746572206F70656E43
:1002C0007320616E6420636C6F73657320617420AA
:1002D00072616E646F6D2074696D65732E0A72743D
:1002E000632D6F6E6C7920202020202020646F6E9B
:1002F0002774206368616E67652074696D65727329
:100300002E206F6E6C792075706461746520696E43
:100310007465726E616C207265616C2074696D65C4
:1003200020636C6F636B0A612C206720616E642010
:100330006D3A202020206C696B6520696E20736502
:100340006E6420636F6D6D616E640A72733D283058
:100350007C317C322920202020207265616420625B
:1003600061636B2073617665642074696D657220CA
:10037000646174612E2069662073657420746F2037
:10038000322C2072657475726E20616E7920646102
:100390007461206D61746368696E67206720616EA7
:1003A00064206D20652E672E206D3D302028616E03
:1003B00079206D656D6265722920696E737465615F
:1003C00064206F66206D3D320A007072696E743D64
:1003D000287274637C6375290A0063753D2849445B
:1003E0007C6175746F292020202020362D64696778
:1003F000697420686578204944206F662043656EE3
:100400007472616C2D556E69742E206175746F3A2B
:10041000206361707475726520494420776974683F
:1004200020636F6E6E65637465642052462072654A
:100430006365697665720A7274633D49534F5F5410
:10044000494D452020202020287274633D323031F0
:10045000372D31322D33315432333A35393A35393B
:10046000290A626175643D4E202020202020202032
:1004700020202073657269616C206261756420724E
:100480006174652028626175643D333834303029E9
:100490000A6C6F6E6769747564653D4445430A6C08
:1004A000617469747564653D4445430A74696D659A
:1004B0002D7A6F6E653D4E2020202020202065780B
:1004C000616D706C653A20636F6E66696720206CA1
:1004D0006F6E6769747564653D2D31332E32333428
:1004E0003532206C617469747564653D2B35322E2C
:1004F00033343233342074696D652D7A6F6E653D07
:100500002B312E303B0A6473743D2865757C307C3A
:1005100031292020202020206461796C696768746B
:1005200020736176696E672074696D653A20617524
:10053000746F6D617469633A2065753D6575726F9E
:1005400070652E206D616E75616C6C793A20303D5E
:100550006F66662C20313D6F6E0A766572626F732E
:10056000653D28302E2E35292020202073657420EB
:1005700074657874206F7574707574207665726216
:100580006F73697479206C6576656C3A20302066EB
:100590006F72206E6F6E65202E2E2E203520666FB6
:1005A00072206D6178290A7365742D70773D7061D2
:1005B0007373776F726420202073657420612063E9
:1005C0006F6E6669672070617373776F72642E2037
:1005D00069662073657420657665727920636F6E35
:1005E00066696720636F6D6D616E6473206E65650B
:1005F000647320746865207077206F7074696F6E03
:100600000A70773D505720202020202020202020D5
:100610002020206578616D706C653A20636F6E668E
:1006200069672070773D6D795F70617373772064BF
:1006300073743D65753B0A72657374617274202032
:100640002020202020202020207265737461727485
:10065000204D43550A00613D28307C494429202023
:100660002020686578204944206F662073656E6499
:100670006572206F722072656365697665722E20DF
:1006800030202864656661756C7429207573657304
:10069000202763752720696E20636F6E6669670A7D
:1006A000673D5B302D375D202020202067726F75FD
:1006B00070206E756D6265722E203020286465662C
:1006C00061756C742920616464726573736573204D
:1006D000616C6C2067726F7570730A6D3D5B302DB5
:1006E000375D202020202067726F7570206D656D4A
:1006F0006265722E2030202864656661756C7429ED
:100700002061646472657373657320616C6C206D25
:10071000656D626572730A633D636F6D6D616E64D2
:10072000202020436F6D6D616E6420746F207365AF
:100730006E642E204F6E65206F663A2075702C20F7
:10074000646F776E2C2073746F702C2073756E2D10
:10075000646F776E2C2073756E2D696E73742C2008
:100760007365740A723D4E20202020202020202016
:1007700052657065617465642073656E64696E6747
:1007800020666F722062657474657220726563659D
:100790007074696F6E2E2053656E642074686520D6
:1007A000636F6D6D616E6420312B4E2074696D65D1
:1007B000735345505B3D307C315D20202053776979
:1007C00074636820746F20656E61626C6520656E6D
:1007D000642D706F736974696F6E2061646A7573DC
:1007E000746D656E742E20486F6C6420686172644D
:1007F0007761726520627574746F6E20746F20610A
:10080000646A75737420656E6420706F73697469AF
:100810006F6E2028657370383236363A20677069FB
:100820006F302F666C61736820627574746F6E2010
:100830006F6E206D696E6920626F6172647329004A
:1008400011241FBECFEFD8E0DEBFCDBF14BE0FB660
:10085000F894A89580916000886180936000109260
:1008600060000FBE15E0A0E0B1E0E0EBFDE602C0E5
:1008700005900D92A837B107D9F728E0A8E7B5E0B1
:1008800001C01D92A034B207E1F70E94F8290C9430
:10089000D6360C9400008F938FB78F93F894809185
:1008A00024088F5F80932408809125088F4F8093C0
:1008B0002508809126088F4F80932608809127086D
:1008C0008F4F809327088F918FBF8F910895CF937B
:1008D0008091460681113DC080914C061816ACF5FA
:1008E00080914B068F708330C1F180914606811153
:1008F0002CC081E00E941716C82F882331F1809107
:100900004C06815080934C0685E0E7E4F6E0ADE8C4
:10091000B6E001900D928A95E1F761E08DE896E0EE
:100920000E94A71B8091DD0781111CC08CE090E024
:1009300090934E0680934D0681E08093460680E0BA
:100940000E9417168C2FCF910895C1E08C2FCF9164
:100950000895C0E08C2FCF91089587E496E00E941F
:10096000C123C3CF80E391E00E94202661E08DE89F
:1009700096E00E94591DDACF0F931F93CF93DF9318
:100980008C01D62F80914606811136C001151105C4
:1009900031F080914C06181614F410924C0681E048
:1009A0000E941716C82F882339F1D130E9F185E06C
:1009B000F801ADE8B6E001900D928A95E1F76D2F50
:1009C0008DE896E00E94A71B8091DD0781111BC076
:1009D000D23039F180E591E090934E0680934D0638
:1009E00081E08093460680E00E9417168C2FDF91ED
:1009F000CF911F910F910895C0E08C2FDF91CF917F
:100A00001F910F91089580E391E00E94202680912C
:100A1000DD07823040F16D2F8DE896E00E94591D70
:100A2000D7CF8EE190E0D8CF0115110511F186E006
:100A3000F801A7E4B6E001900D928A95E1F785E010
:100A4000F801ADE8B6E001900D928A95E1F761E01A
:100A50008DE896E00E94A71B8091DD07811111C0EF
:100A60008CE090E0B9CF61E08DE896E00E94591DDE
:100A7000AFCF80914C06815080934C0607E416E07E
:100A8000DECF80E391E00E94202661E08DE896E0D1
:100A90000E94591DE5CF2F923F924F925F926F9225
:100AA0007F928F929F92AF92BF92CF92DF92EF92FE
:100AB000FF920F931F93CF93DF93CDB7DEB76A9763
:100AC0000FB6F894DEBF0FBECDBF8C01072E000C11
:100AD000880B990B0E943D3120E030E040E752E462
:100AE0000E9493306D8B7E8B8F8B988F180188E0DE
:100AF000280E311CD801AC58BF4FBA8FA98F8AEE8F
:100B0000882E86E6982E8BEDA82E8DEBB82E85E8E4
:100B10009BEBACE0BEEB898B9A8BAB8BBC8B80EDF7
:100B20009BEEAAE6BFE38D879E87AF87B88B86E6EC
:100B300093E7ABECBEEB89879A87AB87BC8780E0F5
:100B400090E8A1EBB3E48D839E83AF83B8878101E6
:100B5000085011092BED3FE049E450E46091CD07C6
:100B60007091CE078091CF079091D0070E94833279
:100B700020E030E044E353E40E9493306B017C01B9
:100B80000E94F0322B013C01C701B6010E948E3059
:100B90006B017C0129853A854B855C85C301B201D7
:100BA0000E9483329B01AC0165E073E186ED9DEB11
:100BB0000E9421302B013C012D853E854F855889AF
:100BC000C701B6010E9483329B01AC01C301B2018F
:100BD0000E9493300E94103020E030E040E451E465
:100BE0000E9483322BED3FE049E450E40E949330B1
:100BF00020E030E040E451E40E9422306B017C01AF
:100C000020EA3AE14FE25EEB69897A898B899C8917
:100C10000E9483322B013C0121E834E045E05EE391
:100C2000C501B4010E9483329B01AC01C301B20132
:100C30000E9421309B01AC01C701B6010E94213006
:100C40006B017C0120E030E040E751E46091C9078E
:100C50007091CA078091CB079091CC070E94933086
:100C60009B01AC01C701B6010E9421306B017C01E0
:100C70002091D1073091D2074091D3075091D407EA
:100C80006D897E898F89988D0E9422309B01AC01ED
:100C9000C701B6010E942230AE014F5F5F4F0E9434
:100CA0004F326B017C010F3F9FEF190761F06981A3
:100CB0007A818B819C810E940C31862F0E94FE1FBD
:100CC000D80111968C930115110581F020E030E0D8
:100CD00040E752E4C701B6010E9483320E940C3102
:100CE000862F8E7F0E94FE1FF801808320E030E077
:100CF00040E850E46D817E818F8198850E9422308A
:100D00006D837E838F8398870E5F1F4F2016310679
:100D100009F45AC00E940531CB016EE671E00E94D1
:100D2000862FBC01990F880B990B0E943D316B01F6
:100D30007C0128E03CE240EA52E40E94213024E7B2
:100D40003EE74AE85CE30E9483320E94F0322CEFD7
:100D500039EA41ED5EE30E9483324B015C010E945F
:100D6000F03269877A878B879C87C501B4010E941E
:100D70008E306D877E878F87988B23E039E04AE03D
:100D80005DE3C701B6010E9483322BE734E14EEEEA
:100D90005EE30E9422300E94F032698B7A8B8B8B4B
:100DA0009C8B2BE134E642E95CE3C701B6010E946B
:100DB000833221E338E04CE25EE30E9421300E945E
:100DC000F0324B015C01C6CEF9E02F0E311C898D4B
:100DD0009A8D2816390609F45EC06D817E818F8157
:100DE00098850E940531CB016EE671E00E94862F46
:100DF000BC01990F880B990B0E943D316B017C015E
:100E000028E03CE240EA52E40E94213024E73EE739
:100E10004AE85CE30E9483320E94F0322CEF39EA08
:100E200041ED5EE30E9483324B015C010E94F0328F
:100E300069877A878B879C87C501B4010E948E30B1
:100E40006D877E878F87988B23E039E04AE05DE3EA
:100E5000C701B6010E9483322BE734E14EEE5EE318
:100E60000E9422300E94F032698B7A8B8B8B9C8B94
:100E70002BE134E642E95CE3C701B6010E9483320C
:100E800021E338E04CE25EE30E9421300E94F03220
:100E90004B015C015CCE6A960FB6F894DEBF0FBEC4
:100EA000CDBFDF91CF911F910F91FF90EF90DF9019
:100EB000CF90BF90AF909F908F907F906F905F90FA
:100EC0004F903F902F9008958F929F92AF92BF9234
:100ED000CF92DF92EF92FF920F931F93CF93DF9306
:100EE000CDB7DEB764970FB6F894DEBF0FBECDBFA7
:100EF000623071050CF460C0FC01E480F580C680AE
:100F0000D780E114F10409F485C0C114D10409F4B7
:100F100081C04B018C01AA24A394B12C25C069E3A4
:100F200071E0C6010E94B235892B09F448C06DE317
:100F300071E0C6010E94B235892B09F44EC0FFEF63
:100F4000AF1ABF0A8A149B04B9F1F801E084F18456
:100F5000C284D384E114F10409F45CC00C5F1F4F18
:100F6000C114D10409F456C063E371E0C7010E94C3
:100F7000B235892BA1F287E591E00E94202680916D
:100F8000530690915406892BD9F58AE30E940126D5
:100F90008FE591E00E94202687EC94E00E942026B5
:100FA000C7010E9420268AE00E940126FFEFAF1AA7
:100FB000BF0A8A149B0449F680E090E02DC0CE0160
:100FC00001960E948922882309F4B9CFCE010196A7
:100FD0000E9420260E941526B2CF80E491E00E9454
:100FE00020266091C1077091C2078091C30790913C
:100FF000C40740E150E00E94C3280E9415269FCFFD
:1010000080E40E94012680915306909154060E942C
:10101000FB28BBCF8FEF9FEF64960FB6F894DEBF2F
:101020000FBECDBFDF91CF911F910F91FF90EF9039
:10103000DF90CF90BF90AF909F908F900895CF9208
:10104000DF92EF92FF920F931F93CF93DF936C0188
:101050007B016130710509F4D4C00CF499C001E042
:1010600010E054C0BE0180910001909101010E94E6
:10107000B235892B09F4A5C0BE018091060190917B
:1010800007010E94B235892B09F4AFC0BE018091DF
:101090000C0190910D010E94B235892B09F4A8C072
:1010A000BE0180911201909113010E94B235892BEB
:1010B00009F4A1C0BE0180911801909119010E940C
:1010C000B235892B09F49AC087E591E00E94202669
:1010D0008091530690915406892B09F068C08AE3E9
:1010E0000E9401268FE591E00E94202687EC94E083
:1010F0000E942026CE010E9420268AE00E9401261E
:101100000F5F1F4F0E151F050CF042C0F801EE0FC8
:10111000FF1FEE0FFF1FEC0DFD1DC081D1816AEA9C
:1011200071E0CE010E94B235892B09F09BCF8EEA87
:1011300090E00E944326C0E0D1E08E01F80180815A
:1011400091810E94202687EA91E00E9420260A5F72
:101150001F4FF1E00E311F0789F70E941526888185
:1011600099810E9420268EEA91E00E9420268C819F
:101170009D810E9443260E941526269681E0CE314D
:10118000D80769F706E010E00E151F050CF4BECF76
:101190008EE691E00E94202680E090E0DF91CF91E2
:1011A0001F910F91FF90EF90DF90CF90089580E412
:1011B0000E94012680915306909154060E94FB28BC
:1011C0008ECF80E090E0FC01EE0FFF1FE80FF91FCB
:1011D000EE0FFF1FE050FF4F848195810E94432650
:1011E0000E9415260F5F1F4F8DCF81E090E0EBCF5F
:1011F00082E090E0E8CF83E090E0E5CF84E090E00B
:10120000E2CF8FED90E00E944326C0E0D1E00EE1F6
:1012100011E0888199810E94202687EA91E00E944E
:10122000202626960C171D07A1F70E941526B4CF7D
:101230002F923F924F925F926F927F928F929F92E6
:10124000AF92BF92CF92DF92EF92FF920F931F93D4
:10125000CF93DF9300D000D0CDB7DEB73B01623033
:1012600071050CF41AC2FC0104811581C680D78077
:101270000115110509F4C3C09C838B83312C1A829C
:10128000212CF2E0F98344244A94542C812C912C93
:101290005401EE24E394F12C20C0C114D10409F4CC
:1012A00084C040E150E060E070E0C6010E94673316
:1012B0004B015C01FFEFEF1AFF0A6E147F0471F11E
:1012C000EB81FC81008511853496FC83EB83C6801D
:1012D000D7800115110509F492C069EB71E0C801CE
:1012E0000E94B235892BC9F261EA73E0C8010E94FD
:1012F000B235892B09F042C0C114D10409F46AC087
:10130000C6010E9472358830910508F063C0382EFE
:10131000FFEFEF1AFF0A6E147F0491F68114910417
:10132000A104B10409F41BC120917B05822F90E038
:10133000A0E0B0E0DC019927882730917D05832B60
:1013400040917C0550E0542F442760E070E0842BEE
:10135000952BA62BB72B88169906AA06BB0609F46F
:10136000E1C0B501A4018BE795E00E94A123209183
:101370007B05EBE7F5E0FC83EB83D8C06FE473E01B
:10138000C8010E94B235892BA1F4C114D10411F116
:10139000C6010E94723588309105E0F4009709F487
:1013A0008DC0E7E02E2E280E85CF812C912C540184
:1013B00081CF67EA73E0C8010E94B235892BC1F57D
:1013C000C114D10439F0C6010E94723589838B3073
:1013D00008F470CF81EC91E00E94202680915306A2
:1013E00090915406892B09F028C187EC94E00E9463
:1013F00020268BEB91E00E9420260E9415268FEF7D
:101400009FEF0F900F900F900F90DF91CF911F9152
:101410000F91FF90EF90DF90CF90BF90AF909F9093
:101420008F907F906F905F904F903F902F90089596
:101430006BE371E0C8010E94B235892B09F040C00E
:10144000C114D10439F260ED71E0C6010E94B235D9
:10145000892B09F40CC169ED71E0C6010E94B23517
:10146000892B09F401C167EC71E0C6010E94B23515
:10147000892B09F4FFC06CEC71E0C6010E94B23503
:10148000892B09F4EEC065ED71E0C6010E94B2350A
:10149000892B09F4FFC06CED71E0C6010E94B235E2
:1014A000892B09F4F4C065EE71E0C6010E94B235E3
:1014B000892B09F08FCF8DE08A83FCCE212CFACEC8
:1014C00069EE71E0C8010E94B235892B71F4C11434
:1014D000D10421F0F6018081813321F44424439426
:1014E000512CE8CE412C512CE5CE87E591E00E94AD
:1014F00020268091530690915406892B09F0A7C0AD
:101500008AE30E9401268FE591E00E94202687EC65
:1015100094E00E942026C8010E9420268AE00E94B2
:101520000126C8CE8BE795E09C838B83207F2038F3
:10153000F9F0FFEF4F165F0699F1EB81FC81848192
:10154000982F907F8A818F70892B8483452809F496
:1015500058C0CF010E94452080E090E052CF2091FA
:10156000550685E596E09C838B83207F203809F71C
:10157000EB81FC8124812F70F0E13F9EC00111249A
:10158000322E382AEB81FC8134828381982F907F20
:10159000822D8F70892B8383FFEF4F165F0669F6CC
:1015A000FA81FF2399F1EB81FC818481982F907F50
:1015B0008A818F70892B8483CF010E94C123298166
:1015C000EB81FC81258361E0CF010E94BC0488236C
:1015D000E9F081EC91E00E942026809153069091E1
:1015E0005406892B09F068C087EC94E00E942026FD
:1015F00084E393E00E9420260E94152680E090E07C
:1016000000CF0E941A2080E090E0FBCE81EC91E0B8
:101610000E9420268091530690915406892B69F5EB
:1016200087EC94E00E9420268BEB91E00E9420261C
:101630000E94152680E090E0E4CE80E40E9401261E
:1016400080915306909154060E94FB28CECE80E4F0
:101650000E94012680915306909154060E94FB2817
:101660004FCF86E08A8326CE84E08A8323CE85E02E
:101670008A8320CE83E08A831DCE80E40E940126E7
:1016800080915306909154060E94FB28C9CF88E0B0
:101690008A8310CE87E08A830DCE2091550632E0F2
:1016A000398344244A94542C212C1A82312C85E508
:1016B00096E09C838B833ACF80E40E940126809140
:1016C0005306909154060E94FB288ECF2F923F9292
:1016D0004F925F926F927F928F929F92AF92BF9242
:1016E000CF92DF92EF92FF920F931F93CF93DF93EE
:1016F00000D000D0CDB7DEB7992493942091E207B3
:101700002111912C623071050CF475C06B019C8322
:101710008B83FC01A480B58006811781A114B104DC
:1017200009F451C10115110509F44DC1EE24E394EA
:10173000F12C26C0B80182EE97E00E94B235892BC9
:1017400009F03DC18DEE91E00E9420261FEFE11AC5
:10175000F10ACE14DF0409F44EC0EB81FC81A084B1
:10176000B18402851385A114B10409F42CC1349607
:10177000FC83EB83992493940115110509F423C18B
:1017800068E972E0C5010E94B235892B99F299206F
:1017900009F4DBC16AE272E0C5010E94B235892B0F
:1017A00009F4EAC069E371E0C5010E94B235892BF2
:1017B00009F094C0C8010E94AE22811179C081EC69
:1017C00091E00E9420268091530690915406892B27
:1017D00009F031C187EC94E00E9420268BEB91E068
:1017E0000E9420260E9415261FEFE11AF10ACE144E
:1017F000DF0409F0B2CF80E090E0FCC064E972E061
:10180000C5010E94B235892B09F489C16BE972E0E8
:10181000C5010E94B235892B09F4F0C168EA72E073
:10182000C5010E94B235892B09F4F3C164EB72E063
:10183000C5010E94B235892B09F48CC16EEB72E0B0
:10184000C5010E94B235892B09F40DC267EC72E024
:10185000C5010E94B235892B09F477C261ED72E0AF
:10186000C5010E94B235892B09F0D6C265ED72E040
:10187000C8010E94B235892B19F0F1E0F093D50729
:1018800066E575E0C8010E94B235892B11F010920F
:10189000D50768ED72E0C8010E94B235892B09F4C2
:1018A000EEC203E00093D5070E943D230E94DF298A
:1018B00081EC91E00E94202680915306909154067D
:1018C000892B09F0AEC087EC94E00E94202684E3C7
:1018D00093E00E9420260E94152638CF6DE371E028
:1018E000C5010E94B235892B09F049C065E573E056
:1018F000C8010E94B235892B09F4A7C066E772E0DF
:10190000C8010E94B235892B09F0F2C060918606A9
:10191000862F90E0A0E0B0E0DC0199278827209195
:101920008806AC01BD01422B8091870690E0982F7C
:101930008827A0E0B0E08A019B01082B192B2A2BF5
:101940003B2BC901B8018C01222733270038110530
:1019500021053105C1F50093550670935606609335
:1019600057066093C1077093C2078093C307909393
:10197000C4070E94DF299CCF0E940A2AE7CE6FE7A6
:1019800072E0C5010E94B235892B09F483C067E873
:1019900072E0C5010E94B235892B09F497C06CE84A
:1019A00072E0C5010E94B235892B09F027CFC8012A
:1019B0000E9472358093DD070E94DF2979CF8AEF7C
:1019C00091E00E94202681EC91E00E9420268091E7
:1019D000530690915406892B09F06EC087EC94E071
:1019E0000E9420268BEB91E00E9420260E94152663
:1019F0008FEF9FEF0F900F900F900F90DF91CF918F
:101A00001F910F91FF90EF90DF90CF90BF90AF901C
:101A10009F908F907F906F905F904F903F902F900E
:101A2000089580E40E940126809153069091540607
:101A30000E94FB2848CF80E40E9401268091530633
:101A4000909154060E94FB28C5CE80914F0690913C
:101A50005006A0915106B0915206CC96A11DB11D21
:101A60008093890590938A05A0938B05B0938C058C
:101A700010928606809153069091540690938805A3
:101A800080938705F1E0F093850682E392E00E945F
:101A900020260ECF40E150E060E070E0C8010E94D7
:101AA0007D346093DE077093DF078093E0079093A7
:101AB000E1070E94DF29FCCE80E40E94012680918C
:101AC0005306909154060E94FB2888CF4AE050E0CC
:101AD00060E070E0C8010E947D346093C507709398
:101AE000C6078093C7079093C8070E94DF29E0CEFE
:101AF00040E150E060E070E0C8010E947D348C015C
:101B000022273327003809F05ECF892E9924AA2492
:101B1000BB2489288A288B2809F41DCF54CFF801CB
:101B200001900020E9F73197E01BF10BE031F1055E
:101B300008F045CEAF014F5F5F4FB80182EE97E0EE
:101B40000E949E350E94DF29B3CE81E192E00E947F
:101B5000202639CFF80180818D3209F482C1282FE7
:101B600060E070E0CB01412C512CF0E86F2EFFE3D8
:101B70007F2E222309F45FC00F5F1F4F622F812C3D
:101B8000912C54011A82198232C070E01B01F0E3DB
:101B90002F1A31082AE02216310420F589819A8112
:101BA000892B51F020E030E040E251E4C301B20162
:101BB0000E9493302B013C0120E030E040E251E4F0
:101BC000C501B4010E9483324B015C01B101330CA9
:101BD000880B990B0E943D31A50194010E9422308F
:101BE0004B015C01F80161918F016623F1F06E32C7
:101BF00061F6E1E0F0E0FA83E983F4CF6CE175E0AF
:101C0000C8010E94B235892B19F511E01093DA074B
:101C10004DCE6CE175E0C8010E94B235892B09F008
:101C200076C021E02093DB0741CEA3019201C501DC
:101C3000B4010E9483326093C9077093CA078093EE
:101C4000CB079093CC070E943D230E94DF2930CE22
:101C500064EA72E0C8010E94B235892B09F0AFCD69
:101C60001092DA0723CEF80180818D3209F423C166
:101C7000282F60E070E0CB01212C312C50E8452E5C
:101C80005FE3552E222309F453C00F5F1F4F622FCD
:101C9000812C912C54011A82198232C070E03B01D0
:101CA000F0E36F1A71082AE06216710420F5898149
:101CB0009A81892B51F020E030E040E251E4C201EA
:101CC000B1010E9493301B012C0120E030E040E282
:101CD00051E4C501B4010E9483324B015C01B301A0
:101CE000770C880B990B0E943D31A50194010E944D
:101CF00022304B015C01F80161918F01662391F064
:101D00006E3261F6E1E0F0E0FA83E983F4CF64EA51
:101D100072E0C8010E94B235892B09F050CD1092B3
:101D2000DB07C4CDA2019101C501B4010E94833239
:101D30006093CD077093CE078093CF079093D00721
:101D40000E943D230E94DF29B3CDF80180818D32AE
:101D500009F4BFC0282F60E070E0CB01412C512C6A
:101D600030E8632E3FE3732E222309F448C01801A4
:101D7000FFEF2F1A3F0A622F812C912C54011A82F7
:101D8000198230C070E08B01005311090A3011052F
:101D900020F529813A81232B51F020E030E040E208
:101DA00051E4C301B2010E9493302B013C0120E0B9
:101DB00030E040E251E4C501B4010E9483324B019E
:101DC0005C01B801110F880B990B0E943D31A501F0
:101DD00094010E9422304B015C01F10161911F01CD
:101DE000662339F06E3271F601E010E01A83098340
:101DF000F4CFA3019201C501B4010E948332609324
:101E0000D1077093D2078093D3079093D4070E9491
:101E10003D230E94DF294CCD87E591E00E942026DA
:101E20008091530690915406892B49F080E40E94DA
:101E3000012680915306909154060E94FB288AE364
:101E40000E9401268FE591E00E94202687EC94E015
:101E50000E942026C5010E9420268AE00E940126B9
:101E600075CC21810F5F1F4F60E070E080E090E84B
:101E7000412C512CA0E86A2EAFEB7A2E7ACE87E562
:101E800091E00E9420268091530690915406892B60
:101E900071F58AE30E9401268FE591E00E942026D9
:101EA00087EC94E00E942026C5010E9420268AE04B
:101EB0000E940126F9CC21810F5F1F4F60E070E086
:101EC00080E090E8212C312CE0E84E2EEFEB5E2EE6
:101ED000D9CE21810F5F1F4F60E070E080E090E875
:101EE000412C512C40E8642E4FEB742E3DCF80E402
:101EF0000E94012680915306909154060E94FB286F
:101F0000C8CF0E940B268F3F2FEF9207D9F08D305C
:101F10009105D9F08A309105C1F08830910509F416
:101F200041C082329105B1F020918D05222301F14B
:101F3000CB9739F710928D050E940B268F3F2FEF1C
:101F4000920729F780E090E0089510921106109210
:101F50001006D7CF20911006309111062F5F3F4F0A
:101F6000309311062093100620918D052111C9CFC1
:101F700020910E0630910F062F37310584F54091E0
:101F8000100640FD03C08B339105B9F1A9014F5FE5
:101F90005F4F50930F0640930E06F901E257FA4F38
:101FA0008083AFCF80910E0690910F06009709F4C1
:101FB000A8CF019790930F0680930E06FC01E2577D
:101FC000FA4F8081823209F09CCF80911006909167
:101FD00011060197909311068093100692CF81E02D
:101FE00080938D0580E090E010920F0610920E060F
:101FF000109211061092100608952115310539F03E
:10200000F901E257FA4F10828EE895E0EDCF80E0BB
:1020100090E0EACFEF92FF920F931F93CF93DF935D
:10202000EC01109254061092530600E010E08881F3
:10203000803241F4DE01FE013196EF011D92819163
:102040008032D9F3882309F487C07801EE0CFF1C95
:10205000EE0CFF1CF701E55AF94FD183C08388814C
:10206000982F9F7D61F08D33E9F0FE01319602C01B
:102070008D33C1F0EF018191982F9F7DC9F7F70152
:10208000E55AF94F138212820F5F1F4F0A30110574
:1020900071F68FEF9FEFDF91CF911F910F91FF901E
:1020A000EF900895188289818B3399F3803289F3F8
:1020B0008232B9F1882369F3FE013196D701A55A1E
:1020C000B94F1396FC93EE9312978981882371F090
:1020D0008032F1F18D33E1F1229604C08032C1F1FA
:1020E0008D33B1F1FE0189918111F8CFEF01C70164
:1020F000855A994F7C0163EE72E0FC0180819181E9
:102100000E94B235892B09F0BFCFF70182819381FC
:102110000E94723590935406809353060150110922
:10212000B3CFCE0102962A81222309F4B2CFF70160
:10213000E55AF94F9383828362E270E00E94A735EB
:10214000EC01892B09F4A5CF8881882381F2FE0157
:10215000EF0121961082CBCFC801DF91CF911F9163
:102160000F91FF90EF90089581EC91E00E9420265E
:102170008091530690915406892B69F487EC94E082
:102180000E9420268BEB91E00E9420260E941526BB
:102190008FEF9FEF089580E40E94012680915306FF
:1021A000909154060E94FB28E9CF0F931F93CF9381
:1021B000DF93009731F58091890590918A05A09170
:1021C0008B05B0918C050097A105B105A1F0409158
:1021D0004F06509150066091510670915206841737
:1021E0009507A607B70708F481C080918606982F47
:1021F000907F903879F180E0DF91CF911F910F911E
:10220000089540914F06509150066091510670918B
:1022100052068A019B01080F191F211D311D0093D1
:10222000890510938A0520938B0530938C051092B5
:10223000860680915306909154069093880580936A
:10224000870581E08093850680E0DF91CF911F9123
:102250000F91089590E0A0E0B0E0DC019927882775
:1022600020918806822B4091870650E0542F442706
:1022700060E070E0842B952BA62BB72BA09355061E
:1022800090935606809357068093C1079093C20798
:10229000A093C307B093C4071092890510928A05D2
:1022A00010928B0510928C058AE093E00E94202604
:1022B00081EC91E00E942026809153069091540673
:1022C000892B09F04AC08AE30E9401268FE293E03D
:1022D0000E94202687EC94E00E9420260E9415266A
:1022E0000E94DF291092850681E086CFC0915306B7
:1022F000D09154061092890510928A0510928B0590
:1023000010928C0587EE92E00E942026809187052E
:1023100090918805909354068093530681EC91E048
:102320000E9420268091530690915406892BF9F43F
:102330008AE30E9401268CEF92E00E94202687EC1F
:1023400094E00E9420260E941526D0935406C09344
:1023500053061092850680E04FCF80E40E9401264C
:1023600080915306909154060E94FB28ACCF80E4E4
:102370000E94012680915306909154060E94FB28EA
:10238000D7CF4F925F926F927F928F929F92AF9230
:10239000BF92CF92DF92EF92FF920F931F93CF9352
:1023A000DF9300D01F92CDB7DEB77C015B014A01FD
:1023B0001B82452B09F4A9C0FC01808120E030E09C
:1023C000882309F45BC000E010E055245A949FE094
:1023D000492E1EC0F501E20FF31F50826801FFEF86
:1023E000CF1ADF0AC814D90408F04CC0F501EC0D6F
:1023F000FD1D40828FEFE81AF80A86010F5F1F4F1C
:10240000980108151905D0F5F70180818823B1F1ED
:102410008B3209F44CC08D32E9F28983F701818156
:102420008A836801FFEFCF1ADF0AC814D90450F578
:10243000CE0101960E9472350E94EF1FF501EC0D4E
:10244000FD1D8083F701828189833701F4E06F0EDF
:10245000711CF70183818A830A0D1B1DCE01019631
:102460000E9472350E94EF1FF8018083730186017C
:102470000F5F1F4F98010815190530F281E0821691
:10248000930609F080E00F900F900F90DF91CF91AD
:102490001F910F91FF90EF90DF90CF90BF90AF9082
:1024A0009F908F907F906F905F904F900895043031
:1024B000110544F3C80104968816990618F3D5014E
:1024C000A20FB31FFD01349780818C93F8013196E0
:1024D000EA0DFB1DDF0114978C918083F801329681
:1024E000EA0DFB1DDF0114978C9180836801E3E006
:1024F000CE0ED11CF501EC0DFD1DDF0114978C9162
:102500008083FFEFEF1AFF0A78CF20E030E0B6CFEC
:102510002F923F924F925F926F927F928F929F92F3
:10252000AF92BF92CF92DF92EF92FF920F931F93E1
:10253000CF93DF93CDB7DEB7A8970FB6F894DEBF81
:102540000FBECDBFFC014B012FEF29839FE09A8383
:102550002B839C832D839E832F83988729879A873B
:102560002B879C872D879E872F87988B298B9A8B0B
:102570002B8B9C8B2D8B9E8B2F8B988F298F9A8FDB
:102580002B8F9C8F2D8F9E8F2F8F98A3623071057C
:102590000CF468C2E480F580A680B780E114F104F1
:1025A00009F4ECC08F01312C18A6FEEFFFA319A28D
:1025B000212C1BA21CA21DA21EA2612C712C1AA2EE
:1025C000512C412CCC24C394D12C21C0A114B10492
:1025D00009F4B7C04CE150E0BE016F5F7F4FC50109
:1025E0000E94C111582E4FEFC41AD40A8C149D04B6
:1025F00081F1D8011896ED90FC9019970C5F1F4F50
:10260000F801A680B780E114F10409F4B7C067E3CC
:1026100073E0C7010E94B235892BC1F26EE373E00B
:10262000C7010E94B235892B09F046C0A114B1043C
:1026300009F487C044E050E0BE01635E7F4FC501EE
:102640000E94C111482E4FEFC41AD40A8C149D0465
:1026500081F66BA17CA18DA19EA1672B682B692BB4
:1026600009F4EDC020918105822F90E0A0E0B0E058
:10267000DC019927882730918305832B40918205BF
:1026800050E0542F442760E070E0842B952BA62B5C
:10269000B72B4BA15CA16DA17EA1481759076A0712
:1026A0007B0709F44CC181E895E00E94A1232091A9
:1026B000810501E815E0C7C064E473E0C7010E942A
:1026C000B235892B59F4A114B10409F4ACC0C50189
:1026D0000E9472353C0121E02AA385CF6AE473E0B1
:1026E000C7010E94B235892B91F4A114B10441F0C5
:1026F000D5018C91803309F48FC0813309F073CFF9
:1027000079A1716079A3822D8160282E6CCF61E55B
:1027100073E0C7010E94B235892B09F04AC0A114A9
:10272000B10441F0F5018081803309F481C0813327
:1027300009F059CF99A1906899A3A22DA0682A2EDB
:1027400052CF81EC91E00E94202680915306909117
:102750005406892B49F080E40E940126809153069B
:10276000909154060E94FB2887EC94E00E9420265A
:102770008BEB91E00E9420260E9415268FEF9FEFA1
:10278000A8960FB6F894DEBF0FBECDBFDF91CF91F4
:102790001F910F91FF90EF90DF90CF90BF90AF907F
:1027A0009F908F907F906F905F904F903F902F9071
:1027B00008956AE573E0C7010E94B235892B79F468
:1027C000A114B10409F4F1C0D5018C91803309F44E
:1027D0005FC0813309F0B6C0F1E0FFA304CF69EB1D
:1027E00071E0C7010E94B235892B09F441C061EA4A
:1027F00073E0C7010E94B235892B09F0BCC0A11457
:10280000B10409F4CFC0C5010E947235883091052A
:1028100008F0C8C0382EE7CE39A1316039A3422D67
:102820004E7F242EE0CE612C712C31E03AA3DBCE1A
:1028300059A1506859A3622D6F77262ED4CE2091CE
:10284000550605E516E0207F203809F463C0D8015D
:1028500014968C918F60F8018483C8010E94C12373
:1028600081E00E941716811115C080E090E088CFAA
:10287000A114B10409F49CC040E150E060E070E0B4
:10288000C5010E9467336BA37CA38DA39EA3ABCE2F
:102890001FA2A9CE8DE896E00E94981DFFA1F130FD
:1028A00009F4A3C0511097C041108DC02AA1211175
:1028B00084C060E08DE896E00E94B31E49A1622DBD
:1028C0008DE896E00E941F1FB8018DE896E00E94F7
:1028D000C21F63E0C8010E94BC048823B1F181ECEF
:1028E00091E00E9420268091530690915406892BF6
:1028F00009F092C087EC94E00E94202684E393E0E4
:102900000E9420260E94152680E00E94171680E073
:1029100090E036CFF8018481282F2F70F0E13F9EA0
:10292000C0011124822BD80113969C911397292F53
:10293000207F98A59F70922B13969C938BCF01E8D4
:1029400015E081CFBFEFBFA34ECE81EC91E00E9496
:1029500020268091530690915406892B09F052C08D
:1029600087EC94E00E9420268BEB91E00E942026C9
:102970000E941526C9CF6FE473E0C7010E94B235EB
:10298000892B09F053C0A114B10461F0C5010E9464
:1029900072358830910530F4009729F127E0280F2F
:1029A00028A721CE0E94B410EBCEE1E0EFA31BCE0E
:1029B0001BA21CA21DA21EA216CEB3018DE896E09A
:1029C0000E94BF1F76CFBE01635E7F4F8DE896E009
:1029D0000E94B21F6BCFBE016F5F7F4F8DE896E004
:1029E0000E94811F61CF18A6FECD61E08DE896E0C0
:1029F0000E94B31E49A1622D8DE896E00E941F1F20
:102A000062E068CF80E40E94012680915306909195
:102A100054060E94FB28A4CF80E40E9401268091E6
:102A20005306909154060E94FB2864CF87E591E0FD
:102A30000E9420268091530690915406892B11F50F
:102A40008AE30E9401268FE591E00E94202687EC10
:102A500094E00E942026C7010E9420268AE00E945E
:102A60000126C1CD20915506312C512C612C712CA1
:102A7000212C19A23EEF3FA31AA2412C18A605E56E
:102A800016E0E1CE80E40E940126809153069091E9
:102A900054060E94FB28D4CF0F931F93CF93DF934C
:102AA0000E94810FEC01892B09F44BC00E9415266E
:102AB000CE010E940A108C0197FD53C00E9417207E
:102AC000892B09F093C0C0915B06D0915C066091A0
:102AD000000170910101CE010E94B235892B09F4E9
:102AE00066C06091060170910701CE010E94B23567
:102AF000892B09F46FC060910C0170910D01CE011A
:102B00000E94B235892B09F468C06091120170915E
:102B10001301CE010E94B235892B09F461C0609186
:102B2000180170911901CE010E94B235892B09F468
:102B30005AC08AED92E0DF91CF911F910F910C94D2
:102B4000202680917A05811107C08AED92E00E94CB
:102B5000202681E080937A05DF91CF911F910F911C
:102B6000089581EC91E00E94202680915306909177
:102B70005406892B91F487EC94E00E9420268BEB7D
:102B800091E00E9420260E9415268AED92E0DF91B6
:102B9000CF911F910F910C94202680E40E94012672
:102BA00080915306909154060E94FB28E4CF80E068
:102BB00090E0FC01EE0FFF1FE80FF91FEE0FFF1F63
:102BC000E050FF4F0280F381E02DB8018BE596E0E5
:102BD0000995AFCF81E090E0ECCF82E090E0E9CFC3
:102BE00083E090E0E6CF84E090E0E3CF0E941A20FB
:102BF00081EC91E00E94202680915306909154062A
:102C0000892B59F487EC94E00E94202683E693E018
:102C10000E9420260E9415268CCF80E40E94012667
:102C200080915306909154060E94FB28EBCF882395
:102C3000A1F0809132068F5F8093320604C08091AC
:102C4000DA07813041F484E690E00E94AF2B809156
:102C500031068823A1F381E00895809132068150E6
:102C60008093320681E0089510922E0610922D0670
:102C700010922F06109230061092280610921A0613
:102C80001092190610928C061092180610921706D0
:102C900086E090E090931606809315060895EF92D3
:102CA000FF920F931F93CF93DF930E94E7298093A6
:102CB000200690911F06891709F482C0811161C016
:102CC0009FEF9093270680931F0620918C06211179
:102CD00009C020914606211105C02091310622230A
:102CE00009F470C080912506909126062091320645
:102CF000222309F448C02091310621111AC01092F4
:102D00002E0610922D0610922F0610923006109269
:102D1000280610921A061092190610928C0610922C
:102D200018061092170626E030E03093160620931E
:102D3000150621E020933106019690932606809394
:102D4000250680912006882309F180912306909121
:102D500024060196909324068093230680912706EB
:102D600018160CF5109226061092250610922406CD
:102D700010922306DF91CF911F910F91FF90EF905A
:102D8000089591E09ECF10923106D6CF8091210612
:102D900090912206019690932206809321068091BD
:102DA00027061816FCF2882329F3109222061092A7
:102DB0002106DF91CF911F910F91FF90EF90089521
:102DC00090E07FCF40911B0650911C0660911D063C
:102DD00070911E06411551056105710509F44BC03E
:102DE000415051096109710940931B0650931C061B
:102DF00060931D0670931E06452B462B472BD9F575
:102E000010922E0610922D0610922F061092300668
:102E10001092280610921A061092190610928C062B
:102E2000109218061092170626E030E0309316062E
:102E300020931506913009F055CF209128068091F6
:102E4000250690912606AC0127300CF0F8C04C50B6
:102E500051094D31510508F049CF40912306509159
:102E60002406445051094131510508F03FCF2F5FEE
:102E7000209328063BCF81111FC080913006882304
:102E800009F440C19F3F09F491C090912806973002
:102E900009F028CF21E0280F2831B8F01092300631
:102EA00080912F068F5F8A30B8F480932F0680912F
:102EB0002506909126061ACF2091210630912206F0
:102EC000213F310508F09CCFD8CF80912506909105
:102ED0002606209330060ACF10922F0620912D0649
:102EE00030912E0620FDC0C08091150690911606E7
:102EF00040911706509118062F5F3F4F30932E06D2
:102F000020932D064817590708F4ECCE8F30910511
:102F100009F474C0883A910509F46CC0069709F069
:102F2000E1CE8091190690911A06892B01F58091C6
:102F30008D0691E0811190E020918E06820F211183
:102F400090E020918F06820F211190E02091900651
:102F5000820F211190E020919106820F211102C071
:102F6000911105C090919206891709F4D0C0109272
:102F70002E0610922D0610922F06109230061092F7
:102F8000280610921A061092190610928C061092BA
:102F900018061092170686E090E09093160680932C
:102FA00015068091250690912606A0CE2091230635
:102FB00030912406E0912D06F0912E06E170FF2756
:102FC000EE0FFF1FE75DF94F2C30310530F521E0A2
:102FD00030E0A90100902F0602C0440F551F0A944B
:102FE000E2F720813181242B352B3183208390918E
:102FF00028064DCF83E080938C0674CE809199068D
:1030000087FD92C088EA90E090931606809315069B
:10301000809125069091260669CE21E030E000904F
:103020002F0602C0220F331F0A94E2F72095309535
:1030300040815181242335233183208326CF4C5373
:1030400051094D33510508F051CE4091230650915E
:103050002406445051094531510508F047CE273028
:1030600009F044CE21E035CFC0911706D091180663
:10307000C357D94F0091290610912A067801FF24E1
:10308000802F0E94E11F811162C080E092E08E29B2
:103090009F290817190709F45DC000912B061091AC
:1030A0002C067801FF24802F0E94E11F882309F459
:1030B00065C080E093E08E299F290817190709F45D
:1030C00060C087E788838091190690911A0601965F
:1030D00090931A068093190640911706509118068E
:1030E00080911506909116068417950728F5209172
:1030F0002D0630912E062F5F3F4F30932E062093E2
:103100002D0604CF20912F062111BCCE93CE8091A5
:1031100091068F708F3011F181E080938C06809141
:10312000250690912606E2CD82E080938C06809160
:10313000250690912606DACD4F5F5F4F5093180613
:103140004093170620912D0630912E06D5CE80E0B3
:1031500090E09DCF809129068883BECF80918D0617
:10316000807F8038C9F68FE090E0909316068093B8
:1031700015068091250690912606B8CD80E091E055
:103180009ACF80912B068883A7CF0F931F93CF935D
:10319000DF9380914606811105C0DF91CF911F9189
:1031A0000F9108959091130691111FC02091300640
:1031B000223008F47DC0109214062F5F263008F4E8
:1031C0004DC01092300620912F062F5F233008F457
:1031D00084C010922F06982F80E090931306DF9101
:1031E000CF911F910F910C94EC29809112068111BF
:1031F00039C09091300681E0923008F080E08093F1
:1032000014069F5F943000F11092300690912F06C3
:103210009F5F973008F455C010922F0681E080938D
:10322000120680918D06C82FD0E00E94E11F811107
:103230004BC080E092E08C2B9D2B90932A068093CC
:10324000290680911406CBCF909330061092120677
:10325000DF91CF911F910F910C94EC2980E0209386
:103260003006BBCF20912F06422F50E0435051092A
:103270009091300657FD2BC0923090F0943058F565
:1032800061E070E002C0660F771F4A95E2F7409157
:10329000290650912A064623572381E0452BD9F46D
:1032A000809314069F5F9630E0F49093300697CF9A
:1032B00030912F0631117FCF31E0309314062F5F0C
:1032C000CECF90932F06C2CF80E090E0B4CF2111F3
:1032D00002C0923028F380E0E3CF20932F0680E0F5
:1032E0007CCF109230062F5F2D3018F420932F06DC
:1032F00076CF10922F06C0912D06D0912E062196E2
:10330000D0932E06C0932D0620914D0630914E0687
:10331000C217D307D8F010922E0610922D061092E5
:103320001206109213060E94EC2910924606109283
:103330002E0610922D0610922F061092300680E075
:10334000DF91CF911F910F910C94EC29FE01F6951E
:10335000E795E357F94F8081082F10E00E94E11FA5
:10336000C0FF0DC0882381F080E093E0802B912B7B
:1033700090932A06809329068091140630CF8111FC
:1033800006C080E092E0F2CF80E091E0EFCF80E0F5
:1033900090E0ECCFCF93DF93FC0190818181980F77
:1033A0008281980F8381980F8481890F9581891379
:1033B000C6C1880F613009F4C6C19681980F278174
:1033C000920F2085920F2185920F8285980F838519
:1033D000980F8485980F8585980F86859813AFC1BF
:1033E000990F623009F4AFC127858089280F818940
:1033F000280F8289280F8389280F8489280F8589BF
:10340000280F8689280F920F8789981398C1208DDD
:10341000818D820F228D820F238D820F248D820F4A
:10342000258D820F268D820F378D830F890F292FCF
:10343000280F80A1281383C191A182A1890F93A194
:10344000890F94A1890F95A1890F96A1890F97A142
:10345000890F90A5890F820F982F920F81A598133D
:103460006EC122A583A5820F24A5820F25A5820FF8
:1034700026A5820F27A5820F20A9820F21A9820FDE
:10348000890F890F92A989135AC124A993A9920F70
:1034900025A9920F26A9920F27A9920F20AD920F6E
:1034A00021AD920F22AD920F980F890F23AD2813F3
:1034B00046C195AD84AD890F96AD890F97AD890F43
:1034C000DF01A05CBF4F9C91890F11969C91890FE1
:1034D00011969C91890F11969C91890F820F820FF2
:1034E00011969C9198132BC112962C9111979C9137
:1034F000920F12962C91920F11962C91920F119679
:103500002C91920F11962C91920F11962C91920F53
:1035100011962C91920F980F890F11964C91481388
:103520000EC112969C9111978C91890F12969C91C5
:10353000890F11969C91890F11969C91890F119674
:103540009C91890F11969C91890F11969C91890FDE
:10355000840F480F11969C919413F1C011968C9191
:1035600011964C91840F11964C91840F11964C91A9
:10357000840F11964C91840F11964C91840F1196E3
:103580004C91840F11964C91840F890F292F280F8D
:1035900011968C912813D3C011969C9111968C9101
:1035A000890F11969C91890F11969C91890F119604
:1035B0009C91890F11969C91890F11969C91890F6E
:1035C00011969C91890F820F922F980F11968C91D2
:1035D0009813B5C011963C9111968C91380F1196A5
:1035E0008C91380F11968C91380F11968C91380F61
:1035F00011968C91380F11968C91380F11968C91F1
:10360000380F390F892F830F11969C91891397C01A
:1036100011962C9111969C91290F11969C91290F2E
:1036200011969C91290F11969C91290F11969C91AE
:10363000290F11969C91290F11969C91290F280F03
:10364000382F320F11968C91381379C011969C91B6
:1036500011968C91980F11968C91980F11968C91D0
:10366000980F11968C91980F11968C91980F119636
:103670008C91980F11968C91980F930F232F290FEF
:1036800011968C9128135BC011969C9111968C9188
:10369000890F11969C91890F11969C91890F119613
:1036A0009C91890F11969C91890F11969C91890F7D
:1036B00011969C91890F820F922F980F11968C91E1
:1036C00098133DC011962C9111968C91820F1196F2
:1036D0002C91820F11962C91820F11962C91820FB2
:1036E00011962C91820F11962C91820F11962C918C
:1036F000820F890F890F11969C91891320C0EF01C9
:10370000CA56DF4F129628819C91920F11962C91E8
:10371000920F11962C91920F11962C91920F119657
:103720002C91920F11962C91920F11962C91920F31
:10373000980F980FE256FF4F81E02081921380E0AE
:10374000DF91CF91089581E0DF91CF910895CF93DC
:10375000DF93FC0190818181980F8281980F838192
:10376000980F8481890F8583880F613009F49EC189
:103770009681980F2781920F2085920F2185920FB5
:103780008285980F8385980F8485980F8585980F7B
:103790009687990F623009F489C137858089380F7F
:1037A0008189380F8289380F8389380F8489380FCF
:1037B0008589380F8689380F390F378B908D818D29
:1037C000890F928D890F938D890F948D890F958D17
:1037D000890F968D890F478D840F830F932F980F34
:1037E00090A331A182A1380F83A1380F84A1380F93
:1037F00085A1380F86A1380F87A1380F80A5380F13
:10380000390F832F890F81A722A593A5290F94A58E
:10381000290F95A5290F96A5290F97A5290F90A9DE
:10382000290F91A9290F280F322F380F32AB93A9F6
:1038300084A9980F85A9980F86A9980F87A9980F32
:1038400080AD980F81AD980F82AD980F930F292FFF
:10385000230F23AF95AD84AD890F96AD890F97AD3A
:10386000890FDF01A05CBF4F9C91890F11969C913D
:10387000890F11969C91890F11969C91890F820F47
:10388000982F920F11969C93EF01CA5BDF4F119610
:1038900028818C91820F12962C91820F11962C9177
:1038A000820F11962C91820F11962C91820F1196F6
:1038B0002C91820F11962C91820F890F890F1196EE
:1038C0008C932996119628819C91920F12962C9197
:1038D000920F11962C91920F11962C91920F119696
:1038E0002C91920F11962C91920F11962C91920F70
:1038F000980F890F11968C932996119628819C9187
:10390000920F12962C91920F11962C91920F119664
:103910002C91920F11962C91920F11962C91920F3F
:1039200011962C91920F980F890F11968C932896CF
:10393000129628819C91920F11962C91920F1196BC
:103940002C91920F11962C91920F11962C91920F0F
:1039500011962C91920F11962C91920F980F890F1E
:1039600011968C932996129628819C91920F11960C
:103970002C91920F11962C91920F11962C91920FDF
:1039800011962C91920F11962C91920F11962C91C9
:10399000920F980F890F11968C9329961296288171
:1039A0009C91920F11962C91920F11962C91920F3F
:1039B00011962C91920F11962C91920F11962C9199
:1039C000920F11962C91920F980F890F11968C934C
:1039D0002996129628819C91920F11962C91920F04
:1039E00011962C91920F11962C91920F11962C9169
:1039F000920F11962C91920F11962C91920F980F75
:103A0000282F290F11962C932996129698818C9124
:103A1000890F11969C91890F11969C91890F11968F
:103A20009C91890F11969C91890F11969C91890FF9
:103A300011969C91890F820F280F11962C9329962D
:103A4000129698818C91890F11969C91890F1196ED
:103A50009C91890F11969C91890F11969C91890FC9
:103A600011969C91890F11969C91890F820F820F5C
:103A700011968C932996129628819C91920F1196FB
:103A80002C91920F11962C91920F11962C91920FCE
:103A900011962C91920F11962C91920F11962C91B8
:103AA000920F980FE256FF4F890F8083DF91CF91DD
:103AB00008950F931F93CF93DF93EC01162F0E946D
:103AC00089248EEF810F823028F0DF91CF911F91F2
:103AD0000F9108952696123039F160E002E110E06E
:103AE0008091DD078530C8F0C801880F991F880FC5
:103AF000991F880F991F080F191F0C0F1D1F69E0D0
:103B000070E0CE010E9495292996C017D107B9F718
:103B1000DF91CF911F910F910895CE01DF91CF9149
:103B20001F910F910C949E2461E001E010E0D8CF2A
:103B3000CF93DF93FC01DC01169688E0ED0119922A
:103B40008A95E9F79FEF97878FE0808B918B828B27
:103B5000938B848B958B868B908F818F928F838FA5
:103B6000948F858F968F878F91A382A393A384A32D
:103B700095A386A397A380A792A783A794A785A7B9
:103B800096A787A790AB81AB93AB84AB95AB86AB85
:103B900097AB80AF91AF82AF94AF85AF96AF87AF51
:103BA000DA969C9311968C9311969C9311968C9314
:103BB00012969C9311968C93119712969C93129740
:103BC00013968C93139714969C93149715968C9335
:103BD000159716969C93169717968C931797199688
:103BE0009C9311968C93119712969C93129713960F
:103BF0008C93139714969C93149715968C93159702
:103C000016969C93169717968C93179719969C93D4
:103C100011968C93119712969C93129713968C93EE
:103C2000139714969C93149715968C931597169644
:103C30009C93169717968C93179719969C931196A9
:103C40008C93119712969C93129713968C931397BB
:103C500014969C93149715968C93159716969C938F
:103C6000169717968C93179719969C9311968C9389
:103C7000119712969C93129713968C931397149600
:103C80009C93149715968C93159716969C9316975C
:103C900017968C93179719969C9311968C9311975E
:103CA00012969C93129713968C93139714969C9349
:103CB000149715968C93159716969C9316971796AE
:103CC0008C93179719969C9311968C931197129633
:103CD0009C93129713968C93139714969C93149716
:103CE00015968C93159716969C93169717968C930A
:103CF000179719969C9311968C93119712969C93F3
:103D0000129713968C93139714969C931497159669
:103D10008C93159716969C93169717968C931797D6
:103D200019969C9311968C93119712969C931297C7
:103D300013968C93139714969C93149715968C93C3
:103D4000159716969C93169717968C93EA56FF4FE5
:103D500090838183928383839483858396838783EF
:103D6000DF91CF910895DF92EF92FF920F931F930F
:103D7000CF93DF9300D000D0CDB7DEB78C01D62E25
:103D800080E090E00E943C2C69837A838B839C8343
:103D9000CE0101960E944D2C7C01FC0180810E9485
:103DA000EF1FF8018683F70181810E94EF1FF80160
:103DB0008783F70182810E94EF1FF8018087F70156
:103DC00083810E94EF1FF8018287F70185818F5F51
:103DD0000E94EF1FF8018387DD2051F187E820E87A
:103DE000F7019481992311F0892F822BF8018487A0
:103DF00081E090E0F701048002C0880F991F0A94C7
:103E0000E2F7F8018187F70182859385F801892B14
:103E100091F485858B7F85870F900F900F900F9081
:103E2000DF91CF911F910F91FF90EF90DF90089558
:103E300087E020E0D5CF858584608587EDCFFC01C4
:103E400040FF05C0858560FF59C081608587942F3C
:103E50009695262F269590FF05C0858520FF4BC09F
:103E6000826085879695269590FF05C0858520FF01
:103E70003FC0846085879695269590FF05C085850F
:103E800020FF33C0886085879695269590FF05C0F2
:103E9000858520FF27C0806185879695269590FFB0
:103EA00005C0858520FF1BC0806285879695269575
:103EB00090FF05C0858520FF0FC08064858796959B
:103EC0002695992341F08585222319F080688587FE
:103ED00008958F77858708958F7B8587F0CF8F7DB5
:103EE0008587E4CF8F7E8587D8CF877F8587CCCFA6
:103EF0008B7F8587C0CF8D7F8587B4CF8E7F858769
:103F0000A6CFCF93DF93EC01FB01808191819C8B45
:103F10008B8B828193819E8B8D8BDE01589634969C
:103F200088E001900D928A95E1F7DE019196FB0100
:103F30003C9688E001900D928A95E1F7FB01848917
:103F400095899BA78AA7868997899DA78CA7808D2D
:103F5000918D988B8F87828D938D9A8B898BDF9132
:103F6000CF910895FB0120813181FC0137A726A75D
:103F7000FB0122813381FC0131AB20AB0895C39654
:103F80000C944B05FB01DC01A156BF4F1C92208114
:103F900011962C93218111962C932281FC01EE55D0
:103FA000FF4F2083319623E520833196108231968E
:103FB00020E12083319621E12083319625E0208382
:103FC0000895982F92959F708927982F969596958A
:103FD0008927982F969589278095817008956AE0A2
:103FE00070E090E00E94862F9B0122953295307FF1
:103FF0003227207F32278F70822B08956AE070E08D
:1040000090E00E94862FAC016930710549F0262F9F
:104010002295207F4930510539F08F70822B089509
:1040200020EF49305105C9F78FE0822B0895809128
:104030003A06089580913A06811101C0089582E000
:104040008093400680913F06807F836080933F0687
:104050008BE396E00E94C12304C08BE396E00E94AC
:10406000C12361E08BE396E00E94BC048111F5CF8F
:104070008EEA93E00E9420261092380610923906AC
:1040800010923A0680E00C9417160F931F93CF936B
:104090008C0180913A06882361F182E0809340068A
:1040A00080913F06807F836080933F068BE396E09C
:1040B0000E94C12304C08BE396E00E94C12361E00B
:1040C0008BE396E00E94BC04C82F8111F4CF8EEAE6
:1040D00093E00E9420261092380610923906109222
:1040E0003A0680E00E9417168C2FCF911F910F91F6
:1040F00008950E94F629C82F81114DC0F8018081D2
:10410000807F8038A1F184818F70843009F449C0A8
:10411000853051F78AE0809337068EED93E00E9458
:10412000202686E0F801ABE3B6E001900D928A9577
:10413000E1F781E080933A060E94171680914F06BE
:1041400090915006A0915106B09152064E96A11D35
:10415000B11D8093330690933406A0933506B09337
:104160003606C1E08C2FCF911F910F910895F80171
:1041700083818F7090E00897079708F0B5CF84810E
:10418000282F22952F7030E021503109273031053A
:1041900008F4BACFA9CF8BEB93E00E942026C0E0B1
:1041A000A3CF89E080933706B8CFCF9380913A06AA
:1041B000882321F080914606882311F0CF9108953D
:1041C0000E94F629811145C0C0E00E94F62988238B
:1041D00029F0809137068A3009F468C08091390649
:1041E00081113EC080913806811144C0C0933906C8
:1041F000C111B1C0109238068091330690913406F7
:10420000A0913506B091360640914F065091500668
:10421000609151067091520684179507A607B7075B
:1042200090F040914F065091500660915106709168
:104230005206415E5F4F6F4F7F4F481759076A071D
:104240007B0708F0BBCF80913A068111A9C080E0BE
:10425000B5CFC1E080913706893009F0B5CFB5CF31
:10426000C0933906CC2309F453C0809138068823C3
:1042700009F4A4CF1092380682E080934006809122
:104280003F06807F836080933F068BE396E00E9429
:10429000C12304C08BE396E00E94C12361E08BE35D
:1042A00096E00E94BC048111F5CF88CFCC2309F49D
:1042B00091C080913A06882351F282E080934006B3
:1042C00080913F06807F836080933F068BE396E07A
:1042D0000E94C12304C08BE396E00E94C12361E0E9
:1042E0008BE396E00E94BC048111F5CF8EEA93E047
:1042F0000E942026109238061092390610923A0633
:1043000080E00E94171680E059CF10923906C1E074
:1043100082E08093400680913F06807F8360809397
:104320003F068BE396E00E94C12304C08BE396E036
:104330000E94C12361E08BE396E00E94BC048111DE
:10434000F5CF80913806882309F438CFC09338061A
:10435000C11134CF91CF1092400680913F06807FEB
:10436000896080933F068BE396E00E94C12361E061
:104370008BE396E00E94BC0480914F06909150061A
:10438000A0915106B09152064E96A11DB11D809389
:10439000330690933406A0933506B09336060ECFBD
:1043A00082E08093400680913F06807F8360809307
:1043B0003F068BE396E00E94C12304C08BE396E0A6
:1043C0000E94C12361E08BE396E00E94BC0481114E
:1043D000F5CF8CCF80913906811197CF8091380627
:1043E000882321F081E080933806E8CE10923906C8
:1043F00081E0809338061092400680913F06807FCE
:104400008A60AFCFFC0180819181A281B381B23CEF
:1044100020F08058924AA149B44BBC01CD016059AB
:10442000794A8D4E984D20E83AE349E050E00E94E9
:104430009A2FDA01C901880F991FAA1FBB1F880F85
:10444000991FAA1FBB1F880F991FAA1FBB1F821B82
:10445000930BA40BB50BBC01CD01660F771F881F12
:10446000991F660F771F881F991F25EB35E040E0E5
:1044700050E00E949A2F6835734018F480E19EE066
:10448000089580E090E0089580E19EE00895FC01A9
:1044900080819181A281B381B23C20F08058924A00
:1044A000A149B44BBC01CD016059794A8D4E984D5C
:1044B00020E83AE349E050E00E949A2FDA01C9016E
:1044C000880F991FAA1FBB1F880F991FAA1FBB1F08
:1044D000880F991FAA1FBB1F821B930BA40BB50B40
:1044E000BC01CD01660F771F881F991F660F771FCC
:1044F000881F991F25EB35E040E050E00E949A2F7D
:104500006835734018F480E19EE0089580E090E003
:1045100008950F931F93CF93DF9300D000D0CDB7B2
:10452000DEB78C0180E090E00E943C2C69837A83A6
:104530008B839C83CE0101960E944D2CB8010E9472
:10454000362E84E5F801828781E00F900F900F905E
:104550000F90DF91CF911F910F9108950F931F93AB
:10456000CF93DF93CDB7DEB7A0970FB6F894DEBF39
:104570000FBECDBFFC0101900020E9F79F0124513F
:1045800031092817390761F080E0A0960FB6F8943A
:10459000DEBF0FBECDBFDF91CF911F910F91089568
:1045A000BC0143E150E0CE0101960E94BB351C8A5C
:1045B0008E010B5E1F4F8CE0F80111928A95E9F78E
:1045C0006AEE73E0CE0101960E9499350097E1F200
:1045D0000E9472358C5697409C8F8B8F6AEE73E0E9
:1045E00080E090E00E949935009771F20E94723548
:1045F00081508A8F6CEE73E080E090E00E949935E4
:10460000009711F20E947235888F60EF73E080E0AE
:1046100090E00E949935009709F4B6CF0E94723558
:104620008F8B60EF73E080E090E00E9499350097F7
:1046300009F4AACF0E9472358E8B6EE171E080E0A2
:1046400090E00E949935009709F49ECF0E94723540
:104650008D8B8FEF9FEF98A38F8FC8010E94CB2C7B
:10466000611571058105910509F48ECF22E0209333
:1046700035070E943D2F81E088CFCF92DF92EF92E5
:10468000FF9220E030E041E655E46091D10770915F
:10469000D2078091D3079091D4070E9483320E9461
:1046A00005310E94462F20E030E041E655E460915C
:1046B000C9077091CA078091CB079091CC070E94DF
:1046C00083320E9405316B017C0120E030E041E63D
:1046D00055E46091CD077091CE078091CF079091FE
:1046E000D0070E9483320E940531A70196010E94E3
:1046F000BA2C8091D5078230E1F0833091F081307F
:1047000041F080E090E0FF90EF90DF90CF900C942C
:10471000382D82E092E2FF90EF90DF90CF900C94E2
:10472000382D84E492E2FF90EF90DF90CF900C94CC
:10473000382D87E492E2FF90EF90DF90CF900C94B9
:10474000382DFC01CB01AA27BB27808351834283EC
:1047500022E1238314822FEF25839927AA27BB27E1
:1047600080329105A105B10549F080399105A10577
:10477000B10519F487E183830895089581E1838366
:104780000895FC013381932F92959F709F5F9F70D6
:1047900041F0292F2295207F932F9F70922B938396
:1047A000089520E1932F9F70922B938308950E9488
:1047B00067040E94D5200E944C1580918C068823A6
:1047C00009F440C080918C068130B9F060F08430EB
:1047D00050F482EF93E00E94202660918C068DE8D1
:1047E00096E00E94591D60918C068DE896E00E942B
:1047F000CA19882309F10C94341685E0EDE8F6E037
:10480000A6E8B6E001900D928A95E1F780E090E08D
:104810000E94D5108FEE93E00E94202660918C06B6
:104820008DE896E00E94591D60918C068DE896E017
:104830000E94CA198111DFCF88E094E00E942026EF
:104840000C9434160895CF93DF938BE194E00E948B
:1048500020268BE594E00E942026C1ECD7E06881F9
:1048600079818A819B8140E00E94CC2686E694E093
:104870000E9420266C817D818E819F8140E00E9474
:104880009B278DE694E00E94202680E794E00E941A
:104890002026688579858A859B8545E050E00E94C1
:1048A000EE2782E894E00E9420266C857D858E8527
:1048B0009F8545E050E00E94EE278DE894E00E943D
:1048C0002026688979898A899B8942E050E00E9484
:1048D000EE278DE694E00E94202689E994E0DF919E
:1048E000CF910C9420260E943D234091C107509106
:1048F000C2076091C3077091C40785E596E00E94E6
:10490000A1230E94232483E00E94152A80E090E0E6
:1049100008950F931F93CF93DF93EC018C010A5FEF
:104920001F4F61E089910E945B26C017D107C9F72C
:10493000DF91CF911F910F910C9415268F929F922A
:10494000AF92BF92CF92DF92EF92FF920F931F939D
:10495000CF93DF93CDB7DEB760970FB6F894DEBF85
:104960000FBECDBF6C01162F80E1E0E2F1E0DE0169
:10497000119601900D928A95E1F784EC94E00E94E3
:104980002026D60114968C910E9433298AEC94E05B
:104990000E942026F60185810E9433298CEC94E048
:1049A0000E942026D6011696EC91E770F0E0EE0FFB
:1049B000FF1F81E090E08C0F9D1FE80FF91F8081A1
:1049C00091810E9420268DEC94E00E942026D60141
:1049D00012968C910E94332980EF93E00E9420264A
:1049E000F60181810E94332980EF93E00E94202606
:1049F000D6018C910E943329F601878182FD78C00F
:104A00000E941526111161C0D60117968C9187FD61
:104A100079C080FD72C08DEF94E00E94202656017F
:104A2000F9E0AF0EB11C76018DE2E80EF11C4501F4
:104A300088E0880E911C8501D80111968C910E9406
:104A4000332980EF93E00E942026F80180810E94A4
:104A5000332987EA91E00E9420260E5F1F4F8016BF
:104A6000910651F70E941526F9E0AF0EB11CEA1429
:104A7000FB04E9F68AE095E00E942026560199E9B8
:104A8000A90EB11C670188E0C80ED11C8701D801AE
:104A900011968C910E94332980EF93E00E9420268A
:104AA000F80180810E94332987EA91E00E94202644
:104AB0000E5F1F4F0C151D0551F70E941526F9E0DA
:104AC000EF0EF11CEA14FB04E9F660960FB6F894B9
:104AD000DEBF0FBECDBFDF91CF911F910F91FF9031
:104AE000EF90DF90CF90BF90AF909F908F90089500
:104AF00080ED94E00E94202683CF8AEE94E00E940D
:104B0000202689CF85ED94E00E942026F60187813A
:104B100080CF0F931F93CF93DF9300D01F92CDB719
:104B2000DEB7182F40E1BE016F5F7F4F90E00E941B
:104B3000F135107FE1F1A7E3B5E08C91E0913A0700
:104B4000F0913B078823D1F1309789F08D010F5FF9
:104B50001F4F0995019671F1F80181918F0188230A
:104B600049F1E0913A07F0913B07309791F789813D
:104B7000811115C0E0E0F0E0309789F008EA11E01B
:104B80008CE20995019659F0F80181918F018823F3
:104B900031F0E0913A07F0913B07309791F70F9091
:104BA0000F900F90DF91CF911F910F910895A3E384
:104BB000B5E0C3CFE0913A07F0913B0789818823A4
:104BC000D9F2309761F38E010E5F1F4F0995019660
:104BD00099F0F80181918F01882371F0E0913A07F3
:104BE000F0913B07309791F70F900F900F90DF9166
:104BF000CF911F910F910895E0913A07F0913B07F3
:104C0000BBCFE0913A07F0913B07309709F0099448
:104C10008FEF9FEF0895E0913807F09139073097B3
:104C200009F009948FEF9FEF0895E0913A07F09112
:104C30003B07309711F08AE009948FEF9FEF0895BA
:104C4000CF93DF93EC0188818823C1F0E0913A078C
:104C5000F0913B07309769F021960995019649F04C
:104C60008991882359F0E0913A07F0913B073097FA
:104C7000A1F78FEF9FEFDF91CF91089580E090E053
:104C8000DF91CF910895CF93DF93EC01FE018491E2
:104C9000882361F0E0913A07F0913B07309709F0E3
:104CA00009952196FE0184918111F4CF80E090E076
:104CB000DF91CF910895FF920F931F93CF93DF93CE
:104CC00000D01F92CDB7DEB7182FF62E40E1BE01FF
:104CD0006F5F7F4F90E00E94F135107F09F059C05F
:104CE000A3E3B5E08C918823C9F1E0913A07F091F4
:104CF0003B07309789F08D010F5F1F4F0995019693
:104D000069F1F80181918F01882341F1E0913A071F
:104D1000F0913B07309791F7FF20B9F0E0913A0707
:104D2000F0913B07309789F008EA11E08CE2099591
:104D3000019659F0F80181918F01882331F0E091BB
:104D40003A07F0913B07309791F70F900F900F9033
:104D5000DF91CF911F910F91FF9008958981882352
:104D6000D9F2E0913A07F0913B073097A9F28E0112
:104D70000E5F1F4F0995019679F2F80181918F011D
:104D8000882351F2E0913A07F0913B07309791F771
:104D9000C3CFA7E3B5E0A6CF8F929F92AF92BF9209
:104DA000FF920F931F93CF93DF93CDB7DEB72A9770
:104DB0000FB6F894DEBF0FBECDBF4B015C01F42EE1
:104DC00020E1AE014F5F5F4F0E940736D501C4015D
:104DD000807F892B8A2B8B2BD9F1D501C4018827A1
:104DE000892B8A2B8B2B09F494C0D501C401882709
:104DF000907F892B8A2B8B2B09F48EC0D501C4019F
:104E000088279927892B8A2B8B2B09F488C0D501F9
:104E1000C40188279927A07F892B8A2B8B2B09F423
:104E200081C0D501C40188279927AA27892B8A2BFD
:104E30008B2B09F47AC088249924AA2420EFB2226B
:104E400089288A288B2809F473C0A7E3B5E002C03B
:104E5000AEE4B5E08C91882309F440C0E0913A07B4
:104E6000F0913B07309789F08D010F5F1F4F099537
:104E70000196A1F1F80181918F01882379F1E091E8
:104E80003A07F0913B07309791F7FF20B9F0E09196
:104E90003A07F0913B07309789F008EA11E08CE27D
:104EA0000995019659F0F80181918F01882331F01D
:104EB000E0913A07F0913B07309791F72A960FB6A9
:104EC000F894DEBF0FBECDBFDF91CF911F910F9140
:104ED000FF90BF90AF909F908F9008958981882315
:104EE000A1F2E0913A07F0913B07309771F28E0101
:104EF0000E5F1F4F0995019641F2F80181918F01D4
:104F0000882319F2E0913A07F0913B07309791F727
:104F1000BCCFA5E4B5E09ECFAFE5B5E09BCFA8E55B
:104F2000B5E098CFAFE3B5E095CFAAE3B5E092CF77
:104F3000A3E3B5E08FCFFF920F931F93CF93DF933F
:104F4000CDB7DEB72C970FB6F894DEBF0FBECDBF3E
:104F5000F42E2AE0AE014F5F5F4F0E940736898131
:104F60008823B9F0E0913A07F0913B07309789F038
:104F70008E010E5F1F4F0995019659F0F80181913E
:104F80008F01882331F0E0913A07F0913B07309789
:104F900091F7FF20B9F0E0913A07F0913B07309785
:104FA00089F008EA11E08CE20995019659F0F801C0
:104FB00081918F01882331F0E0913A07F0913B070E
:104FC000309791F72C960FB6F894DEBF0FBECDBF89
:104FD000DF91CF911F910F91FF9008952F923F92F3
:104FE0004F925F926F927F928F929F92AF92BF92F9
:104FF000CF92DF92EF92FF920F931F93CF93DF93A5
:10500000CDB7DEB72C970FB6F894DEBF0FBECDBF7D
:105010004B015C018A010E9405312B013C011B01FF
:105020004AE0BE016F5F7F4FC2010E94F135DC0193
:105030008C91E0913A07F0913B07882309F495C0E1
:105040003097A1F07D012FEFE21AF20A099501963F
:1050500009F487C0F70181917F01882309F481C099
:10506000E0913A07F0913B07309781F7B201550C78
:10507000880B990B0E943D319B01AC01C501B40125
:105080000E9421306B017C0137FC75C020E030E0CC
:1050900040E85FE361E070E080E090E01016110608
:1050A0000CF520E030E0DC01CB01880F991FAA1F2E
:1050B000BB1F2C013D01440C551C661C771C440C85
:1050C000551C661C771CBC01CD01640D751D861D29
:1050D000971D2F5F3F4F0217130729F70E943D319D
:1050E0009B01AC01C701B6010E9483320E940C31C2
:1050F0002AE0AE014F5F5F4F0E9407368981882307
:10510000B9F0E0913A07F0913B07309789F08E01B2
:105110000E5F1F4F0995019659F0F80181918F019B
:10512000882331F0E0913A07F0913B07309791F7EF
:105130002C960FB6F894DEBF0FBECDBFDF91CF9196
:105140001F910F91FF90EF90DF90CF90BF90AF90A5
:105150009F908F907F906F905F904F903F902F9097
:105160000895E0913A07F0913B07309709F47ECF1C
:105170008EE209957BCF20E030E040E85FEB6FEFF7
:105180007FEFCB018BCF0F931F93CF93DF93CDB7DF
:10519000DEB72D970FB6F894DEBF0FBECDBF9A01D4
:1051A000AE014F5F5F4F0E94FC35DC018C9188237C
:1051B000B9F0E0913A07F0913B07309789F08D0103
:1051C0000F5F1F4F0995019659F0F80181918F01EA
:1051D000882331F0E0913A07F0913B07309791F73F
:1051E0002D960FB6F894DEBF0FBECDBFDF91CF91E5
:1051F0001F910F9108950F931F93CF93DF93CDB716
:10520000DEB72A970FB6F894DEBF0FBECDBF4AE0D7
:10521000BE016F5F7F4F0E94F135DC018C918823C6
:10522000B9F0E0913A07F0913B07309789F08D0192
:105230000F5F1F4F0995019659F0F80181918F0179
:10524000882331F0E0913A07F0913B07309791F7CE
:105250002A960FB6F894DEBF0FBECDBFDF91CF9177
:105260001F910F910895FF920F931F93CF93DF9398
:10527000CDB7DEB72A970FB6F894DEBF0FBECDBF0D
:10528000F82E82958F7040E1BE016F5F7F4F90E0F6
:105290000E94F135DC018C918823B9F0E0913A0746
:1052A000F0913B07309789F08D010F5F1F4F0995F3
:1052B000019659F0F80181918F01882331F0E09136
:1052C0003A07F0913B07309791F78F2D8F7040E1AF
:1052D000BE016F5F7F4F90E00E94F135DC018C9141
:1052E0008823B9F0E0913A07F0913B07309789F0B5
:1052F0008D010F5F1F4F0995019659F0F8018191BB
:105300008F01882331F0E0913A07F0913B07309705
:1053100091F72A960FB6F894DEBF0FBECDBFDF918E
:10532000CF911F910F91FF9008950F931F93CF93EB
:10533000DF931616170654F4EC018C01060F171FA5
:1053400089910E948925C017D107D1F7E0913A07CA
:10535000F0913B07309731F08AE0DF91CF911F91B8
:105360000F910994DF91CF911F910F9108950E94A1
:10537000D7290E94F2296091C5077091C6078091D4
:10538000C7079091C8070E94912A0E94742B8BE353
:105390009AE290933B0780933A078FE69AE29093C4
:1053A0003907809338070E942D2C7894089541E4A2
:1053B00050E064E070E081EC97E00C946D3641E4DD
:1053C00050E064E070E081EC97E00C947D3689B1A8
:1053D00082FB882780F90895811102C02B980895D7
:1053E0002B9A08955298239A2B98089580E0089557
:1053F0000E94B72987E695E00E9420260E94732428
:1054000083B7816083BF889583B78E7F83BF0E94F7
:10541000D723F6CF98E088E10FB6F894A89580934B
:1054200060000FBE90936000FFCF579A579A569A2C
:10543000482F50E0440F551F90E012C05F9A5E9ACB
:105440005F9A292F30E024173507A4F42FEF34E3B7
:105450008CE0215030408040E1F700C000009F5FA9
:1054600090FDECCF5F985E985F98292F30E024176D
:10547000350764F308952091040890911F0830E0E7
:105480002F5F3F4F29272F703327232B41F493B7EA
:10549000916093BF889593B79E7F93BFECCF209187
:1054A000040890911F0830E02F5F3F4F29272F708D
:1054B0003327232B89F0909104089F5F9093040871
:1054C000E0910408EF70F0E0E25FF74F8083809195
:1054D000C10080628093C10080E090E008959091C7
:1054E00002088091030889278770C1F09091020813
:1054F000809103088927877019F480E090E008956F
:10550000809103088F5F80930308E0910308E770A0
:10551000F0E0EA5FF74F808190E008958FEF9FEF12
:1055200008954F925F926F927F928F929F92AF9267
:10553000BF92CF92DF92EF92FF920F931F93CF9380
:10554000DF9300D000D000D0CDB7DEB72B013C01F7
:105550006B017C01CC0CDD1CEE1CFF1CCC0CDD1C9B
:10556000EE1CFF1CCC0CDD1CEE1CFF1C812C54E23D
:10557000952E54EFA52EB12CC501B401A7019601BB
:105580000E949A2F29833A834B835C8389819A8175
:1055900001979E838D8391E4491692E459069FE01A
:1055A0006906710408F070C0A7019601220F331F2D
:1055B000441F551FC501B4010E949A2F69017A0149
:1055C00022953295307F3227207F322740E050E00D
:1055D000C501B4010E949A2FCA01B901A301920129
:1055E0000E949A2F11E0012F021B89819A81880F56
:1055F000991F880F991F880F991F9C0140E050E068
:10560000C501B4010E949A2FCA01B901A3019201F8
:105610000E949A2F121B101758F191E0C91AD10855
:10562000C092C400D092C5008091C0008D7F80934D
:10563000C00088E18093C1001092C00086E0809392
:10564000C20026960FB6F894DEBF0FBECDBFDF9125
:10565000CF911F910F91FF90EF90DF90CF90BF906F
:10566000AF909F908F907F906F905F904F90089534
:105670009D819093C4008E818093C5008091C0006D
:1056800082608093C000D5CF8093C400F4CF1F9276
:105690000F920FB60F9211248F939F93EF93FF9366
:1056A0009091040880911F0889278F70B9F080912C
:1056B0001F088F5F80931F08E0911F08EF70F0E0D4
:1056C000E25FF74F80818093C600FF91EF919F9139
:1056D0008F910F900FBE0F901F9018958091C10071
:1056E0008F7D8093C100F1CFE1ECF0E08081806894
:1056F000808308951F920F920FB60F9211242F935B
:105700008F939F93EF93FF9380910208209103085A
:1057100090E00196822787709927892BC1F08091AC
:1057200002088F5F80930208E0910208E770F0E0C2
:105730008091C600EA5FF74F8083FF91EF919F91C0
:105740008F912F910F900FBE0F901F901895809101
:10575000C60080931E0881E080931E08EECF8FE87C
:1057600091E00197F1F700C0000008951F920F9299
:105770000FB60F9211242F933F934F935F936F9324
:105780007F938F939F93AF93BF93EF93FF938091FA
:10579000DB07813009F453C08091DA07813009F4C6
:1057A00059C08091DC07813089F0FF91EF91BF9162
:1057B000AF919F918F917F916F915F914F913F91A9
:1057C0002F910F900FBE0F901F901895809141065A
:1057D00090914206A0914306B0914406AC01BD01F0
:1057E00041505109610971094093410650934206A5
:1057F0006093430670934406892B8A2B8B2BA9F662
:105800006091D6077091D7078091D8079091D907FA
:1058100020E533EC40E050E00E949A2FDA01C90104
:10582000805E914BAF4FBF4F8093410690934206ED
:10583000A0934306B09344060E944B04B6CF8091D8
:1058400045068F5F80934506837009F0A5CF0E94BF
:10585000C518A2CF0E944F16A4CF1092800089E0F5
:105860008093810080E293E0909389008093880088
:1058700082E080936F000895FC016091240870918C
:1058800025088091260890912708309729F0608399
:105890007183828393830895089562E378E00E9480
:1058A000542C82E398E00895CF92DF92EF92FF921A
:1058B0000F931F93CF93DF9300D000D0CDB7DEB707
:1058C0006C017B01E0912808F09129083097D1F113
:1058D00060E278E009958C01F60140815181628196
:1058E00073818091200890912108A0912208B091A5
:1058F0002308840F951FA61FB71F101611064CF41E
:10590000A801012E000C660B770B840F951FA61FB4
:10591000B71F89839A83AB83BC83B701CE010196FD
:105920000E943D2DF701138702870F900F900F9073
:105930000F90DF91CF911F910F91FF90EF90DF902B
:10594000CF900895FC0140815181628173818091E3
:10595000200890912108A0912208B0912308840F7B
:10596000951FA61FB71F89839A83AB83BC830FEF54
:105970001FEFD3CF60932A0870932B0880932C08D5
:1059800090932D0820932E0830932F0840933008D1
:105990005093310808958F929F92AF92BF92EF92E9
:1059A000FF920F931F93CF93DF9300D000D0CDB71A
:1059B000DEB78C010E94892E69837A838B839C8356
:1059C000F8018284938497FC38C09E012F5F3F4F7B
:1059D00079011814190444F4092C000CAA08BB0816
:1059E000681979098A099B098090200890902108FC
:1059F000A0902208B0902308DC01CB0188199909F6
:105A0000AA09BB0989839A83AB83BC83B801C70108
:105A10000E94542C69817A818B819C810F900F9018
:105A20000F900F90DF91CF911F910F91FF90EF900A
:105A3000BF90AF909F908F900895E0912808F091CB
:105A40002908309789F060E278E09E012F5F3F4F90
:105A50007901C90109954C01F80193878287698111
:105A60007A818B819C81B5CFFE0131967F01BCCFBD
:105A700090932908809328080895CF92DF92EF929F
:105A8000FF920F931F93CF93DF93CDB7DEB7289785
:105A90000FB6F894DEBF0FBECDBF8B01FC01608155
:105AA00071818281938120E831E541E050E00E94DC
:105AB0009A2F69017A012CE330E040E050E00E9427
:105AC000BC2F29833A834B835C8389819A81AB8184
:105AD000BC81F80160836CE370E00E94862FDC01DA
