:100000000C948A040C94B3040C94B3040C94B304BD
:100010000C94B3040C94B3040C94B3040C94B30484
:100020000C94B3040C94B3040C94B3040C94692F93
:100030000C94B3040C94B3040C94B3040C94B30464
:100040000C94B3040C94B3040C942D2F0C94FA2E3E
:100050000C94B3040C94B3040C94B3040C94B30444
:100060000C94B3040C94B304072C7AA5BA6CC59015
:10007000DA3B9365FC8BBC53F810FD3C5692834DE4
:10008000BD879D3AB63DCBC9BF5BBE73DA0FC93F92
:1000900005A84CCDB2D44EB93836A9020C50B9914E
:1000A0008688083CA6AAAA2ABE000000803F737971
:1000B0006E7461783A20636F6D6D616E64206F704D
:1000C00074696F6E3D76616C7565202E2E2E3B0A2D
:1000D000636F6D6D616E6473206172653A200074A8
:1000E000797065202768656C7020636F6D6D616E37
:1000F000643B2720206F72202768656C7020616C3C
:100100006C3B270A636F6D6D616E6473206172656D
:100110003A20006461696C793D5420202020202021
:100120002020656E61626C6573206461696C792062
:1001300074696D65722E20542069732075702F6468
:100140006F776E206C696B6520303733302D206FF0
:1001500072203037333032303030206F72202D3201
:100160003030302020666F722075702030373A337F
:100170003020616E642F6F7220646F776E20323092
:100180003A30300A7765656B6C793D545454545459
:10019000545420656E61626C6573207765656B6C85
:1001A000792074696D65722E2054206C696B65200E
:1001B0007769746820276461696C7927206F7220E1
:1001C000272B2720746F20636F7079207468652057
:1001D00054206F6E20746865206C6566742E20282C
:1001E0007765656B6C793D303733302D2B2B2B2B9E
:1001F000303930302D2B290A617374726F5B3D4E9C
:100200005D202020202020656E61626C6573206176
:100210007374726F206175746F6D617469632E20E1
:100220004E20697320746865206F6666736574205C
:10023000746F20636976696C206475736B20696ED6
:10024000206D696E757465732E2043616E20626542
:1002500020706F7374697665206F72206E656761B8
:10026000746976652E0A73756E2D6175746F202022
:100270002020202020656E61626C65732073756E8E
:10028000206175746F6D617469630A72616E646F69
:100290006D202020202020202020656E61626C656A
:1002A000732072616E646F6D206175746F6D61741F
:1002B00069632E2073687574746572206F70656E43
:1002C0007320616E6420636C6F73657320617420AA
:1002D00072616E646F6D2074696D65732E0A72743D
:1002E000632D6F6E6C7920202020202020646F6E9B
:1002F0002774206368616E67652074696D65727329
:100300002E206F6E6C792075706461746520696E43
:100310007465726E616C207265616C2074696D65C4
:1003200020636C6F636B0A612C206720616E642010
:100330006D3A202020206C696B6520696E20736502
:100340006E6420636F6D6D616E640A72733D283058
:100350007C317C322920202020207265616420625B
:1003600061636B2073617665642074696D657220CA
:10037000646174612E2069662073657420746F2037
:10038000322C2072657475726E20616E7920646102
:100390007461206D61746368696E67206720616EA7
:1003A00064206D20652E672E206D3D302028616E03
:1003B00079206D656D6265722920696E737465615F
:1003C00064206F66206D3D320A007072696E743D64
:1003D000287274637C63757C72657365742D696EB5
:1003E000666F290A0027636F6E6669672720736549
:1003F0007473206F722067657473206F7074696FF7
:100400006E732E205573653A20636F6E66696720A0
:100410006F7074696F6E3D76616C7565202E2E2E3F
:100420003B20746F207365742E205573653A2063EA
:100430006F6E666967206F7074696F6E3D3F202E26
:100440002E2E3B20746F206765742C206966207304
:100450007570706F727465640A0A63753D2849444B
:100460007C6175746F7C3F292020202020362D640C
:100470006967697420686578204944206F66204365
:10048000656E7472616C2D556E69742E2061757481
:100490006F3A2063617074757265204944207769F2
:1004A000746820636F6E6E656374656420524620C5
:1004B00072656365697665720A7274633D28495393
:1004C0004F5F54494D457C3F29202020736574209F
:1004D0006C6F63616C2074696D6520776974682046
:1004E0007468697320286F7220757365204E5450AC
:1004F000292E206578616D706C653A20636F6E6699
:100500006967207274633D323031372D31322D33BB
:10051000315432333A35393A35393B0A62617564C0
:100520003D284E7C3F2920202020202020202020F4
:100530002073657269616C206261756420726174F8
:100540006520282E2E2E20626175643D31313532B2
:100550003030290A6C6F6E6769747564653D284494
:1005600045477C3F290A6C617469747564653D2850
:100570004445477C3F290A74696D652D7A6F6E6525
:100580003D284E7C3F2920202020202020657861B6
:100590006D706C653A20636F6E66696720206C6FC2
:1005A0006E6769747564653D2B31332E3233343593
:1005B00032206C617469747564653D2B35322E335D
:1005C000343233342074696D652D7A6F6E653D2B3E
:1005D000312E303B0A6473743D2865757C307C3164
:1005E0007C3F292020202020206461796C69676885
:1005F0007420736176696E672074696D653A206155
:1006000075746F6D617469633A2065753D657572C7
:100610006F70652E206D616E75616C6C793A20305B
:100620003D6F66662C20313D6F6E0A766572626F93
:1006300073653D28302E2E357C3F292020202073E5
:1006400065742074657874206F7574707574207685
:100650006572626F73697479206C6576656C3A2097
:100660003020666F72206E6F6E65202E2E2E203524
:1006700020666F72206D6178290A7365742D70771A
:100680003D70617373776F726420202073657420EE
:100690006120636F6E6669672070617373776F7234
:1006A000642E2069662073657420657665727920F2
:1006B000636F6E66696720636F6D6D616E64732032
:1006C0006E6565647320746865207077206F707440
:1006D000696F6E0A70773D5057202020202020201F
:1006E0002020202020206578616D706C653A2063A1
:1006F0006F6E6669672070773D6D795F70617373A7
:1007000077206473743D65753B0A7265737461721A
:100710007420202020202020202020207265737447
:10072000617274204D43550A00613D28307C494474
:100730002920202020686578204944206F66207396
:10074000656E646572206F72207265636569766597
:10075000722E2030202864656661756C74292075BE
:10076000736573202763752720696E20636F6E663B
:1007700069670A673D5B302D375D202020202067A8
:10078000726F7570206E756D6265722E2030202834
:1007900064656661756C7429206164647265737345
:1007A000657320616C6C2067726F7570730A6D3DA4
:1007B0005B302D375D202020202067726F75702000
:1007C0006D656D6265722E203020286465666175E6
:1007D0006C74292061646472657373657320616C45
:1007E0006C206D656D626572730A633D636F6D6D3C
:1007F000616E64202020436F6D6D616E6420746FA4
:100800002073656E642E204F6E65206F663A2075EA
:10081000702C20646F776E2C2073746F702C207393
:10082000756E2D646F776E2C2073756E2D696E73E7
:10083000742C207365740A723D4E202020202020E5
:1008400020202052657065617465642073656E6454
:10085000696E6720666F72206265747465722072BB
:100860006563657074696F6E2E2053656E642074C5
:10087000686520636F6D6D616E6420312B4E20744E
:10088000696D65735345505B3D307C315D202020A0
:1008900053776974636820746F20656E61626C655C
:1008A00020656E642D706F736974696F6E2061646A
:1008B0006A7573746D656E742E20486F6C64206861
:1008C0006172647761726520627574746F6E2074F2
:1008D0006F2061646A75737420656E6420706F7335
:1008E0006974696F6E2028657370383236363A2025
:1008F0006770696F302F666C6173682062757474FD
:100900006F6E206F6E206D696E6920626F61726418
:100910007329000011241FBECFEFD8E0DEBFCDBF8A
:1009200014BE0FB6F894A8958091600088618093FA
:100930006000109260000FBE15E0A0E0B1E0E8E6B4
:10094000F5E702C005900D92A23DB107D9F728E066
:10095000A2EDB5E001C01D92A13AB207E1F70E94F5
:10096000AB2D0C94B23A0C9400008F938FB78F93F9
:10097000F894809185088F5F809385088091860820
:100980008F4F80938608809187088F4F80938708C8
:10099000809188088F4F809388088F918FBF8F91A7
:1009A0000895CF938091A00681113DC08091A60645
:1009B0001816ACF58091A5068F708330C1F1809137
:1009C000A00681112CC081E00E94DB18C82F88236B
:1009D00031F18091A60681508093A60685E0E1EA78
:1009E000F6E0A7EEB6E001900D928A95E1F761E09E
:1009F00087EE96E00E946B1E80913E0881111CC01C
:100A00008CE090E09093A8068093A70681E0809305
:100A1000A00680E00E94DB188C2FCF910895C1E0E2
:100A20008C2FCF910895C0E08C2FCF91089581EA4B
:100A300096E00E94D505C3CF80E391E00E947F2914
:100A400061E087EE96E00E941D20DACF0F931F939E
:100A5000CF93DF938C01D62F8091A006811136C0F1
:100A60000115110531F08091A606181614F41092A4
:100A7000A60681E00E94DB18C82F882339F1D13007
:100A8000E9F185E0F801A7EEB6E001900D928A95B4
:100A9000E1F76D2F87EE96E00E946B1E80913E0875
:100AA00081111BC0D23039F180E591E09093A80606
:100AB0008093A70681E08093A00680E00E94DB1867
:100AC0008C2FDF91CF911F910F910895C0E08C2F53
:100AD000DF91CF911F910F91089580E391E00E94E3
:100AE0007F2980913E08823040F16D2F87EE96E09D
:100AF0000E941D20D7CF8EE190E0D8CF01151105BF
:100B000011F186E0F801A1EAB6E001900D928A9514
:100B1000E1F785E0F801A7EEB6E001900D928A9525
:100B2000E1F761E087EE96E00E946B1E80913E083F
:100B3000811111C08CE090E0B9CF61E087EE96E0C2
:100B40000E941D20AFCF8091A60681508093A606FB
:100B500001EA16E0DECF80E391E00E947F2961E0A8
:100B600087EE96E00E941D20E5CFFC01CB01AA276D
:100B7000BB2780835183428322E1238314822FEF9A
:100B800025839927AA27BB2780329105A105B105A6
:100B900049F080399105A105B10519F487E18383F6
:100BA0000895089581E183830895FC013381932F93
:100BB00092959F709F5F9F7041F0292F2295207F13
:100BC000932F9F70922B9383089520E1932F9F7012
:100BD000922B938308952F923F924F925F926F9240
:100BE0007F928F929F92AF92BF92CF92DF92EF92BD
:100BF000FF920F931F93CF93DF93CDB7DEB76E971E
:100C00000FB6F894DEBF0FBECDBF8C01072E000CCF
:100C1000880B990B0E94F03420E030E040E752E46A
:100C20000E944634698F7A8F8B8F9C8F9801285F42
:100C30003F4F38872F83C8018C589F4F9E8F8D8FD1
:100C40008AEE96E6ABEDBDEB8D8B9E8BAF8BB88FAE
:100C500085E89BEBACE0BEEB898B9A8BAB8BBC8BB6
:100C600080ED9BEEAAE6BFE38D879E87AF87B88BAA
:100C700086E693E7ABECBEEB89879A87AB87BC87A8
:100C8000312C212C90E89D83AFEBAE83812C80E842
:100C9000982E81EBA82E83E4B82E89010850110903
:100CA0002BED3FE049E450E460912E0870912F084D
:100CB00080913008909131080E943B3620E030E06E
:100CC00044E353E40E9446346B017C010E94A83641
:100CD0002B013C01C701B6010E9441346B017C012C
:100CE00029853A854B855C85C301B2010E943B365C
:100CF0009B01AC0165E073E186ED9DEB0E94D4336E
:100D00002B013C012D853E854F855889C701B601D1
:100D10000E943B369B01AC01C301B2010E944634E4
:100D20000E94C33320E030E040E451E40E943B36AF
:100D30002BED3FE049E450E40E94463420E030E0EF
:100D400040E451E40E94D5336B017C0120EA3AE192
:100D50004FE25EEB69897A898B899C890E943B36D8
:100D60002B013C0121E834E045E05EE36D897E899A
:100D70008F89988D0E943B369B01AC01C301B20163
:100D80000E94D4339B01AC01C701B6010E94D43349
:100D90006B017C0120E030E040E751E460912A08DB
:100DA00070912B0880912C0890912D080E94463458
:100DB0009B01AC01C701B6010E94D4336B017C01D9
:100DC0002091320830913308409134085091350811
:100DD000698D7A8D8B8D9C8D0E94D5339B01AC01E2
:100DE000C701B6010E94D5336B017C019B01AC01A8
:100DF000632D722D8D819E810E940236181624F07B
:100E00003C2C2D2CED82FE82AE014F5F5F4F632D97
:100E1000722D8D819E810E9407366B017C010F3FF0
:100E2000BFEF1B0759F069817A818B819C810E94F9
:100E3000BF34862F0E94C222F8018183011511055B
:100E400089F020E030E040E752E4C701B6010E949B
:100E50003B360E94BF3481E0860F8E7F0E94C22203
:100E6000D8018C9320E030E843E750E4C501B40199
:100E70000E94D4334B015C010E5F1F4FEF81F88558
:100E8000E017F10709F44FC028E03CE240EA52E4E1
:100E9000C501B4010E94D43324E73EE74AE85CE38D
:100EA0000E943B360E94A8362CEF39EA41ED5EE302
:100EB0000E943B366B017C010E94A83669877A87C5
:100EC0008B879C87C701B6010E9441346D877E875E
:100ED0008F87988B23E039E04AE05DE3C501B401D8
:100EE0000E943B362BE734E14EEE5EE30E94D533A1
:100EF0000E94A836698B7A8B8B8B9C8B2BE134E616
:100F000042E95CE3C501B4010E943B3621E338E0CD
:100F10004CE25EE30E94D4330E94A8366D8B7E8B38
:100F20008F8B988FBDCE3996F887EF832D8D3E8DB0
:100F3000E217F30709F44FC028E03CE240EA52E42C
:100F40000E94D43324E73EE74AE85CE30E943B3644
:100F50000E94A8362CEF39EA41ED5EE30E943B3651
:100F60006B017C010E94A83669877A878B879C87F2
:100F7000C701B6010E9441346D877E878F87988BA9
:100F800023E039E04AE05DE3C501B4010E943B364D
:100F90002BE734E14EEE5EE30E94D5330E94A83683
:100FA000698B7A8B8B8B9C8B2BE134E642E95CE37B
:100FB000C501B4010E943B3621E338E04CE25EE318
:100FC0000E94D4330E94A8366D8B7E8B8F8B988FB6
:100FD0000F81188563CE6E960FB6F894DEBF0FBEF4
:100FE000CDBFDF91CF911F910F91FF90EF90DF90D8
:100FF000CF90BF90AF909F908F907F906F905F90B9
:101000004F903F902F900895CF92DF92EF92FF92F2
:101010000F931F93CF93DF936C017B0161307105B8
:1010200009F4D4C00CF499C001E010E054C0BE0132
:1010300080910001909101010E948E39892B09F461
:10104000A5C0BE0180910601909107010E948E39D2
:10105000892B09F4AFC0BE0180910C0190910D0164
:101060000E948E39892B09F4A8C0BE01809112011B
:10107000909113010E948E39892B09F4A1C0BE0101
:1010800080911801909119010E948E39892B09F4E1
:101090009AC08DE891E00E947F298091AD069091E1
:1010A000AE06892B09F068C08AE30E9460298EE7AA
:1010B00091E00E947F2982E295E00E947F29CE0183
:1010C0000E947F298AE00E9460290F5F1F4F0E1542
:1010D0001F050CF042C0F801EE0FFF1FEE0FFF1FBF
:1010E000EC0DFD1DC081D1816FE671E0CE010E9443
:1010F0008E39892B09F09BCF8EEA90E00E94A229BD
:10110000C0E0D1E08E01F801808191810E947F29A9
:101110008CE691E00E947F290A5F1F4FF1E00E31BB
:101120001F0789F70E947429888199810E947F296D
:1011300083E791E00E947F298C819D810E94A229F2
:101140000E947429269681E0CE31D80769F706E01F
:1011500010E00E151F050CF4BECF83E391E00E9452
:101160007F2980E090E0DF91CF911F910F91FF9058
:10117000EF90DF90CF90089580E40E9460298091E5
:10118000AD069091AE060E94AE2C8ECF80E090E02E
:10119000FC01EE0FFF1FE80FF91FEE0FFF1FE050DD
:1011A000FF4F848195810E94A2290E9474290F5FBC
:1011B0001F4F8DCF81E090E0EBCF82E090E0E8CF51
:1011C00083E090E0E5CF84E090E0E2CF8FED90E027
:1011D0000E94A229C0E0D1E00EE111E0888199814E
:1011E0000E947F298CE691E00E947F2926960C17A9
:1011F0001D07A1F70E947429B4CF6F927F928F923E
:101200009F92AF92BF92CF92DF92EF92FF920F9395
:101210001F93CF93DF93CDB7DEB764970FB6F894E3
:10122000DEBF0FBECDBF623071050CF47DC0FC0186
:10123000E480F580C680D780E114F10409F4D9C0B8
:10124000C114D10409F4D5C04B018C0195E9692E74
:1012500091E0792EAA24A394B12C26C060EA71E013
:10126000C6010E948E39892B09F461C063EE73E0D8
:10127000C6010E948E39892B09F484C0FFEFAF1A92
:10128000BF0A8A149B0409F446C0F801E084F18483
:10129000C284D384E114F10409F4ABC00C5F1F4F86
:1012A000C114D10409F4A5C06AE971E0C7010E9424
:1012B0008E39892B99F26BEC71E0C7010E948E394F
:1012C000892B09F042C0F60180818F3309F46DC08B
:1012D0008BEB91E00E947F298091AD069091AE0644
:1012E000892B09F07CC08AE30E94602981EC91E09F
:1012F0000E947F2982E295E00E947F2983ED91E0A0
:101300000E947F290E947429FFEFAF1ABF0A8A1436
:101310009B0409F0BACF69E275E0C3010E948E39DF
:101320008C01892B09F487C000E010E064C0CE0175
:1013300001960E944D25882309F4A0CFCE01019685
:101340000E947F290E94742999CF8DE891E00E9424
:101350007F298091AD069091AE06892B09F061C07E
:101360008AE30E9460298EE791E00E947F2982E251
:1013700095E00E947F29C7010E947F298AE00E9490
:1013800060297CCF84EA91E00E947F296091220845
:1013900070912308809124089091250840E150E045
:1013A0000E94762C0E94742969CFC3010E947F2974
:1013B000C7010E947F298FE394E00E947F296091FA
:1013C000A9067091AA068091AB069091AC0640E008
:1013D0000E94FA2A89E2682E85E0782E4FCF80E4B9
:1013E0000E9460298091AD069091AE060E94AE2CBD
:1013F0007ACF0FEF1FEFC80164960FB6F894DEBFE7
:101400000FBECDBFDF91CF911F910F91FF90EF9055
:10141000DF90CF90BF90AF909F908F907F906F9014
:10142000089580E40E9460298091AD069091AE06F7
:101430000E94AE2C95CF87EE91E00E947F29DBCFF2
:101440002F923F924F925F926F927F928F929F92D4
:10145000AF92BF92CF92DF92EF92FF920F931F93C2
:10146000CF93DF9300D000D01F92CDB7DEB75B01E2
:10147000623071050CF441C2FC0104811581C68003
:10148000D7800115110509F4C6C09D838C83312CCA
:101490001B82212C1A82F2E0F98388248A94982CEA
:1014A000412C512C3201EE24E394F12C20C0C114C4
:1014B000D10409F486C040E150E060E070E0C6016C
:1014C0000E9443372B013C012FEFE21AF20AAE14BF
:1014D000BF0471F1EC81FD81008511853496FD8397
:1014E000EC83C680D7800115110509F494C06AEE1B
:1014F00071E0C8010E948E39892BC9F260EE73E059
:10150000C8010E948E39892B09F044C0C114D1044E
:1015100009F46CC0C6010E944E398830910508F06C
:1015200065C0382E2FEFE21AF20AAE14BF0491F60E
:101530003A813111AEC1411451046104710409F4BE
:1015400006C12091D505822F90E0A0E0B0E0DC013B
:10155000992788273091D705832B4091D60550E0F5
:10156000542F442760E070E0842B952BA62BB72BDB
:10157000481659066A067B0641F0B301A20185EDC3
:1015800095E00E94B5052091D505F5EDAF2EF5E06B
:10159000BF2EE3C062E973E0C8010E948E39892B37
:1015A000A1F4C114D10411F1C6010E944E39883052
:1015B0009105E0F4009709F493C017E0212E280E5E
:1015C00083CF412C512C32017FCF6AEE73E0C801EA
:1015D0000E948E39892BC9F5C114D10439F0C60196
:1015E0000E944E3989838B3008F46ECF8BEB91E0EB
:1015F0000E947F298091AD069091AE06892B09F05B
:101600005EC182E295E00E947F298CEE91E00E940B
:101610007F290E9474298FEF9FEF0F900F900F90FA
:101620000F900F90DF91CF911F910F91FF90EF904E
:10163000DF90CF90BF90AF909F908F907F906F90F2
:101640005F904F903F902F90089562EA71E0C8013B
:101650000E948E39892B09F045C0C114D10431F2A2
:10166000F60180818F3309F44FC06BEF71E0C60142
:101670000E948E39892B09F44FC164E072E0C601E3
:101680000E948E39892B09F44AC162EF71E0C601CC
:101690000E948E39892B09F445C167EF71E0C601BC
:1016A0000E948E39892B09F440C160E072E0C601C6
:1016B0000E948E39892B09F43BC167E072E0C601B4
:1016C0000E948E39892B09F436C160E172E0C601AF
:1016D0000E948E39892B09F089CF8DE08B83F4CE5F
:1016E000212CF2CE64E172E0C8010E948E39892B70
:1016F00089F4C114D10421F0F6018081813339F4D9
:1017000088248394912CE0CEF1E0FA83DDCE812C05
:10171000912CDACE8DE891E00E947F298091AD0670
:101720009091AE06892B09F0D4C08AE30E9460290B
:101730008EE791E00E947F2982E295E00E947F2956
:10174000C8010E947F298AE00E946029BDCE2091B5
:10175000AF06AFEAAA2EA6E0BA2E207F2038C9F045
:10176000FFEF8F169F0641F1F5018481982F907F3E
:101770008B818F70892B8483892831F0C5010E9469
:10178000092380E090E049CF0E94DE2280E090E0D3
:1017900044CFF50124812F70F0E13F9EC001112458
:1017A000322E382AF50134828381982F907F822D42
:1017B0008F70892B8383D4CFFB81FF2309F452C020
:1017C000F5018481982F907F8B818F70892B848382
:1017D000C5010E94D5052981F501258361E0C50178
:1017E0000E9426058823F1F18BEB91E00E947F296E
:1017F0008091AD069091AE06892B09F09FC082E2E0
:1018000095E00E947F2987E793E00E947F290E944C
:101810007429F5018481082F0F7010E023812F7047
:1018200030E082958F70482F50E06081862F90E0E5
:10183000A0E0B0E0DC019927882762816C017D017E
:10184000C62A818190E0982F8827A0E0B0E0BC01F3
:10185000CD016C297D298E299F290E94872680E051
:1018600090E0DBCE8BEB91E00E947F298091AD066A
:101870009091AE06892BB9F582E295E00E947F290E
:101880008CEE91E00E947F290E94742980E090E014
:10189000C4CE88E192E00E947F29222D30E0432DC2
:1018A00050E0C301B2010E94652660E00E944D2B0A
:1018B00087EB94E00E947F2980E090E0AECE80E448
:1018C0000E9460298091AD069091AE060E94AE2CD8
:1018D00098CE80E40E9460298091AD069091AE067A
:1018E0000E94AE2C22CF80E40E9460298091AD0638
:1018F0009091AE060E94AE2CBFCF2091AF0632E091
:101900003983212C1B82312C88248A94982C4FEA0D
:10191000A42E46E0B42E21CF85E08B83D5CD84E084
:101920008B83D2CD83E08B83CFCD86E08B83CCCDF0
:1019300087E08B83C9CD88E08B83C6CD80E40E948D
:1019400060298091AD069091AE060E94AE2C57CFD3
:10195000CF93DF93EC018DE891E00E947F29809185
:10196000AD069091AE06892B99F48AE30E94602916
:101970008EE791E00E947F2982E295E00E947F2914
:10198000CE010E947F298AE0DF91CF910C946029DB
:1019900080E40E9460298091AD069091AE060E947D
:1019A000AE2CE3CF2F923F924F925F926F927F9235
:1019B0008F929F92AF92BF92CF92DF92EF92FF925F
:1019C0000F931F93CF93DF93CDB7DEB7A0970FB6DA
:1019D000F894DEBF0FBECDBF4B013324339420916A
:1019E00043082111312C22E0821691040CF4DEC14F
:1019F000FC01E480F580C680D780E114F10409F48D
:101A000024C1C114D10409F420C18C0178E2672EED
:101A100072E0772E212C412C512CAA24A394B12CB6
:101A200023C0B60183E498E00E948E39892B09F027
:101A300008C185E392E00E947F293FEFA31AB30A11
:101A40008A149B0461F1F801E084F184C284D38498
:101A5000E114F10409F4F9C00C5F1F4F33243394EF
:101A6000C114D10409F4F1C060EE72E0C7010E9414
:101A70008E39892BB1F2332009F40DC262E772E08E
:101A8000C7010E948E39892B79F521100EC10E9461
:101A9000BD2D3FEFA31AB30A8A149B04A1F62110AF
:101AA0009DC169E275E0C3010E948E39892B09F45A
:101AB00098C1452809F47AC18BEB91E00E947F29F7
:101AC0008091AD069091AE06892B09F0A1C282E209
:101AD00095E00E947F298CEE91E00E947F290E9470
:101AE000742980E090E0C8C060EA71E0C7010E94FC
:101AF0008E39892B09F051C0F60180818F3309F4AA
:101B00008FC1C6010E947225882389F18BEB91E079
:101B10000E947F298091AD069091AE06892B09F035
:101B2000F7C082E295E00E947F2987E793E00E9458
:101B30007F290E94742981CF64ED72E0C7010E9461
:101B40008E39892B09F425C16CED72E0C7010E9422
:101B50008E39892B09F0BEC1F60101900020E9F70A
:101B60003197EC19FD09E031F10508F42EC28BEB39
:101B700091E00E947F298091AD069091AE06892B5D
:101B800009F068C182E295E00E947F298CEE91E025
:101B90000E947F290E94742950CF63EE73E0C70131
:101BA0000E948E39892B09F083C0F60180818F3322
:101BB00009F476C168E973E0C6010E948E39892B69
:101BC00009F4C2C06EEB72E0C6010E948E39892B07
:101BD00009F04AC16091E006862F90E0A0E0B0E0F5
:101BE000DC01992788272091E206AC01BD01422B38
:101BF0008091E10690E0982F8827A0E0B0E06A018C
:101C00007B01C82AD92AEA2AFB2AC701B601670143
:101C1000EE24FF2420E8C216D104E104F104A9F463
:101C2000C092AF067093B0066093B106609322082D
:101C300070932308809324089093250822242394EA
:101C4000FCCE82E492E00E947F298BEB91E00E941F
:101C50007F298091AD069091AE06892B09F04EC088
:101C600082E295E00E947F298CEE91E00E947F291C
:101C70000E9474298FEF9FEFA0960FB6F894DEBFF5
:101C80000FBECDBFDF91CF911F910F91FF90EF90CD
:101C9000DF90CF90BF90AF909F908F907F906F908C
:101CA0005F904F903F902F9008950E94922DEFCE1D
:101CB00067EC72E0C7010E948E39892B99F16FECB5
:101CC00072E0C7010E948E39892B09F035CFF601E9
:101CD00080818F3309F48AC04AE050E060E070E010
:101CE000C6010E9459386093260870932708809394
:101CF000280890932908222423949FCE80E40E94F0
:101D000060298091AD069091AE060E94AE2CA8CFBE
:101D100080E40E9460298091AD069091AE060E94F9
:101D2000AE2CFFCE40E150E060E070E0C6010E94C2
:101D3000593860933F08709340088093410890930E
:101D400042082224239479CE8091A9069091AA0674
:101D5000A091AB06B091AC06CC96A11DB11D8093AD
:101D6000E3059093E405A093E505B093E605109292
:101D7000E0068091AD069091AE069093E2058093C7
:101D8000E105F1E0F093DF068AE792E00E947F2907
:101D9000BDCEF60180818F3309F444C1C6010E9493
:101DA0004E3980933E082224239447CE8BEB91E05A
:101DB0000E947F298091AD069091AE06892B09F093
:101DC0001DC182E295E00E947F2987E793E00E948F
:101DD0007F290E94742980E090E04ECF0E94922DCE
:101DE00060CE87EE91E00E947F2963CEC3010E94FE
:101DF0007F29C7010E947F298FE394E00E947F29F9
:101E000060912608709127088091280890912908F0
:101E100040E00E94FA2A69E2662E65E0762E0DCE39
:101E2000CE0101960E944D25882309F406CEC301F8
:101E30000E947F29C7010E947F298FE394E00E94BE
:101E40007F29CE0101960E947F2969E2662E65E016
:101E5000762EF3CD80E40E9460298091AD069091AA
:101E6000AE060E94AE2C8ECE40E150E060E070E005
:101E7000C6010E9459386C01EE24FF2430E8C312D9
:101E8000E4CE292F332744275527232B242B252B1A
:101E900009F4C6CEDACE89E592E00E947F29D5CE3C
:101EA000C3010E947F29C7010E947F298FE394E02C
:101EB0000E947F2960912208709123088091240854
:101EC0009091250840E00E942B2A59E2652E55E0AA
:101ED000752EB3CD63EE72E0C7010E948E39892B57
:101EE00009F47EC060EF72E0C7010E948E39892B31
:101EF00009F417C16CEF72E0C7010E948E39892B7B
:101F000009F0A4C0F60180818F3309F4C2C18D327B
:101F100009F4DAC1A82F60E070E0CB0120E030E0E6
:101F200040E85FE32D8F3E8F4F8F58A3AA2309F41B
:101F30000DC1A6014F5F5F4F5E8B4D8B8A2FC12C69
:101F4000D12C76011A8E198E39C0282E312C50E3EF
:101F5000251A31088AE02816310440F5E98DFA8DFA
:101F6000EF2B71F020E030E040E251E46D8D7E8D8A
:101F70008F8D98A10E9446346D8F7E8F8F8F98A38E
:101F800020E030E040E251E4C701B6010E943B3658
:101F90006B017C01B101330C880B990B0E94F0346A
:101FA000A70196010E94D5336B017C01ED89FE8962
:101FB0008191FE8BED8B882309F4C0C08E3229F607
:101FC00021E030E03A8F298FF1CFAF014F5F5F4FB3
:101FD000B60183E498E00E947A39222423942DCD1F
:101FE00067E775E0C6010E948E39892B09F0BBC0F6
:101FF000F1E0F0933B080E94922D88CD80E40E948E
:1020000060298091AD069091AE060E94AE2CD9CE8B
:1020100080E40E9460298091AD069091AE060E94F6
:10202000AE2C55CDC3010E947F29C7010E947F2994
:102030008FE394E00E947F2980913E0890E00E9407
:10204000AE2C59E2652E55E0752EF7CC66E073E0B4
:10205000C7010E948E39892B09F090C0F60180815A
:102060008F3309F461C18D3209F4BCC1A82F60E03F
:1020700070E0CB0120E030E040E85FE3298F3A8F49
:102080004B8F5C8FAA2309F4ECC0A6014F5F5F4F12
:102090005E8B4D8B8A2FC12CD12C76011E8E1D8E0E
:1020A00039C0282E312C50E3251A31088AE0281631
:1020B000310440F5ED8DFE8DEF2B71F020E030E026
:1020C00040E251E4698D7A8D8B8D9C8D0E9446345F
:1020D000698F7A8F8B8F9C8F20E030E040E251E453
:1020E000C701B6010E943B366B017C01B101330C84
:1020F000880B990B0E94F034A70196010E94D533FA
:102100006B017C01ED89FE898191FE8BED8B88232B
:1021100009F49FC08E3229F621E030E03E8F2D8FEA
:10212000F1CF67E775E0C6010E948E39892B09F06F
:10213000A5C0CC24C394C0923C085DCF2D8D3E8DAC
:102140004F8D58A1C701B6010E943B3660932A0803
:1021500070932B0880932C0890932D080E940126E1
:10216000222423946ACC6CEE72E0C6010E948E3960
:10217000892B09F0FCCC10923B083DCF6FE073E057
:10218000C7010E948E39892B09F0B1C0F601808108
:102190008F3309F40CC18D3209F4F6C0A82F60E02A
:1021A00070E0CB0120E030E040E85FE32D8B3E8B18
:1021B0004F8B588FAA2309F4DAC0A6014F5F5F4FF7
:1021C0005A8F498F8A2FC12CD12C76011E8E1D8EDD
:1021D00039C0282E312C50E3251A31088AE0281600
:1021E000310440F5ED8DFE8DEF2B71F020E030E0F5
:1021F00040E251E46D897E898F89988D0E94463432
:102200006D8B7E8B8F8B988F20E030E040E251E425
:10221000C701B6010E943B366B017C01B101330C52
:10222000880B990B0E94F034A70196010E94D533C8
:102230006B017C01E98DFA8D8191FA8FE98F8823FA
:1022400009F48DC08E3229F621E030E03E8F2D8FCB
:10225000F1CF298D3A8D4B8D5C8DC701B6010E945F
:102260003B3660932E0870932F088093300890932C
:1022700031080E94012622242394DFCB6CEE72E009
:10228000C6010E948E39892B09F071CC10923C084E
:10229000B2CEC3010E947F29C7010E947F298FE32C
:1022A00094E00E947F2960912A0870912B08809108
:1022B0002C0890912D0845E050E00E94A12B49E2A6
:1022C000642E45E0742EB9CBF601A18196012F5FF3
:1022D0003F4F690160E070E080E090E820E030E08E
:1022E00040E85FEB2D8F3E8F4F8F58A31FCE69E1E3
:1022F00073E0C7010E948E39892B09F090C0F60166
:1023000080818F3309F492C062E372E0C6010E94BB
:102310008E39892B09F079C0F1E0F09336080E94DC
:1023200001262224239489CBC3010E947F29C7015F
:102330000E947F298FE394E00E947F2960912E08FC
:1023400070912F08809130089091310845E050E05D
:102350000E94A12B39E2632E35E0732E6ECB2D89BE
:102360003E894F89588DC701B6010E943B36609364
:1023700032087093330880933408909335080E9494
:1023800001262224239459CBF601A18196012F5FC7
:102390003F4F690160E070E080E090E820E030E0CD
:1023A00040E85FEB2D8B3E8B4F8B588F03CFC301E3
:1023B0000E947F29C7010E947F298FE394E00E9439
:1023C0007F29609132087091330880913408909190
:1023D000350842E050E00E94A12B29E2622E25E060
:1023E000722E2BCBF601A18196012F5F3F4F690121
:1023F00060E070E080E090E820E030E040E85FEBF3
:10240000298F3A8F4B8F5C8F3DCE61EB75E0C60113
:102410000E948E39892B19F51092360880CF2FEF44
:10242000421A520AC7010E94A80C07CBC3010E949E
:102430007F29C7010E947F298FE394E00E947F29B2
:10244000809136088130D1F0811115C081EB95E083
:102450000E947F2999E2692E95E0792EEECA60E309
:1024600072E0C6010E948E39892B59F483E0C82E90
:10247000C092360854CF80E392E0EACF82E392E044
:10248000E7CFC7010E94A80C4ACF0E946A298F3F5C
:102490002FEF9207D9F08D309105D9F08A30910550
:1024A000C1F08830910509F441C082329105B1F044
:1024B0002091E705222301F1CB9739F71092E70528
:1024C0000E946A298F3F2FEF920729F780E090E062
:1024D000089510926B0610926A06D7CF20916A0673
:1024E00030916B062F5F3F4F30936B0620936A0647
:1024F0002091E7052111C9CF209168063091690626
:102500002F37310584F540916A0640FD03C08B33B7
:102510009105B9F1A9014F5F5F4F50936906409350
:102520006806F901E851FA4F8083AFCF80916806C1
:1025300090916906009709F4A8CF019790936906D6
:1025400080936806FC01E851FA4F8081823209F0DD
:102550009CCF80916A0690916B06019790936B06D1
:1025600080936A0692CF81E08093E70580E090E057
:10257000109269061092680610926B0610926A0615
:1025800008952115310539F0F901E851FA4F10820B
:1025900088EE95E0EDCF80E090E0EACFEF92FF92F9
:1025A0000F931F93CF93DF93EC011092AE0610921E
:1025B000AD0600E010E08881803241F4DE01FE01CA
:1025C0003196EF011D9281918032D9F3882309F46D
:1025D00087C07801EE0CFF1CEE0CFF1CF701EB54DA
:1025E000F94FD183C0838881982F9F7D61F08D330F
:1025F000E9F0FE01319602C08D33C1F0EF01819107
:10260000982F9F7DC9F7F701EB54F94F138212827F
:102610000F5F1F4F0A30110571F68FEF9FEFDF91AB
:10262000CF911F910F91FF90EF90089518828981AB
:102630008B3399F3803289F38232B9F1882369F3BD
:10264000FE013196D701AB54B94F1396FC93EE932C
:1026500012978981882371F08032F1F18D33E1F195
:10266000229604C08032C1F18D33B1F1FE0189910F
:102670008111F8CFEF01C7018B54994F7C0166E2BD
:1026800073E0FC01808191810E948E39892B09F0D1
:10269000BFCFF701828193810E944E399093AE069D
:1026A0008093AD0601501109B3CFCE0102962A8165
:1026B000222309F4B2CFF701EB54F94F93838283BD
:1026C00062E270E00E948339EC01892B09F4A5CF06
:1026D0008881882381F2FE01EF0121961082CBCF01
:1026E000C801DF91CF911F910F91FF90EF90089556
:1026F0008BEB91E00E947F298091AD069091AE0610
:10270000892B69F482E295E00E947F298CEE91E0AA
:102710000E947F290E9474298FEF9FEF089580E423
:102720000E9460298091AD069091AE060E94AE2C69
:10273000E9CF0F931F93CF93DF93009731F58091EB
:10274000E3059091E405A091E505B091E6050097B9
:10275000A105B105A1F04091A9065091AA0660918A
:10276000AB067091AC0684179507A607B70708F467
:1027700081C08091E006982F907F903879F180E0B9
:10278000DF91CF911F910F9108954091A90650912B
:10279000AA066091AB067091AC068A019B01080FF6
:1027A000191F211D311D0093E3051093E4052093AB
:1027B000E5053093E6051092E0068091AD06909114
:1027C000AE069093E2058093E10581E08093DF06F9
:1027D00080E0DF91CF911F910F91089590E0A0E0EC
:1027E000B0E0DC01992788272091E206822B4091F6
:1027F000E10650E0542F442760E070E0842B952BD5
:10280000A62BB72BA093AF069093B0068093B1068A
:102810008093220890932308A0932408B09325085E
:102820001092E3051092E4051092E5051092E6057A
:102830008DE493E00E947F298BEB91E00E947F2939
:102840008091AD069091AE06892B09F04AC08AE3CB
:102850000E94602982E793E00E947F2982E295E04E
:102860000E947F290E9474290E94922D1092DF06F7
:1028700081E086CFC091AD06D091AE061092E305FF
:102880001092E4051092E5051092E6058AE293E0C5
:102890000E947F298091E1059091E2059093AE0618
:1028A0008093AD068BEB91E00E947F298091AD066D
:1028B0009091AE06892BF9F48AE30E9460298FE398
:1028C00093E00E947F2982E295E00E947F290E9486
:1028D0007429D093AE06C093AD061092DF0680E057
:1028E0004FCF80E40E9460298091AD069091AE06A2
:1028F0000E94AE2CACCF80E40E9460298091AD068E
:102900009091AE060E94AE2CD7CF4F925F926F92FD
:102910007F928F929F92AF92BF92CF92DF92EF926F
:10292000FF920F931F93CF93DF9300D01F92CDB7E9
:10293000DEB77C015B014A011B82452B09F4A9C06B
:10294000FC01808120E030E0882309F45BC000E0D6
:1029500010E055245A949FE0492E1EC0F501E20F65
:10296000F31F50826801FFEFCF1ADF0AC814D904A1
:1029700008F04CC0F501EC0DFD1D40828FEFE81A08
:10298000F80A86010F5F1F4F980108151905D0F549
:10299000F70180818823B1F18B3209F44CC08D326C
:1029A000E9F28983F70181818A836801FFEFCF1AF9
:1029B000DF0AC814D90450F5CE0101960E944E39A1
:1029C0000E94B322F501EC0DFD1D8083F701828189
:1029D00089833701F4E06F0E711CF70183818A83CC
:1029E0000A0D1B1DCE0101960E944E390E94B32292
:1029F000F8018083730186010F5F1F4F980108154E
:102A0000190530F281E08216930609F080E00F90FC
:102A10000F900F90DF91CF911F910F91FF90EF904A
:102A2000DF90CF90BF90AF909F908F907F906F90EE
:102A30005F904F9008950430110544F3C801049647
:102A40008816990618F3D501A20FB31FFD0134971C
:102A500080818C93F8013196EA0DFB1DDF011497FC
:102A60008C918083F8013296EA0DFB1DDF011497EB
:102A70008C9180836801E3E0CE0ED11CF501EC0D52
:102A8000FD1DDF0114978C918083FFEFEF1AFF0A81
:102A900078CF20E030E0B6CF2F923F924F925F92F6
:102AA0006F927F928F929F92AF92BF92CF92DF925E
:102AB000EF92FF920F931F93CF93DF93CDB7DEB7C3
:102AC000A8970FB6F894DEBF0FBECDBFFC014B0137
:102AD0002FEF29839FE09A832B839C832D839E83F2
:102AE0002F83988729879A872B879C872D879E8796
:102AF0002F87988B298B9A8B2B8B9C8B2D8B9E8B66
:102B00002F8B988F298F9A8F2B8F9C8F2D8F9E8F35
:102B10002F8F98A3623071050CF468C2E480F580B1
:102B2000A680B780E114F10409F4ECC08F01312CC8
:102B300018A6FEEFFFA319A2212C1BA21CA21DA206
:102B40001EA2612C712C1AA2512C412CCC24C394AE
:102B5000D12C21C0A114B10409F4B7C04CE150E05C
:102B6000BE016F5F7F4FC5010E948514582E4FEF45
:102B7000C41AD40A8C149D0481F1D8011896ED90E2
:102B8000FC9019970C5F1F4FF801A680B780E114E5
:102B9000F10409F4B7C06AE773E0C7010E948E39F7
:102BA000892BC1F261E873E0C7010E948E39892B3D
:102BB00009F046C0A114B10409F487C044E050E014
:102BC000BE01635E7F4FC5010E948514482E4FEF02
:102BD000C41AD40A8C149D0481F66BA17CA18DA12A
:102BE0009EA1672B682B692B09F4EDC02091DB05B2
:102BF000822F90E0A0E0B0E0DC0199278827309197
:102C0000DD05832B4091DC0550E0542F442760E024
:102C100070E0842B952BA62BB72B4BA15CA16DA14B
:102C20007EA1481759076A077B0709F44CC18BED51
:102C300095E00E94B5052091DB050BED15E0C7C0BE
:102C400067E873E0C7010E948E39892B59F4A114FB
:102C5000B10409F4ACC0C5010E944E393C0121E029
:102C60002AA385CF6DE873E0C7010E948E39892BB6
:102C700091F4A114B10441F0D5018C91803309F491
:102C80008FC0813309F073CF79A1716079A3822D50
:102C90008160282E6CCF64E973E0C7010E948E39F1
:102CA000892B09F04AC0A114B10441F0F5018081DB
:102CB000803309F481C0813309F059CF99A190681C
:102CC00099A3A22DA0682A2E52CF8BEB91E00E94EF
:102CD0007F298091AD069091AE06892B49F080E462
:102CE0000E9460298091AD069091AE060E94AE2CA4
:102CF00082E295E00E947F298CEE91E00E947F297C
:102D00000E9474298FEF9FEFA8960FB6F894DEBF4C
:102D10000FBECDBFDF91CF911F910F91FF90EF902C
:102D2000DF90CF90BF90AF909F908F907F906F90EB
:102D30005F904F903F902F9008956DE973E0C70129
:102D40000E948E39892B79F4A114B10409F4F1C0E1
:102D5000D5018C91803309F45FC0813309F0B6C08E
:102D6000F1E0FFA304CF6AEE71E0C7010E948E3943
:102D7000892B09F441C060EE73E0C7010E948E39CF
:102D8000892B09F0BCC0A114B10409F4CFC0C5015E
:102D90000E944E398830910508F0C8C0382EE7CE21
:102DA00039A1316039A3422D4E7F242EE0CE612C13
:102DB000712C31E03AA3DBCE59A1506859A3622DA2
:102DC0006F77262ED4CE2091AF060FEA16E0207F33
:102DD000203809F463C0D80114968C918F60F801F3
:102DE0008483C8010E94D50581E00E94DB1881110F
:102DF00015C080E090E088CFA114B10409F49CC014
:102E000040E150E060E070E0C5010E9443376BA3F1
:102E10007CA38DA39EA3ABCE1FA2A9CE87EE96E086
:102E20000E945C20FFA1F13009F4A3C0511097C0AB
:102E300041108DC02AA1211184C060E087EE96E088
:102E40000E94772149A1622D87EE96E00E94E3213E
:102E5000B80187EE96E00E94862263E0C8010E94D6
:102E600026058823B1F18BEB91E00E947F298091A8
:102E7000AD069091AE06892B09F092C082E295E0F2
:102E80000E947F2987E793E00E947F290E9474298E
:102E900080E00E94DB1880E090E036CFF80184816A
:102EA000282F2F70F0E13F9EC0011124822BD80102
:102EB00013969C911397292F207F98A59F70922B92
:102EC00013969C938BCF0BED15E081CFBFEFBFA383
:102ED0004ECE8BEB91E00E947F298091AD069091C0
:102EE000AE06892B09F052C082E295E00E947F294C
:102EF0008CEE91E00E947F290E947429C9CF62E97B
:102F000073E0C7010E948E39892B09F053C0A114C8
:102F1000B10461F0C5010E944E398830910530F44A
:102F2000009729F127E0280F28A721CE0E947813C7
:102F3000EBCEE1E0EFA31BCE1BA21CA21DA21EA2A2
:102F400016CEB30187EE96E00E94832276CFBE01B3
:102F5000635E7F4F87EE96E00E9476226BCFBE01C4
:102F60006F5F7F4F87EE96E00E94452261CF18A6E3
:102F7000FECD61E087EE96E00E94772149A1622DA7
:102F800087EE96E00E94E32162E068CF80E40E9431
:102F900060298091AD069091AE060E94AE2CA4CF20
:102FA00080E40E9460298091AD069091AE060E9457
:102FB000AE2C64CF8DE891E00E947F298091AD0610
:102FC0009091AE06892B11F58AE30E9460298EE765
:102FD00091E00E947F2982E295E00E947F29C7014B
:102FE0000E947F298AE00E946029C1CD2091AF060E
:102FF000312C512C612C712C212C19A23EEF3FA3B6
:103000001AA2412C18A60FEA16E0E1CE80E40E9435
:1030100060298091AD069091AE060E94AE2CD4CF6F
:103020000F931F93CF93DF930E944512EC01892BDE
:1030300009F44BC00E947429CE010E94CE128C016B
:1030400097FD53C00E94DB22892B09F093C0C091E9
:10305000B506D091B6066091000170910101CE01D4
:103060000E948E39892B09F466C060910601709127
:103070000701CE010E948E39892B09F46FC060913F
:103080000C0170910D01CE010E948E39892B09F43B
:1030900068C06091120170911301CE010E948E39B7
:1030A000892B09F461C06091180170911901CE015A
:1030B0000E948E39892B09F45AC08DE193E0DF918B
:1030C000CF911F910F910C947F298091D40581118C
:1030D00007C08DE193E00E947F2981E08093D405B1
:1030E000DF91CF911F910F9108958BEB91E00E949A
:1030F0007F298091AD069091AE06892B91F482E2F2
:1031000095E00E947F298CEE91E00E947F290E9429
:1031100074298DE193E0DF91CF911F910F910C9471
:103120007F2980E40E9460298091AD069091AE06CF
:103130000E94AE2CE4CF80E090E0FC01EE0FFF1F78
:10314000E80FF91FEE0FFF1FE050FF4F0280F381E1
:10315000E02DB80185EB96E00995AFCF81E090E0D6
:10316000ECCF82E090E0E9CF83E090E0E6CF84E02E
:1031700090E0E3CF0E94DE228BEB91E00E947F295A
:103180008091AD069091AE06892B59F482E295E0CC
:103190000E947F2986EA93E00E947F290E94742979
:1031A0008CCF80E40E9460298091AD069091AE069C
:1031B0000E94AE2CEBCF8823A1F080918C068F5F0C
:1031C00080938C0604C080913B08813041F484E6F2
:1031D00090E00E94622F80918B068823A1F381E00A
:1031E000089580918C06815080938C0681E008952B
:1031F00010928806109287061092890610928A060D
:103200001092820610927406109273061092E606CF
:10321000109272061092710686E090E0909370060C
:1032200080936F060895EF92FF920F931F93CF93B1
:10323000DF930E949A2D80937A06909179068917E0
:1032400009F482C0811161C09FEF90938106809341
:1032500079062091E606211109C02091A0062111CE
:1032600005C020918B06222309F470C080917F064F
:103270009091800620918C06222309F448C0209169
:103280008B0621111AC010928806109287061092A0
:10329000890610928A061092820610927406109285
:1032A00073061092E606109272061092710626E0DE
:1032B00030E03093700620936F0621E020938B0658
:1032C00001969093800680937F0680917A068823EA
:1032D00009F180917D0690917E06019690937E067D
:1032E00080937D068091810618160CF51092800659
:1032F00010927F0610927E0610927D06DF91CF918C
:103300001F910F91FF90EF90089591E09ECF109242
:103310008B06D6CF80917B0690917C060196909388
:103320007C0680937B06809181061816FCF2882328
:1033300029F310927C0610927B06DF91CF911F91AA
:103340000F91FF90EF90089590E07FCF4091750628
:103350005091760660917706709178064115510577
:103360006105710509F44BC04150510961097109AA
:1033700040937506509376066093770670937806AF
:10338000452B462B472BD9F51092880610928706BD
:103390001092890610928A06109282061092740684
:1033A000109273061092E606109272061092710641
:1033B00026E030E03093700620936F06913009F0DC
:1033C00055CF2091820680917F0690918006AC01B6
:1033D00027300CF0F8C04C5051094D31510508F020
:1033E00049CF40917D0650917E06445051094131AC
:1033F000510508F03FCF2F5F209382063BCF81110C
:103400001FC080918A06882309F440C19F3F09F4B8
:1034100091C090918206973009F028CF21E0280FC3
:103420002831B8F010928A06809189068F5F8A3021
:10343000B8F48093890680917F06909180061ACF18
:1034400020917B0630917C06213F310508F09CCF0E
:10345000D8CF80917F069091800620938A060ACF6C
:1034600010928906209187063091880620FDC0C001
:1034700080916F069091700640917106509172068E
:103480002F5F3F4F309388062093870648175907D0
:1034900008F4ECCE8F30910509F474C0883A910598
:1034A00009F46CC0069709F0E1CE80917306909103
:1034B0007406892B01F58091E70691E0811190E077
:1034C0002091E806820F211190E02091E906820FF9
:1034D000211190E02091EA06820F211190E02091C5
:1034E000EB06820F211102C0911105C09091EC06EC
:1034F000891709F4D0C0109288061092870610929E
:10350000890610928A061092820610927406109212
:1035100073061092E606109272061092710686E00B
:1035200090E09093700680936F0680917F06909153
:103530008006A0CE20917D0630917E06E091870620
:10354000F0918806E170FF27EE0FFF1FED57F94F4E
:103550002C30310530F521E030E0A90100908906DA
:1035600002C0440F551F0A94E2F720813181242BB9
:10357000352B31832083909182064DCF83E0809359
:10358000E60674CE8091F30687FD92C088EA90E04B
:103590009093700680936F0680917F0690918006CD
:1035A00069CE21E030E00090890602C0220F331F6F
:1035B0000A94E2F7209530954081518124233523E8
:1035C0003183208326CF4C5351094D33510508F0E8
:1035D00051CE40917D0650917E06445051094531AF
:1035E000510508F047CE273009F044CE21E035CF11
:1035F000C0917106D0917206C951D94F00918306CE
:10360000109184067801FF24802F0E94A522811149
:1036100062C080E092E08E299F290817190709F4FB
:103620005DC000918506109186067801FF24802FE9
:103630000E94A522882309F465C080E093E08E29CA
:103640009F290817190709F460C087E788838091CC
:103650007306909174060196909374068093730696
:10366000409171065091720680916F06909170069C
:103670008417950728F520918706309188062F5FDB
:103680003F4F309388062093870604CF2091890608
:103690002111BCCE93CE8091EB068F708F3011F14B
:1036A00081E08093E60680917F0690918006E2CDCE
:1036B00082E08093E60680917F0690918006DACDC5
:1036C0004F5F5F4F509372064093710620918706BB
:1036D00030918806D5CE80E090E09DCF8091830622
:1036E0008883BECF8091E706807F8038C9F68FE05F
:1036F00090E09093700680936F0680917F06909182
:103700008006B8CD80E091E09ACF809185068883CD
:10371000A7CF0F931F93CF93DF938091A0068111C2
:1037200005C0DF91CF911F910F91089590916D0683
:1037300091111FC020918A06223008F47DC010929A
:103740006E062F5F263008F44DC010928A06209135
:1037500089062F5F233008F484C010928906982FC1
:1037600080E090936D06DF91CF911F910F910C94A3
:103770009F2D80916C06811139C090918A0681E05D
:10378000923008F080E080936E069F5F943000F1E5
:1037900010928A06909189069F5F973008F455C071
:1037A0001092890681E080936C068091E706C82F0D
:1037B000D0E00E94A52281114BC080E092E08C2BCA
:1037C0009D2B909384068093830680916E06CBCFC9
:1037D00090938A0610926C06DF91CF911F910F9102
:1037E0000C949F2D80E020938A06BBCF2091890600
:1037F000422F50E04350510990918A0657FD2BC04B
:10380000923090F0943058F561E070E002C0660F9D
:10381000771F4A95E2F7409183065091840646232C
:10382000572381E0452BD9F480936E069F5F963035
:10383000E0F490938A0697CF3091890631117FCFBB
:1038400031E030936E062F5FCECF90938906C2CFC2
:1038500080E090E0B4CF211102C0923028F380E0E4
:10386000E3CF2093890680E07CCF10928A062F5FF9
:103870002D3018F42093890676CF10928906C091D6
:103880008706D09188062196D0938806C093870634
:103890002091A7063091A806C217D307D8F010923E
:1038A00088061092870610926C0610926D060E9490
:1038B0009F2D1092A00610928806109287061092F3
:1038C000890610928A0680E0DF91CF911F910F91B7
:1038D0000C949F2DFE01F695E795E951F94F8081F3
:1038E000082F10E00E94A522C0FF0DC0882381F0A0
:1038F00080E093E0802B912B909384068093830645
:1039000080916E0630CF811106C080E092E0F2CF48
:1039100080E091E0EFCF80E090E0ECCFCF93DF93B9
:10392000FC0190818181980F8281980F8381980F8B
:103930008481890F95818913C6C1880F613009F48C
:10394000C6C19681980F2781920F2085920F2185FD
:10395000920F8285980F8385980F8485980F8585AF
:10396000980F86859813AFC1990F623009F4AFC1E3
:1039700027858089280F8189280F8289280F8389CC
:10398000280F8489280F8589280F8689280F920F90
:103990008789981398C1208D818D820F228D820F87
:1039A000238D820F248D820F258D820F268D820F0D
:1039B000378D830F890F292F280F80A1281383C1EA
:1039C00091A182A1890F93A1890F94A1890F95A13B
:1039D000890F96A1890F97A1890F90A5890F820F52
:1039E000982F920F81A598136EC122A583A5820FEF
:1039F00024A5820F25A5820F26A5820F27A5820F59
:103A000020A9820F21A9820F890F890F92A98913FA
:103A10005AC124A993A9920F25A9920F26A9920F02
:103A200027A9920F20AD920F21AD920F22AD920FD8
:103A3000980F890F23AD281346C195AD84AD890F2A
:103A400096AD890F97AD890FDF01A05CBF4F9C91A8
:103A5000890F11969C91890F11969C91890F11964F
:103A60009C91890F820F820F11969C9198132BC104
:103A700012962C9111979C91920F12962C91920F65
:103A800011962C91920F11962C91920F11962C91C8
:103A9000920F11962C91920F11962C91920F980FD4
:103AA000890F11964C9148130EC112969C91119753
:103AB0008C91890F12969C91890F11969C91890F78
:103AC00011969C91890F11969C91890F11969C914A
:103AD000890F11969C91890F840F480F11969C9124
:103AE0009413F1C011968C9111964C91840F1196FC
:103AF0004C91840F11964C91840F11964C91840F28
:103B000011964C91840F11964C91840F11964C9103
:103B1000840F890F292F280F11968C912813D3C059
:103B200011969C9111968C91890F11969C91890FF9
:103B300011969C91890F11969C91890F11969C91D9
:103B4000890F11969C91890F11969C91890F820F74
:103B5000922F980F11968C919813B5C011963C91A5
:103B600011968C91380F11968C91380F11968C917B
:103B7000380F11968C91380F11968C91380F119641
:103B80008C91380F11968C91380F390F892F830F34
:103B900011969C91891397C011962C9111969C9126
:103BA000290F11969C91290F11969C91290F11961E
:103BB0009C91290F11969C91290F11969C91290F88
:103BC00011969C91290F280F382F320F11968C9146
:103BD000381379C011969C9111968C91980F11967B
:103BE0008C91980F11968C91980F11968C91980F3B
:103BF00011968C91980F11968C91980F11968C912B
:103C0000980F930F232F290F11968C9128135BC0C7
:103C100011969C9111968C91890F11969C91890F08
:103C200011969C91890F11969C91890F11969C91E8
:103C3000890F11969C91890F11969C91890F820F83
:103C4000922F980F11968C9198133DC011962C913C
:103C500011968C91820F11962C91820F11962C91B6
:103C6000820F11962C91820F11962C91820F119632
:103C70002C91820F11962C91820F890F890F11962A
:103C80009C91891320C0EF01CA56DF4F12962881FC
:103C90009C91920F11962C91920F11962C91920F4C
:103CA00011962C91920F11962C91920F11962C91A6
:103CB000920F11962C91920F980F980FE256FF4F8A
:103CC00081E02081921380E0DF91CF91089581E01F
:103CD000DF91CF910895CF93DF93FC019081818193
:103CE000980F8281980F8381980F8481890F858333
:103CF000880F613009F49EC19681980F2781920F39
:103D00002085920F2185920F8285980F8385980FC9
:103D10008485980F8585980F9687990F623009F4EE
:103D200089C137858089380F8189380F8289380F9A
:103D30008389380F8489380F8589380F8689380F31
:103D4000390F378B908D818D890F928D890F938DCF
:103D5000890F948D890F958D890F968D890F478DC9
:103D6000840F830F932F980F90A331A182A1380F56
:103D700083A1380F84A1380F85A1380F86A1380F91
:103D800087A1380F80A5380F390F832F890F81A79E
:103D900022A593A5290F94A5290F95A5290F96A5CE
:103DA000290F97A5290F90A9290F91A9290F280F4D
:103DB000322F380F32AB93A984A9980F85A9980F99
:103DC00086A9980F87A9980F80AD980F81AD980F9D
:103DD00082AD980F930F292F230F23AF95AD84AD9C
:103DE000890F96AD890F97AD890FDF01A05CBF4F9A
:103DF0009C91890F11969C91890F11969C91890F26
:103E000011969C91890F820F982F920F11969C9377
:103E1000EF01CA5BDF4F119628818C91820F1296B9
:103E20002C91820F11962C91820F11962C91820F5A
:103E300011962C91820F11962C91820F11962C9134
:103E4000820F890F890F11968C93299611962881DC
:103E50009C91920F12962C91920F11962C91920F89
:103E600011962C91920F11962C91920F11962C91E4
:103E7000920F11962C91920F980F890F11968C9397
:103E80002996119628819C91920F12962C91920F4F
:103E900011962C91920F11962C91920F11962C91B4
:103EA000920F11962C91920F11962C91920F980FC0
:103EB000890F11968C932896129628819C91920FC7
:103EC00011962C91920F11962C91920F11962C9184
:103ED000920F11962C91920F11962C91920F119690
:103EE0002C91920F980F890F11968C932996129608
:103EF00028819C91920F11962C91920F11962C91E2
:103F0000920F11962C91920F11962C91920F11965F
:103F10002C91920F11962C91920F980F890F119658
:103F20008C932996129628819C91920F11962C9130
:103F3000920F11962C91920F11962C91920F11962F
:103F40002C91920F11962C91920F11962C91920F09
:103F5000980F890F11968C932996129628819C911F
:103F6000920F11962C91920F11962C91920F1196FF
:103F70002C91920F11962C91920F11962C91920FD9
:103F800011962C91920F980F282F290F11962C9390
:103F90002996129698818C91890F11969C91890F80
:103FA00011969C91890F11969C91890F11969C9165
:103FB000890F11969C91890F11969C91890F820F00
:103FC000280F11962C932996129698818C91890F1F
:103FD00011969C91890F11969C91890F11969C9135
:103FE000890F11969C91890F11969C91890F1196BA
:103FF0009C91890F820F820F11968C9329961296AD
:1040000028819C91920F11962C91920F11962C91D0
:10401000920F11962C91920F11962C91920F11964E
:104020002C91920F11962C91920F980FE256FF4F00
:10403000890F8083DF91CF9108950F931F93CF93C2
:10404000DF93EC01162F0E94E8278EEF810F82305C
:1040500028F0DF91CF911F910F910895269612308D
:1040600039F160E002E110E080913E088530C8F04F
:10407000C801880F991F880F991F880F991F080F73
:10408000191F0C0F1D1F69E070E0CE010E94482D22
:104090002996C017D107B9F7DF91CF911F910F91E2
:1040A0000895CE01DF91CF911F910F910C94FD27C0
:1040B00061E001E010E0D8CFCF93DF93FC01DC0199
:1040C000169688E0ED0119928A95E9F79FEF978798
:1040D0008FE0808B918B828B938B848B958B868BDF
:1040E000908F818F928F838F948F858F968F878FFC
:1040F00091A382A393A384A395A386A397A380A748
:1041000092A783A794A785A796A787A790AB81AB13
:1041100093AB84AB95AB86AB97AB80AF91AF82AFDF
:1041200094AF85AF96AF87AFDA969C9311968C9338
:1041300011969C9311968C9312969C9311968C9346
:10414000119712969C93129713968C93139714962B
:104150009C93149715968C93159716969C93169787
:1041600017968C93179719969C9311968C93119789
:1041700012969C93129713968C93139714969C9374
:10418000149715968C93159716969C9316971796D9
:104190008C93179719969C9311968C93119712965E
:1041A0009C93129713968C93139714969C93149741
:1041B00015968C93159716969C93169717968C9335
:1041C000179719969C9311968C93119712969C931E
:1041D000129713968C93139714969C931497159695
:1041E0008C93159716969C93169717968C93179702
:1041F00019969C9311968C93119712969C931297F3
:1042000013968C93139714969C93149715968C93EE
:10421000159716969C93169717968C931797199641
:104220009C9311968C93119712969C9312971396C8
:104230008C93139714969C93149715968C931597BB
:1042400016969C93169717968C93179719969C938E
:1042500011968C93119712969C93129713968C93A8
:10426000139714969C93149715968C9315971696FE
:104270009C93169717968C93179719969C93119663
:104280008C93119712969C93129713968C93139775
:1042900014969C93149715968C93159716969C9349
:1042A000169717968C93179719969C9311968C9343
:1042B000119712969C93129713968C9313971496BA
:1042C0009C93149715968C93159716969C93169716
:1042D00017968C93EA56FF4F908381839283838352
:1042E0009483858396838783DF91CF910895DF92AE
:1042F000EF92FF920F931F93CF93DF9300D000D0E4
:10430000CDB7DEB78C01D62E80E090E00E94EF2F73
:1043100069837A838B839C83CE0101960E9400304F
:104320007C01FC0180810E94B322F8018683F701A1
:1043300081810E94B322F8018783F70182810E9464
:10434000B322F8018087F70183810E94B322F8012C
:104350008287F70185818F5F0E94B322F8018387EE
:10436000DD2051F187E820E8F7019481992311F0CD
:10437000892F822BF801848781E090E0F701048087
:1043800002C0880F991F0A94E2F7F8018187F701AC
:1043900082859385F801892B91F485858B7F8587AC
:1043A0000F900F900F900F90DF91CF911F910F9171
:1043B000FF90EF90DF90089587E020E0D5CF8585CE
:1043C00084608587EDCFFC0140FF05C0858560FFD7
:1043D00059C081608587942F9695262F269590FF4A
:1043E00005C0858520FF4BC0826085879695269500
:1043F00090FF05C0858520FF3FC084608587969526
:10440000269590FF05C0858520FF33C0886085878D
:104410009695269590FF05C0858520FF27C0806171
:1044200085879695269590FF05C0858520FF1BC042
:10443000806285879695269590FF05C0858520FF2B
:104440000FC08064858796952695992341F08585D0
:10445000222319F08068858708958F7785870895CE
:104460008F7B8587F0CF8F7D8587E4CF8F7E858793
:10447000D8CF877F8587CCCF8B7F8587C0CF8D7F37
:104480008587B4CF8E7F8587A6CFCF93DF93EC014E
:10449000FB01808191819C8B8B8B828193819E8B90
:1044A0008D8BDE015896349688E001900D928A95A6
:1044B000E1F7DE019196FB013C9688E001900D92B8
:1044C0008A95E1F7FB01848995899BA78AA786894C
:1044D00097899DA78CA7808D918D988B8F87828DD2
:1044E000938D9A8B898BDF91CF910895FB01208169
:1044F0003181FC0137A726A7FB0122813381FC0112
:1045000031AB20AB0895C3960C94EB05FB01DC01A5
:10451000A156BF4F1C92208111962C932181119698
:104520002C932281FC01EE55FF4F2083319623E529
:10453000208331961082319620E12083319621E14B
:104540002083319625E020830895982F92959F70BF
:104550008927982F969596958927982F969589273C
:104560008095817008956AE070E090E00E94393390
:104570009B0122953295307F3227207F32278F7022
:10458000822B08956AE070E090E00E943933AC011C
:104590006930710549F0262F2295207F4930510559
:1045A00039F08F70822B089520EF49305105C9F7FB
:1045B0008FE0822B0895809194060895809194064F
:1045C000811101C0089582E080939A068091990636
:1045D000807F83608093990685E996E00E94D505E7
:1045E00004C085E996E00E94D50561E085E996E082
:1045F0000E9426058111F5CF81EF93E00E947F296B
:1046000010929206109293061092940680E00C94F9
:10461000DB180F931F93CF938C018091940688230E
:1046200061F182E080939A0680919906807F836091
:104630008093990685E996E00E94D50504C085E936
:1046400096E00E94D50561E085E996E00E94260586
:10465000C82F8111F4CF81EF93E00E947F2910923F
:104660009206109293061092940680E00E94DB1846
:104670008C2FCF911F910F9108950E94A92DC82FC3
:1046800081114DC0F8018081807F8038A1F1848143
:104690008F70843009F449C0853051F78AE08093E7
:1046A000910681E294E00E947F2986E0F801A5E965
:1046B000B6E001900D928A95E1F781E0809394062F
:1046C0000E94DB188091A9069091AA06A091AB06E2
:1046D000B091AC064E96A11DB11D80938D069093AE
:1046E0008E06A0938F06B0939006C1E08C2FCF91D9
:1046F0001F910F910895F80183818F7090E00897C2
:10470000079708F0B5CF8481282F22952F7030E0CD
:10471000215031092730310508F4BACFA9CF8EEFE7
:1047200093E00E947F29C0E0A3CF89E080939106A7
:10473000B8CFCF9380919406882321F08091A00672
:10474000882311F0CF9108950E94A92D811145C0B1
:10475000C0E00E94A92D882329F0809191068A301B
:1047600009F468C08091930681113EC08091920641
:10477000811144C0C0939306C111B1C0109292063A
:1047800080918D0690918E06A0918F06B091900633
:104790004091A9065091AA066091AB067091AC06B3
:1047A00084179507A607B70790F04091A906509186
:1047B000AA066091AB067091AC06415E5F4F6F4FE9
:1047C0007F4F481759076A077B0708F0BBCF8091D6
:1047D00094068111A9C080E0B5CFC1E08091910617
:1047E000893009F0B5CFB5CFC0939306CC2309F437
:1047F00053C080919206882309F4A4CF10929206A8
:1048000082E080939A0680919906807F83608093EE
:10481000990685E996E00E94D50504C085E996E0F1
:104820000E94D50561E085E996E00E942605811188
:10483000F5CF88CFCC2309F491C0809194068823CA
:1048400051F282E080939A0680919906807F83607E
:104850008093990685E996E00E94D50504C085E914
:1048600096E00E94D50561E085E996E00E94260564
:104870008111F5CF81EF93E00E947F29109292067B
:10488000109293061092940680E00E94DB1880E05C
:1048900059CF10929306C1E082E080939A068091EE
:1048A0009906807F83608093990685E996E00E944F
:1048B000D50504C085E996E00E94D50561E085E94B
:1048C00096E00E9426058111F5CF809192068823FB
:1048D00009F438CFC0939206C11134CF91CF109212
:1048E0009A0680919906807F89608093990685E970
:1048F00096E00E94D50561E085E996E00E942605D4
:104900008091A9069091AA06A091AB06B091AC0641
:104910004E96A11DB11D80938D0690938E06A09397
:104920008F06B09390060ECF82E080939A06809116
:104930009906807F83608093990685E996E00E94BE
:10494000D50504C085E996E00E94D50561E085E9BA
:1049500096E00E9426058111F5CF8CCF80919306B9
:10496000811197CF80919206882321F081E0809376
:104970009206E8CE1092930681E080939206109200
:104980009A0680919906807F8A60AFCFFC01808172
:104990009181A281B381B23C20F08058924AA14912
:1049A000B44BBC01CD016059794A8D4E984D20E839
:1049B0003AE349E050E00E944D33DA01C901880F23
:1049C000991FAA1FBB1F880F991FAA1FBB1F880F03
:1049D000991FAA1FBB1F821B930BA40BB50BBC0115
:1049E000CD01660F771F881F991F660F771F881FDD
:1049F000991F25EB35E040E050E00E944D336835CB
:104A0000734018F480E19EE0089580E090E00895FE
:104A100080E19EE00895FC0180819181A281B381B3
:104A2000B23C20F08058924AA149B44BBC01CD0160
:104A30006059794A8D4E984D20E83AE349E050E0BC
:104A40000E944D33DA01C901880F991FAA1FBB1FAD
:104A5000880F991FAA1FBB1F880F991FAA1FBB1F72
:104A6000821B930BA40BB50BBC01CD01660F771F06
:104A7000881F991F660F771F881F991F25EB35E048
:104A800040E050E00E944D336835734018F480E1F7
:104A90009EE0089580E090E008950F931F93CF93D8
:104AA000DF9300D000D0CDB7DEB78C0180E090E07E
:104AB0000E94EF2F69837A838B839C83CE010196BA
:104AC0000E940030B8010E94E93184E5F801828734
:104AD00081E00F900F900F900F90DF91CF911F9179
:104AE0000F9108950F931F93CF93DF93CDB7DEB748
:104AF000A0970FB6F894DEBF0FBECDBFFC010190AA
:104B00000020E9F79F01245131092817390761F086
:104B100080E0A0960FB6F894DEBF0FBECDBFDF9148
:104B2000CF911F910F910895BC0143E150E0CE0158
:104B300001960E9497391C8A8E010B5E1F4F8CE0F4
:104B4000F80111928A95E9F76DE274E0CE010196C1
:104B50000E9475390097E1F20E944E398C569740B9
:104B60009C8F8B8F6DE274E080E090E00E9475393D
:104B7000009771F20E944E3981508A8F6FE274E083
:104B800080E090E00E947539009711F20E944E3942
:104B9000888F6EE474E080E090E00E9475390097A1
:104BA00009F4B6CF0E944E398F8B6EE474E080E03A
:104BB00090E00E947539009709F4AACF0E944E39FF
:104BC0008E8B6EE171E080E090E00E947539009775
:104BD00009F49ECF0E944E398D8B8FEF9FEF98A3E3
:104BE0008F8FC8010E947E30611571058105910586
:104BF00009F48ECF22E020938F070E94F03281E0EB
:104C000088CFCF92DF92EF92FF9220E030E041E632
:104C100055E4609132087091330880913408909186
:104C200035080E943B360E94B8340E94F93220E0D9
:104C300030E041E655E460912A0870912B0880919C
:104C40002C0890912D080E943B360E94B8346B01CD
:104C50007C0120E030E041E655E460912E0870913F
:104C60002F0880913008909131080E943B360E94B5
:104C7000B834A70196010E946D30809136088230C9
:104C8000E1F0833091F0813041F080E090E0FF90DE
:104C9000EF90DF90CF900C94EB3086EC94E2FF9095
:104CA000EF90DF90CF900C94EB3088E095E2FF908E
:104CB000EF90DF90CF900C94EB308BE095E2FF907B
:104CC000EF90DF90CF900C94EB302830E0F027503D
:104CD0002830C8F450E0CA0101970797A0F4FA0100
:104CE000E157F84F808190E02150AC0102C055950A
:104CF00047952A95E2F7CA018170992740FF06C0BF
:104D000084E690E008958FEF9FEF089508958F92C5
:104D10009F92AF92BF92EF92FF920F931F93CF9308
:104D2000DF933FEF320F373008F46FC02830B8F50B
:104D3000C0E0D0E00430D1F1053009F47CC0042F8C
:104D400010E0EE24EA94FE2CC8010197873091050B
:104D500008F05BC0209709F458C02FEFE216F20666
:104D600009F456C0FC01E057F84F219781E090E02C
:104D700001C0880FCA95EAF7EF2809F442C0908174
:104D8000892B80838FEF9FEFDF91CF911F910F9140
:104D9000FF90EF90BF90AF909F908F900895275015
:104DA000283098F5C22FD0E0043031F624E6E22E08
:104DB000F12C042F4B015C0182E394E00E947F29D7
:104DC00040E050E0C501B4010E942B2A81E494E048
:104DD0000E947F2910E0C8010E94AE2C85E494E077
:104DE0000E947F29CE010E94AE2C89E494E00E94AB
:104DF0007F29C7010E94AE2C87EE91E00E947F2997
:104E0000A3CF80959081892380838FEF9FEFBCCFC4
:104E1000F801E157F84F208130E0219702C0359525
:104E20002795CA95E2F7C9018170992720FFACCF79
:104E300084E690E0A9CFE12CF12CBBCF0F930E9428
:104E4000D1040E9499230E9410188091E6068823BD
:104E500009F456C08091E6068130C1F060F08430DC
:104E600050F480E594E00E947F296091E60687EE89
:104E700096E00E941D206091E60687EE96E00E9473
:104E80008E1C8823B1F10F910C94F81885E0E7EEA1
:104E9000F6E0A0EEB6E001900D928A95E1F780E091
:104EA00090E00E9499138DE494E00E947F29609124
:104EB000E60687EE96E00E941D204091EB06042F47
:104EC0000F702091EA062F7042954F706091E806AE
:104ED0007091E90676276727762780E090E00E94A8
:104EE00087266091E60687EE96E00E948E1C81116F
:104EF000CACF86E694E00E947F290F910C94F8189F
:104F00000F910895CF93DF9389E794E00E947F2962
:104F100089EB94E00E947F29C2E2D8E06881798120
:104F20008A819B8140E00E942B2A84EC94E00E94BD
:104F30007F296C817D818E819F8140E00E94FA2AC9
:104F400087EE91E00E947F298BEC94E00E947F29FC
:104F5000688579858A859B8545E050E00E94A12B74
:104F60008DED94E00E947F296C857D858E859F85DF
:104F700045E050E00E94A12B88EE94E00E947F293A
:104F8000688979898A899B8942E050E00E94A12B37
:104F900087EE91E00E947F2984EF94E0DF91CF912A
:104FA0000C947F290E9401264091220850912308E9
:104FB00060912408709125088FEA96E00E94B5055B
:104FC0000E94822783E00E94C82D80E090E008952F
:104FD0000F931F93CF93DF93EC018C010A5F1F4F58
:104FE00061E089910E94BA29C017D107C9F7DF9102
:104FF000CF911F910F910C9474298F929F92AF9231
:10500000BF92CF92DF92EF92FF920F931F93CF93B5
:10501000DF93CDB7DEB760970FB6F894DEBF0FBE53
:10502000CDBF6C01162F80E1E0E2F1E0DE011196C8
:1050300001900D928A95E1F78FE195E00E947F291A
:10504000D60114968C910E94E62C85E295E00E9490
:105050007F29F60185810E94E62C87E295E00E9477
:105060007F29D6011696EC91E770F0E0EE0FFF1F56
:1050700081E090E08C0F9D1FE80FF91F80819181E6
:105080000E947F2988E295E00E947F29D60112962E
:105090008C910E94E62C8EE494E00E947F29F60118
:1050A00081810E94E62C8EE494E00E947F29D60143
:1050B0008C910E94E62CF601878182FD78C00E94C7
:1050C0007429111161C0D60117968C9187FD79C0A2
:1050D00080FD72C088E595E00E947F295601F9E0C5
:1050E000AF0EB11C76018DE2E80EF11C450188E09F
:1050F000880E911C8501D80111968C910E94E62C96
:105100008EE494E00E947F29F80180810E94E62CC1
:105110008CE691E00E947F290E5F1F4F801691065A
:1051200051F70E947429F9E0AF0EB11CEA14FB0498
:10513000E9F685E695E00E947F29560199E9A90ED6
:10514000B11C670188E0C80ED11C8701D8011196F7
:105150008C910E94E62C8EE494E00E947F29F80155
:1051600080810E94E62C8CE691E00E947F290E5FF0
:105170001F4F0C151D0551F70E947429F9E0EF0E21
:10518000F11CEA14FB04E9F660960FB6F894DEBF52
:105190000FBECDBFDF91CF911F910F91FF90EF9088
:1051A000DF90CF90BF90AF909F908F9008958BE24B
:1051B00095E00E947F2983CF85E495E00E947F29B6
:1051C00089CF80E395E00E947F29F601878180CF17
:1051D0000F931F93CF93DF9300D01F92CDB7DEB70D
:1051E000182F40E1BE016F5F7F4F90E00E94CD39E4
:1051F000107FE1F1A2E9B5E08C91E0919B07F0917D
:105200009C078823D1F1309789F08D010F5F1F4FE4
:105210000995019671F1F80181918F01882349F177
:10522000E0919B07F0919C07309791F7898181115C
:1052300015C0E0E0F0E0309789F00DE611E08CE277
:105240000995019659F0F80181918F01882331F079
:10525000E0919B07F0919C07309791F70F900F908A
:105260000F90DF91CF911F910F910895AEE8B5E0B7
:10527000C3CFE0919B07F0919C0789818823D9F2E5
:10528000309761F38E010E5F1F4F0995019699F0DB
:10529000F80181918F01882371F0E0919B07F091D3
:1052A0009C07309791F70F900F900F90DF91CF915F
:1052B0001F910F910895E0919B07F0919C07BBCF40
:1052C000E0919B07F0919C07309709F009948FEFCC
:1052D0009FEF0895E0919907F0919A07309709F0B0
:1052E00009948FEF9FEF0895E0919B07F0919C0741
:1052F000309711F08AE009948FEF9FEF0895CF93D4
:10530000DF93EC0188818823C1F0E0919B07F09145
:105310009C07309769F021960995019649F089918B
:10532000882359F0E0919B07F0919C073097A1F7F3
:105330008FEF9FEFDF91CF91089580E090E0DF91B4
:10534000CF910895CF93DF93EC01FE0184918823E0
:1053500061F0E0919B07F0919C07309709F0099567
:105360002196FE0184918111F4CF80E090E0DF91DD
:10537000CF910895FF920F931F93CF93DF9300D0A7
:105380001F92CDB7DEB7182FF62E40E1BE016F5F3A
:105390007F4F90E00E94CD39107F09F059C0AEE8F0
:1053A000B5E08C918823C9F1E0919B07F0919C07AF
:1053B000309789F08D010F5F1F4F0995019669F1B4
:1053C000F80181918F01882341F1E0919B07F091D1
:1053D0009C07309791F7FF20B9F0E0919B07F0917F
:1053E0009C07309789F00DE611E08CE20995019653
:1053F00059F0F80181918F01882331F0E0919B07EA
:10540000F0919C07309791F70F900F900F90DF91DC
:10541000CF911F910F91FF90089589818823D9F230
:10542000E0919B07F0919C073097A9F28E010E5FE7
:105430001F4F0995019679F2F80181918F01882318
:1054400051F2E0919B07F0919C07309791F7C3CF01
:10545000A2E9B5E0A6CF8F929F92AF92BF92FF9242
:105460000F931F93CF93DF93CDB7DEB72A970FB675
:10547000F894DEBF0FBECDBF4B015C01F42E20E1DE
:10548000AE014F5F5F4F0E94E339D501C401807FB9
:10549000892B8A2B8B2BD9F1D501C4018827892B25
:1054A0008A2B8B2B09F494C0D501C4018827907FE7
:1054B000892B8A2B8B2B09F48EC0D501C401882738
:1054C0009927892B8A2B8B2B09F488C0D501C4011D
:1054D00088279927A07F892B8A2B8B2B09F481C0E1
:1054E000D501C40188279927AA27892B8A2B8B2BC2
:1054F00009F47AC088249924AA2420EFB2228928AA
:105500008A288B2809F473C0A2E9B5E002C0A9EA91
:10551000B5E08C91882309F440C0E0919B07F0919D
:105520009C07309789F08D010F5F1F4F09950196F9
:10553000A1F1F80181918F01882379F1E0919B0716
:10554000F0919C07309791F7FF20B9F0E0919B070D
:10555000F0919C07309789F00DE611E08CE20995F7
:10556000019659F0F80181918F01882331F0E09183
:105570009B07F0919C07309791F72A960FB6F89405
:10558000DEBF0FBECDBFDF91CF911F910F91FF9076
:10559000BF90AF909F908F90089589818823A1F24A
:1055A000E0919B07F0919C07309771F28E010E5F9E
:1055B0001F4F0995019641F2F80181918F018823CF
:1055C00019F2E0919B07F0919C07309791F7BCCFBF
:1055D000A0EAB5E09ECFAAEBB5E09BCFA3EBB5E088
:1055E00098CFAAE9B5E095CFA5E9B5E092CFAEE8AE
:1055F000B5E08FCFFF920F931F93CF93DF93CDB77B
:10560000DEB72C970FB6F894DEBF0FBECDBFF42ED9
:105610002AE0AE014F5F5F4F0E94E3398981882302
:10562000B9F0E0919B07F0919C07309789F08E01CB
:105630000E5F1F4F0995019659F0F80181918F0176
:10564000882331F0E0919B07F0919C07309791F708
:10565000FF20B9F0E0919B07F0919C07309789F00B
:105660000DE611E08CE20995019659F0F80181915F
:105670008F01882331F0E0919B07F0919C073097D0
:1056800091F72C960FB6F894DEBF0FBECDBFDF9119
:10569000CF911F910F91FF900895FF920F931F9349
:1056A000CF93DF93CDB7DEB72A970FB6F894DEBF5E
:1056B0000FBECDBFF62E4AE0BE016F5F7F4F0E9446
:1056C000CD39DC018C918823B9F0E0919B07F091F2
:1056D0009C07309789F08D010F5F1F4F0995019648
:1056E00059F0F80181918F01882331F0E0919B07F7
:1056F000F0919C07309791F7FF20B9F0E0919B075C
:10570000F0919C07309789F00DE611E08CE2099545
:10571000019659F0F80181918F01882331F0E091D1
:105720009B07F0919C07309791F72A960FB6F89453
:10573000DEBF0FBECDBFDF91CF911F910F91FF90C4
:1057400008952F923F924F925F926F927F928F9225
:105750009F92AF92BF92CF92DF92EF92FF920F9300
:105760001F93CF93DF93CDB7DEB72C970FB6F89486
:10577000DEBF0FBECDBF4B015C018A010E94B83471
:105780002B013C011B014AE0BE016F5F7F4FC2014C
:105790000E94CD39DC018C91E0919B07F0919C0730
:1057A000882309F495C03097A1F07D012FEFE21A0C
:1057B000F20A0995019609F487C0F70181917F01EA
:1057C000882309F481C0E0919B07F0919C073097F2
:1057D00081F7B201550C880B990B0E94F0349B01A4
:1057E000AC01C501B4010E94D4336B017C0137FCCC
:1057F00075C020E030E040E85FE361E070E080E009
:1058000090E0101611060CF520E030E0DC01CB0131
:10581000880F991FAA1FBB1F2C013D01440C551C6A
:10582000661C771C440C551C661C771CBC01CD0102
:10583000640D751D861D971D2F5F3F4F02171307BF
:1058400029F70E94F0349B01AC01C701B6010E9408
:105850003B360E94BF342AE0AE014F5F5F4F0E948B
:10586000E33989818823B9F0E0919B07F0919C0787
:10587000309789F08E010E5F1F4F0995019659F000
:10588000F80181918F01882331F0E0919B07F0911D
:105890009C07309791F72C960FB6F894DEBF0FBE99
:1058A000CDBFDF91CF911F910F91FF90EF90DF90CF
:1058B000CF90BF90AF909F908F907F906F905F90B0
:1058C0004F903F902F900895E0919B07F0919C0797
:1058D000309709F47ECF8EE209957BCF20E030E04F
:1058E00040E85FEB6FEF7FEFCB018BCF0F931F9300
:1058F000CF93DF93CDB7DEB72D970FB6F894DEBF09
:105900000FBECDBF9A01AE014F5F5F4F0E94D839E5
:10591000DC018C918823B9F0E0919B07F0919C0702
:10592000309789F08D010F5F1F4F0995019659F04F
:10593000F80181918F01882331F0E0919B07F0916C
:105940009C07309791F72D960FB6F894DEBF0FBEE7
:10595000CDBFDF91CF911F910F9108950F931F93AA
:10596000CF93DF93CDB7DEB72A970FB6F894DEBF9B
:105970000FBECDBF4AE0BE016F5F7F4F0E94CD39A1
:10598000DC018C918823B9F0E0919B07F0919C0792
:10599000309789F08D010F5F1F4F0995019659F0DF
:1059A000F80181918F01882331F0E0919B07F091FC
:1059B0009C07309791F72A960FB6F894DEBF0FBE7A
:1059C000CDBFDF91CF911F910F910895FF920F935B
:1059D0001F93CF93DF93CDB7DEB72A970FB6F89416
:1059E000DEBF0FBECDBFF82E82958F7040E1BE01A5
:1059F0006F5F7F4F90E00E94CD39DC018C9188234E
:105A0000B9F0E0919B07F0919C07309789F08D01E8
:105A10000F5F1F4F0995019659F0F80181918F0191
:105A2000882331F0E0919B07F0919C07309791F724
:105A30008F2D8F7040E1BE016F5F7F4F90E00E941D
:105A4000CD39DC018C918823B9F0E0919B07F0916E
:105A50009C07309789F08D010F5F1F4F09950196C4
:105A600059F0F80181918F01882331F0E0919B0773
:105A7000F0919C07309791F72A960FB6F894DEBF05
:105A80000FBECDBFDF91CF911F910F91FF90089571
:105A90000F931F93CF93DF931616170654F4EC0160
:105AA0008C01060F171F89910E94E828C017D107A3
:105AB000D1F7E0919B07F0919C07309731F08AE095
:105AC000DF91CF911F910F910994DF91CF911F9199
:105AD0000F9108950E948A2D0E94A52D609126089D
