:100000000C949B030C94C4030C94C4030C94C4037D
:100010000C94C4030C94C4030C94C4030C94C40344
:100020000C94C4030C94C4030C94C4030C94B42324
:100030000C94C4030C94C4030C94C4030C94C40324
:100040000C94C4030C94C4030C9478230C9445239F
:100050000C94C4030C94C4030C94C4030C94C40304
:100060000C94C4030C94C403072C7AA5BA6CC590F5
:10007000DA3B9365FC8BBC53F810FD3C5692834DE4
:10008000BD879D3AB63DCBC9BF5BBE73DA0FC93F92
:1000900005A84CCDB2D44EB93836A9020C50B9914E
:1000A0008688083CA6AAAA2ABE000000803F6E6F80
:1000B0006E65006461696C793D5420542069732039
:1000C0006C696B6520303733302D206F72203037EC
:1000D000333032303030206F72202D3230303020CB
:1000E00020666F722075702030373A333020616E91
:1000F000642F6F7220646F776E2032303A30300A8E
:100100007765656B6C793D54545454545454206C49
:10011000696B65207765656B6C793D303733302DC1
:100120002B2B2B2B303930302D2B20282B20726598
:100130007065617473207468652070726576696F8C
:10014000757320542920666F722075702030373AFD
:100150003330204D6F6E2D46726920616E642075BC
:10016000702030393A3030205361742D53756E0A47
:10017000617374726F3D4E205468697320656E61BF
:10018000626C657320617374726F206175746F6D3A
:10019000617469632E204E20697320746865206F36
:1001A000666673657420746F20636976696C206479
:1001B00075736B20696E206D696E757465732E2082
:1001C000536F20617374726F3D2B363020636C6FF8
:1001D0007365732074686520736875747465722024
:1001E0003630206D696E7574657320616674657252
:1001F00020636976696C206475736B0A73756E2D64
:100200006175746F3D3120203120656E61626C65CF
:100210007320616E6420302064697361626C657361
:100220002073756E206175746F6D617469630A72F5
:10023000616E646F6D3D3120656E61626C65732027
:1002400072616E646F6D206175746F6D6174696346
:100250002E2073687574746572206F70656E7320DC
:10026000616E6420636C6F736573206174207261CA
:100270006E646F6D2074696D65732C20736F2069D7
:1002800074206C6F6F6B73206C696B6520796F7570
:100290002061726520686F6D65207768656E2079D2
:1002A0006F7520617265206E6F740A7274632D6FB2
:1002B0006E6C793D312020557064617465207468DE
:1002C00065206275696C742D696E207265616C20A1
:1002D00074696D6520636C6F636B206F6620746852
:1002E0006520736875747465722E20446F6E277470
:1002F000206368616E6765206974732070726F6730
:1003000072616D6D65642074696D6572732028611A
:100310006E6420666C616773290A612C2067206116
:100320006E64206D3A206C696B6520696E20736580
:100330006E6420636F6D6D616E640A72733D283068
:100340007C317C32292072656164206261636B209C
:1003500073617665642074696D657220646174618F
:100360002E2069662073657420746F20322C2072F1
:10037000657475726E20616E792064617461206DA0
:1003800061746368696E67206720616E64206D2008
:10039000652E672E206D3D302028616E79206D65B9
:1003A0006D6265722920696E7374656164206F6681
:1003B000206D3D320A007072696E743D287274635C
:1003C0007C6375290A0063753D2843656E7472610C
:1003D0006C556E697449447C6175746F2920206C7A
:1003E000696B65203830616263642E206175746FBB
:1003F0003A2070726573732053746F70206B657947
:10040000206F6E2063656E7472616C20756E697406
:1004100020696E20746865206E65787420363020FF
:100420007365636F6E64730A7274633D49534F5F03
:1004300054494D455F535452494E4720206C696BD7
:100440006520323031372D31322D33315432333A49
:1004500035393A35390A626175643D73657269618F
:100460006C5F626175645F726174650A6C6F6E6760
:1004700069747564653D4E206C696B65202D313360
:100480002E32333435322028746F2063616C6375EB
:100490006C61746520617374726F290A6C61746990
:1004A000747564653D4E206C696B65202B35322E6A
:1004B00033343233340A74696D652D7A6F6E653D5D
:1004C0004E206C696B65202B310A6473743D28657E
:1004D000757C307C3129206461796C69676874208F
:1004E000736176696E672074696D653A2061757411
:1004F0006F6D617469633A2065753D6575726F70E3
:10050000652E206D616E75616C6C793A20303D6F9F
:1005100066662C20313D6F6E0A766572626F736578
:100520003D28307C317C327C337C347C3529202062
:100530007365742074657874206F75747075742099
:10054000766572626F73697479206C6576656C3A52
:10055000203020666F72206E6F6E65202E2E2E204A
:100560003520666F72206D6178290A70773D796F4A
:1005700075725F636F6E6669675F70617373776FC3
:10058000726420202069662070617373776F7264D3
:10059000207365742C20746865207077206F7074E8
:1005A000696F6E206E6565647320746F20636F6D74
:1005B000652066697273743A20652E672E20636F1A
:1005C0006E6669672070773D6D795F7061737377D0
:1005D000206473743D30202E2E2E0A7365742D63B3
:1005E0006F6E6669672D70617373776F72643D79A2
:1005F0006F75725F636F6E6669675F706173737743
:100600006F72640A726573746172743D28317C3054
:1006100029202069662031207468656E2072657318
:1006200074617274204D43550A00613D28307C533B
:10063000656E646572494429206865782061646448
:1006400072657373206F66207468652073656E64CD
:100650006572206F72207265636569766572202805
:100660006164642061203920696E2066726F6E7447
:1006700029206F72203020666F72207468652063B5
:100680006F6E666967757265642043656E7472612A
:100690006C556E69740A673D5B302D375D202067AD
:1006A000726F7570206E756D6265722E20302069D4
:1006B0007320666F722062726F6164636173740A83
:1006C0006D3D5B302D375D202067726F7570206D3A
:1006D000656D6265722E203020697320666F72200E
:1006E00062726F61646361737420616C6C20677205
:1006F0006F757073206D656D626572730A633D2856
:1007000075707C646F776E7C73746F707C73756EBC
:100710002D646F776E7C73756E2D696E73747C7348
:1007200065742920636F6D6D616E6420746F207332
:10073000656E640A000011241FBECFEFD8E0DEBF53
:10074000CDBF14BE0FB6F894A89580916000886163
:1007500080936000109260000FBE15E0A0E0B1E051
:10076000E6E8FDE502C005900D92AC3BB107D9F774
:1007700028E0ACEBB5E001C01D92A037B207E1F76D
:100780000E94F6210C94C12E0C9400008F938FB719
:100790008F93F894809154088F5F809354088091D0
:1007A00055088F4F80935508809156088F4F80933E
:1007B0005608809157088F4F809357088F918FBFAD
:1007C0008F910895882391F081E08093DC0504C027
:1007D00080910A08813041F484E690E00E94AD23C4
:1007E0008091DB058823A1F381E008951092DC0558
:1007F00081E0089580910001909101010895109287
:10080000C9051092CA051092CB051092BE05109230
:10081000CD051092CC05109283061092C40510925B
:10082000C30580910001909101019093C2058093CE
:10083000C10586E090E09093C0058093BF050895C0
:10084000EF92FF920F931F93CF93DF930E94E721C4
:100850008093D3059091D205891709F488C081113E
:1008600067C09FEF9093DA058093D20520918306AD
:10087000211109C020918406211105C02091DB05BA
:10088000222309F476C08091D8059091D905209152
:10089000DC05222309F44EC02091DB05211120C084
:1008A0001092C9051092CA051092CB051092BE0590
:1008B0001092CD051092CC05109283061092C405BB
:1008C0001092C30520910001309101013093C205BF
:1008D0002093C10526E030E03093C0052093BF058A
:1008E00021E02093DB0501969093D9058093D805EC
:1008F0008091D305882309F18091D6059091D70581
:1009000001969093D7058093D6058091DA05181645
:100910000CF51092D9051092D8051092D7051092B7
:10092000D605DF91CF911F910F91FF90EF90089521
:1009300091E098CF1092DB05D6CF8091D4059091AD
:10094000D50501969093D5058093D4058091DA055D
:100950001816FCF2882329F31092D5051092D405BD
:10096000DF91CF911F910F91FF90EF90089590E04C
:1009700079CF4091CE055091CF056091D00570910F
:10098000D105411551056105710509F452C0415069
:100990005109610971094093CE055093CF056093C9
:1009A000D0057093D105452B462B472B09F041C04C
:1009B0001092C9051092CA051092CB051092BE057F
:1009C0001092CD051092CC05109283061092C405AA
:1009D0001092C30520910001309101013093C205AE
:1009E0002093C10526E030E03093C0052093BF0579
:1009F000913009F048CF2091BE058091D8059091A3
:100A0000D905AC0127300CF0F1C04C5051094D31E3
:100A1000510508F03CCF4091D6055091D705445080
:100A200051094131510508F032CF2F5F2093BE05A7
:100A30002ECF81111FC08091CB05882309F438C1C6
:100A40009F3F09F47FC09091BE05973009F01BCFFE
:100A500021E0280F2831B8F01092CB058091CA050B
:100A60008F5F8A30B8F48093CA058091D805909141
:100A7000D9050DCF2091D4053091D505213F310501
:100A800008F096CFD8CF8091D8059091D9052093C2
:100A9000CB05FDCE1092CA058091C90580FDBBC073
:100AA0002091C3053091C4058F5F8093C905809163
:100AB000BF059091C0052817390708F4E4CE8F30A0
:100AC000910509F463C0883A910509F471C006974D
:100AD00009F0D9CE8091CC059091CD05E09100012F
:100AE000F0910101892B69F481812081820F92812B
:100AF000890F9381890F9481890F3581831709F4B8
:100B0000DCC01092C9051092CA051092CB05109254
:100B1000BE051092CD051092CC051092830610925E
:100B2000C4051092C305F093C205E093C10586E0A9
:100B300090E09093C0058093BF058091D805909177
:100B4000D905A5CE2091D6053091D7059091C9053C
:100B50002C30310588F5092F017010E0000F111FAE
:100B6000F801EB53FA4F21E030E0A9010090CA05EB
:100B700002C0440F551F0A94E2F720813181242BD3
:100B8000352B318320839091BE055FCFE09100012A
:100B9000F0910101848587FD9BC088EA90E09093E5
:100BA000C0058093BF058091D8059091D9056FCE7F
:100BB00083E08093830667CE9170C92F90E0D92F90
:100BC000CC0FDD1FCB53DA4F21E030E00090CA0597
:100BD00002C0220F331F0A94E2F720953095488116
:100BE000598124233523398328832DCF4C53510930
:100BF0004D33510508F04BCE4091D6055091D705A5
:100C0000445051094531510508F041CE273009F0D3
:100C10003ECE21E03CCF0091C1051091C205C091AC
:100C2000C505D091C6057E01FF248C2F0E941119A5
:100C3000811156C080E092E08E299F29C817D907FC
:100C400009F451C0C091C705D091C8057E01FF24A9
:100C50008C2F0E941119882309F458C080E093E07A
:100C60008E299F29C817D90709F453C087E7F801CF
:100C700080838091CC059091CD0501969093CD0510
:100C80008093CC058091C1059091C2050196909307
:100C9000C2058093C1052091C3053091C4052F5F23
:100CA0003F4F3093C4052093C3058091C905FCCE06
:100CB0002091CA052111C4CE9BCE9F709F30C1F0F8
:100CC00081E0809383068091D8059091D905DFCD8E
:100CD00082E0809383068091D8059091D905D7CD85
:100CE00080E090E0A9CF8091C505F8018083CACF4C
:100CF000207F203829F78FE090E09093C005809303
:100D0000BF058091D8059091D905C1CD80E091E0D3
:100D1000A7CF8091C705F8018083B4CF1F93CF93ED
:100D2000DF93EC0190918406992331F010E0812F3C
:100D3000DF91CF911F91089581E00E94E203182F67
:100D40008823A1F3E0910201F0910301888180835F
:100D50009881898181838981890F9A8192839A817F
:100D6000890F9B8193839B81890F9C8194839C81B4
:100D7000890F858380910D08811111C08CE090E06E
:100D80009093E7058093E60581E08093840680E0F8
:100D90000E94E203812FDF91CF911F91089584E398
:100DA00091E00E94201E80910201909103010E9417
:100DB000891CE4CF2091840621113EC0FC01A09142
:100DC0000201B091030180818C9360818181119631
:100DD0008C9311978181680F828112968C93129760
:100DE0008281680F838113968C9313978381680F98
:100DF000848114968C9314978481680F15966C9354
:100E0000809102019091030106960E94A2168091A2
:100E10000D08811113C0E0910201F0910301848556
:100E200087FD24C080E591E09093E7058093E60577
:100E300081E080938406089580E0089584E391E042
:100E40000E94201E80910D088230D0F08091020116
:100E500090910301BC016A5F7F4F0E94251BE091C6
:100E60000201F0910301848587FFDCCF8EE190E0E1
:100E70009093E7058093E60581E0809384060895CA
:100E8000809102019091030160E070E0E6CF0F9342
:100E90001F93CF93DF9380918406811105C0DF916A
:100EA000CF911F910F9108959091DE0591111FC070
:100EB0002091E505223008F480C01092DF052F5FF5
:100EC000263008F450C01092E5052091E4052F5F0C
:100ED000233008F487C01092E405982F80E09093A7
:100EE000DE05DF91CF911F910F910C94EC21809141
:100EF000DD0581113CC09091E50581E0923008F05C
:100F000080E08093DF059F5F943018F11092E50533
:100F10009091E4059F5F973008F458C01092E40563
:100F200081E08093DD05E0910201F0910301808171
:100F3000C82FD0E00E94111981114BC080E092E0CF
:100F40008C2B9D2B9093E1058093E0058091DF052C
:100F5000C8CF9093E5051092DD05DF91CF911F91E9
:100F60000F910C94EC2180E02093E505B8CF2091FF
:100F7000E405422F50E0435051099091E50557FD9B
:100F80002BC0923090F0943058F561E070E002C0D0
:100F9000660F771F4A95E2F74091E0055091E10511
:100FA0004623572381E0452BD9F48093DF059F5FCB
:100FB0009630E0F49093E50594CF3091E40531113B
:100FC0007CCF31E03093DF052F5FCECF9093E405E7
:100FD000C2CF80E090E0B4CF211102C0923028F35C
:100FE00080E0E3CF2093E40580E079CF1092E5051F
:100FF0002F5F2D3018F42093E40573CF1092E40591
:10100000C091E205D091E3052196D093E305C0930A
:10101000E2052091E6053091E705C217D307D8F025
:101020001092E3051092E2051092DD051092DE05A4
:101030000E94EC21109284061092E3051092E205C2
:101040001092E4051092E50580E0DF91CF911F91A9
:101050000F910C94EC21E0910201F0910301CE017B
:1010600096958795E80FF91F8081082F10E00E9460
:101070001119C0FF0DC0882381F080E093E0802B20
:10108000912B9093E1058093E0058091DF0529CFB6
:10109000811106C080E092E0F2CF80E091E0EFCFD6
:1010A00080E090E0ECCF2F923F924F925F926F9250
:1010B0007F928F929F92AF92BF92CF92DF92EF92E8
:1010C000FF920F931F93CF93DF93CDB7DEB76A974D
:1010D0000FB6F894DEBF0FBECDBF8C01072E000CFB
:1010E000880B990B0E94332920E030E040E752E45E
:1010F0000E9489286F8B788F898F9A8F0D8B1E8B1A
:1011000089E391E09C8B8B8B8AEEC82E86E6D82EE5
:101110008BEDE82E8DEBF82E85E89BEBACE0BEEB7B
:101120008D879E87AF87B88B80ED9BEEAAE6BFE3E5
:1011300089879A87AB87BC8786E693E7ABECBEEBE3
:101140008D839E83AF83B887AB89BC892D883E8809
:1011500098E0290E311CBA8BA98B0D891E892BEDC5
:101160003FE049E450E46091FD077091FE078091F3
:10117000FF07909100080E94792A20E030E044E3C4
:1011800053E40E9489284B015C010E94E62A2B014E
:101190003C01C501B4010E9484284B015C012D81F2
:1011A0003E814F815885C301B2010E94792A9B017B
:1011B000AC0165E073E186ED9DEB0E9417282B01E1
:1011C0003C0129853A854B855C85C501B4010E94A7
:1011D000792A9B01AC01C301B2010E9489280E94B7
:1011E000062820E030E040E451E40E94792A2BED0B
:1011F0003FE049E450E40E94892820E030E040E4E8
:1012000051E40E9418284B015C0120EA3AE14FE2C8
:101210005EEB6D857E858F8598890E94792A2B01EA
:101220003C0121E834E045E05EE3C701B6010E94DD
:10123000792A9B01AC01C301B2010E9417289B01CE
:10124000AC01C501B4010E9417286B017C0120E0AC
:1012500030E040E751E46091F9077091FA0780911E
:10126000FB079091FC070E9489289B01AC01C701F4
:10127000B6010E9418286B017C0120910108309171
:10128000020840910308509104086F89788D898D78
:101290009A8D0E9418289B01AC01C701B6010E94DB
:1012A0001828AE014F5F5F4F0E94452A6B017C01F9
:1012B0000F3FBFEF1B0759F069817A818B819C81B9
:1012C0000E940229862F0E942E19F80181830115A0
:1012D000110581F020E030E040E752E4C701B6019B
:1012E0000E94792A0E940229862F8E7F0E942E1941
:1012F000D8018C930E5F1F4F0215130509F459C0D6
:10130000A989BA896D917D91BA8BA98B072E000CA2
:10131000880B990B0E9433296B017C0128E03CE289
:1013200040EA52E40E94172824E73EE74AE85CE3DB
:101330000E94792A0E94E62A2CEF39EA41ED5EE309
:101340000E94792A4B015C010E94E62A6D837E830C
:101350008F839887C501B4010E94842869877A87A2
:101360008B879C8723E039E04AE05DE3C701B60143
:101370000E94792A2BE734E14EEE5EE30E941828A2
:101380000E94E62A6D877E878F87988B2BE134E653
:1013900042E95CE3C701B6010E94792A21E338E003
:1013A0004CE25EE30E9417280E94E62A6B017C0152
:1013B000D6CEED89FE893996FE8BED8B8B899C8983
:1013C000A1E081399A0709F45CC0FC01668177814C
:1013D000072E000C880B990B0E9433296B017C01AE
:1013E00028E03CE240EA52E40E94172824E73EE766
:1013F0004AE85CE30E94792A0E94E62A2CEF39EA47
:1014000041ED5EE30E94792A4B015C010E94E62ACD
:101410006D837E838F839887C501B4010E948428E1
:1014200069877A878B879C8723E039E04AE05DE310
:10143000C701B6010E94792A2BE734E14EEE5EE344
:101440000E9418280E94E62A6D877E878F87988BD6
:101450002BE134E642E95CE3C701B6010E94792A38
:1014600021E338E04CE25EE30E9417280E94E62A5E
:101470006B017C018B899C8908969C8B8B8BDC0192
:1014800065CE6A960FB6F894DEBF0FBECDBFDF9172
:10149000CF911F910F91FF90EF90DF90CF90BF9071
:1014A000AF909F908F907F906F905F904F903F9004
:1014B0002F9008950F931F93CF93DF9387E991E0C7
:1014C0000E94201EC4E0D1E08E01F801808191814C
:1014D0000E94201E88EC91E00E94201E0A5F1F4F90
:1014E000F1E002321F0789F70E94151E8881998159
:1014F0000E94201E8BEC91E00E94201E8C819D8119
:101500000E94431E0E94151E269681E0C232D80713
:1015100069F786ED91E00E94201E80E090E0DF9167
:10152000CF911F910F9108958F929F92AF92BF928A
:10153000CF92DF92EF92FF920F931F93CF93DF939F
:10154000CDB7DEB764970FB6F894DEBF0FBECDBF40
:10155000623071050CF469C0FC01E480F580A6805E
:10156000B780E114F10409F484C0A114B10409F4B2
:1015700080C04B018C01CC24C394D12C26C065E1E2
:1015800072E0C5010E949D2D892B09F451C069E1CB
:1015900072E0C5010E949D2D892B09F457C0FFEF11
:1015A000CF1ADF0A8C149D0409F43FC0F801E084CF
:1015B000F184A284B384E114F10409F45AC00C5FED
:1015C0001F4FA114B10409F454C06FE072E0C701C9
:1015D0000E949D2D892B99F263E372E0C7010E945E
:1015E0009D2D892BE1F288E392E00E94201E8091DC
:1015F000850690918606892B09F050C08AE30E94E7
:10160000011E80E492E00E94201E8CE095E00E9482
:10161000201EC7010E94201E8AE00E94011EFFEFCB
:10162000CF1ADF0A8C149D0409F680E090E023C0F5
:10163000CE0101960E94CE19882309F4B0CFCE01C5
:1016400001960E94201E0E94151EA9CF8CE192E0F7
:101650000E94201E6091F1077091F2078091F307BC
:101660009091F40740E150E00E94C3200E94151EB3
:1016700096CF8FEF9FEF64960FB6F894DEBF0FBE44
:10168000CDBFDF91CF911F910F91FF90EF90DF9031
:10169000CF90BF90AF909F908F90089580E40E946C
:1016A000011E80918506909186060E94FB20A6CFA0
:1016B0003F924F925F926F927F928F929F92AF92E2
:1016C000BF92CF92DF92EF92FF920F931F93CF932F
:1016D000DF933B01623071050CF482C1FC01C481CF
:1016E000D581E680F780209709F4C8C0E114F104A1
:1016F00009F4C4C08C01412C312C512C812C912C2B
:101700005401CC24C394D12C18C0C7010E94682D69
:10171000582EFFEFCF1ADF0A6C147D04A1F1F801F7
:10172000C085D185E284F384209709F4A7C00C5FBB
:101730001F4FE114F10409F4A1C06FE472E0CE017F
:101740000E949D2D892B09F44BC063E174E0CE010A
:101750000E949D2D892BC9F261EF73E0CE010E949A
:101760009D2D892B09F046C0C7010E94682D009766
:1017700009F482C077E0372E380EFFEFCF1ADF0A68
:101780006C147D0461F681149104A104B10409F480
:10179000AFC02091E805822F90E0A0E0B0E0DC012E
:1017A000992788273091EA05832B4091E90550E07D
:1017B000542F442760E070E0842B952BA62BB72B89
:1017C00088169906AA06BB0641F0B501A40188EE69
:1017D00095E00E94E61A2091E805C8EED5E08CC09D
:1017E00040E150E060E070E0C7010E945D2B4B01DA
:1017F0005C018FCF67E172E0CE010E949D2D892BA5
:1018000009F050C06AE572E0C7010E949D2D892B46
:1018100009F4D1C063E672E0C7010E949D2D892BB7
:1018200009F4CCC061E572E0C7010E949D2D892BAF
:1018300009F4C7C066E572E0C7010E949D2D892B9F
:1018400009F4C2C06FE572E0C7010E949D2D892B8B
:1018500009F4BDC066E672E0C7010E949D2D892B88
:1018600009F4B8C06FE672E0C7010E949D2D892B74
:1018700009F4B3C0412C4DCF312C4BCF8FEF9FEFEC
:10188000DF91CF911F910F91FF90EF90DF90CF905C
:10189000BF90AF909F908F907F906F905F904F9090
:1018A0003F90089588E392E00E94201E8091850673
:1018B00090918606892B91F48AE30E94011E80E4B0
:1018C00092E00E94201E8CE095E00E94201ECE0136
:1018D0000E94201E8AE00E94011E1BCF80E40E940D
:1018E000011E80918506909186060E94FB20E4CF20
:1018F00020918706C7E8D6E0207F203809F440C051
:10190000442039F19C81907F842D8F70492E482A84
:101910004C82CE010E94061BCE010E948E068823B7
:10192000C1F083E792E00E94201E8091850690918D
:101930008606892B09F05CC08CE095E00E94201E91
:1019400086ED93E00E94201E0E94151E80E090E02C
:1019500097CF83E792E00E94201E809185069091A8
:101960008606892BF1F48CE095E00E94201E89E721
:1019700092E00E94201E0E94151E80E090E080CF21
:101980002C812F7030E1539EC0011124522E582A11
:101990005C828B81982F907F832D8F70892B8B8316
:1019A000AFCF80E40E94011E80918506909186064B
:1019B0000E94FB20D8CF85E0482EABCE84E0482E95
:1019C000A8CE83E0482EA5CE86E0482EA2CE87E0A2
:1019D000482E9FCE88E0482E9CCE8DE0482E99CE92
:1019E00020918706312C412C512CC7E8D6E084CFBA
:1019F00080E40E94011E80918506909186060E94D7
:101A0000FB209ACF2F923F924F925F926F927F92DC
:101A10008F929F92AF92BF92CF92DF92EF92FF92FE
:101A20000F931F93CF93DF9300D000D0CDB7DEB7D5
:101A300099249394209112082111912C6230710500
:101A40000CF4BEC06B019C838B83FC01A480B58029
:101A500006811781A114B10409F416C101151105FD
:101A600009F412C1EE24E394F12C26C0B80182E1FE
:101A700098E00E949D2D892B09F002C182E892E036
:101A80000E94201E1FEFE11AF10ACE14DF0409F4B0
:101A900097C0EB81FC81A084B18402851385A114D9
:101AA000B10409F4F1C03496FC83EB839924939438
:101AB0000115110509F4E8C06FE772E0C5010E9445
:101AC0009D2D892B99F2992009F4E8C16FEB72E002
:101AD000C5010E949D2D892B09F475C065E172E056
:101AE000C5010E949D2D892B09F4A5C069E172E012
:101AF000C5010E949D2D892B09F068C067EF73E036
:101B0000C8010E949D2D892B09F451C16BE073E03F
:101B1000C8010E949D2D892B09F069C16091B7060B
:101B2000862F90E0A0E0B0E0DC0199278827209183
:101B3000B906AC01BD01422B8091B80690E0982F08
:101B40008827A0E0B0E08A019B01082B192B2A2BE3
:101B50003B2BC901B8018C0122273327003811051E
:101B60002105310509F090C000938706709388061F
:101B7000609389066093F1077093F2078093F307EF
:101B80009093F4070E94DF2183E792E00E94201ED9
:101B90008091850690918606892B09F067C08CE0BC
:101BA00095E00E94201E86ED93E00E94201E0E9478
:101BB000151E1FEFE11AF10ACE14DF0409F069CFF8
:101BC00080E090E078C00E9408225CCF64E173E07E
:101BD000C5010E949D2D892B09F4D7C06CE173E0EB
:101BE000C5010E949D2D892B09F418C161E273E0A3
:101BF000C5010E949D2D892B09F436C169E273E06D
:101C0000C5010E949D2D892B09F06CC0F80101903F
:101C10000020E9F73197E01BF10BE031F10580F48A
:101C2000AF014F5F5F4FB80182E198E00E94942DB1
:101C30000E94DF21A9CFC8010E94F3198111A4CF0E
:101C400083E792E00E94201E80918506909186068F
:101C5000892B09F0F5C08CE095E00E94201E89E7F1
:101C600092E00E94201E0E94151E0CCF80E40E946C
:101C7000011E80918506909186060E94FB208FCFE1
:101C80008FE892E00E94201E83E792E00E94201ECF
:101C90008091850690918606892B09F0DBC08CE047
:101CA00095E00E94201E89E792E00E94201E0E947B
:101CB000151E8FEF9FEF0F900F900F900F90DF91F9
:101CC000CF911F910F91FF90EF90DF90CF90BF9039
:101CD000AF909F908F907F906F905F904F903F90CC
:101CE0002F9008956DE373E0C5010E949D2D892B0F
:101CF00009F4C2C06AE473E0C5010E949D2D892BDE
:101D000009F4D1C066E573E0C5010E949D2D892BC1
:101D100009F438C160E673E0C5010E949D2D892B4E
:101D200009F497C169E673E0C5010E949D2D892BD6
:101D300009F4D3C063E773E0C5010E949D2D892B90
:101D400009F0FDC167E773E0C8010E949D2D892B52
:101D500019F0F1E0F09305086BE975E0C8010E9405
:101D60009D2D892B11F0109205086AE773E0C801D8
:101D70000E949D2D892B09F40DC203E000930508F4
:101D80000E94821A0E94DF21FFCE40E150E060E015
:101D900070E0C8010E94732C60930E0870930F08C6
:101DA00080931008909311080E94DF21EDCE80E00F
:101DB00090E00E943A24DC01CB01CC96A11DB11D1C
:101DC0008093F6059093F705A093F805B093F90575
:101DD0001092B70680918506909186069093F5053E
:101DE0008093F40587EC92E00E94201ECDCE40E166
:101DF00050E060E070E0C8010E94732C8C01222743
:101E00003327003809F040CF892E9924AA24BB2417
:101E100089288A288B2809F4A7CE36CF4AE050E0DB
:101E200060E070E0C8010E94732C6093F507709326
:101E3000F6078093F7079093F8070E94DF21A4CE5E
:101E400080E40E94011E80918506909186060E9482
:101E5000FB2001CF80E40E94011E809185069091B5
:101E600086060E94FB201BCFC8010E94682D80932C
:101E70000D080E94DF2188CE61E675E0C8010E944E
:101E80009D2D892B11F166E473E0C8010E949D2D00
:101E9000892B09F0D5CE10920A0874CF86EA92E019
:101EA0000E94201EF1CE61E675E0C8010E949D2DC2
:101EB000892B79F066E473E0C8010E949D2D892B7F
:101EC00009F0BECE10920B085DCF11E010930A0806
:101ED00059CF21E020930B0855CFF80180818D3236
:101EE00009F482C1282F60E070E0CB01412C512C15
:101EF00030E8632E3FE3732E222309F417C10F5FEE
:101F00001F4F822F812C912C54011A82198233C0C9
:101F1000282E312CF0E32F1A31082AE02216310442
:101F200020F589819A81892B51F020E030E040E250
:101F300051E4C301B2010E9489282B013C0120E039
:101F400030E040E251E4C501B4010E94792A4B011E
:101F50005C01B101330C880B990B0E943329A50158
:101F600094010E9418284B015C01F80181918F01B6
:101F7000882309F4D5C08E3259F6E1E0F0E0FA8307
:101F8000E983F3CFF80180818D3209F4F5C0282E62
:101F900060E070E0CB01412C512CF0E86F2EFFE3A4
:101FA0007F2E222009F448C00F5F1F4F822D812C05
:101FB000912C54011A82198232C0282E312CF0E360
:101FC0002F1A31082AE02216310420F589819A81DE
:101FD000892B51F020E030E040E251E4C301B2012E
:101FE0000E9489282B013C0120E030E040E251E4CE
:101FF000C501B4010E94792A4B015C01B101330C87
:10200000880B990B0E943329A50194010E9418287E
:102010004B015C01F80181918F01882339F08E32E8
:1020200061F6E1E0F0E0FA83E983F4CFA3019201E5
:10203000C501B4010E94792A6093F9077093FA07E9
:102040008093FB079093FC070E94821A0E94DF2175
:102050009BCDF80180818D3209F4B8C0282E60E054
:1020600070E0CB01412C512C50E8652E5FE3752EBA
:10207000222009F448C00F5F1F4F822D812C912C24
:1020800054011A82198232C0282E312CF0E32F1A03
:1020900031082AE02216310420F589819A81892BA2
:1020A00051F020E030E040E251E4C301B2010E946F
:1020B00089282B013C0120E030E040E251E4C501D9
:1020C000B4010E94792A4B015C01B101330C880BE9
:1020D000990B0E943329A50194010E9418284B01F5
:1020E0005C01F80181918F01882339F08E3261F60D
:1020F000E1E0F0E0FA83E983F4CFA3019201C501A6
:10210000B4010E94792A6093FD077093FE078093C3
:10211000FF07909300080E94821A0E94DF2134CDAD
:10212000A3019201C501B4010E94792A60930108BC
:1021300070930208809303089093040821CE88E3EB
:1021400092E00E94201E8091850690918606892B40
:1021500009F058C08AE30E94011E80E492E00E94C8
:10216000201E8CE095E00E94201EC5010E94201ECA
:102170008AE00E94011E86CC21800F5F1F4F60E025
:1021800070E080E090E8412C512CA0E86A2EAFEB83
:102190007A2E07CF88E392E00E94201E8091850668
:1021A00090918606892BC1F58AE30E94011E80E486
:1021B00092E00E94201E8CE095E00E94201EC50146
:1021C0000E94201E8AE00E94011EDACD21800F5F4E
:1021D0001F4F60E070E080E090E8412C512CE0E877
:1021E0006E2EEFEB7E2E44CF21810F5F1F4F60E0FC
:1021F00070E080E090E8412C512C40E8642E4FEBD9
:10220000742E7ACE80E40E94011E80918506909102
:1022100086060E94FB209ECF80E40E94011E8091D2
:102220008506909186060E94FB20BECF8CE793E046
:102230000C94201E0E940B1E8F3F2FEF9207A1F0DF
:102240008D309105B9F38A309105A1F320917C0678
:10225000222369F0CB9771F710927C060E940B1E27
:102260008F3F2FEF920761F780E090E00895209173
:102270007A0630917B062F3731057CF48B3391053C
:10228000B1F0A9014F5F5F4F50937B0640937A06F0
:10229000F901E650FA4F8083CDCF81E080937C0630
:1022A00080E090E010927B0610927A060895211546
:1022B000310539F0F901E650FA4F10828AEF95E0C6
:1022C000F1CF80E090E0EECFEF92FF920F931F935B
:1022D000CF93DF93EC01109286061092850600E002
:1022E00010E08881803241F4DE01FE013196EF0179
:1022F0001D9281918032D9F3882309F19801220F30
:10230000331F220F331FF901E357F94FD183C083E5
:102310008881882379F0803279F18D33E1F1FE01F3
:10232000319604C0803241F18D33A9F1EF018191E2
:102330008111F8CFF901E357F94F13821282C801D6
:10234000DF91CF911F910F91FF90EF900895E701DA
:10235000F901E357F94F65E873E0808191810E94AC
:102360009D2D892B49F4C7010E94682D9093860604
:1023700080938506015011090F5F1F4F0A30110528
:1023800009F0AFCF8FEF9FEFDF91CF911F910F91AA
:10239000FF90EF9008957E01FFEFEF1AFF0A188279
:1023A0008981803239F4F70122967E011192899158
:1023B0008032D9F3882331F3F901E357F94FF382DF
:1023C000E282F7018081982F9F7D09F4C0CF8D3381
:1023D000C9F2319602C08D33A9F2EF018191982F95
:1023E0009F7DC9F7B5CF0F931F93CF93DF93EC0178
:1023F000892B09F074C08091F6059091F705A091A2
:10240000F805B091F905892B8A2B8B2B31F480E0EC
:10241000DF91CF911F910F91089580E090E00E948D
:102420003A240091F6051091F7052091F8053091B6
:10243000F905061717072807390708F472C08091B5
:10244000B706982F907F903811F790E0A0E0B0E0A9
:10245000DC01992788272091B906822B4091B80684
:1024600050E0542F442760E070E0842B952BA62B7E
:10247000B72BA09387069093880680938906809354
:10248000F1079093F207A093F307B093F40710922B
:10249000F6051092F7051092F8051092F9058CEAEE
:1024A00093E00E94201E83E792E00E94201E80910C
:1024B000850690918606892B09F071C08AE30E94F7
:1024C000011E81ED93E00E94201E8CE095E00E94A9
:1024D000201E0E94151E0E94DF2181E099CF80E01E
:1024E00090E00E943A24DC01CB018C0F9D1FA11DBE
:1024F000B11D8093F6059093F705A093F805B0936E
:10250000F9051092B7068091850690918606909302
:10251000F5058093F40580E0DF91CF911F910F9135
:102520000895C0918506D09186061092F605109206
:10253000F7051092F8051092F90589E893E00E94DA
:10254000201E8091F4059091F50590938606809366
:10255000850683E792E00E94201E80918506909177
:102560008606892B91F48AE30E94011E8EE993E08E
:102570000E94201E8CE095E00E94201E0E94151EE5
:10258000D0938606C093850642CF80E40E94011E48
:1025900080918506909186060E94FB20E4CF80E41E
:1025A0000E94011E80918506909186060E94FB2064
:1025B00085CF4F925F926F927F928F929F92AF9250
:1025C000BF92CF92DF92EF92FF920F931F93CF9320
:1025D000DF9300D01F92CDB7DEB77C015B014A01CB
:1025E0001B82452B09F4A9C0FC01808120E030E06A
:1025F000882309F45BC000E010E055245A949FE062
:10260000492E1EC0F501E20FF31F50826801FFEF53
:10261000CF1ADF0AC814D90408F04CC0F501EC0D3C
:10262000FD1D40828FEFE81AF80A86010F5F1F4FE9
:10263000980108151905D0F5F70180818823B1F1BB
:102640008B3209F44CC08D32E9F28983F701818124
:102650008A836801FFEFCF1ADF0AC814D90450F546
:10266000CE0101960E94682D0E941F19F501EC0D04
:10267000FD1D8083F701828189833701F4E06F0EAD
:10268000711CF70183818A830A0D1B1DCE010196FF
:102690000E94682D0E941F19F80180837301860132
:1026A0000F5F1F4F98010815190530F281E082165F
:1026B000930609F080E00F900F900F90DF91CF917B
:1026C0001F910F91FF90EF90DF90CF90BF90AF9050
:1026D0009F908F907F906F905F904F9008950430FF
:1026E000110544F3C80104968816990618F3D5011C
:1026F000A20FB31FFD01349780818C93F8013196AE
:10270000EA0DFB1DDF0114978C918083F80132964E
:10271000EA0DFB1DDF0114978C9180836801E3E0D3
:10272000CE0ED11CF501EC0DFD1DDF0114978C912F
:102730008083FFEFEF1AFF0A78CF20E030E0B6CFBA
:102740002F923F924F925F926F927F928F929F92C1
:10275000AF92BF92CF92DF92EF92FF920F931F93AF
:10276000CF93DF93CDB7DEB7A8970FB6F894DEBF4F
:102770000FBECDBFFC014B012FEF29839FE09A8351
:102780002B839C832D839E832F83988729879A8709
:102790002B879C872D879E872F87988B298B9A8BD9
:1027A0002B8B9C8B2D8B9E8B2F8B988F298F9A8FA9
:1027B0002B8F9C8F2D8F9E8F2F8F98A3623071054A
:1027C0000CF404C204811581A680B780011511059F
:1027D00009F4D9C0A114B10409F4D5C07F01EEEF0A
:1027E000EFA319A2212C1BA21CA21DA21EA218A697
:1027F000312C612C712C1AA2512C412CCC24C39465
:10280000D12C30C060EE73E0C8010E949D2D892B51
:1028100009F487C066EE73E0C8010E949D2D892BE4
:1028200009F069C0C5010E94682D3C01F1E0FAA3DE
:102830002FEFC21AD20A8C149D0451F1D7011896B9
:102840000D911C9119971A96AD90BC901B9701158C
:10285000110509F498C0B4E0EB0EF11CA114B10409
:1028600009F491C069ED73E0C8010E949D2D892B88
:1028700049F64CE150E0BE016F5F7F4FC5010E94F9
:10288000D912582E2FEFC21AD20A8C149D04B1F619
:102890004BA15CA16DA17EA1452B462B472B09F4D2
:1028A000BCC02091EE05822F90E0A0E0B0E0DC01FA
:1028B000992788273091F005832B4091EF0550E050
:1028C000542F442760E070E0842B952BA62BB72B68
:1028D0004BA15CA16DA17EA1481759076A077B0730
:1028E00009F41CC18EEE95E00E94E61A2091EE05D7
:1028F0000EEE15E096C06CEE73E0C8010E949D2DAF
:10290000892BC9F4D5018C91803309F457C08133E8
:1029100009F08ECF79A1716079A3822D8160282E74
:1029200087CF44E050E0BE01635E7F4FC5010E9447
:10293000D912482E7DCF63EF73E0C8010E949D2D10
:10294000892B79F4F5018081803309F45FC08133EC
:1029500009F06ECF99A1906899A3A22DA0682A2EA4
:1029600067CF6CEF73E0C8010E949D2D892B69F53C
:10297000D5018C91803309F4AEC0813309F06BC06E
:10298000E1E0EFA355CF8FEF9FEFA8960FB6F89435
:10299000DEBF0FBECDBFDF91CF911F910F91FF9092
:1029A000EF90DF90CF90BF90AF909F908F907F90EF
:1029B0006F905F904F903F902F90089539A13160B4
:1029C00039A3422D4E7F242E33CF6FE472E0C8012D
:1029D0000E949D2D892B09F480C063E174E0C80139
:1029E0000E949D2D892B91F161EF73E0C8010E9437
:1029F0009D2D892B09F0C0C0C5010E94682D00974C
:102A000009F4A4C0F7E0F80FF8A712CF59A1506855
:102A100059A3622D6F77262E0BCF2091870607E8EA
:102A200016E0207F203809F464C0D80114968C91F8
:102A30008F60F8018483C8010E94061B81E00E9418
:102A4000E20381110BC080E090E09FCFC5010E949E
:102A5000682D382EEDCEBFEFBFA3EACE80910201E4
:102A60009091030106960E94C116FFA1F13009F46E
:102A7000BDC05110A1C04110A4C02AA1211198C00D
:102A800080E00E941A1869A1822D0E948918C8014D
:102A90000E94EE18C8010E94DA06882309F441C09A
:102AA00083E792E00E94201E809185069091860621
:102AB000892B09F057C08CE095E00E94201E86ED1E
:102AC00093E00E94201E0E94151E80E00E94E203F7
:102AD00080E090E05ACF1FA2ABCE40E150E060E032
:102AE00070E0C5010E945D2B6BA37CA38DA39EA308
:102AF0009FCEF8018481282F2F70F0E13F9EC00106
:102B00001124822BD80113969C911397292F207F93
:102B100098A59F70922B13969C938ACF0EEE15E08A
:102B200080CF83E792E00E94201E809185069091DD
:102B30008606892B69F48CE095E00E94201E89E7C7
:102B400092E00E94201E0E94151EBFCF18A670CED4
:102B500080E40E94011E80918506909186060E9465
:102B6000FB20E9CF80E40E94011E809185069091B0
:102B700086060E94FB209FCF88E392E00E94201EE1
:102B80008091850690918606892BC1F58AE30E9483
:102B9000011E80E492E00E94201E8CE095E00E94DD
:102BA000201EC8010E94201E8AE00E94011E40CE05
:102BB000C3010E94111864CFCE0101960E94DD1757
:102BC0005ACFCE014D960E94CC1757CF2091870641
:102BD0003EEF3FA319A2212C18A61AA2512C312C8A
:102BE000412C612C712C07E816E01BCF81E00E947C
:102BF0001A1869A1822D0E9489184CCF80E40E9486
:102C0000011E80918506909186060E94FB20BECF12
:102C10000F931F93CF93DF930E9464118C01C09197
:102C20008D06D0918E066091040170910501CE0150
:102C30000E949D2D892B49F160910A0170910B0131
:102C4000CE010E949D2D892BB1F1609110017091F0
:102C50001101CE010E949D2D892B81F160911601F9
:102C600070911701CE010E949D2D892B51F1609129
:102C70001C0170911D01CE010E949D2D892B21F117
:102C8000DF91CF911F910F91089580E090E0FC01BA
:102C9000EE0FFF1FE80FF91FEE0FFF1FEC5FFE4F57
:102CA0000280F381E02DB8018DE896E0DF91CF91AD
:102CB0001F910F91099481E090E0E9CF82E090E0CC
:102CC000E6CF83E090E0E3CF84E090E0E0CFFC014A
:102CD00091818281890F9381890F9481890F9081DD
:102CE000890F9581891711F080E0089561157105AC
:102CF00021F0FB01808381E0089581E00895262F73
:102D0000220FFC01AC0147565F4F60818181680F43
:102D10008281680F8381680F8481680F8581680FC5
:102D20008681680F8781680F620F8085681308C0ED
:102D3000262F220F39964E175F0739F781E0089545
:102D400080E00895262F220FFC01AC0147565F4F0B
:102D500060818181680F8281680F8381680F84811F
:102D6000680F8581680F8681680F8781680F620F01
:102D70006087262F220F39964E175F0749F7822F5B
:102D80000895FC0188E0DF011D928A95E9F79FEF25
:102D900091878FE082879387848795878687978737
:102DA000808B928B838B948B858B968B878B908F6C
:102DB000818F938F848F958F868F978F80A391A318
:102DC00082A394A385A396A387A390A781A792A784
:102DD00083A795A786A797A780AB91AB82AB93AB50
:102DE00084AB96AB87AB90AF81AF92AF83AF94AF1C
:102DF00085AF97AFDF01A05CBF4F8C9311969C937A
:102E000011968C9311969C9311968C9311969C938A
:102E100011968C9312969C9311968C9311971296FF
:102E20009C93129713968C93139714969C931497D4
:102E300015968C93159716969C93169717968C93C8
:102E4000179719969C9311968C93119712969C93B1
:102E5000129713968C93139714969C931497159628
:102E60008C93159716969C93169717968C93179795
:102E700019969C9311968C93119712969C93129786
:102E800013968C93139714969C93149715968C9382
:102E9000159716969C93169717968C9317971996D5
:102EA0009C9311968C93119712969C93129713965C
:102EB0008C93139714969C93149715968C9315974F
:102EC00016969C93169717968C93179719969C9322
:102ED00011968C93119712969C93129713968C933C
:102EE000139714969C93149715968C931597169692
:102EF0009C93169717968C93179719969C931196F7
:102F00008C93119712969C93129713968C93139708
:102F100014969C93149715968C93159716969C93DC
:102F2000169717968C93179719969C9311968C93D6
:102F3000119712969C93129713968C93139714964D
:102F40009C93149715968C93159716969C931697A9
:102F500017968C93179719969C9311968C931197AB
:102F600012969C93129713968C93139714969C9396
:102F7000149715968C93159716969C9316971796FB
:102F80008C93E057FF4F9083818392838383948354
:102F90008583968387830895E0910201F091030170
:102FA000DC012D913C91119737A726A712968D91A0
:102FB0009C91139791AB80AB0895CF93DF93C09111
:102FC0000201D0910301FC01208131813C8B2B8BCC
:102FD000228133813E8B2D8BDE015896349628E07A
:102FE00001900D922A95E1F7DE019196FC013C9645
:102FF00028E001900D922A95E1F7FC01248935899A
:103000003BA72AA7268937893DA72CA7208D318D7C
:10301000388B2F87828D938D9A8B898BDF91CF91FF
:1030200008952091020130910301BC01C901C396AA
:103030000C945308DF92EF92FF920F931F93CF935C
:10304000DF9300D000D0CDB7DEB7D82E00910201BB
:103050001091030180E090E00E943A2469837A8312
:103060008B839C83CE0101960E9443247C01FC014A
:1030700080810E941F19F8018683F70181810E94D7
:103080001F19F8018783F70182810E941F19F80137
:103090008087F70183810E941F19F8018287F70159
:1030A00085818F5F0E941F19F8018387DD2051F110
:1030B00087E820E8F7019481992311F0892F822B6A
:1030C000F801848781E090E0F701048002C0880F56
:1030D000991F0A94E2F7F8018187F70182859385A9
:1030E000F801892B91F485858B7F85870F900F9050
:1030F0000F900F90DF91CF911F910F91FF90EF9064
:10310000DF90089587E020E0D5CF858584608587AE
:10311000EDCF982FE0910201F091030160FF05C00F
:10312000858590FF58C081608587862F8695969506
:1031300080FF05C0258590FF4BC0226025878695BE
:10314000969580FF05C0258590FF3FC024602587A8
:103150008695969580FF05C0258590FF33C0286031
:1031600025878695969580FF05C0258590FF27C009
:10317000206125878695969580FF05C0258590FF5F
:103180001BC0206225878695969580FF05C0258502
:1031900090FF0FC02064258786959695882341F07F
:1031A0008585992319F08068858708958F778587AD
:1031B00008952F7B2587F0CF2F7D2587E4CF2F7EA5
:1031C0002587D8CF277F2587CCCF2B7F2587C0CFDA
:1031D0002D7F2587B4CF8E7F8587A7CFFC012091D7
:1031E000020130910301D901A156BF4F1C92808189
:1031F00011968C93818111968C938281F901EE5501
:10320000FF4F8083319683E580833196108231961B
:1032100080E18083319681E18083319685E08083EF
:103220000895982F92959F708927982F9695969537
:103230008927982F969589278095817008956AE04F
:1032400070E090E00E947C279B0122953295307FB0
:103250003227207F32278F70822B08956AE070E03A
:1032600090E00E947C27AC016930710549F0262F5F
:103270002295207F4930510539F08F70822B0895B7
:1032800020EF49305105C9F78FE0822B0895FC01EA
:1032900080819181A281B381B23C20F08058924A12
:1032A000A149B44BBC01CD016059794A8D4E984D6E
:1032B00020E83AE349E050E00E949027DA01C90192
:1032C000880F991FAA1FBB1F880F991FAA1FBB1F1A
:1032D000880F991FAA1FBB1F821B930BA40BB50B52
:1032E000BC01CD01660F771F881F991F660F771FDE
:1032F000881F991F25EB35E040E050E00E949027A1
:103300006835734018F480E19EE0089580E090E015
:10331000089580E19EE00895FC0180819181A28161
:10332000B381B23C20F08058924AA149B44BBC0111
:10333000CD016059794A8D4E984D20E83AE349E035
:1033400050E00E949027DA01C901880F991FAA1F37
:10335000BB1F880F991FAA1FBB1F880F991FAA1F89
:10336000BB1F821B930BA40BB50BBC01CD01660FD9
:10337000771F881F991F660F771F881F991F25EBDE
:1033800035E040E050E00E9490276835734018F423
:1033900080E19EE0089580E090E008950F931F93F0
:1033A000CF93DF9300D000D0CDB7DEB78C0180E0A3
:1033B00090E00E943A2469837A838B839C83CE01B8
:1033C00001960E944324B8010E942C2684E5F8014E
:1033D000828781E00F900F900F900F90DF91CF9137
:1033E0001F910F9108950F931F93CF93DF93CDB744
:1033F000DEB7A0970FB6F894DEBF0FBECDBFFC01BD
:1034000001900020E9F79F0124513109281739075D
:1034100061F080E0A0960FB6F894DEBF0FBECDBF7E
:10342000DF91CF911F910F910895BC0143E150E0CE
:10343000CE0101960E94A62D1C8A8E010B5E1F4FA5
:103440008CE0F80111928A95E9F760E274E0CE0110
:1034500001960E948F2D0097E1F20E94682D8C56F4
:1034600097409C8F8B8F60E274E080E090E00E9438
:103470008F2D009771F20E94682D81508A8F62E231
:1034800074E080E090E00E948F2D009711F20E947E
:10349000682D888F69E274E080E090E00E948F2DB3
:1034A000009709F4B6CF0E94682D8F8B69E274E013
:1034B00080E090E00E948F2D009709F4AACF0E942F
:1034C000682D8E8B62E271E080E090E00E948F2D8B
:1034D000009709F49ECF0E94682D8D8B8FEF9FEF90
:1034E00098A38F8FC8010E94C124611571058105C1
:1034F000910509F48ECF22E0209365070E943327BF
:1035000081E088CFCF92DF92EF92FF9220E030E00F
:1035100041E655E46091010870910208809103082A
:10352000909104080E94792A0E94FB280E943C275F
:1035300020E030E041E655E46091F9077091FA0728
:103540008091FB079091FC070E94792A0E94FB283A
:103550006B017C0120E030E041E655E46091FD071D
:103560007091FE078091FF07909100080E94792AD0
:103570000E94FB28A70196010E94B02480910508B3
:103580008230E1F0833091F0813041F080E090E0D2
:10359000FF90EF90DF90CF900C942E2587E499E177
:1035A000FF90EF90DF90CF900C942E2589E899E161
:1035B000FF90EF90DF90CF900C942E258CE899E14E
:1035C000FF90EF90DF90CF900C942E25FC01CB0163
:1035D000AA27BB2780835183428322E1238314825D
:1035E0002FEF25839927AA27BB2780329105A105B4
:1035F000B10549F080399105A105B10519F487E1BC
:1036000083830895089581E183830895FC01808177
:10361000807F803891F09381292F22952F702F5F22
:103620002F7031F02295207F9F70922B9383089505
:1036300020E19F70922B93830895858118165CF783
:1036400084818F70833039F308950F931F93CF9344
:10365000DF93EB01009711F00E94891C2097F1F095
:103660008E8187FD27C060E002E110E080910D08A7
:103670008530C8F0C801880F991F880F991F880FDF
:10368000991F080F191F0C0F1D1F69E070E0CE0174
:103690000E94952129960C171D07B9F7DF91CF914C
:1036A0001F910F910895CE01DF91CF911F910F913E
:1036B0000C949E1C61E001E010E0D8CFEF92FF92E5
:1036C0000F931F93CF93DF931F92CDB7DEB70E9466
:1036D0001A118C01892B09F46FC085E294E00E94D5
:1036E000201EC8010E94201E0E94151EC8010E94B3
:1036F000081610927D0680918306813009F466C019
:1037000080E090E00E94F31180918306823061F0A6
:1037100080918306833041F00F90DF91CF911F910C
:103720000F91FF90EF9008958EE294E00E94201E8A
:10373000E0900001F090010187010A5F1F4F0E9495
:10374000FA03009711F00E94891C0115110509F177
:10375000F701848587FD6DC060E082E190E02091F3
:103760000D08253008F461C07C01EE0CFF1CEE0C46
:10377000FF1CEE0CFF1CE80EF91EE00EF11E69E0C6
:1037800070E0C8010E949521075F1F4F0E151F05AD
:10379000B1F70E94FA03BE016F5F7F4F0E94671668
:1037A000811134C00E94FF030F90DF91CF911F91D0
:1037B0000F91FF90EF90089580917D0681119BCF2E
:1037C0000E94161181E080937D0695CF0E94FA0336
:1037D0008C01FC0180818093B70681818093B806BB
:1037E00082818093B90683818093BA068481809315
:1037F000BB068BE294E00E94201E0115110519F012
:10380000C8010E94891C0E94FF037ACF80910001A9
:1038100090910101698106960E947F16882311F21A
:1038200084E494E00E94201EBDCFC8010E949E1C2B
:10383000B0CF61E081E090E092CFCF93DF930E9420
:10384000821AC1EFD7E0488159816A817B8187E87C
:1038500096E00E94E61A83E00E94132288E594E035
:103860000E94201E87E994E00E94201E68817981D1
:103870008A819B8140E00E94CC1E86E095E00E94F8
:10388000201E82EA94E00E94201E6C817D818E8140
:103890009F8140E00E949B1F86E095E00E94201ED1
:1038A0008FEA94E00E94201E688579858A859B8531
:1038B00045E050E00E94EE1F86E095E00E94201E49
:1038C00081EC94E00E94201E6C857D858E859F850D
:1038D00045E050E00E94EE1F86E095E00E94201E29
:1038E00082ED94E00E94201E688979898A899B89EB
:1038F00042E050E00E94EE1F86E095E00E94201E0C
:1039000084EE94E00E94201E80E090E0DF91CF9151
:1039100008950F931F93CF93DF93EC018C010A5FFF
:103920001F4F61E089910E945B1EC017D107C9F744
:10393000DF91CF911F910F910C94151E8F929F9242
:10394000AF92BF92CF92DF92EF92FF920F931F93AD
:10395000CF93DF93CDB7DEB760970FB6F894DEBF95
:103960000FBECDBF6C01162F80E1E4E2F1E0DE0175
:10397000119601900D928A95E1F789E095E00E94F9
:10398000201ED60114968C910E9433218FE095E081
:103990000E94201EF60185810E94332181E195E07D
:1039A0000E94201ED6011696EC91E770F0E0EE0F13
:1039B000FF1F81E090E08C0F9D1FE80FF91F8081B1
:1039C00091810E94201E82E195E00E94201ED60176
:1039D00012968C910E94332189E294E00E94201E6D
:1039E000F60181810E94332189E294E00E94201E29
:1039F000D6018C910E943321F601878182FD78C027
:103A00000E94151E111161C0D60117968C9187FD79
:103A100079C080FD72C082E495E00E94201E5601AC
:103A2000F9E0AF0EB11C76018DE2E80EF11C450104
:103A300088E0880E911C8501D80111968C910E9416
:103A4000332189E294E00E94201EF80180810E94C7
:103A5000332188EC91E00E94201E0E5F1F4F8016DC
:103A6000910651F70E94151EF9E0AF0EB11CEA1441
:103A7000FB04E9F68FE495E00E94201E560199E9C7
:103A8000A90EB11C670188E0C80ED11C8701D801BE
:103A900011968C910E94332189E294E00E94201EAD
:103AA000F80180810E94332188EC91E00E94201E61
:103AB0000E5F1F4F0C151D0551F70E94151EF9E0F2
:103AC000EF0EF11CEA14FB04E9F660960FB6F894C9
:103AD000DEBF0FBECDBFDF91CF911F910F91FF9041
:103AE000EF90DF90CF90BF90AF909F908F90089510
:103AF00085E195E00E94201E83CF8FE295E00E9431
:103B0000201E89CF8AE195E00E94201EF601878160
:103B100080CF0F931F93CF93DF9300D01F92CDB729
:103B2000DEB7182F40E1BE016F5F7F4F90E00E942B
:103B3000DC2D107FE1F1ACE7B5E08C91E0916A07F4
:103B4000F0916B078823D1F1309789F08D010F5FD9
:103B50001F4F0995019671F1F80181918F0188231A
:103B600049F1E0916A07F0916B07309791F78981ED
:103B7000811115C0E0E0F0E0309789F009EC11E028
:103B80008CE20995019659F0F80181918F01882303
:103B900031F0E0916A07F0916B07309791F70F9041
:103BA0000F900F90DF91CF911F910F910895A8E78B
:103BB000B5E0C3CFE0916A07F0916B078981882354
:103BC000D9F2309761F38E010E5F1F4F0995019670
:103BD00099F0F80181918F01882371F0E0916A07D3
:103BE000F0916B07309791F70F900F900F90DF9146
:103BF000CF911F910F910895E0916A07F0916B07A3
:103C0000BBCFE0916A07F0916B07309709F00994F8
:103C10008FEF9FEF0895E0916807F0916907309763
:103C200009F009948FEF9FEF0895E0916A07F091F2
:103C30006B07309711F08AE009948FEF9FEF08959A
:103C4000CF93DF93EC0188818823C1F0E0916A076C
:103C5000F0916B07309769F021960995019649F02C
:103C60008991882359F0E0916A07F0916B073097AA
:103C7000A1F78FEF9FEFDF91CF91089580E090E063
:103C8000DF91CF910895CF93DF93EC01FE018491F2
:103C9000882361F0E0916A07F0916B07309709F093
:103CA00009952196FE0184918111F4CF80E090E086
:103CB000DF91CF910895FF920F931F93CF93DF93DE
:103CC00000D01F92CDB7DEB7182FF62E40E1BE010F
:103CD0006F5F7F4F90E00E94DC2D107F09F059C08C
:103CE000A8E7B5E08C918823C9F1E0916A07F091CB
:103CF0006B07309789F08D010F5F1F4F0995019673
:103D000069F1F80181918F01882341F1E0916A07FF
:103D1000F0916B07309791F7FF20B9F0E0916A07B7
:103D2000F0916B07309789F009EC11E08CE209956E
:103D3000019659F0F80181918F01882331F0E091CB
:103D40006A07F0916B07309791F70F900F900F90E3
:103D5000DF91CF911F910F91FF9008958981882362
:103D6000D9F2E0916A07F0916B073097A9F28E01C2
:103D70000E5F1F4F0995019679F2F80181918F012D
:103D8000882351F2E0916A07F0916B07309791F721
:103D9000C3CFACE7B5E0A6CF8F929F92AF92BF9210
:103DA000FF920F931F93CF93DF93CDB7DEB72A9780
:103DB0000FB6F894DEBF0FBECDBF4B015C01F42EF1
:103DC00020E1AE014F5F5F4F0E94F22DD501C4018B
:103DD000807F892B8A2B8B2BD9F1D501C4018827B1
:103DE000892B8A2B8B2B09F494C0D501C401882719
:103DF000907F892B8A2B8B2B09F48EC0D501C401AF
:103E000088279927892B8A2B8B2B09F488C0D50109
:103E1000C40188279927A07F892B8A2B8B2B09F433
:103E200081C0D501C40188279927AA27892B8A2B0D
:103E30008B2B09F47AC088249924AA2420EFB2227B
:103E400089288A288B2809F473C0ACE7B5E002C042
:103E5000A3E9B5E08C91882309F440C0E0916A079A
:103E6000F0916B07309789F08D010F5F1F4F099517
:103E70000196A1F1F80181918F01882379F1E091F8
:103E80006A07F0916B07309791F7FF20B9F0E09146
:103E90006A07F0916B07309789F009EC11E08CE22A
:103EA0000995019659F0F80181918F01882331F02D
:103EB000E0916A07F0916B07309791F72A960FB659
:103EC000F894DEBF0FBECDBFDF91CF911F910F9150
:103ED000FF90BF90AF909F908F9008958981882325
:103EE000A1F2E0916A07F0916B07309771F28E01B1
:103EF0000E5F1F4F0995019641F2F80181918F01E4
:103F0000882319F2E0916A07F0916B07309791F7D7
:103F1000BCCFAAE8B5E09ECFA4EAB5E09BCFADE95F
:103F2000B5E098CFA4E8B5E095CFAFE7B5E092CF84
:103F3000A8E7B5E08FCFFF920F931F93CF93DF9346
:103F4000CDB7DEB72C970FB6F894DEBF0FBECDBF4E
:103F5000F42E2AE0AE014F5F5F4F0E94F22D89815F
:103F60008823B9F0E0916A07F0916B07309789F0E8
:103F70008E010E5F1F4F0995019659F0F80181914E
:103F80008F01882331F0E0916A07F0916B07309739
:103F900091F7FF20B9F0E0916A07F0916B07309735
:103FA00089F009EC11E08CE20995019659F0F801CD
:103FB00081918F01882331F0E0916A07F0916B07BE
:103FC000309791F72C960FB6F894DEBF0FBECDBF99
:103FD000DF91CF911F910F91FF9008952F923F9203
:103FE0004F925F926F927F928F929F92AF92BF9209
:103FF000CF92DF92EF92FF920F931F93CF93DF93B5
:10400000CDB7DEB72C970FB6F894DEBF0FBECDBF8D
:104010004B015C018A010E94FB282B013C011B0122
:104020004AE0BE016F5F7F4FC2010E94DC2DDC01C0
:104030008C91E0916A07F0916B07882309F495C091
:104040003097A1F07D012FEFE21AF20A099501964F
:1040500009F487C0F70181917F01882309F481C0A9
:10406000E0916A07F0916B07309781F7B201550C28
:10407000880B990B0E9433299B01AC01C501B40147
:104080000E9417286B017C0137FC75C020E030E0EE
:1040900040E85FE361E070E080E090E01016110618
:1040A0000CF520E030E0DC01CB01880F991FAA1F3E
:1040B000BB1F2C013D01440C551C661C771C440C95
:1040C000551C661C771CBC01CD01640D751D861D39
:1040D000971D2F5F3F4F0217130729F70E943329BF
:1040E0009B01AC01C701B6010E94792A0E940229F6
:1040F0002AE0AE014F5F5F4F0E94F22D8981882335
:10410000B9F0E0916A07F0916B07309789F08E0162
:104110000E5F1F4F0995019659F0F80181918F01AB
:10412000882331F0E0916A07F0916B07309791F79F
:104130002C960FB6F894DEBF0FBECDBFDF91CF91A6
:104140001F910F91FF90EF90DF90CF90BF90AF90B5
:104150009F908F907F906F905F904F903F902F90A7
:104160000895E0916A07F0916B07309709F47ECFCC
:104170008EE209957BCF20E030E040E85FEB6FEF07
:104180007FEFCB018BCF0F931F93CF93DF93CDB7EF
:10419000DEB72D970FB6F894DEBF0FBECDBF9A01E4
:1041A000AE014F5F5F4F0E94E72DDC018C918823A9
:1041B000B9F0E0916A07F0916B07309789F08D01B3
:1041C0000F5F1F4F0995019659F0F80181918F01FA
:1041D000882331F0E0916A07F0916B07309791F7EF
:1041E0002D960FB6F894DEBF0FBECDBFDF91CF91F5
:1041F0001F910F9108950F931F93CF93DF93CDB726
:10420000DEB72A970FB6F894DEBF0FBECDBF4AE0E7
:10421000BE016F5F7F4F0E94DC2DDC018C918823F3
:10422000B9F0E0916A07F0916B07309789F08D0142
:104230000F5F1F4F0995019659F0F80181918F0189
:10424000882331F0E0916A07F0916B07309791F77E
:104250002A960FB6F894DEBF0FBECDBFDF91CF9187
:104260001F910F910895FF920F931F93CF93DF93A8
:10427000CDB7DEB72A970FB6F894DEBF0FBECDBF1D
:10428000F82E82958F7040E1BE016F5F7F4F90E006
:104290000E94DC2DDC018C918823B9F0E0916A0743
:1042A000F0916B07309789F08D010F5F1F4F0995D3
:1042B000019659F0F80181918F01882331F0E09146
:1042C0006A07F0916B07309791F78F2D8F7040E15F
:1042D000BE016F5F7F4F90E00E94DC2DDC018C916E
:1042E0008823B9F0E0916A07F0916B07309789F065
:1042F0008D010F5F1F4F0995019659F0F8018191CB
:104300008F01882331F0E0916A07F0916B073097B5
:1043100091F72A960FB6F894DEBF0FBECDBFDF919E
:10432000CF911F910F91FF9008950F931F93CF93FB
:10433000DF931616170654F4EC018C01060F171FB5
:1043400089910E94891DC017D107D1F7E0916A07B2
:10435000F0916B07309731F08AE0DF91CF911F9198
:104360000F910994DF91CF911F910F9108950E94B1
:10437000D7210E94F2216091F5077091F607809194
:10438000F7079091F8070E948F220E94722389E319
:1043900092E290936B0780936A078DE692E2909386
:1043A0006907809368070E942B247894089541E45C
:1043B00050E064E070E081EF97E00C94582E41E407
:1043C00050E064E070E081EF97E00C94682E89B1D2
:1043D00082FB882780F90895811102C02B980895E7
:1043E0002B9A08955298239A2B9808950E94B721EA
:1043F0008CEA95E00E94201E0E941D1C83B78160FC
:1044000083BF889583B78E7F83BF0E945E1BF6CFE4
:1044100098E088E10FB6F894A895809360000FBEED
:1044200090936000FFCF579A579A569A482F50E0C2
:10443000440F551F90E012C05F9A5E9A5F9A292F31
:1044400030E024173507A4F42FEF34E38CE021503B
:1044500030408040E1F700C000009F5F90FDECCF4E
:104460005F985E985F98292F30E02417350764F332
:1044700008952091340890914F0830E02F5F3F4F0E
:1044800029272F703327232B41F493B7916093BFD3
:10449000889593B79E7F93BFECCF2091340890917D
:1044A0004F0830E02F5F3F4F29272F703327232BF2
:1044B00089F0909134089F5F90933408E09134081C
:1044C000EF70F0E0E25CF74F80838091C100806282
:1044D0008093C10080E090E008959091320880912F
:1044E000330889278770C1F0909132088091330892
:1044F0008927877019F480E090E00895809133084F
:104500008F5F80933308E0913308E770F0E0EA5C56
:10451000F74F808190E008958FEF9FEF08954F92BD
:104520005F926F927F928F929F92AF92BF92CF9243
:10453000DF92EF92FF920F931F93CF93DF9300D000
:1045400000D000D0CDB7DEB72B013C016B017C0160
:10455000CC0CDD1CEE1CFF1CCC0CDD1CEE1CFF1C6F
:10456000CC0CDD1CEE1CFF1C812C54E2952E54EF6C
:10457000A52EB12CC501B401A70196010E94902778
:1045800029833A834B835C8389819A8101979E8337
:104590008D8391E4491692E459069FE069067104FF
:1045A00008F070C0A7019601220F331F441F551F4A
:1045B000C501B4010E94902769017A0122953295C4
:1045C000307F3227207F322740E050E0C501B40120
:1045D0000E949027CA01B901A30192010E9490276D
:1045E00011E0012F021B89819A81880F991F880F82
:1045F000991F880F991F9C0140E050E0C501B4014C
:104600000E949027CA01B901A30192010E9490273C
:10461000121B101758F191E0C91AD108C092C400BA
:10462000D092C5008091C0008D7F8093C00088E14A
:104630008093C1001092C00086E08093C20026964D
:104640000FB6F894DEBF0FBECDBFDF91CF911F91A3
:104650000F91FF90EF90DF90CF90BF90AF909F9021
:104660008F907F906F905F904F9008959D81909371
:10467000C4008E818093C5008091C00082608093C9
:10468000C000D5CF8093C400F4CF1F920F920FB615
:104690000F9211248F939F93EF93FF93909134087F
:1046A00080914F0889278F70B9F080914F088F5FF4
:1046B00080934F08E0914F08EF70F0E0E25CF74F15
:1046C00080818093C600FF91EF919F918F910F9011
:1046D0000FBE0F901F9018958091C1008F7D809321
:1046E000C100F1CFE1ECF0E0808180688083089523
:1046F0001F920F920FB60F9211242F938F939F93B7
:10470000EF93FF93809132082091330890E0019657
:10471000822787709927892BC1F0809132088F5F9B
:1047200080933208E0913208E770F0E08091C60093
:10473000EA5CF74F8083FF91EF919F918F912F91CA
:104740000F900FBE0F901F9018958091C600809318
:104750004E0881E080934E08EECF8FE891E00197FC
:10476000F1F700C0000008951F920F920FB60F924C
:1047700011242F933F934F935F936F937F938F9366
:104780009F93AF93BF93EF93FF9380910B0881307A
:1047900009F453C080910A08813009F459C080910E
:1047A0000C08813089F0FF91EF91BF91AF919F91FB
:1047B0008F917F916F915F914F913F912F910F90CA
:1047C0000FBE0F901F90189580917E0690917F06E6
:1047D000A0918006B0918106AC01BD014150510904
:1047E0006109710940937E0650937F0660938006AD
:1047F00070938106892B8A2B8B2BA9F66091060872
:1048000070910708809108089091090820E533EC21
:1048100040E050E00E949027DA01C901805E914B90
:10482000AF4FBF4F80937E0690937F06A093800684
:10483000B09381060E94C603B6CF809182068F5F37
:1048400080938206837009F0A5CF0E944707A2CF0C
:104850000E942004A4CF1092800089E08093810000
:1048600080E293E0909389008093880082E08093B7
:104870006F00089560915408709155088091560812
:1048800090915708089562E678E00E944A2482E6F3
:1048900098E00895CF92DF92EF92FF920F931F93CB
:1048A000CF93DF9300D000D0CDB7DEB76C017B0192
:1048B000E0915808F09159083097D1F160E578E01F
:1048C00009958C01F601408151816281738180914B
:1048D000500890915108A0915208B0915308840F4C
:1048E000951FA61FB71F101611064CF4A801012E24
:1048F000000C660B770B840F951FA61FB71F8983CB
:104900009A83AB83BC83B701CE0101960E94332505
:10491000F701138702870F900F900F900F90DF9190
:10492000CF911F910F91FF90EF90DF90CF9008955E
:10493000FC01408151816281738180915008909186
:104940005108A0915208B0915308840F951FA61FDB
:10495000B71F89839A83AB83BC830FEF1FEFD3CF3D
:1049600060935A0870935B0880935C0890935D088D
:1049700020935E0830935F0840936008509361086D
:1049800008958F929F92AF92BF92EF92FF920F93F2
:104990001F93CF93DF9300D000D0CDB7DEB78C014B
:1049A0000E947F2669837A838B839C83F8018284AB
:1049B000938497FC38C09E012F5F3F4F79011814F4
:1049C000190444F4092C000CAA08BB0868197909D9
:1049D0008A099B098090500890905108A090520835
:1049E000B0905308DC01CB0188199909AA09BB09C9
:1049F00089839A83AB83BC83B801C7010E944A2490
:104A000069817A818B819C810F900F900F900F901C
:104A1000DF91CF911F910F91FF90EF90BF90AF90DA
:104A20009F908F900895E0915808F0915908309721
:104A300089F060E578E09E012F5F3F4F7901C90161
:104A400009954C01F8019387828769817A818B816E
:104A50009C81B5CFFE0131967F01BCCF9093590860
:104A6000809358080895CF92DF92EF92FF920F93B0
:104A70001F93CF93DF93CDB7DEB728970FB6F89487
:104A8000DEBF0FBECDBF8B01FC01608171818281D1
:104A9000938120E831E541E050E00E9490276901D0
:104AA0007A012CE330E040E050E00E94B2272983F5
:104AB0003A834B835C8389819A81AB81BC81F80105
:104AC00060836CE370E00E947C27DC01CB01F8017D
:104AD000A1838283A6014A5F5F4F9A01A3E9B4E2F2
:104AE0000E94D127281B390B36952795820F931FDB
:104AF00096958795969587959C01220F331F220FD7
:104B0000331F220F331FB901681B790B461B570B4C
:104B100044832DEA3EE840E050E0C701B6010E9420
:104B2000B22729833A836D837E838F839887898117
:104B30009A8124E6289F6001299FD00C11246D8161
:104B40007E818F81988525EB35E040E050E00E9422
:104B5000B22729833A836D837E83E980FA80EE0C45
:104B6000FF1CEE0CFF1CEC0CFD1C8D819E8175E67C
:104B7000E716F10408F45AC001962CE330E04DE644
:104B800051E0E1E0F0E04817590768F46DE671E0A4
:104B90008E1B9F0B0E947C27DC01CB01E80EF91EC7
:104BA000CD012BE330E0F4E6EF0EF11CF801F782C3
:104BB000E682918780878217930708F443C069E9EA
:104BC00070E0821B930B0E947C27DC01CB01F82E46
:104BD000FF0CFF0CF80E6DE370E0CD010E947C2706
:104BE000DC01CB01E82EEE0C6FE170E0CD010E94FC
:104BF0007C27DC01CB0122E0280FF20EFE0CF8012D
:104C0000F5828A2FF801138612868F5F8383289698
:104C10000FB6F894DEBF0FBECDBFDF91CF911F91CD
:104C20000F91FF90EF90DF90CF900895E4E6EE169D
:104C3000F10409F0A2CF2BE330E04CE651E0E0E0D4
:104C4000F0E0A1CF6FE170E00E947C27DC01CB0196
:104C5000F80185838A2FD6CFEF92FF920F931F938F
:104C6000CF93DF938C01EB01FC01868197818459FE
:104C7000984F64E670E00E947C279B017C014DE226
:104C8000BE01C9010E945A27BE016E5F7F4F4DE2EF
:104C9000C7010E945A27BE016B5F7F4FF8018581D3
:104CA00090E04DE201960E945A27BE01685F7F4F57
:104CB000F801838140E290E00E945A27BE01655FBF
:104CC0007F4FF80182814AE390E00E945A27BE019B
:104CD000625F7F4FF80181814AE390E00E945A278A
:104CE000BE016F5E7F4FF801808140E090E0DF9170
:104CF000CF911F910F91FF90EF900C945A278F92B4
:104D00009F92AF92BF92CF92DF92EF92FF920F935A
:104D10001F93CF93DF93EC01EE81FF818F01045647
:104D2000110909F48EC0C80101976C0197FD96C066
:104D3000D594C794D594C7946CE97FEF0E947C27E3
:104D4000C60ED71E8FEFC81AD80A0D2C000CEE081D
:104D5000FF082DE631E0D8010E94E027C60ED71EDD
:104D6000E81EF91E8B8190E08C01015011092D8104
:104D7000223008F46AC0CF018459984F0E94452719
:104D8000282F30E0255C3F4F200F311F8D8190E0B0
:104D900002978530910514F027563F4F65E070E08B
:104DA0000E947C27AC0197FD56C0559547959DE321
:104DB000949F8001959F100D1124020F131F80FFF7
:104DC00002C0015E1F4FC801110FAA0BBB0B9C0153
:104DD000AD012C0D3D1D4E1D5F1D60E871E581E0AC
:104DE00090E00E946C274B015C012A8130E0A0E139
:104DF000BEE00E94D1276B017C01298130E0ACE349
:104E0000B0E00E94D127DC01CB018C0D9D1DAE1DB1
:104E1000BF1D2881820F911DA11DB11DBC01CD01B7
:104E2000680D791D8A1D9B1DDF91CF911F910F91F8
:104E3000FF90EF90DF90CF90BF90AF909F908F90BA
:104E40000895C12CD12C760184CF222309F4BBCF45
:104E5000015E1F4FB8CF4F5F5F4FA7CF680122E0C1
:104E6000C20ED11C65CF609354087093550880938F
:104E7000560890935708089560935008709351080E
:104E8000809352089093530808959C012370332710
:104E9000232B61F464E670E00E947C27892B41F4A7
:104EA0006370772781E0672B09F4089580E0089507
:104EB00081E008951F93CF93DF93EB01142F6AE0F5
:104EC00070E00E947C27605D6883805D89831A831F
:104ED000DF91CF911F910895DB018F939F930E94E3
:104EE000E727BF91AF91A29F800D911DA39F900DC9
:104EF000B29F900D1124089597FB072E16F400948D
:104F000007D077FD09D00E94F22707FC05D03EF4B8
:104F1000909581959F4F0895709561957F4F089565
:104F2000A1E21A2EAA1BBB1BFD010DC0AA1FBB1FAD
:104F3000EE1FFF1FA217B307E407F50720F0A21B1F
:104F4000B30BE40BF50B661F771F881F991F1A948C
:104F500069F760957095809590959B01AC01BD01B6
:104F6000CF010895052E97FB1EF400940E94C927D7
:104F700057FD07D00E94902707FC03D04EF40C94F5
:104F8000C92750954095309521953F4F4F4F5F4F22
:104F9000089590958095709561957F4F8F4F9F4FA5
:104FA0000895A29FB001B39FC001A39F700D811D02
:104FB0001124911DB29F700D811D1124911D089522
:104FC0000E94D127B7FF0895821B930B08950E947A
:104FD000D127A59F900DB49F900DA49F800D911D8A
:104FE00011240895AA1BBB1B51E107C0AA1FBB1FB8
:104FF000A617B70710F0A61BB70B881F991F5A9565
:10500000A9F780959095BC01CD0108959F939F7756
:105010000E946E290F90002042F49058A2EA2AEDD7
:105020003FE049E450E40E942F280C94F72950589F
:10503000BB27AA270E942F280C94F7290E94BE297B
:1050400038F00E94C52920F039F49F3F19F426F466
:105050000C9494290EF4E095E7FB0C948E29E92F2B
:105060000E941C2A58F3BA17620773078407950732
:1050700020F079F4A6F50C943E2A0EF4E0950B2E60
:10508000BA2FA02D0B01B90190010C01CA01A0019A
:105090001124FF27591B99F0593F50F4503E68F1F5
:1050A0001A16F040A22F232F342F4427585FF3CF36
:1050B000469537952795A795F0405395C9F77EF407
:1050C0001F16BA0B620B730B840BBAF09150A1F050
:1050D000FF0FBB1F661F771F881FC2F70EC0BA0FD6
:1050E000621F731F841F48F4879577956795B7955E
:1050F000F7959E3F08F0B0CF9395880F08F0992759
:10510000EE0F9795879508950E94CE29E3950C940C
:10511000082A0E949D280C94F7290E94C52958F05E
:105120000E94BE2940F029F45F3F29F00C948E299B
:1051300051110C943F2A0C9494290E941C2A68F364
:105140009923B1F3552391F3951B550BBB27AA2740
:1051500062177307840738F09F5F5F4F220F331F7A
:10516000441FAA1FA9F335D00E2E3AF0E0E832D042
:1051700091505040E695001CCAF72BD0FE2F29D045
:10518000660F771F881FBB1F261737074807AB0717
:10519000B0E809F0BB0B802DBF01FF2793585F4F8C
:1051A0003AF09E3F510578F00C948E290C943F2ADA
:1051B0005F3FE4F3983ED4F3869577956795B7956E
:1051C000F7959F5FC9F7880F911D9695879597F979
:1051D0000895E1E0660F771F881FBB1F62177307F2
:1051E0008407BA0720F0621B730B840BBA0BEE1F07
:1051F00088F7E09508950E9402296894B1110C94F3
:105200003F2A08950E94242A88F09F5798F0B92FCA
:105210009927B751B0F0E1F0660F771F881F991FEB
:105220001AF0BA95C9F714C0B13091F00E943E2A25
:10523000B1E008950C943E2A672F782F8827B85F35
:1052400039F0B93FCCF3869577956795B395D9F743
:105250003EF490958095709561957F4F8F4F9F4F4D
:105260000895E89409C097FB3EF490958095709559
:1052700061957F4F8F4F9F4F9923A9F0F92F96E9A2
:10528000BB279395F695879577956795B795F11117
:10529000F8CFFAF4BB0F11F460FF1BC06F5F7F4FB4
:1052A0008F4F9F4F16C0882311F096E911C07723C6
:1052B00021F09EE8872F762F05C0662371F096E8CF
:1052C000862F70E060E02AF09A95660F771F881F9E
:1052D000DAF7880F9695879597F90895DF93CF931E
:1052E0001F930F938B01EC01E8E6F0E00E949729F1
:1052F0000E94F7299801AE018B01EC0160E070E09B
:1053000080E89FE30E9417280E94F42A9801AE01CA
:105310000F911F91CF91DF910C948C2A97F99F6781
:1053200080E870E060E008959FEF80EC0895DF93DF
:10533000CF931F930F93FF92EF92DF927B018C012B
:10534000689406C0DA2EEF010E948C2AFE01E894D0
:10535000A5912591359145915591A6F3EF010E94B4
:105360002F28FE019701A801DA9469F7DF90EF90EA
:10537000FF900F911F91CF91DF91089500240A941F
:105380001616170618060906089500240A94121620
:1053900013061406050608950C9494290E94242AE5
:1053A000D8F3E894E0E0BB279F57F0F02AED3FE008
:1053B00049EC06C0EE0FBB0F661F771F881F28F051
:1053C000B23A62077307840728F0B25A620B730B74
:1053D000840BE3959A9572F7803830F49A95BB0F59
:1053E000661F771F881FD2F790480C94362B092E22
:1053F0000394000C11F4882352F0BB0F40F4BF2B30
:1054000011F460FF04C06F5F7F4F8F4F9F4F08956F
:10541000EF93E0FF07C0A2EA2AED3FE049EC5FEB23
:105420000E942F280E94F7290F90039401FC9058A6
:10543000E0E9F0E00C94492B57FD9058440F551FBC
:1054400059F05F3F71F04795880F97FB991F61F006
:105450009F3F79F087950895121613061406551F7D
:10546000F2CF4695F1DF08C0161617061806991FE9
:10547000F1CF86957105610508940895E894BB27DE
:1054800066277727CB0197F90895FA01DC01AA0F67
:10549000BB1F9B01AC01BF5728F4222733274427A9
:1054A000507820C0B75190F4AB2F00244695379523
:1054B0002795011CA395D2F3002071F0220F331F12
:1054C000441FB395DAF30ED00C94172861307105A0
:1054D000A0E88A07B94630F49B01AC01662777271C
:1054E00088279078309621F020833183428353833C
:1054F00008950E948C2A0C94F7290E94BE2938F046
:105500000E94C52920F0952311F00C948E290C944B
:10551000942911240C943F2A0E941C2A70F3959F11
:10552000C1F3950F50E0551F629FF001729FBB279A
:10553000F00DB11D639FAA27F00DB11DAA1F649F36
:105540006627B00DA11D661F829F2227B00DA11DE9
:10555000621F739FB00DA11D621F839FA00D611D6F
:10556000221F749F3327A00D611D231F849F600D90
:10557000211D822F762F6A2F11249F5750409AF0B9
:10558000F1F088234AF0EE0FFF1FBB1F661F771F45
:10559000881F91505040A9F79E3F510580F00C9410
:1055A0008E290C943F2A5F3FE4F3983ED4F386950E
:1055B00077956795B795F795E7959F5FC1F7FE2BB0
:1055C000880F911D9695879597F908959F930E944E
:1055D000CE290F9007FCEE5F0C94082A19F416F4FC
:1055E0000C9494290C94342B0E94242AB8F3992308
:1055F000C9F3B6F39F57550B87FF0E94422B002437
:10560000A0E640EA900180585695979528F4805C72
:10561000660F771F881F20F026173707480730F4DA
:10562000621B730B840B202931294A2BA6951794F2
:105630000794202531254A2758F7660F771F881FC2
:1056400020F026173707480730F4620B730B840BE2
:10565000200D311D411DA09581F7B901842F91586E
:10566000880F9695879508959F3F31F0915020F4CB
:10567000879577956795B795880F911D969587952E
:1056800097F9089591505040660F771F881FD2F701
:1056900008959F938F937F936F93FF93EF939B0155
:1056A000AC010E94792AEF91FF910E9497292F91D6
:1056B0003F914F915F910C94792AA0E0B0E0E3E62E
:1056C000FBE20C948B2E5C016B017A016115710574
:1056D00019F0FB0191838083E114F10429F0C701E3
:1056E0000297839708F0E5C0E5012196F501108146
:1056F000812F90E00E94862D892B11F05E01F4CF5E
:105700001D3229F42196F501118101E007C01B32F9
:1057100021F4E5012296F501118100E0E114F10484
:1057200009F1F0E1EF16F10429F43FC010E3E114B0
:10573000F10421F128E0E216F10401F154F4E2E071
:10574000EE16F10421F5812C912CA12CB0E4BB2E96
:105750003EC0FAE0EF16F10439F020E1E216F10460
:10576000B1F430C0103319F1FAE0EF2EF12CACECAB
:105770008A2E982CA82CACE0BA2E29C078E0E72E0F
:10578000F12C812C912CA12CE0E1BE2E20C060E0F8
:1057900070E080E090E897010F2C000C440B550B53
:1057A0000E94902749015A0112C0103359F4888190
:1057B0008F7D883509F0BACF19812296026080E189
:1057C000E82EF12C812C912CA12C68E0B62E40E023
:1057D00060E070E0CB0127010F2C000C6608770811
:1057E000FE0150ED352E310E29E0231570F42FEB1C
:1057F000210F2A3118F439EC332E06C02FE9210F7E
:105800002A3118F529EA322E310E232D30E02E15DB
:105810003F05DCF447FD16C086169706A806B906B4
:1058200070F0A30192010E946C27630D711D811D10
:10583000911D61307105810520E8920710F04FEF4E
:1058400001C041E021961081CBCF202F2170C114DF
:10585000D10471F0442329F02197F601D183C0834C
:1058600007C001FF19C02297F601D183C08314C07D
:1058700047FF12C0222329F060E070E080E090E84A
:1058800004C06FEF7FEF8FEF9FE722E230E03093AD
:105890006F0820936E0809C0222381F090958095AF
:1058A000709561957F4F8F4F9F4F462F372F282F31
:1058B00012C040E030E020E090E00DC097FFF5CF4F
:1058C00082E290E090936F0880936E086FEF7FEF15
:1058D0008FEF9FE7EACF642F732F822FCDB7DEB70C
:1058E000E1E10C94A72EA0E0B0E0E9E7FCE20C9423
:1058F0008B2E5C016B017A016115710519F0FB01BA
:1059000091838083E114F10429F0C7010297839702
:1059100008F0C9C0E5012196F5011081812F90E0C2
:105920000E94862D892B11F05E01F4CF1D3229F4DF
:105930002196F501118101E007C01B3221F4E50138
:105940002296F501118100E0E114F104B1F0F0E1DB
:10595000EF16F10429F4B0C010E3E114F10401F1F1
:105960002AE0E216F104B1F180E1E816F10471F0E9
:10597000E8E0EE16F104F1F413C0103341F588812C
:105980008F7D883549F7198122960260F0E1EF2E6C
:10599000F12C88248A94982CA82CAFE0BA2E20C031
:1059A00078E0E72EF12C88248A94982CA82CEFE13B
:1059B000BE2E16C06FEF7FEFCB0197010F2C000CAE
:1059C000440B550B0E94902749015A0109C08AE0F7
:1059D000E82EF12C69E9862E982CA82C69E1B62EC8
:1059E00040E060E070E0CB0127010F2C000C66085E
:1059F0007708FE0150ED352E310E29E0231570F4A5
:105A00002FEB210F2A3118F439EC332E06C02FE981
:105A1000210F2A3130F529EA322E310E232D30E0C4
:105A20002E153F05F4F44F3FC9F086169706A806D9
:105A3000B90688F0A30192010E946C27232D30E063
:105A400040E050E0620F731F841F951F62177307B9
:105A50008407950710F44FEF01C041E021961081B3
:105A6000C8CFC114D10451F0442311F0219703C0D1
:105A700001FF04C02297F601D183C08300FF07C055
:105A800090958095709561957F4F8F4F9F4F4F3FB9
:105A900079F482E290E090936F0880936E083FEF74
:105AA0002FEF9FEF0DC040E030E020E090E008C015
:105AB000462F372F282F04C0103309F067CF5FCF50
:105AC000642F732F822FCDB7DEB7E1E10C94A72EA0
:105AD000FC0188279927E89421912032E9F32930A5
