:100000000C949B030C94C4030C94C4030C94C4037D
:100010000C94C4030C94C4030C94C4030C94C40344
:100020000C94C4030C94C4030C94C4030C948E2449
:100030000C94C4030C94C4030C94C4030C94C40324
:100040000C94C4030C94C4030C9452240C941F24E9
:100050000C94C4030C94C4030C94C4030C94C40304
:100060000C94C4030C94C403072C7AA5BA6CC590F5
:10007000DA3B9365FC8BBC53F810FD3C5692834DE4
:10008000BD879D3AB63DCBC9BF5BBE73DA0FC93F92
:1000900005A84CCDB2D44EB93836A9020C50B9914E
:1000A0008688083CA6AAAA2ABE000000803F6E6F80
:1000B0006E65006461696C793D5420542069732039
:1000C0006C696B6520303733302D206F72203037EC
:1000D000333032303030206F72202D3230303020CB
:1000E00020666F722075702030373A333020616E91
:1000F000642F6F7220646F776E2032303A30300A8E
:100100007765656B6C793D54545454545454206C49
:10011000696B65207765656B6C793D303733302DC1
:100120002B2B2B2B303930302D2B20282B20726598
:100130007065617473207468652070726576696F8C
:10014000757320542920666F722075702030373AFD
:100150003330204D6F6E2D46726920616E642075BC
:10016000702030393A3030205361742D53756E0A47
:10017000617374726F3D4E205468697320656E61BF
:10018000626C657320617374726F206175746F6D3A
:10019000617469632E204E20697320746865206F36
:1001A000666673657420746F20636976696C206479
:1001B00075736B20696E206D696E757465732E2082
:1001C000536F20617374726F3D2B363020636C6FF8
:1001D0007365732074686520736875747465722024
:1001E0003630206D696E7574657320616674657252
:1001F00020636976696C206475736B0A73756E2D64
:100200006175746F3D3120203120656E61626C65CF
:100210007320616E6420302064697361626C657361
:100220002073756E206175746F6D617469630A72F5
:10023000616E646F6D3D3120656E61626C65732027
:1002400072616E646F6D206175746F6D6174696346
:100250002E2073687574746572206F70656E7320DC
:10026000616E6420636C6F736573206174207261CA
:100270006E646F6D2074696D65732C20736F2069D7
:1002800074206C6F6F6B73206C696B6520796F7570
:100290002061726520686F6D65207768656E2079D2
:1002A0006F7520617265206E6F740A7274632D6FB2
:1002B0006E6C793D312020557064617465207468DE
:1002C00065206275696C742D696E207265616C20A1
:1002D00074696D6520636C6F636B206F6620746852
:1002E0006520736875747465722E20446F6E277470
:1002F000206368616E6765206974732070726F6730
:1003000072616D6D65642074696D6572732028611A
:100310006E6420666C616773290A612C2067206116
:100320006E64206D3A206C696B6520696E20736580
:100330006E6420636F6D6D616E640A72733D283068
:100340007C317C32292072656164206261636B209C
:1003500073617665642074696D657220646174618F
:100360002E2069662073657420746F20322C2072F1
:10037000657475726E20616E792064617461206DA0
:1003800061746368696E67206720616E64206D2008
:10039000652E672E206D3D302028616E79206D65B9
:1003A0006D6265722920696E7374656164206F6681
:1003B000206D3D320A007072696E743D287274635C
:1003C0007C6375290A0063753D2843656E7472610C
:1003D0006C556E697449447C6175746F2920206C7A
:1003E000696B65203830616263642E206175746FBB
:1003F0003A2070726573732053746F70206B657947
:10040000206F6E2063656E7472616C20756E697406
:1004100020696E20746865206E65787420363020FF
:100420007365636F6E64730A7274633D49534F5F03
:1004300054494D455F535452494E4720206C696BD7
:100440006520323031372D31322D33315432333A49
:1004500035393A35390A626175643D73657269618F
:100460006C5F626175645F726174650A6C6F6E6760
:1004700069747564653D4E206C696B65202D313360
:100480002E32333435322028746F2063616C6375EB
:100490006C61746520617374726F290A6C61746990
:1004A000747564653D4E206C696B65202B35322E6A
:1004B00033343233340A74696D652D7A6F6E653D5D
:1004C0004E206C696B65202B310A6473743D28657E
:1004D000757C307C3129206461796C69676874208F
:1004E000736176696E672074696D653A2061757411
:1004F0006F6D617469633A2065753D6575726F70E3
:10050000652E206D616E75616C6C793A20303D6F9F
:1005100066662C20313D6F6E0A766572626F736578
:100520003D28307C317C327C337C347C3529202062
:100530007365742074657874206F75747075742099
:10054000766572626F73697479206C6576656C3A52
:10055000203020666F72206E6F6E65202E2E2E204A
:100560003520666F72206D6178290A70773D796F4A
:1005700075725F636F6E6669675F70617373776FC3
:10058000726420202069662070617373776F7264D3
:10059000207365742C20746865207077206F7074E8
:1005A000696F6E206E6565647320746F20636F6D74
:1005B000652066697273743A20652E672E20636F1A
:1005C0006E6669672070773D6D795F7061737377D0
:1005D000206473743D30202E2E2E0A7365742D63B3
:1005E0006F6E6669672D70617373776F72643D79A2
:1005F0006F75725F636F6E6669675F706173737743
:100600006F72640A726573746172743D28317C3054
:1006100029202069662031207468656E2072657318
:1006200074617274204D43550A00613D28307C533B
:10063000656E646572494429206865782061646448
:1006400072657373206F66207468652073656E64CD
:100650006572206F72207265636569766572202805
:100660006164642061203920696E2066726F6E7447
:1006700029206F72203020666F72207468652063B5
:100680006F6E666967757265642043656E7472612A
:100690006C556E69740A673D5B302D375D202067AD
:1006A000726F7570206E756D6265722E20302069D4
:1006B0007320666F722062726F6164636173740A83
:1006C0006D3D5B302D375D202067726F7570206D3A
:1006D000656D6265722E203020697320666F72200E
:1006E00062726F61646361737420616C6C20677205
:1006F0006F757073206D656D626572730A633D2856
:1007000075707C646F776E7C73746F707C73756EBC
:100710002D646F776E7C73756E2D696E73747C7348
:1007200065742920636F6D6D616E6420746F207332
:10073000656E640A000011241FBECFEFD8E0DEBF53
:10074000CDBF14BE0FB6F894A89580916000886163
:1007500080936000109260000FBE15E0A0E0B1E051
:10076000EAE3FFE502C005900D92A83DB107D9F775
:1007700028E0A8EDB5E001C01D92A83CB207E1F762
:100780000E94D0220C949B2F0C9400008F938FB763
:100790008F93F8948091AC088F5F8093AC08809120
:1007A000AD088F4F8093AD088091AE088F4F809336
:1007B000AE088091AF088F4F8093AF088F918FBFA5
:1007C0008F910895882391F081E08093F80504C00B
:1007D00080916208813041F484E690E00E94872491
:1007E0008091F7058823A1F381E008951092F80520
:1007F00081E0089580910001909101010895109287
:10080000E5051092E6051092E7051092DA051092C0
:10081000E9051092E80510929F061092E0051092EB
:10082000DF0580910001909101019093DE05809396
:10083000DD0586E090E09093DC058093DB0508956C
:10084000CF92DF92EF92FF920F931F93CF93DF939C
:100850000E94C1228093EF059091EE05891709F45B
:1008600061C0811141C04FEF4093F6058093EE05C2
:1008700090919F06911109C09091A006911105C019
:100880009091F705992309F44FC02091F405309118
:10089000F5059091F805992349F191E09093F705BA
:1008A0002F5F3F4F3093F5052093F405882341F1E6
:1008B0008091F2059091F30501969093F305809352
:1008C000F205141644F51092F5051092F4051092F5
:1008D000F3051092F205DF91CF911F910F91FF90D8
:1008E000EF90DF90CF90089541E0BECF1092F705D2
:1008F0002F5F3F4F3093F5052093F4058111D8CF3A
:100900008091F0059091F10501969093F105809307
:10091000F0051416C4F24423F1F21092F10510927E
:10092000F005D9CF40E0A0CFC090EA05D090EB050C
:10093000E090EC05F090ED05C114D104E104F10460
:1009400009F457C091E0C91AD108E108F108C09232
:10095000EA05D092EB05E092EC05F092ED05CD288A
:10096000CE28CF2809F045C01092E5051092E60583
:100970001092E7051092DA051092E9051092E80549
:1009800010929F061092E0051092DF058091000101
:10099000909101019093DE058093DD0586E090E063
:1009A0009093DC058093DB05413009F052C05091F3
:1009B000DA058091F4059091F5059C01BC01573052
:1009C0000CF0F8C06C5071096D31710570F46091D4
:1009D000F2057091F305645071096131710528F4D5
:1009E0005F5F5093DA05511101C09C018091EF05C2
:1009F00050CF811138C08091E705882309F42BC1BD
:100A00004F3F09F446C09091DA05973039F58F5F72
:100A10008093E705883110F11092E7058091E60593
:100A20008F5F8093E6058A30A0F01092E6058091F2
:100A3000E50580FDD5C02091DF053091E0058F5F91
:100A40008093E5058091DB059091DC052817390737
:100A500098F42091F4053091F505C8CF8091F40504
:100A60009091F505C2CF8091F0059091F105813FFD
:100A7000910508F079CFBFCF8F30910509F46CC094
:100A8000883A910509F464C0069741F18091EF0519
:100A9000FCCE2091F2053091F3059091E5052C30C4
:100AA000310508F06DC0092F017010E0000F111F13
:100AB000F801EF51FA4F21E030E0B9010090E6056E
:100AC00002C0660F771F0A94E2F720813181262B3E
:100AD000372B318320839091DA0597CF8091E805F9
:100AE0009091E905E0910001F0910101892B69F4F1
:100AF00020818181820F9281890F9381890F948156
:100B0000890F3581831709F4ABC01092E505109267
:100B1000E6051092E7051092DA051092E9051092A9
:100B2000E80510929F061092E0051092DF05F09301
:100B3000DE05E093DD0586E090E09093DC05809390
:100B4000DB058091EF052091F4053091F505A1CEEC
:100B500083E080939F069ACFE0910001F09101011C
:100B6000848587FD8AC088EA90E09093DC058093B5
:100B7000DB058091EF052091F4053091F50589CED4
:100B80009170C92FE0E0DE2FCC0FDD1FCF51DA4F7F
:100B900021E030E00090E60502C0220F331F0A94E6
:100BA000E2F72095309568817981262337233983B0
:100BB000288329CF6C5371096D33710508F016CF66
:100BC0006091F2057091F30564507109653171050A
:100BD00008F00CCF573009F008CF4093E70505CF58
:100BE0000091DD051091DE05C091E105D091E2058F
:100BF0007E01FF248C2F0E94B219811148C080E031
:100C000092E08E299F29C817D90709F453C087E7B6
:100C1000F80180838091E8059091E9050196909311
:100C2000E9058093E8058091DD059091DE05019648
:100C30009093DE058093DD052091DF053091E0057E
:100C40002F5F3F4F3093E0052093DF058091E5054E
:100C50004091F605F4CE9091E6059111D1CEA4CE47
:100C60009F709F30B9F081E080939F068091EF05DF
:100C70002091F4053091F5050CCE82E080939F061B
:100C80008091EF052091F4053091F50502CE80E0CA
:100C900090E0B7CF207F203831F78FE090E090933D
:100CA000DC058093DB058091EF052091F405309100
:100CB000F505EFCDE090E305F090E405E701DD27D1
:100CC0008E2D0E94B2198823A9F083E0D82BEC1650
:100CD000FD0609F09CCF2091E1053091E20580915D
:100CE000E3059091E40582279327811190CFF801C5
:100CF000208399CF81E0EACF1F93CF93DF93EC015C
:100D00009091A006992331F010E0812FDF91CF91CF
:100D10001F91089581E00E94E203182F8823A1F318
:100D2000E0910201F091030188818083988189819B
:100D300081838981890F9A8192839A81890F9B810E
:100D400093839B81890F9C8194839C81890F8583E8
:100D500080916508811111C08CE090E090930306AA
:100D60008093020681E08093A00680E00E94E20367
:100D7000812FDF91CF911F91089584E391E00E942C
:100D8000FA1E80910201909103010E94661DE4CF3A
:100D90002091A00621113EC0FC01A0910201B0915A
:100DA000030180818C936081818111968C931197CE
:100DB0008181680F828112968C9312978281680FCD
:100DC000838113968C9313978381680F8481149683
:100DD0008C9314978481680F15966C93809102010F
:100DE0009091030106960E94431780916508811136
:100DF00013C0E0910201F0910301848587FD24C0B6
:100E000080E591E0909303068093020681E0809351
:100E1000A006089580E0089584E391E00E94FA1E00
:100E2000809165088230D0F0809102019091030199
:100E3000BC016A5F7F4F0E94C61BE0910201F091E6
:100E40000301848587FFDCCF8EE190E09093030659
:100E50008093020681E08093A006089580910201AC
:100E60009091030160E070E0E6CF0F931F93CF9362
:100E7000DF938091A006811105C0DF91CF911F9172
:100E80000F9108959091FA0591111FC020910106CC
:100E9000223008F480C01092FB052F5F263008F442
:100EA00050C010920106209100062F5F233008F4F5
:100EB00087C010920006982F80E09093FA05DF918A
:100EC000CF911F910F910C94C6228091F905811149
:100ED0003CC09091010681E0923008F080E0809360
:100EE000FB059F5F943018F1109201069091000667
:100EF0009F5F973008F458C01092000681E08093FD
:100F0000F905E0910201F09103018081C82FD0E042
:100F10000E94B21981114BC080E092E08C2B9D2B76
:100F20009093FD058093FC058091FB05C8CF9093BD
:100F300001061092F905DF91CF911F910F910C944A
:100F4000C62280E020930106B8CF20910006422FF0
:100F500050E0435051099091010657FD2BC092304B
:100F600090F0943058F561E070E002C0660F771F92
:100F70004A95E2F74091FC055091FD054623572321
:100F800081E0452BD9F48093FB059F5F9630E0F418
:100F90009093010694CF3091000631117CCF31E05F
:100FA0003093FB052F5FCECF90930006C2CF80E039
:100FB00090E0B4CF211102C0923028F380E0E3CF5B
:100FC0002093000680E079CF109201062F5F2D302C
:100FD00018F42093000673CF10920006C091FE050E
:100FE000D091FF052196D093FF05C093FE05209177
:100FF000020630910306C217D307D8F01092FF05FE
:101000001092FE051092F9051092FA050E94C62270
:101010001092A0061092FF051092FE051092000695
:101020001092010680E0DF91CF911F910F910C94F7
:10103000C622E0910201F0910301CE0196958795B9
:10104000E80FF91F8081082F10E00E94B219C0FF3D
:101050000DC0882381F080E093E0802B912B90934A
:10106000FD058093FC058091FB0529CF811106C009
:1010700080E092E0F2CF80E091E0EFCF80E090E07E
:10108000ECCF2F923F924F925F926F927F928F920E
:101090009F92AF92BF92CF92DF92EF92FF920F9307
:1010A0001F93CF93DF93CDB7DEB76A970FB6F8944F
:1010B000DEBF0FBECDBF8C01072E000C880B990B35
:1010C0000E940D2A20E030E040E752E40E946329AC
:1010D0006F8B788F898F9A8F0D8B1E8B89E391E0B0
:1010E0009C8B8B8B8AEEC82E86E6D82E8BEDE82E55
:1010F0008DEBF82E85E89BEBACE0BEEB8D879E87F1
:10110000AF87B88B80ED9BEEAAE6BFE389879A870D
:10111000AB87BC8786E693E7ABECBEEB8D839E8303
:10112000AF83B887AB89BC892D883E8898E0290EAB
:10113000311CBA8BA98B0D891E892BED3FE049E448
:1011400050E460915508709156088091570890912D
:1011500058080E94532B20E030E044E353E40E94FF
:1011600063294B015C010E94C02B2B013C01C5018E
:10117000B4010E945E294B015C012D813E814F81AB
:101180005885C301B2010E94532B9B01AC0165E05D
:1011900073E186ED9DEB0E94F1282B013C0129852E
:1011A0003A854B855C85C501B4010E94532B9B0198
:1011B000AC01C301B2010E9463290E94E02820E033
:1011C00030E040E451E40E94532B2BED3FE049E432
:1011D00050E40E94632920E030E040E451E40E94A2
:1011E000F2284B015C0120EA3AE14FE25EEB6D85AB
:1011F0007E858F8598890E94532B2B013C0121E825
:1012000034E045E05EE3C701B6010E94532B9B0129
:10121000AC01C301B2010E94F1289B01AC01C501E0
:10122000B4010E94F1286B017C0120E030E040E72E
:1012300051E4609151087091520880915308909147
:1012400054080E9463299B01AC01C701B6010E94AA
:10125000F2286B017C012091590830915A08409185
:101260005B0850915C086F89788D898D9A8D0E94FA
:10127000F2289B01AC01C701B6010E94F228AE0121
:101280004F5F5F4F0E941F2B6B017C010F3FBFEF31
:101290001B0759F069817A818B819C810E94DC292E
:1012A000862F0E94CF19F80181830115110581F065
:1012B00020E030E040E752E4C701B6010E94532B22
:1012C0000E94DC29862F8E7F0E94CF19D8018C9333
:1012D0000E5F1F4F0215130509F459C0A989BA8979
:1012E0006D917D91BA8BA98B072E000C880B990B01
:1012F0000E940D2A6B017C0128E03CE240EA52E4A6
:101300000E94F12824E73EE74AE85CE30E94532B61
:101310000E94C02B2CEF39EA41ED5EE30E94532B73
:101320004B015C010E94C02B6D837E838F83988765
:10133000C501B4010E945E2969877A878B879C87E3
:1013400023E039E04AE05DE3C701B6010E94532B78
:101350002BE734E14EEE5EE30E94F2280E94C02BA0
:101360006D877E878F87988B2BE134E642E95CE3BB
:10137000C701B6010E94532B21E338E04CE25EE343
:101380000E94F1280E94C02B6B017C01D6CEED8912
:10139000FE893996FE8BED8B8B899C89A1E0813982
:1013A0009A0709F45CC0FC0166817781072E000C66
:1013B000880B990B0E940D2A6B017C0128E03CE20E
:1013C00040EA52E40E94F12824E73EE74AE85CE361
:1013D0000E94532B0E94C02B2CEF39EA41ED5EE3B3
:1013E0000E94532B4B015C010E94C02B6D837E83B6
:1013F0008F839887C501B4010E945E2969877A8727
:101400008B879C8723E039E04AE05DE3C701B601A2
:101410000E94532B2BE734E14EEE5EE30E94F2284C
:101420000E94C02B6D877E878F87988B2BE134E6D7
:1014300042E95CE3C701B6010E94532B21E338E087
:101440004CE25EE30E94F1280E94C02B6B017C01FC
:101450008B899C8908969C8B8B8BDC0165CE6A9668
:101460000FB6F894DEBF0FBECDBFDF91CF911F91B5
:101470000F91FF90EF90DF90CF90BF90AF909F9033
:101480008F907F906F905F904F903F902F90089536
:101490000F931F93CF93DF9387E991E00E94FA1E89
:1014A000C4E0D1E08E01F801808191810E94FA1E92
:1014B00088EC91E00E94FA1E0A5F1F4FF1E00232B1
:1014C0001F0789F781EB94E00E94FA1E88819981B9
:1014D0000E94FA1E8BEC91E00E94FA1E8C819D8185
:1014E0000E941D1F81EB94E00E94FA1E269681E067
:1014F000C232D80759F786ED91E00E94FA1E80E0CB
:1015000090E0DF91CF911F910F9108958F929F925C
:10151000AF92BF92CF92DF92EF92FF920F931F9301
:10152000CF93DF93CDB7DEB764970FB6F894DEBFE5
:101530000FBECDBF623071050CF469C0FC01E480C0
:10154000F580A680B780E114F10409F488C0A114E5
:10155000B10409F484C04B018C01CC24C394D12C78
:1015600026C065E172E0C5010E94772E892B09F43F
:1015700051C069E172E0C5010E94772E892B09F400
:1015800059C0FFEFCF1ADF0A8C149D0409F43FC045
:10159000F801E084F184A284B384E114F10409F435
:1015A0005EC00C5F1F4FA114B10409F458C06FE076
:1015B00072E0C7010E94772E892B99F263E372E0F3
:1015C000C7010E94772E892BE1F288E392E00E9406
:1015D000FA1E8091A1069091A206892B09F054C0B1
:1015E0008AE30E94E61E80E492E00E94FA1E88E2EE
:1015F00095E00E94FA1EC7010E94FA1E8AE00E942E
:10160000E61EFFEFCF1ADF0A8C149D0409F680E076
:1016100090E027C0CE0101960E946F1A882309F43A
:10162000B0CFCE0101960E94FA1E81EB94E00E9499
:10163000FA1EA7CF8CE192E00E94FA1E6091490841
:1016400070914A0880914B0890914C0840E150E01D
:101650000E949D2181EB94E00E94FA1E92CF8FEFB1
:101660009FEF64960FB6F894DEBF0FBECDBFDF913B
:10167000CF911F910F91FF90EF90DF90CF90BF908F
:10168000AF909F908F90089580E40E94E61E809115
:10169000A1069091A2060E94D521A2CF3F924F921F
:1016A0005F926F927F928F929F92AF92BF92CF92F2
:1016B000DF92EF92FF920F931F93CF93DF933B0143
:1016C000623071050CF49EC1FC01C481D581E680B5
:1016D000F780209709F4E8C0E114F10409F4E4C0AC
:1016E0008C01412C312C512C812C912C5401CC2477
:1016F000C394D12C18C0C7010E94422E582EFFEF70
:10170000CF1ADF0A6C147D04A1F1F801C085D185E0
:10171000E284F384209709F4C7C00C5F1F4FE114E3
:10172000F10409F4C1C06FE472E0CE010E94772E8B
:10173000892B09F46BC06FE274E0CE010E94772E12
:10174000892BC9F26DE074E0CE010E94772E892BBF
:1017500009F066C0C7010E94422E009709F4A2C09A
:1017600057E0352E380EFFEFCF1ADF0A6C147D04D8
:1017700061F681149104A104B10409F4CFC0D5012C
:10178000C4010197A109B1090997A105B10508F0A4
:10179000F3C0E401CC0FDD1F8C0E9D1EC401880F29
:1017A000991FEC01C752D94F8881807F803809F496
:1017B000D2C0442009F4B5C09C81907F842D8F70E5
:1017C000492E482A4C82CE010E94A71BCE010E94BE
:1017D0007C06882309F4A5C083E792E00E94FA1EE4
:1017E0008091A1069091A206892B09F011C188E28F
:1017F00095E00E94FA1E86ED93E00E94FA1E81EBAE
:1018000094E00E94FA1E80E090E050C040E150E079
:1018100060E070E0C7010E94372C4B015C016FCF84
:1018200067E172E0CE010E94772E892B09F050C04B
:101830006AE572E0C7010E94772E892B09F4CDC0BA
:1018400063E672E0C7010E94772E892B09F4C8C0B5
:1018500061E572E0C7010E94772E892B09F4C3C0AD
:1018600066E572E0C7010E94772E892B09F4BEC09D
:101870006FE572E0C7010E94772E892B09F4B9C089
:1018800066E672E0C7010E94772E892B09F4B4C086
:101890006FE672E0C7010E94772E892B09F4AFC072
:1018A000412C2DCF312C2BCF8FEF9FEFDF91CF919C
:1018B0001F910F91FF90EF90DF90CF90BF90AF906E
:1018C0009F908F907F906F905F904F903F90089582
:1018D00088E392E00E94FA1E8091A1069091A206F0
:1018E000892B91F48AE30E94E61E80E492E00E9434
:1018F000FA1E88E295E00E94FA1ECE010E94FA1EAE
:101900008AE00E94E61EFBCE80E40E94E61E8091E3
:10191000A1069091A2060E94D521E4CFC3EAD6E0A9
:1019200043CF83E792E00E94FA1E8091A106909136
:10193000A206892B09F047C088E295E00E94FA1EB2
:1019400089E792E00E94FA1E81EB94E00E94FA1E61
:1019500080E090E0ABCF2C812F7030E1539EC0012E
:101960001124522E582A5C828B81982F907F832DD0
:101970008F70892B8B831DCF80910406482F50E0F8
:1019800060E070E0BA015527442790910606492B84
:101990000091050610E0102F002720E030E0402BDA
:1019A000512B622B732B84169506A606B70641F0C1
:1019B000B501A40184E096E00E94871B8091040693
:1019C000C4E0D6E0F2CE80E40E94E61E8091A1063B
:1019D0009091A2060E94D521AFCF85E0482E8FCEF0
:1019E00084E0482E8CCE83E0482E89CE86E0482EB7
:1019F00086CE87E0482E83CE88E0482E80CE8DE0CC
:101A0000482E7DCE512C312C412CC3EAD6E0CCCED1
:101A100080E40E94E61E8091A1069091A2060E9499
:101A2000D521E5CE2F923F924F925F926F927F9297
:101A30008F929F92AF92BF92CF92DF92EF92FF92DE
:101A40000F931F93CF93DF9300D000D0CDB7DEB7B5
:101A50009924939420916A082111912C6230710588
:101A60000CF4C0C06B019C838B83FC01A480B58007
:101A700006811781A114B10409F41AC101151105D9
:101A800009F416C1EE24E394F12C26C0B8018AE6CD
:101A900098E00E94772E892B09F006C182E892E037
:101AA0000E94FA1E1FEFE11AF10ACE14DF0409F4B6
:101AB00099C0EB81FC81A084B18402851385A114B7
:101AC000B10409F4F5C03496FC83EB839924939414
:101AD0000115110509F4ECC06FE772E0C5010E9421
:101AE000772E892B99F2992009F4EEC16FEB72E001
:101AF000C5010E94772E892B09F477C065E172E059
:101B0000C5010E94772E892B09F4A7C069E172E014
:101B1000C5010E94772E892B09F06AC063E174E049
:101B2000C8010E94772E892B09F457C16BE073E03E
:101B3000C8010E94772E892B09F06FC16091D306EE
:101B4000862F90E0A0E0B0E0DC0199278827209163
:101B5000D506AC01BD01422B8091D40690E0982FB0
:101B60008827A0E0B0E08A019B01082B192B2A2BC3
:101B70003B2BC901B8018C012227332700381105FE
:101B80002105310509F094C00093A3067093A406C3
:101B90006093A5066093490870934A0880934B08A8
:101BA00090934C080E94B92283E792E00E94FA1EAB
:101BB0008091A1069091A206892B09F06BC088E262
:101BC00095E00E94FA1E86ED93E00E94FA1E81EBDA
:101BD00094E00E94FA1E1FEFE11AF10ACE14DF040E
:101BE00009F067CF80E090E07CC00E94E2225ACFEB
:101BF00064E173E0C5010E94772E892B09F4DBC0F4
:101C00006CE173E0C5010E94772E892B09F41CC199
:101C100061E273E0C5010E94772E892B09F43AC175
:101C200069E273E0C5010E94772E892B09F070C02C
:101C3000F80101900020E9F73197E01BF10BE0314A
:101C4000F10580F4AF014F5F5F4FB8018AE698E07D
:101C50000E946E2E0E94B922A7CFC8010E94941A3A
:101C60008111A2CF83E792E00E94FA1E8091A10623
:101C70009091A206892B09F0F9C088E295E00E94B4
:101C8000FA1E89E792E00E94FA1E81EB94E00E941E
:101C9000FA1E08CF80E40E94E61E8091A106909172
:101CA000A2060E94D5218BCF8FE892E00E94FA1EF7
:101CB00083E792E00E94FA1E8091A1069091A2060D
:101CC000892B09F0DDC088E295E00E94FA1E89E7C1
:101CD00092E00E94FA1E81EB94E00E94FA1E8FEFC0
:101CE0009FEF0F900F900F900F90DF91CF911F916A
:101CF0000F91FF90EF90DF90CF90BF90AF909F90AB
:101D00008F907F906F905F904F903F902F900895AD
:101D10006DE373E0C5010E94772E892B09F4C2C0E0
:101D20006AE473E0C5010E94772E892B09F4D1C0C3
:101D300066E573E0C5010E94772E892B09F438C14E
:101D400060E673E0C5010E94772E892B09F497C1E4
:101D500069E673E0C5010E94772E892B09F4D3C090
:101D600063E773E0C5010E94772E892B09F0FDC15E
:101D700067E773E0C8010E94772E892B19F0F1E024
:101D8000F0935D0867EB75E0C8010E94772E892B00
:101D900011F010925D086AE773E0C8010E94772E87
:101DA000892B09F40DC203E000935D080E94231BF8
:101DB0000E94B922F9CE40E150E060E070E0C80135
:101DC0000E944D2D609366087093670880936808A1
:101DD000909369080E94B922E7CE80E090E00E94CB
:101DE0001425DC01CB01CC96A11DB11D80931206F8
:101DF00090931306A0931406B09315061092D30681
:101E00008091A1069091A2069093110680931006EE
:101E100087EC92E00E94FA1EC7CE40E150E060E0FD
:101E200070E0C8010E944D2D8C0122273327003815
:101E300009F03ECF892E9924AA24BB2489288A2818
:101E40008B2809F4A1CE34CF4AE050E060E070E086
:101E5000C8010E944D2D60934D0870934E088093E9
:101E60004F08909350080E94B9229ECE80E40E94B1
:101E7000E61E8091A1069091A2060E94D521FDCE7A
:101E800080E40E94E61E8091A1069091A2060E9425
:101E9000D52119CFC8010E94422E809365080E9467
:101EA000B92282CE6DE775E0C8010E94772E892B9A
:101EB00011F166E473E0C8010E94772E892B09F0C6
:101EC000D1CE1092620874CF86EA92E00E94FA1E88
:101ED000EFCE6DE775E0C8010E94772E892B79F06F
:101EE00066E473E0C8010E94772E892B09F0BACE10
:101EF000109263085DCF11E01093620859CF21E082
:101F00002093630855CFF80180818D3209F482C196
:101F1000282F60E070E0CB01412C512C30E8632E7B
:101F20003FE3732E222309F417C10F5F1F4F822F47
:101F3000812C912C54011A82198233C0282E312C05
:101F4000F0E32F1A31082AE02216310420F58981A6
:101F50009A81892B51F020E030E040E251E4C30146
:101F6000B2010E9463292B013C0120E030E040E2F5
:101F700051E4C501B4010E94532B4B015C01B10136
:101F8000330C880B990B0E940D2AA50194010E9425
:101F9000F2284B015C01F80181918F01882309F43B
:101FA000D5C08E3259F6E1E0F0E0FA83E983F3CF51
:101FB000F80180818D3209F4F5C0282E60E070E0D0
:101FC000CB01412C512CF0E86F2EFFE37F2E222015
:101FD00009F448C00F5F1F4F822D812C912C5401B2
:101FE0001A82198232C0282E312CF0E32F1A3108C0
:101FF0002AE02216310420F589819A81892B51F03B
:1020000020E030E040E251E4C301B2010E946329C4
:102010002B013C0120E030E040E251E4C501B40175
:102020000E94532B4B015C01B101330C880B990BBF
:102030000E940D2AA50194010E94F2284B015C0127
:10204000F80181918F01882339F08E3261F6E1E049
:10205000F0E0FA83E983F4CFA3019201C501B40152
:102060000E94532B60935108709352088093530839
:10207000909354080E94231B0E94B92295CDF80129
:1020800080818D3209F4B8C0282E60E070E0CB0169
:10209000412C512C50E8652E5FE3752E222009F467
:1020A00048C00F5F1F4F822D812C912C54011A8242
:1020B000198232C0282E312CF0E32F1A31082AE081
:1020C0002216310420F589819A81892B51F020E074
:1020D00030E040E251E4C301B2010E9463292B01C8
:1020E0003C0120E030E040E251E4C501B4010E942F
:1020F000532B4B015C01B101330C880B990B0E94EF
:102100000D2AA50194010E94F2284B015C01F801FF
:1021100081918F01882339F08E3261F6E1E0F0E0A1
:10212000FA83E983F4CFA3019201C501B4010E94AF
:10213000532B6093550870935608809357089093DB
:1021400058080E94231B0E94B9222ECDA3019201A0
:10215000C501B4010E94532B6093590870935A082B
:1021600080935B0890935C0821CE88E392E00E9404
:10217000FA1E8091A1069091A206892B09F058C001
:102180008AE30E94E61E80E492E00E94FA1E88E242
:1021900095E00E94FA1EC5010E94FA1E8AE00E9484
:1021A000E61E80CC21800F5F1F4F60E070E080E072
:1021B00090E8412C512CA0E86A2EAFEB7A2E07CF85
:1021C00088E392E00E94FA1E8091A1069091A206F7
:1021D000892BC1F58AE30E94E61E80E492E00E940A
:1021E000FA1E88E295E00E94FA1EC5010E94FA1EBE
:1021F0008AE00E94E61EDACD21800F5F1F4F60E06B
:1022000070E080E090E8412C512CE0E86E2EEFEB7E
:102210007E2E44CF21810F5F1F4F60E070E080E091
:1022200090E8412C512C40E8642E4FEB742E7ACE6E
:1022300080E40E94E61E8091A1069091A2060E9471
:10224000D5219ECF80E40E94E61E8091A106909148
:10225000A2060E94D521BECF8CE793E00C94FA1E13
:102260000E94F01E8F3F2FEF9207A1F08D30910555
:10227000B9F38A309105A1F320919806222369F0E1
:10228000CB9771F7109298060E94F01E8F3F2FEFA8
:10229000920761F780E090E00895209196063091D2
:1022A00097062F3731057CF48B339105B1F0A901E6
:1022B0004F5F5F4F5093970640939606F901EA5E91
:1022C000F94F8083CDCF81E08093980680E090E045
:1022D000109297061092960608952115310539F04F
:1022E000F901EA5EF94F108286E196E0F1CF80E0D5
:1022F00090E0EECFEF92FF920F931F93CF93DF9377
:10230000EC011092A2061092A10600E010E0888174
:10231000803241F4DE01FE013196EF011D92819180
:102320008032D9F3882309F19801220F331F220F3D
:10233000331FF901E755F94FD183C0838881882382
:1023400079F0803279F18D33E1F1FE01319604C0EC
:10235000803241F18D33A9F1EF0181918111F8CFE4
:10236000F901E755F94F13821282C801DF91CF912D
:102370001F910F91FF90EF900895E701F901E75544
:10238000F94F65E873E0808191810E94772E892B57
:1023900049F4C7010E94422E9093A2068093A106A1
:1023A000015011090F5F1F4F0A30110509F0AFCF1F
:1023B0008FEF9FEFDF91CF911F910F91FF90EF90E3
:1023C00008957E01FFEFEF1AFF0A1882898180329B
:1023D00039F4F70122967E01119289918032D9F366
:1023E000882331F3F901E755F94FF382E282F701CF
:1023F0008081982F9F7D09F4C0CF8D33C9F231962B
:1024000002C08D33A9F2EF018191982F9F7DC9F70A
:10241000B5CF0F931F93CF93DF93EC01892B09F076
:1024200076C08091120690911306A0911406B09187
:102430001506892B8A2B8B2B31F480E0DF91CF910D
:102440001F910F91089580E090E00E941425009163
:1024500012061091130620911406309115060617E6
:1024600017072807390708F474C08091D306982FFE
:10247000907F903811F790E0A0E0B0E0DC01992760
:1024800088272091D506822B4091D40650E0542F06
:10249000442760E070E0842B952BA62BB72BA093EC
:1024A000A3069093A4068093A50680934908909371
:1024B0004A08A0934B08B0934C0810921206109251
:1024C000130610921406109215068CEA93E00E94EF
:1024D000FA1E83E792E00E94FA1E8091A106909175
:1024E000A206892B09F075C08AE30E94E61E81EDE1
:1024F00093E00E94FA1E88E295E00E94FA1E81EBAA
:1025000094E00E94FA1E0E94B92281E097CF80E0F9
:1025100090E00E941425DC01CB018C0F9D1FA11DB2
:10252000B11D8093120690931306A0931406B093E6
:1025300015061092D3068091A1069091A206909361
:1025400011068093100680E0DF91CF911F910F91CB
:102550000895C091A106D091A20610921206109281
:102560001306109214061092150689E893E00E9453
:10257000FA1E80911006909111069093A206809306
:10258000A10683E792E00E94FA1E8091A106909135
:10259000A206892BA1F48AE30E94E61E8EE993E04D
:1025A0000E94FA1E88E295E00E94FA1E81EB94E0F8
:1025B0000E94FA1ED093A206C093A1063ECF80E4EB
:1025C0000E94E61E8091A1069091A2060E94D5214C
:1025D000E2CF80E40E94E61E8091A1069091A206BF
:1025E0000E94D52181CF4F925F926F927F928F92FE
:1025F0009F92AF92BF92CF92DF92EF92FF920F9392
:102600001F93CF93DF9300D01F92CDB7DEB77C012D
:102610005B014A011B82452B09F4A9C0FC018081A2
:1026200020E030E0882309F45BC000E010E055248E
:102630005A949FE0492E1EC0F501E20FF31F50820D
:102640006801FFEFCF1ADF0AC814D90408F04CC0A4
:10265000F501EC0DFD1D40828FEFE81AF80A8601A6
:102660000F5F1F4F980108151905D0F5F7018081FC
:102670008823B1F18B3209F44CC08D32E9F28983A1
:10268000F70181818A836801FFEFCF1ADF0AC8143E
:10269000D90450F5CE0101960E94422E0E94C01925
:1026A000F501EC0DFD1D8083F701828189833701DF
:1026B000F4E06F0E711CF70183818A830A0D1B1DE4
:1026C000CE0101960E94422E0E94C019F80180831B
:1026D000730186010F5F1F4F98010815190530F22D
:1026E00081E08216930609F080E00F900F900F9022
:1026F000DF91CF911F910F91FF90EF90DF90CF90DE
:10270000BF90AF909F908F907F906F905F904F9011
:1027100008950430110544F3C801049688169906FB
:1027200018F3D501A20FB31FFD01349780818C935C
:10273000F8013196EA0DFB1DDF0114978C9180831F
:10274000F8013296EA0DFB1DDF0114978C9180830E
:102750006801E3E0CE0ED11CF501EC0DFD1DDF019B
:1027600014978C918083FFEFEF1AFF0A78CF20E057
:1027700030E0B6CF2F923F924F925F926F927F924E
:102780008F929F92AF92BF92CF92DF92EF92FF9281
:102790000F931F93CF93DF93CDB7DEB7AA970FB6F2
:1027A000F894DEBF0FBECDBFFC013B012FEF2983A4
:1027B0009FE09A832B839C832D839E832F8398870E
:1027C00029879A872B879C872D879E872F87988BB1
:1027D000298B9A8B2B8B9C8B2D8B9E8B2F8B988F81
:1027E000298F9A8F2B8F9C8F2D8F9E8F2F8F98A341
:1027F000623071050CF472C204811581A680B78025
:102800000115110509F4E2C0A114B10409F4DEC0F8
:102810007F01EEEFEFA319A2912C1BA21CA21DA217
:102820001EA218A6812C412C512C1AA2312C212C2D
:10283000CC24C394D12C30C06CEF73E0C8010E944B
:10284000772E892B09F490C062E074E0C8010E94E1
:10285000772E892B09F072C0C5010E94422E2C01EF
:1028600001E00AA31FEFC11AD10A6C147D0451F1D3
:10287000D70118960D911C9119971A96AD90BC909E
:102880001B970115110509F4A1C0B4E0EB0EF11C72
:10289000A114B10409F49AC065EF73E0C8010E9465
:1028A000772E892B49F64CE150E0BE016F5F7F4FD8
:1028B000C5010E94F312382E1FEFC11AD10A6C1401
:1028C0007D04B1F68BA19CA1ADA1BEA10097A1058D
:1028D000B10509F413C10197A109B1090997A1052F
:1028E000B10508F46BC180910A06482F50E060E002
:1028F00070E0BA015527442790910C06492B0091AE
:102900000B0610E0102F002720E030E0402B512B69
:10291000622B732B0BA11CA12DA13EA1041715073F
:102920002607370741F0B901A8018AE096E00E9426
:10293000871B80910A060AE016E0E4C068E074E0B4
:10294000C8010E94772E892BC9F4D5018C91803360
:1029500009F457C0813309F085CF19A1116019A37B
:10296000292D2160922E7ECF44E050E0BE01635EAF
:102970007F4FC5010E94F312282E74CF6FE074E0E0
:10298000C8010E94772E892B79F4F501808180336C
:1029900009F4ADC0813309F065CF09A1006809A32E
:1029A000192D1068912E5ECF68E174E0C8010E9475
:1029B000772E892B69F5D5018C91803309F40DC1EF
:1029C000813309F0B9C011E01FA34CCF8FEF9FEF07
:1029D000AA960FB6F894DEBF0FBECDBFDF91CF91A0
:1029E0001F910F91FF90EF90DF90CF90BF90AF902D
:1029F0009F908F907F906F905F904F903F902F901F
:102A0000089509A1016009A3192D1E7F912E2ACFD7
:102A10006FE472E0C8010E94772E892B09F4F4C09C
:102A20006FE274E0C8010E94772E892B09F47FC001
:102A30006DE074E0C8010E94772E892B09F407C16C
:102A400069ED73E0C8010E94772E9AA789A7892BA8
:102A500009F420C16DED73E0C8010E94772E892B27
:102A600009F468C161EE73E0C8010E94772E892BDA
:102A700009F45BC165EE73E0C8010E94772E892BD3
:102A800009F44EC169EE73E0C8010E94772E892BCC
:102A900009F4FCC06DEE73E0C8010E94772E892B0B
:102AA00009F452C161EF73E0C8010E94772E892BAF
:102AB00009F445C188E392E00E94FA1E8091A106C4
:102AC0009091A206892B09F021C18AE30E94E61E9B
:102AD00080E492E00E94FA1E88E295E00E94FA1ECD
:102AE000C8010E94FA1E8AE00E94E61EBBCE09A120
:102AF000006809A3192D1F77912EB4CE8091A306EB
:102B000003EA16E0807F803809F469C0D801149682
:102B10008C918F60F8018483C8010E94A71B81E01B
:102B20000E94E20381110BC080E090E051CFC5010B
:102B30000E94422E882E96CE0FEF0FA393CE809147
:102B400002019091030106960E946217FFA1F130E5
:102B500009F4D4C03110BDC02110B6C02AA1211182
:102B6000AFC080E00E94BB1869A1892D0E942A197C
:102B7000C8010E948F19C8010E94C806882309F461
:102B80004FC083E792E00E94FA1E8091A1069091C7
:102B9000A206892B09F070C088E295E00E94FA1E17
:102BA00086ED93E00E94FA1E81EB94E00E94FA1EEB
:102BB00080E00E94E20380E090E00ACF0BA11CA11C
:102BC000000F111FABA1BCA10A0F1B1F000F111F8B
:102BD0000752194FF801808195CF1FA243CEF8010B
:102BE0008481282F2F70F0E18F9EC0011124822B49
:102BF000D80113969C911397292F207F98A59F7039
:102C0000922B13969C9385CF40E150E060E070E0FA
:102C1000C5010E94372C6BA37CA38DA39EA322CE5B
:102C200083E792E00E94FA1E8091A1069091A2068D
:102C3000892BC1F488E295E00E94FA1E89E792E0B0
:102C40000E94FA1E81EB94E00E94FA1EB1CFC501EA
:102C50000E94422E009721F007E0080F08A702CE3D
:102C600018A600CE80E40E94E61E8091A1069091F5
:102C7000A2060E94D521DECF80E40E94E61E80914C
:102C8000A1069091A2060E94D52186CF00E110E016
:102C90001AA709A7C5010E94FA1E81EB94E00E94C1
:102CA000FA1E61E070E06C0F7D1F09A51AA5600F88
:102CB000711F44E050E0C5010E94F312382ED2CDBE
:102CC000C2010E94B2184DCFCE014D960E946D18E0
:102CD00045CFCE0101960E947E183ECF8091A3067B
:102CE0001EEF1FA3412C512C812C19A2212C1AA2BA
:102CF000312C912C18A603EA16E004CF81E00E9443
:102D0000BB1869A1892D0E942A1935CF80E40E9441
:102D1000E61E8091A1069091A2060E94D521D5CEF3
:102D20000CE010E01AA709A7B5CF08E010E01AA739
:102D300009A7B0CF04E010E01AA709A7ABCF08E1BC
:102D400010E01AA709A7A6CF04E110E01AA709A767
:102D5000A1CF0F931F93CF93DF930E947A118C0121
:102D6000C091A906D091AA06609104017091050155
:102D7000CE010E94772E892B49F160910A01709152
:102D80000B01CE010E94772E892BB1F160911001C9
:102D900070911101CE010E94772E892B81F16091F3
:102DA000160170911701CE010E94772E892B51F1E7
:102DB00060911C0170911D01CE010E94772E892B1C
:102DC00021F1DF91CF911F910F91089580E090E064
:102DD000FC01EE0FFF1FE80FF91FEE0FFF1FEC5F66
:102DE000FE4F0280F381E02DB80189EA96E0DF9181
:102DF000CF911F910F91099481E090E0E9CF82E09B
:102E000090E0E6CF83E090E0E3CF84E090E0E0CF95
:102E1000FC0191818281890F9381890F9481890FAF
:102E20009081890F9581891711F080E008956115CF
:102E3000710521F0FB01808381E0089581E0089510
:102E4000262F220FFC01AC0147565F4F6081818124
:102E5000680F8281680F8381680F8481680F858184
:102E6000680F8681680F8781680F620F80856813FD
:102E700008C0262F220F39964E175F0739F781E0D9
:102E8000089580E00895262F220FFC01AC014756DB
:102E90005F4F60818181680F8281680F8381680F35
:102EA0008481680F8581680F8681680F8781680F2C
:102EB000620F6087262F220F39964E175F0749F75A
:102EC000822F0895FC0188E0DF011D928A95E9F7C1
:102ED0009FEF91878FE08287938784879587868786
:102EE0009787808B928B838B948B858B968B878B2C
:102EF000908F818F938F848F958F868F978F80A3EC
:102F000091A382A394A385A396A387A390A781A747
:102F100092A783A795A786A797A780AB91AB82AB13
:102F200093AB84AB96AB87AB90AF81AF92AF83AFDF
:102F300094AF85AF97AFDF01A05CBF4F8C93119624
:102F40009C9311968C9311969C9311968C93119649
:102F50009C9311968C9312969C9311968C93119737
:102F600012969C93129713968C93139714969C9396
:102F7000149715968C93159716969C9316971796FB
:102F80008C93179719969C9311968C931197129680
:102F90009C93129713968C93139714969C93149763
:102FA00015968C93159716969C93169717968C9357
:102FB000179719969C9311968C93119712969C9340
:102FC000129713968C93139714969C9314971596B7
:102FD0008C93159716969C93169717968C93179724
:102FE00019969C9311968C93119712969C93129715
:102FF00013968C93139714969C93149715968C9311
:10300000159716969C93169717968C931797199663
:103010009C9311968C93119712969C9312971396EA
:103020008C93139714969C93149715968C931597DD
:1030300016969C93169717968C93179719969C93B0
:1030400011968C93119712969C93129713968C93CA
:10305000139714969C93149715968C931597169620
:103060009C93169717968C93179719969C93119685
:103070008C93119712969C93129713968C93139797
:1030800014969C93149715968C93159716969C936B
:10309000169717968C93179719969C9311968C9365
:1030A000119712969C93129713968C9313971496DC
:1030B0009C93149715968C93159716969C93169738
:1030C00017968C93E057FF4F90838183928383837D
:1030D00094838583968387830895E0910201F0911C
:1030E0000301DC012D913C91119737A726A7129679
:1030F0008D919C91139791AB80AB0895CF93DF9303
:10310000C0910201D0910301FC01208131813C8BEF
:103110002B8B228133813E8B2D8BDE01589634968A
:1031200028E001900D922A95E1F7DE019196FC01CD
:103130003C9628E001900D922A95E1F7FC01248944
:1031400035893BA72AA7268937893DA72CA7208D3B
:10315000318D388B2F87828D938D9A8B898BDF9160
:10316000CF9108952091020130910301BC01C90162
:10317000C3960C944108DF92EF92FF920F931F9336
:10318000CF93DF9300D000D0CDB7DEB7D82E00911B
:1031900002011091030180E090E00E9414256983F0
:1031A0007A838B839C83CE0101960E941D257C012E
:1031B000FC0180810E94C019F8018683F70181819A
:1031C0000E94C019F8018783F70182810E94C0190B
:1031D000F8018087F70183810E94C019F801828776
:1031E000F70185818F5F0E94C019F8018387DD2078
:1031F00051F187E820E8F7019481992311F0892F94
:10320000822BF801848781E090E0F701048002C0FE
:10321000880F991F0A94E2F7F8018187F7018285E8
:103220009385F801892B91F485858B7F85870F9095
:103230000F900F900F90DF91CF911F910F91FF9002
:10324000EF90DF90089587E020E0D5CF85858460FA
:103250008587EDCF982FE0910201F091030160FF87
:1032600005C0858590FF58C081608587862F86952B
:10327000969580FF05C0258590FF4BC0226025876D
:103280008695969580FF05C0258590FF3FC02460F8
:1032900025878695969580FF05C0258590FF33C0CC
:1032A000286025878695969580FF05C0258590FF27
:1032B00027C0206125878695969580FF05C02585C6
:1032C00090FF1BC0206225878695969580FF05C0DC
:1032D000258590FF0FC020642587869596958823C5
:1032E00041F08585992319F08068858708958F7747
:1032F000858708952F7B2587F0CF2F7D2587E4CF05
:103300002F7E2587D8CF277F2587CCCF2B7F25877A
:10331000C0CF2D7F2587B4CF8E7F8587A7CFFC01B7
:103320002091020130910301D901A156BF4F1C9297
:10333000808111968C93818111968C938281F90101
:10334000EE55FF4F8083319683E58083319610825E
:10335000319680E18083319681E18083319685E0EA
:1033600080830895982F92959F708927982F96951E
:1033700096958927982F969589278095817008952D
:103380006AE070E090E00E9456289B0122953295F9
:10339000307F3227207F32278F70822B08956AE09A
:1033A00070E090E00E945628AC016930710549F048
:1033B000262F2295207F4930510539F08F70822BBE
:1033C000089520EF49305105C9F78FE0822B089509
:1033D000FC0180819181A281B381B23C20F08058B0
:1033E000924AA149B44BBC01CD016059794A8D4E36
:1033F000984D20E83AE349E050E00E946A28DA015B
:10340000C901880F991FAA1FBB1F880F991FAA1FE8
:10341000BB1F880F991FAA1FBB1F821B930BA40BF6
:10342000B50BBC01CD01660F771F881F991F660F72
:10343000771F881F991F25EB35E040E050E00E9480
:103440006A286835734018F480E19EE0089580E0B2
:1034500090E0089580E19EE00895FC0180819181D3
:10346000A281B381B23C20F08058924AA149B44B6A
:10347000BC01CD016059794A8D4E984D20E83AE360
:1034800049E050E00E946A28DA01C901880F991FBB
:10349000AA1FBB1F880F991FAA1FBB1F880F991F48
:1034A000AA1FBB1F821B930BA40BB50BBC01CD0144
:1034B000660F771F881F991F660F771F881F991F38
:1034C00025EB35E040E050E00E946A286835734003
:1034D00018F480E19EE0089580E090E008950F9355
:1034E0001F93CF93DF9300D000D0CDB7DEB78C0110
:1034F00080E090E00E94142569837A838B839C830B
:10350000CE0101960E941D25B8010E94062784E580
:10351000F801828781E00F900F900F900F90DF915C
:10352000CF911F910F9108950F931F93CF93DF9326
:10353000CDB7DEB7A0970FB6F894DEBF0FBECDBFF4
:10354000FC0101900020E9F79F012451310928175F
:10355000390761F080E0A0960FB6F894DEBF0FBE89
:10356000CDBFDF91CF911F910F910895BC0143E131
:1035700050E0CE0101960E94802E1C8A8E010B5EC7
:103580001F4F8CE0F80111928A95E9F76CE374E023
:10359000CE0101960E94692E0097E1F20E94422E10
:1035A0008C5697409C8F8B8F6CE374E080E090E0AA
:1035B0000E94692E009771F20E94422E81508A8FDC
:1035C0006EE374E080E090E00E94692E009711F2B3
:1035D0000E94422E888F65E474E080E090E00E94B3
:1035E000692E009709F4B6CF0E94422E8F8B65E4B6
:1035F00074E080E090E00E94692E009709F4AACF61
:103600000E94422E8E8B62E271E080E090E00E9488
:10361000692E009709F49ECF0E94422E8D8B8FEF6A
:103620009FEF98A38F8FC8010E949B25611571059C
:103630008105910509F48ECF22E02093BD070E94F9
:103640000D2881E088CFCF92DF92EF92FF9220E0A9
:1036500030E041E655E46091590870915A08809134
:103660005B0890915C080E94532B0E94D5290E9410
:10367000162820E030E041E655E460915108709151
:10368000520880915308909154080E94532B0E9435
:10369000D5296B017C0120E030E041E655E46091E2
:1036A00055087091560880915708909158080E94CB
:1036B000532B0E94D529A70196010E948A2580914B
:1036C0005D088230E1F0833091F0813041F080E09C
:1036D00090E0FF90EF90DF90CF900C94082688EE5A
:1036E00099E1FF90EF90DF90CF900C9408268AE24A
:1036F0009AE1FF90EF90DF90CF900C9408268DE236
:103700009AE1FF90EF90DF90CF900C940826FC0197
:10371000CB01AA27BB2780835183428322E12383E5
:1037200014822FEF25839927AA27BB278032910582
:10373000A105B10549F080399105A105B10519F43C
:1037400087E183830895089581E183830895FC01CF
:103750008081807F803891F09381292F22952F706E
:103760002F5F2F7031F02295207F9F70922B9383D3
:10377000089520E19F70922B9383089585811816F8
:103780005CF784818F70833039F308950F931F9312
:10379000CF93DF93EB01009711F00E94661D2097F5
:1037A000F1F08E8187FD27C060E002E110E080919A
:1037B00065088530C8F0C801880F991F880F991FC8
:1037C000880F991F080F191F0C0F1D1F69E070E06B
:1037D000CE010E946F2229960C171D07B9F7DF91C1
:1037E000CF911F910F910895CE01DF91CF911F913D
:1037F0000F910C947D1D61E001E010E0D8CFEF92B5
:10380000FF920F931F93CF93DF931F92CDB7DEB735
:103810000E9430118C01892B09F471C081E494E07D
:103820000E94FA1EC8010E94FA1E81EB94E00E94D9
:10383000FA1EC8010E94A9161092990680919F064F
:10384000813009F466C080E090E00E940912809106
:103850009F06823061F080919F06833041F00F9087
:10386000DF91CF911F910F91FF90EF9008958AE41F
:1038700094E00E94FA1EE0900001F090010187019F
:103880000A5F1F4F0E94FA03009711F00E94661D05
:103890000115110509F1F701848587FD6DC060E010
:1038A00082E190E020916508253008F461C07C0138
:1038B000EE0CFF1CEE0CFF1CEE0CFF1CE80EF91EBC
:1038C000E00EF11E69E070E0C8010E946F22075F00
:1038D0001F4F0E151F05B1F70E94FA03BE016F5F5F
:1038E0007F4F0E940817811134C00E94FF030F9080
:1038F000DF91CF911F910F91FF90EF9008958091EC
:10390000990681119BCF0E942C1181E0809399062A
:1039100095CF0E94FA038C01FC0180818093D3062D
:1039200081818093D40682818093D50683818093A0
:10393000D60684818093D70687E494E00E94FA1E1D
:103940000115110519F0C8010E94661D0E94FF03B0
:103950007ACF8091000190910101698106960E94C1
:103960002017882311F280E694E00E94FA1EBDCF52
:10397000C8010E947D1DB0CF61E081E090E092CF50
:10398000CF92DF92EF92FF92CF93DF930E94231B9F
:10399000CFEDD6E084ECC82E8DE5D82E80E1E82E60
:1039A000F12CB701A601CE010E94871B269681E06B
:1039B000C81AD108E108F1088BEBC8168DE5D806C6
:1039C00080E1E806F10469F74091490850914A08FE
:1039D00060914B0870914C0883EA96E00E94871B27
:1039E00083E00E94ED2284E794E00E94FA1E83EBBC
:1039F00094E00E94FA1E6091490870914A088091F3
:103A00004B0890914C0840E00E94A61F82E295E08E
:103A10000E94FA1E8EEB94E00E94FA1E60914D08FF
:103A200070914E0880914F089091500840E00E949C
:103A3000752082E295E00E94FA1E8BEC94E00E94D1
:103A4000FA1E60915108709152088091530890912C
:103A5000540845E050E00E94C82082E295E00E94B0
:103A6000FA1E8DED94E00E94FA1E60915508709147
:103A70005608809157089091580845E050E00E9400
:103A8000C82082E295E00E94FA1E8EEE94E00E9429
:103A9000FA1E6091590870915A0880915B089091C4
:103AA0005C0842E050E00E94C82082E295E00E945B
:103AB000FA1E80E095E00E94FA1E80E090E0DF911F
:103AC000CF91FF90EF90DF90CF9008950F931F93C9
:103AD000CF93DF93EC018C010A5F1F4F61E0899166
:103AE0000E94351FC017D107C9F781EB94E0DF9121
:103AF000CF911F910F910C94FA1E8F929F92AF92CB
:103B0000BF92CF92DF92EF92FF920F931F93CF93CA
:103B1000DF93CDB7DEB760970FB6F894DEBF0FBE68
:103B2000CDBF6C01162F80E1E4E2F1E0DE011196D9
:103B300001900D928A95E1F785E295E00E94FA1EC8
:103B4000D60114968C910E940D228BE295E00E9482
:103B5000FA1EF60185810E940D228DE295E00E94F9
:103B6000FA1ED6011696EC91E770F0E0EE0FFF1FFB
:103B700081E090E08C0F9D1FE80FF91F80819181FB
:103B80000E94FA1E8EE295E00E94FA1ED60112965D
:103B90008C910E940D2285E494E00E94FA1EF601A9
:103BA00081810E940D2285E494E00E94FA1ED601D4
:103BB0008C910E940D22F601878182FD7EC081EBEF
:103BC00094E00E94FA1E111165C0D60117968C91DF
:103BD00087FD7DC080FD76C08EE595E00E94FA1ECF
:103BE0005601F9E0AF0EB11C76018DE2E80EF11C32
:103BF000450188E0880E911C8501D80111968C91B1
:103C00000E940D2285E494E00E94FA1EF801808152
:103C10000E940D2288EC91E00E94FA1E0E5F1F4F59
:103C20008016910651F781EB94E00E94FA1EF9E0AC
:103C3000AF0EB11CEA14FB04D9F68BE695E00E94A6
:103C4000FA1E560199E9A90EB11C670188E0C80E59
:103C5000D11C8701D80111968C910E940D2285E418
:103C600094E00E94FA1EF80180810E940D2288ECE7
:103C700091E00E94FA1E0E5F1F4F0C151D0551F7B3
:103C800081EB94E00E94FA1EF9E0EF0EF11CEA14B9
:103C9000FB04D9F660960FB6F894DEBF0FBECDBF19
:103CA000DF91CF911F910F91FF90EF90DF90CF9018
:103CB000BF90AF909F908F90089581E395E00E9410
:103CC000FA1E7DCF8BE495E00E94FA1E85CF86E335
:103CD00095E00E94FA1EF60187817CCF0F931F9317
:103CE000CF93DF9300D01F92CDB7DEB7182F40E1FE
:103CF000BE016F5F7F4F90E00E94B62E107FE1F112
:103D0000A8E9B5E08C91E091C207F091C307882340
:103D1000D1F1309789F08D010F5F1F4F0995019602
:103D200071F1F80181918F01882349F1E091C20777
:103D3000F091C307309791F78981811115C0E0E0B8
:103D4000F0E0309789F009EC11E08CE209950196DA
:103D500059F0F80181918F01882331F0E091C20779
:103D6000F091C307309791F70F900F900F90DF916C
:103D7000CF911F910F910895A4E9B5E0C3CFE091D1
:103D8000C207F091C30789818823D9F2309761F384
:103D90008E010E5F1F4F0995019699F0F8018191F0
:103DA0008F01882371F0E091C207F091C30730972B
:103DB00091F70F900F900F90DF91CF911F910F917E
:103DC0000895E091C207F091C307BBCFE091C2070D
:103DD000F091C307309709F009948FEF9FEF089592
:103DE000E091C007F091C107309709F009948FEF77
:103DF0009FEF0895CF93DF93EC0188818823C1F072
:103E0000E091C207F091C307309769F021960995B8
:103E1000019649F08991882359F0E091C207F09109
:103E2000C3073097A1F78FEF9FEFDF91CF910895F0
:103E300080E090E0DF91CF910895CF93DF93EC0184
:103E4000FE018491882361F0E091C207F091C307DD
:103E5000309709F009952196FE0184918111F4CFE4
:103E600080E090E0DF91CF910895FF920F931F9330
:103E7000CF93DF9300D01F92CDB7DEB7182FF62E69
:103E800040E1BE016F5F7F4F90E00E94B62E107F31
:103E900009F059C0A4E9B5E08C918823C9F1E091FB
:103EA000C207F091C307309789F08D010F5F1F4F54
:103EB0000995019669F1F80181918F01882341F1FB
:103EC000E091C207F091C307309791F7FF20B9F056
:103ED000E091C207F091C307309789F009EC11E037
:103EE0008CE20995019659F0F80181918F018823A0
:103EF00031F0E091C207F091C307309791F70F902E
:103F00000F900F90DF91CF911F910F91FF90089527
:103F100089818823D9F2E091C207F091C3073097D5
:103F2000A9F28E010E5F1F4F0995019679F2F801F3
:103F300081918F01882351F2E091C207F091C3076C
:103F4000309791F7C3CFA8E9B5E0A6CF8F929F92A3
:103F5000AF92BF92FF920F931F93CF93DF93CDB792
:103F6000DEB72A970FB6F894DEBF0FBECDBF4B0168
:103F70005C01F42E20E1AE014F5F5F4F0E94CC2E1A
:103F8000D501C401807F892B8A2B8B2BD9F1D501D8
:103F9000C4018827892B8A2B8B2B09F494C0D50167
:103FA000C4018827907F892B8A2B8B2B09F48EC024
:103FB000D501C40188279927892B8A2B8B2B09F4DB
:103FC00088C0D501C40188279927A07F892B8A2B17
:103FD0008B2B09F481C0D501C40188279927AA2712
:103FE000892B8A2B8B2B09F47AC088249924AA2444
:103FF00020EFB22289288A288B2809F473C0A8E907
:10400000B5E002C0AFEAB5E08C91882309F440C066
:10401000E091C207F091C307309789F08D010F5FDF
:104020001F4F09950196A1F1F80181918F01882315
:1040300079F1E091C207F091C307309791F7FF2023
:10404000B9F0E091C207F091C307309789F009EC0D
:1040500011E08CE20995019659F0F80181918F01E8
:10406000882331F0E091C207F091C307309791F7B0
:104070002A960FB6F894DEBF0FBECDBFDF91CF9169
:104080001F910F91FF90BF90AF909F908F900895D8
:1040900089818823A1F2E091C207F091C30730978C
:1040A00071F28E010E5F1F4F0995019641F2F801E2
:1040B00081918F01882319F2E091C207F091C30723
:1040C000309791F7BCCFA6EAB5E09ECFA0ECB5E063
:1040D0009BCFA9EBB5E098CFA0EAB5E095CFABE9CF
:1040E000B5E092CFA4E9B5E08FCFFF920F931F9375
:1040F000CF93DF93CDB7DEB72C970FB6F894DEBF22
:104100000FBECDBFF42E2AE0AE014F5F5F4F0E947D
:10411000CC2E89818823B9F0E091C207F091C307C2
:10412000309789F08E010E5F1F4F0995019659F067
:10413000F80181918F01882331F0E091C207F0915D
:10414000C307309791F7FF20B9F0E091C207F091D3
:10415000C307309789F009EC11E08CE209950196CC
:1041600059F0F80181918F01882331F0E091C20765
:10417000F091C307309791F72C960FB6F894DEBFF5
:104180000FBECDBFDF91CF911F910F91FF9008958A
:104190002F923F924F925F926F927F928F929F9257
:1041A000AF92BF92CF92DF92EF92FF920F931F9345
:1041B000CF93DF93CDB7DEB72C970FB6F894DEBF61
:1041C0000FBECDBF4B015C018A010E94D5292B0196
:1041D0003C011B014AE0BE016F5F7F4FC2010E949C
:1041E000B62EDC018C91E091C207F091C3078823C1
:1041F00009F495C03097A1F07D012FEFE21AF20A81
:104200000995019609F487C0F70181917F01882300
:1042100009F481C0E091C207F091C307309781F79C
:10422000B201550C880B990B0E940D2A9B01AC0121
:10423000C501B4010E94F1286B017C0137FC75C0F7
:1042400020E030E040E85FE361E070E080E090E093
:10425000101611060CF520E030E0DC01CB01880FD0
:10426000991FAA1FBB1F2C013D01440C551C661C45
:10427000771C440C551C661C771CBC01CD01640DD9
:10428000751D861D971D2F5F3F4F0217130729F7D6
:104290000E940D2A9B01AC01C701B6010E94532B5D
:1042A0000E94DC292AE0AE014F5F5F4F0E94CC2EB6
:1042B00089818823B9F0E091C207F091C307309754
:1042C00089F08E010E5F1F4F0995019659F0F80194
:1042D00081918F01882331F0E091C207F091C307EB
:1042E000309791F72C960FB6F894DEBF0FBECDBF76
:1042F000DF91CF911F910F91FF90EF90DF90CF90C2
:10430000BF90AF909F908F907F906F905F904F90F5
:104310003F902F900895E091C207F091C307309726
:1043200009F47ECF8EE209957BCF20E030E040E8B3
:104330005FEB6FEF7FEFCB018BCF0F931F93CF938B
:10434000DF93CDB7DEB72D970FB6F894DEBF0FBE63
:10435000CDBF9A01AE014F5F5F4F0E94C12EDC01BD
:104360008C918823B9F0E091C207F091C307309790
:1043700089F08D010F5F1F4F0995019659F0F801E3
:1043800081918F01882331F0E091C207F091C3073A
:10439000309791F72D960FB6F894DEBF0FBECDBFC4
:1043A000DF91CF911F910F9108950F931F93CF939A
:1043B000DF93CDB7DEB72A970FB6F894DEBF0FBEF6
:1043C000CDBF4AE0BE016F5F7F4F0E94B62EDC0179
:1043D0008C918823B9F0E091C207F091C307309720
:1043E00089F08D010F5F1F4F0995019659F0F80173
:1043F00081918F01882331F0E091C207F091C307CA
:10440000309791F72A960FB6F894DEBF0FBECDBF56
:10441000DF91CF911F910F910895FF920F931F93FA
:10442000CF93DF93CDB7DEB72A970FB6F894DEBFF0
:104430000FBECDBFF82E82958F7040E1BE016F5F39
:104440007F4F90E00E94B62EDC018C918823B9F05A
:10445000E091C207F091C307309789F08D010F5F9B
:104460001F4F0995019659F0F80181918F0188231A
:1044700031F0E091C207F091C307309791F78F2D8B
:104480008F7040E1BE016F5F7F4F90E00E94B62EBB
:10449000DC018C918823B9F0E091C207F091C30749
:1044A000309789F08D010F5F1F4F0995019659F0E4
:1044B000F80181918F01882331F0E091C207F091DA
:1044C000C307309791F72A960FB6F894DEBF0FBE58
:1044D000CDBFDF91CF911F910F91FF9008950F9362
:1044E0001F93CF93DF931616170654F4EC018C013B
:1044F000060F171F89910E946E1E0C171D07D1F71A
:10450000E091C207F091C307309731F08AE0DF9164
:10451000CF911F910F910994DF91CF911F910F912E
:1045200008950E94B1220E94CC2260914D087091A2
:104530004E0880914F08909150080E9469230E9474
:104540004C2483E193E29093C3078093C20787E4EE
:1045500093E29093C1078093C0070E940525789449
:10456000089541E450E064E070E089E498E00C9440
:10457000322F41E450E064E070E089E498E00C946C
:10458000422F89B182FB882780F90895811102C0EA
:104590002B9808952B9A08955298239A2B98089552
:1045A0000E94912288EC95E00E94FA1E0E94C01C95
:1045B00083B7816083BF889583B78E7F83BF0E9456
:1045C000FF1BF6CF98E088E10FB6F894A89580938A
:1045D00060000FBE90936000FFCF579A579A569A8B
:1045E000482F50E0440F551F90E012C05F9A5E9A2A
:1045F0005F9A292F30E024173507A4F42FEF34E316
:104600008CE0215030408040E1F700C000009F5F07
:1046100090FDECCF5F985E985F98292F30E02417CB
:10462000350764F3089520918C089091A70830E035
:104630002F5F3F4F29272F703327232B41F493B748
:10464000916093BF889593B79E7F93BFECCF2091E5
:104650008C089091A70830E02F5F3F4F29272F70DB
:104660003327232B89F090918C089F5F90938C08BF
:10467000E0918C08EF70F0E0EA56F74F808380916C
:10468000C10080628093C10080E090E00895909125
:104690008A0880918B0889278770C1F090918A08D9
:1046A00080918B088927877019F480E090E0089545
:1046B00080918B088F5F80938B08E0918B08E77067
:1046C000F0E0E257F74F808190E008958FEF9FEF81
:1046D00008954F925F926F927F928F929F92AF92C6
:1046E000BF92CF92DF92EF92FF920F931F93CF93DF
:1046F000DF9300D000D000D0CDB7DEB72B013C0156
:104700006B017C01CC0CDD1CEE1CFF1CCC0CDD1CF9
:10471000EE1CFF1CCC0CDD1CEE1CFF1C812C54E29B
:10472000952E54EFA52EB12CC501B401A701960119
:104730000E946A2829833A834B835C8389819A810A
:1047400001979E838D8391E4491692E459069FE078
:104750006906710408F070C0A7019601220F331F8B
:10476000441F551FC501B4010E946A2869017A01DE
:1047700022953295307F3227207F322740E050E06B
:10478000C501B4010E946A28CA01B901A3019201BE
:104790000E946A2811E0012F021B89819A81880FEB
:1047A000991F880F991F880F991F9C0140E050E0C6
:1047B000C501B4010E946A28CA01B901A30192018E
:1047C0000E946A28121B101758F191E0C91AD108EB
:1047D000C092C400D092C5008091C0008D7F8093AC
:1047E000C00088E18093C1001092C00086E08093F1
:1047F000C20026960FB6F894DEBF0FBECDBFDF9184
:10480000CF911F910F91FF90EF90DF90CF90BF90CD
:10481000AF909F908F907F906F905F904F90089592
:104820009D819093C4008E818093C5008091C000CB
:1048300082608093C000D5CF8093C400F4CF1F92D4
:104840000F920FB60F9211248F939F93EF93FF93C4
:1048500090918C088091A70889278F70B9F080917A
:10486000A7088F5F8093A708E091A708EF70F0E09A
:10487000EA56F74F80818093C600FF91EF919F9198
:104880008F910F900FBE0F901F9018958091C100CF
:104890008F7D8093C100F1CFE1ECF0E080818068F2
:1048A000808308951F920F920FB60F9211242F93B9
:1048B0008F939F93EF93FF9380918A0820918B08A9
:1048C00090E00196822787709927892BC1F080910B
:1048D0008A088F5F80938A08E0918A08E770F0E089
:1048E0008091C600E257F74F8083FF91EF919F912F
:1048F0008F912F910F900FBE0F901F901895809160
:10490000C6008093A60881E08093A608EECF8FE8CA
:1049100091E00197F1F700C0000008951F920F92F7
:104920000FB60F9211242F933F934F935F936F9382
:104930007F938F939F93AF93BF93EF93FF93809158
:104940006308813009F453C080916208813009F412
:1049500059C080916408813089F0FF91EF91BF9137
:10496000AF919F918F917F916F915F914F913F9107
:104970002F910F900FBE0F901F90189580919A065F
:1049800090919B06A0919C06B0919D06AC01BD0143
:10499000415051096109710940939A0650939B0651
:1049A00060939C0670939D06892B8A2B8B2BA9F60E
:1049B00060915E0870915F08809160089091610835
:1049C00020E533EC40E050E00E946A28DA01C9019A
:1049D000805E914BAF4FBF4F80939A0690939B069A
:1049E000A0939C06B0939D060E94C603B6CF80910B
:1049F0009E068F5F80939E06837009F0A5CF0E946C
:104A00003507A2CF0E942004A4CF1092800089E035
:104A10008093810080E293E09093890080938800E6
:104A200082E080936F0008956091AC087091AD08AA
:104A30008091AE089091AF0808956AEB78E00E94EB
:104A400024258AEB98E00895CF92DF92EF92FF92AF
:104A50000F931F93CF93DF9300D000D0CDB7DEB775
:104A60006C017B01E091B008F091B1083097D1F171
:104A700068EA78E009958C01F601408151816281F4
:104A800073818091A8089091A908A091AA08B0917B
:104A9000AB08840F951FA61FB71F101611064CF404
:104AA000A801012E000C660B770B840F951FA61F23
:104AB000B71F89839A83AB83BC83B701CE0101966C
:104AC0000E940D26F701138702870F900F900F9019
:104AD0000F90DF91CF911F910F91FF90EF90DF909A
:104AE000CF900895FC014081518162817381809152
:104AF000A8089091A908A091AA08B091AB08840FCA
:104B0000951FA61FB71F89839A83AB83BC830FEFC2
:104B10001FEFD3CF6093B2087093B3088093B408AB
:104B20009093B5082093B6083093B7084093B8081F
:104B30005093B90808958F929F92AF92BF92EF92CF
:104B4000FF920F931F93CF93DF9300D000D0CDB788
:104B5000DEB78C010E94592769837A838B839C83FB
:104B6000F8018284938497FC38C09E012F5F3F4FE9
:104B700079011814190444F4092C000CAA08BB0884
:104B8000681979098A099B098090A8089090A9085A
:104B9000A090AA08B090AB08DC01CB018819990954
:104BA000AA09BB0989839A83AB83BC83B801C70177
:104BB0000E94242569817A818B819C810F900F90BE
:104BC0000F900F90DF91CF911F910F91FF90EF9079
:104BD000BF90AF909F908F900895E091B008F091B2
:104BE000B108309789F068EA78E09E012F5F3F4F67
:104BF0007901C90109954C01F80193878287698180
:104C00007A818B819C81B5CFFE0131967F01BCCF2B
:104C10009093B1088093B0080895CF92DF92EF92FD
:104C2000FF920F931F93CF93DF93CDB7DEB72897F3
:104C30000FB6F894DEBF0FBECDBF8B01FC016081C3
:104C400071818281938120E831E541E050E00E944A
:104C50006A2869017A012CE330E040E050E00E94CC
:104C60008C2829833A834B835C8389819A81AB8129
:104C7000BC81F80160836CE370E00E945628DC017F
:104C8000CB01F801A1838283A6014A5F5F4F9A019D
:104C9000A3E9B4E20E94AB28281B390B369527956F
:104CA000820F931F96958795969587959C01220F65
:104CB000331F220F331F220F331FB901681B790BDB
:104CC000461B570B44832DEA3EE840E050E0C70105
:104CD000B6010E948C2829833A836D837E838F835B
:104CE000988789819A8124E6289F6001299FD00CAA
:104CF00011246D817E818F81988525EB35E040E020
:104D000050E00E948C2829833A836D837E83E9805A
:104D1000FA80EE0CFF1CEE0CFF1CEC0CFD1C8D81D0
:104D20009E8175E6E716F10408F45AC001962CE35B
:104D300030E04DE651E0E1E0F0E04817590768F453
:104D40006DE671E08E1B9F0B0E945628DC01CB01A3
:104D5000E80EF91ECD012BE330E0F4E6EF0EF11C76
:104D6000F801F782E682918780878217930708F41B
:104D700043C069E970E0821B930B0E945628DC0156
:104D8000CB01F82EFF0CFF0CF80E6DE370E0CD01A7
:104D90000E945628DC01CB01E82EEE0C6FE170E09A
:104DA000CD010E945628DC01CB0122E0280FF20E33
:104DB000FE0CF801F5828A2FF801138612868F5FA8
:104DC000838328960FB6F894DEBF0FBECDBFDF9168
:104DD000CF911F910F91FF90EF90DF90CF900895AA
:104DE000E4E6EE16F10409F0A2CF2BE330E04CE646
:104DF00051E0E0E0F0E0A1CF6FE170E00E945628C2
:104E0000DC01CB01F80185838A2FD6CFEF92FF9288
:104E10000F931F93CF93DF938C01EB01FC018681ED
:104E200097818459984F64E670E00E9456289B0150
:104E30007C014DE2BE01C9010E943428BE016E5FB3
:104E40007F4F4DE2C7010E943428BE016B5F7F4F48
:104E5000F801858190E04DE201960E943428BE0160
:104E6000685F7F4FF801838140E290E00E94342820
:104E7000BE01655F7F4FF80182814AE390E00E94A6
:104E80003428BE01625F7F4FF80181814AE390E0E0
:104E90000E943428BE016F5E7F4FF801808140E0A0
:104EA00090E0DF91CF911F910F91FF90EF900C94C4
:104EB00034288F929F92AF92BF92CF92DF92EF925F
:104EC000FF920F931F93CF93DF93EC01EE81FF814D
:104ED0008F010456110909F48EC0C80101976C01B5
:104EE00097FD96C0D594C794D594C7946CE97FEF8D
:104EF0000E945628C60ED71E8FEFC81AD80A0D2C4E
:104F0000000CEE08FF082DE631E0D8010E94BA2817
:104F1000C60ED71EE81EF91E8B8190E08C01015051
:104F200011092D81223008F46AC0CF018459984FAD
:104F30000E941F28282F30E0255C3F4F200F311F93
:104F40008D8190E002978530910514F027563F4FF0
:104F500065E070E00E945628AC0197FD56C055955B
:104F600047959DE3949F8001959F100D1124020F9A
:104F7000131F80FF02C0015E1F4FC801110FAA0B53
:104F8000BB0B9C01AD012C0D3D1D4E1D5F1D60E84E
:104F900071E581E090E00E9446284B015C012A8186
:104FA00030E0A0E1BEE00E94AB286B017C012981CA
:104FB00030E0ACE3B0E00E94AB28DC01CB018C0D0B
:104FC0009D1DAE1DBF1D2881820F911DA11DB11D0C
:104FD000BC01CD01680D791D8A1D9B1DDF91CF910C
:104FE0001F910F91FF90EF90DF90CF90BF90AF9007
:104FF0009F908F900895C12CD12C760184CF2223CD
:1050000009F4BBCF015E1F4FB8CF4F5F5F4FA7CFF3
:10501000680122E0C20ED11C65CF6093AC0870938A
:10502000AD088093AE089093AF0808956093A808E8
:105030007093A9088093AA089093AB0808959C01E7
:1050400023703327232B61F464E670E00E94562816
:10505000892B41F46370772781E0672B09F4089569
:1050600080E0089581E008951F93CF93DF93EB01D3
:10507000142F6AE070E00E945628605D6883805DAE
:1050800089831A83DF91CF911F910895DB018F935C
:105090009F930E94C128BF91AF91A29F800D911D47
:1050A000A39F900DB29F900D1124089597FB072E9A
:1050B00016F4009407D077FD09D00E94CC2807FC95
:1050C00005D03EF4909581959F4F08957095619518
:1050D0007F4F0895A1E21A2EAA1BBB1BFD010DC034
:1050E000AA1FBB1FEE1FFF1FA217B307E407F50798
:1050F00020F0A21BB30BE40BF50B661F771F881F74
:10510000991F1A9469F760957095809590959B0109
:10511000AC01BD01CF010895052E97FB1EF400944C
:105120000E94A32857FD07D00E946A2807FC03D0DD
:105130004EF40C94A32850954095309521953F4FFF
:105140004F4F5F4F089590958095709561957F4F73
:105150008F4F9F4F0895A29FB001B39FC001A39F9F
:10516000700D811D1124911DB29F700D811D1124A0
:10517000911D08950E94AB28B7FF0895821B930BE1
:1051800008950E94AB28A59F900DB49F900DA49FF9
:10519000800D911D11240895AA1BBB1B51E107C06E
:1051A000AA1FBB1FA617B70710F0A61BB70B881FB7
:1051B000991F5A95A9F780959095BC01CD01089546
:1051C0009F939F770E94482A0F90002042F49058A6
:1051D000A2EA2AED3FE049E450E40E9409290C9438
:1051E000D12A5058BB27AA270E9409290C94D12AFA
:1051F0000E94982A38F00E949F2A20F039F49F3F9D
:1052000019F426F40C946E2A0EF4E095E7FB0C9446
:10521000682AE92F0E94F62A58F3BA176207730723
:105220008407950720F079F4A6F50C94182B0EF45A
:10523000E0950B2EBA2FA02D0B01B90190010C01A6
:10524000CA01A0011124FF27591B99F0593F50F4BE
:10525000503E68F11A16F040A22F232F342F442716
:10526000585FF3CF469537952795A795F04053950E
:10527000C9F77EF41F16BA0B620B730B840BBAF0DE
:105280009150A1F0FF0FBB1F661F771F881FC2F749
:105290000EC0BA0F621F731F841F48F4879577955D
:1052A0006795B795F7959E3F08F0B0CF9395880F17
:1052B00008F09927EE0F9795879508950E94A82AE0
:1052C000E3950C94E22A0E9477290C94D12A0E943B
:1052D0009F2A58F00E94982A40F029F45F3F29F055
:1052E0000C94682A51110C94192B0C946E2A0E946C
:1052F000F62A68F39923B1F3552391F3951B550BC7
:10530000BB27AA2762177307840738F09F5F5F4F98
:10531000220F331F441FAA1FA9F335D00E2E3AF0D7
:10532000E0E832D091505040E695001CCAF72BD0EF
:10533000FE2F29D0660F771F881FBB1F2617370740
:105340004807AB07B0E809F0BB0B802DBF01FF2772
:1053500093585F4F3AF09E3F510578F00C94682ABD
:105360000C94192B5F3FE4F3983ED4F38695779520
:105370006795B795F7959F5FC9F7880F911D96952B
:10538000879597F90895E1E0660F771F881FBB1F87
:10539000621773078407BA0720F0621B730B840B34
:1053A000BA0BEE1F88F7E09508950E94DC296894F7
:1053B000B1110C94192B08950E94FE2A88F09F5772
:1053C00098F0B92F9927B751B0F0E1F0660F771F29
:1053D000881F991F1AF0BA95C9F714C0B13091F01F
:1053E0000E94182BB1E008950C94182B672F782F8A
:1053F0008827B85F39F0B93FCCF3869577956795E4
:10540000B395D9F73EF490958095709561957F4F4F
:105410008F4F9F4F0895E89409C097FB3EF49095F5
:105420008095709561957F4F8F4F9F4F9923A9F07D
:10543000F92F96E9BB279395F6958795779567950C
:10544000B795F111F8CFFAF4BB0F11F460FF1BC050
:105450006F5F7F4F8F4F9F4F16C0882311F096E9E3
:1054600011C0772321F09EE8872F762F05C0662391
:1054700071F096E8862F70E060E02AF09A95660F4A
:10548000771F881FDAF7880F9695879597F9089503
:10549000DF93CF931F930F938B01EC01E8E6F0E0CD
:1054A0000E94712A0E94D12A9801AE018B01EC0161
:1054B00060E070E080E89FE30E94F1280E94CE2B1C
:1054C0009801AE010F911F91CF91DF910C94662B43
:1054D00097F99F6780E870E060E008959FEF80ECA7
:1054E0000895DF93CF931F930F93FF92EF92DF9274
:1054F0007B018C01689406C0DA2EEF010E94662BB6
:10550000FE01E894A5912591359145915591A6F319
:10551000EF010E940929FE019701A801DA9469F7B9
:10552000DF90EF90FF900F911F91CF91DF91089541
:1055300000240A9416161706180609060895002472
:105540000A94121613061406050608950C946E2A82
:105550000E94FE2AD8F3E894E0E0BB279F57F0F0C2
:105560002AED3FE049EC06C0EE0FBB0F661F771F28
:10557000881F28F0B23A62077307840728F0B25AEE
:10558000620B730B840BE3959A9572F7803830F4B5
:105590009A95BB0F661F771F881FD2F790480C940F
:1055A000102C092E0394000C11F4882352F0BB0F29
:1055B00040F4BF2B11F460FF04C06F5F7F4F8F4F2B
:1055C0009F4F0895EF93E0FF07C0A2EA2AED3FE066
:1055D00049EC5FEB0E9409290E94D12A0F900394A5
:1055E00001FC9058E0E9F0E00C94232C57FD905812
:1055F000440F551F59F05F3F71F04795880F97FB97
:10560000991F61F09F3F79F0879508951216130650
:105610001406551FF2CF4695F1DF08C0161617067F
:105620001806991FF1CF86957105610508940895B4
:10563000E894BB2766277727CB0197F90895FA01ED
:10564000DC01AA0FBB1F9B01AC01BF5728F4222726
:1056500033274427507820C0B75190F4AB2F002453
:10566000469537952795011CA395D2F3002071F03C
:10567000220F331F441FB395DAF30ED00C94F12898
:1056800061307105A0E88A07B94630F49B01AC018E
:105690006627772788279078309621F020833183FA
:1056A0004283538308950E94662B0C94D12A0E9452
:1056B000982A38F00E949F2A20F0952311F00C942C
:1056C000682A0C946E2A11240C94192B0E94F62A35
:1056D00070F3959FC1F3950F50E0551F629FF00145
:1056E000729FBB27F00DB11D639FAA27F00DB11D5E
:1056F000AA1F649F6627B00DA11D661F829F2227E7
:10570000B00DA11D621F739FB00DA11D621F839F6D
:10571000A00D611D221F749F3327A00D611D231F43
:10572000849F600D211D822F762F6A2F11249F5791
:1057300050409AF0F1F088234AF0EE0FFF1FBB1F94
:10574000661F771F881F91505040A9F79E3F510553
:1057500080F00C94682A0C94192B5F3FE4F3983E78
:10576000D4F3869577956795B795F795E7959F5FFD
:10577000C1F7FE2B880F911D9695879597F908958F
:105780009F930E94A82A0F9007FCEE5F0C94E22AD8
:1057900019F416F40C946E2A0C940E2C0E94FE2A16
:1057A000B8F39923C9F3B6F39F57550B87FF0E94AF
:1057B0001C2C0024A0E640EA90018058569597954D
:1057C00028F4805C660F771F881F20F026173707A4
:1057D000480730F4621B730B840B202931294A2BB4
:1057E000A69517940794202531254A2758F7660F68
:1057F000771F881F20F026173707480730F4620B01
:10580000730B840B200D311D411DA09581F7B9014B
:10581000842F9158880F9695879508959F3F31F072
:10582000915020F4879577956795B795880F911DCE
:105830009695879597F9089591505040660F771F78
:10584000881FD2F708959F938F937F936F93FF9351
:10585000EF939B01AC010E94532BEF91FF910E94AB
:10586000712A2F913F914F915F910C94532BA0E09F
:10587000B0E0EDE3FCE20C94652F5C016B017A0172
:105880006115710519F0FB0191838083E114F10426
:1058900029F0C7010297839708F0E5C0E50121963A
:1058A000F5011081812F90E00E94602E892B11F06C
:1058B0005E01F4CF1D3229F42196F501118101E03A
:1058C00007C01B3221F4E5012296F501118100E0A9
:1058D000E114F10409F1F0E1EF16F10429F43FC0FD
:1058E00010E3E114F10421F128E0E216F10401F1E2
:1058F00054F4E2E0EE16F10421F5812C912CA12C58
:10590000B0E4BB2E3EC0FAE0EF16F10439F020E11E
:10591000E216F104B1F430C0103319F1FAE0EF2EC1
:10592000F12CACEC8A2E982CA82CACE0BA2E29C015
:1059300078E0E72EF12C812C912CA12CE0E1BE2EF9
:1059400020C060E070E080E090E897010F2C000C30
:10595000440B550B0E946A2849015A0112C01033AA
:1059600059F488818F7D883509F0BACF1981229644
:10597000026080E1E82EF12C812C912CA12C68E0B2
:10598000B62E40E060E070E0CB0127010F2C000C48
:1059900066087708FE0150ED352E310E29E02315FB
:1059A00070F42FEB210F2A3118F439EC332E06C096
:1059B0002FE9210F2A3118F529EA322E310E232D35
:1059C00030E02E153F05DCF447FD16C0861697061D
:1059D000A806B90670F0A30192010E944628630D43
:1059E000711D811D911D61307105810520E89207AF
:1059F00010F04FEF01C041E021961081CBCF202F56
:105A00002170C114D10471F0442329F02197F601CB
:105A1000D183C08307C001FF19C02297F601D1834B
:105A2000C08314C047FF12C0222329F060E070E059
:105A300080E090E804C06FEF7FEF8FEF9FE722E2F6
:105A400030E03093C7082093C60809C0222381F0B4
:105A500090958095709561957F4F8F4F9F4F462F02
:105A6000372F282F12C040E030E020E090E00DC03A
:105A700097FFF5CF82E290E09093C7088093C60825
:105A80006FEF7FEF8FEF9FE7EACF642F732F822FA7
:105A9000CDB7DEB7E1E10C94812FA0E0B0E0E3E503
:105AA000FDE20C94652F5C016B017A0161157105B3
:105AB00019F0FB0191838083E114F10429F0C701FF
:105AC0000297839708F0C9C0E5012196F50110817E
:105AD000812F90E00E94602E892B11F05E01F4CF9F
