:100000000C9420040C9449040C9449040C94490465
:100010000C9449040C9449040C9449040C9449042C
:100020000C9449040C9449040C9449040C94AB2B93
:100030000C9449040C9449040C9449040C9449040C
:100040000C9449040C9449040C946F2B0C943C2B95
:100050000C9449040C9449040C9449040C944904EC
:100060000C9449040C944904072C7AA5BA6CC590E9
:10007000DA3B9365FC8BBC53F810FD3C5692834DE4
:10008000BD879D3AB63DCBC9BF5BBE73DA0FC93F92
:1000900005A84CCDB2D44EB93836A9020C50B9914E
:1000A0008688083CA6AAAA2ABE000000803F737971
:1000B0006E7461783A20636F6D6D616E64206F704D
:1000C00074696F6E3D76616C7565202E2E2E3B0A2D
:1000D000636F6D6D616E6473206172653A200074A8
:1000E000797065202768656C7020636F6D6D616E37
:1000F000643B2720206F72202768656C7020616C3C
:100100006C3B270A636F6D6D616E6473206172656D
:100110003A20006461696C793D5420202020202021
:100120002020656E61626C6573206461696C792062
:1001300074696D65722E20542069732075702F6468
:100140006F776E206C696B6520303733302D206FF0
:1001500072203037333032303030206F72202D3201
:100160003030302020666F722075702030373A337F
:100170003020616E642F6F7220646F776E20323092
:100180003A30300A7765656B6C793D545454545459
:10019000545420656E61626C6573207765656B6C85
:1001A000792074696D65722E2054206C696B65200E
:1001B0007769746820276461696C7927206F7220E1
:1001C000272B2720746F20636F7079207468652057
:1001D00054206F6E20746865206C6566742E20282C
:1001E0007765656B6C793D303733302D2B2B2B2B9E
:1001F000303930302D2B290A617374726F5B3D4E9C
:100200005D202020202020656E61626C6573206176
:100210007374726F206175746F6D617469632E20E1
:100220004E20697320746865206F6666736574205C
:10023000746F20636976696C206475736B20696ED6
:10024000206D696E757465732E2043616E20626542
:1002500020706F7374697665206F72206E656761B8
:10026000746976652E0A73756E2D6175746F202022
:100270002020202020656E61626C65732073756E8E
:10028000206175746F6D617469630A72616E646F69
:100290006D202020202020202020656E61626C656A
:1002A000732072616E646F6D206175746F6D61741F
:1002B00069632E2073687574746572206F70656E43
:1002C0007320616E6420636C6F73657320617420AA
:1002D00072616E646F6D2074696D65732E0A72743D
:1002E000632D6F6E6C7920202020202020646F6E9B
:1002F0002774206368616E67652074696D65727329
:100300002E206F6E6C792075706461746520696E43
:100310007465726E616C207265616C2074696D65C4
:1003200020636C6F636B0A612C206720616E642010
:100330006D3A202020206C696B6520696E20736502
:100340006E6420636F6D6D616E640A72733D283058
:100350007C317C322920202020207265616420625B
:1003600061636B2073617665642074696D657220CA
:10037000646174612E2069662073657420746F2037
:10038000322C2072657475726E20616E7920646102
:100390007461206D61746368696E67206720616EA7
:1003A00064206D20652E672E206D3D302028616E03
:1003B00079206D656D6265722920696E737465615F
:1003C00064206F66206D3D320A007072696E743D64
:1003D000287274637C6375290A0063753D2849445B
:1003E0007C6175746F292020202020362D64696778
:1003F000697420686578204944206F662043656EE3
:100400007472616C2D556E69742E206175746F3A2B
:10041000206361707475726520494420776974683F
:1004200020636F6E6E65637465642052462072654A
:100430006365697665720A7274633D49534F5F5410
:10044000494D452020202020287274633D323031F0
:10045000372D31322D33315432333A35393A35393B
:10046000290A626175643D4E202020202020202032
:1004700020202073657269616C206261756420724E
:100480006174652028626175643D333834303029E9
:100490000A6C6F6E6769747564653D4445430A6C08
:1004A000617469747564653D4445430A74696D659A
:1004B0002D7A6F6E653D4E2020202020202065780B
:1004C000616D706C653A20636F6E66696720206CA1
:1004D0006F6E6769747564653D2D31332E32333428
:1004E0003532206C617469747564653D2B35322E2C
:1004F00033343233342074696D652D7A6F6E653D07
:100500002B312E303B0A6473743D2865757C307C3A
:1005100031292020202020206461796C696768746B
:1005200020736176696E672074696D653A20617524
:10053000746F6D617469633A2065753D6575726F9E
:1005400070652E206D616E75616C6C793A20303D5E
:100550006F66662C20313D6F6E0A766572626F732E
:10056000653D28302E2E35292020202073657420EB
:1005700074657874206F7574707574207665726216
:100580006F73697479206C6576656C3A20302066EB
:100590006F72206E6F6E65202E2E2E203520666FB6
:1005A00072206D6178290A7365742D70773D7061D2
:1005B0007373776F726420202073657420612063E9
:1005C0006F6E6669672070617373776F72642E2037
:1005D00069662073657420657665727920636F6E35
:1005E00066696720636F6D6D616E6473206E65650B
:1005F000647320746865207077206F7074696F6E03
:100600000A70773D505720202020202020202020D5
:100610002020206578616D706C653A20636F6E668E
:1006200069672070773D6D795F70617373772064BF
:1006300073743D65753B0A72657374617274202032
:100640002020202020202020207265737461727485
:10065000204D43550A00613D28307C494429202023
:100660002020686578204944206F662073656E6499
:100670006572206F722072656365697665722E20DF
:1006800030202864656661756C7429207573657304
:10069000202763752720696E20636F6E6669670A7D
:1006A000673D5B302D375D202020202067726F75FD
:1006B00070206E756D6265722E203020286465662C
:1006C00061756C742920616464726573736573204D
:1006D000616C6C2067726F7570730A6D3D5B302DB5
:1006E000375D202020202067726F7570206D656D4A
:1006F0006265722E2030202864656661756C7429ED
:100700002061646472657373657320616C6C206D25
:10071000656D626572730A633D636F6D6D616E64D2
:10072000202020436F6D6D616E6420746F207365AF
:100730006E642E204F6E65206F663A2075702C20F7
:10074000646F776E2C2073746F702C2073756E2D10
:10075000646F776E2C2073756E2D696E73742C2008
:100760007365740A723D4E20202020202020202016
:1007700052657065617465642073656E64696E6747
:1007800020666F722062657474657220726563659D
:100790007074696F6E2E2053656E642074686520D6
:1007A000636F6D6D616E6420312B4E2074696D65D1
:1007B000735345505B3D307C315D20202053776979
:1007C00074636820746F20656E61626C6520656E6D
:1007D000642D706F736974696F6E2061646A7573DC
:1007E000746D656E742E20486F6C6420686172644D
:1007F0007761726520627574746F6E20746F20610A
:10080000646A75737420656E6420706F73697469AF
:100810006F6E2028657370383236363A20677069FB
:100820006F302F666C61736820627574746F6E2010
:100830006F6E206D696E6920626F6172647329004A
:1008400011241FBECFEFD8E0DEBFCDBF14BE0FB660
:10085000F894A89580916000886180936000109260
:1008600060000FBE15E0A0E0B1E0EAE9FDE602C0DD
:1008700005900D92A83DB107D9F728E0A8EDB5E0A5
:1008800001C01D92A03AB207E1F70E94ED290C9435
:10089000CB360C9400008F938FB78F93F894809190
:1008A00084088F5F80938408809185088F4F8093A0
:1008B0008508809186088F4F8093860880918708ED
:1008C0008F4F809387088F918FBF8F91089580916C
:1008D000A606882311F080E008958091AC061816D2
:1008E0008CF58091AB068F70833069F18091A606FC
:1008F000811128C081E00E940A16882319F1809195
:10090000AC0681508093AC0685E0E7EAF6E0ADEEF8
:10091000B6E001900D928A95E1F761E08DEE96E0E8
:100920000E949A1B80913D08811112C08CE090E0DA
:100930009093AE068093AD0681E08093A60680E09A
:100940000C940A16089587EA96E00E94AD23CECF54
:1009500080E391E00E94152661E08DEE96E00E9412
:100960004C1DE4CFCF93DF93EC018091A60681115B
:1009700007C0209709F440C08091AC06181624F4F3
:1009800080E0DF91CF91089581E00E940A168823CC
:10099000B9F386E0FE01A7EAB6E001900D928A95D0
:1009A000E1F785E0FE01ADEEB6E001900D928A958B
:1009B000E1F761E08DEE96E00E949A1B80913D0880
:1009C000811110C08CE090E09093AE068093AD064C
:1009D00081E08093A60680E00E940A1681E0DF9104
:1009E000CF91089580E391E00E94152661E08DEE9D
:1009F00096E00E944C1DE6CF81E00E940A168823F3
:100A000009F4BECF8091AC0681508093AC06C7EA52
:100A1000D6E0C7CF2091A606222311F080E00895EA
:100A2000FC0185E0ADEEB6E001900D928A95E1F70C
:100A30006091F906661F6627661F83E0861B682F94
:100A40008DEE96E00E949A1B80913D0881110EC0A8
:100A50008091F90687FD1BC080E591E09093AE067A
:100A60008093AD0681E08093A606089580E391E02F
:100A70000E94152680913D08823098F063E08DEE4B
:100A800096E00E944C1D8091F90687FFE5CF8EE12C
:100A900090E09093AE068093AD0681E08093A60629
:100AA000089561E0ECCF2F923F924F925F926F9248
:100AB0007F928F929F92AF92BF92CF92DF92EF92EE
:100AC000FF920F931F93CF93DF93CDB7DEB76A9753
:100AD0000FB6F894DEBF0FBECDBF8C01072E000C01
:100AE000880B990B0E94323120E030E040E752E45D
:100AF0000E9488306F8B788F898F9A8F0D8B1E8B19
:100B000085E391E09C8B8B8B8AEEC82E86E6D82EEF
:100B10008BEDE82E8DEBF82E85E89BEBACE0BEEB81
:100B20008D879E87AF87B88B80ED9BEEAAE6BFE3EB
:100B300089879A87AB87BC8786E693E7ABECBEEBE9
:100B40008D839E83AF83B887AB89BC892D883E880F
:100B500098E0290E311CBA8BA98B0D891E892BEDCB
:100B60003FE049E450E460912D0870912E08809197
:100B70002F08909130080E94783220E030E044E362
:100B800053E40E9488304B015C010E94E5322B0146
:100B90003C01C501B4010E9483304B015C012D81F1
:100BA0003E814F815885C301B2010E9478329B017A
:100BB000AC0165E073E186ED9DEB0E9416302B01E0
:100BC0003C0129853A854B855C85C501B4010E94AD
:100BD00078329B01AC01C301B2010E9488300E94AF
:100BE000053020E030E040E451E40E9478322BED03
:100BF0003FE049E450E40E94883020E030E040E4E7
:100C000051E40E9417304B015C0120EA3AE14FE2C7
:100C10005EEB6D857E858F8598890E9478322B01E9
:100C20003C0121E834E045E05EE3C701B6010E94E3
:100C300078329B01AC01C301B2010E9416309B01C6
:100C4000AC01C501B4010E9416306B017C0120E0AB
:100C500030E040E751E46091290870912A088091C2
:100C60002B0890912C080E9488309B01AC01C70191
:100C7000B6010E9417306B017C0120913108309140
:100C8000320840913308509134086F89788D898DEE
:100C90009A8D0E9417309B01AC01C701B6010E94DA
:100CA0001730AE014F5F5F4F0E9444326B017C01F1
:100CB0000F3FBFEF1B0759F069817A818B819C81BF
:100CC0000E940131862F0E94F11FF80181830115D6
:100CD000110581F020E030E040E752E4C701B601A1
:100CE0000E9478320E940131862F8E7F0E94F11F70
:100CF000D8018C930E5F1F4F0215130509F459C0DC
:100D0000A989BA896D917D91BA8BA98B072E000CA8
:100D1000880B990B0E9432316B017C0128E03CE288
:100D200040EA52E40E94163024E73EE74AE85CE3DA
:100D30000E9478320E94E5322CEF39EA41ED5EE301
:100D40000E9478324B015C010E94E5326D837E8304
:100D50008F839887C501B4010E94833069877A87A1
:100D60008B879C8723E039E04AE05DE3C701B60149
:100D70000E9478322BE734E14EEE5EE30E9417309A
:100D80000E94E5326D877E878F87988B2BE134E652
:100D900042E95CE3C701B6010E94783221E338E002
:100DA0004CE25EE30E9416300E94E5326B017C014A
:100DB000D6CEED89FE893996FE8BED8B8B899C8989
:100DC000A1E08D389A0709F45CC0FC016681778147
:100DD000072E000C880B990B0E9432316B017C01AD
:100DE00028E03CE240EA52E40E94163024E73EE765
:100DF0004AE85CE30E9478320E94E5322CEF39EA3F
:100E000041ED5EE30E9478324B015C010E94E532C5
:100E10006D837E838F839887C501B4010E948330E0
:100E200069877A878B879C8723E039E04AE05DE316
:100E3000C701B6010E9478322BE734E14EEE5EE343
:100E40000E9417300E94E5326D877E878F87988BCE
:100E50002BE134E642E95CE3C701B6010E94783237
:100E600021E338E04CE25EE30E9416300E94E53256
:100E70006B017C018B899C8908969C8B8B8BDC0198
:100E800065CE6A960FB6F894DEBF0FBECDBFDF9178
:100E9000CF911F910F91FF90EF90DF90CF90BF9077
:100EA000AF909F908F907F906F905F904F903F900A
:100EB0002F9008958F929F92AF92BF92CF92DF9220
:100EC000EF92FF920F931F93CF93DF93CDB7DEB7CF
:100ED00064970FB6F894DEBF0FBECDBF62307105C8
:100EE0000CF460C0FC01E480F580C680D780E1147A
:100EF000F10409F485C0C114D10409F481C04B0187
:100F00008C01AA24A394B12C25C069E971E0C60123
:100F10000E94A735892B09F448C06DE971E0C6012C
:100F20000E94A735892B09F44EC0FFEFAF1ABF0A04
:100F30008A149B04B9F1F801E084F184C284D3845B
:100F4000E114F10409F45CC00C5F1F4FC114D1041B
:100F500009F456C063E971E0C7010E94A735892BE7
:100F6000A1F287EB91E00E9415268091B306909143
:100F7000B406892BD9F58AE30E94F6258FEB91E020
:100F80000E94152687E295E00E941526C7010E945F
:100F900015268AE00E94F625FFEFAF1ABF0A8A14D1
:100FA0009B0449F680E090E02DC0CE0101960E949E
:100FB0007522882309F4B9CFCE0101960E94152627
:100FC0000E940A26B2CF80EA91E00E941526609125
:100FD000210870912208809123089091240840E113
:100FE00050E00E94B8280E940A269FCF80E40E9409
:100FF000F6258091B3069091B4060E94F028BBCFED
:101000008FEF9FEF64960FB6F894DEBF0FBECDBF93
:10101000DF91CF911F910F91FF90EF90DF90CF90D4
:10102000BF90AF909F908F900895CF92DF92EF92F4
:10103000FF920F931F93CF93DF936C017B0161307D
:10104000710509F4D4C00CF499C001E010E054C05B
:10105000BE0180910001909101010E94A735892B6A
:1010600009F4A5C0BE0180910601909107010E947C
:10107000A735892B09F4AFC0BE0180910C01909176
:101080000D010E94A735892B09F4A8C0BE018091EB
:101090001201909113010E94A735892B09F4A1C078
:1010A000BE0180911801909119010E94A735892BEA
:1010B00009F49AC087EB91E00E9415268091B3064F
:1010C0009091B406892B09F068C08AE30E94F62546
:1010D0008FEB91E00E94152687E295E00E9415268D
:1010E000CE010E9415268AE00E94F6250F5F1F4F51
:1010F0000E151F050CF042C0F801EE0FFF1FEE0F9A
:10110000FF1FEC0DFD1DC081D1816AE072E0CE01B0
:101110000E94A735892B09F09BCF8EEA90E00E94B0
:101120003826C0E0D1E08E01F801808191810E94D3
:10113000152687E092E00E9415260A5F1F4FF1E016
:101140000E311F0789F70E940A26888199810E9423
:1011500015268EE092E00E9415268C819D810E94CA
:1011600038260E940A26269681E0CE31D80769F7F4
:1011700006E010E00E151F050CF4BECF8EEC91E0DA
:101180000E94152680E090E0DF91CF911F910F9192
:10119000FF90EF90DF90CF90089580E40E94F625B5
:1011A0008091B3069091B4060E94F0288ECF80E023
:1011B00090E0FC01EE0FFF1FE80FF91FEE0FFF1F7D
:1011C000E050FF4F848195810E9438260E940A26B4
:1011D0000F5F1F4F8DCF81E090E0EBCF82E090E07A
:1011E000E8CF83E090E0E5CF84E090E0E2CF8FEDC0
:1011F00090E00E943826C0E0D1E00EE111E0888145
:1012000099810E94152687E092E00E941526269675
:101210000C171D07A1F70E940A26B4CF2F923F9208
:101220004F925F926F927F928F929F92AF92BF92F6
:10123000CF92DF92EF92FF920F931F93CF93DF93A2
:1012400000D000D0CDB7DEB73B01623071050CF4A1
:1012500019C2FC0104811581C680D78001151105D2
:1012600009F4C3C09C838B83312C1A82212CF2E0B9
:10127000F98344244A94542C812C912C5401EE245B
:10128000E394F12C20C0C114D10409F484C040E1DE
:1012900050E060E070E0C6010E945C334B015C01ED
:1012A000FFEFEF1AFF0A6E147F0471F1EB81FC81EE
:1012B000008511853496FC83EB83C680D7800115A9
:1012C000110509F492C069E172E0C8010E94A735D6
:1012D000892BC9F261E074E0C8010E94A735892B0F
:1012E00009F042C0C114D10409F46AC0C6010E94C9
:1012F00067358830910508F063C0382EFFEFEF1A8C
:10130000FF0A6E147F0491F681149104A104B104C4
:1013100009F41BC12091DB05822F90E0A0E0B0E032
:10132000DC01992788273091DD05832B4091DC056E
:1013300050E0542F442760E070E0842B952BA62BBF
:10134000B72B88169906AA06BB0609F4E1C0B501B9
:10135000A4018BED95E00E948D232091DB05EBED40
:10136000F5E0FC83EB83D8C06FEA73E0C8010E940C
:10137000A735892BA1F4C114D10411F1C6010E9433
:10138000673588309105E0F4009709F48DC0E7E0F7
:101390002E2E280E85CF812C912C540181CF67E011
:1013A00074E0C8010E94A735892BC1F5C114D1048E
:1013B00039F0C6010E94673589838B3008F470CFFD
:1013C00081E292E00E9415268091B3069091B406C6
:1013D000892B09F027C187E295E00E9415268BE151
:1013E00092E00E9415260E940A268FEF9FEF0F9031
:1013F0000F900F900F90DF91CF911F910F91FF9061
:10140000EF90DF90CF90BF90AF909F908F907F90A4
:101410006F905F904F903F902F9008956BE971E02F
:10142000C8010E94A735892B09F040C0C114D1041E
:1014300039F260E372E0C6010E94A735892B09F4F6
:101440000BC169E372E0C6010E94A735892B09F43C
:1014500000C167E272E0C6010E94A735892B09F43A
:10146000FEC06CE272E0C6010E94A735892B09F428
:10147000EDC065E372E0C6010E94A735892B09F42F
:10148000FEC06CE372E0C6010E94A735892B09F407
:10149000F3C065E472E0C6010E94A735892B09F00C
:1014A0008FCF8DE08A83FCCE212CFACE69E472E0E6
:1014B000C8010E94A735892B71F4C114D10421F011
:1014C000F6018081813321F444244394512CE8CEE9
:1014D000412C512CE5CE87EB91E00E94152680919E
:1014E000B3069091B406892B09F0A6C08AE30E9446
:1014F000F6258FEB91E00E94152687E295E00E9489
:101500001526C8010E9415268AE00E94F625C8CE3D
:101510008BED95E09C838B83207F2038F9F0FFEFE3
:101520004F165F0699F1EB81FC818481982F907FA3
:101530008A818F70892B8483452809F457C0CF0195
:101540000E94372080E090E052CF2091B50685EBD5
:1015500096E09C838B83207F203809F7EB81FC8108
:1015600024812F70F0E13F9EC0011124322E382AD1
:10157000EB81FC8134828381982F907F822D8F7044
:10158000892B8383FFEF4F165F0669F6FA81FF23ED
:1015900091F1EB81FC818481982F907F8A818F70FB
:1015A000892B8483CF010E94AD232981EB81FC81AB
:1015B0002583CF010E94B2048823E9F081E292E002
:1015C0000E9415268091B3069091B406892B09F0EC
:1015D00068C087E295E00E94152684E993E00E94A6
:1015E00015260E940A2680E090E001CF0E940D207F
:1015F00080E090E0FCCE81E292E00E94152680918E
:10160000B3069091B406892B69F587E295E00E94B4
:1016100015268BE192E00E9415260E940A2680E0A2
:1016200090E0E5CE80E40E94F6258091B30690918B
:10163000B4060E94F028CFCE80E40E94F625809167
:10164000B3069091B4060E94F02850CF86E08A83BA
:1016500027CE84E08A8324CE85E08A8321CE83E06E
:101660008A831ECE80E40E94F6258091B306909175
:10167000B4060E94F028C9CF88E08A8311CE87E0A3
:101680008A830ECE2091B50632E0398344244A94F1
:10169000542C212C1A82312C85EB96E09C838B8371
:1016A0003BCF80E40E94F6258091B3069091B4066A
:1016B0000E94F0288ECF2F923F924F925F926F92AE
:1016C0007F928F929F92AF92BF92CF92DF92EF92D2
:1016D000FF920F931F93CF93DF9300D000D0CDB72D
:1016E000DEB799249394209142082111912C623005
:1016F00071050CF475C06B019C838B83FC01A48085
:10170000B58006811781A114B10409F451C10115F6
:10171000110509F44DC1EE24E394F12C26C0B80163
:1017200082E498E00E94A735892B09F03DC18DE441
:1017300092E00E9415261FEFE11AF10ACE14DF0491
:1017400009F44EC0EB81FC81A084B184028513852D
:10175000A114B10409F42CC13496FC83EB839924C1
:1017600093940115110509F423C168EF72E0C501D6
:101770000E94A735892B99F2992009F4DBC16AE808
:1017800072E0C5010E94A735892B09F4EAC069E916
:1017900071E0C5010E94A735892B09F094C0C801EA
:1017A0000E949A22811179C081E292E00E9415265E
:1017B0008091B3069091B406892B09F031C187E27C
:1017C00095E00E9415268BE192E00E9415260E946A
:1017D0000A261FEFE11AF10ACE14DF0409F0B2CF96
:1017E00080E090E0FCC064EF72E0C5010E94A73584
:1017F000892B09F489C16BEF72E0C5010E94A735FE
:10180000892B09F4F0C168E073E0C5010E94A73597
:10181000892B09F4F3C164E173E0C5010E94A73587
:10182000892B09F48CC16EE173E0C5010E94A735D4
:10183000892B09F40DC267E273E0C5010E94A73548
:10184000892B09F477C261E373E0C5010E94A735D3
:10185000892B09F0D6C265E373E0C8010E94A73561
:10186000892B19F0F1E0F093350866EB75E0C801BB
:101870000E94A735892B11F01092350868E373E0B8
:10188000C8010E94A735892B09F4EEC203E000933A
:1018900035080E9429230E94D42981E292E00E9407
:1018A00015268091B3069091B406892B09F0AEC03D
:1018B00087E295E00E94152684E993E00E941526B0
:1018C0000E940A2638CF6DE971E0C5010E94A73554
:1018D000892B09F049C065EB73E0C8010E94A73568
:1018E000892B09F4A7C066ED72E0C8010E94A735F4
:1018F000892B09F0F2C06091E606862F90E0A0E007
:10190000B0E0DC01992788272091E806AC01BD01F1
:10191000422B8091E70690E0982F8827A0E0B0E066
:101920008A019B01082B192B2A2B3B2BC901B801DB
:101930008C01222733270038110521053105C1F517
:101940000093B5067093B6066093B70660932108BE
:101950007093220880932308909324080E94D4292E
:101960009CCF0E94FF29E7CE6FED72E0C5010E9477
:10197000A735892B09F483C067EE72E0C5010E9488
:10198000A735892B09F497C06CEE72E0C5010E945F
:10199000A735892B09F027CFC8010E9467358093AE
:1019A0003D080E94D42979CF8AE592E00E9415264D
:1019B00081E292E00E9415268091B3069091B406D0
:1019C000892B09F06EC087E295E00E9415268BE115
:1019D00092E00E9415260E940A268FEF9FEF0F903B
:1019E0000F900F900F90DF91CF911F910F91FF906B
:1019F000EF90DF90CF90BF90AF909F908F907F90AF
:101A00006F905F904F903F902F90089580E40E94D8
:101A1000F6258091B3069091B4060E94F02848CF35
:101A200080E40E94F6258091B3069091B4060E944E
:101A3000F028C5CE8091AF069091B006A091B10676
:101A4000B091B206CC96A11DB11D8093E90590938B
:101A5000EA05A093EB05B093EC051092E6068091A1
:101A6000B3069091B4069093E8058093E705F1E002
:101A7000F093E50682E992E00E9415260ECF40E140
:101A800050E060E070E0C8010E94723460933E084C
:101A900070933F0880934008909341080E94D42996
:101AA000FCCE80E40E94F6258091B3069091B406A6
:101AB0000E94F02888CF4AE050E060E070E0C80162
:101AC0000E9472346093250870932608809327083B
:101AD000909328080E94D429E0CE40E150E060E0D5
:101AE00070E0C8010E9472348C012227332700382D
:101AF00009F05ECF892E9924AA24BB2489288A283C
:101B00008B2809F41DCF54CFF80101900020E9F78C
:101B10003197E01BF10BE031F10508F045CEAF0144
:101B20004F5F5F4FB80182E498E00E9493350E94B6
:101B3000D429B3CE81E792E00E94152639CFF8016F
:101B400080818D3209F482C1282F60E070E0CB01E2
:101B5000412C512CF0E86F2EFFE37F2E222309F455
:101B60005FC00F5F1F4F622F812C912C54011A828E
:101B7000198232C070E01B01F0E32F1A31082AE00D
:101B80002216310420F589819A81892B51F020E0B9
:101B900030E040E251E4C301B2010E9488302B01E1
:101BA0003C0120E030E040E251E4C501B4010E9474
:101BB00078324B015C01B101330C880B990B0E9408
:101BC0003231A50194010E9417304B015C01F801EC
:101BD00061918F016623F1F06E3261F6E1E0F0E091
:101BE000FA83E983F4CF6CE775E0C8010E94A7355A
:101BF000892B19F511E010933A084DCE6CE775E08A
:101C0000C8010E94A735892B09F076C021E02093F6
:101C10003B0841CEA3019201C501B4010E94783274
:101C20006093290870932A0880932B0890932C08BE
:101C30000E9429230E94D42930CE64E073E0C801B9
:101C40000E94A735892B09F0AFCD10923A0823CE18
:101C5000F80180818D3209F423C1282F60E070E003
:101C6000CB01212C312C50E8452E5FE3552E222349
:101C700009F453C00F5F1F4F622F812C912C540128
:101C80001A82198232C070E03B01F0E36F1A7108CA
:101C90002AE06216710420F589819A81892B51F01E
:101CA00020E030E040E251E4C201B1010E948830FE
:101CB0001B012C0120E030E040E251E4C501B401F9
:101CC0000E9478324B015C01B301770C880B990BB1
:101CD0000E943231A50194010E9417304B015C0132
:101CE000F80161918F01662391F06E3261F6E1E0B7
:101CF000F0E0FA83E983F4CF64E073E0C8010E9466
:101D0000A735892B09F050CD10923B08C4CDA20114
:101D10009101C501B4010E94783260932D0870933F
:101D20002E0880932F08909330080E9429230E9448
:101D3000D429B3CDF80180818D3209F4BFC0282F9A
:101D400060E070E0CB01412C512C30E8632E3FE382
:101D5000732E222309F448C01801FFEF2F1A3F0AFF
:101D6000622F812C912C54011A82198230C070E0AC
:101D70008B01005311090A30110520F529813A81A0
:101D8000232B51F020E030E040E251E4C301B201E6
:101D90000E9488302B013C0120E030E040E251E419
:101DA000C501B4010E9478324B015C01B801110FEA
:101DB000880B990B0E943231A50194010E941730C3
:101DC0004B015C01F10161911F01662339F06E3214
:101DD00071F601E010E01A830983F4CFA3019201A8
:101DE000C501B4010E9478326093310870933208C3
:101DF00080933308909334080E9429230E94D429A9
:101E00004CCD87EB91E00E9415268091B30690910E
:101E1000B406892B49F080E40E94F6258091B30630
:101E20009091B4060E94F0288AE30E94F6258FEB79
:101E300091E00E94152687E295E00E941526C501D3
:101E40000E9415268AE00E94F62575CC21810F5F3D
:101E50001F4F60E070E080E090E8412C512CA0E83A
:101E60006A2EAFEB7A2E7ACE87EB91E00E94152690
:101E70008091B3069091B406892B71F58AE30E9494
:101E8000F6258FEB91E00E94152687E295E00E94EF
:101E90001526C5010E9415268AE00E94F625F9CC78
:101EA00021810F5F1F4F60E070E080E090E8212CFF
:101EB000312CE0E84E2EEFEB5E2ED9CE21810F5F64
:101EC0001F4F60E070E080E090E8412C512C40E82A
:101ED000642E4FEB742E3DCF80E40E94F625809156
:101EE000B3069091B4060E94F028C8CF0E94002645
:101EF0008F3F2FEF9207D9F08D309105D9F08A30BE
:101F00009105C1F08830910509F441C082329105F4
:101F1000B1F02091ED05222301F1CB9739F7109212
:101F2000ED050E9400268F3F2FEF920729F780E0F2
:101F300090E008951092710610927006D7CF20910C
:101F40007006309171062F5F3F4F309371062093DA
:101F500070062091ED052111C9CF20916E063091B8
:101F60006F062F37310584F54091700640FD03C0A0
:101F70008B339105B9F1A9014F5F5F4F50936F0605
:101F800040936E06F901E251FA4F8083AFCF809102
:101F90006E0690916F06009709F4A8CF0197909371
:101FA0006F0680936E06FC01E251FA4F8081823207
:101FB00009F09CCF809170069091710601979093E3
:101FC00071068093700692CF81E08093ED0580E0EA
:101FD00090E010926F0610926E06109271061092A9
:101FE000700608952115310539F0F901E251FA4FD3
:101FF00010828EEE95E0EDCF80E090E0EACFEF9298
:10200000FF920F931F93CF93DF93EC011092B406CE
:102010001092B30600E010E08881803241F4DE01C6
:10202000FE013196EF011D9281918032D9F3882310
:1020300009F487C07801EE0CFF1CEE0CFF1CF701C1
:10204000E554F94FD183C0838881982F9F7D61F03B
:102050008D33E9F0FE01319602C08D33C1F0EF01FE
:102060008191982F9F7DC9F7F701E554F94F1382AD
:1020700012820F5F1F4F0A30110571F68FEF9FEF2D
:10208000DF91CF911F910F91FF90EF9008951882EB
:1020900089818B3399F3803289F38232B9F18823B5
:1020A00069F3FE013196D701A554B94F1396FC93FD
:1020B000EE9312978981882371F08032F1F18D338C
:1020C000E1F1229604C08032C1F18D33B1F1FE01FD
:1020D00089918111F8CFEF01C7018554994F7C0197
:1020E00063E473E0FC01808191810E94A735892B14
:1020F00009F0BFCFF701828193810E9467359093E9
:10210000B4068093B30601501109B3CFCE010296F5
:102110002A81222309F4B2CFF701E554F94F9383C2
:10212000828362E270E00E949C35EC01892B09F405
:10213000A5CF8881882381F2FE01EF0121961082CC
:10214000CBCFC801DF91CF911F910F91FF90EF90FE
:10215000089581E292E00E9415268091B306909145
:10216000B406892B69F487E295E00E9415268BE17D
:1021700092E00E9415260E940A268FEF9FEF089595
:1021800080E40E94F6258091B3069091B4060E94E7
:10219000F028E9CF0F931F93CF93DF93009731F58A
:1021A0008091E9059091EA05A091EB05B091EC05CD
:1021B0000097A105B105A1F04091AF065091B0067E
:1021C0006091B1067091B20684179507A607B7070C
:1021D00008F481C08091E606982F907F903879F1BD
:1021E00080E0DF91CF911F910F9108954091AF064C
:1021F0005091B0066091B1067091B2068A019B01C0
:10220000080F191F211D311D0093E9051093EA05E0
:102210002093EB053093EC051092E6068091B3060F
:102220009091B4069093E8058093E70581E0809350
:10223000E50680E0DF91CF911F910F91089590E026
:10224000A0E0B0E0DC01992788272091E806822BE6
:102250004091E70650E0542F442760E070E0842B63
:10226000952BA62BB72BA093B5069093B60680931B
:10227000B7068093210890932208A0932308B09377
:1022800024081092E9051092EA051092EB051092CD
:10229000EC058AE693E00E94152681E292E00E9416
:1022A00015268091B3069091B406892B09F04AC097
:1022B0008AE30E94F6258FE893E00E94152687E2C4
:1022C00095E00E9415260E940A260E94D4291092A9
:1022D000E50681E086CFC091B306D091B406109296
:1022E000E9051092EA051092EB051092EC0587E4DF
:1022F00093E00E9415268091E7059091E805909360
:10230000B4068093B30681E292E00E941526809184
:10231000B3069091B406892BF9F48AE30E94F6255E
:102320008CE593E00E94152687E295E00E94152631
:102330000E940A26D093B406C093B3061092E50615
:1023400080E04FCF80E40E94F6258091B306909103
:10235000B4060E94F028ACCF80E40E94F62580915C
:10236000B3069091B4060E94F028D7CF4F925F92A7
:102370006F927F928F929F92AF92BF92CF92DF9295
:10238000EF92FF920F931F93CF93DF9300D01F9292
:10239000CDB7DEB77C015B014A011B82452B09F4F6
:1023A000A9C0FC01808120E030E0882309F45BC0F3
:1023B00000E010E055245A949FE0492E1EC0F5011C
:1023C000E20FF31F50826801FFEFCF1ADF0AC81433
:1023D000D90408F04CC0F501EC0DFD1D40828FEFD3
:1023E000E81AF80A86010F5F1F4F980108151905B2
:1023F000D0F5F70180818823B1F18B3209F44CC00C
:102400008D32E9F28983F70181818A836801FFEFC8
:10241000CF1ADF0AC814D90450F5CE0101960E94E4
:1024200067350E94E21FF501EC0DFD1D8083F70169
:10243000828189833701F4E06F0E711CF70183817B
:102440008A830A0D1B1DCE0101960E9467350E94EA
:10245000E21FF8018083730186010F5F1F4F98010F
:102460000815190530F281E08216930609F080E024
:102470000F900F900F90DF91CF911F910F91FF90D0
:10248000EF90DF90CF90BF90AF909F908F907F9014
:102490006F905F904F9008950430110544F3C80188
:1024A00004968816990618F3D501A20FB31FFD01F3
:1024B000349780818C93F8013196EA0DFB1DDF0182
:1024C00014978C918083F8013296EA0DFB1DDF0191
:1024D00014978C9180836801E3E0CE0ED11CF50146
:1024E000EC0DFD1DDF0114978C918083FFEFEF1A37
:1024F000FF0A78CF20E030E0B6CF2F923F924F9284
:102500005F926F927F928F929F92AF92BF92CF9283
:10251000DF92EF92FF920F931F93CF93DF93CDB78C
:10252000DEB7A8970FB6F894DEBF0FBECDBFFC0193
:102530004B012FEF29839FE09A832B839C832D836C
:102540009E832F83988729879A872B879C872D873F
:102550009E872F87988B298B9A8B2B8B9C8B2D8B0F
:102560009E8B2F8B988F298F9A8F2B8F9C8F2D8FDF
:102570009E8F2F8F98A3623071050CF466C2E480A1
:10258000F580A680B780E114F10409F4ECC08F0156
:10259000312C18A6FEEFFFA319A2212C1BA21CA20E
:1025A0001DA21EA2612C712C1AA2512C412CCC24EC
:1025B000C394D12C21C0A114B10409F4B7C04CE1DB
:1025C00050E0BE016F5F7F4FC5010E94B611582ECB
:1025D0004FEFC41AD40A8C149D0481F1D8011896C7
:1025E000ED90FC9019970C5F1F4FF801A680B78003
:1025F000E114F10409F4B7C067E973E0C7010E9470
:10260000A735892BC1F26EE973E0C7010E94A73597
:10261000892B09F046C0A114B10409F487C044E035
:1026200050E0BE01635E7F4FC5010E94B611482E87
:102630004FEFC41AD40A8C149D0481F66BA17CA1BF
:102640008DA19EA1672B682B692B09F4EDC0209109
:10265000E105822F90E0A0E0B0E0DC019927882717
:102660003091E305832B4091E20550E0542F44273D
:1026700060E070E0842B952BA62BB72B4BA15CA1BF
:102680006DA17EA1481759076A077B0709F44BC162
:1026900081EE95E00E948D232091E10501EE15E089
:1026A000C7C064EA73E0C7010E94A735892B59F4BB
:1026B000A114B10409F4ACC0C5010E9467353C0106
:1026C00021E02AA385CF6AEA73E0C7010E94A735FB
:1026D000892B91F4A114B10441F0D5018C91803380
:1026E00009F48FC0813309F073CF79A1716079A3A8
:1026F000822D8160282E6CCF61EB73E0C7010E94B0
:10270000A735892B09F04AC0A114B10441F0F501A5
:102710008081803309F481C0813309F059CF99A1B8
:10272000906899A3A22DA0682A2E52CF81E292E050
:102730000E9415268091B3069091B406892B49F02A
:1027400080E40E94F6258091B3069091B4060E9421
:10275000F02887E295E00E9415268BE192E00E9426
:1027600015260E940A268FEF9FEFA8960FB6F894C1
:10277000DEBF0FBECDBFDF91CF911F910F91FF90B4
:10278000EF90DF90CF90BF90AF909F908F907F9011
:102790006F905F904F903F902F9008956AEB73E099
:1027A000C7010E94A735892B79F4A114B10409F45B
:1027B000F0C0D5018C91803309F45FC0813309F0FA
:1027C000B5C0F1E0FFA304CF69E172E0C7010E9448
:1027D000A735892B09F441C061E074E0C7010E946C
:1027E000A735892B09F0BBC0A114B10409F4CEC0F0
:1027F000C5010E9467358830910508F0C7C0382EA2
:10280000E7CE39A1316039A3422D4E7F242EE0CE90
:10281000612C712C31E03AA3DBCE59A1506859A349
:10282000622D6F77262ED4CE2091B50605EB16E0EB
:10283000207F203809F462C0D80114968C918F60F3
:10284000F8018483C8010E94AD2381E00E940A162A
:10285000811115C080E090E088CFA114B10409F483
:102860009BC040E150E060E070E0C5010E945C3335
:102870006BA37CA38DA39EA3ABCE1FA2A9CE8DEE8E
:1028800096E00E948B1DFFA1F13009F4A2C0511007
:1028900096C041108CC02AA1211183C060E08DEE4A
:1028A00096E00E94A61E49A1622D8DEE96E00E9440
:1028B000121FB8018DEE96E00E94B51FC8010E945C
:1028C0000A058823B1F181E292E00E9415268091E9
:1028D000B3069091B406892B09F091C087E295E088
:1028E0000E94152684E993E00E9415260E940A267C
:1028F00080E00E940A1680E090E037CFF8018481E2
:10290000282F2F70F0E13F9EC0011124822BD801A7
:1029100013969C911397292F207F98A59F70922B37
:1029200013969C938CCF01EE15E082CFBFEFBFA32F
:102930004FCE81E292E00E9415268091B3069091DD
:10294000B406892B09F051C087E295E00E94152654
:102950008BE192E00E9415260E940A26C9CF6FEAF9
:1029600073E0C7010E94A735892B09F052C0A1145A
:10297000B10461F0C5010E9467358830910530F4DB
:10298000009729F127E0280F28A722CE0E94A9103E
:10299000ECCEE1E0EFA31CCE1BA21CA21DA21EA246
:1029A00017CEB3018DEE96E00E94B21F77CFBE0125
:1029B000635E7F4F8DEE96E00E94A51F6CCFBE0137
:1029C0006F5F7F4F8DEE96E00E94741F62CF18A656
:1029D000FFCD61E08DEE96E00E94A61E49A1622D1A
:1029E0008DEE96E00E94121F69CF80E40E94F625CA
:1029F0008091B3069091B4060E94F028A5CF80E4A0
:102A00000E94F6258091B3069091B4060E94F028AA
:102A100065CF87EB91E00E9415268091B3069091D7
:102A2000B406892B11F58AE30E94F6258FEB91E01D
:102A30000E94152687E295E00E941526C7010E9494
:102A400015268AE00E94F625C3CD2091B506312CCB
:102A500018A6412C19A2212C1AA2612C712C512CE0
:102A60003EEF3FA305EB16E0E3CE80E40E94F6259F
:102A70008091B3069091B4060E94F028D4CF0F93B2
:102A80001F93CF93DF930E94760FEC01892B09F4FB
:102A90004BC00E940A26CE010E94FF0F8C0197FDB9
:102AA00053C00E940A20892B09F093C0C091BB0635
:102AB000D091BC066091000170910101CE010E948D
:102AC000A735892B09F466C0609106017091070152
:102AD000CE010E94A735892B09F46FC060910C01CB
:102AE00070910D01CE010E94A735892B09F468C0B1
:102AF0006091120170911301CE010E94A735892BBC
:102B000009F461C06091180170911901CE010E9411
:102B1000A735892B09F45AC08AE393E0DF91CF915E
:102B20001F910F910C9415268091DA05811107C031
:102B30008AE393E00E94152681E08093DA05DF9115
:102B4000CF911F910F91089581E292E00E94152686
:102B50008091B3069091B406892B91F487E295E0B9
:102B60000E9415268BE192E00E9415260E940A26FB
:102B70008AE393E0DF91CF911F910F910C9415267A
:102B800080E40E94F6258091B3069091B4060E94DD
:102B9000F028E4CF80E090E0FC01EE0FFF1FE80F8B
:102BA000F91FEE0FFF1FE050FF4F0280F381E02D71
:102BB000B8018BEB96E00995AFCF81E090E0ECCFC8
:102BC00082E090E0E9CF83E090E0E6CF84E090E01F
:102BD000E3CF0E940D2081E292E00E9415268091B1
:102BE000B3069091B406892B59F487E295E00E94D0
:102BF000152683EC93E00E9415260E940A268CCFAE
:102C000080E40E94F6258091B3069091B4060E945C
:102C1000F028EBCF8823A1F0809192068F5F8093FC
:102C2000920604C080913A08813041F484E690E035
:102C30000E94A42B809191068823A1F381E008953E
:102C40008091920681508093920681E008951092BF
:102C50008E0610928D0610928F061092900610929A
:102C6000880610927A06109279061092EC0610925D
:102C700078061092770686E090E09093760680932F
:102C800075060895EF92FF920F931F93CF93DF93F2
:102C90000E94DC298093800690917F06891709F4B1
:102CA00082C0811161C09FEF9093870680937F0659
:102CB0002091EC06211109C02091A606211105C022
:102CC00020919106222309F470C08091850690918D
:102CD000860620919206222309F448C0209191068D
:102CE00021111AC010928E0610928D0610928F0636
:102CF000109290061092880610927A061092790629
:102D00001092EC06109278061092770626E030E0DA
:102D1000309376062093750621E020939106019664
:102D2000909386068093850680918006882309F11A
:102D300080918306909184060196909384068093F7
:102D400083068091870618160CF51092860610925D
:102D500085061092840610928306DF91CF911F9111
:102D60000F91FF90EF90089591E09ECF1092910601
:102D7000D6CF80918106909182060196909382062B
:102D800080938106809187061816FCF2882329F328
:102D90001092820610928106DF91CF911F910F91C0
:102DA000FF90EF90089590E07FCF40917B06509187
:102DB0007C0660917D0670917E0641155105610586
:102DC000710509F44BC041505109610971094093E3
:102DD0007B0650937C0660937D0670937E06452BA0
:102DE000462B472BD9F510928E0610928D06109225
:102DF0008F06109290061092880610927A06109212
:102E000079061092EC06109278061092770626E06A
:102E100030E03093760620937506913009F055CF57
:102E2000209188068091850690918606AC01273016
:102E30000CF0F8C04C5051094D31510508F049CF04
:102E40004091830650918406445051094131510507
:102E500008F03FCF2F5F209388063BCF81111FC022
:102E600080919006882309F440C19F3F09F491C0E6
:102E700090918806973009F028CF21E0280F28315B
:102E8000B8F01092900680918F068F5F8A30B8F468
:102E900080938F0680918506909186061ACF2091A7
:102EA000810630918206213F310508F09CCFD8CFB2
:102EB0008091850690918606209390060ACF109205
:102EC0008F0620918D0630918E0620FDC0C0809126
:102ED00075069091760640917706509178062F5F9F
:102EE0003F4F30938E0620938D064817590708F4FC
:102EF000ECCE8F30910509F474C0883A910509F43D
:102F00006CC0069709F0E1CE8091790690917A061F
:102F1000892B01F58091ED0691E0811190E02091DF
:102F2000EE06820F211190E02091EF06820F211111
:102F300090E02091F006820F211190E02091F1069F
:102F4000820F211102C0911105C09091F2068917DC
:102F500009F4D0C010928E0610928D0610928F0642
:102F6000109290061092880610927A0610927906B6
:102F70001092EC06109278061092770686E090E0A8
:102F800090937606809375068091850690918606CB
:102F9000A0CE2091830630918406E0918D06F091B9
:102FA0008E06E170FF27EE0FFF1FE757F94F2C3019
:102FB000310530F521E030E0A90100908F0602C014
:102FC000440F551F0A94E2F720813181242B352BC1
:102FD00031832083909188064DCF83E08093EC0667
:102FE00074CE8091F90687FD92C088EA90E09093B4
:102FF000760680937506809185069091860669CE47
:1030000021E030E000908F0602C0220F331F0A94A7
:10301000E2F7209530954081518124233523318377
:10302000208326CF4C5351094D33510508F051CE22
:103030004091830650918406445051094531510511
:1030400008F047CE273009F044CE21E035CFC091BB
:103050007706D0917806C351D94F00918906109117
:103060008A067801FF24802F0E94D41F811162C03C
:1030700080E092E08E299F290817190709F45DC0A6
:1030800000918B0610918C067801FF24802F0E94FE
:10309000D41F882309F465C080E093E08E299F291E
:1030A0000817190709F460C087E7888380917906BB
:1030B00090917A06019690937A06809379064091D2
:1030C0007706509178068091750690917606841760
:1030D000950728F520918D0630918E062F5F3F4F82
:1030E00030938E0620938D0604CF20918F062111F8
:1030F000BCCE93CE8091F1068F708F3011F181E0BC
:103100008093EC068091850690918606E2CD82E060
:103110008093EC068091850690918606DACD4F5F0C
:103120005F4F509378064093770620918D0630913B
:103130008E06D5CE80E090E09DCF80918906888371
:10314000BECF8091ED06807F8038C9F68FE090E099
:1031500090937606809375068091850690918606F9
:10316000B8CD80E091E09ACF80918B068883A7CF7D
:103170000F931F93CF93DF938091A606811105C013
:10318000DF91CF911F910F91089590917306911146
:103190001FC020919006223008F47DC01092740662
:1031A0002F5F263008F44DC01092900620918F06B4
:1031B0002F5F233008F484C010928F06982F80E090
:1031C00090937306DF91CF911F910F910C94E12999
:1031D00080917206811139C09091900681E0923001
:1031E00008F080E0809374069F5F943000F11092A5
:1031F000900690918F069F5F973008F455C010920B
:103200008F0681E0809372068091ED06C82FD0E092
:103210000E94D41F81114BC080E092E08C2B9D2B2B
:1032200090938A068093890680917406CBCF909301
:10323000900610927206DF91CF911F910F910C941E
:10324000E12980E020939006BBCF20918F06422F8A
:1032500050E0435051099091900657FD2BC0923099
:1032600090F0943058F561E070E002C0660F771F6F
:103270004A95E2F74091890650918A0646235723E2
:1032800081E0452BD9F4809374069F5F9630E0F47B
:103290009093900697CF30918F0631117FCF31E018
:1032A000309374062F5FCECF90938F06C2CF80E00D
:1032B00090E0B4CF211102C0923028F380E0E3CF38
:1032C00020938F0680E07CCF109290062F5F2D30E8
:1032D00018F420938F0676CF10928F06C0918D063A
:1032E000D0918E062196D0938E06C0938D062091A4
:1032F000AD063091AE06C217D307D8F010928E06F5
:1033000010928D0610927206109273060E94E129A7
:103310001092A60610928E0610928D0610928F06BD
:103320001092900680E0DF91CF911F910F910C9445
:10333000E129FE01F695E795E351F94F8081082FC9
:1033400010E00E94D41FC0FF0DC0882381F080E0F0
:1033500093E0802B912B90938A068093890680912D
:10336000740630CF811106C080E092E0F2CF80E099
:1033700091E0EFCF80E090E0ECCFCF93DF93FC01C2
:1033800090818181980F8281980F8381980F848129
:10339000890F95818913C6C1880F613009F4C6C1B0
:1033A0009681980F2781920F2085920F2185920F89
:1033B0008285980F8385980F8485980F8585980F4F
:1033C00086859813AFC1990F623009F4AFC1278584
:1033D0008089280F8189280F8289280F8389280FE7
:1033E0008489280F8589280F8689280F920F87895D
:1033F000981398C1208D818D820F228D820F238D8D
:10340000820F248D820F258D820F268D820F378D9E
:10341000830F890F292F280F80A1281383C191A121
:1034200082A1890F93A1890F94A1890F95A1890F7A
:1034300096A1890F97A1890F90A5890F820F982FC8
:10344000920F81A598136EC122A583A5820F24A592
:10345000820F25A5820F26A5820F27A5820F20A9FE
:10346000820F21A9820F890F890F92A989135AC14E
:1034700024A993A9920F25A9920F26A9920F27A9F3
:10348000920F20AD920F21AD920F22AD920F980FA7
:10349000890F23AD281346C195AD84AD890F96AD34
:1034A000890F97AD890FDF01A05CBF4F9C91890FF9
:1034B00011969C91890F11969C91890F11969C9160
:1034C000890F820F820F11969C9198132BC112962F
:1034D0002C9111979C91920F12962C91920F11960C
:1034E0002C91920F11962C91920F11962C91920F74
:1034F00011962C91920F11962C91920F980F890F83
:1035000011964C9148130EC112969C9111978C9173
:10351000890F12969C91890F11969C91890F119693
:103520009C91890F11969C91890F11969C91890FFE
:1035300011969C91890F840F480F11969C919413BA
:10354000F1C011968C9111964C91840F11964C916B
:10355000840F11964C91840F11964C91840F119603
:103560004C91840F11964C91840F11964C91840FBD
:10357000890F292F280F11968C912813D3C01196EB
:103580009C9111968C91890F11969C91890F11969F
:103590009C91890F11969C91890F11969C91890F8E
:1035A00011969C91890F11969C91890F820F922FF1
:1035B000980F11968C919813B5C011963C91119665
:1035C0008C91380F11968C91380F11968C91380F81
:1035D00011968C91380F11968C91380F11968C9111
:1035E000380F11968C91380F390F892F830F119650
:1035F0009C91891397C011962C9111969C91290F3B
:1036000011969C91290F11969C91290F11969C91CE
:10361000290F11969C91290F11969C91290F1196B3
:103620009C91290F280F382F320F11968C91381347
:1036300079C011969C9111968C91980F11968C914E
:10364000980F11968C91980F11968C91980F119656
:103650008C91980F11968C91980F11968C91980FD0
:10366000930F232F290F11968C9128135BC011966D
:103670009C9111968C91890F11969C91890F1196AE
:103680009C91890F11969C91890F11969C91890F9D
:1036900011969C91890F11969C91890F820F922F00
:1036A000980F11968C9198133DC011962C911196FC
:1036B0008C91820F11962C91820F11962C91820F72
:1036C00011962C91820F11962C91820F11962C91AC
:1036D000820F11962C91820F890F890F11969C9160
:1036E000891320C0EF01CA56DF4F129628819C91A2
:1036F000920F11962C91920F11962C91920F119678
:103700002C91920F11962C91920F11962C91920F51
:1037100011962C91920F980F980FE256FF4F81E06F
:103720002081921380E0DF91CF91089581E0DF91B5
:10373000CF910895CF93DF93FC0190818181980F01
:103740008281980F8381980F8481890F8583880FE8
:10375000613009F49EC19681980F2781920F2085D0
:10376000920F2185920F8285980F8385980F84850B
:10377000980F8585980F9687990F623009F489C153
:1037800037858089380F8189380F8289380F83897E
:10379000380F8489380F8589380F8689380F390F9B
:1037A000378B908D818D890F928D890F938D890F25
:1037B000948D890F958D890F968D890F478D840F74
:1037C000830F932F980F90A331A182A1380F83A16B
:1037D000380F84A1380F85A1380F86A1380F87A133
:1037E000380F80A5380F390F832F890F81A722A5A5
:1037F00093A5290F94A5290F95A5290F96A5290F03
:1038000097A5290F90A9290F91A9290F280F322FC9
:10381000380F32AB93A984A9980F85A9980F86A970
:10382000980F87A9980F80AD980F81AD980F82AD42
:10383000980F930F292F230F23AF95AD84AD890FD8
:1038400096AD890F97AD890FDF01A05CBF4F9C91AA
:10385000890F11969C91890F11969C91890F119651
:103860009C91890F820F982F920F11969C93EF01D4
:10387000CA5BDF4F119628818C91820F12962C9192
:10388000820F11962C91820F11962C91820F119616
:103890002C91820F11962C91820F11962C91820FF0
:1038A000890F890F11968C932996119628819C91E6
:1038B000920F12962C91920F11962C91920F1196B5
:1038C0002C91920F11962C91920F11962C91920F90
:1038D00011962C91920F980F890F11968C9329961F
:1038E000119628819C91920F12962C91920F11960D
:1038F0002C91920F11962C91920F11962C91920F60
:1039000011962C91920F11962C91920F980F890F6E
:1039100011968C932896129628819C91920F11965D
:103920002C91920F11962C91920F11962C91920F2F
:1039300011962C91920F11962C91920F11962C9119
:10394000920F980F890F11968C93299612962881C1
:103950009C91920F11962C91920F11962C91920F8F
:1039600011962C91920F11962C91920F11962C91E9
:10397000920F11962C91920F980F890F11968C939C
:103980002996129628819C91920F11962C91920F54
:1039900011962C91920F11962C91920F11962C91B9
:1039A000920F11962C91920F11962C91920F980FC5
:1039B000890F11968C932996129628819C91920FCB
:1039C00011962C91920F11962C91920F11962C9189
:1039D000920F11962C91920F11962C91920F119695
:1039E0002C91920F980F282F290F11962C9329961E
:1039F000129698818C91890F11969C91890F11963E
:103A00009C91890F11969C91890F11969C91890F19
:103A100011969C91890F11969C91890F820F280F06
:103A200011962C932996129698818C91890F119654
:103A30009C91890F11969C91890F11969C91890FE9
:103A400011969C91890F11969C91890F11969C91CA
:103A5000890F820F820F11968C93299612962881D6
:103A60009C91920F11962C91920F11962C91920F7E
:103A700011962C91920F11962C91920F11962C91D8
:103A8000920F11962C91920F980FE256FF4F890FCB
:103A90008083DF91CF9108950F931F93CF93DF938E
:103AA000EC01162F0E947E248EEF810F823028F0C9
:103AB000DF91CF911F910F9108952696123039F121
:103AC00060E002E110E080913D088530C8F0C80157
:103AD000880F991F880F991F880F991F080F191FAA
:103AE0000C0F1D1F69E070E0CE010E948A29299603
:103AF000C017D107B9F7DF91CF911F910F910895AA
:103B0000CE01DF91CF911F910F910C94932461E02E
:103B100001E010E0D8CFCF93DF93FC01DC011696D3
:103B200088E0ED0119928A95E9F79FEF97878FE07A
:103B3000808B918B828B938B848B958B868B908FD4
:103B4000818F928F838F948F858F968F878F91A38C
:103B500082A393A384A395A386A397A380A792A7E8
:103B600083A794A785A796A787A790AB81AB93ABB4
:103B700084AB95AB86AB97AB80AF91AF82AF94AF80
:103B800085AF96AF87AFDA969C9311968C9311967A
:103B90009C9311968C9312969C9311968C931197EB
:103BA00012969C93129713968C93139714969C934A
:103BB000149715968C93159716969C9316971796AF
:103BC0008C93179719969C9311968C931197129634
:103BD0009C93129713968C93139714969C93149717
:103BE00015968C93159716969C93169717968C930B
:103BF000179719969C9311968C93119712969C93F4
:103C0000129713968C93139714969C93149715966A
:103C10008C93159716969C93169717968C931797D7
:103C200019969C9311968C93119712969C931297C8
:103C300013968C93139714969C93149715968C93C4
:103C4000159716969C93169717968C931797199617
:103C50009C9311968C93119712969C93129713969E
:103C60008C93139714969C93149715968C93159791
:103C700016969C93169717968C93179719969C9364
:103C800011968C93119712969C93129713968C937E
:103C9000139714969C93149715968C9315971696D4
:103CA0009C93169717968C93179719969C93119639
:103CB0008C93119712969C93129713968C9313974B
:103CC00014969C93149715968C93159716969C931F
:103CD000169717968C93179719969C9311968C9319
:103CE000119712969C93129713968C931397149690
:103CF0009C93149715968C93159716969C931697EC
:103D000017968C93179719969C9311968C931197ED
:103D100012969C93129713968C93139714969C93D8
:103D2000149715968C93159716969C93169717963D
:103D30008C93EA56FF4F908381839283838394838D
:103D4000858396838783DF91CF910895DF92EF92E9
:103D5000FF920F931F93CF93DF9300D000D0CDB786
:103D6000DEB78C01D62E80E090E00E94312C698372
:103D70007A838B839C83CE0101960E94422C7C0126
:103D8000FC0180810E94E21FF8018683F701818196
:103D90000E94E21FF8018783F70182810E94E21FDF
:103DA000F8018087F70183810E94E21FF801828772
:103DB000F70185818F5F0E94E21FF8018387DD2074
:103DC00051F187E820E8F7019481992311F0892FB8
:103DD000822BF801848781E090E0F701048002C023
:103DE000880F991F0A94E2F7F8018187F70182850D
:103DF0009385F801892B91F485858B7F85870F90BA
:103E00000F900F900F90DF91CF911F910F91FF9026
:103E1000EF90DF90089587E020E0D5CF858584601E
:103E20008587EDCFFC0140FF05C0858560FF59C047
:103E300081608587942F9695262F269590FF05C043
:103E4000858520FF4BC0826085879695269590FFDB
:103E500005C0858520FF3FC084608587969526959F
:103E600090FF05C0858520FF33C0886085879695C3
:103E7000269590FF05C0858520FF27C08061858736
:103E80009695269590FF05C0858520FF1BC0806212
:103E900085879695269590FF05C0858520FF0FC0E4
:103EA0008064858796952695992341F08585222300
:103EB00019F08068858708958F77858708958F7BAF
:103EC0008587F0CF8F7D8587E4CF8F7E8587D8CF9C
:103ED000877F8587CCCF8B7F8587C0CF8D7F858778
:103EE000B4CF8E7F8587A6CFCF93DF93EC01FB0104
:103EF000808191819C8B8B8B828193819E8B8D8B1A
:103F0000DE015896349688E001900D928A95E1F78B
:103F1000DE019196FB013C9688E001900D928A9516
:103F2000E1F7FB01848995899BA78AA786899789F0
:103F30009DA78CA7808D918D988B8F87828D938D77
:103F40009A8B898BDF91CF910895FB01208131817C
:103F5000FC0137A726A7FB0122813381FC0131AB8D
:103F600020AB0895C3960C945305FB01DC01A156C8
:103F7000BF4F1C92208111962C93218111962C9376
:103F80002281FC01EE55FF4F2083319623E52083EB
:103F900031961082319620E12083319621E12083F1
:103FA000319625E020830895982F92959F70892758
:103FB000982F969596958927982F9695892780957D
:103FC000817008956AE070E090E00E947B2F9B0171
:103FD00022953295307F3227207F32278F70822BB7
:103FE00008956AE070E090E00E947B2FAC01693098
:103FF000710549F0262F2295207F4930510539F06F
:104000008F70822B089520EF49305105C9F78FE05A
:10401000822B089580919A06089580919A068111C5
:1040200001C0089582E08093A00680919F06807F62
:10403000836080939F068BE996E00E94AD2304C0C5
:104040008BE996E00E94AD238BE996E00E94B204D2
:104050008111F6CF8EE094E00E941526109298060A
:104060001092990610929A0680E00C940A160F930B
:104070001F93CF938C0180919A06882359F182E097
:104080008093A00680919F06807F836080939F0627
:104090008BE996E00E94AD2304C08BE996E00E9474
:1040A000AD238BE996E00E94B204C82F8111F5CFB1
:1040B0008EE094E00E9415261092980610929906C0
:1040C00010929A0680E00E940A168C2FCF911F91C1
:1040D0000F9108950E94EB29C82F81114DC0F8015E
:1040E0008081807F8038A1F184818F70843009F4D1
:1040F00049C0853051F78AE0809397068EE394E0BB
:104100000E94152686E0F801ABE9B6E001900D9219
:104110008A95E1F781E080939A060E940A168091C1
:10412000AF069091B006A091B106B091B2064E963E
:10413000A11DB11D8093930690939406A0939506BC
:10414000B0939606C1E08C2FCF911F910F910895E7
:10415000F80183818F7090E00897079708F0B5CF3A
:104160008481282F22952F7030E02150310927308B
:10417000310508F4BACFA9CF8BE194E00E9415264F
:10418000C0E0A3CF89E080939706B8CFCF9380910A
:104190009A06882321F08091A606882311F0CF91FA
:1041A00008950E94EB29811145C0C0E00E94EB29CF
:1041B000882329F0809197068A3009F467C080919E
:1041C000990681113EC080919806811144C0C09328
:1041D0009906C111AEC010929806809193069091F5
:1041E0009406A0919506B09196064091AF06509125
:1041F000B0066091B1067091B20684179507A607C4
:10420000B70790F04091AF065091B0066091B106AB
:104210007091B206415E5F4F6F4F7F4F481759074D
:104220006A077B0708F0BBCF80919A068111A5C071
:1042300080E0B5CFC1E080919706893009F0B5CF15
:10424000B5CFC0939906CC2309F451C0809198064C
:10425000882309F4A4CF1092980682E08093A006E8
:1042600080919F06807F836080939F068BE996E014
:104270000E94AD2304C08BE996E00E94AD238BE938
:1042800096E00E94B2048111F6CF89CFCC2309F4C5
:104290008DC080919A06882359F282E08093A0060F
:1042A00080919F06807F836080939F068BE996E0D4
:1042B0000E94AD2304C08BE996E00E94AD238BE9F8
:1042C00096E00E94B2048111F6CF8EE094E00E9445
:1042D0001526109298061092990610929A0680E080
:1042E0000E940A1680E05BCF10929906C1E082E03E
:1042F0008093A00680919F06807F836080939F06B5
:104300008BE996E00E94AD2304C08BE996E00E9401
:10431000AD238BE996E00E94B2048111F6CF809123
:104320009806882309F43BCFC0939806C11137CF74
:1043300094CF1092A00680919F06807F8960809321
:104340009F068BE996E00E94AD238BE996E00E94E0
:10435000B2048091AF069091B006A091B106B091E1
:10436000B2064E96A11DB11D8093930690939406BC
:10437000A0939506B093960612CF82E08093A00694
:1043800080919F06807F836080939F068BE996E0F3
:104390000E94AD2304C08BE996E00E94AD238BE917
:1043A00096E00E94B2048111F6CF8FCF80919906DA
:1043B00081119ACF80919806882321F081E0809323
:1043C0009806EDCE1092990681E08093980610929F
:1043D000A00680919F06807F8A60B1CFFC0180811A
:1043E0009181A281B381B23C20F08058924AA149C8
:1043F000B44BBC01CD016059794A8D4E984D20E8EF
:104400003AE349E050E00E948F2FDA01C901880F9A
:10441000991FAA1FBB1F880F991FAA1FBB1F880FB8
:10442000991FAA1FBB1F821B930BA40BB50BBC01CA
:10443000CD01660F771F881F991F660F771F881F92
:10444000991F25EB35E040E050E00E948F2F683542
:10445000734018F480E19EE0089580E090E00895B4
:1044600080E19EE00895FC0180819181A281B38169
:10447000B23C20F08058924AA149B44BBC01CD0116
:104480006059794A8D4E984D20E83AE349E050E072
:104490000E948F2FDA01C901880F991FAA1FBB1F25
:1044A000880F991FAA1FBB1F880F991FAA1FBB1F28
:1044B000821B930BA40BB50BBC01CD01660F771FBC
:1044C000881F991F660F771F881F991F25EB35E0FE
:1044D00040E050E00E948F2F6835734018F480E16F
:1044E0009EE0089580E090E008950F931F93CF938E
:1044F000DF9300D000D0CDB7DEB78C0180E090E034
:104500000E94312C69837A838B839C83CE01019630
:104510000E94422CB8010E942B2E84E5F80182876C
:1045200081E00F900F900F900F90DF91CF911F912E
:104530000F9108950F931F93CF93DF93CDB7DEB7FD
:10454000A0970FB6F894DEBF0FBECDBFFC0101905F
:104550000020E9F79F01245131092817390761F03C
:1045600080E0A0960FB6F894DEBF0FBECDBFDF91FE
:10457000CF911F910F910895BC0143E150E0CE010E
:1045800001960E94B0351C8A8E010B5E1F4F8CE095
:10459000F80111928A95E9F76AE474E0CE01019678
:1045A0000E948E350097E1F20E9467358C56974045
:1045B0009C8F8B8F6AE474E080E090E00E948E35DF
:1045C000009771F20E94673581508A8F6CE474E025
:1045D00080E090E00E948E35009711F20E946735CE
:1045E000888F60E574E080E090E00E948E3500974F
:1045F00009F4B6CF0E9467358F8B60E574E080E0E8
:1046000090E00E948E35009709F4AACF0E9467358A
:104610008E8B6EE171E080E090E00E948E35009715
:1046200009F49ECF0E9467358D8B8FEF9FEF98A383
:104630008F8FC8010E94C02C6115710581059105FD
:1046400009F48ECF22E0209395070E94322F81E05B
:1046500088CFCF92DF92EF92FF9220E030E041E6E8
:1046600055E460913108709132088091330890913F
:1046700034080E9478320E94FA300E943B2F20E0DA
:1046800030E041E655E46091290870912A08809154
:104690002B0890912C080E9478320E94FA306B010E
:1046A0007C0120E030E041E655E460912D087091F6
:1046B0002E0880912F08909130080E9478320E9435
:1046C000FA30A70196010E94AF2C80913508823004
:1046D000E1F0833091F0813041F080E090E0FF9094
:1046E000EF90DF90CF900C942D2D8EEE91E2FF9005
:1046F000EF90DF90CF900C942D2D80E392E2FF900D
:10470000EF90DF90CF900C942D2D83E392E2FF90F9
:10471000EF90DF90CF900C942D2DFC01CB01AA27B8
:10472000BB2780835183428322E1238314822FEFAE
:1047300025839927AA27BB2780329105A105B105BA
:1047400049F080399105A105B10519F487E183830A
:104750000895089581E183830895FC018081807F1D
:10476000803891F09381292F22952F702F5F2F7021
:1047700031F02295207F9F70922B9383089520E142
:104780009F70922B93830895858118165CF784811E
:104790008F70833039F308950E9467040E94C62009
:1047A0000E943F158091EC06882309F440C0809157
:1047B000EC068130B9F060F0843050F482E594E08A
:1047C0000E9415266091EC068DEE96E00E944C1D2D
:1047D0006091EC068DEE96E00E94BD19882309F1E8
:1047E0000C94271685E0EDEEF6E0A6EEB6E001901B
:1047F0000D928A95E1F780E090E00E94CA108FE464
:1048000094E00E9415266091EC068DEE96E00E94E1
:104810004C1D6091EC068DEE96E00E94BD19811151
:10482000DFCF88E694E00E9415260C9427160895A1
:10483000CF93DF938BE794E00E9415268BEB94E0F7
:104840000E941526C1E2D8E0688179818A819B8126
:1048500040E00E94C12686EC94E00E9415266C81FF
:104860007D818E819F8140E00E9490278DEC94E0B5
:104870000E94152680ED94E00E94152668857985B2
:104880008A859B8545E050E00E94E32782EE94E014
:104890000E9415266C857D858E859F8545E050E0BC
:1048A0000E94E3278DEE94E00E941526688979899D
:1048B0008A899B8942E050E00E94E3278DEC94E0D6
:1048C0000E94152689EF94E0DF91CF910C94152674
:1048D0000E942923409121085091220860912308C9
:1048E0007091240885EB96E00E948D230E94182485
:1048F00083E00E940A2A80E090E008950F931F93BE
:10490000CF93DF93EC018C010A5F1F4F61E0899127
:104910000E945026C017D107C9F7DF91CF911F9190
:104920000F910C940A268F929F92AF92BF92CF92D2
:10493000DF92EF92FF920F931F93CF93DF93CDB748
:10494000DEB760970FB6F894DEBF0FBECDBF6C0127
:10495000162F80E1E0E2F1E0DE01119601900D9268
:104960008A95E1F784E295E00E941526D601149617
:104970008C910E9428298AE295E00E941526F60172
:1049800085810E9428298CE295E00E941526D60197
:104990001696EC91E770F0E0EE0FFF1F81E090E0DB
:1049A0008C0F9D1FE80FF91F808191810E941526B1
:1049B0008DE295E00E941526D60112968C910E94F8
:1049C000282980E594E00E941526F60181810E9445
:1049D000282980E594E00E941526D6018C910E943A
:1049E0002829F601878182FD78C00E940A261111CC
:1049F00061C0D60117968C9187FD79C080FD72C089
:104A00008DE595E00E9415265601F9E0AF0EB11C28
:104A100076018DE2E80EF11C450188E0880E911CBC
:104A20008501D80111968C910E94282980E594E097
:104A30000E941526F80180810E94282987E092E0D3
:104A40000E9415260E5F1F4F8016910651F70E9497
:104A50000A26F9E0AF0EB11CEA14FB04E9F68AE677
:104A600095E00E941526560199E9A90EB11C67012F
:104A700088E0C80ED11C8701D80111968C910E9444
:104A8000282980E594E00E941526F80180810E9483
:104A9000282987E092E00E9415260E5F1F4F0C1513
:104AA0001D0551F70E940A26F9E0EF0EF11CEA14E9
:104AB000FB04E9F660960FB6F894DEBF0FBECDBFDB
:104AC000DF91CF911F910F91FF90EF90DF90CF90EA
:104AD000BF90AF909F908F90089580E395E00E94E3
:104AE000152683CF8AE495E00E94152689CF85E3B9
:104AF00095E00E941526F601878180CF0F931F93C2
:104B0000CF93DF9300D01F92CDB7DEB7182F40E1CF
:104B1000BE016F5F7F4F90E00E94E635107FE1F1AC
:104B2000A7E9B5E08C91E0919A07F0919B07882363
:104B3000D1F1309789F08D010F5F1F4F09950196D4
:104B400071F1F80181918F01882349F1E0919A0771
:104B5000F0919B07309791F78981811115C0E0E0B2
:104B6000F0E0309789F008E012E08CE209950196B8
:104B700059F0F80181918F01882331F0E0919A0773
:104B8000F0919B07309791F70F900F900F90DF9166
:104B9000CF911F910F910895A3E9B5E0C3CFE091A4
:104BA0009A07F0919B0789818823D9F2309761F3A6
:104BB0008E010E5F1F4F0995019699F0F8018191C2
:104BC0008F01882371F0E0919A07F0919B0730974D
:104BD00091F70F900F900F90DF91CF911F910F9150
:104BE0000895E0919A07F0919B07BBCFE0919A0757
:104BF000F0919B07309709F009948FEF9FEF08958C
:104C0000E0919807F0919907309709F009948FEF98
:104C10009FEF0895E0919A07F0919B07309711F06C
:104C20008AE009948FEF9FEF0895CF93DF93EC0113
:104C300088818823C1F0E0919A07F0919B07309713
:104C400069F021960995019649F08991882359F0D8
:104C5000E0919A07F0919B073097A1F78FEF9FEFB4
:104C6000DF91CF91089580E090E0DF91CF9108959A
:104C7000CF93DF93EC01FE018491882361F0E091F2
:104C80009A07F0919B07309709F009952196FE014C
:104C900084918111F4CF80E090E0DF91CF9108956D
:104CA000FF920F931F93CF93DF9300D01F92CDB746
:104CB000DEB7182FF62E40E1BE016F5F7F4F90E008
:104CC0000E94E635107F09F059C0A3E9B5E08C9148
:104CD0008823C9F1E0919A07F0919B07309789F0FA
:104CE0008D010F5F1F4F0995019669F1F8018191C0
:104CF0008F01882341F1E0919A07F0919B0730974B
:104D000091F7FF20B9F0E0919A07F0919B07309757
:104D100089F008E012E08CE20995019659F0F8015B
:104D200081918F01882331F0E0919A07F0919B07E0
:104D3000309791F70F900F900F90DF91CF911F91C7
:104D40000F91FF90089589818823D9F2E0919A0705
:104D5000F0919B073097A9F28E010E5F1F4F0995C6
:104D6000019679F2F80181918F01882351F2E09147
:104D70009A07F0919B07309791F7C3CFA7E9B5E069
:104D8000A6CF8F929F92AF92BF92FF920F931F93E5
:104D9000CF93DF93CDB7DEB72A970FB6F894DEBF77
:104DA0000FBECDBF4B015C01F42E20E1AE014F5F81
:104DB0005F4F0E94FC35D501C401807F892B8A2B6F
:104DC0008B2BD9F1D501C4018827892B8A2B8B2BFA
:104DD00009F494C0D501C4018827907F892B8A2BC0
:104DE0008B2B09F48EC0D501C40188279927892B04
:104DF0008A2B8B2B09F488C0D501C40188279927F9
:104E0000A07F892B8A2B8B2B09F481C0D501C4018B
:104E100088279927AA27892B8A2B8B2B09F47AC0FC
:104E200088249924AA2420EFB22289288A288B2852
:104E300009F473C0A7E9B5E002C0AEEAB5E08C9111
:104E4000882309F440C0E0919A07F0919B073097BE
:104E500089F08D010F5F1F4F09950196A1F1F801AF
:104E600081918F01882379F1E0919A07F0919B0756
:104E7000309791F7FF20B9F0E0919A07F0919B07E6
:104E8000309789F008E012E08CE20995019659F01C
:104E9000F80181918F01882331F0E0919A07F09118
:104EA0009B07309791F72A960FB6F894DEBF0FBE96
:104EB000CDBFDF91CF911F910F91FF90BF90AF9029
:104EC0009F908F90089589818823A1F2E0919A079D
:104ED000F0919B07309771F28E010E5F1F4F09957D
:104EE000019641F2F80181918F01882319F2E09136
:104EF0009A07F0919B07309791F7BCCFA5EAB5E0F0
:104F00009ECFAFEBB5E09BCFA8EBB5E098CFAFE974
:104F1000B5E095CFAAE9B5E092CFA3E9B5E08FCF90
:104F2000FF920F931F93CF93DF93CDB7DEB72C97EC
:104F30000FB6F894DEBF0FBECDBFF42E2AE0AE014F
:104F40004F5F5F4F0E94FC3589818823B9F0E09163
:104F50009A07F0919B07309789F08E010E5F1F4FE3
:104F60000995019659F0F80181918F01882331F05C
:104F7000E0919A07F0919B07309791F7FF20B9F0E5
:104F8000E0919A07F0919B07309789F008E012E0D2
:104F90008CE20995019659F0F80181918F018823DF
:104FA00031F0E0919A07F0919B07309791F72C969A
:104FB0000FB6F894DEBF0FBECDBFDF91CF911F912A
:104FC0000F91FF9008952F923F924F925F926F92B0
:104FD0007F928F929F92AF92BF92CF92DF92EF9289
:104FE000FF920F931F93CF93DF93CDB7DEB72C972C
:104FF0000FB6F894DEBF0FBECDBF4B015C018A0136
:105000000E94FA302B013C011B014AE0BE016F5F98
:105010007F4FC2010E94E635DC018C91E0919A0736
:10502000F0919B07882309F495C03097A1F07D018A
:105030002FEFE21AF20A0995019609F487C0F701E9
:1050400081917F01882309F481C0E0919A07F09152
:105050009B07309781F7B201550C880B990B0E9482
:1050600032319B01AC01C501B4010E9416306B01C5
:105070007C0137FC75C020E030E040E85FE361E090
:1050800070E080E090E0101611060CF520E030E0B2
:10509000DC01CB01880F991FAA1FBB1F2C013D010A
:1050A000440C551C661C771C440C551C661C771C54
:1050B000BC01CD01640D751D861D971D2F5F3F4FEF
:1050C0000217130729F70E9432319B01AC01C70177
:1050D000B6010E9478320E9401312AE0AE014F5F92
:1050E0005F4F0E94FC3589818823B9F0E0919A07CF
:1050F000F0919B07309789F08E010E5F1F4F099545
:10510000019659F0F80181918F01882331F0E091E7
:105110009A07F0919B07309791F72C960FB6F89469
:10512000DEBF0FBECDBFDF91CF911F910F91FF90DA
:10513000EF90DF90CF90BF90AF909F908F907F9037
:105140006F905F904F903F902F900895E0919A0755
:10515000F0919B07309709F47ECF8EE209957BCFC3
:1051600020E030E040E85FEB6FEF7FEFCB018BCFCB
:105170000F931F93CF93DF93CDB7DEB72D970FB665
:10518000F894DEBF0FBECDBF9A01AE014F5F5F4FF7
:105190000E94F135DC018C918823B9F0E0919A07E7
:1051A000F0919B07309789F08D010F5F1F4F099594
:1051B000019659F0F80181918F01882331F0E09137
:1051C0009A07F0919B07309791F72D960FB6F894B8
:1051D000DEBF0FBECDBFDF91CF911F910F9108951C
:1051E0000F931F93CF93DF93CDB7DEB72A970FB6F8
:1051F000F894DEBF0FBECDBF4AE0BE016F5F7F4FA8
:105200000E94E635DC018C918823B9F0E0919A0781
:10521000F0919B07309789F08D010F5F1F4F099523
:10522000019659F0F80181918F01882331F0E091C6
:105230009A07F0919B07309791F72A960FB6F8944A
:10524000DEBF0FBECDBFDF91CF911F910F910895AB
:10525000FF920F931F93CF93DF93CDB7DEB72A97BB
:105260000FB6F894DEBF0FBECDBFF82E82958F70BB
:1052700040E1BE016F5F7F4F90E00E94E635DC01A8
:105280008C918823B9F0E0919A07F0919B073097B1
:1052900089F08D010F5F1F4F0995019659F0F801B4
:1052A00081918F01882331F0E0919A07F0919B075B
:1052B000309791F78F2D8F7040E1BE016F5F7F4F68
:1052C00090E00E94E635DC018C918823B9F0E091F2
:1052D0009A07F0919B07309789F08D010F5F1F4F60
:1052E0000995019659F0F80181918F01882331F0D9
:1052F000E0919A07F0919B07309791F72A960FB6A5
:10530000F894DEBF0FBECDBFDF91CF911F910F91FB
:10531000FF9008950F931F93CF93DF9316161706F0
:1053200054F4EC018C01060F171F89910E947E2511
:10533000C017D107D1F7E0919A07F0919B073097FA
:1053400031F08AE0DF91CF911F910F910994DF91A5
:10535000CF911F910F9108950E94CC290E94E729B7
:10536000609125087091260880912708909128085F
:105370000E94862A0E94692B80E39AE290939B0701
:1053800080939A0784E69AE290939907809398070E
:105390000E94222C7894089541E450E064E070E08B
:1053A00081E298E00C94623641E450E064E070E001
:1053B00081E298E00C94723689B182FB882780F9EB
:1053C0000895811102C02B9808952B9A0895529840
:1053D000239A2B98089580E008950E94AC2987ECC9
:1053E00095E00E9415260E94682483B7816083BFE0
:1053F000889583B78E7F83BF0E94CC23F6CF98E039
:1054000088E10FB6F894A895809360000FBE909342
:105410006000FFCF579A579A569A482F50E0440F92
:10542000551F90E012C05F9A5E9A5F9A292F30E074
:1054300024173507A4F42FEF34E38CE021503040DB
:105440008040E1F700C000009F5F90FDECCF5F98C7
:105450005E985F98292F30E02417350764F308958C
:105460002091640890917F0830E02F5F3F4F2927FB
:105470002F703327232B41F493B7916093BF889506
:1054800093B79E7F93BFECCF2091640890917F08E3
:1054900030E02F5F3F4F29272F703327232B89F0D0
:1054A000909164089F5F90936408E0916408EF70A6
:1054B000F0E0E259F74F80838091C10080628093D1
:1054C000C10080E090E008959091620880916308A7
:1054D00089278770C1F090916208809163088927BD
:1054E000877019F480E090E00895809163088F5FE1
:1054F00080936308E0916308E770F0E0EA59F74FA2
:10550000808190E008958FEF9FEF08954F925F9212
:105510006F927F928F929F92AF92BF92CF92DF92C3
:10552000EF92FF920F931F93CF93DF9300D000D0A1
:1055300000D0CDB7DEB72B013C016B017C01CC0C58
:10554000DD1CEE1CFF1CCC0CDD1CEE1CFF1CCC0C6F
:10555000DD1CEE1CFF1C812C54E2952E54EFA52E71
:10556000B12CC501B401A70196010E948F2F298398
:105570003A834B835C8389819A8101979E838D83D3
:1055800091E4491692E459069FE06906710408F017
:1055900070C0A7019601220F331F441F551FC5017C
:1055A000B4010E948F2F69017A0122953295307FD4
:1055B0003227207F322740E050E0C501B4010E942D
:1055C0008F2FCA01B901A30192010E948F2F11E010
:1055D000012F021B89819A81880F991F880F991FBB
:1055E000880F991F9C0140E050E0C501B4010E9462
:1055F0008F2FCA01B901A30192010E948F2F121BA4
:10560000101758F191E0C91AD108C092C400D09285
:10561000C5008091C0008D7F8093C00088E1809399
:10562000C1001092C00086E08093C20026960FB69B
:10563000F894DEBF0FBECDBFDF91CF911F910F91C8
:10564000FF90EF90DF90CF90BF90AF909F908F90A2
:105650007F906F905F904F9008959D819093C400CC
:105660008E818093C5008091C00082608093C000CD
:10567000D5CF8093C400F4CF1F920F920FB60F9234
:1056800011248F939F93EF93FF93909164088091DF
:105690007F0889278F70B9F080917F088F5F809392
:1056A0007F08E0917F08EF70F0E0E259F74F8081CA
:1056B0008093C600FF91EF919F918F910F900FBE45
:1056C0000F901F9018958091C1008F7D8093C1002D
:1056D000F1CFE1ECF0E080818068808308951F9233
:1056E0000F920FB60F9211242F938F939F93EF93E6
:1056F000FF93809162082091630890E001968227D1
:1057000087709927892BC1F0809162088F5F809301
:105710006208E0916208E770F0E08091C600EA5903
:10572000F74F8083FF91EF919F918F912F910F9071
:105730000FBE0F901F9018958091C60080937E0831
:1057400081E080937E08EECF8FE891E00197F1F73A
:1057500000C0000008951F920F920FB60F921124FF
:105760002F933F934F935F936F937F938F939F9369
:10577000AF93BF93EF93FF9380913B08813009F47F
:1057800053C080913A08813009F459C080913C0897
:10579000813089F0FF91EF91BF91AF919F918F91EF
:1057A0007F916F915F914F913F912F910F900FBE1D
:1057B0000F901F9018958091A1069091A206A0913C
:1057C000A306B091A406AC01BD0141505109610985
:1057D00071094093A1065093A2066093A3067093AB
:1057E000A406892B8A2B8B2BA9F660913608709121
:1057F0003708809138089091390820E533EC40E073
:1058000050E00E948F2FDA01C901805E914BAF4FAB
:10581000BF4F8093A1069093A206A093A306B093D6
:10582000A4060E944B04B6CF8091A5068F5F80939B
:10583000A506837009F0A5CF0E94B818A2CF0E94D8
:105840004216A4CF1092800089E08093810080E20C
:1058500093E0909389008093880082E080936F00AA
:105860000895FC01609184087091850880918608F4
:1058700090918708309729F06083718382839383A6
:105880000895089562E978E00E94492C82E998E041
:105890000895CF92DF92EF92FF920F931F93CF93D1
:1058A000DF9300D000D0CDB7DEB76C017B01E09173
:1058B0008808F09189083097D1F160E878E009957F
:1058C0008C01F60140815181628173818091800851
:1058D00090918108A0918208B0918308840F951F50
:1058E000A61FB71F101611064CF4A801012E000CBC
:1058F000660B770B840F951FA61FB71F89839A83AA
:10590000AB83BC83B701CE0101960E94322DF70113
:10591000138702870F900F900F900F90DF91CF9118
:105920001F910F91FF90EF90DF90CF900895FC01B1
:1059300040815181628173818091800890918108BA
:10594000A0918208B0918308840F951FA61FB71FEE
:1059500089839A83AB83BC830FEF1FEFD3CF609310
:105960008A0870938B0880938C0890938D082093FD
:105970008E0830938F0840939008509391080895B3
:105980008F929F92AF92BF92EF92FF920F931F93CD
:10599000CF93DF9300D000D0CDB7DEB78C010E944B
:1059A0007E2E69837A838B839C83F801828493841F
:1059B00097FC38C09E012F5F3F4F790118141904DE
:1059C00044F4092C000CAA08BB08681979098A0953
:1059D0009B098090800890908108A0908208B090E8
:1059E0008308DC01CB0188199909AA09BB098983BD
:1059F0009A83AB83BC83B801C7010E94492C69819B
:105A00007A818B819C810F900F900F900F90DF9186
:105A1000CF911F910F91FF90EF90BF90AF909F900B
:105A20008F900895E0918808F0918908309789F067
:105A300060E878E09E012F5F3F4F7901C901099529
:105A40004C01F8019387828769817A818B819C81DF
:105A5000B5CFFE0131967F01BCCF9093890880932A
:105A600088080895CF92DF92EF92FF920F931F93D1
:105A7000CF93DF93CDB7DEB728970FB6F894DEBF8C
:105A80000FBECDBF8B01FC0160817181828193814A
:105A900020E831E541E050E00E948F2F69017A0152
:105AA0002CE330E040E050E00E94B12F29833A839C
:105AB0004B835C8389819A81AB81BC81F8016083CF
:105AC0006CE370E00E947B2FDC01CB01F801A18325
:105AD0008283A6014A5F5F4F9A01A3E9B4E20E9464
