:100000000C9420040C9449040C9449040C94490465
:100010000C9449040C9449040C9449040C9449042C
:100020000C9449040C9449040C9449040C94A22B9C
:100030000C9449040C9449040C9449040C9449040C
:100040000C9449040C9449040C94662B0C94332BA7
:100050000C9449040C9449040C9449040C944904EC
:100060000C9449040C944904072C7AA5BA6CC590E9
:10007000DA3B9365FC8BBC53F810FD3C5692834DE4
:10008000BD879D3AB63DCBC9BF5BBE73DA0FC93F92
:1000900005A84CCDB2D44EB93836A9020C50B9914E
:1000A0008688083CA6AAAA2ABE000000803F737971
:1000B0006E7461783A20636F6D6D616E64206F704D
:1000C00074696F6E3D76616C7565202E2E2E3B0A2D
:1000D000636F6D6D616E6473206172653A200074A8
:1000E000797065202768656C7020636F6D6D616E37
:1000F000643B2720206F72202768656C7020616C3C
:100100006C3B270A636F6D6D616E6473206172656D
:100110003A20006461696C793D5420202020202021
:100120002020656E61626C6573206461696C792062
:1001300074696D65722E20542069732075702F6468
:100140006F776E206C696B6520303733302D206FF0
:1001500072203037333032303030206F72202D3201
:100160003030302020666F722075702030373A337F
:100170003020616E642F6F7220646F776E20323092
:100180003A30300A7765656B6C793D545454545459
:10019000545420656E61626C6573207765656B6C85
:1001A000792074696D65722E2054206C696B65200E
:1001B0007769746820276461696C7927206F7220E1
:1001C000272B2720746F20636F7079207468652057
:1001D00054206F6E20746865206C6566742E20282C
:1001E0007765656B6C793D303733302D2B2B2B2B9E
:1001F000303930302D2B290A617374726F5B3D4E9C
:100200005D202020202020656E61626C6573206176
:100210007374726F206175746F6D617469632E20E1
:100220004E20697320746865206F6666736574205C
:10023000746F20636976696C206475736B20696ED6
:10024000206D696E757465732E2043616E20626542
:1002500020706F7374697665206F72206E656761B8
:10026000746976652E0A73756E2D6175746F202022
:100270002020202020656E61626C65732073756E8E
:10028000206175746F6D617469630A72616E646F69
:100290006D202020202020202020656E61626C656A
:1002A000732072616E646F6D206175746F6D61741F
:1002B00069632E2073687574746572206F70656E43
:1002C0007320616E6420636C6F73657320617420AA
:1002D00072616E646F6D2074696D65732E0A72743D
:1002E000632D6F6E6C7920202020202020646F6E9B
:1002F0002774206368616E67652074696D65727329
:100300002E206F6E6C792075706461746520696E43
:100310007465726E616C207265616C2074696D65C4
:1003200020636C6F636B0A612C206720616E642010
:100330006D3A202020206C696B6520696E20736502
:100340006E6420636F6D6D616E640A72733D283058
:100350007C317C322920202020207265616420625B
:1003600061636B2073617665642074696D657220CA
:10037000646174612E2069662073657420746F2037
:10038000322C2072657475726E20616E7920646102
:100390007461206D61746368696E67206720616EA7
:1003A00064206D20652E672E206D3D302028616E03
:1003B00079206D656D6265722920696E737465615F
:1003C00064206F66206D3D320A007072696E743D64
:1003D000287274637C6375290A0063753D2849445B
:1003E0007C6175746F292020202020362D64696778
:1003F000697420686578204944206F662043656EE3
:100400007472616C2D556E69742E206175746F3A2B
:10041000206361707475726520494420776974683F
:1004200020636F6E6E65637465642052462072654A
:100430006365697665720A7274633D49534F5F5410
:10044000494D452020202020287274633D323031F0
:10045000372D31322D33315432333A35393A35393B
:10046000290A626175643D4E202020202020202032
:1004700020202073657269616C206261756420724E
:100480006174652028626175643D333834303029E9
:100490000A6C6F6E6769747564653D4445430A6C08
:1004A000617469747564653D4445430A74696D659A
:1004B0002D7A6F6E653D4E2020202020202065780B
:1004C000616D706C653A20636F6E66696720206CA1
:1004D0006F6E6769747564653D2D31332E32333428
:1004E0003532206C617469747564653D2B35322E2C
:1004F00033343233342074696D652D7A6F6E653D07
:100500002B312E303B0A6473743D2865757C307C3A
:1005100031292020202020206461796C696768746B
:1005200020736176696E672074696D653A20617524
:10053000746F6D617469633A2065753D6575726F9E
:1005400070652E206D616E75616C6C793A20303D5E
:100550006F66662C20313D6F6E0A766572626F732E
:10056000653D28302E2E35292020202073657420EB
:1005700074657874206F7574707574207665726216
:100580006F73697479206C6576656C3A20302066EB
:100590006F72206E6F6E65202E2E2E203520666FB6
:1005A00072206D6178290A7365742D70773D7061D2
:1005B0007373776F726420202073657420612063E9
:1005C0006F6E6669672070617373776F72642E2037
:1005D00069662073657420657665727920636F6E35
:1005E00066696720636F6D6D616E6473206E65650B
:1005F000647320746865207077206F7074696F6E03
:100600000A70773D505720202020202020202020D5
:100610002020206578616D706C653A20636F6E668E
:1006200069672070773D6D795F70617373772064BF
:1006300073743D65753B0A72657374617274202032
:100640002020202020202020207265737461727485
:10065000204D43550A00613D28307C494429202023
:100660002020686578204944206F662073656E6499
:100670006572206F722072656365697665722E20DF
:1006800030202864656661756C7429207573657304
:10069000202763752720696E20636F6E6669670A7D
:1006A000673D5B302D375D202020202067726F75FD
:1006B00070206E756D6265722E203020286465662C
:1006C00061756C742920616464726573736573204D
:1006D000616C6C2067726F7570730A6D3D5B302DB5
:1006E000375D202020202067726F7570206D656D4A
:1006F0006265722E2030202864656661756C7429ED
:100700002061646472657373657320616C6C206D25
:10071000656D626572730A633D636F6D6D616E64D2
:10072000202020436F6D6D616E6420746F207365AF
:100730006E642E204F6E65206F663A2075702C20F7
:10074000646F776E2C2073746F702C2073756E2D10
:10075000646F776E2C2073756E2D696E73742C2008
:100760007365740A723D4E20202020202020202016
:1007700052657065617465642073656E64696E6747
:1007800020666F722062657474657220726563659D
:100790007074696F6E2E2053656E642074686520D6
:1007A000636F6D6D616E6420312B4E2074696D65D1
:1007B000735345505B3D307C315D20202053776979
:1007C00074636820746F20656E61626C6520656E6D
:1007D000642D706F736974696F6E2061646A7573DC
:1007E000746D656E742E20486F6C6420686172644D
:1007F0007761726520627574746F6E20746F20610A
:10080000646A75737420656E6420706F73697469AF
:100810006F6E2028657370383236363A20677069FB
:100820006F302F666C61736820627574746F6E2010
:100830006F6E206D696E6920626F6172647329004A
:1008400011241FBECFEFD8E0DEBFCDBF14BE0FB660
:10085000F894A89580916000886180936000109260
:1008600060000FBE15E0A0E0B1E0E8E7FDE602C0E1
:1008700005900D92A83DB107D9F728E0A8EDB5E0A5
:1008800001C01D92AB39B207E1F70E94E4290C9434
:10089000BA360C9400008F938FB78F93F8948091A1
:1008A0007F088F5F80937F08809180088F4F8093AF
:1008B0008008809181088F4F809381088091820801
:1008C0008F4F809382088F918FBF8F910895809171
:1008D000A606882311F080E008958091AC061816D2
:1008E0008CF58091AB068F70833069F18091A606FC
:1008F000811128C081E00E94E215882319F18091BE
:10090000AC0681508093AC0685E0E7EAF6E0A8EEFD
:10091000B6E001900D928A95E1F761E088EE96E0ED
:100920000E94721B80913808811112C08CE090E007
:100930009093AE068093AD0681E08093A60680E09A
:100940000C94E215089587EA96E00E948723CECFA3
:1009500080E391E00E940C2661E088EE96E00E9420
:10096000241DE4CFCF93DF93EC018091A606811183
:1009700007C0209709F440C08091AC06181624F4F3
:1009800080E0DF91CF91089581E00E94E2158823F5
:10099000B9F386E0FE01A7EAB6E001900D928A95D0
:1009A000E1F785E0FE01A8EEB6E001900D928A9590
:1009B000E1F761E088EE96E00E94721B80913808B2
:1009C000811110C08CE090E09093AE068093AD064C
:1009D00081E08093A60680E00E94E21581E0DF912D
:1009E000CF91089580E391E00E940C2661E088EEAB
:1009F00096E00E94241DE6CF81E00E94E215882344
:100A000009F4BECF8091AC0681508093AC06C7EA52
:100A1000D6E0C7CF2091A606222311F080E00895EA
:100A2000FC0185E0A8EEB6E001900D928A95E1F711
:100A30006091F406661F6627661F83E0861B682F99
:100A400088EE96E00E94721B8091380881110EC0DA
:100A50008091F40687FD1BC080E591E09093AE067F
:100A60008093AD0681E08093A606089580E391E02F
:100A70000E940C2680913808823098F063E088EE5E
:100A800096E00E94241D8091F40687FFE5CF8EE159
:100A900090E09093AE068093AD0681E08093A60629
:100AA000089561E0ECCF2F923F924F925F926F9248
:100AB0007F928F929F92AF92BF92CF92DF92EF92EE
:100AC000FF920F931F93CF93DF93CDB7DEB76A9753
:100AD0000FB6F894DEBF0FBECDBF8C01072E000C01
:100AE000880B990B0E94213120E030E040E752E46E
:100AF0000E9477306F8B788F898F9A8F0D8B1E8B2A
:100B000085E391E09C8B8B8B8AEEC82E86E6D82EEF
:100B10008BEDE82E8DEBF82E85E89BEBACE0BEEB81
:100B20008D879E87AF87B88B80ED9BEEAAE6BFE3EB
:100B300089879A87AB87BC8786E693E7ABECBEEBE9
:100B40008D839E83AF83B887AB89BC892D883E880F
:100B500098E0290E311CBA8BA98B0D891E892BEDCB
:100B60003FE049E450E460912808709129088091A1
:100B70002A0890912B080E94673220E030E044E37D
:100B800053E40E9477304B015C010E94D4322B0168
:100B90003C01C501B4010E9472304B015C012D8102
:100BA0003E814F815885C301B2010E9467329B018B
:100BB000AC0165E073E186ED9DEB0E9405302B01F1
:100BC0003C0129853A854B855C85C501B4010E94AD
:100BD00067329B01AC01C301B2010E9477300E94D1
:100BE000F42F20E030E040E451E40E9467322BED26
:100BF0003FE049E450E40E94773020E030E040E4F8
:100C000051E40E9406304B015C0120EA3AE14FE2D8
:100C10005EEB6D857E858F8598890E9467322B01FA
:100C20003C0121E834E045E05EE3C701B6010E94E3
:100C300067329B01AC01C301B2010E9405309B01E8
:100C4000AC01C501B4010E9405306B017C0120E0BC
:100C500030E040E751E460912408709125088091CC
:100C60002608909127080E9477309B01AC01C701AC
:100C7000B6010E9406306B017C0120912C08309156
:100C80002D0840912E0850912F086F89788D898DFD
:100C90009A8D0E9406309B01AC01C701B6010E94EB
:100CA0000630AE014F5F5F4F0E9433326B017C0113
:100CB0000F3FBFEF1B0759F069817A818B819C81BF
:100CC0000E94F030862F0E94C91FF8018183011510
:100CD000110581F020E030E040E752E4C701B601A1
:100CE0000E9467320E94F030862F8E7F0E94C91FBB
:100CF000D8018C930E5F1F4F0215130509F459C0DC
:100D0000A989BA896D917D91BA8BA98B072E000CA8
:100D1000880B990B0E9421316B017C0128E03CE299
:100D200040EA52E40E94053024E73EE74AE85CE3EB
:100D30000E9467320E94D4322CEF39EA41ED5EE323
:100D40000E9467324B015C010E94D4326D837E8326
:100D50008F839887C501B4010E94723069877A87B2
:100D60008B879C8723E039E04AE05DE3C701B60149
:100D70000E9467322BE734E14EEE5EE30E940630BC
:100D80000E94D4326D877E878F87988B2BE134E663
:100D900042E95CE3C701B6010E94673221E338E013
:100DA0004CE25EE30E9405300E94D4326B017C016C
:100DB000D6CEED89FE893996FE8BED8B8B899C8989
:100DC000A1E08D389A0709F45CC0FC016681778147
:100DD000072E000C880B990B0E9421316B017C01BE
:100DE00028E03CE240EA52E40E94053024E73EE776
:100DF0004AE85CE30E9467320E94D4322CEF39EA61
:100E000041ED5EE30E9467324B015C010E94D432E7
:100E10006D837E838F839887C501B4010E947230F1
:100E200069877A878B879C8723E039E04AE05DE316
:100E3000C701B6010E9467322BE734E14EEE5EE354
:100E40000E9406300E94D4326D877E878F87988BF0
:100E50002BE134E642E95CE3C701B6010E94673248
:100E600021E338E04CE25EE30E9405300E94D43278
:100E70006B017C018B899C8908969C8B8B8BDC0198
:100E800065CE6A960FB6F894DEBF0FBECDBFDF9178
:100E9000CF911F910F91FF90EF90DF90CF90BF9077
:100EA000AF909F908F907F906F905F904F903F900A
:100EB0002F9008958F929F92AF92BF92CF92DF9220
:100EC000EF92FF920F931F93CF93DF93CDB7DEB7CF
:100ED00064970FB6F894DEBF0FBECDBF62307105C8
:100EE0000CF460C0FC01E480F580C680D780E1147A
:100EF000F10409F485C0C114D10409F481C04B0187
:100F00008C01AA24A394B12C25C069E971E0C60123
:100F10000E949635892B09F448C06DE971E0C6013D
:100F20000E949635892B09F44EC0FFEFAF1ABF0A15
:100F30008A149B04B9F1F801E084F184C284D3845B
:100F4000E114F10409F45CC00C5F1F4FC114D1041B
:100F500009F456C063E971E0C7010E949635892BF8
:100F6000A1F287EB91E00E940C268091AF06909150
:100F7000B006892BD9F58AE30E94ED258FEB91E02D
:100F80000E940C2687E295E00E940C26C7010E9471
:100F90000C268AE00E94ED25FFEFAF1ABF0A8A14E3
:100FA0009B0449F680E090E02DC0CE0101960E949E
:100FB0004F22882309F4B9CFCE0101960E940C2656
:100FC0000E940126B2CF80EA91E00E940C26609137
:100FD0001C0870911D0880911E0890911F0840E127
:100FE00050E00E94AF280E9401269FCF80E40E941B
:100FF000ED258091AF069091B0060E94E728BBCF07
:101000008FEF9FEF64960FB6F894DEBF0FBECDBF93
:10101000DF91CF911F910F91FF90EF90DF90CF90D4
:10102000BF90AF909F908F900895CF92DF92EF92F4
:10103000FF920F931F93CF93DF936C017B0161307D
:10104000710509F4D4C00CF499C001E010E054C05B
:10105000BE0180910001909101010E949635892B7B
:1010600009F4A5C0BE0180910601909107010E947C
:101070009635892B09F4AFC0BE0180910C01909187
:101080000D010E949635892B09F4A8C0BE018091FC
:101090001201909113010E949635892B09F4A1C089
:1010A000BE0180911801909119010E949635892BFB
:1010B00009F49AC087EB91E00E940C268091AF065C
:1010C0009091B006892B09F068C08AE30E94ED2553
:1010D0008FEB91E00E940C2687E295E00E940C269F
:1010E000CE010E940C268AE00E94ED250F5F1F4F63
:1010F0000E151F050CF042C0F801EE0FFF1FEE0F9A
:10110000FF1FEC0DFD1DC081D1816AE072E0CE01B0
:101110000E949635892B09F09BCF8EEA90E00E94C1
:101120002F26C0E0D1E08E01F801808191810E94DC
:101130000C2687E092E00E940C260A5F1F4FF1E028
:101140000E311F0789F70E940126888199810E942C
:101150000C268EE092E00E940C268C819D810E94DC
:101160002F260E940126269681E0CE31D80769F706
:1011700006E010E00E151F050CF4BECF8EEC91E0DA
:101180000E940C2680E090E0DF91CF911F910F919B
:10119000FF90EF90DF90CF90089580E40E94ED25BE
:1011A0008091AF069091B0060E94E7288ECF80E034
:1011B00090E0FC01EE0FFF1FE80FF91FEE0FFF1F7D
:1011C000E050FF4F848195810E942F260E940126C6
:1011D0000F5F1F4F8DCF81E090E0EBCF82E090E07A
:1011E000E8CF83E090E0E5CF84E090E0E2CF8FEDC0
:1011F00090E00E942F26C0E0D1E00EE111E088814E
:1012000099810E940C2687E092E00E940C26269687
:101210000C171D07A1F70E940126B4CF2F923F9211
:101220004F925F926F927F928F929F92AF92BF92F6
:10123000CF92DF92EF92FF920F931F93CF93DF93A2
:1012400000D000D0CDB7DEB73B01623071050CF4A1
:1012500019C2FC0104811581C680D78001151105D2
:1012600009F4C3C09C838B83312C1A82212CF2E0B9
:10127000F98344244A94542C812C912C5401EE245B
:10128000E394F12C20C0C114D10409F484C040E1DE
:1012900050E060E070E0C6010E944B334B015C01FE
:1012A000FFEFEF1AFF0A6E147F0471F1EB81FC81EE
:1012B000008511853496FC83EB83C680D7800115A9
:1012C000110509F492C069E172E0C8010E949635E7
:1012D000892BC9F261E074E0C8010E949635892B20
:1012E00009F042C0C114D10409F46AC0C6010E94C9
:1012F00056358830910508F063C0382EFFEFEF1A9D
:10130000FF0A6E147F0491F681149104A104B104C4
:1013100009F41BC12091DA05822F90E0A0E0B0E033
:10132000DC01992788273091DC05832B4091DB0570
:1013300050E0542F442760E070E0842B952BA62BBF
:10134000B72B88169906AA06BB0609F4E1C0B501B9
:10135000A4018AED95E00E9467232091DA05EAED69
:10136000F5E0FC83EB83D8C06FEA73E0C8010E940C
:101370009635892BA1F4C114D10411F1C6010E9444
:10138000563588309105E0F4009709F48DC0E7E008
:101390002E2E280E85CF812C912C540181CF67E011
:1013A00074E0C8010E949635892BC1F5C114D1049F
:1013B00039F0C6010E94563589838B3008F470CF0E
:1013C00081E292E00E940C268091AF069091B006D7
:1013D000892B09F027C187E295E00E940C268BE15A
:1013E00092E00E940C260E9401268FEF9FEF0F9043
:1013F0000F900F900F90DF91CF911F910F91FF9061
:10140000EF90DF90CF90BF90AF909F908F907F90A4
:101410006F905F904F903F902F9008956BE971E02F
:10142000C8010E949635892B09F040C0C114D1042F
:1014300039F260E372E0C6010E949635892B09F407
:101440000BC169E372E0C6010E949635892B09F44D
:1014500000C167E272E0C6010E949635892B09F44B
:10146000FEC06CE272E0C6010E949635892B09F439
:10147000EDC065E372E0C6010E949635892B09F440
:10148000FEC06CE372E0C6010E949635892B09F418
:10149000F3C065E472E0C6010E949635892B09F01D
:1014A0008FCF8DE08A83FCCE212CFACE69E472E0E6
:1014B000C8010E949635892B71F4C114D10421F022
:1014C000F6018081813321F444244394512CE8CEE9
:1014D000412C512CE5CE87EB91E00E940C268091A7
:1014E000AF069091B006892B09F0A6C08AE30E944E
:1014F000ED258FEB91E00E940C2687E295E00E949B
:101500000C26C8010E940C268AE00E94ED25C8CE58
:101510008AED95E09C838B83207F2038F9F0FFEFE4
:101520004F165F0699F1EB81FC818481982F907FA3
:101530008A818F70892B8483452809F457C0CF0195
:101540000E940F2080E090E052CF2091B10681EB05
:1015500096E09C838B83207F203809F7EB81FC8108
:1015600024812F70F0E13F9EC0011124322E382AD1
:10157000EB81FC8134828381982F907F822D8F7044
:10158000892B8383FFEF4F165F0669F6FA81FF23ED
:1015900091F1EB81FC818481982F907F8A818F70FB
:1015A000892B8483CF010E9487232981EB81FC81D1
:1015B0002583CF010E94B2048823E9F081E292E002
:1015C0000E940C268091AF069091B006892B09F0FD
:1015D00068C087E295E00E940C2684E993E00E94AF
:1015E0000C260E94012680E090E001CF0E94E51FBA
:1015F00080E090E0FCCE81E292E00E940C26809197
:10160000AF069091B006892B69F587E295E00E94BC
:101610000C268BE192E00E940C260E94012680E0BD
:1016200090E0E5CE80E40E94ED258091AF06909198
:10163000B0060E94E728CFCE80E40E94ED2580917D
:10164000AF069091B0060E94E72850CF86E08A83CB
:1016500027CE84E08A8324CE85E08A8321CE83E06E
:101660008A831ECE80E40E94ED258091AF06909182
:10167000B0060E94E728C9CF88E08A8311CE87E0B0
:101680008A830ECE2091B10632E0398344244A94F5
:10169000542C212C1A82312C81EB96E09C838B8375
:1016A0003BCF80E40E94ED258091AF069091B0067B
:1016B0000E94E7288ECF2F923F924F925F926F92B7
:1016C0007F928F929F92AF92BF92CF92DF92EF92D2
:1016D000FF920F931F93CF93DF9300D000D0CDB72D
:1016E000DEB79924939420913D082111912C62300A
:1016F00071050CF475C06B019C838B83FC01A48085
:10170000B58006811781A114B10409F451C10115F6
:10171000110509F44DC1EE24E394F12C26C0B80163
:101720008DE398E00E949635892B09F03DC18DE448
:1017300092E00E940C261FEFE11AF10ACE14DF049A
:1017400009F44EC0EB81FC81A084B184028513852D
:10175000A114B10409F42CC13496FC83EB839924C1
:1017600093940115110509F423C168EF72E0C501D6
:101770000E949635892B99F2992009F4D6C16AE81E
:1017800072E0C5010E949635892B09F4EAC069E927
:1017900071E0C5010E949635892B09F094C0C801FB
:1017A0000E947422811179C081E292E00E940C268D
:1017B0008091AF069091B006892B09F031C187E284
:1017C00095E00E940C268BE192E00E940C260E947C
:1017D00001261FEFE11AF10ACE14DF0409F0B2CF9F
:1017E00080E090E0FCC064EF72E0C5010E94963595
:1017F000892B09F484C16BEF72E0C5010E94963514
:10180000892B09F4EBC168E073E0C5010E949635AD
:10181000892B09F4EEC164E173E0C5010E9496359D
:10182000892B09F487C16EE173E0C5010E949635EA
:10183000892B09F408C267E273E0C5010E9496355E
:10184000892B09F472C261E373E0C5010E949635E9
:10185000892B09F0D1C265E373E0C8010E94963577
:10186000892B19F0F1E0F093300866EB75E0C801C0
:101870000E949635892B11F01092300868E373E0CE
:10188000C8010E949635892B09F4E9C203E0009350
:1018900030080E9403230E94CB2981E292E00E943B
:1018A0000C268091AF069091B006892B09F0AEC04E
:1018B00087E295E00E940C2684E993E00E940C26C2
:1018C0000E94012638CF6DE971E0C5010E9496356E
:1018D000892B09F049C065EB73E0C8010E94963579
:1018E000892B09F4A7C066ED72E0C8010E94963505
:1018F000892B09F0EDC06091E106862F90E0A0E011
:10190000B0E0DC01992788272091E306AC01BD01F6
:10191000422B8091E20690E0982F8827A0E0B0E06B
:101920008A019B01082B192B2A2B3B2BC901B801DB
:101930008C01222733270038110521053105C1F517
:101940000093B1067093B2066093B30660931C08CF
:1019500070931D0880931E0890931F080E94CB2946
:101960009CCF0E94F629E7CE6FED72E0C5010E9480
:101970009635892B09F47EC067EE72E0C5010E949E
:101980009635892B09F492C06CEE72E0C5010E9475
:101990009635892B09F027CFC8010E9456358093D0
:1019A00038080E94CB2979CF8AE592E00E940C2664
:1019B00081E292E00E940C268091AF069091B006E1
:1019C000892B09F069C087E295E00E940C268BE123
:1019D00092E00E940C260E9401268FEF9FEF0F904D
:1019E0000F900F900F90DF91CF911F910F91FF906B
:1019F000EF90DF90CF90BF90AF909F908F907F90AF
:101A00006F905F904F903F902F90089580E40E94D8
:101A1000ED258091AF069091B0060E94E72848CF4F
:101A200080E40E94ED258091AF069091B0060E945F
:101A3000E728C5CE80E090E00E94282CDC01CB0195
:101A4000CC96A11DB11D8093E8059093E905A09364
:101A5000EA05B093EB051092E1068091AF069091F4
:101A6000B0069093E7058093E60582E992E00E9434
:101A70000C2613CF40E150E060E070E0C8010E9406
:101A800061346093390870933A0880933B089093CF
:101A90003C080E94CB2901CF80E40E94ED25809173
:101AA000AF069091B0060E94E7288DCF4AE050E043
:101AB00060E070E0C8010E94613460932008709378
:101AC000210880932208909323080E94CB29E5CE19
:101AD00040E150E060E070E0C8010E9461348C0198
:101AE00022273327003809F063CF892E9924AA24AE
:101AF000BB2489288A288B2809F422CF59CFF801E2
:101B000001900020E9F73197E01BF10BE031F1057E
:101B100008F04ACEAF014F5F5F4FB8018DE398E008
:101B20000E9482350E94CB29B8CE81E792E00E94C4
:101B30000C263ECFF80180818D3209F482C1282F16
:101B400060E070E0CB01412C512CF0E86F2EFFE3F8
:101B50007F2E222309F45FC00F5F1F4F622F812C5D
:101B6000912C54011A82198232C070E01B01F0E3FB
:101B70002F1A31082AE02216310420F589819A8132
:101B8000892B51F020E030E040E251E4C301B20182
:101B90000E9477302B013C0120E030E040E251E42C
:101BA000C501B4010E9467324B015C01B101330CE5
:101BB000880B990B0E942131A50194010E940630E7
:101BC0004B015C01F80161918F016623F1F06E32E7
:101BD00061F6E1E0F0E0FA83E983F4CF6CE775E0C9
:101BE000C8010E949635892B19F511E0109335082C
:101BF00052CE6CE775E0C8010E949635892B09F03A
:101C000076C021E02093360846CEA3019201C5019B
:101C1000B4010E9467326093240870932508809372
:101C20002608909327080E9403230E94CB2935CED3
:101C300064E073E0C8010E949635892B09F0B4CDA9
:101C40001092350828CEF80180818D3209F423C125
:101C5000282F60E070E0CB01412C512C50E8652E1C
:101C60005FE3752E222309F453C00F5F1F4F622FCD
:101C7000812C912C54011A82198232C070E01B0110
:101C8000F0E32F1A31082AE02216310420F5898169
:101C90009A81892B51F020E030E040E251E4C30109
:101CA000B2010E9477302B013C0120E030E040E29D
:101CB00051E4C501B4010E9467324B015C01B101DE
:101CC000330C880B990B0E942131A50194010E94CD
:101CD00006304B015C01F80161918F01662391F0A0
:101CE0006E3261F6E1E0F0E0FA83E983F4CF64E07C
:101CF00073E0C8010E949635892B09F055CD1092EA
:101D00003608C9CDA3019201C501B4010E94673212
:101D1000609328087093290880932A0890932B08D1
:101D20000E9403230E94CB29B8CDF80180818D3217
:101D300009F4BFC0282F60E070E0CB01412C512C8A
:101D400030E8632E3FE3732E222309F448C00F5F6F
:101D50001F4F622F812C912C54011A82198232C09C
:101D600070E01B01F0E32F1A31082AE0221631043B
:101D700020F589819A81892B51F020E030E040E202
:101D800051E4C301B2010E9477302B013C0120E0F5
:101D900030E040E251E4C501B4010E9467324B01DA
:101DA0005C01B101330C880B990B0E942131A50114
:101DB00094010E9406304B015C01F80161918F0192
:101DC000662339F06E3261F6E1E0F0E0FA83E983F0
:101DD000F4CFA3019201C501B4010E946732609360
:101DE0002C0870932D0880932E0890932F080E9442
:101DF00003230E94CB2951CD87EB91E00E940C2652
:101E00008091AF069091B006892B49F080E40E9442
:101E1000ED258091AF069091B0060E94E7288AE3F5
:101E20000E94ED258FEB91E00E940C2687E295E061
:101E30000E940C26C5010E940C268AE00E94ED2516
:101E40007ACC21810F5F1F4F60E070E080E090E866
:101E5000412C512CA0E86A2EAFEB7A2E7ACE87EB7C
:101E600091E00E940C268091AF069091B006892BDC
:101E700071F58AE30E94ED258FEB91E00E940C261C
:101E800087E295E00E940C26C5010E940C268AE09C
:101E90000E94ED25FECC21810F5F1F4F60E070E0B6
:101EA00080E090E8412C512CE0E86E2EEFEB7E2E86
:101EB000D9CE21810F5F1F4F60E070E080E090E895
:101EC000412C512C40E8642E4FEB742E3DCF80E422
:101ED0000E94ED258091AF069091B0060E94E72800
:101EE000C8CF8AE393E00C940C260E94F7258F3F1D
:101EF0002FEF9207D9F08D309105D9F08A309105F6
:101F0000C1F08830910509F441C082329105B1F0E9
:101F10002091EC05222301F1CB9739F71092EC05C3
:101F20000E94F7258F3F2FEF920729F780E090E07E
:101F300008951092700610926F06D7CF20916F0609
:101F4000309170062F5F3F4F3093700620936F06DD
:101F50002091EC052111C9CF20916D0630916E06BC
:101F60002F37310584F540916F0640FD03C08B3358
:101F70009105B9F1A9014F5F5F4F50936E064093F1
:101F80006D06F901E351FA4F8083AFCF80916D0662
:101F900090916E06009709F4A8CF019790936E0672
:101FA00080936D06FC01E351FA4F8081823209F083
:101FB0009CCF80916F069091700601979093700668
:101FC00080936F0692CF81E08093EC0580E090E0F3
:101FD00010926E0610926D061092700610926F06A7
:101FE00008952115310539F0F901E351FA4F1082B6
:101FF0008DEE95E0EDCF80E090E0EACFEF92FF929A
:102000000F931F93CF93DF93EC011092B0061092C1
:10201000AF0600E010E08881803241F4DE01FE016D
:102020003196EF011D9281918032D9F3882309F412
:1020300087C07801EE0CFF1CEE0CFF1CF701E95481
:10204000F94FD183C0838881982F9F7D61F08D33B4
:10205000E9F0FE01319602C08D33C1F0EF018191AC
:10206000982F9F7DC9F7F701E954F94F1382128227
:102070000F5F1F4F0A30110571F68FEF9FEFDF9151
:10208000CF911F910F91FF90EF9008951882898151
:102090008B3399F3803289F38232B9F1882369F363
:1020A000FE013196D701A954B94F1396FC93EE93D4
:1020B00012978981882371F08032F1F18D33E1F13B
:1020C000229604C08032C1F18D33B1F1FE018991B5
:1020D0008111F8CFEF01C7018954994F7C0163E466
:1020E00073E0FC01808191810E949635892B09F073
:1020F000BFCFF701828193810E9456359093B0063D
:102100008093AF0601501109B3CFCE0102962A8108
:10211000222309F4B2CFF701E954F94F9383828364
:1021200062E270E00E948B35EC01892B09F4A5CFA7
:102130008881882381F2FE01EF0121961082CBCFA6
:10214000C801DF91CF911F910F91FF90EF900895FB
:1021500081E292E00E940C268091AF069091B00639
:10216000892B69F487E295E00E940C268BE192E0CE
:102170000E940C260E9401268FEF9FEF089580E4B5
:102180000E94ED258091AF069091B0060E94E7284D
:10219000E9CF0F931F93CF93DF93EC01892B09F0C5
:1021A00074C08091E8059091E905A091EA05B0918D
:1021B000EB05892B8A2B8B2B31F480E0DF91CF91BB
:1021C0001F910F91089580E090E00E94282C0091CB
:1021D000E8051091E9052091EA053091EB05061715
:1021E00017072807390708F472C08091E106982F75
:1021F000907F903811F790E0A0E0B0E0DC019927E3
:1022000088272091E306822B4091E20650E0542F6C
:10221000442760E070E0842B952BA62BB72BA0936E
:10222000B1069093B2068093B30680931C089093F6
:102230001D08A0931E08B0931F081092E805109285
:10224000E9051092EA051092EB058AE693E00E94F8
:102250000C2681E292E00E940C268091AF069091BC
:10226000B006892B09F071C08AE30E94ED258FE842
:1022700093E00E940C2687E295E00E940C260E94C3
:1022800001260E94CB2981E099CF80E090E00E9456
:10229000282CDC01CB018C0F9D1FA11DB11D80934B
:1022A000E8059093E905A093EA05B093EB05109239
:1022B000E1068091AF069091B0069093E705809378
:1022C000E60580E0DF91CF911F910F910895C091B5
:1022D000AF06D091B0061092E8051092E905109271
:1022E000EA051092EB0587E493E00E940C268091AA
:1022F000E6059091E7059093B0068093AF0681E2E2
:1023000092E00E940C268091AF069091B006892B36
:1023100091F48AE30E94ED258CE593E00E940C265F
:1023200087E295E00E940C260E940126D093B00619
:10233000C093AF0642CF80E40E94ED258091AF06A6
:102340009091B0060E94E728E4CF80E40E94ED253A
:102350008091AF069091B0060E94E72885CF4F92FA
:102360005F926F927F928F929F92AF92BF92CF9225
:10237000DF92EF92FF920F931F93CF93DF9300D0E2
:102380001F92CDB7DEB77C015B014A011B82452B52
:1023900009F4A9C0FC01808120E030E0882309F421
:1023A0005BC000E010E055245A949FE0492E1EC007
:1023B000F501E20FF31F50826801FFEFCF1ADF0A29
:1023C000C814D90408F04CC0F501EC0DFD1D408285
:1023D0008FEFE81AF80A86010F5F1F4F9801081562
:1023E0001905D0F5F70180818823B1F18B3209F40A
:1023F0004CC08D32E9F28983F70181818A836801BB
:10240000FFEFCF1ADF0AC814D90450F5CE010196A8
:102410000E9456350E94BA1FF501EC0DFD1D808308
:10242000F701828189833701F4E06F0E711CF70197
:1024300083818A830A0D1B1DCE0101960E945635A9
:102440000E94BA1FF8018083730186010F5F1F4F3E
:1024500098010815190530F281E08216930609F0FB
:1024600080E00F900F900F90DF91CF911F910F910F
:10247000FF90EF90DF90CF90BF90AF909F908F90A4
:102480007F906F905F904F9008950430110544F352
:10249000C80104968816990618F3D501A20FB31F38
:1024A000FD01349780818C93F8013196EA0DFB1D74
:1024B000DF0114978C918083F8013296EA0DFB1DA1
:1024C000DF0114978C9180836801E3E0CE0ED11C6C
:1024D000F501EC0DFD1DDF0114978C918083FFEF5A
:1024E000EF1AFF0A78CF20E030E0B6CF2F923F926C
:1024F0004F925F926F927F928F929F92AF92BF9214
:10250000CF92DF92EF92FF920F931F93CF93DF93BF
:10251000CDB7DEB7A8970FB6F894DEBF0FBECDBF1C
:10252000FC014B012FEF29839FE09A832B839C832F
:102530002D839E832F83988729879A872B879C8753
:102540002D879E872F87988B298B9A8B2B8B9C8B23
:102550002D8B9E8B2F8B988F298F9A8F2B8F9C8FF3
:102560002D8F9E8F2F8F98A3623071050CF466C259
:10257000E480F580A680B780E114F10409F4ECC092
:102580008F01312C18A6FEEFFFA319A2212C1BA24C
:102590001CA21DA21EA2612C712C1AA2512C412C2E
:1025A000CC24C394D12C21C0A114B10409F4B7C028
:1025B0004CE150E0BE016F5F7F4FC5010E94AF113B
:1025C000582E4FEFC41AD40A8C149D0481F1D801FF
:1025D0001896ED90FC9019970C5F1F4FF801A6809C
:1025E000B780E114F10409F4B7C067E973E0C701EB
:1025F0000E949635892BC1F26EE973E0C7010E94F3
:102600009635892B09F046C0A114B10409F487C09E
:1026100044E050E0BE01635E7F4FC5010E94AF11F0
:10262000482E4FEFC41AD40A8C149D0481F66BA176
:102630007CA18DA19EA1672B682B692B09F4EDC0AD
:102640002091E005822F90E0A0E0B0E0DC01992726
:1026500088273091E205832B4091E10550E0542F0B
:10266000442760E070E0842B952BA62BB72B4BA161
:102670005CA16DA17EA1481759076A077B0709F481
:102680004BC180EE95E00E9467232091E00500EEAB
:1026900015E0C7C064EA73E0C7010E949635892B34
:1026A00059F4A114B10409F4ACC0C5010E94563517
:1026B0003C0121E02AA385CF6AEA73E0C7010E94AA
:1026C0009635892B91F4A114B10441F0D5018C9178
:1026D000803309F48FC0813309F073CF79A1716021
:1026E00079A3822D8160282E6CCF61EB73E0C70146
:1026F0000E949635892B09F04AC0A114B10441F01B
:10270000F5018081803309F481C0813309F059CF0C
:1027100099A1906899A3A22DA0682A2E52CF81E298
:1027200092E00E940C268091AF069091B006892B12
:1027300049F080E40E94ED258091AF069091B006AB
:102740000E94E72887E295E00E940C268BE192E048
:102750000E940C260E9401268FEF9FEFA8960FB6CD
:10276000F894DEBF0FBECDBFDF91CF911F910F91C7
:10277000FF90EF90DF90CF90BF90AF909F908F90A1
:102780007F906F905F904F903F902F9008956AEBED
:1027900073E0C7010E949635892B79F4A114B10426
:1027A00009F4F0C0D5018C91803309F45FC0813306
:1027B00009F0B5C0F1E0FFA304CF69E172E0C70101
:1027C0000E949635892B09F441C061E074E0C7018D
:1027D0000E949635892B09F0BBC0A114B10409F4FD
:1027E000CEC0C5010E9456358830910508F0C7C09B
:1027F000382EE7CE39A1316039A3422D4E7F242EE9
:10280000E0CE612C712C31E03AA3DBCE59A15068A7
:1028100059A3622D6F77262ED4CE2091B10601EBFD
:1028200016E0207F203809F462C0D80114968C91FC
:102830008F60F8018483C8010E94872381E00E9491
:10284000E215811115C080E090E088CFA114B10499
:1028500009F49BC040E150E060E070E0C5010E94D7
:102860004B336BA37CA38DA39EA3ABCE1FA2A9CE9B
:1028700088EE96E00E94631DFFA1F13009F4A2C02A
:10288000511096C041108CC02AA1211183C060E074
:1028900088EE96E00E947E1E49A1622D88EE96E0A9
:1028A0000E94EA1EB80188EE96E00E948D1FC801C2
:1028B0000E940A058823B1F181E292E00E940C2671
:1028C0008091AF069091B006892B09F091C087E204
:1028D00095E00E940C2684E993E00E940C260E9459
:1028E000012680E00E94E21580E090E037CFF801F9
:1028F0008481282F2F70F0E13F9EC0011124822B8C
:10290000D80113969C911397292F207F98A59F702B
:10291000922B13969C938CCF00EE15E082CFBFEFE5
:10292000BFA34FCE81E292E00E940C268091AF06B9
:102930009091B006892B09F051C087E295E00E9482
:102940000C268BE192E00E940C260E940126C9CF42
:102950006FEA73E0C7010E949635892B09F052C0D7
:10296000A114B10461F0C5010E945635883091056B
:1029700030F4009729F127E0280F28A722CE0E94E3
:10298000A810ECCEE1E0EFA31CCE1BA21CA21DA25E
:102990001EA217CEB30188EE96E00E948A1F77CF61
:1029A000BE01635E7F4F88EE96E00E947D1F6CCF74
:1029B000BE016F5F7F4F88EE96E00E944C1F62CF92
:1029C00018A6FFCD61E088EE96E00E947E1E49A128
:1029D000622D88EE96E00E94EA1E69CF80E40E9494
:1029E000ED258091AF069091B0060E94E728A5CF13
:1029F00080E40E94ED258091AF069091B0060E9480
:102A0000E72865CF87EB91E00E940C268091AF0606
:102A10009091B006892B11F58AE30E94ED258FEB8A
:102A200091E00E940C2687E295E00E940C26C701E7
:102A30000E940C268AE00E94ED25C3CD2091B106AC
:102A4000312C18A6412C19A2212C1AA2612C712C10
:102A5000512C3EEF3FA301EB16E0E3CE80E40E9451
:102A6000ED258091AF069091B0060E94E728D4CF63
:102A70000F931F93CF93DF930E94FE0F8C0197FD5E
:102A800040C00E94E21F892B09F07FC0C091B706A9
:102A9000D091B8066091000170910101CE010E94B1
:102AA0009635892B09F44FC060910601709107019A
:102AB000CE010E949635892B09F45BC060910C0110
:102AC00070910D01CE010E949635892B09F454C0F6
:102AD0006091120170911301CE010E949635892BED
:102AE00009F44DC06091180170911901CE010E9446
:102AF0009635892B09F446C0DF91CF911F910F9134
:102B0000089581E292E00E940C268091AF06909198
:102B1000B006892B71F487E295E00E940C268BE1C8
:102B200092E00E940C26DF91CF911F910F910C949F
:102B3000012680E40E94ED258091AF069091B006B9
:102B40000E94E728E8CF80E090E0FC01EE0FFF1F35
:102B5000E80FF91FEE0FFF1FE050FF4F0280F381D7
:102B6000E02DB80187EB96E0DF91CF911F910F9197
:102B7000099481E090E0E9CF82E090E0E6CF83E045
:102B800090E0E3CF84E090E0E0CF0E94E51F81E297
:102B900092E00E940C268091AF069091B006892B9E
:102BA00039F487E295E00E940C2683EC93E0B9CFDC
:102BB00080E40E94ED258091AF069091B0060E94BE
:102BC000E728EFCF8823A1F0809191068F5F809353
:102BD000910604C080913508813041F484E690E08C
:102BE0000E949B2B809190068823A1F381E0089599
:102BF0008091910681508093910681E00895109212
:102C00008D0610928C0610928E0610928F061092EE
:102C1000870610927906109278061092E7061092B5
:102C200077061092760686E090E090937506809382
:102C300074060895EF92FF920F931F93CF93DF9343
:102C40000E94D32980937F0690917E06891709F40C
:102C500082C0811161C09FEF9093860680937E06AB
:102C60002091E706211109C02091A606211105C077
:102C700020919006222309F470C0809184069091DF
:102C8000850620919106222309F448C020919006E0
:102C900021111AC010928D0610928C0610928E0689
:102CA00010928F061092870610927906109278067D
:102CB0001092E706109277061092760626E030E032
:102CC000309375062093740621E0209390060196B8
:102CD000909385068093840680917F06882309F16E
:102CE000809182069091830601969093830680934B
:102CF00082068091860618160CF5109285061092B1
:102D000084061092830610928206DF91CF911F9164
:102D10000F91FF90EF90089591E09ECF1092900652
:102D2000D6CF80918006909181060196909381067E
:102D300080938006809186061816FCF2882329F37A
:102D40001092810610928006DF91CF911F910F9112
:102D5000FF90EF90089590E07FCF40917A065091D8
:102D60007B0660917C0670917D06411551056105D9
:102D7000710509F44BC04150510961097109409333
:102D80007A0650937B0660937C0670937D06452BF4
:102D9000462B472BD9F510928D0610928C06109277
:102DA0008E0610928F061092870610927906109266
:102DB00078061092E706109277061092760626E0C3
:102DC00030E03093750620937406913009F055CFAA
:102DD000209187068091840690918506AC0127306A
:102DE0000CF0F8C04C5051094D31510508F049CF55
:102DF000409182065091830644505109413151055A
:102E000008F03FCF2F5F209387063BCF81111FC073
:102E100080918F06882309F440C19F3F09F491C037
:102E200090918706973009F028CF21E0280F2831AC
:102E3000B8F010928F0680918E068F5F8A30B8F4BA
:102E400080938E0680918406909185061ACF2091FA
:102E5000800630918106213F310508F09CCFD8CF04
:102E6000809184069091850620938F060ACF109258
:102E70008E0620918C0630918D0620FDC0C0809179
:102E800074069091750640917606509177062F5FF3
:102E90003F4F30938D0620938C064817590708F44E
:102EA000ECCE8F30910509F474C0883A910509F48D
:102EB0006CC0069709F0E1CE809178069091790672
:102EC000892B01F58091E80691E0811190E0209135
:102ED000E906820F211190E02091EA06820F21116C
:102EE00090E02091EB06820F211190E02091EC06FA
:102EF000820F211102C0911105C09091ED06891732
:102F000009F4D0C010928D0610928C0610928E0695
:102F100010928F061092870610927906109278060A
:102F20001092E706109277061092760686E090E0FF
:102F3000909375068093740680918406909185061F
:102F4000A0CE2091820630918306E0918C06F0910C
:102F50008D06E170FF27EE0FFF1FE857F94F2C3069
:102F6000310530F521E030E0A90100908E0602C065
:102F7000440F551F0A94E2F720813181242B352B11
:102F800031832083909187064DCF83E08093E706BD
:102F900074CE8091F40687FD92C088EA90E0909309
:102FA000750680937406809184069091850669CE9B
:102FB00021E030E000908E0602C0220F331F0A94F9
:102FC000E2F72095309540815181242335233183C8
:102FD000208326CF4C5351094D33510508F051CE73
:102FE0004091820650918306445051094531510564
:102FF00008F047CE273009F044CE21E035CFC0910C
:103000007606D0917706C851D94F00918806109165
:1030100089067801FF24802F0E94AC1F811162C0B5
:1030200080E092E08E299F290817190709F45DC0F6
:1030300000918A0610918B067801FF24802F0E9450
:10304000AC1F882309F465C080E093E08E299F2996
:103050000817190709F460C087E78883809178060C
:103060009091790601969093790680937806409125
:1030700076065091770680917406909175068417B4
:10308000950728F520918C0630918D062F5F3F4FD4
:1030900030938D0620938C0604CF20918E0621114B
:1030A000BCCE93CE8091EC068F708F3011F181E011
:1030B0008093E7068091840690918506E2CD82E0B8
:1030C0008093E7068091840690918506DACD4F5F64
:1030D0005F4F509377064093760620918C0630918F
:1030E0008D06D5CE80E090E09DCF809188068883C4
:1030F000BECF8091E806807F8038C9F68FE090E0EF
:10310000909375068093740680918406909185064D
:10311000B8CD80E091E09ACF80918A068883A7CFCE
:103120000F931F93CF93DF938091A606811105C063
:10313000DF91CF911F910F91089590917206911197
:103140001FC020918F06223008F47DC010927306B4
:103150002F5F263008F44DC010928F0620918E0606
:103160002F5F233008F484C010928E06982F80E0E1
:1031700090937206DF91CF911F910F910C94D829F3
:1031800080917106811139C090918F0681E0923053
:1031900008F080E0809373069F5F943000F11092F6
:1031A0008F0690918E069F5F973008F455C010925D
:1031B0008E0681E0809371068091E806C82FD0E0EA
:1031C0000E94AC1F81114BC080E092E08C2B9D2BA4
:1031D000909389068093880680917306CBCF909355
:1031E0008F0610927106DF91CF911F910F910C9471
:1031F000D82980E020938F06BBCF20918E06422FE6
:1032000050E04350510990918F0657FD2BC09230EA
:1032100090F0943058F561E070E002C0660F771FBF
:103220004A95E2F740918806509189064623572334
:1032300081E0452BD9F4809373069F5F9630E0F4CC
:1032400090938F0697CF30918E0631117FCF31E06A
:10325000309373062F5FCECF90938E06C2CF80E05F
:1032600090E0B4CF211102C0923028F380E0E3CF88
:1032700020938E0680E07CCF10928F062F5F2D303A
:1032800018F420938E0676CF10928E06C0918C068D
:10329000D0918D062196D0938D06C0938C062091F7
:1032A000AD063091AE06C217D307D8F010928D0646
:1032B00010928C0610927106109272060E94D82904
:1032C0001092A60610928D0610928C0610928E0611
:1032D00010928F0680E0DF91CF911F910F910C9497
:1032E000D829FE01F695E795E851F94F8081082F1E
:1032F00010E00E94AC1FC0FF0DC0882381F080E069
:1033000093E0802B912B909389068093880680917F
:10331000730630CF811106C080E092E0F2CF80E0EA
:1033200091E0EFCF80E090E0ECCFCF93DF93FC0112
:1033300090818181980F8281980F8381980F848179
:10334000890F95818913C6C1880F613009F4C6C100
:103350009681980F2781920F2085920F2185920FD9
:103360008285980F8385980F8485980F8585980F9F
:1033700086859813AFC1990F623009F4AFC12785D4
:103380008089280F8189280F8289280F8389280F37
:103390008489280F8589280F8689280F920F8789AD
:1033A000981398C1208D818D820F228D820F238DDD
:1033B000820F248D820F258D820F268D820F378DEF
:1033C000830F890F292F280F80A1281383C191A172
:1033D00082A1890F93A1890F94A1890F95A1890FCB
:1033E00096A1890F97A1890F90A5890F820F982F19
:1033F000920F81A598136EC122A583A5820F24A5E3
:10340000820F25A5820F26A5820F27A5820F20A94E
:10341000820F21A9820F890F890F92A989135AC19E
:1034200024A993A9920F25A9920F26A9920F27A943
:10343000920F20AD920F21AD920F22AD920F980FF7
:10344000890F23AD281346C195AD84AD890F96AD84
:10345000890F97AD890FDF01A05CBF4F9C91890F49
:1034600011969C91890F11969C91890F11969C91B0
:10347000890F820F820F11969C9198132BC112967F
:103480002C9111979C91920F12962C91920F11965C
:103490002C91920F11962C91920F11962C91920FC4
:1034A00011962C91920F11962C91920F980F890FD3
:1034B00011964C9148130EC112969C9111978C91C4
:1034C000890F12969C91890F11969C91890F1196E4
:1034D0009C91890F11969C91890F11969C91890F4F
:1034E00011969C91890F840F480F11969C9194130B
:1034F000F1C011968C9111964C91840F11964C91BC
:10350000840F11964C91840F11964C91840F119653
:103510004C91840F11964C91840F11964C91840F0D
:10352000890F292F280F11968C912813D3C011963B
:103530009C9111968C91890F11969C91890F1196EF
:103540009C91890F11969C91890F11969C91890FDE
:1035500011969C91890F11969C91890F820F922F41
:10356000980F11968C919813B5C011963C911196B5
:103570008C91380F11968C91380F11968C91380FD1
:1035800011968C91380F11968C91380F11968C9161
:10359000380F11968C91380F390F892F830F1196A0
:1035A0009C91891397C011962C9111969C91290F8B
:1035B00011969C91290F11969C91290F11969C911F
:1035C000290F11969C91290F11969C91290F119604
:1035D0009C91290F280F382F320F11968C91381398
:1035E00079C011969C9111968C91980F11968C919F
:1035F000980F11968C91980F11968C91980F1196A7
:103600008C91980F11968C91980F11968C91980F20
:10361000930F232F290F11968C9128135BC01196BD
:103620009C9111968C91890F11969C91890F1196FE
:103630009C91890F11969C91890F11969C91890FED
:1036400011969C91890F11969C91890F820F922F50
:10365000980F11968C9198133DC011962C9111964C
:103660008C91820F11962C91820F11962C91820FC2
:1036700011962C91820F11962C91820F11962C91FC
:10368000820F11962C91820F890F890F11969C91B0
:10369000891320C0EF01CA56DF4F129628819C91F2
:1036A000920F11962C91920F11962C91920F1196C8
:1036B0002C91920F11962C91920F11962C91920FA2
:1036C00011962C91920F980F980FE256FF4F81E0C0
:1036D0002081921380E0DF91CF91089581E0DF9106
:1036E000CF910895CF93DF93FC0190818181980F52
:1036F0008281980F8381980F8481890F8583880F39
:10370000613009F49EC19681980F2781920F208520
:10371000920F2185920F8285980F8385980F84855B
:10372000980F8585980F9687990F623009F489C1A3
:1037300037858089380F8189380F8289380F8389CE
:10374000380F8489380F8589380F8689380F390FEB
:10375000378B908D818D890F928D890F938D890F75
:10376000948D890F958D890F968D890F478D840FC4
:10377000830F932F980F90A331A182A1380F83A1BB
:10378000380F84A1380F85A1380F86A1380F87A183
:10379000380F80A5380F390F832F890F81A722A5F5
:1037A00093A5290F94A5290F95A5290F96A5290F53
:1037B00097A5290F90A9290F91A9290F280F322F1A
:1037C000380F32AB93A984A9980F85A9980F86A9C1
:1037D000980F87A9980F80AD980F81AD980F82AD93
:1037E000980F930F292F230F23AF95AD84AD890F29
:1037F00096AD890F97AD890FDF01A05CBF4F9C91FB
:10380000890F11969C91890F11969C91890F1196A1
:103810009C91890F820F982F920F11969C93EF0124
:10382000CA5BDF4F119628818C91820F12962C91E2
:10383000820F11962C91820F11962C91820F119666
:103840002C91820F11962C91820F11962C91820F40
:10385000890F890F11968C932996119628819C9136
:10386000920F12962C91920F11962C91920F119605
:103870002C91920F11962C91920F11962C91920FE0
:1038800011962C91920F980F890F11968C9329966F
:10389000119628819C91920F12962C91920F11965D
:1038A0002C91920F11962C91920F11962C91920FB0
:1038B00011962C91920F11962C91920F980F890FBF
:1038C00011968C932896129628819C91920F1196AE
:1038D0002C91920F11962C91920F11962C91920F80
:1038E00011962C91920F11962C91920F11962C916A
:1038F000920F980F890F11968C9329961296288112
:103900009C91920F11962C91920F11962C91920FDF
:1039100011962C91920F11962C91920F11962C9139
:10392000920F11962C91920F980F890F11968C93EC
:103930002996129628819C91920F11962C91920FA4
:1039400011962C91920F11962C91920F11962C9109
:10395000920F11962C91920F11962C91920F980F15
:10396000890F11968C932996129628819C91920F1B
:1039700011962C91920F11962C91920F11962C91D9
:10398000920F11962C91920F11962C91920F1196E5
:103990002C91920F980F282F290F11962C9329966E
:1039A000129698818C91890F11969C91890F11968E
:1039B0009C91890F11969C91890F11969C91890F6A
:1039C00011969C91890F11969C91890F820F280F57
:1039D00011962C932996129698818C91890F1196A5
:1039E0009C91890F11969C91890F11969C91890F3A
:1039F00011969C91890F11969C91890F11969C911B
:103A0000890F820F820F11968C9329961296288126
:103A10009C91920F11962C91920F11962C91920FCE
:103A200011962C91920F11962C91920F11962C9128
:103A3000920F11962C91920F980FE256FF4F890F1B
:103A40008083DF91CF9108950F931F93CF93DF93DE
:103A5000EC01162F0E9475248EEF810F823028F022
:103A6000DF91CF911F910F9108952696123039F171
:103A700060E002E110E0809138088530C8F0C801AC
:103A8000880F991F880F991F880F991F080F191FFA
:103A90000C0F1D1F69E070E0CE010E94812929965C
:103AA000C017D107B9F7DF91CF911F910F910895FA
:103AB000CE01DF91CF911F910F910C948A2461E088
:103AC00001E010E0D8CFCF93DF93FC01DC01169624
:103AD00088E0ED0119928A95E9F79FEF97878FE0CB
:103AE000808B918B828B938B848B958B868B908F25
:103AF000818F928F838F948F858F968F878F91A3DD
:103B000082A393A384A395A386A397A380A792A738
:103B100083A794A785A796A787A790AB81AB93AB04
:103B200084AB95AB86AB97AB80AF91AF82AF94AFD0
:103B300085AF96AF87AFDA969C9311968C931196CA
:103B40009C9311968C9312969C9311968C9311973B
:103B500012969C93129713968C93139714969C939A
:103B6000149715968C93159716969C9316971796FF
:103B70008C93179719969C9311968C931197129684
:103B80009C93129713968C93139714969C93149767
:103B900015968C93159716969C93169717968C935B
:103BA000179719969C9311968C93119712969C9344
:103BB000129713968C93139714969C9314971596BB
:103BC0008C93159716969C93169717968C93179728
:103BD00019969C9311968C93119712969C93129719
:103BE00013968C93139714969C93149715968C9315
:103BF000159716969C93169717968C931797199668
:103C00009C9311968C93119712969C9312971396EE
:103C10008C93139714969C93149715968C931597E1
:103C200016969C93169717968C93179719969C93B4
:103C300011968C93119712969C93129713968C93CE
:103C4000139714969C93149715968C931597169624
:103C50009C93169717968C93179719969C93119689
:103C60008C93119712969C93129713968C9313979B
:103C700014969C93149715968C93159716969C936F
:103C8000169717968C93179719969C9311968C9369
:103C9000119712969C93129713968C9313971496E0
:103CA0009C93149715968C93159716969C9316973C
:103CB00017968C93179719969C9311968C9311973E
:103CC00012969C93129713968C93139714969C9329
:103CD000149715968C93159716969C93169717968E
:103CE0008C93EA56FF4F90838183928383839483DE
:103CF000858396838783DF91CF910895DF92EF923A
:103D0000FF920F931F93CF93DF9300D000D0CDB7D6
:103D1000DEB78C01D62E80E090E00E94282C6983CB
:103D20007A838B839C83CE0101960E94312C7C0187
:103D3000FC0180810E94BA1FF8018683F70181810E
:103D40000E94BA1FF8018783F70182810E94BA1F7F
:103D5000F8018087F70183810E94BA1FF8018287EA
:103D6000F70185818F5F0E94BA1FF8018387DD20EC
:103D700051F187E820E8F7019481992311F0892F08
:103D8000822BF801848781E090E0F701048002C073
:103D9000880F991F0A94E2F7F8018187F70182855D
:103DA0009385F801892B91F485858B7F85870F900A
:103DB0000F900F900F90DF91CF911F910F91FF9077
:103DC000EF90DF90089587E020E0D5CF858584606F
:103DD0008587EDCFFC0140FF05C0858560FF59C098
:103DE00081608587942F9695262F269590FF05C094
:103DF000858520FF4BC0826085879695269590FF2C
:103E000005C0858520FF3FC08460858796952695EF
:103E100090FF05C0858520FF33C088608587969513
:103E2000269590FF05C0858520FF27C08061858786
:103E30009695269590FF05C0858520FF1BC0806262
:103E400085879695269590FF05C0858520FF0FC034
:103E50008064858796952695992341F08585222350
:103E600019F08068858708958F77858708958F7BFF
:103E70008587F0CF8F7D8587E4CF8F7E8587D8CFEC
:103E8000877F8587CCCF8B7F8587C0CF8D7F8587C8
:103E9000B4CF8E7F8587A6CFCF93DF93EC01FB0154
:103EA000808191819C8B8B8B828193819E8B8D8B6A
:103EB000DE015896349688E001900D928A95E1F7DC
:103EC000DE019196FB013C9688E001900D928A9567
:103ED000E1F7FB01848995899BA78AA78689978941
:103EE0009DA78CA7808D918D988B8F87828D938DC8
:103EF0009A8B898BDF91CF910895FB0120813181CD
:103F0000FC0137A726A7FB0122813381FC0131ABDD
:103F100020AB0895C3960C945305FB01DC01A15618
:103F2000BF4F1C92208111962C93218111962C93C6
:103F30002281FC01EE55FF4F2083319623E520833B
:103F400031961082319620E12083319621E1208341
:103F5000319625E020830895982F92959F708927A8
:103F6000982F969596958927982F969589278095CD
:103F7000817008956AE070E090E00E946A2F9B01D2
:103F800022953295307F3227207F32278F70822B07
:103F900008956AE070E090E00E946A2FAC016930F9
:103FA000710549F0262F2295207F4930510539F0BF
:103FB0008F70822B089520EF49305105C9F78FE0AB
:103FC000822B089580919906089580919906811118
:103FD00001C0089582E080939F0680919E06807FB5
:103FE000836080939E068AE996E00E94872304C03E
:103FF0008AE996E00E9487238AE996E00E94B2044B
:104000008111F6CF8EE094E00E940C261092970664
:10401000109298061092990680E00C94E2150F9386
:104020001F93CF938C0180919906882359F182E0E8
:1040300080939F0680919E06807F836080939E067A
:104040008AE996E00E94872304C08AE996E00E94EC
:1040500087238AE996E00E94B204C82F8111F5CF28
:104060008EE094E00E940C2610929706109298061B
:104070001092990680E00E94E2158C2FCF911F913B
:104080000F9108950E94E229C82F81114BC0F801B9
:104090008081807F803891F184818F70843009F431
:1040A00047C0853051F78AE0809396068EE394E00E
:1040B0000E940C2686E0F801AAE9B6E001900D9274
:1040C0008A95E1F781E0809399060E94E21580E0ED
:1040D00090E00E94282CDC01CB014E96A11DB11D61
:1040E0008093920690939306A0939406B0939506BE
:1040F000C1E08C2FCF911F910F910895F80183811A
:104100008F7090E00897079708F0B7CF8481282F29
:1041100022952F7030E0215031092730310508F405
:10412000BCCFABCF8BE194E00E940C26C0E0A5CFC2
:1041300089E080939606BACF0F931F93CF93809117
:104140009906882321F08091A606882321F0CF913B
:104150001F910F9108950E94E229811130C0C0E0A3
:104160000E94E229882329F0809196068A3009F47A
:1041700051C080919806811128C0809197068111C5
:104180002EC0C0939806C11198C01092970680E087
:1041900090E00E94282C00919206109193062091A5
:1041A000940630919506061717072807390708F077
:1041B000BFC0809199068111A2C080E0C8CFC1E044
:1041C00080919606893059F6CBCFC0939806CC23C0
:1041D00009F451C080919706882309F4B8CF109252
:1041E000970682E080939F0680919E06807F836081
:1041F00080939E068AE996E00E94872304C08AE99C
:1042000096E00E9487238AE996E00E94B204811119
:10421000F6CF9DCFCC2309F4A3C0809199068823C3
:1042200061F282E080939F0680919E06807F83608A
:1042300080939E068AE996E00E94872304C08AE95B
:1042400096E00E9487238AE996E00E94B2048111D9
:10425000F6CF8EE094E00E940C2610929706109202
:1042600098061092990680E00E94E21580E06FCFD8
:1042700010929806C1E082E080939F0680919E068E
:10428000807F836080939E068AE996E00E94872360
:1042900004C08AE996E00E9487238AE996E00E949A
:1042A000B2048111F6CF80919706882309F44FCF8D
:1042B000C0939706C1114BCF94CF10929F06809167
:1042C0009E06807F896080939E068AE996E00E9420
:1042D00087238AE996E00E94B20480E090E00E9481
:1042E000282CDC01CB014E96A11DB11D80939206B6
:1042F00090939306A0939406B093950628CF82E0FE
:1043000080939F0680919E06807F836080939E06A7
:104310008AE996E00E94872304C08AE996E00E9419
:1043200087238AE996E00E94B2048111F6CF91CFEB
:1043300080E090E00E94282CDC01CB014F96A11D6B
:10434000B11D009192061091930620919406309130
:10435000950680179107A207B30708F42ACFF7CE76
:1043600080919806811184CF80919706882321F04F
:1043700081E080939706EBCE1092980681E08093BF
:10438000970610929F0680919E06807F8A609BCF41
:10439000FC0180819181A281B381B23C20F08058E0
:1043A000924AA149B44BBC01CD016059794A8D4E66
:1043B000984D20E83AE349E050E00E947E2FDA0170
:1043C000C901880F991FAA1FBB1F880F991FAA1F19
:1043D000BB1F880F991FAA1FBB1F821B930BA40B27
:1043E000B50BBC01CD01660F771F881F991F660FA3
:1043F000771F881F991F25EB35E040E050E00E94B1
:104400007E2F6835734018F480E19EE0089580E0C7
:1044100090E0089580E19EE00895FC018081918103
:10442000A281B381B23C20F08058924AA149B44B9A
:10443000BC01CD016059794A8D4E984D20E83AE390
:1044400049E050E00E947E2FDA01C901880F991FD0
:10445000AA1FBB1F880F991FAA1FBB1F880F991F78
:10446000AA1FBB1F821B930BA40BB50BBC01CD0174
:10447000660F771F881F991F660F771F881F991F68
:1044800025EB35E040E050E00E947E2F6835734018
:1044900018F480E19EE0089580E090E008950F9385
:1044A0001F93CF93DF9300D000D0CDB7DEB78C0140
:1044B00080E090E00E94282C69837A838B839C8320
:1044C000CE0101960E94312CB8010E941A2E84E57B
:1044D000F801828781E00F900F900F900F90DF918D
:1044E000CF911F910F9108950F931F93CF93DF9357
:1044F000CDB7DEB7A0970FB6F894DEBF0FBECDBF25
:10450000FC0101900020E9F79F012451310928178F
:10451000390761F080E0A0960FB6F894DEBF0FBEB9
:10452000CDBFDF91CF911F910F910895BC0143E161
:1045300050E0CE0101960E949F351C8A8E010B5ED1
:104540001F4F8CE0F80111928A95E9F76AE474E054
:10455000CE0101960E947D350097E1F20E9456350A
:104560008C5697409C8F8B8F6AE474E080E090E0DB
:104570000E947D35009771F20E94563581508A8FD6
:104580006CE474E080E090E00E947D35009711F2C9
:104590000E945635888F60E574E080E090E00E94CC
:1045A0007D35009709F4B6CF0E9456358F8B60E5B4
:1045B00074E080E090E00E947D35009709F4AACF76
:1045C0000E9456358E8B6EE171E080E090E00E9493
:1045D0007D35009709F49ECF0E9456358D8B8FEF65
:1045E0009FEF98A38F8FC8010E94AF2C61157105B2
:1045F0008105910509F48ECF22E0209390070E9457
:10460000212F81E088CFCF92DF92EF92FF9220E0BE
:1046100030E041E655E460912C0870912D088091BE
:104620002E0890912F080E9467320E94E9300E9464
:104630002A2F20E030E041E655E460912408709193
:10464000250880912608909127080E9467320E94D1
:10465000E9306B017C0120E030E041E655E46091F7
:1046600028087091290880912A0890912B080E94AF
:1046700067320E94E930A70196010E949E2C80912A
:1046800030088230E1F0833091F0813041F080E0F9
:1046900090E0FF90EF90DF90CF900C941C2D88EC71
:1046A00091E2FF90EF90DF90CF900C941C2D8AE068
:1046B00092E2FF90EF90DF90CF900C941C2D8DE054
:1046C00092E2FF90EF90DF90CF900C941C2DFC01B4
:1046D000CB01AA27BB2780835183428322E1238316
:1046E00014822FEF25839927AA27BB2780329105B3
:1046F000A105B10549F080399105A105B10519F46D
:1047000087E183830895089581E183830895FC01FF
:104710008081807F803891F09381292F22952F709E
:104720002F5F2F7031F02295207F9F70922B938303
:10473000089520E19F70922B938308958581181628
:104740005CF784818F70833039F30895CF93DF93C2
:104750000E9467040E949C200E94750FEC01892B27
:1047600009F453C00E940126CE010E943815109210
:10477000A0068091E706882309F444C08091E706EB
:104780008130C9F060F0843050F482E594E00E94FA
:104790000C266091E70688EE96E00E94241D609149
:1047A000E70688EE96E00E949519882319F1DF91BB
:1047B000CF910C94FF1585E0E8EEF6E0A1EEB6E0AF
:1047C00001900D928A95E1F780E090E00E94C91077
:1047D0008FE494E00E940C266091E70688EE96E054
:1047E0000E94241D6091E70688EE96E00E949519CC
:1047F0008111DDCF88E694E00E940C26DF91CF91F5
:104800000C94FF15DF91CF9108958091A00681113E
:10481000B0CF0E94710F81E08093A006AACFCF9302
:10482000DF938BE794E00E940C268BEB94E00E94D0
:104830000C26CCE1D8E0688179818A819B8140E0B7
:104840000E94B82686EC94E00E940C266C817D8143
:104850008E819F8140E00E9487278DEC94E00E942A
:104860000C2680ED94E00E940C26688579858A8567
:104870009B8545E050E00E94DA2782EE94E00E949A
:104880000C266C857D858E859F8545E050E00E94D5
:10489000DA278DEE94E00E940C26688979898A894E
:1048A0009B8942E050E00E94DA278DEC94E00E9460
:1048B0000C2689EF94E0DF91CF910C940C260E9496
:1048C000032340911C0850911D0860911E087091AF
:1048D0001F0881EB96E00E9467230E940F2483E06B
:1048E0000E94012A80E090E008950F931F93CF93D8
:1048F000DF93EC018C010A5F1F4F61E089910E94F8
:104900004726C017D107C9F7DF91CF911F910F91AB
:104910000C9401268F929F92AF92BF92CF92DF921A
:10492000EF92FF920F931F93CF93DF93CDB7DEB734
:1049300060970FB6F894DEBF0FBECDBF6C01162F87
:1049400080E1E0E2F1E0DE01119601900D928A959E
:10495000E1F784E295E00E940C26D60114968C9132
:104960000E941F298AE295E00E940C26F6018581AB
:104970000E941F298CE295E00E940C26D601169613
:10498000EC91E770F0E0EE0FFF1F81E090E08C0FFC
:104990009D1FE80FF91F808191810E940C268DE2F6
:1049A00095E00E940C26D60112968C910E941F2938
:1049B00080E594E00E940C26F60181810E941F2967
:1049C00080E594E00E940C26D6018C910E941F295C
:1049D000F601878182FD78C00E940126111161C015
:1049E000D60117968C9187FD79C080FD72C08DE548
:1049F00095E00E940C265601F9E0AF0EB11C76013D
:104A00008DE2E80EF11C450188E0880E911C8501BD
:104A1000D80111968C910E941F2980E594E00E9494
:104A20000C26F80180810E941F2987E092E00E94F5
:104A30000C260E5F1F4F8016910651F70E9401262B
:104A4000F9E0AF0EB11CEA14FB04E9F68AE695E042
:104A50000E940C26560199E9A90EB11C670188E055
:104A6000C80ED11C8701D80111968C910E941F2974
:104A700080E594E00E940C26F80180810E941F29A5
:104A800087E092E00E940C260E5F1F4F0C151D055B
:104A900051F70E940126F9E0EF0EF11CEA14FB0425
:104AA000E9F660960FB6F894DEBF0FBECDBFDF917A
:104AB000CF911F910F91FF90EF90DF90CF90BF901B
:104AC000AF909F908F90089580E395E00E940C2610
:104AD00083CF8AE495E00E940C2689CF85E395E098
:104AE0000E940C26F601878180CF0F931F93CF93EE
:104AF000DF9300D01F92CDB7DEB7182F40E1BE0183
:104B00006F5F7F4F90E00E94D535107FE1F1A7E9FC
:104B1000B5E08C91E0919507F09196078823D1F14B
:104B2000309789F08D010F5F1F4F0995019671F144
:104B3000F80181918F01882349F1E0919507F09167
:104B40009607309791F78981811115C0E0E0F0E078
:104B5000309789F008E012E08CE20995019659F04F
:104B6000F80181918F01882331F0E0919507F09150
:104B70009607309791F70F900F900F90DF91CF919C
:104B80001F910F910895A3E9B5E0C3CFE091950778
:104B9000F091960789818823D9F2309761F38E01CD
:104BA0000E5F1F4F0995019699F0F80181918F01D1
:104BB000882371F0E0919507F0919607309791F76F
:104BC0000F900F900F90DF91CF911F910F9108954B
:104BD000E0919507F0919607BBCFE0919507F09192
:104BE0009607309709F009948FEF9FEF0895E091B1
:104BF0009307F0919407309709F009948FEF9FEF96
:104C00000895E0919507F0919607309711F08AE0AA
:104C100009948FEF9FEF0895CF93DF93EC01888184
:104C20008823C1F0E0919507F0919607309769F0DD
:104C300021960995019649F08991882359F0E091D0
:104C40009507F09196073097A1F78FEF9FEFDF91CF
:104C5000CF91089580E090E0DF91CF910895CF93B8
:104C6000DF93EC01FE018491882361F0E0919507C8
:104C7000F0919607309709F009952196FE018491ED
:104C80008111F4CF80E090E0DF91CF910895FF9201
:104C90000F931F93CF93DF9300D01F92CDB7DEB752
:104CA000182FF62E40E1BE016F5F7F4F90E00E940B
:104CB000D535107F09F059C0A3E9B5E08C91882360
:104CC000C9F1E0919507F0919607309789F08D0131
:104CD0000F5F1F4F0995019669F1F80181918F01CE
:104CE000882341F1E0919507F0919607309791F76D
:104CF000FF20B9F0E0919507F0919607309789F081
:104D000008E012E08CE20995019659F0F8018191D2
:104D10008F01882331F0E0919507F0919607309745
:104D200091F70F900F900F90DF91CF911F910F91FE
:104D3000FF90089589818823D9F2E0919507F09139
:104D400096073097A9F28E010E5F1F4F09950196C5
:104D500079F2F80181918F01882351F2E091950752
:104D6000F0919607309791F7C3CFA7E9B5E0A6CFAA
:104D70008F929F92AF92BF92FF920F931F93CF9308
:104D8000DF93CDB7DEB72A970FB6F894DEBF0FBE1C
:104D9000CDBF4B015C01F42E20E1AE014F5F5F4FB0
:104DA0000E94EB35D501C401807F892B8A2B8B2B88
:104DB000D9F1D501C4018827892B8A2B8B2B09F4C3
:104DC00094C0D501C4018827907F892B8A2B8B2B17
:104DD00009F48EC0D501C40188279927892B8A2B15
:104DE0008B2B09F488C0D501C40188279927A07F9F
:104DF000892B8A2B8B2B09F481C0D501C40188270C
:104E00009927AA27892B8A2B8B2B09F47AC088240F
:104E10009924AA2420EFB22289288A288B2809F411
:104E200073C0A7E9B5E002C0AEEAB5E08C91882373
:104E300009F440C0E0919507F0919607309789F00A
:104E40008D010F5F1F4F09950196A1F1F801819126
:104E50008F01882379F1E0919507F09196073097BB
:104E600091F7FF20B9F0E0919507F0919607309700
:104E700089F008E012E08CE20995019659F0F801FA
:104E800081918F01882331F0E0919507F091960789
:104E9000309791F72A960FB6F894DEBF0FBECDBFBC
:104EA000DF91CF911F910F91FF90BF90AF909F9096
:104EB0008F90089589818823A1F2E0919507F09160
:104EC0009607309771F28E010E5F1F4F099501967C
:104ED00041F2F80181918F01882319F2E091950741
:104EE000F0919607309791F7BCCFA5EAB5E09ECF39
:104EF000AFEBB5E09BCFA8EBB5E098CFAFE9B5E05D
:104F000095CFAAE9B5E092CFA3E9B5E08FCFFF92A4
:104F10000F931F93CF93DF93CDB7DEB72C970FB6C8
:104F2000F894DEBF0FBECDBFF42E2AE0AE014F5F76
:104F30005F4F0E94EB3589818823B9F0E091950796
:104F4000F0919607309789F08E010E5F1F4F0995FB
:104F5000019659F0F80181918F01882331F0E09199
:104F60009507F0919607309791F7FF20B9F0E091FF
:104F70009507F0919607309789F008E012E08CE2EF
:104F80000995019659F0F80181918F01882331F03C
:104F9000E0919507F0919607309791F72C960FB610
:104FA000F894DEBF0FBECDBFDF91CF911F910F915F
:104FB000FF9008952F923F924F925F926F927F924F
:104FC0008F929F92AF92BF92CF92DF92EF92FF9219
:104FD0000F931F93CF93DF93CDB7DEB72C970FB608
:104FE000F894DEBF0FBECDBF4B015C018A010E9469
:104FF000E9302B013C011B014AE0BE016F5F7F4F8E
:10500000C2010E94D535DC018C91E0919507F091A9
:105010009607882309F495C03097A1F07D012FEF02
:10502000E21AF20A0995019609F487C0F701819105
:105030007F01882309F481C0E0919507F0919607DC
:10504000309781F7B201550C880B990B0E942131E2
:105050009B01AC01C501B4010E9405306B017C01CC
:1050600037FC75C020E030E040E85FE361E070E0CD
:1050700080E090E0101611060CF520E030E0DC0135
:10508000CB01880F991FAA1FBB1F2C013D01440CA7
:10509000551C661C771C440C551C661C771CBC01F7
:1050A000CD01640D751D861D971D2F5F3F4F0217A3
:1050B000130729F70E9421319B01AC01C701B601FA
:1050C0000E9467320E94F0302AE0AE014F5F5F4FCE
:1050D0000E94EB3589818823B9F0E0919507F09122
:1050E0009607309789F08E010E5F1F4F0995019644
:1050F00059F0F80181918F01882331F0E0919507F3
:10510000F0919607309791F72C960FB6F894DEBF82
:105110000FBECDBFDF91CF911F910F91FF90EF9008
:10512000DF90CF90BF90AF909F908F907F906F90C7
:105130005F904F903F902F900895E0919507F091E8
:105140009607309709F47ECF8EE209957BCF20E059
:1051500030E040E85FEB6FEF7FEFCB018BCF0F9339
:105160001F93CF93DF93CDB7DEB72D970FB6F8948B
:10517000DEBF0FBECDBF9A01AE014F5F5F4F0E94F1
:10518000E035DC018C918823B9F0E0919507F0912E
:105190009607309789F08D010F5F1F4F0995019693
:1051A00059F0F80181918F01882331F0E091950742
:1051B000F0919607309791F72D960FB6F894DEBFD1
:1051C0000FBECDBFDF91CF911F910F9108950F9327
:1051D0001F93CF93DF93CDB7DEB72A970FB6F8941E
:1051E000DEBF0FBECDBF4AE0BE016F5F7F4F0E94A2
:1051F000D535DC018C918823B9F0E0919507F091C9
:105200009607309789F08D010F5F1F4F0995019622
:1052100059F0F80181918F01882331F0E0919507D1
:10522000F0919607309791F72A960FB6F894DEBF63
:105230000FBECDBFDF91CF911F910F910895FF92C7
:105240000F931F93CF93DF93CDB7DEB72A970FB697
:10525000F894DEBF0FBECDBFF82E82958F7040E16F
:10526000BE016F5F7F4F90E00E94D535DC018C91CD
:105270008823B9F0E0919507F0919607309789F06F
:105280008D010F5F1F4F0995019659F0F80181912B
:105290008F01882331F0E0919507F09196073097C0
:1052A00091F78F2D8F7040E1BE016F5F7F4F90E0CF
:1052B0000E94D535DC018C918823B9F0E0919507E7
:1052C000F0919607309789F08D010F5F1F4F099578
:1052D000019659F0F80181918F01882331F0E09116
:1052E0009507F0919607309791F72A960FB6F894A4
:1052F000DEBF0FBECDBFDF91CF911F910F91FF9009
:1053000008950F931F93CF93DF931616170654F447
:10531000EC018C01060F171F89910E947525C0179B
:10532000D107D1F7E0919507F0919607309731F0CA
:105330008AE0DF91CF911F910F910994DF91CF9176
:105340001F910F9108950E94C3290E94DE29609148
:1053500020087091210880912208909123080E94D2
:105360007D2A0E94602B87E29AE2909396078093B1
:1053700095078BE59AE290939407809393070E9498
:10538000192C7894089541E450E064E070E08CE1D9
:1053900098E00C94513641E450E064E070E08CE118
:1053A00098E00C94613689B182FB882780F90895D2
:1053B000811102C02B9808952B9A08955298239A30
:1053C0002B98089580E008950E94A32987EC95E02A
:1053D0000E940C260E945F2483B7816083BF88955A
:1053E00083B78E7F83BF0E94A623F6CF98E088E123
:1053F0000FB6F894A895809360000FBE909360005C
:10540000FFCF579A579A569A482F50E0440F551F8E
:1054100090E012C05F9A5E9A5F9A292F30E02417BD
:105420003507A4F42FEF34E38CE021503040804066
:10543000E1F700C000009F5F90FDECCF5F985E98A1
:105440005F98292F30E02417350764F308952091E1
:105450005F0890917A0830E02F5F3F4F29272F7027
:105460003327232B41F493B7916093BF889593B76B
:105470009E7F93BFECCF20915F0890917A0830E037
:105480002F5F3F4F29272F703327232B89F09091CF
:105490005F089F5F90935F08E0915F08EF70F0E016
:1054A000E759F74F80838091C10080628093C100EB
:1054B00080E090E0089590915D0880915E088927D2
:1054C0008770C1F090915D0880915E088927877090
:1054D00019F480E090E0089580915E088F5F8093DA
:1054E0005E08E0915E08E770F0E0EF59F74F8081C9
:1054F00090E008958FEF9FEF08954F925F926F9223
:105500007F928F929F92AF92BF92CF92DF92EF9253
:10551000FF920F931F93CF93DF9300D000D000D062
:10552000CDB7DEB72B013C016B017C01CC0CDD1C3F
:10553000EE1CFF1CCC0CDD1CEE1CFF1CCC0CDD1C7F
:10554000EE1CFF1C812C54E2952E54EFA52EB12C9D
:10555000C501B401A70196010E947E2F29833A83D9
:105560004B835C8389819A8101979E838D8391E42B
:10557000491692E459069FE06906710408F070C06C
:10558000A7019601220F331F441F551FC501B40107
:105590000E947E2F69017A0122953295307F322751
:1055A000207F322740E050E0C501B4010E947E2FE9
:1055B000CA01B901A30192010E947E2F11E0012FBF
:1055C000021B89819A81880F991F880F991F880F64
:1055D000991F9C0140E050E0C501B4010E947E2F5C
:1055E000CA01B901A30192010E947E2F121B10175C
:1055F00058F191E0C91AD108C092C400D092C500F8
:105600008091C0008D7F8093C00088E18093C100AD
:105610001092C00086E08093C20026960FB6F894E0
:10562000DEBF0FBECDBFDF91CF911F910F91FF90D5
:10563000EF90DF90CF90BF90AF909F908F907F9032
:105640006F905F904F9008959D819093C4008E81DC
:105650008093C5008091C00082608093C000D5CF48
:105660008093C400F4CF1F920F920FB60F921124B3
:105670008F939F93EF93FF9390915F0880917A08A7
:1056800089278F70B9F080917A088F5F80937A08AC
:10569000E0917A08EF70F0E0E759F74F808180934E
:1056A000C600FF91EF919F918F910F900FBE0F90C9
:1056B0001F9018958091C1008F7D8093C100F1CF1C
:1056C000E1ECF0E080818068808308951F920F9262
:1056D0000FB60F9211242F938F939F93EF93FF9305
:1056E00080915D0820915E0890E001968227877086
:1056F0009927892BC1F080915D088F5F80935D08A9
:10570000E0915D08E770F0E08091C600EF59F74F37
:105710008083FF91EF919F918F912F910F900FBEFA
:105720000F901F9018958091C6008093790881E0B2
:1057300080937908EECF8FE891E00197F1F700C0F0
:10574000000008951F920F920FB60F9211242F930D
:105750003F934F935F936F937F938F939F93AF93F9
:10576000BF93EF93FF9380913608813009F453C0C3
:1057700080913508813009F459C080913708813013
:1057800089F0FF91EF91BF91AF919F918F917F91A0
:105790006F915F914F913F912F910F900FBE0F909E
:1057A0001F9018958091A1069091A206A091A30642
:1057B000B091A406AC01BD014150510961097109C4
:1057C0004093A1065093A2066093A3067093A4068B
:1057D000892B8A2B8B2BA9F66091310870913208A6
:1057E000809133089091340820E533EC40E050E09C
:1057F0000E947E2FDA01C901805E914BAF4FBF4FEF
:105800008093A1069093A206A093A306B093A4064A
:105810000E944B04B6CF8091A5068F5F8093A506AA
:10582000837009F0A5CF0E949018A2CF0E941A168B
:10583000A4CF1092800089E08093810080E293E001
:10584000909389008093880082E080936F00089590
:1058500060917F0870918008809181089091820802
:1058600008956DE878E00E94382C8DE898E008955E
:10587000CF92DF92EF92FF920F931F93CF93DF931C
:1058800000D000D0CDB7DEB76C017B01E09183087A
:10589000F09184083097D1F16BE778E009958C019D
:1058A000F601408151816281738180917B089091E2
:1058B0007C08A0917D08B0917E08840F951FA61FDB
:1058C000B71F101611064CF4A801012E000C660B30
:1058D000770B840F951FA61FB71F89839A83AB830D
:1058E000BC83B701CE0101960E94212DF7011387D9
:1058F00002870F900F900F900F90DF91CF911F9123
:105900000F91FF90EF90DF90CF900895FC014081C0
:1059100051816281738180917B0890917C08A09174
:105920007D08B0917E08840F951FA61FB71F89833D
:105930009A83AB83BC830FEF1FEFD3CF60938508AF
:10594000709386088093870890938808209389082D
:1059500030938A0840938B0850938C0808958F9257
:105960009F92AF92BF92EF92FF920F931F93CF93AC
:10597000DF9300D000D0CDB7DEB78C010E946D2E32
:1059800069837A838B839C83F8018284938497FC58
:1059900038C09E012F5F3F4F79011814190444F459
:1059A000092C000CAA08BB08681979098A099B0907
:1059B00080907B0890907C08A0907D08B0907E0835
:1059C000DC01CB0188199909AA09BB0989839A834B
:1059D000AB83BC83B801C7010E94382C69817A81EE
:1059E0008B819C810F900F900F900F90DF91CF9142
:1059F0001F910F91FF90EF90BF90AF909F908F906D
:105A00000895E0918308F0918408309789F06BE75E
:105A100078E09E012F5F3F4F7901C90109954C0144
:105A2000F8019387828769817A818B819C81B5CFC8
:105A3000FE0131967F01BCCF909384088093830848
:105A40000895CF92DF92EF92FF920F931F93CF931F
:105A5000DF93CDB7DEB728970FB6F894DEBF0FBE41
:105A6000CDBF8B01FC01608171818281938120E82F
:105A700031E541E050E00E947E2F69017A012CE37C
:105A800030E040E050E00E94A02F29833A834B830E
:105A90005C8389819A81AB81BC81F80160836CE36E
:105AA00070E00E946A2FDC01CB01F801A1838283A0
:105AB000A6014A5F5F4F9A01A3E9B4E20E94BF2F9B
:105AC000281B390B36952795820F931F969587953E
:105AD000969587959C01220F331F220F331F220FAB
