:100000000C94AA030C94D3030C94D3030C94D30341
:100010000C94D3030C94D3030C94D3030C94D30308
:100020000C94D3030C94D3030C94D3030C94112598
:100030000C94D3030C94D3030C94D3030C94D303E8
:100040000C94D3030C94D3030C94D5240C94A224C5
:100050000C94D3030C94D3030C94D3030C94D303C8
:100060000C94D3030C94D303072C7AA5BA6CC590D7
:10007000DA3B9365FC8BBC53F810FD3C5692834DE4
:10008000BD879D3AB63DCBC9BF5BBE73DA0FC93F92
:1000900005A84CCDB2D44EB93836A9020C50B9914E
:1000A0008688083CA6AAAA2ABE000000803F737971
:1000B0006E7461783A20636F6D6D616E64206F704D
:1000C00074696F6E3D76616C7565202E2E2E3B0A2D
:1000D000636F6D6D616E6473206172653A200068B4
:1000E000656C7020636F6D6D616E643B20206F7274
:1000F0002068656C7020616C6C3B0A006461696CFF
:10010000793D542020202020202020656E61626CE3
:100110006573206461696C792074696D65722E2045
:10012000542069732075702F646F776E206C696B33
:100130006520303733302D206F7220303733303226
:10014000303030206F72202D323030302020666FFA
:10015000722075702030373A333020616E642F6F13
:100160007220646F776E2032303A30300A776565DE
:100170006B6C793D5454545454545420656E6162F0
:100180006C6573207765656B6C792074696D657239
:100190002E2054206C696B65207769746820276471
:1001A00061696C7927206F7220272B2720746F20BC
:1001B000636F7079207468652054206F6E207468B6
:1001C00065206C6566742E20287765656B6C793DBB
:1001D000303733302D2B2B2B2B303930302D2B2932
:1001E0000A617374726F5B3D4E5D202020202020D9
:1001F000656E61626C657320617374726F206175E6
:10020000746F6D617469632E204E20697320746869
:1002100065206F666673657420746F206369766904
:100220006C206475736B20696E206D696E757465E2
:10023000732E2043616E20626520706F737469763F
:1002400065206F72206E656761746976652E0A732A
:10025000756E2D6175746F20202020202020656E22
:1002600061626C65732073756E206175746F6D616A
:100270007469630A72616E646F6D202020202020F3
:10028000202020656E61626C65732072616E646F00
:100290006D206175746F6D617469632E207368756C
:1002A00074746572206F70656E7320616E64206374
:1002B0006C6F7365732061742072616E646F6D2062
:1002C00074696D65732E0A7274632D6F6E6C79207C
:1002D000202020202020646F6E2774206368616EC8
:1002E00067652074696D6572732E206F6E6C79205E
:1002F00075706461746520696E7465726E616C20DE
:100300007265616C2074696D6520636C6F636B0A44
:10031000612C206720616E64206D3A202020206CC3
:10032000696B6520696E2073656E6420636F6D6D07
:10033000616E640A72733D28307C317C3229202042
:1003400020202072656164206261636B2073617696
:1003500065642074696D657220646174612E206922
:10036000662073657420746F20322C20726574755A
:10037000726E20616E792064617461206D617463B6
:1003800068696E67206720616E64206D20652E6746
:100390002E206D3D302028616E79206D656D62657F
:1003A000722920696E7374656164206F66206D3DEB
:1003B000320A007072696E743D287274637C6375D2
:1003C000290A0063753D2849447C6175746F2920B2
:1003D00020202020362D64696769742068657820A4
:1003E0004944206F662043656E7472616C2D556EB2
:1003F00069742E206175746F3A2063617074757230
:1004000065204944207769746820636F6E6E656368
:100410007465642052462072656365697665720A68
:100420007274633D49534F5F54494D45202020204D
:1004300020287274633D323031372D31322D333103
:100440005432333A35393A3539290A626175643D97
:100450004E2020202020202020202020736572693B
:10046000616C20626175642072617465202862612C
:1004700075643D3338343030290A6C6F6E676974A7
:100480007564653D4445430A6C61746974756465BF
:100490003D4445430A74696D652D7A6F6E653D4E26
:1004A000202020202020206578616D706C653A2026
:1004B000636F6E66696720206C6F6E676974756420
:1004C000653D2D31332E3233343532206C61746901
:1004D000747564653D2B35322E33343233342074D9
:1004E000696D652D7A6F6E653D2B312E303B0A6448
:1004F00073743D2865757C307C31292020202020B4
:10050000206461796C6967687420736176696E67CD
:100510002074696D653A206175746F6D61746963EB
:100520003A2065753D6575726F70652E206D616E40
:1005300075616C6C793A20303D6F66662C20313DD8
:100540006F6E0A766572626F73653D28302E2E35A8
:1005500029202020207365742074657874206F75BD
:100560007470757420766572626F73697479206C2B
:100570006576656C3A203020666F72206E6F6E650E
:10058000202E2E2E203520666F72206D6178290A6C
:100590007365742D636F6E6669672D706173737711
:1005A0006F72643D50572020736574206120636F23
:1005B0006E6669672070617373776F72642E20694D
:1005C000662073657420657665727920636F6E6648
:1005D000696720636F6D6D616E6473206E6565641D
:1005E0007320746865207077206F7074696F6E0A6D
:1005F00070773D50572020202020202020202020D0
:1006000020206578616D706C653A20636F6E666955
:10061000672070773D6D795F7061737377206473C5
:10062000743D65753B0A7265737461727420202095
:100630002020202020202020726573746172742095
:100640004D43550A00613D28307C49442920202033
:1006500020686578204944206F662073656E646564
:1006600072206F722072656365697665722E203024
:10067000202864656661756C742920757365732024
:100680002763752720696E20636F6E6669670A6746
:100690003D5B302D375D202020202067726F757004
:1006A000206E756D6265722E20302028646566614B
:1006B000756C74292061646472657373657320615D
:1006C0006C6C2067726F7570730A6D3D5B302D37EF
:1006D0005D202020202067726F7570206D656D622F
:1006E00065722E2030202864656661756C7429203F
:1006F00061646472657373657320616C6C206D65F1
:100700006D626572730A633D636F6D6D616E642027
:100710002020436F6D6D616E6420746F2073656E71
:10072000642E204F6E65206F663A2075702C206411
:100730006F776E2C2073746F702C2073756E2D6420
:100740006F776E2C2073756E2D696E73742C207309
:1007500065740A0011241FBECFEFD8E0DEBFCDBF05
:1007600014BE0FB6F894A8958091600088618093BC
:100770006000109260000FBE15E0A0E0B1E0E6E579
:10078000F0E602C005900D92AC37B107D9F728E02A
:10079000ACE7B5E001C01D92A033B207E1F70E94BB
:1007A00053230C9429300C9400008F938FB78F93B0
:1007B000F894809114088F5F809314088091150835
:1007C0008F4F80931508809116088F4F80931608DD
:1007D000809117088F4F809317088F918FBF8F914B
:1007E0000895882391F081E080939A0504C0809158
:1007F000CA07813041F484E690E00E940A25809186
:1008000099058823A1F381E0089510929A0581E06B
:10081000089580910001909101010895109287053B
:10082000109288051092890510927E0510928B0512
:1008300010928A051092430610928205109281054B
:1008400086E090E09093800580937F050895EF9275
:10085000FF920F931F93CF93DF930E9444238093C3
:10086000910590919005891709F480C081115FC0AE
:100870009FEF909398058093900520914306211156
:1008800009C020914406211105C020919905222319
:1008900009F46EC0809196059091970520919A0574
:1008A000222309F446C020919905211118C0109205
:1008B0008705109288051092890510927E05109286
:1008C0008B0510928A0510924306109282051092B1
:1008D000810526E030E03093800520937F0521E0FC
:1008E00020939905019690939705809396058091A2
:1008F0009105882309F180919405909195050196C1
:1009000090939505809394058091980518160CF5A1
:1009100010929705109296051092950510929405E5
:10092000DF91CF911F910F91FF90EF90089591E08B
:10093000A0CF10929905D6CF809192059091930502
:1009400001969093930580939205809198051816CF
:10095000FCF2882329F31092930510929205DF91FF
:10096000CF911F910F91FF90EF90089590E081CF6C
:1009700040918C0550918D0560918E0570918F0589
:10098000411551056105710509F449C041505109EE
:100990006109710940938C0550938D0560938E0514
:1009A00070938F05452B462B472BC9F51092870571
:1009B000109288051092890510927E0510928B0581
:1009C00010928A05109243061092820510928105BA
:1009D00026E030E03093800520937F05913009F0C8
:1009E00059CF20917E058091960590919705AC0195
:1009F00027300CF0EDC04C5051094D31510508F035
:100A00004DCF409194055091950544505109413185
:100A1000510508F043CF2F5F20937E053FCF811112
:100A20001FC080918905882309F434C19F3F09F4D0
:100A30007BC090917E05973009F02CCF21E0280FE4
:100A40002831B8F010928905809188058F5F8A302F
:100A5000B8F48093880580919605909197051ECFF4
:100A60002091920530919305213F310508F09ECFEA
:100A7000D8CF8091960590919705209389050ECF48
:100A8000109288052091870520FDB7C080917F05D1
:100A90009091800540918105509182052F5F2093B0
:100AA00087054817590708F4F5CE8F30910509F4EA
:100AB0005FC0883A910509F46DC0069709F0EACE47
:100AC00080918A0590918B05892B89F4E091000132
:100AD000F091010181812081820F9281890F9381A0
:100AE000890F9481890F3581831709F4D8C010923A
:100AF0008705109288051092890510927E05109244
:100B00008B0510928A05109243061092820510926E
:100B1000810586E090E09093800580937F05809129
:100B2000960590919705BACE209194053091950540
:100B3000909187052C30310588F5092F017010E060
:100B4000000F111FF801ED57FA4F21E030E0A90125
:100B50000090880502C0440F551F0A94E2F72081D7
:100B60003181242B352B3183208390917E0563CFF7
:100B7000E0910001F0910101848587FD9BC088EA26
:100B800090E09093800580937F05809196059091E9
:100B9000970584CE83E0809343067CCE9170C92F65
:100BA00090E0D92FCC0FDD1FCD57DA4F21E030E098
:100BB0000090880502C0220F331F0A94E2F72095A7
:100BC000309548815981242335233983288331CFB7
:100BD0004C5351094D33510508F060CE40919405B6
:100BE00050919505445051094531510508F056CEB4
:100BF000273009F053CE21E040CFC0910001D091C1
:100C000001018091810590918205C80FD91F009143
:100C10008305109184057801FF24802F0E94811A9A
:100C2000811159C080E092E08E299F290817190789
:100C300009F454C000918505109186057801FF24C0
:100C4000802F0E94811A882309F45AC080E093E023
:100C50008E299F290817190709F455C087E788834B
:100C600080918A0590918B05019690938B058093D6
:100C70008A05409181055091820580917F05909170
:100C8000800584179507F0F4209187052F5F209346
:100C900087050BCF209188052111C8CE9FCE9F706C
:100CA0009F3001F181E080934306809196059091F9
:100CB0009705F4CD82E0809343068091960590914C
:100CC0009705ECCD4F5F5F4F5093820540938105B0
:100CD00020918705E3CE80E090E0A6CF8091830548
:100CE0008883C7CF207F2038E9F68FE090E090938B
:100CF000800580937F058091960590919705CECDD4
:100D000080E091E0A5CF809185058883B2CF1F93C5
:100D1000CF93DF93EC0190914406992331F010E0DA
:100D2000812FDF91CF911F91089581E00E94F103FF
:100D3000182F8823A1F3E0910201F091030188812B
:100D400080839881898181838981890F9A819283A7
:100D50009A81890F9B8193839B81890F9C819483C6
:100D60009C81890F85838091CD07811111C08CE012
:100D700090E09093A5058093A40581E080934406BC
:100D800080E00E94F103812FDF91CF911F910895A0
:100D900084E391E00E947D1F809102019091030104
:100DA0000E94E61DE4CF2091440621113EC0FC01C3
:100DB000A0910201B091030180818C9360818181B7
:100DC00011968C9311978181680F828112968C9372
:100DD00012978281680F838113968C931397838176
:100DE000680F848114968C9314978481680F1596EC
:100DF0006C93809102019091030106960E94121853
:100E00008091CD07811113C0E0910201F09103019F
:100E1000848587FD24C080E591E09093A5058093AB
:100E2000A40581E080934406089580E0089584E35A
:100E300091E00E947D1F8091CD078230D0F080919B
:100E4000020190910301BC016A5F7F4F0E94951CD3
:100E5000E0910201F0910301848587FFDCCF8EE1F0
:100E600090E09093A5058093A40581E080934406CB
:100E70000895809102019091030160E070E0E6CF57
:100E80000F931F93CF93DF9380914406811105C088
:100E9000DF91CF911F910F91089590919C05911131
:100EA0001FC02091A305223008F480C010929D0538
:100EB0002F5F263008F450C01092A3052091A205A0
:100EC0002F5F233008F487C01092A205982F80E08E
:100ED00090939C05DF91CF911F910F910C94492322
:100EE00080919B0581113CC09091A30581E09230D7
:100EF00008F080E080939D059F5F943018F1109278
:100F0000A3059091A2059F5F973008F458C01092F6
:100F1000A20581E080939B05E0910201F09103011D
:100F20008081C82FD0E00E94811A81114BC080E0DF
:100F300092E08C2B9D2B90939F0580939E05809132
:100F40009D05C8CF9093A30510929B05DF91CF918B
:100F50001F910F910C94492380E02093A305B8CFF3
:100F60002091A205422F50E0435051099091A305D2
:100F700057FD2BC0923090F0943058F561E070E04E
:100F800002C0660F771F4A95E2F740919E05509187
:100F90009F054623572381E0452BD9F480939D0577
:100FA0009F5F9630E0F49093A30594CF3091A20513
:100FB00031117CCF31E030939D052F5FCECF9093E0
:100FC000A205C2CF80E090E0B4CF211102C09230E0
:100FD00028F380E0E3CF2093A20580E079CF109240
:100FE000A3052F5F2D3018F42093A20573CF109224
:100FF000A205C091A005D091A1052196D093A1058D
:10100000C093A0052091A4053091A505C217D30770
:10101000D8F01092A1051092A00510929B05109295
:101020009C050E944923109244061092A10510923B
:10103000A0051092A2051092A30580E0DF91CF9148
:101040001F910F910C944923E0910201F09103014B
:10105000CE0196958795E80FF91F8081082F10E043
:101060000E94811AC0FF0DC0882381F080E093E0C8
:10107000802B912B90939F0580939E0580919D05D9
:1010800029CF811106C080E092E0F2CF80E091E0AC
:10109000EFCF80E090E0ECCF2F923F924F925F92A3
:1010A0006F927F928F929F92AF92BF92CF92DF9278
:1010B000EF92FF920F931F93CF93DF93CDB7DEB7DD
:1010C0006A970FB6F894DEBF0FBECDBF8C01072E16
:1010D000000C880B990B0E94902A20E030E040E73A
:1010E00052E40E94E6296F8B788F898F9A8F0D8B3F
:1010F0001E8B89E391E09C8B8B8B8AEEC82E86E653
:10110000D82E8BEDE82E8DEBF82E85E89BEBACE02E
:10111000BEEB8D879E87AF87B88B80ED9BEEAAE6EE
:10112000BFE389879A87AB87BC8786E693E7ABECFA
:10113000BEEB8D839E83AF83B887AB89BC892D8836
:101140003E8898E0290E311CBA8BA98B0D891E8927
:101150002BED3FE049E450E46091BD077091BE077C
:101160008091BF079091C0070E94D62B20E030E00D
:1011700044E353E40E94E6294B015C010E94432CA6
:101180002B013C01C501B4010E94E1294B015C0126
:101190002D813E814F815885C301B2010E94D62B1B
:1011A0009B01AC0165E073E186ED9DEB0E94742923
:1011B0002B013C0129853A854B855C85C501B4012D
:1011C0000E94D62B9B01AC01C301B2010E94E6290B
:1011D0000E94632920E030E040E451E40E94D62BD5
:1011E0002BED3FE049E450E40E94E62920E030E0A6
:1011F00040E451E40E9475294B015C0120EA3AE188
:101200004FE25EEB6D857E858F8598890E94D62B97
:101210002B013C0121E834E045E05EE3C701B60163
:101220000E94D62B9B01AC01C301B2010E9474291C
:101230009B01AC01C501B4010E9474296B017C01C2
:1012400020E030E040E751E46091B9077091BA07BF
:101250008091BB079091BC070E94E6299B01AC01DD
:10126000C701B6010E9475296B017C012091C1075D
:101270003091C2074091C3075091C4076F89788DA0
:10128000898D9A8D0E9475299B01AC01C701B60119
:101290000E947529AE014F5F5F4F0E94A22B6B0128
:1012A0007C010F3FBFEF1B0759F069817A818B8169
:1012B0009C810E945F2A862F0E949E1AF8018183DA
:1012C0000115110581F020E030E040E752E4C7014C
:1012D000B6010E94D62B0E945F2A862F8E7F0E9425
:1012E0009E1AD8018C930E5F1F4F0215130509F447
:1012F00059C0A989BA896D917D91BA8BA98B072EA6
:10130000000C880B990B0E94902A6B017C0128E04D
:101310003CE240EA52E40E94742924E73EE74AE8AE
:101320005CE30E94D62B0E94432C2CEF39EA41ED5E
:101330005EE30E94D62B4B015C010E94432C6D831F
:101340007E838F839887C501B4010E94E129698754
:101350007A878B879C8723E039E04AE05DE3C70109
:10136000B6010E94D62B2BE734E14EEE5EE30E94DD
:1013700075290E94432C6D877E878F87988B2BE180
:1013800034E642E95CE3C701B6010E94D62B21E3B3
:1013900038E04CE25EE30E9474290E94432C6B010A
:1013A0007C01D6CEED89FE893996FE8BED8B8B893B
:1013B0009C89A1E081399A0709F45CC0FC0166812F
:1013C0007781072E000C880B990B0E94902A6B01E5
:1013D0007C0128E03CE240EA52E40E94742924E7C0
:1013E0003EE74AE85CE30E94D62B0E94432C2CEF98
:1013F00039EA41ED5EE30E94D62B4B015C010E946D
:10140000432C6D837E838F839887C501B4010E942E
:10141000E12969877A878B879C8723E039E04AE056
:101420005DE3C701B6010E94D62B2BE734E14EEEF7
:101430005EE30E9475290E94432C6D877E878F870B
:10144000988B2BE134E642E95CE3C701B6010E94C8
:10145000D62B21E338E04CE25EE30E9474290E941F
:10146000432C6B017C018B899C8908969C8B8B8B10
:10147000DC0165CE6A960FB6F894DEBF0FBECDBF15
:10148000DF91CF911F910F91FF90EF90DF90CF9060
:10149000BF90AF909F908F907F906F905F904F9094
:1014A0003F902F9008958F929F92AF92BF92CF92CC
:1014B000DF92EF92FF920F931F93CF93DF93CDB7FD
:1014C000DEB764970FB6F894DEBF0FBECDBF6230B3
:1014D00071050CF460C0FC01E480F580C680D78003
:1014E000E114F10409F485C0C114D10409F481C0E8
:1014F0004B018C01AA24A394B12C25C06DE971E0A5
:10150000C6010E94052F892B09F448C061EA71E0E9
:10151000C6010E94052F892B09F44EC0FFEFAF1AB8
:10152000BF0A8A149B04B9F1F801E084F184C284F3
:10153000D384E114F10409F45CC00C5F1F4FC114A3
:10154000D10409F456C067E971E0C7010E94052F74
:10155000892BA1F28BEB91E00E947D1F80914506C3
:1015600090914606892BD9F58AE30E945E1F83EC91
:1015700091E00E947D1F8CEC94E00E947D1FC701CA
:101580000E947D1F8AE00E945E1FFFEFAF1ABF0A14
:101590008A149B0449F680E090E02DC0CE010196AC
:1015A0000E943E1B882309F4B9CFCE0101960E9408
:1015B0007D1F0E94721FB2CF84EA91E00E947D1FBE
:1015C0006091B1077091B2078091B3079091B40711
:1015D00040E150E00E9420220E94721F9FCF80E4D1
:1015E0000E945E1F80914506909146060E945822F7
:1015F000BBCF8FEF9FEF64960FB6F894DEBF0FBEA0
:10160000CDBFDF91CF911F910F91FF90EF90DF90B1
:10161000CF90BF90AF909F908F900895AF92BF9260
:10162000CF92DF92EF92FF920F931F93CF93DF93AE
:101630005C016B016130710509F4D7C00CF49AC0EC
:1016400001E010E052E2E52E51E0F52E54C0BE015B
:1016500080910401909105010E94052F892B09F4C6
:10166000A4C0BE0180910A0190910B010E94052F38
:10167000892B09F4AEC0BE01809110019091110137
:101680000E94052F892B09F4A7C0BE018091160185
:10169000909117010E94052F892B09F4A0C0BE016B
:1016A00080911C0190911D010E94052F892B09F446
:1016B00099C08BEB91E00E947D1F8091450690912F
:1016C0004606892B09F067C08AE30E945E1F83ECFF
:1016D00091E00E947D1F8CEC94E00E947D1FCE0162
:1016E0000E947D1F8AE00E945E1F0F5F1F4F0C1536
:1016F0001D050CF03FC0F801EE0FFF1FEE0FFF1F9E
:10170000EA0DFB1DC081D1816BE072E0CE010E9429
:10171000052F892B09F09BCF8EEA90E00E94A01F35
:10172000C4E0D1E08E01F801808191810E947D1F8B
:101730008FE092E00E947D1F0A5F1F4FE016F106C6
:1017400091F70E94721F888199810E947D1F82E11A
:1017500092E00E947D1F8C819D810E94A01F0E94AB
:10176000721F2696EC16FD0671F706E010E00C15C8
:101770001D050CF282ED91E00E947D1F80E090E05B
:10178000DF91CF911F910F91FF90EF90DF90CF905D
:10179000BF90AF90089580E40E945E1F809145063F
:1017A000909146060E9458228FCF80E090E0FC0185
:1017B000EE0FFF1FE80FF91FEE0FFF1FEC5FFE4F4C
:1017C000848195810E94A01F0E94721F0F5F1F4F8E
:1017D0008ECF81E090E0EBCF82E090E0E8CF83E035
:1017E00090E0E5CF84E090E0E2CF8FED90E00E94C2
:1017F000A01F0E94721FC2CF3F924F925F926F92C2
:101800007F928F929F92AF92BF92CF92DF92EF9290
:10181000FF920F931F93CF93DF933B0162307105CB
:101820000CF4B5C1FC0104811581E680F780011537
:10183000110509F433C1EC01412C312C512C812CC0
:10184000912C5401CC24C394D12C1CC0E114F1047C
:1018500009F4A4C040E150E060E070E0C7010E94DC
:10186000BA2C4B015C01FFEFCF1ADF0A6C147D0428
:1018700031F1088519852496EE80FF800115110548
:1018800009F40CC16DE172E0C8010E94052F892B9B
:10189000E9F261EE73E0C8010E94052F892B09F07F
:1018A00068C0E114F10409F4C5C0C7010E94C52E47
:1018B000582EFFEFCF1ADF0A6C147D04D1F6811485
:1018C0009104A104B10409F4FDC02091A605822F62
:1018D00090E0A0E0B0E0DC01992788273091A805CE
:1018E000832B4091A70550E0542F442760E070E01F
:1018F000842B952BA62BB72B88169906AA06BB0618
:1019000041F0B501A40186EA95E00E94561C2091A1
:10191000A605C6EAD5E0207F203809F0DBC02C817F
:101920002F7030E1539EC0011124522E582A5C8240
:101930008B81982F907F832D8F70892B8B83411003
:10194000CCC081E492E00E947D1F80914506909179
:101950004606892B09F0F2C08CEC94E00E947D1FB2
:1019600087E492E00E947D1F0E94721F80E090E059
:1019700097C06FEB73E0C8010E94052F892B91F48B
:10198000E114F10409F454C0C7010E94C52E009768
:1019900009F44EC077E0372E380E65CF812C912C9C
:1019A000540161CF6FE971E0C8010E94052F892BB6
:1019B00009F042C0E114F10409F45BC068E272E08E
:1019C000C7010E94052F892B09F4C2C061E372E0B0
:1019D000C7010E94052F892B09F4BDC06FE172E099
:1019E000C7010E94052F892B09F4B8C064E272E098
:1019F000C7010E94052F892B09F4B3C06DE272E084
:101A0000C7010E94052F892B09F4AEC064E372E080
:101A1000C7010E94052F892B09F4A9C06DE372E06C
:101A2000C7010E94052F892B09F4A4C0412C1BCFAC
:101A3000312C19CF512C17CF8BEB91E00E947D1FD9
:101A40008091450690914606892B09F06DC08AE386
:101A50000E945E1F83EC91E00E947D1F8CEC94E05D
:101A60000E947D1FC8010E947D1F8AE00E945E1FA8
:101A7000FACE81E492E00E947D1F8091450690910C
:101A80004606892B09F08BC08CEC94E00E947D1FE8
:101A900087E492E00E947D1F0E94721F8FEF9FEFEC
:101AA000DF91CF911F910F91FF90EF90DF90CF903A
:101AB000BF90AF909F908F907F906F905F904F906E
:101AC0003F90089520914706C7E4D6E0207F203854
:101AD00009F425CF442009F434CF9C81907F842DD4
:101AE0008F70492E482A4C82CE010E94761CCE016E
:101AF0000E948706882309F424CF81E492E00E94A3
:101B00007D1F8091450690914606892BB1F58CEC9E
:101B100094E00E947D1F84EA93E00E947D1F0E9452
:101B2000721F80E090E0BCCF80E40E945E1F809135
:101B30004506909146060E94582289CF80E40E9473
:101B40005E1F80914506909146060E94582204CF60
:101B500085E0482E88CE84E0482E85CE83E0482E4E
:101B600082CE86E0482E7FCE87E0482E7CCE88E06D
:101B7000482E79CE8DE0482E76CE80E40E945E1FFE
:101B800080914506909146060E945822C0CF209130
:101B90004706412C512C312CC7E4D6E097CF80E486
:101BA0000E945E1F80914506909146060E94582231
:101BB0006BCF2F923F924F925F926F927F928F9254
:101BC0009F92AF92BF92CF92DF92EF92FF920F93CC
:101BD0001F93CF93DF9300D000D0CDB7DEB7992409
:101BE00093942091D2072111912C623071050CF44D
:101BF00075C06B019C838B83FC01A480B58006813A
:101C00001781A114B10409F451C10115110509F49A
:101C10004DC1EE24E394F12C26C0B80182ED97E08B
:101C20000E94052F892B09F03DC180E592E00E94BA
:101C30007D1F1FEFE11AF10ACE14DF0409F44EC034
:101C4000EB81FC81A084B18402851385A114B104C9
:101C500009F42CC13496FC83EB83992493940115E9
:101C6000110509F423C16DE472E0C5010E94052F3E
:101C7000892B99F2992009F4D6C16DE872E0C5016B
:101C80000E94052F892B09F4EAC06DE971E0C501B6
:101C90000E94052F892B09F094C0C8010E94631B84
:101CA000811179C081E492E00E947D1F80914506F8
:101CB00090914606892B09F031C18CEC94E00E948A
:101CC0007D1F87E492E00E947D1F0E94721F1FEF1C
:101CD000E11AF10ACE14DF0409F0B2CF80E090E0FF
:101CE000FCC067EF72E0C5010E94052F892B09F443
:101CF00084C16BE073E0C5010E94052F892B09F4B4
:101D0000EBC168E173E0C5010E94052F892B09F43E
:101D1000EEC164E273E0C5010E94052F892B09F42E
:101D200087C16EE273E0C5010E94052F892B09F47B
:101D300008C267E373E0C5010E94052F892B09F4EF
:101D400072C261E473E0C5010E94052F892B09F07E
:101D5000D1C265E473E0C8010E94052F892B19F0F8
:101D6000F1E0F093C5076BE575E0C8010E94052F0F
:101D7000892B11F01092C50768E473E0C8010E9436
:101D8000052F892B09F4E9C203E00093C5070E94DF
:101D9000F21B0E943C2381E492E00E947D1F80910F
:101DA000450690914606892B09F0AEC08CEC94E074
:101DB0000E947D1F84EA93E00E947D1F0E94721F93
:101DC00038CF61EA71E0C5010E94052F892B09F027
:101DD00049C065EC73E0C8010E94052F892B09F406
:101DE000A7C069ED72E0C8010E94052F892B09F098
:101DF000EDC060917706862F90E0A0E0B0E0DC01B6
:101E00009927882720917906AC01BD01422B80914A
:101E1000780690E0982F8827A0E0B0E08A019B0127
:101E2000082B192B2A2B3B2BC901B8018C01222727
:101E300033270038110521053105C1F50093470608
:101E400070934806609349066093B1077093B20798
:101E50008093B3079093B4070E943C239CCF0E94C9
:101E60006523E7CE62EE72E0C5010E94052F892B43
:101E700009F47EC06AEE72E0C5010E94052F892B2D
:101E800009F492C06FEE72E0C5010E94052F892B04
:101E900009F027CFC8010E94C52E8093CD070E946C
:101EA0003C2379CF8DE592E00E947D1F81E492E092
:101EB0000E947D1F8091450690914606892B09F06E
:101EC00069C08CEC94E00E947D1F87E492E00E9440
:101ED0007D1F0E94721F8FEF9FEF0F900F900F904A
:101EE0000F90DF91CF911F910F91FF90EF90DF90B6
:101EF000CF90BF90AF909F908F907F906F905F90AA
:101F00004F903F902F90089580E40E945E1F809133
:101F10004506909146060E94582248CF80E40E94D0
:101F20005E1F80914506909146060E945822C5CEBC
:101F300080E090E00E949725DC01CB01CC96A11DAA
:101F4000B11D8093B4059093B505A093B605B093E9
:101F5000B7051092770680914506909146069093BA
:101F6000B3058093B20585E992E00E947D1F13CFEF
:101F700040E150E060E070E0C8010E94D02D609325
:101F8000CE077093CF078093D0079093D1070E941C
:101F90003C2301CF80E40E945E1F80914506909112
:101FA00046060E9458228DCF4AE050E060E070E083
:101FB000C8010E94D02D6093B5077093B607809337
:101FC000B7079093B8070E943C23E5CE40E150E06C
:101FD00060E070E0C8010E94D02D8C0122273327D9
:101FE000003809F063CF892E9924AA24BB248928BC
:101FF0008A288B2809F422CF59CFF80101900020BC
:10200000E9F73197E01BF10BE031F10508F04ACE1A
:10201000AF014F5F5F4FB80182ED97E00E94F12E54
:102020000E943C23B8CE84E792E00E947D1F3ECF01
:10203000F80180818D3209F482C1282F60E070E0C0
:10204000CB01412C512CF0E86F2EFFE37F2E222391
:1020500009F45FC00F5F1F4F622F812C912C540138
:102060001A82198232C070E01B01F0E32F1A310886
:102070002AE02216310420F589819A81892B51F0BA
:1020800020E030E040E251E4C301B2010E94E629C1
:102090002B013C0120E030E040E251E4C501B401F5
:1020A0000E94D62B4B015C01B101330C880B990BBC
:1020B0000E94902AA50194010E9475294B015C01A0
:1020C000F80161918F016623F1F06E3261F6E1E073
:1020D000F0E0FA83E983F4CF61E275E0C8010E9481
:1020E000052F892B19F511E01093CA0752CE61E232
:1020F00075E0C8010E94052F892B09F076C021E008
:102100002093CB0746CEA3019201C501B4010E94E2
:10211000D62B6093B9077093BA078093BB0790934F
:10212000BC070E94F21B0E943C2335CE64E173E0A1
:10213000C8010E94052F892B09F0B4CD1092CA075F
:1021400028CEF80180818D3209F423C1282F60E068
:1021500070E0CB01412C512C50E8652E5FE3752EC9
:10216000222309F453C00F5F1F4F622F812C912C43
:1021700054011A82198232C070E01B01F0E32F1A59
:1021800031082AE02216310420F589819A81892BB1
:1021900051F020E030E040E251E4C301B2010E947E
:1021A000E6292B013C0120E030E040E251E4C5018A
:1021B000B4010E94D62B4B015C01B101330C880B9A
:1021C000990B0E94902AA50194010E9475294B0148
:1021D0005C01F80161918F01662391F06E3261F626
:1021E000E1E0F0E0FA83E983F4CF64E173E0C80151
:1021F0000E94052F892B09F055CD1092CB07C9CD30
:10220000A3019201C501B4010E94D62B6093BD07C2
:102210007093BE078093BF079093C0070E94F21B84
:102220000E943C23B8CDF80180818D3209F4BFC0F3
:10223000282F60E070E0CB01412C512C30E8632E58
:102240003FE3732E222309F448C00F5F1F4F622F14
:10225000812C912C54011A82198232C070E01B012A
:10226000F0E32F1A31082AE02216310420F5898183
:102270009A81892B51F020E030E040E251E4C30123
:10228000B2010E94E6292B013C0120E030E040E24F
:1022900051E4C501B4010E94D62B4B015C01B10190
:1022A000330C880B990B0E94902AA50194010E947F
:1022B00075294B015C01F80161918F01662339F0AA
:1022C0006E3261F6E1E0F0E0FA83E983F4CFA30136
:1022D0009201C501B4010E94D62B6093C10770938F
:1022E000C2078093C3079093C4070E94F21B0E9409
:1022F0003C2351CD8BEB91E00E947D1F80914506E0
:1023000090914606892B49F080E40E945E1F8091DF
:102310004506909146060E9458228AE30E945E1F5D
:1023200083EC91E00E947D1F8CEC94E00E947D1F65
:10233000C5010E947D1F8AE00E945E1F7ACC218128
:102340000F5F1F4F60E070E080E090E8412C512C5F
:10235000A0E86A2EAFEB7A2E7ACE8BEB91E00E944A
:102360007D1F8091450690914606892B71F58AE381
:102370000E945E1F83EC91E00E947D1F8CEC94E034
:102380000E947D1FC5010E947D1F8AE00E945E1F82
:10239000FECC21810F5F1F4F60E070E080E090E88D
:1023A000412C512CE0E86E2EEFEB7E2ED9CE218110
:1023B0000F5F1F4F60E070E080E090E8412C512CEF
:1023C00040E8642E4FEB742E3DCF80E40E945E1FE8
:1023D00080914506909146060E945822C8CF8AE413
:1023E00093E00C947D1F0E94681F8F3F2FEF920790
:1023F000D9F08D309105D9F08A309105C1F088303F
:10240000910509F441C082329105B1F02091B805DF
:10241000222301F1CB9739F71092B8050E94681F6B
:102420008F3F2FEF920729F780E090E008951092F8
:102430003C0610923B06D7CF20913B0630913C06DC
:102440002F5F3F4F30933C0620933B062091B80509
:102450002111C9CF2091390630913A062F37310525
:1024600084F540913B0640FD03C08B339105B9F1E3
:10247000A9014F5F5F4F50933A0640933906F90127
:10248000E754FA4F8083AFCF8091390690913A0696
:10249000009709F4A8CF019790933A0680933906E4
:1024A000FC01E754FA4F8081823209F09CCF809181
:1024B0003B0690913C06019790933C0680933B0627
:1024C00092CF81E08093B80580E090E010923A06C8
:1024D0001092390610923C0610923B060895211581
:1024E000310539F0F901E754FA4F108289EB95E094
:1024F000EDCF80E090E0EACFEF92FF920F931F9331
:10250000CF93DF93EC01109246061092450600E04F
:1025100010E08881803241F4DE01FE013196EF0146
:102520001D9281918032D9F3882309F482C0780109
:10253000EE0CFF1CEE0CFF1CF701E35BF94FD1839F
:10254000C0838881982F9F7D61F08D33E9F0FE0173
:10255000319602C08D33C1F0EF018191982F9F7D9C
:10256000C9F7F701E35BF94F138212820F5F1F4F28
:102570000A30110571F68FEF9FEFDF91CF911F9118
:102580000F91FF90EF900895188289818232B1F106
:10259000882389F3FE013196D701A35BB94F1396C7
:1025A000FC93EE9312978981882371F08032E9F1D0
:1025B0008D33D9F1229604C08032B9F18D33A9F15F
:1025C000FE0189918111F8CFEF01C701835B994F1B
:1025D0007C0163E573E0FC01808191810E94052FFD
:1025E000892B21F6F701828193810E94C52E909359
:1025F00046068093450601501109B8CFCE010296D8
:102600002A81222309F4B7CFF701E35BF94F9383C3
:10261000828362E270E00E94FA2EEC01892B09F4B9
:10262000AACF8881882389F2FE01EF0121961082CA
:10263000CCCFC801DF91CF911F910F91FF90EF9008
:1026400008950F931F93CF93DF93EC01892B09F02B
:1026500074C08091B4059091B505A091B605B09174
:10266000B705892B8A2B8B2B31F480E0DF91CF913A
:102670001F910F91089580E090E00E9497250091AE
:10268000B4051091B5052091B6053091B705061730
:1026900017072807390708F472C080917706982F2A
:1026A000907F903811F790E0A0E0B0E0DC0199272E
:1026B000882720917906822B4091780650E0542F8C
:1026C000442760E070E0842B952BA62BB72BA093BA
:1026D000470690934806809349068093B1079093EC
:1026E000B207A093B307B093B4071092B405109249
:1026F000B5051092B6051092B7058AE793E00E94DF
:102700007D1F81E492E00E947D1F8091450690919B
:102710004606892B09F071C08AE30E945E1F8FE98B
:1027200093E00E947D1F8CEC94E00E947D1F0E942C
:10273000721F0E943C2381E099CF80E090E00E94CC
:102740009725DC01CB018C0F9D1FA11DB11D80932E
:10275000B4059093B505A093B605B093B705109254
:10276000770680914506909146069093B305809335
:10277000B20580E0DF91CF911F910F910895C09134
:102780004506D09146061092B4051092B5051092F8
:10279000B6051092B70587E593E00E947D1F8091F2
:1027A000B2059091B305909346068093450681E467
:1027B00092E00E947D1F8091450690914606892BEC
:1027C00091F48AE30E945E1F8CE693E00E947D1FD5
:1027D0008CEC94E00E947D1F0E94721FD0934606ED
:1027E000C093450642CF80E40E945E1F809145065B
:1027F000909146060E945822E4CF80E40E945E1F1A
:1028000080914506909146060E94582285CF4F92AE
:102810005F926F927F928F929F92AF92BF92CF9270
:10282000DF92EF92FF920F931F93CF93DF9300D02D
:102830001F92CDB7DEB77C015B014A011B82452B9D
:1028400009F4A9C0FC01808120E030E0882309F46C
:102850005BC000E010E055245A949FE0492E1EC052
:10286000F501E20FF31F50826801FFEFCF1ADF0A74
:10287000C814D90408F04CC0F501EC0DFD1D4082D0
:102880008FEFE81AF80A86010F5F1F4F98010815AD
:102890001905D0F5F70180818823B1F18B3209F455
:1028A0004CC08D32E9F28983F70181818A83680106
:1028B000FFEFCF1ADF0AC814D90450F5CE010196F4
:1028C0000E94C52E0E948F1AF501EC0DFD1D80831C
:1028D000F701828189833701F4E06F0E711CF701E3
:1028E00083818A830A0D1B1DCE0101960E94C52E8D
:1028F0000E948F1AF8018083730186010F5F1F4FBA
:1029000098010815190530F281E08216930609F046
:1029100080E00F900F900F90DF91CF911F910F915A
:10292000FF90EF90DF90CF90BF90AF909F908F90EF
:102930007F906F905F904F9008950430110544F39D
:10294000C80104968816990618F3D501A20FB31F83
:10295000FD01349780818C93F8013196EA0DFB1DBF
:10296000DF0114978C918083F8013296EA0DFB1DEC
:10297000DF0114978C9180836801E3E0CE0ED11CB7
:10298000F501EC0DFD1DDF0114978C918083FFEFA5
:10299000EF1AFF0A78CF20E030E0B6CF2F923F92B7
:1029A0004F925F926F927F928F929F92AF92BF925F
:1029B000CF92DF92EF92FF920F931F93CF93DF930B
:1029C000CDB7DEB7A8970FB6F894DEBF0FBECDBF68
:1029D000FC014B012FEF29839FE09A832B839C837B
:1029E0002D839E832F83988729879A872B879C879F
:1029F0002D879E872F87988B298B9A8B2B8B9C8B6F
:102A00002D8B9E8B2F8B988F298F9A8F2B8F9C8F3E
:102A10002D8F9E8F2F8F98A3623071050CF430C2DA
:102A2000E480F580A680B780E114F10409F4ECC0DD
:102A30008F01FEEFFFA319A2212C1BA21CA21DA235
:102A40001EA218A6312C612C712C1AA2512C412CDB
:102A5000CC24C394D12C21C0A114B10409F4B7C073
:102A60004CE150E0BE016F5F7F4FC5010E9407142B
:102A7000582E4FEFC41AD40A8C149D0481F1D8014A
:102A80001896ED90FC9019970C5F1F4FF801A680E7
:102A9000B780E114F10409F4B7C067EA73E0C70135
:102AA0000E94052F892BC1F26EEA73E0C7010E94D4
:102AB000052F892B09F046C0A114B10409F487C081
:102AC00044E050E0BE01635E7F4FC5010E940714E1
:102AD000482E4FEFC41AD40A8C149D0481F66BA1C2
:102AE0007CA18DA19EA1672B682B692B09F4E1C005
:102AF0002091AC05822F90E0A0E0B0E0DC019927A6
:102B000088273091AE05832B4091AD0550E0542FBE
:102B1000442760E070E0842B952BA62BB72B4BA1AC
:102B20005CA16DA17EA1481759076A077B0709F4CC
:102B300043C18CEA95E00E94561C2091AC050CEA3A
:102B400015E0BBC064EB73E0C7010E94052F892B21
:102B500059F4A114B10409F48FC0C5010E94C52E17
:102B60003C0121E02AA385CF6AEB73E0C7010E94F4
:102B7000052F892B91F4A114B10441F0D5018C915A
:102B8000803309F472C0813309F073CF79A1716089
:102B900079A3822D8160282E6CCF61EC73E0C70190
:102BA0000E94052F892B09F04AC0A114B10441F0FD
:102BB000F5018081803309F4A7C0813309F059CF32
:102BC00099A1906899A3A22DA0682A2E52CF81E4E2
:102BD00092E00E947D1F8091450690914606892BC8
:102BE00049F080E40E945E1F809145069091460660
:102BF0000E9458228CEC94E00E947D1F87E492E0B2
:102C00000E947D1F0E94721F8FEF9FEFA8960FB644
:102C1000F894DEBF0FBECDBFDF91CF911F910F9112
:102C2000FF90EF90DF90CF90BF90AF909F908F90EC
:102C30007F906F905F904F903F902F9008956AEC37
:102C400073E0C7010E94052F892BD9F4A114B104A8
:102C500009F407C1D5018C91803309F453C0813345
:102C600009F0C3C0F1E0FFA304CF39A1316039A35B
:102C7000422D4E7F242EFDCE612C712C31E03AA3E3
:102C8000F8CE6DE172E0C7010E94052F892B51F14A
:102C900061EE73E0C7010E94052F892B09F0A8C0DF
:102CA000A114B10409F418C1C5010E94C52E382E23
:102CB000E0CE2091470607E416E0207F203809F493
:102CC00066C0D80114968C918F60F8018483C80186
:102CD0000E94761C81E00E94F10381111CC080E0FB
:102CE00090E094CFA114B10409F4B2C040E150E0E7
:102CF00060E070E0C5010E94BA2C6BA37CA38DA399
:102D00009EA3B7CE1FA2B5CE59A1506859A3622D7C
:102D10006F77262EAECE8091020190910301069628
:102D20000E943118FFA1F13009F4CEC05110A1C0AA
:102D300041109AC02AA1211190C080E00E948A19F6
:102D400069A1822D0E94F919C8010E945E1AC8016A
:102D50000E94D306882399F181E492E00E947D1FAE
:102D60008091450690914606892B09F0A3C08CEC12
:102D700094E00E947D1F84EA93E00E947D1F0E94E0
:102D8000721F80E00E94F10380E090E03FCFF801E5
:102D90008481282F2F70F0E13F9EC0011124822BE7
:102DA000D80113969C911397292F207F98A59F7087
:102DB000922B13969C9388CF0CEA15E07ECF81E48A
:102DC00092E00E947D1F8091450690914606892BD6
:102DD00009F066C08CEC94E00E947D1F87E492E0CD
:102DE0000E947D1F0E94721FCCCFBFEFBFA341CEB8
:102DF0006FEB73E0C7010E94052F892B61F4A114CA
:102E0000B104E1F1C5010E94C52E0097B9F127E098
:102E1000280F28A72ECE8BEB91E00E947D1F80917A
:102E2000450690914606892B09F058C08AE30E9416
:102E30005E1F83EC91E00E947D1F8CEC94E00E9469
:102E40007D1FC7010E947D1F8AE00E945E1F11CE78
:102E50001BA21CA21DA21EA20CCEC3010E9481199E
:102E60006CCFE1E0EFA305CECE014D960E943C1958
:102E700061CFCE0101960E944D195ACF18A6F9CD07
:102E8000209147063EEF3FA319A2212C612C712C03
:102E90001AA2412C512C312C18A607E416E00DCFB4
:102EA00080E40E945E1F80914506909146060E9434
:102EB000582290CF80E40E945E1F80914506909139
:102EC00046060E94582253CF81E00E948A1969A1C8
:102ED000822D0E94F9193BCF312CCBCD80E40E948A
:102EE0005E1F80914506909146060E9458229ECF13
:102EF0000F931F93CF93DF930E947C128C01C0919C
:102F00004D06D0914E066091040170910501CE01ED
:102F10000E94052F892B49F160910A0170910B01E4
:102F2000CE010E94052F892BB1F1609110017091A3
:102F30001101CE010E94052F892B81F160911601AC
:102F400070911701CE010E94052F892B51F16091DC
:102F50001C0170911D01CE010E94052F892B21F1CA
:102F6000DF91CF911F910F91089580E090E0FC01D7
:102F7000EE0FFF1FE80FF91FEE0FFF1FEC5FFE4F74
:102F80000280F381E02DB8018DE496E0DF91CF91CE
:102F90001F910F91099481E090E0E9CF82E090E0E9
:102FA000E6CF83E090E0E3CF84E090E0E0CFFC0167
:102FB00091818281890F9381890F9481890F9081FA
:102FC000890F9581891711F080E0089561157105C9
:102FD00021F0FB01808381E0089581E00895262F90
:102FE000220FFC01AC0147565F4F60818181680F61
:102FF0008281680F8381680F8481680F8581680FE3
:103000008681680F8781680F620F8085681308C00A
:10301000262F220F39964E175F0739F781E0089562
:1030200080E00895262F220FFC01AC0147565F4F28
:1030300060818181680F8281680F8381680F84813C
:10304000680F8581680F8681680F8781680F620F1E
:103050006087262F220F39964E175F0749F7822F78
:103060000895FC0188E0DF011D928A95E9F79FEF42
:1030700091878FE082879387848795878687978754
:10308000808B928B838B948B858B968B878B908F89
:10309000818F938F848F958F868F978F80A391A335
:1030A00082A394A385A396A387A390A781A792A7A1
:1030B00083A795A786A797A780AB91AB82AB93AB6D
:1030C00084AB96AB87AB90AF81AF92AF83AF94AF39
:1030D00085AF97AFDF01A05CBF4F8C9311969C9397
:1030E00011968C9311969C9311968C9311969C93A8
:1030F00011968C9312969C9311968C93119712961D
:103100009C93129713968C93139714969C931497F1
:1031100015968C93159716969C93169717968C93E5
:10312000179719969C9311968C93119712969C93CE
:10313000129713968C93139714969C931497159645
:103140008C93159716969C93169717968C931797B2
:1031500019969C9311968C93119712969C931297A3
:1031600013968C93139714969C93149715968C939F
:10317000159716969C93169717968C9317971996F2
:103180009C9311968C93119712969C931297139679
:103190008C93139714969C93149715968C9315976C
:1031A00016969C93169717968C93179719969C933F
:1031B00011968C93119712969C93129713968C9359
:1031C000139714969C93149715968C9315971696AF
:1031D0009C93169717968C93179719969C93119614
:1031E0008C93119712969C93129713968C93139726
:1031F00014969C93149715968C93159716969C93FA
:10320000169717968C93179719969C9311968C93F3
:10321000119712969C93129713968C93139714966A
:103220009C93149715968C93159716969C931697C6
:1032300017968C93179719969C9311968C931197C8
:1032400012969C93129713968C93139714969C93B3
:10325000149715968C93159716969C931697179618
:103260008C93E057FF4F9083818392838383948371
:103270008583968387830895E0910201F09103018D
:10328000DC012D913C91119737A726A712968D91BD
:103290009C91139791AB80AB0895CF93DF93C0912E
:1032A0000201D0910301FC01208131813C8B2B8BE9
:1032B000228133813E8B2D8BDE015896349628E097
:1032C00001900D922A95E1F7DE019196FC013C9662
:1032D00028E001900D922A95E1F7FC0124893589B7
:1032E0003BA72AA7268937893DA72CA7208D318D9A
:1032F000388B2F87828D938D9A8B898BDF91CF911D
:1033000008952091020130910301BC01C901C396C7
:103310000C944C08DF92EF92FF920F931F93CF9380
:10332000DF9300D000D0CDB7DEB7D82E00910201D8
:103330001091030180E090E00E94972569837A83D1
:103340008B839C83CE0101960E94A0257C01FC0109
:1033500080810E948F1AF8018683F70181810E9483
:103360008F1AF8018783F70182810E948F1AF80172
:103370008087F70183810E948F1AF8018287F70105
:1033800085818F5F0E948F1AF8018387DD2051F1BC
:1033900087E820E8F7019481992311F0892F822B87
:1033A000F801848781E090E0F701048002C0880F73
:1033B000991F0A94E2F7F8018187F70182859385C6
:1033C000F801892B91F485858B7F85870F900F906D
:1033D0000F900F90DF91CF911F910F91FF90EF9081
:1033E000DF90089587E020E0D5CF858584608587CC
:1033F000EDCF982FE0910201F091030160FF05C02D
:10340000858590FF58C081608587862F8695969523
:1034100080FF05C0258590FF4BC0226025878695DB
:10342000969580FF05C0258590FF3FC024602587C5
:103430008695969580FF05C0258590FF33C028604E
:1034400025878695969580FF05C0258590FF27C026
:10345000206125878695969580FF05C0258590FF7C
:103460001BC0206225878695969580FF05C025851F
:1034700090FF0FC02064258786959695882341F09C
:103480008585992319F08068858708958F778587CA
:1034900008952F7B2587F0CF2F7D2587E4CF2F7EC2
:1034A0002587D8CF277F2587CCCF2B7F2587C0CFF7
:1034B0002D7F2587B4CF8E7F8587A7CFFC012091F4
:1034C000020130910301D901A156BF4F1C928081A6
:1034D00011968C93818111968C938281F901EE551E
:1034E000FF4F8083319683E5808331961082319639
:1034F00080E18083319681E18083319685E080830D
:103500000895982F92959F708927982F9695969554
:103510008927982F969589278095817008956AE06C
:1035200070E090E00E94D9289B0122953295307F6F
:103530003227207F32278F70822B08956AE070E057
:1035400090E00E94D928AC016930710549F0262F1E
:103550002295207F4930510539F08F70822B0895D4
:1035600020EF49305105C9F78FE0822B0895FC0107
:1035700080819181A281B381B23C20F08058924A2F
:10358000A149B44BBC01CD016059794A8D4E984D8B
:1035900020E83AE349E050E00E94ED28DA01C90151
:1035A000880F991FAA1FBB1F880F991FAA1FBB1F37
:1035B000880F991FAA1FBB1F821B930BA40BB50B6F
:1035C000BC01CD01660F771F881F991F660F771FFB
:1035D000881F991F25EB35E040E050E00E94ED2860
:1035E0006835734018F480E19EE0089580E090E033
:1035F000089580E19EE00895FC0180819181A2817F
:10360000B381B23C20F08058924AA149B44BBC012E
:10361000CD016059794A8D4E984D20E83AE349E052
:1036200050E00E94ED28DA01C901880F991FAA1FF6
:10363000BB1F880F991FAA1FBB1F880F991FAA1FA6
:10364000BB1F821B930BA40BB50BBC01CD01660FF6
:10365000771F881F991F660F771F881F991F25EBFB
:1036600035E040E050E00E94ED286835734018F4E2
:1036700080E19EE0089580E090E008950F931F930D
:10368000CF93DF9300D000D0CDB7DEB78C0180E0C0
:1036900090E00E94972569837A838B839C83CE0177
:1036A00001960E94A025B8010E94892784E5F801AF
:1036B000828781E00F900F900F900F90DF91CF9154
:1036C0001F910F9108950F931F93CF93DF93CDB761
:1036D000DEB7A0970FB6F894DEBF0FBECDBFFC01DA
:1036E00001900020E9F79F0124513109281739077B
:1036F00061F080E0A0960FB6F894DEBF0FBECDBF9C
:10370000DF91CF911F910F910895BC0143E150E0EB
:10371000CE0101960E940E2F1C8A8E010B5E1F4F58
:103720008CE0F80111928A95E9F76EEE73E0CE0114
:1037300001960E94EC2E0097E1F20E94C52E8C5655
:1037400097409C8F8B8F6EEE73E080E090E00E943C
:10375000EC2E009771F20E94C52E81508A8F60EF87
:1037600073E080E090E00E94EC2E009711F20E943E
:10377000C52E888F64EF73E080E090E00E94EC2E0D
:10378000009709F4B6CF0E94C52E8F8B64EF73E0CB
:1037900080E090E00E94EC2E009709F4AACF0E94EE
:1037A000C52E8E8B62E271E080E090E00E94EC2EEC
:1037B000009709F49ECF0E94C52E8D8B8FEF9FEF4F
:1037C00098A38F8FC8010E941E266115710581057F
:1037D000910509F48ECF22E0209325070E949028BE
:1037E00081E088CFCF92DF92EF92FF9220E030E02D
:1037F00041E655E46091C1077091C2078091C3070B
:103800009091C4070E94D62B0E94582A0E949928A2
:1038100020E030E041E655E46091B9077091BA07C5
:103820008091BB079091BC070E94D62B0E94582A1A
:103830006B017C0120E030E041E655E46091BD077A
:103840007091BE078091BF079091C0070E94D62B50
:103850000E94582AA70196010E940D268091C50753
:103860008230E1F0833091F0813041F080E090E0EF
:10387000FF90EF90DF90CF900C948B2687EB9AE12E
:10388000FF90EF90DF90CF900C948B2689EF9AE118
:10389000FF90EF90DF90CF900C948B268CEF9AE105
:1038A000FF90EF90DF90CF900C948B26FC01CB0122
:1038B000AA27BB2780835183428322E1238314827A
:1038C0002FEF25839927AA27BB2780329105A105D1
:1038D000B10549F080399105A105B10519F487E1D9
:1038E00083830895089581E183830895FC01808195
:1038F000807F803891F09381292F22952F702F5F40
:103900002F7031F02295207F9F70922B9383089522
:1039100020E19F70922B93830895858118165CF7A0
:1039200084818F70833039F308950F931F93CF9361
:10393000DF93EB01009711F00E94E61D2097F1F054
:103940008E8187FD27C060E002E110E08091CD0705
:103950008530C8F0C801880F991F880F991F880FFC
:10396000991F080F191F0C0F1D1F69E070E0CE0191
:103970000E94F22229960C171D07B9F7DF91CF910B
:103980001F910F910895CE01DF91CF911F910F915B
:103990000C94FB1D61E001E010E0D8CFEF92FF92A4
:1039A0000F931F93CF93DF931F92CDB7DEB70E9483
:1039B000F3118C01892B09F468C00E94721FC801A1
:1039C0000E94781710923D0680914306813009F4D9
:1039D00066C080E090E00E9421138091430682300F
:1039E00061F080914306833041F00F90DF91CF91D9
:1039F0001F910F91FF90EF90089586EF93E00E9442
:103A00007D1FE0900001F090010187010A5F1F4FC8
:103A10000E940904009711F00E94E61D011511058E
:103A200009F1F701848587FD6DC060E082E190E0D7
:103A30002091CD07253008F461C07C01EE0CFF1CFD
:103A4000EE0CFF1CEE0CFF1CE80EF91EE00EF11E42
:103A500069E070E0C8010E94F222075F1F4F0E1557
:103A60001F05B1F70E940904BE016F5F7F4F0E94DE
:103A7000D717811134C00E940E040F90DF91CF91AF
:103A80001F910F91FF90EF90089580913D06811155
:103A90009BCF0E94EF1181E080933D0695CF0E945D
:103AA00009048C01FC0180818093770681818093D9
:103AB0007806828180937906838180937A06848157
:103AC00080937B0683EF93E00E947D1F0115110513
:103AD00019F0C8010E94E61D0E940E047ACF809161
:103AE000000190910101698106960E94EF178823D9
:103AF00011F28CE094E00E947D1FBDCFC8010E94AE
:103B0000FB1DB0CF61E081E090E092CFCF93DF93D7
:103B10000E94F21BC1EBD7E0488159816A817B8109
:103B200087E496E00E94561C83E00E94702380E2A6
:103B300094E00E947D1F80E694E00E947D1F6881D2
:103B400079818A819B8140E00E9429208BE694E064
:103B50000E947D1F6C817D818E819F8140E00E944B
:103B6000F82082E794E00E947D1F85E794E00E94A0
:103B70007D1F688579858A859B8545E050E00E9498
:103B80004B2187E894E00E947D1F6C857D858E85A2
:103B90009F8545E050E00E944B2182E994E00E941D
:103BA0007D1F688979898A899B8942E050E00E945B
:103BB0004B2182E794E00E947D1F8EE994E00E94F1
:103BC0007D1F80E090E0DF91CF9108950F931F93C8
:103BD000CF93DF93EC018C010A5F1F4F61E0899165
:103BE0000E94B81FC017D107C9F7DF91CF911F916D
:103BF0000F910C94721F8F929F92AF92BF92CF92AF
:103C0000DF92EF92FF920F931F93CF93DF93CDB785
:103C1000DEB760970FB6F894DEBF0FBECDBF6C0164
:103C2000162F80E1E4E2F1E0DE01119601900D92A1
:103C30008A95E1F789EC94E00E947D1FD6011496E5
:103C40008C910E9490228FEC94E00E947D1FF601DF
:103C500085810E94902281ED94E00E947D1FD60113
:103C60001696EC91E770F0E0EE0FFF1F81E090E018
:103C70008C0F9D1FE80FF91F808191810E947D1F8D
:103C800082ED94E00E947D1FD60112968C910E94D5
:103C9000902284EF93E00E947D1FF60181810E94B3
:103CA000902284EF93E00E947D1FD6018C910E94A8
:103CB0009022F601878182FD78C00E94721F111147
:103CC00061C0D60117968C9187FD79C080FD72C0C6
:103CD00082E095E00E947D1F5601F9E0AF0EB11C15
:103CE00076018DE2E80EF11C450188E0880E911CFA
:103CF0008501D80111968C910E94902284EF93E067
:103D00000E947D1FF80180810E9490228FE092E046
:103D10000E947D1F0E5F1F4F8016910651F70E9473
:103D2000721FF9E0AF0EB11CEA14FB04E9F68FE054
:103D300095E00E947D1F560199E9A90EB11C67010B
:103D400088E0C80ED11C8701D80111968C910E9481
:103D5000902284EF93E00E947D1FF80180810E94F1
:103D600090228FE092E00E947D1F0E5F1F4F0C1586
:103D70001D0551F70E94721FF9E0EF0EF11CEA14C5
:103D8000FB04E9F660960FB6F894DEBF0FBECDBF18
:103D9000DF91CF911F910F91FF90EF90DF90CF9027
:103DA000BF90AF909F908F90089585ED94E00E9412
:103DB0007D1F83CF8FEE94E00E947D1F89CF8AED17
:103DC00094E00E947D1FF601878180CF0F931F939F
:103DD000CF93DF9300D01F92CDB7DEB7182F40E10D
:103DE000BE016F5F7F4F90E00E94442F107FE1F192
:103DF000ACE3B5E08C91E0912A07F0912B07882382
:103E0000D1F1309789F08D010F5F1F4F0995019611
:103E100071F1F80181918F01882349F1E0912A071E
:103E2000F0912B07309791F78981811115C0E0E05F
:103E3000F0E0309789F000E112E08CE209950196FC
:103E400059F0F80181918F01882331F0E0912A0720
:103E5000F0912B07309791F70F900F900F90DF9113
:103E6000CF911F910F910895A8E3B5E0C3CFE091E2
:103E70002A07F0912B0789818823D9F2309761F3C3
:103E80008E010E5F1F4F0995019699F0F8018191FF
:103E90008F01882371F0E0912A07F0912B0730976A
:103EA00091F70F900F900F90DF91CF911F910F918D
:103EB0000895E0912A07F0912B07BBCFE0912A07E4
:103EC000F0912B07309709F009948FEF9FEF089539
:103ED000E0912807F0912907309709F009948FEFB6
:103EE0009FEF0895E0912A07F0912B07309711F08A
:103EF0008AE009948FEF9FEF0895CF93DF93EC0151
:103F000088818823C1F0E0912A07F0912B07309730
:103F100069F021960995019649F08991882359F015
:103F2000E0912A07F0912B073097A1F78FEF9FEFD1
:103F3000DF91CF91089580E090E0DF91CF910895D7
:103F4000CF93DF93EC01FE018491882361F0E0912F
:103F50002A07F0912B07309709F009952196FE0169
:103F600084918111F4CF80E090E0DF91CF910895AA
:103F7000FF920F931F93CF93DF9300D01F92CDB783
:103F8000DEB7182FF62E40E1BE016F5F7F4F90E045
:103F90000E94442F107F09F059C0A8E3B5E08C912E
:103FA0008823C9F1E0912A07F0912B07309789F017
:103FB0008D010F5F1F4F0995019669F1F8018191FD
:103FC0008F01882341F1E0912A07F0912B07309768
:103FD00091F7FF20B9F0E0912A07F0912B07309775
:103FE00089F000E112E08CE20995019659F0F801A0
:103FF00081918F01882331F0E0912A07F0912B07FE
:10400000309791F70F900F900F90DF91CF911F9104
:104010000F91FF90089589818823D9F2E0912A07B2
:10402000F0912B073097A9F28E010E5F1F4F099573
:10403000019679F2F80181918F01882351F2E09184
:104040002A07F0912B07309791F7C3CFACE3B5E087
:10405000A6CF8F929F92AF92BF92FF920F931F9322
:10406000CF93DF93CDB7DEB72A970FB6F894DEBFB4
:104070000FBECDBF4B015C01F42E20E1AE014F5FBE
:104080005F4F0E945A2FD501C401807F892B8A2B54
:104090008B2BD9F1D501C4018827892B8A2B8B2B37
:1040A00009F494C0D501C4018827907F892B8A2BFD
:1040B0008B2B09F48EC0D501C40188279927892B41
:1040C0008A2B8B2B09F488C0D501C4018827992736
:1040D000A07F892B8A2B8B2B09F481C0D501C401C9
:1040E00088279927AA27892B8A2B8B2B09F47AC03A
:1040F00088249924AA2420EFB22289288A288B2890
:1041000009F473C0ACE3B5E002C0A3E5B5E08C915F
:10411000882309F440C0E0912A07F0912B073097DB
:1041200089F08D010F5F1F4F09950196A1F1F801EC
:1041300081918F01882379F1E0912A07F0912B0773
:10414000309791F7FF20B9F0E0912A07F0912B0703
:10415000309789F000E112E08CE20995019659F060
:10416000F80181918F01882331F0E0912A07F091C5
:104170002B07309791F72A960FB6F894DEBF0FBE43
:10418000CDBFDF91CF911F910F91FF90BF90AF9066
:104190009F908F90089589818823A1F2E0912A074A
:1041A000F0912B07309771F28E010E5F1F4F09952A
:1041B000019641F2F80181918F01882319F2E09173
:1041C0002A07F0912B07309791F7BCCFAAE4B5E00E
:1041D0009ECFA4E6B5E09BCFADE5B5E098CFA4E4D3
:1041E000B5E095CFAFE3B5E092CFA8E3B5E08FCFD0
:1041F000FF920F931F93CF93DF93CDB7DEB72C972A
:104200000FB6F894DEBF0FBECDBFF42E2AE0AE018C
:104210004F5F5F4F0E945A2F89818823B9F0E09148
:104220002A07F0912B07309789F08E010E5F1F4F00
:104230000995019659F0F80181918F01882331F099
:10424000E0912A07F0912B07309791F7FF20B9F002
:10425000E0912A07F0912B07309789F000E112E0F6
:104260008CE20995019659F0F80181918F0188231C
:1042700031F0E0912A07F0912B07309791F72C96B7
:104280000FB6F894DEBF0FBECDBFDF91CF911F9167
:104290000F91FF9008952F923F924F925F926F92ED
:1042A0007F928F929F92AF92BF92CF92DF92EF92C6
:1042B000FF920F931F93CF93DF93CDB7DEB72C9769
:1042C0000FB6F894DEBF0FBECDBF4B015C018A0173
:1042D0000E94582A2B013C011B014AE0BE016F5F7E
:1042E0007F4FC2010E94442FDC018C91E0912A078C
:1042F000F0912B07882309F495C03097A1F07D0138
:104300002FEFE21AF20A0995019609F487C0F70126
:1043100081917F01882309F481C0E0912A07F091FF
:104320002B07309781F7B201550C880B990B0E942F
:10433000902A9B01AC01C501B4010E9474296B0154
:104340007C0137FC75C020E030E040E85FE361E0CD
:1043500070E080E090E0101611060CF520E030E0EF
:10436000DC01CB01880F991FAA1FBB1F2C013D0147
:10437000440C551C661C771C440C551C661C771C91
:10438000BC01CD01640D751D861D971D2F5F3F4F2C
:104390000217130729F70E94902A9B01AC01C7015D
:1043A000B6010E94D62B0E945F2A2AE0AE014F5F21
:1043B0005F4F0E945A2F89818823B9F0E0912A0724
:1043C000F0912B07309789F08E010E5F1F4F0995F2
:1043D000019659F0F80181918F01882331F0E09125
:1043E0002A07F0912B07309791F72C960FB6F89487
:1043F000DEBF0FBECDBFDF91CF911F910F91FF9018
:10440000EF90DF90CF90BF90AF909F908F907F9074
:104410006F905F904F903F902F900895E0912A0702
:10442000F0912B07309709F47ECF8EE209957BCF70
:1044300020E030E040E85FEB6FEF7FEFCB018BCF08
:104440000F931F93CF93DF93CDB7DEB72D970FB6A2
:10445000F894DEBF0FBECDBF9A01AE014F5F5F4F34
:104460000E944F2FDC018C918823B9F0E0912A073C
:10447000F0912B07309789F08D010F5F1F4F099541
:10448000019659F0F80181918F01882331F0E09174
:104490002A07F0912B07309791F72D960FB6F894D5
:1044A000DEBF0FBECDBFDF91CF911F910F91089559
:1044B0000F931F93CF93DF93CDB7DEB72A970FB635
:1044C000F894DEBF0FBECDBF4AE0BE016F5F7F4FE5
:1044D0000E94442FDC018C918823B9F0E0912A07D7
:1044E000F0912B07309789F08D010F5F1F4F0995D1
:1044F000019659F0F80181918F01882331F0E09104
:104500002A07F0912B07309791F72A960FB6F89467
:10451000DEBF0FBECDBFDF91CF911F910F910895E8
:10452000FF920F931F93CF93DF93CDB7DEB72A97F8
:104530000FB6F894DEBF0FBECDBFF82E82958F70F8
:1045400040E1BE016F5F7F4F90E00E94442FDC018D
:104550008C918823B9F0E0912A07F0912B073097CE
:1045600089F08D010F5F1F4F0995019659F0F801F1
:1045700081918F01882331F0E0912A07F0912B0778
:10458000309791F78F2D8F7040E1BE016F5F7F4FA5
:1045900090E00E94442FDC018C918823B9F0E091D7
:1045A0002A07F0912B07309789F08D010F5F1F4F7D
:1045B0000995019659F0F80181918F01882331F016
:1045C000E0912A07F0912B07309791F72A960FB6C2
:1045D000F894DEBF0FBECDBFDF91CF911F910F9139
:1045E000FF9008950F931F93CF93DF93161617062E
:1045F00054F4EC018C01060F171F89910E94E61EEE
:10460000C017D107D1F7E0912A07F0912B07309717
:1046100031F08AE0DF91CF911F910F910994DF91E2
:10462000CF911F910F9108950E9434230E944F2330
:104630006091B5077091B6078091B7079091B80760
:104640000E94EC230E94CF2486E993E290932B07EB
:1046500080932A078AEC93E2909329078093280796
:104660000E9488257894089541E450E064E070E069
:1046700081EB97E00C94C02F41E450E064E070E0DF
:1046800081EB97E00C94D02F89B182FB882780F9C9
:104690000895811102C02B9808952B9A089552987D
:1046A000239A2B9808950E9414238CE695E00E948B
:1046B0007D1F0E94861D83B7816083BF889583B765
:1046C0008E7F83BF0E94CE1CF6CF98E088E10FB6A4
:1046D000F894A895809360000FBE90936000FFCF80
:1046E000579A579A569A482F50E0440F551F90E01A
:1046F00012C05F9A5E9A5F9A292F30E0241735071F
:10470000A4F42FEF34E38CE0215030408040E1F7F7
:1047100000C000009F5F90FDECCF5F985E985F98AF
:10472000292F30E02417350764F308952091F4070A
:1047300090910F0830E02F5F3F4F29272F703327CC
:10474000232B41F493B7916093BF889593B79E7FD5
:1047500093BFECCF2091F40790910F0830E02F5FCA
:104760003F4F29272F703327232B89F09091F4078F
:104770009F5F9093F407E091F407EF70F0E0E25050
:10478000F84F80838091C10080628093C10080E0F7
:1047900090E008959091F2078091F3078927877040
:1047A000C1F09091F2078091F3078927877019F47F
:1047B00080E090E008958091F3078F5F8093F30786
:1047C000E091F307E770F0E0EA50F84F808190E065
:1047D00008958FEF9FEF08954F925F926F927F92AF
:1047E0008F929F92AF92BF92CF92DF92EF92FF9201
:1047F0000F931F93CF93DF9300D000D000D0CDB79D
:10480000DEB72B013C016B017C01CC0CDD1CEE1CE6
:10481000FF1CCC0CDD1CEE1CFF1CCC0CDD1CEE1CAC
:10482000FF1C812C54E2952E54EFA52EB12CC5010E
:10483000B401A70196010E94ED2829833A834B8396
:104840005C8389819A8101979E838D8391E44916C7
:1048500092E459069FE06906710408F070C0A70150
:104860009601220F331F441F551FC501B4010E943A
:10487000ED2869017A0122953295307F3227207F19
:10488000322740E050E0C501B4010E94ED28CA0182
:10489000B901A30192010E94ED2811E0012F021B32
:1048A00089819A81880F991F880F991F880F991FF6
:1048B0009C0140E050E0C501B4010E94ED28CA010E
:1048C000B901A30192010E94ED28121B101758F1A3
:1048D00091E0C91AD108C092C400D092C50080915D
:1048E000C0008D7F8093C00088E18093C10010924A
:1048F000C00086E08093C20026960FB6F894DEBF13
:104900000FBECDBFDF91CF911F910F91FF90EF9020
:10491000DF90CF90BF90AF909F908F907F906F90DF
:104920005F904F9008959D819093C4008E818093F5
:10493000C5008091C00082608093C000D5CF809375
:10494000C400F4CF1F920F920FB60F9211248F93D1
:104950009F93EF93FF939091F40780910F0889271D
:104960008F70B9F080910F088F5F80930F08E091EE
:104970000F08EF70F0E0E250F84F80818093C6009E
:10498000FF91EF919F918F910F900FBE0F901F900D
:1049900018958091C1008F7D8093C100F1CFE1EC2B
:1049A000F0E080818068808308951F920F920FB697
:1049B0000F9211242F938F939F93EF93FF938091E6
:1049C000F2072091F30790E00196822787709927DC
:1049D000892BC1F08091F2078F5F8093F207E091FD
:1049E000F207E770F0E08091C600EA50F84F80834C
:1049F000FF91EF919F918F912F910F900FBE0F908C
:104A00001F9018958091C60080930E0881E08093D6
:104A10000E08EECF8FE891E00197F1F700C000009B
:104A200008951F920F920FB60F9211242F933F9368
:104A30004F935F936F937F938F939F93AF93BF93A6
:104A4000EF93FF938091CB07813009F453C080919D
:104A5000CA07813009F459C08091CC07813089F0B0
:104A6000FF91EF91BF91AF919F918F917F916F9146
:104A70005F914F913F912F910F900FBE0F901F901C
:104A8000189580913E0690913F06A0914006B09106
:104A90004106AC01BD0141505109610971094093C2
:104AA0003E0650933F066093400670934106892B63
:104AB0008A2B8B2BA9F66091C6077091C70780914E
:104AC000C8079091C90720E533EC40E050E00E9410
:104AD000ED28DA01C901805E914BAF4FBF4F809343
:104AE0003E0690933F06A0934006B09341060E9475
:104AF000D503B6CF809142068F5F809342068370C4
:104B000009F0A5CF0E944007A2CF0E942704A4CF9E
:104B10001092800089E08093810080E293E090937E
:104B200089008093880082E080936F0008956091EF
:104B3000140870911508809116089091170808952F
:104B400062E278E00E94A72582E298E00895CF9281
:104B5000DF92EF92FF920F931F93CF93DF9300D0DA
:104B600000D0CDB7DEB76C017B01E0911808F09161
:104B700019083097D1F160E178E009958C01F601D0
:104B80004081518162817381809110089091110858
:104B9000A0911208B0911308840F951FA61FB71F8C
:104BA000101611064CF4A801012E000C660B770BB1
:104BB000840F951FA61FB71F89839A83AB83BC837D
:104BC000B701CE0101960E949026F7011387028754
:104BD0000F900F900F900F90DF91CF911F910F9139
:104BE000FF90EF90DF90CF900895FC0140815181BC
:104BF000628173818091100890911108A091120830
:104C0000B0911308840F951FA61FB71F89839A833D
:104C1000AB83BC830FEF1FEFD3CF60931A08709361
:104C20001B0880931C0890931D0820931E08309346
:104C30001F08409320085093210808958F929F9257
:104C4000AF92BF92EF92FF920F931F93CF93DF9398
:104C500000D000D0CDB7DEB78C010E94DC2769837D
:104C60007A838B839C83F8018284938497FC38C079
:104C70009E012F5F3F4F79011814190444F4092C49
:104C8000000CAA08BB08681979098A099B09809059
:104C9000100890901108A0901208B0901308DC0141
:104CA000CB0188199909AA09BB0989839A83AB8327
:104CB000BC83B801C7010E94A72569817A818B81D5
:104CC0009C810F900F900F900F90DF91CF911F91CB
:104CD0000F91FF90EF90BF90AF909F908F900895AD
:104CE000E0911808F0911908309789F060E178E0B8
:104CF0009E012F5F3F4F7901C90109954C01F801D1
:104D00009387828769817A818B819C81B5CFFE01EF
:104D100031967F01BCCF90931908809318080895AD
:104D2000CF92DF92EF92FF920F931F93CF93DF9377
:104D3000CDB7DEB728970FB6F894DEBF0FBECDBF54
:104D40008B01FC01608171818281938120E831E5D2
:104D500041E050E00E94ED2869017A012CE330E047
:104D600040E050E00E940F2929833A834B835C8303
:104D700089819A81AB81BC81F80160836CE370E02A
:104D80000E94D928DC01CB01F801A1838283A6010E
:104D90004A5F5F4F9A01A3E9B4E20E942E29281BC3
:104DA000390B36952795820F931F96958795969583
:104DB00087959C01220F331F220F331F220F331FB1
:104DC000B901681B790B461B570B44832DEA3EE85B
:104DD00040E050E0C701B6010E940F2929833A83C1
:104DE0006D837E838F83988789819A8124E6289FAB
:104DF0006001299FD00C11246D817E818F8198855F
:104E000025EB35E040E050E00E940F2929833A83EA
:104E10006D837E83E980FA80EE0CFF1CEE0CFF1C94
:104E2000EC0CFD1C8D819E8175E6E716F10408F4FB
:104E30005AC001962CE330E04DE651E0E1E0F0E0AD
:104E40004817590768F46DE671E08E1B9F0B0E94AE
:104E5000D928DC01CB01E80EF91ECD012BE330E0AF
:104E6000F4E6EF0EF11CF801F782E6829187808765
:104E70008217930708F443C069E970E0821B930B23
:104E80000E94D928DC01CB01F82EFF0CFF0CF80E94
:104E90006DE370E0CD010E94D928DC01CB01E82E42
:104EA000EE0C6FE170E0CD010E94D928DC01CB014E
:104EB00022E0280FF20EFE0CF801F5828A2FF8018D
:104EC000138612868F5F838328960FB6F894DEBF11
:104ED0000FBECDBFDF91CF911F910F91FF90EF904B
:104EE000DF90CF900895E4E6EE16F10409F0A2CF2A
:104EF0002BE330E04CE651E0E0E0F0E0A1CF6FE1E1
:104F000070E00E94D928DC01CB01F80185838A2F4B
:104F1000D6CFEF92FF920F931F93CF93DF938C0125
:104F2000EB01FC01868197818459984F64E670E01B
:104F30000E94D9289B017C014DE2BE01C9010E945B
:104F4000B728BE016E5F7F4F4DE2C7010E94B728B0
:104F5000BE016B5F7F4FF801858190E04DE20196C5
:104F60000E94B728BE01685F7F4FF801838140E24D
:104F700090E00E94B728BE01655F7F4FF8018281F3
:104F80004AE390E00E94B728BE01625F7F4FF801BC
:104F900081814AE390E00E94B728BE016F5E7F4F97
:104FA000F801808140E090E0DF91CF911F910F9157
:104FB000FF90EF900C94B7288F929F92AF92BF9280
:104FC000CF92DF92EF92FF920F931F93CF93DF93D5
:104FD000EC01EE81FF818F010456110909F48EC0A6
:104FE000C80101976C0197FD96C0D594C794D594DC
:104FF000C7946CE97FEF0E94D928C60ED71E8FEFA9
:10500000C81AD80A0D2C000CEE08FF082DE631E076
:10501000D8010E943D29C60ED71EE81EF91E8B81BD
:1050200090E08C01015011092D81223008F46AC0F2
:10503000CF018459984F0E94A228282F30E0255C88
:105040003F4F200F311F8D8190E0029785309105F1
:1050500014F027563F4F65E070E00E94D928AC015C
:1050600097FD56C0559547959DE3949F8001959F68
:10507000100D1124020F131F80FF02C0015E1F4F8D
:10508000C801110FAA0BBB0B9C01AD012C0D3D1DDE
:105090004E1D5F1D60E871E581E090E00E94C92827
:1050A0004B015C012A8130E0A0E1BEE00E942E2984
:1050B0006B017C01298130E0ACE3B0E00E942E2935
:1050C000DC01CB018C0D9D1DAE1DBF1D2881820F03
:1050D000911DA11DB11DBC01CD01680D791D8A1D59
:1050E0009B1DDF91CF911F910F91FF90EF90DF906B
:1050F000CF90BF90AF909F908F900895C12CD12CEE
:10510000760184CF222309F4BBCF015E1F4FB8CFB5
:105110004F5F5F4FA7CF680122E0C20ED11C65CF61
:1051200060931408709315088093160890931708DD
:10513000089560931008709311088093120890935B
:10514000130808959C0123703327232B61F464E630
:1051500070E00E94D928892B41F46370772781E0A1
:10516000672B09F4089580E0089581E008951F9366
:10517000CF93DF93EB01142F6AE070E00E94D928EF
:10518000605D6883805D89831A83DF91CF911F9171
:105190000895DB018F939F930E944429BF91AF91A3
:1051A000A29F800D911DA39F900DB29F900D112481
:1051B000089597FB072E16F4009407D077FD09D0C9
:1051C0000E944F2907FC05D03EF4909581959F4F92
:1051D0000895709561957F4F0895A1E21A2EAA1B3C
:1051E000BB1BFD010DC0AA1FBB1FEE1FFF1FA21797
:1051F000B307E407F50720F0A21BB30BE40BF50B94
:10520000661F771F881F991F1A9469F7609570951C
:10521000809590959B01AC01BD01CF010895052EAD
:1052200097FB1EF400940E94262957FD07D00E9488
:10523000ED2807FC03D04EF40C9426295095409598
:10524000309521953F4F4F4F5F4F08959095809532
:10525000709561957F4F8F4F9F4F0895A29FB0012A
:10526000B39FC001A39F700D811D1124911DB29F9A
:10527000700D811D1124911D08950E942E29B7FFE4
:105280000895821B930B08950E942E29A59F900DCF
:10529000B49F900DA49F800D911D11240895AA1B09
:1052A000BB1B51E107C0AA1FBB1FA617B70710F011
:1052B000A61BB70B881F991F5A95A9F78095909543
:1052C000BC01CD0108959F939F770E94CB2A0F9038
:1052D000002042F49058A2EA2AED3FE049E450E46D
:1052E0000E948C290C94542B5058BB27AA270E944B
:1052F0008C290C94542B0E941B2B38F00E94222BDB
:1053000020F039F49F3F19F426F40C94F12A0EF49E
:10531000E095E7FB0C94EB2AE92F0E94792B58F3D8
:10532000BA17620773078407950720F079F4A6F58A
:105330000C949B2B0EF4E0950B2EBA2FA02D0B0195
:10534000B90190010C01CA01A0011124FF27591BCA
:1053500099F0593F50F4503E68F11A16F040A22FD0
:10536000232F342F4427585FF3CF46953795279541
:10537000A795F0405395C9F77EF41F16BA0B620B40
:10538000730B840BBAF09150A1F0FF0FBB1F661F87
:10539000771F881FC2F70EC0BA0F621F731F841FCA
:1053A00048F4879577956795B795F7959E3F08F0F0
:1053B000B0CF9395880F08F09927EE0F97958795B2
:1053C00008950E942B2BE3950C94652B0E94FA29DB
:1053D0000C94542B0E94222B58F00E941B2B40F05F
:1053E00029F45F3F29F00C94EB2A51110C949C2B6B
:1053F0000C94F12A0E94792B68F39923B1F3552379
:1054000091F3951B550BBB27AA27621773078407D7
:1054100038F09F5F5F4F220F331F441FAA1FA9F36D
:1054200035D00E2E3AF0E0E832D091505040E6955B
:10543000001CCAF72BD0FE2F29D0660F771F881FBC
:10544000BB1F261737074807AB07B0E809F0BB0BAF
:10545000802DBF01FF2793585F4F3AF09E3F5105C3
:1054600078F00C94EB2A0C949C2B5F3FE4F3983E6D
:10547000D4F3869577956795B795F7959F5FC9F7AC
:10548000880F911D9695879597F90895E1E0660F2D
:10549000771F881FBB1F621773078407BA0720F0A6
:1054A000621B730B840BBA0BEE1F88F7E09508950F
:1054B0000E945F2A6894B1110C949C2B08950E945D
:1054C000812B88F09F5798F0B92F9927B751B0F0EA
:1054D000E1F0660F771F881F991F1AF0BA95C9F778
:1054E00014C0B13091F00E949B2BB1E008950C9450
:1054F0009B2B672F782F8827B85F39F0B93FCCF303
:10550000869577956795B395D9F73EF490958095F4
:10551000709561957F4F8F4F9F4F0895E89409C014
:1055200097FB3EF490958095709561957F4F8F4FD6
:105530009F4F9923A9F0F92F96E9BB279395F695EC
:10554000879577956795B795F111F8CFFAF4BB0F6A
:1055500011F460FF1BC06F5F7F4F8F4F9F4F16C0CE
:10556000882311F096E911C0772321F09EE8872F58
:10557000762F05C0662371F096E8862F70E060E014
:105580002AF09A95660F771F881FDAF7880F96958D
:10559000879597F90895DF93CF931F930F938B010E
:1055A000EC01E8E6F0E00E94F42A0E94542B9801F6
:1055B000AE018B01EC0160E070E080E89FE30E94A7
:1055C00074290E94512C9801AE010F911F91CF9127
:1055D000DF910C94E92B97F99F6780E870E060E019
:1055E00008959FEF80EC0895DF93CF931F930F935F
:1055F000FF92EF92DF927B018C01689406C0DA2E55
:10560000EF010E94E92BFE01E894A59125913591C7
:1056100045915591A6F3EF010E948C29FE01970157
:10562000A801DA9469F7DF90EF90FF900F911F9136
:10563000CF91DF91089500240A94161617061806D4
:105640000906089500240A94121613061406050686
:1056500008950C94F12A0E94812BD8F3E894E0E09D
:10566000BB279F57F0F02AED3FE049EC06C0EE0F54
:10567000BB0F661F771F881F28F0B23A62077307B7
:10568000840728F0B25A620B730B840BE3959A954A
:1056900072F7803830F49A95BB0F661F771F881F0A
:1056A000D2F790480C94932C092E0394000C11F41B
:1056B000882352F0BB0F40F4BF2B11F460FF04C0ED
:1056C0006F5F7F4F8F4F9F4F0895EF93E0FF07C0AD
:1056D000A2EA2AED3FE049EC5FEB0E948C290E9490
:1056E000542B0F90039401FC9058E0E9F0E00C94E7
:1056F000A62C57FD9058440F551F59F05F3F71F08D
:105700004795880F97FB991F61F09F3F79F0879528
:105710000895121613061406551FF2CF4695F1DFB1
:1057200008C0161617061806991FF1CF8695710541
:10573000610508940895E894BB2766277727CB0175
:1057400097F90895FA01DC01AA0FBB1F9B01AC0178
:10575000BF5728F4222733274427507820C0B75159
:1057600090F4AB2F0024469537952795011CA395FF
:10577000D2F3002071F0220F331F441FB395DAF3E8
:105780000ED00C94742961307105A0E88A07B946DF
:1057900030F49B01AC0166277727882790783096F4
:1057A00021F0208331834283538308950E94E92BA3
:1057B0000C94542B0E941B2B38F00E94222B20F0BB
:1057C000952311F00C94EB2A0C94F12A11240C94DB
:1057D0009C2B0E94792B70F3959FC1F3950F50E09D
:1057E000551F629FF001729FBB27F00DB11D639F93
:1057F000AA27F00DB11DAA1F649F6627B00DA11D39
:10580000661F829F2227B00DA11D621F739FB00DDE
:10581000A11D621F839FA00D611D221F749F33274E
:10582000A00D611D231F849F600D211D822F762FE7
:105830006A2F11249F5750409AF0F1F088234AF0C4
:10584000EE0FFF1FBB1F661F771F881F9150504030
:10585000A9F79E3F510580F00C94EB2A0C949C2BE9
:105860005F3FE4F3983ED4F3869577956795B795B7
:10587000F795E7959F5FC1F7FE2B880F911D9695D1
:10588000879597F908959F930E942B2B0F9007FC03
:10589000EE5F0C94652B19F416F40C94F12A0C9419
:1058A000912C0E94812BB8F39923C9F3B6F39F572B
:1058B000550B87FF0E949F2C0024A0E640EA900130
:1058C00080585695979528F4805C660F771F881F3F
:1058D00020F026173707480730F4621B730B840B40
:1058E000202931294A2BA695179407942025312584
:1058F0004A2758F7660F771F881F20F026173707AB
:10590000480730F4620B730B840B200D311D411DD1
:10591000A09581F7B901842F9158880F96958795A6
:1059200008959F3F31F0915020F4879577956795C2
:10593000B795880F911D9695879597F90895915081
:105940005040660F771F881FD2F708959F938F935B
:105950007F936F93FF93EF939B01AC010E94D62B33
:10596000EF91FF910E94F42A2F913F914F915F9107
:105970000C94D62BA0E0B0E0E0ECFCE20C94F32F0A
:105980005C016B017A016115710519F0FB019183CE
:105990008083E114F10429F0C7010297839708F08E
:1059A000E5C0E5012196F5011081812F90E00E946C
:1059B000E32E892B11F05E01F4CF1D3229F42196DC
:1059C000F501118101E007C01B3221F4E5012296A7
:1059D000F501118100E0E114F10409F1F0E1EF16A5
:1059E000F10429F43FC010E3E114F10421F128E0AF
:1059F000E216F10401F154F4E2E0EE16F10421F5AF
:105A0000812C912CA12CB0E4BB2E3EC0FAE0EF1605
:105A1000F10439F020E1E216F104B1F430C01033A2
:105A200019F1FAE0EF2EF12CACEC8A2E982CA82C70
:105A3000ACE0BA2E29C078E0E72EF12C812C912C15
:105A4000A12CE0E1BE2E20C060E070E080E090E894
:105A500097010F2C000C440B550B0E94ED284901B7
:105A60005A0112C0103359F488818F7D883509F0AE
:105A7000BACF19812296026080E1E82EF12C812CA8
:105A8000912CA12C68E0B62E40E060E070E0CB01E4
:105A900027010F2C000C66087708FE0150ED352E0B
:105AA000310E29E0231570F42FEB210F2A3118F461
:105AB00039EC332E06C02FE9210F2A3118F529EAD7
:105AC000322E310E232D30E02E153F05DCF447FD3C
:105AD00016C086169706A806B90670F0A3019201B3
