:100000000C948A040C94B3040C94B3040C94B304BD
:100010000C94B3040C94B3040C94B3040C94B30484
:100020000C94B3040C94B3040C94B3040C94A22D5C
:100030000C94B3040C94B3040C94B3040C94B30464
:100040000C94B3040C94B3040C94662D0C94332DCF
:100050000C94B3040C94B3040C94B3040C94B30444
:100060000C94B3040C94B304072C7AA5BA6CC59015
:10007000DA3B9365FC8BBC53F810FD3C5692834DE4
:10008000BD879D3AB63DCBC9BF5BBE73DA0FC93F92
:1000900005A84CCDB2D44EB93836A9020C50B9914E
:1000A0008688083CA6AAAA2ABE000000803F737971
:1000B0006E7461783A20636F6D6D616E64206F704D
:1000C00074696F6E3D76616C7565202E2E2E3B0A2D
:1000D000636F6D6D616E6473206172653A200074A8
:1000E000797065202768656C7020636F6D6D616E37
:1000F000643B2720206F72202768656C7020616C3C
:100100006C3B270A636F6D6D616E6473206172656D
:100110003A20006461696C793D5420202020202021
:100120002020656E61626C6573206461696C792062
:1001300074696D65722E20542069732075702F6468
:100140006F776E206C696B6520303733302D206FF0
:1001500072203037333032303030206F72202D3201
:100160003030302020666F722075702030373A337F
:100170003020616E642F6F7220646F776E20323092
:100180003A30300A7765656B6C793D545454545459
:10019000545420656E61626C6573207765656B6C85
:1001A000792074696D65722E2054206C696B65200E
:1001B0007769746820276461696C7927206F7220E1
:1001C000272B2720746F20636F7079207468652057
:1001D00054206F6E20746865206C6566742E20282C
:1001E0007765656B6C793D303733302D2B2B2B2B9E
:1001F000303930302D2B290A617374726F5B3D4E9C
:100200005D202020202020656E61626C6573206176
:100210007374726F206175746F6D617469632E20E1
:100220004E20697320746865206F6666736574205C
:10023000746F20636976696C206475736B20696ED6
:10024000206D696E757465732E2043616E20626542
:1002500020706F7374697665206F72206E656761B8
:10026000746976652E0A73756E2D6175746F202022
:100270002020202020656E61626C65732073756E8E
:10028000206175746F6D617469630A72616E646F69
:100290006D202020202020202020656E61626C656A
:1002A000732072616E646F6D206175746F6D61741F
:1002B00069632E2073687574746572206F70656E43
:1002C0007320616E6420636C6F73657320617420AA
:1002D00072616E646F6D2074696D65732E0A72743D
:1002E000632D6F6E6C7920202020202020646F6E9B
:1002F0002774206368616E67652074696D65727329
:100300002E206F6E6C792075706461746520696E43
:100310007465726E616C207265616C2074696D65C4
:1003200020636C6F636B0A612C206720616E642010
:100330006D3A202020206C696B6520696E20736502
:100340006E6420636F6D6D616E640A72733D283058
:100350007C317C322920202020207265616420625B
:1003600061636B2073617665642074696D657220CA
:10037000646174612E2069662073657420746F2037
:10038000322C2072657475726E20616E7920646102
:100390007461206D61746368696E67206720616EA7
:1003A00064206D20652E672E206D3D302028616E03
:1003B00079206D656D6265722920696E737465615F
:1003C00064206F66206D3D320A007072696E743D64
:1003D000287274637C63757C72657365742D696EB5
:1003E000666F290A0027636F6E6669672720736549
:1003F0007473206F722067657473206F7074696FF7
:100400006E732E205573653A20636F6E66696720A0
:100410006F7074696F6E3D76616C7565202E2E2E3F
:100420003B20746F207365742E205573653A2063EA
:100430006F6E666967206F7074696F6E3D3F202E26
:100440002E2E3B20746F206765742C206966207304
:100450007570706F727465640A0A63753D2849444B
:100460007C6175746F7C3F292020202020362D640C
:100470006967697420686578204944206F66204365
:10048000656E7472616C2D556E69742E2061757481
:100490006F3A2063617074757265204944207769F2
:1004A000746820636F6E6E656374656420524620C5
:1004B00072656365697665720A7274633D28495393
:1004C0004F5F54494D457C3F29202020736574209F
:1004D0006C6F63616C2074696D6520776974682046
:1004E0007468697320286F7220757365204E5450AC
:1004F000292E206578616D706C653A20636F6E6699
:100500006967207274633D323031372D31322D33BB
:10051000315432333A35393A35393B0A62617564C0
:100520003D284E7C3F2920202020202020202020F4
:100530002073657269616C206261756420726174F8
:100540006520282E2E2E20626175643D31313532B2
:100550003030290A6C6F6E6769747564653D284494
:1005600045477C3F290A6C617469747564653D2850
:100570004445477C3F290A74696D652D7A6F6E6525
:100580003D284E7C3F2920202020202020657861B6
:100590006D706C653A20636F6E66696720206C6FC2
:1005A0006E6769747564653D2B31332E3233343593
:1005B00032206C617469747564653D2B35322E335D
:1005C000343233342074696D652D7A6F6E653D2B3E
:1005D000312E303B0A6473743D2865757C307C3164
:1005E0007C3F292020202020206461796C69676885
:1005F0007420736176696E672074696D653A206155
:1006000075746F6D617469633A2065753D657572C7
:100610006F70652E206D616E75616C6C793A20305B
:100620003D6F66662C20313D6F6E0A766572626F93
:1006300073653D28302E2E357C3F292020202073E5
:1006400065742074657874206F7574707574207685
:100650006572626F73697479206C6576656C3A2097
:100660003020666F72206E6F6E65202E2E2E203524
:1006700020666F72206D6178290A7365742D70771A
:100680003D70617373776F726420202073657420EE
:100690006120636F6E6669672070617373776F7234
:1006A000642E2069662073657420657665727920F2
:1006B000636F6E66696720636F6D6D616E64732032
:1006C0006E6565647320746865207077206F707440
:1006D000696F6E0A70773D5057202020202020201F
:1006E0002020202020206578616D706C653A2063A1
:1006F0006F6E6669672070773D6D795F70617373A7
:1007000077206473743D65753B0A7265737461721A
:100710007420202020202020202020207265737447
:10072000617274204D43550A00613D28307C494474
:100730002920202020686578204944206F66207396
:10074000656E646572206F72207265636569766597
:10075000722E2030202864656661756C74292075BE
:10076000736573202763752720696E20636F6E663B
:1007700069670A673D5B302D375D202020202067A8
:10078000726F7570206E756D6265722E2030202834
:1007900064656661756C7429206164647265737345
:1007A000657320616C6C2067726F7570730A6D3DA4
:1007B0005B302D375D202020202067726F75702000
:1007C0006D656D6265722E203020286465666175E6
:1007D0006C74292061646472657373657320616C45
:1007E0006C206D656D626572730A633D636F6D6D3C
:1007F000616E64202020436F6D6D616E6420746FA4
:100800002073656E642E204F6E65206F663A2075EA
:10081000702C20646F776E2C2073746F702C207393
:10082000756E2D646F776E2C2073756E2D696E73E7
:10083000742C207365740A723D4E202020202020E5
:1008400020202052657065617465642073656E6454
:10085000696E6720666F72206265747465722072BB
:100860006563657074696F6E2E2053656E642074C5
:10087000686520636F6D6D616E6420312B4E20744E
:10088000696D65735345505B3D307C315D202020A0
:1008900053776974636820746F20656E61626C655C
:1008A00020656E642D706F736974696F6E2061646A
:1008B0006A7573746D656E742E20486F6C64206861
:1008C0006172647761726520627574746F6E2074F2
:1008D0006F2061646A75737420656E6420706F7335
:1008E0006974696F6E2028657370383236363A2025
:1008F0006770696F302F666C6173682062757474FD
:100900006F6E206F6E206D696E6920626F61726418
:100910007329000011241FBECFEFD8E0DEBFCDBF8A
:1009200014BE0FB6F894A8958091600088618093FA
:100930006000109260000FBE15E0A0E0B1E0EAEDAB
:10094000F1E702C005900D92AC37B107D9F728E066
:10095000ACE7B5E001C01D92A434B207E1F70E94F4
:10096000E42B0C94EB380C9400008F938FB78F938B
:10097000F894809128088F5F809328088091290837
:100980008F4F8093290880912A088F4F80932A08DF
:1009900080912B088F4F80932B088F918FBF8F9161
:1009A0000895CF9380914A0681113DC080915006F1
:1009B0001816ACF580914F068F708330C1F180918D
:1009C0004A0681112CC081E00E940318C82F882399
:1009D00031F18091500681508093500685E0EBE420
:1009E000F6E0A1E9B6E001900D928A95E1F761E0A9
:1009F00081E996E00E94931D8091E10781111CC05E
:100A00008CE090E0909352068093510681E08093B1
:100A10004A0680E00E9403188C2FCF910895C1E010
:100A20008C2FCF910895C0E08C2FCF9108958BE447
:100A300096E00E94AD25C3CF80E391E00E940C2890
:100A400061E081E996E00E94451FDACF0F931F9382
:100A5000CF93DF938C01D62F80914A06811136C047
:100A60000115110531F080915006181614F41092FA
:100A7000500681E00E940318C82F882339F1D13035
:100A8000E9F185E0F801A1E9B6E001900D928A95BF
:100A9000E1F76D2F81E996E00E94931D8091E107B7
:100AA00081111BC0D23039F180E591E0909352065C
:100AB0008093510681E080934A0680E00E940318EB
:100AC0008C2FDF91CF911F910F910895C0E08C2F53
:100AD000DF91CF911F910F91089580E391E00E94E3
:100AE0000C288091E107823040F16D2F81E996E07A
:100AF0000E94451FD7CF8EE190E0D8CF0115110598
:100B000011F186E0F801ABE4B6E001900D928A9510
:100B1000E1F785E0F801A1E9B6E001900D928A9530
:100B2000E1F761E081E996E00E94931D8091E10781
:100B3000811111C08CE090E0B9CF61E081E996E0CD
:100B40000E94451FAFCF8091500681508093500680
:100B50000BE416E0DECF80E391E00E940C2861E018
:100B600081E996E00E94451FE5CF2F923F924F9278
:100B70005F926F927F928F929F92AF92BF92CF922D
:100B8000DF92EF92FF920F931F93CF93DF93CDB736
:100B9000DEB76E970FB6F894DEBF0FBECDBF8C01E7
:100BA000072E000C880B990B0E94293320E030E0BF
:100BB00040E752E40E947F32698F7A8F8B8F9C8F3F
:100BC0009801285F3F4F38872F83C8018C589F4F6B
:100BD0009E8F8D8F8AEE96E6ABEDBDEB8D8B9E8B57
:100BE000AF8BB88F85E89BEBACE0BEEB898B9A8B23
:100BF000AB8BBC8B80ED9BEEAAE6BFE38D879E8717
:100C0000AF87B88B86E693E7ABECBEEB89879A8714
:100C1000AB87BC87312C212C90E89D83AFEBAE8352
:100C2000812C80E8982E81EBA82E83E4B82E8901D0
:100C3000085011092BED3FE049E450E46091D107E1
:100C40007091D2078091D3079091D4070E94743499
:100C500020E030E044E353E40E947F326B017C01EA
:100C60000E94E1342B013C01C701B6010E947A3297
:100C70006B017C0129853A854B855C85C301B201F6
:100C80000E9474349B01AC0165E073E186ED9DEB3D
:100C90000E940D322B013C012D853E854F855889E0
:100CA000C701B6010E9474349B01AC01C301B201BB
:100CB0000E947F320E94FC3120E030E040E451E4A9
:100CC0000E9474342BED3FE049E450E40E947F32EF
:100CD00020E030E040E451E40E940E326B017C01E0
:100CE00020EA3AE14FE25EEB69897A898B899C8937
:100CF0000E9474342B013C0121E834E045E05EE3BE
:100D00006D897E898F89988D0E9474349B01AC0116
:100D1000C301B2010E940D329B01AC01C701B601B3
:100D20000E940D326B017C0120E030E040E751E48D
:100D30006091CD077091CE078091CF079091D00739
:100D40000E947F329B01AC01C701B6010E940D32A7
:100D50006B017C012091D5073091D6074091D707D0
:100D60005091D807698D7A8D8B8D9C8D0E940E32A3
:100D70009B01AC01C701B6010E940E326B017C01E0
:100D80009B01AC01632D722D8D819E810E943B34AD
:100D9000181624F03C2C2D2CED82FE82AE014F5F04
:100DA0005F4F632D722D8D819E810E9440346B01B7
:100DB0007C010F3FBFEF1B0759F069817A818B815E
:100DC0009C810E94F832862F0E94EA21F8018183DB
:100DD0000115110589F020E030E040E752E4C70139
:100DE000B6010E9474340E94F83281E0860F8E7F33
:100DF0000E94EA21D8018C9320E030E843E750E4D8
:100E0000C501B4010E940D324B015C010E5F1F4F02
:100E1000EF81F885E017F10709F44FC028E03CE2C4
:100E200040EA52E4C501B4010E940D3224E73EE7D6
:100E30004AE85CE30E9474340E94E1342CEF39EA02
:100E400041ED5EE30E9474346B017C010E94E13449
:100E500069877A878B879C87C701B6010E947A329F
:100E60006D877E878F87988B23E039E04AE05DE3CA
:100E7000C501B4010E9474342BE734E14EEE5EE309
:100E80000E940E320E94E134698B7A8B8B8B9C8B93
:100E90002BE134E642E95CE3C501B4010E947434FD
:100EA00021E338E04CE25EE30E940D320E94E1341F
:100EB0006D8B7E8B8F8B988FBDCE3996F887EF83A5
:100EC0002D8D3E8DE217F30709F44FC028E03CE278
:100ED00040EA52E40E940D3224E73EE74AE85CE330
:100EE0000E9474340E94E1342CEF39EA41ED5EE354
:100EF0000E9474346B017C010E94E13469877A8717
:100F00008B879C87C701B6010E947A326D877E87E6
:100F10008F87988B23E039E04AE05DE3C501B40197
:100F20000E9474342BE734E14EEE5EE30E940E32F1
:100F30000E94E134698B7A8B8B8B9C8B2BE134E69E
:100F400042E95CE3C501B4010E94743421E338E056
:100F50004CE25EE30E940D320E94E1346D8B7E8B89
:100F60008F8B988F0F81188563CE6E960FB6F8948D
:100F7000DEBF0FBECDBFDF91CF911F910F91FF90CC
:100F8000EF90DF90CF90BF90AF909F908F907F9029
:100F90006F905F904F903F902F9008958F929F9207
:100FA000AF92BF92CF92DF92EF92FF920F931F9377
:100FB000CF93DF93CDB7DEB764970FB6F894DEBF5B
:100FC0000FBECDBF623071050CF460C0FC01E4803F
:100FD000F580C680D780E114F10409F485C0C114FE
:100FE000D10409F481C04B018C01AA24A394B12C33
:100FF00025C069E371E0C6010E94C737892B09F457
:1010000048C068EA73E0C6010E94C737892B09F41B
:101010004EC0FFEFAF1ABF0A8A149B04B9F1F80162
:10102000E084F184C284D384E114F10409F45CC047
:101030000C5F1F4FC114D10409F456C063E371E083
:10104000C7010E94C737892BA1F284E591E00E9475
:101050000C288091570690915806892BD9F58AE380
:101060000E94ED278CE591E00E940C288CEC94E026
:101070000E940C28C7010E940C288AE00E94ED27DC
:10108000FFEFAF1ABF0A8A149B0449F680E090E094
:101090002DC0CE0101960E947524882309F4B9CF92
:1010A000CE0101960E940C280E940128B2CF8DE348
:1010B00091E00E940C286091C5077091C60780914D
:1010C000C7079091C80740E150E00E94AF2A0E94F4
:1010D00001289FCF80E40E94ED27809157069091D0
:1010E00058060E94E72ABBCF8FEF9FEF64960FB69A
:1010F000F894DEBF0FBECDBFDF91CF911F910F914E
:10110000FF90EF90DF90CF90BF90AF909F908F9027
:101110000895CF92DF92EF92FF920F931F93CF9398
:10112000DF936C017B016130710509F4D4C00CF4CC
:1011300099C001E010E054C0BE018091000190917F
:1011400001010E94C737892B09F4A5C0BE01809117
:101150000601909107010E94C737892B09F4AFC09F
:10116000BE0180910C0190910D010E94C737892B1F
:1011700009F4A8C0BE0180911201909113010E9450
:10118000C737892B09F4A1C0BE0180911801909145
:1011900019010E94C737892B09F49AC084E591E0B0
:1011A0000E940C288091570690915806892B09F0CF
:1011B00068C08AE30E94ED278CE591E00E940C282C
:1011C0008CEC94E00E940C28CE010E940C288AE04E
:1011D0000E94ED270F5F1F4F0E151F050CF042C038
:1011E000F801EE0FFF1FEE0FFF1FEC0DFD1DC0817C
:1011F000D18167EA71E0CE010E94C737892B09F0DF
:101200009BCF8EEA90E00E942F28C0E0D1E08E01B3
:10121000F801808191810E940C2884EA91E00E946B
:101220000C280A5F1F4FF1E00E311F0789F70E945B
:101230000128888199810E940C288BEA91E00E9404
:101240000C288C819D810E942F280E9401282696BF
:1012500081E0CE31D80769F706E010E00E151F05D2
:101260000CF4BECF8BE691E00E940C2880E090E069
:10127000DF91CF911F910F91FF90EF90DF90CF9072
:10128000089580E40E94ED278091570690915806BA
:101290000E94E72A8ECF80E090E0FC01EE0FFF1F56
:1012A000E80FF91FEE0FFF1FE050FF4F848195817B
:1012B0000E942F280E9401280F5F1F4F8DCF81E0D1
:1012C00090E0EBCF82E090E0E8CF83E090E0E5CFE4
:1012D00084E090E0E2CF8FED90E00E942F28C0E004
:1012E000D1E00EE111E0888199810E940C2884EA06
:1012F00091E00E940C2826960C171D07A1F70E946A
:101300000128B4CF2F923F924F925F926F927F92BB
:101310008F929F92AF92BF92CF92DF92EF92FF9205
:101320000F931F93CF93DF9300D000D0CDB7DEB7DC
:101330003B01623071050CF41AC2FC010481158175
:10134000C680D7800115110509F4C3C09C838B8327
:10135000312C1A82212CF2E0F98344244A94542C33
:10136000812C912C5401EE24E394F12C20C0C11463
:10137000D10409F484C040E150E060E070E0C601AF
:101380000E947C354B015C01FFEFEF1AFF0A6E14DF
:101390007F0471F1EB81FC81008511853496FC831B
:1013A000EB83C680D7800115110509F492C066EB66
:1013B00071E0C8010E94C737892BC9F265EA73E062
:1013C000C8010E94C737892B09F042C0C114D1045B
:1013D00009F46AC0C6010E9487378830910508F079
:1013E00063C0382EFFEFEF1AFF0A6E147F0491F6E8
:1013F00081149104A104B10409F41BC120917F055B
:10140000822F90E0A0E0B0E0DC019927882730919E
:101410008105832B4091800550E0542F442760E0E4
:1014200070E0842B952BA62BB72B88169906AA065D
:10143000BB0609F4E1C0B501A4018FE795E00E9465
:101440008D2520917F05EFE7F5E0FC83EB83D8C085
:1014500067E573E0C8010E94C737892BA1F4C11466
:10146000D10411F1C6010E94873788309105E0F45C
:10147000009709F48DC0E7E02E2E280E85CF812C31
:10148000912C540181CF6FEA73E0C8010E94C737E5
:10149000892BC1F5C114D10439F0C6010E948737E8
:1014A00089838B3008F470CF8EEB91E00E940C287A
:1014B0008091570690915806892B09F028C18CEC31
:1014C00094E00E940C2888EB91E00E940C280E9476
:1014D00001288FEF9FEF0F900F900F900F90DF91EB
:1014E000CF911F910F91FF90EF90DF90CF90BF9021
:1014F000AF909F908F907F906F905F904F903F90B4
:101500002F9008956BE371E0C8010E94C737892BC3
:1015100009F040C0C114D10439F26DEC71E0C6018C
:101520000E94C737892B09F40CC166ED71E0C60132
:101530000E94C737892B09F401C164EC71E0C60130
:101540000E94C737892B09F4FFC069EC71E0C6011E
:101550000E94C737892B09F4EEC062ED71E0C60125
:101560000E94C737892B09F4FFC069ED71E0C601FD
:101570000E94C737892B09F4F4C062EE71E0C601FE
:101580000E94C737892B09F08FCF8DE08A83FCCE6C
:10159000212CFACE66EE71E0C8010E94C737892B74
:1015A00071F4C114D10421F0F6018081813321F45A
:1015B00044244394512CE8CE412C512CE5CE84E5B3
:1015C00091E00E940C288091570690915806892B33
:1015D00009F0A7C08AE30E94ED278CE591E00E9404
:1015E0000C288CEC94E00E940C28C8010E940C2866
:1015F0008AE00E94ED27C8CE8FE795E09C838B831D
:10160000207F2038F9F0FFEF4F165F0699F1EB814C
:10161000FC818481982F907F8A818F70892B8483AD
:10162000452809F458C0CF010E94312280E090E0A3
:1016300052CF2091590689E596E09C838B83207FC9
:10164000203809F7EB81FC8124812F70F0E13F9E67
:10165000C0011124322E382AEB81FC81348283812F
:10166000982F907F822D8F70892B8383FFEF4F16E9
:101670005F0669F6FA81FF2399F1EB81FC81848191
:10168000982F907F8A818F70892B8483CF010E944D
:10169000AD252981EB81FC81258361E0CF010E948A
:1016A00026058823E9F08EEB91E00E940C288091BA
:1016B000570690915806892B09F068C08CEC94E08D
:1016C0000E940C288CE393E00E940C280E940128C1
:1016D00080E090E000CF0E94062280E090E0FBCE08
:1016E0008EEB91E00E940C2880915706909158064D
:1016F000892B69F58CEC94E00E940C2888EB91E032
:101700000E940C280E94012880E090E0E4CE80E452
:101710000E94ED2780915706909158060E94E72A73
:10172000CECE80E40E94ED27809157069091580616
:101730000E94E72A4FCF86E08A8326CE84E08A8300
:1017400023CE85E08A8320CE83E08A831DCE80E489
:101750000E94ED2780915706909158060E94E72A33
:10176000C9CF88E08A8310CE87E08A830DCE20918E
:10177000590632E0398344244A94542C212C1A828D
:10178000312C89E596E09C838B833ACF80E40E94DC
:10179000ED2780915706909158060E94E72A8ECF38
:1017A000CF93DF93EC0184E591E00E940C288091B7
:1017B000570690915806892B99F48AE30E94ED27E9
:1017C0008CE591E00E940C288CEC94E00E940C289F
:1017D000CE010E940C288AE0DF91CF910C94ED2776
:1017E00080E40E94ED2780915706909158060E9450
:1017F000E72AE3CF2F923F924F925F926F927F92B0
:101800008F929F92AF92BF92CF92DF92EF92FF9210
:101810000F931F93CF93DF93CDB7DEB7A0970FB68B
:10182000F894DEBF0FBECDBF4B013324339420911B
:10183000E6072111312C22E0821691040CF4DEC15E
:10184000FC01E480F580C680D780E114F10409F43E
:1018500024C1C114D10409F420C18C017AEE672E91
:1018600071E0772E212C412C512CAA24A394B12C69
:1018700023C0B60186EE97E00E94C737892B09F096
:1018800008C187EF91E00E940C283FEFA31AB30A2A
:101890008A149B0461F1F801E084F184C284D3844A
:1018A000E114F10409F4F9C00C5F1F4F33243394A1
:1018B000C114D10409F4F1C062EA72E0C7010E94C8
:1018C000C737892BB1F2332009F40DC264E372E00B
:1018D000C7010E94C737892B79F521100EC10E94DC
:1018E000F62B3FEFA31AB30A8A149B04A1F621102A
:1018F0009DC163ED74E0C3010E94C737892B09F4D1
:1019000098C1452809F47AC18EEB91E00E940C2819
:101910008091570690915806892B09F0A1C28CEC52
:1019200094E00E940C2888EB91E00E940C280E9411
:10193000012880E090E0C8C069E371E0C7010E941F
:10194000C737892B09F051C0F60180818F3309F424
:101950008FC1C6010E949A24882389F18EEB91E001
:101960000E940C288091570690915806892B09F007
:10197000F7C08CEC94E00E940C288CE393E00E946A
:101980000C280E94012881CF66E972E0C7010E94FD
:10199000C737892B09F425C16EE972E0C7010E949F
:1019A000C737892B09F0BEC1F60101900020E9F785
:1019B0003197EC19FD09E031F10508F42EC28EEBE8
:1019C00091E00E940C288091570690915806892B2F
:1019D00009F068C18CEC94E00E940C2888EB91E03F
:1019E0000E940C280E94012850CF68EA73E0C701CA
:1019F0000E94C737892B09F083C0F60180818F339D
:101A000009F476C16DE573E0C6010E94C737892BE2
:101A100009F4C2C060E872E0C6010E94C737892B92
:101A200009F04AC160918A06862F90E0A0E0B0E0FC
:101A3000DC019927882720918C06AC01BD01422B3F
:101A400080918B0690E0982F8827A0E0B0E06A0193
:101A50007B01C82AD92AEA2AFB2AC701B6016701F5
:101A6000EE24FF2420E8C216D104E104F104A9F415
:101A7000C092590670935A0660935B066093C5073F
:101A80007093C6078093C7079093C80722242394B6
:101A9000FCCE84E092E00E940C288EEB91E00E9444
:101AA0000C288091570690915806892B09F04EC05A
:101AB0008CEC94E00E940C2888EB91E00E940C28AA
:101AC0000E9401288FEF9FEFA0960FB6F894DEBF1B
:101AD0000FBECDBFDF91CF911F910F91FF90EF907F
:101AE000DF90CF90BF90AF909F908F907F906F903E
:101AF0005F904F903F902F9008950E94CB2BEFCE98
:101B000069E872E0C7010E94C737892B99F161E942
:101B100072E0C7010E94C737892B09F035CFF60163
:101B200080818F3309F48AC04AE050E060E070E0C1
:101B3000C6010E9492366093C9077093CA078093CA
:101B4000CB079093CC07222423949FCE80E40E945D
:101B5000ED2780915706909158060E94E72AA8CF5A
:101B600080E40E94ED2780915706909158060E94CC
:101B7000E72AFFCE40E150E060E070E0C6010E943D
:101B800092366093E2077093E3078093E4079093A3
:101B9000E5072224239479CE809153069091540630
:101BA000A0915506B0915606CC96A11DB11D80930B
:101BB0008D0590938E05A0938F05B093900510929C
:101BC0008A06809157069091580690938C058093D1
:101BD0008B05F1E0F09389068CE392E00E940C28DB
:101BE000BDCEF60180818F3309F444C1C6010E9445
:101BF00087378093E1072224239447CE8EEB91E030
:101C00000E940C288091570690915806892B09F064
:101C10001DC18CEC94E00E940C288CE393E00E94A0
:101C20000C280E94012880E090E04ECF0E94CB2B30
:101C300060CE8FED92E00E940C2863CEC3010E941B
:101C40000C28C7010E940C2883E794E00E940C280E
:101C50006091C9077091CA078091CB079091CC071A
:101C600040E00E94872963ED662E64E0762E0DCE5B
:101C7000CE0101960E947524882309F406CEC30183
:101C80000E940C28C7010E940C2883E794E00E9460
:101C90000C28CE0101960E940C2863ED662E64E0AC
:101CA000762EF3CD80E40E94ED2780915706909127
:101CB00058060E94E72A8ECE40E150E060E070E0D6
:101CC000C6010E9492366C01EE24FF2430E8C31254
:101CD000E4CE292F332744275527232B242B252BCC
:101CE00009F4C6CEDACE8BE192E00E940C28D5CE64
:101CF000C3010E940C28C7010E940C2883E794E0CE
:101D00000E940C286091C5077091C6078091C70793
:101D10009091C80740E00E94B82853ED652E54E02A
:101D2000752EB3CD65EA72E0C7010E94C737892BD3
:101D300009F47EC062EB72E0C7010E94C737892BAD
:101D400009F417C16EEB72E0C7010E94C737892BF7
:101D500009F0A4C0F60180818F3309F4C2C18D322D
:101D600009F4DAC1A82F60E070E0CB0120E030E098
:101D700040E85FE32D8F3E8F4F8F58A3AA2309F4CD
:101D80000DC1A6014F5F5F4F5E8B4D8B8A2FC12C1B
:101D9000D12C76011A8E198E39C0282E312C50E3A1
:101DA000251A31088AE02816310440F5E98DFA8DAC
:101DB000EF2B71F020E030E040E251E46D8D7E8D3C
:101DC0008F8D98A10E947F326D8F7E8F8F8F98A309
:101DD00020E030E040E251E4C701B6010E947434D3
:101DE0006B017C01B101330C880B990B0E942933E4
:101DF000A70196010E940E326B017C01ED89FE89DC
:101E00008191FE8BED8B882309F4C0C08E3229F6B8
:101E100021E030E03A8F298FF1CFAF014F5F5F4F64
:101E2000B60186EE97E00E94B337222423942DCD8D
:101E300061E275E0C6010E94C737892B09F0BBC07B
:101E4000F1E0F093DE070E94CB2B88CD80E40E9466
:101E5000ED2780915706909158060E94E72AD9CE27
:101E600080E40E94ED2780915706909158060E94C9
:101E7000E72A55CDC3010E940C28C7010E940C28F7
:101E800083E794E00E940C288091E10790E00E9493
:101E9000E72A53ED652E54E0752EF7CC68EC72E01E
:101EA000C7010E94C737892B09F090C0F6018081D5
:101EB0008F3309F461C18D3209F4BCC1A82F60E0F1
:101EC00070E0CB0120E030E040E85FE3298F3A8FFB
:101ED0004B8F5C8FAA2309F4ECC0A6014F5F5F4FC4
:101EE0005E8B4D8B8A2FC12CD12C76011E8E1D8EC0
:101EF00039C0282E312C50E3251A31088AE02816E3
:101F0000310440F5ED8DFE8DEF2B71F020E030E0D7
:101F100040E251E4698D7A8D8B8D9C8D0E947F32D9
:101F2000698F7A8F8B8F9C8F20E030E040E251E404
:101F3000C701B6010E9474346B017C01B101330CFE
:101F4000880B990B0E942933A70196010E940E323B
:101F50006B017C01ED89FE898191FE8BED8B8823DD
:101F600009F49FC08E3229F621E030E03E8F2D8F9C
:101F7000F1CF61E275E0C6010E94C737892B09F0F5
:101F8000A5C0CC24C394C092DF075DCF2D8D3E8DBC
:101F90004F8D58A1C701B6010E9474346093CD07DC
:101FA0007093CE078093CF079093D0070E94292586
:101FB000222423946ACC6EEA72E0C6010E94C737DD
:101FC000892B09F0FCCC1092DE073DCF61ED72E069
:101FD000C7010E94C737892B09F0B1C0F601808183
:101FE0008F3309F40CC18D3209F4F6C0A82F60E0DC
:101FF00070E0CB0120E030E040E85FE32D8B3E8BCA
:102000004F8B588FAA2309F4DAC0A6014F5F5F4FA8
:102010005A8F498F8A2FC12CD12C76011E8E1D8E8E
:1020200039C0282E312C50E3251A31088AE02816B1
:10203000310440F5ED8DFE8DEF2B71F020E030E0A6
:1020400040E251E46D897E898F89988D0E947F32AC
:102050006D8B7E8B8F8B988F20E030E040E251E4D7
:10206000C701B6010E9474346B017C01B101330CCD
:10207000880B990B0E942933A70196010E940E320A
:102080006B017C01E98DFA8D8191FA8FE98F8823AC
:1020900009F48DC08E3229F621E030E03E8F2D8F7D
:1020A000F1CF298D3A8D4B8D5C8DC701B6010E9411
:1020B00074346093D1077093D2078093D3079093C1
:1020C000D4070E94292522242394DFCB6EEA72E0F4
:1020D000C6010E94C737892B09F071CC1092DF0727
:1020E000B2CEC3010E940C28C7010E940C2883E7CE
:1020F00094E00E940C286091CD077091CE078091EA
:10210000CF079091D00745E050E00E94DA2943EDD7
:10211000642E44E0742EB9CBF601A18196012F5FA5
:102120003F4F690160E070E080E090E820E030E03F
:1021300040E85FEB2D8F3E8F4F8F58A31FCE6BED86
:1021400072E0C7010E94C737892B09F090C0F601E1
:1021500080818F3309F492C064EF71E0C6010E9460
:10216000C737892B09F079C0F1E0F093D9070E94B5
:1021700029252224239489CBC3010E940C28C7015E
:102180000E940C2883E794E00E940C286091D107FC
:102190007091D2078091D3079091D40745E050E029
:1021A0000E94DA2933ED632E34E0732E6ECB2D8935
:1021B0003E894F89588DC701B6010E9474346093DF
:1021C000D5077093D6078093D7079093D8070E94BE
:1021D00029252224239459CBF601A18196012F5F52
:1021E0003F4F690160E070E080E090E820E030E07F
:1021F00040E85FEB2D8B3E8B4F8B588F03CFC30195
:102200000E940C28C7010E940C2883E794E00E94DA
:102210000C286091D5077091D6078091D7079091CF
:10222000D80742E050E00E94DA2923ED622E24E034
:10223000722E2BCBF601A18196012F5F3F4F6901D2
:1022400060E070E080E090E820E030E040E85FEBA4
:10225000298F3A8F4B8F5C8F3DCE6BE575E0C601C1
:102260000E94C737892B19F51092D90780CF2FEF1D
:10227000421A520AC7010E94D00B07CBC3010E9429
:102280000C28C7010E940C2883E794E00E940C28C8
:102290008091D9078130D1F0811115C08BE595E08F
:1022A0000E940C2893ED692E94E0792EEECA62EF1D
:1022B00071E0C6010E94C737892B59F483E0C82E0C
:1022C000C092D90754CF82EF91E0EACF84EF91E03A
:1022D000E7CFC7010E94D00B4ACF0E94F7278F3F5C
:1022E0002FEF9207D9F08D309105D9F08A30910502
:1022F000C1F08830910509F441C082329105B1F0F6
:1023000020919105222301F1CB9739F71092910585
:102310000E94F7278F3F2FEF920729F780E090E088
:1023200008951092150610921406D7CF2091140626
:10233000309115062F5F3F4F3093150620931406FA
:10234000209191052111C9CF2091120630911306D9
:102350002F37310584F54091140640FD03C08B33BF
:102360009105B9F1A9014F5F5F4F50931306409358
:102370001206F901EE56FA4F8083AFCF8091120614
:1023800090911306009709F4A8CF01979093130634
:1023900080931206FC01EE56FA4F8081823209F0DA
:1023A0009CCF809114069091150601979093150685
:1023B0008093140692CF81E08093910580E090E0B5
:1023C000109213061092120610921506109214061F
:1023D00008952115310539F0F901EE56FA4F1082B2
:1023E00082E995E0EDCF80E090E0EACFEF92FF92B6
:1023F0000F931F93CF93DF93EC0110925806109226
:10240000570600E010E08881803241F4DE01FE01D1
:102410003196EF011D9281918032D9F3882309F41E
:1024200087C07801EE0CFF1CEE0CFF1CF701E15A8F
:10243000F94FD183C0838881982F9F7D61F08D33C0
:10244000E9F0FE01319602C08D33C1F0EF018191B8
:10245000982F9F7DC9F7F701E15AF94F1382128235
:102460000F5F1F4F0A30110571F68FEF9FEFDF915D
:10247000CF911F910F91FF90EF900895188289815D
:102480008B3399F3803289F38232B9F1882369F36F
:10249000FE013196D701A15AB94F1396FC93EE93E2
:1024A00012978981882371F08032F1F18D33E1F147
:1024B000229604C08032C1F18D33B1F1FE018991C1
:1024C0008111F8CFEF01C701815A994F7C016BEE62
:1024D00072E0FC01808191810E94C737892B09F04D
:1024E000BFCFF701828193810E948737909358066E
:1024F0008093570601501109B3CFCE0102962A816D
:10250000222309F4B2CFF701E15AF94F9383828372
:1025100062E270E00E94BC37EC01892B09F4A5CF80
:102520008881882381F2FE01EF0121961082CBCFB2
:10253000C801DF91CF911F910F91FF90EF90089507
:102540008EEB91E00E940C288091570690915806DE
:10255000892B69F48CEC94E00E940C2888EB91E0C4
:102560000E940C280E9401288FEF9FEF089580E4BD
:102570000E94ED2780915706909158060E94E72A05
:10258000E9CF0F931F93CF93DF93009731F580919D
:102590008D0590918E05A0918F05B09190050097C3
:1025A000A105B105A1F040915306509154066091E8
:1025B00055067091560684179507A607B70708F4C5
:1025C00081C080918A06982F907F903879F180E0C1
:1025D000DF91CF911F910F91089540915306509133
:1025E000540660915506709156068A019B01080FAA
:1025F000191F211D311D00938D0510938E05209309
:102600008F053093900510928A068091570690911D
:10261000580690938C0580938B0581E08093890602
:1026200080E0DF91CF911F910F91089590E0A0E09D
:10263000B0E0DC019927882720918C06822B4091FD
:102640008B0650E0542F442760E070E0842B952BDC
:10265000A62BB72BA093590690935A0680935B063E
:102660008093C5079093C607A093C707B093C80788
:1026700010928D0510928E0510928F051092900584
:1026800082E193E00E940C288EEB91E00E940C28DE
:102690008091570690915806892B09F04AC08AE329
:1026A0000E94ED2787E393E00E940C288CEC94E0D5
:1026B0000E940C280E9401280E94CB2B10928906B0
:1026C00081E086CFC0915706D091580610928D05B3
:1026D00010928E0510928F05109290058FEE92E069
:1026E0000E940C2880918B0590918C059093580640
:1026F000809357068EEB91E00E940C28809157063C
:1027000090915806892BF9F48AE30E94ED2784E022
:1027100093E00E940C288CEC94E00E940C280E940C
:102720000128D0935806C09357061092890680E07E
:102730004FCF80E40E94ED27809157069091580674
:102740000E94E72AACCF80E40E94ED2780915706D3
:10275000909158060E94E72AD7CF4F925F926F92CE
:102760007F928F929F92AF92BF92CF92DF92EF9221
:10277000FF920F931F93CF93DF9300D01F92CDB79B
:10278000DEB77C015B014A011B82452B09F4A9C01D
:10279000FC01808120E030E0882309F45BC000E088
:1027A00010E055245A949FE0492E1EC0F501E20F17
:1027B000F31F50826801FFEFCF1ADF0AC814D90453
:1027C00008F04CC0F501EC0DFD1D40828FEFE81ABA
:1027D000F80A86010F5F1F4F980108151905D0F5FB
:1027E000F70180818823B1F18B3209F44CC08D321E
:1027F000E9F28983F70181818A836801FFEFCF1AAB
:10280000DF0AC814D90450F5CE0101960E9487371B
:102810000E94DB21F501EC0DFD1D8083F701828113
:1028200089833701F4E06F0E711CF70183818A837D
:102830000A0D1B1DCE0101960E9487370E94DB21E5
:10284000F8018083730186010F5F1F4F98010815FF
:10285000190530F281E08216930609F080E00F90AE
:102860000F900F90DF91CF911F910F91FF90EF90FC
:10287000DF90CF90BF90AF909F908F907F906F90A0
:102880005F904F9008950430110544F3C8010496F9
:102890008816990618F3D501A20FB31FFD013497CE
:1028A00080818C93F8013196EA0DFB1DDF011497AE
:1028B0008C918083F8013296EA0DFB1DDF0114979D
:1028C0008C9180836801E3E0CE0ED11CF501EC0D04
:1028D000FD1DDF0114978C918083FFEFEF1AFF0A33
:1028E00078CF20E030E0B6CF2F923F924F925F92A8
:1028F0006F927F928F929F92AF92BF92CF92DF9210
:10290000EF92FF920F931F93CF93DF93CDB7DEB774
:10291000A8970FB6F894DEBF0FBECDBFFC014B01E8
:102920002FEF29839FE09A832B839C832D839E83A3
:102930002F83988729879A872B879C872D879E8747
:102940002F87988B298B9A8B2B8B9C8B2D8B9E8B17
:102950002F8B988F298F9A8F2B8F9C8F2D8F9E8FE7
:102960002F8F98A3623071050CF468C2E480F58063
:10297000A680B780E114F10409F4ECC08F01312C7A
:1029800018A6FEEFFFA319A2212C1BA21CA21DA2B8
:102990001EA2612C712C1AA2512C412CCC24C39460
:1029A000D12C21C0A114B10409F4B7C04CE150E00E
:1029B000BE016F5F7F4FC5010E94AD13582E4FEFD0
:1029C000C41AD40A8C149D0481F1D8011896ED9094
:1029D000FC9019970C5F1F4FF801A680B780E11497
:1029E000F10409F4B7C06FE373E0C7010E94C73771
:1029F000892BC1F266E473E0C7010E94C737892BB7
:102A000009F046C0A114B10409F487C044E050E0C5
:102A1000BE01635E7F4FC5010E94AD13482E4FEF8C
:102A2000C41AD40A8C149D0481F66BA17CA18DA1DB
:102A30009EA1672B682B692B09F4EDC020918505B9
:102A4000822F90E0A0E0B0E0DC0199278827309148
:102A50008705832B4091860550E0542F442760E082
:102A600070E0842B952BA62BB72B4BA15CA16DA1FD
:102A70007EA1481759076A077B0709F44CC185E80E
:102A800095E00E948D252091850505E815E0C7C0D9
:102A90006CE473E0C7010E94C737892B59F4A11475
:102AA000B10409F4ACC0C5010E9487373C0121E0A4
:102AB0002AA385CF62E573E0C7010E94C737892B3F
:102AC00091F4A114B10441F0D5018C91803309F443
:102AD0008FC0813309F073CF79A1716079A3822D02
:102AE0008160282E6CCF69E573E0C7010E94C7376B
:102AF000892B09F04AC0A114B10441F0F50180818D
:102B0000803309F481C0813309F059CF99A19068CD
:102B100099A3A22DA0682A2E52CF8EEB91E00E949D
:102B20000C288091570690915806892B49F080E433
:102B30000E94ED2780915706909158060E94E72A3F
:102B40008CEC94E00E940C2888EB91E00E940C2809
:102B50000E9401288FEF9FEFA8960FB6F894DEBF72
:102B60000FBECDBFDF91CF911F910F91FF90EF90DE
:102B7000DF90CF90BF90AF909F908F907F906F909D
:102B80005F904F903F902F90089562E673E0C701E9
:102B90000E94C737892B79F4A114B10409F4F1C05C
:102BA000D5018C91803309F45FC0813309F0B6C040
:102BB000F1E0FFA304CF66EB71E0C7010E94C737C5
:102BC000892B09F441C065EA73E0C7010E94C73749
:102BD000892B09F0BCC0A114B10409F4CFC0C50110
:102BE0000E9487378830910508F0C8C0382EE7CE9C
:102BF00039A1316039A3422D4E7F242EE0CE612CC5
:102C0000712C31E03AA3DBCE59A1506859A3622D53
:102C10006F77262ED4CE2091590609E516E0207F45
:102C2000203809F463C0D80114968C918F60F801A4
:102C30008483C8010E94AD2581E00E9403188111A0
:102C400015C080E090E088CFA114B10409F49CC0C5
:102C500040E150E060E070E0C5010E947C356BA36C
:102C60007CA38DA39EA3ABCE1FA2A9CE81E996E043
:102C70000E94841FFFA1F13009F4A3C0511097C036
:102C800041108DC02AA1211184C060E081E996E045
:102C90000E949F2049A1622D81E996E00E940B21AC
:102CA000B80181E996E00E94AE2163E0C8010E946C
:102CB00026058823B1F18EEB91E00E940C288091CB
:102CC000570690915806892B09F092C08CEC94E03D
:102CD0000E940C288CE393E00E940C280E9401289B
:102CE00080E00E94031880E090E036CFF8018481F4
:102CF000282F2F70F0E13F9EC0011124822BD801B4
:102D000013969C911397292F207F98A59F70922B43
:102D100013969C938BCF05E815E081CFBFEFBFA33F
:102D20004ECE8EEB91E00E940C2880915706909138
:102D30005806892B09F052C08CEC94E00E940C28B4
:102D400088EB91E00E940C280E940128C9CF67E51A
:102D500073E0C7010E94C737892B09F053C0A11443
:102D6000B10461F0C5010E9487378830910530F4C5
:102D7000009729F127E0280F28A721CE0E94A01252
:102D8000EBCEE1E0EFA31BCE1BA21CA21DA21EA254
:102D900016CEB30181E996E00E94AB2176CFBE0149
:102DA000635E7F4F81E996E00E949E216BCFBE015A
:102DB0006F5F7F4F81E996E00E946D2161CF18A679
:102DC000FECD61E081E996E00E949F2049A1622D3D
:102DD00081E996E00E940B2162E068CF80E40E94C6
:102DE000ED2780915706909158060E94E72AA4CFBC
:102DF00080E40E94ED2780915706909158060E942A
:102E0000E72A64CF84E591E00E940C288091570660
:102E100090915806892B11F58AE30E94ED278CE5E5
:102E200091E00E940C288CEC94E00E940C28C701D1
:102E30000E940C288AE00E94ED27C1CD20915906FE
:102E4000312C512C612C712C212C19A23EEF3FA367
:102E50001AA2412C18A609E516E0E1CE80E40E94F2
:102E6000ED2780915706909158060E94E72AD4CF0B
:102E70000F931F93CF93DF930E946D11EC01892B69
:102E800009F44BC00E940128CE010E94F6118C016A
:102E900097FD53C00E940322892B09F093C0C09173
:102EA0005F06D09160066091000170910101CE0132
:102EB0000E94C737892B09F466C0609106017091A2
:102EC0000701CE010E94C737892B09F46FC06091BA
:102ED0000C0170910D01CE010E94C737892B09F4B6
:102EE00068C06091120170911301CE010E94C73732
:102EF000892B09F461C06091180170911901CE010C
:102F00000E94C737892B09F45AC082EE92E0DF9104
:102F1000CF911F910F910C940C2880917E05811107
:102F200007C082EE92E00E940C2881E080937E052B
:102F3000DF91CF911F910F9108958EEB91E00E9448
:102F40000C288091570690915806892B91F48CECAF
:102F500094E00E940C2888EB91E00E940C280E94CB
:102F6000012882EE92E0DF91CF911F910F910C9496
:102F70000C2880E40E94ED27809157069091580616
:102F80000E94E72AE4CF80E090E0FC01EE0FFF1FF3
:102F9000E80FF91FEE0FFF1FE050FF4F0280F38193
:102FA000E02DB8018FE596E00995AFCF81E090E084
:102FB000ECCF82E090E0E9CF83E090E0E6CF84E0E0
:102FC00090E0E3CF0E9406228EEB91E00E940C2855
:102FD0008091570690915806892B59F48CEC94E017
:102FE0000E940C288BE693E00E940C280E94012886
:102FF0008CCF80E40E94ED2780915706909158066F
:103000000E94E72AEBCF8823A1F0809136068F5FDC
:103010008093360604C08091DE07813041F484E657
:1030200090E00E949B2D809135068823A1F381E0DA
:1030300008958091360681508093360681E0089588
:103040001092320610923106109233061092340616
:1030500010922C0610921E0610921D0610929006D9
:1030600010921C0610921B0686E090E090931A06C0
:10307000809319060895EF92FF920F931F93CF93B9
:10308000DF930E94D32B8093240690912306891707
:1030900009F482C0811161C09FEF90932B06809349
:1030A000230620919006211109C020914A06211182
:1030B00005C020913506222309F470C080912906AD
:1030C00090912A0620913606222309F448C02091C7
:1030D000350621111AC01092320610923106109254
:1030E00033061092340610922C0610921E0610928F
:1030F0001D061092900610921C0610921B0626E0E8
:1031000030E030931A062093190621E0209335060B
:10311000019690932A06809329068091240688239D
:1031200009F1809127069091280601969093280630
:103130008093270680912B0618160CF510922A060C
:10314000109229061092280610922706DF91CF913F
:103150001F910F91FF90EF90089591E09ECF1092F4
:103160003506D6CF8091250690912606019690933C
:1031700026068093250680912B061816FCF28823DC
:1031800029F31092260610922506DF91CF911F9108
:103190000F91FF90EF90089590E07FCF40911F0630
:1031A000509120066091210670912206411551052B
:1031B0006105710509F44BC041505109610971095C
:1031C00040931F06509320066093210670932206B9
:1031D000452B462B472BD9F510923206109231061B
:1031E000109233061092340610922C0610921E068E
:1031F00010921D061092900610921C0610921B064B
:1032000026E030E030931A0620931906913009F039
:1032100055CF20912C068091290690912A06AC0169
:1032200027300CF0F8C04C5051094D31510508F0D1
:1032300049CF409127065091280644505109413109
:10324000510508F03FCF2F5F20932C063BCF811113
:103250001FC080913406882309F440C19F3F09F4C0
:1032600091C090912C06973009F028CF21E0280FCB
:103270002831B8F010923406809133068F5F8A307F
:10328000B8F4809333068091290690912A061ACFCC
:103290002091250630912606213F310508F09CCF6C
:1032A000D8CF8091290690912A06209334060ACF20
:1032B00010923306209131063091320620FDC0C0B5
:1032C0008091190690911A0640911B0650911C0698
:1032D0002F5F3F4F3093320620933106481759072E
:1032E00008F4ECCE8F30910509F474C0883A91054A
:1032F00009F46CC0069709F0E1CE80911D0690910B
:103300001E06892B01F58091910691E0811190E0D4
:1033100020919206820F211190E020919306820F56
:10332000211190E020919406820F211190E02091CC
:103330009506820F211102C0911105C09091960649
:10334000891709F4D0C010923206109231061092FB
:1033500033061092340610922C0610921E0610921C
:103360001D061092900610921C0610921B0686E015
:1033700090E090931A068093190680912906909107
:103380002A06A0CE2091270630912806E09131062A
:10339000F0913206E170FF27EE0FFF1FE35DF94F5A
:1033A0002C30310530F521E030E0A90100903306E2
:1033B00002C0440F551F0A94E2F720813181242B6B
:1033C000352B3183208390912C064DCF83E0809361
:1033D000900674CE80919D0687FD92C088EA90E0A9
:1033E00090931A06809319068091290690912A06D7
:1033F00069CE21E030E00090330602C0220F331F77
:103400000A94E2F720953095408151812423352399
:103410003183208326CF4C5351094D33510508F099
:1034200051CE40912706509128064450510945310C
:10343000510508F047CE273009F044CE21E035CFC2
:10344000C0911B06D0911C06CF56D94F00912D0676
:1034500010912E067801FF24802F0E94CD2181112A
:1034600062C080E092E08E299F290817190709F4AD
:103470005DC000912F06109130067801FF24802F47
:103480000E94CD21882309F465C080E093E08E2955
:103490009F290817190709F460C087E7888380917E
:1034A0001D0690911E06019690931E0680931D06A0
:1034B00040911B0650911C068091190690911A06A6
:1034C0008417950728F520913106309132062F5F39
:1034D0003F4F309332062093310604CF20913306BC
:1034E0002111BCCE93CE809195068F708F3011F153
:1034F00081E0809390068091290690912A06E2CD82
:1035000082E0809390068091290690912A06DACD78
:103510004F5F5F4F50931C0640931B06209131066E
:1035200030913206D5CE80E090E09DCF80912D067F
:103530008883BECF80919106807F8038C9F68FE066
:1035400090E090931A068093190680912906909135
:103550002A06B8CD80E091E09ACF80912F0688832B
:10356000A7CF0F931F93CF93DF9380914A068111CA
:1035700005C0DF91CF911F910F910895909117068B
:1035800091111FC020913406223008F47DC01092A2
:1035900018062F5F263008F44DC010923406209193
:1035A00033062F5F233008F484C010923306982F1F
:1035B00080E090931706DF91CF911F910F910C94AB
:1035C000D82B80911606811139C09091340681E084
:1035D000923008F080E0809318069F5F943000F1ED
:1035E00010923406909133069F5F973008F455C0CF
:1035F0001092330681E08093160680919106C82FC1
:10360000D0E00E94CD2181114BC080E092E08C2B54
:103610009D2B90932E0680932D0680911806CBCF7C
:103620009093340610921606DF91CF911F910F915F
:103630000C94D82B80E020933406BBCF2091330626
:10364000422F50E0435051099091340657FD2BC052
:10365000923090F0943058F561E070E002C0660F4F
:10366000771F4A95E2F740912D0650912E0646238A
:10367000572381E0452BD9F4809318069F5F96303D
:10368000E0F49093340697CF3091330631117FCF19
:1036900031E0309318062F5FCECF90933306C2CF20
:1036A00080E090E0B4CF211102C0923028F380E096
:1036B000E3CF2093330680E07CCF109234062F5F57
:1036C0002D3018F42093330676CF10923306C09134
:1036D0003106D09132062196D0933206C09331063E
:1036E0002091510630915206C217D307D8F010929C
:1036F00032061092310610921606109217060E949A
:10370000D82B10924A06109232061092310610926F
:1037100033061092340680E0DF91CF911F910F9114
:103720000C94D82BFE01F695E795EF56F94F808162
:10373000082F10E00E94CD21C0FF0DC0882381F02A
:1037400080E093E0802B912B90932E0680932D06A2
:103750008091180630CF811106C080E092E0F2CF50
:1037600080E091E0EFCF80E090E0ECCFCF93DF936B
:10377000FC0190818181980F8281980F8381980F3D
:103780008481890F95818913C6C1880F613009F43E
:10379000C6C19681980F2781920F2085920F2185AF
:1037A000920F8285980F8385980F8485980F858561
:1037B000980F86859813AFC1990F623009F4AFC195
:1037C00027858089280F8189280F8289280F83897E
:1037D000280F8489280F8589280F8689280F920F42
:1037E0008789981398C1208D818D820F228D820F39
:1037F000238D820F248D820F258D820F268D820FBF
:10380000378D830F890F292F280F80A1281383C19B
:1038100091A182A1890F93A1890F94A1890F95A1EC
:10382000890F96A1890F97A1890F90A5890F820F03
:10383000982F920F81A598136EC122A583A5820FA0
:1038400024A5820F25A5820F26A5820F27A5820F0A
:1038500020A9820F21A9820F890F890F92A98913AC
:103860005AC124A993A9920F25A9920F26A9920FB4
:1038700027A9920F20AD920F21AD920F22AD920F8A
:10388000980F890F23AD281346C195AD84AD890FDC
:1038900096AD890F97AD890FDF01A05CBF4F9C915A
:1038A000890F11969C91890F11969C91890F119601
:1038B0009C91890F820F820F11969C9198132BC1B6
:1038C00012962C9111979C91920F12962C91920F17
:1038D00011962C91920F11962C91920F11962C917A
:1038E000920F11962C91920F11962C91920F980F86
:1038F000890F11964C9148130EC112969C91119705
:103900008C91890F12969C91890F11969C91890F29
:1039100011969C91890F11969C91890F11969C91FB
:10392000890F11969C91890F840F480F11969C91D5
:103930009413F1C011968C9111964C91840F1196AD
:103940004C91840F11964C91840F11964C91840FD9
:1039500011964C91840F11964C91840F11964C91B5
:10396000840F890F292F280F11968C912813D3C00B
:1039700011969C9111968C91890F11969C91890FAB
:1039800011969C91890F11969C91890F11969C918B
:10399000890F11969C91890F11969C91890F820F26
:1039A000922F980F11968C919813B5C011963C9157
:1039B00011968C91380F11968C91380F11968C912D
:1039C000380F11968C91380F11968C91380F1196F3
:1039D0008C91380F11968C91380F390F892F830FE6
:1039E00011969C91891397C011962C9111969C91D8
:1039F000290F11969C91290F11969C91290F1196D0
:103A00009C91290F11969C91290F11969C91290F39
:103A100011969C91290F280F382F320F11968C91F7
:103A2000381379C011969C9111968C91980F11962C
:103A30008C91980F11968C91980F11968C91980FEC
:103A400011968C91980F11968C91980F11968C91DC
:103A5000980F930F232F290F11968C9128135BC079
:103A600011969C9111968C91890F11969C91890FBA
:103A700011969C91890F11969C91890F11969C919A
:103A8000890F11969C91890F11969C91890F820F35
:103A9000922F980F11968C9198133DC011962C91EE
:103AA00011968C91820F11962C91820F11962C9168
:103AB000820F11962C91820F11962C91820F1196E4
:103AC0002C91820F11962C91820F890F890F1196DC
:103AD0009C91891320C0EF01CA56DF4F12962881AE
:103AE0009C91920F11962C91920F11962C91920FFE
:103AF00011962C91920F11962C91920F11962C9158
:103B0000920F11962C91920F980F980FE256FF4F3B
:103B100081E02081921380E0DF91CF91089581E0D0
:103B2000DF91CF910895CF93DF93FC019081818144
:103B3000980F8281980F8381980F8481890F8583E4
:103B4000880F613009F49EC19681980F2781920FEA
:103B50002085920F2185920F8285980F8385980F7B
:103B60008485980F8585980F9687990F623009F4A0
:103B700089C137858089380F8189380F8289380F4C
:103B80008389380F8489380F8589380F8689380FE3
:103B9000390F378B908D818D890F928D890F938D81
:103BA000890F948D890F958D890F968D890F478D7B
:103BB000840F830F932F980F90A331A182A1380F08
:103BC00083A1380F84A1380F85A1380F86A1380F43
:103BD00087A1380F80A5380F390F832F890F81A750
:103BE00022A593A5290F94A5290F95A5290F96A580
:103BF000290F97A5290F90A9290F91A9290F280FFF
:103C0000322F380F32AB93A984A9980F85A9980F4A
:103C100086A9980F87A9980F80AD980F81AD980F4E
:103C200082AD980F930F292F230F23AF95AD84AD4D
:103C3000890F96AD890F97AD890FDF01A05CBF4F4B
:103C40009C91890F11969C91890F11969C91890FD7
:103C500011969C91890F820F982F920F11969C9329
:103C6000EF01CA5BDF4F119628818C91820F12966B
:103C70002C91820F11962C91820F11962C91820F0C
:103C800011962C91820F11962C91820F11962C91E6
:103C9000820F890F890F11968C932996119628818E
:103CA0009C91920F12962C91920F11962C91920F3B
:103CB00011962C91920F11962C91920F11962C9196
:103CC000920F11962C91920F980F890F11968C9349
:103CD0002996119628819C91920F12962C91920F01
:103CE00011962C91920F11962C91920F11962C9166
:103CF000920F11962C91920F11962C91920F980F72
:103D0000890F11968C932896129628819C91920F78
:103D100011962C91920F11962C91920F11962C9135
:103D2000920F11962C91920F11962C91920F119641
:103D30002C91920F980F890F11968C9329961296B9
:103D400028819C91920F11962C91920F11962C9193
:103D5000920F11962C91920F11962C91920F119611
:103D60002C91920F11962C91920F980F890F11960A
:103D70008C932996129628819C91920F11962C91E2
:103D8000920F11962C91920F11962C91920F1196E1
:103D90002C91920F11962C91920F11962C91920FBB
:103DA000980F890F11968C932996129628819C91D1
:103DB000920F11962C91920F11962C91920F1196B1
:103DC0002C91920F11962C91920F11962C91920F8B
:103DD00011962C91920F980F282F290F11962C9342
:103DE0002996129698818C91890F11969C91890F32
:103DF00011969C91890F11969C91890F11969C9117
:103E0000890F11969C91890F11969C91890F820FB1
:103E1000280F11962C932996129698818C91890FD0
:103E200011969C91890F11969C91890F11969C91E6
:103E3000890F11969C91890F11969C91890F11966B
:103E40009C91890F820F820F11968C93299612965E
:103E500028819C91920F11962C91920F11962C9182
:103E6000920F11962C91920F11962C91920F119600
:103E70002C91920F11962C91920F980FE256FF4FB2
:103E8000890F8083DF91CF9108950F931F93CF9374
:103E9000DF93EC01162F0E9475268EEF810F823082
:103EA00028F0DF91CF911F910F910895269612303F
:103EB00039F160E002E110E08091E1078530C8F05F
:103EC000C801880F991F880F991F880F991F080F25
:103ED000191F0C0F1D1F69E070E0CE010E94812B9D
:103EE0002996C017D107B9F7DF91CF911F910F9194
:103EF0000895CE01DF91CF911F910F910C948A26E6
:103F000061E001E010E0D8CFCF93DF93FC01DC014A
:103F1000169688E0ED0119928A95E9F79FEF978749
:103F20008FE0808B918B828B938B848B958B868B90
:103F3000908F818F928F838F948F858F968F878FAD
:103F400091A382A393A384A395A386A397A380A7F9
:103F500092A783A794A785A796A787A790AB81ABC5
:103F600093AB84AB95AB86AB97AB80AF91AF82AF91
:103F700094AF85AF96AF87AFDA969C9311968C93EA
:103F800011969C9311968C9312969C9311968C93F8
:103F9000119712969C93129713968C9313971496DD
:103FA0009C93149715968C93159716969C93169739
:103FB00017968C93179719969C9311968C9311973B
:103FC00012969C93129713968C93139714969C9326
:103FD000149715968C93159716969C93169717968B
:103FE0008C93179719969C9311968C931197129610
:103FF0009C93129713968C93139714969C931497F3
:1040000015968C93159716969C93169717968C93E6
:10401000179719969C9311968C93119712969C93CF
:10402000129713968C93139714969C931497159646
:104030008C93159716969C93169717968C931797B3
:1040400019969C9311968C93119712969C931297A4
:1040500013968C93139714969C93149715968C93A0
:10406000159716969C93169717968C9317971996F3
:104070009C9311968C93119712969C93129713967A
:104080008C93139714969C93149715968C9315976D
:1040900016969C93169717968C93179719969C9340
:1040A00011968C93119712969C93129713968C935A
:1040B000139714969C93149715968C9315971696B0
:1040C0009C93169717968C93179719969C93119615
:1040D0008C93119712969C93129713968C93139727
:1040E00014969C93149715968C93159716969C93FB
:1040F000169717968C93179719969C9311968C93F5
:10410000119712969C93129713968C93139714966B
:104110009C93149715968C93159716969C931697C7
:1041200017968C93EA56FF4F908381839283838303
:104130009483858396838783DF91CF910895DF925F
:10414000EF92FF920F931F93CF93DF9300D000D095
:10415000CDB7DEB78C01D62E80E090E00E94282EED
:1041600069837A838B839C83CE0101960E94392ECA
:104170007C01FC0180810E94DB21F8018683F7012C
:1041800081810E94DB21F8018783F70182810E94EF
:10419000DB21F8018087F70183810E94DB21F80190
:1041A0008287F70185818F5F0E94DB21F801838779
:1041B000DD2051F187E820E8F7019481992311F07F
:1041C000892F822BF801848781E090E0F701048039
:1041D00002C0880F991F0A94E2F7F8018187F7015E
:1041E00082859385F801892B91F485858B7F85875E
:1041F0000F900F900F900F90DF91CF911F910F9123
:10420000FF90EF90DF90089587E020E0D5CF85857F
:1042100084608587EDCFFC0140FF05C0858560FF88
:1042200059C081608587942F9695262F269590FFFB
:1042300005C0858520FF4BC08260858796952695B1
:1042400090FF05C0858520FF3FC0846085879695D7
:10425000269590FF05C0858520FF33C0886085873F
:104260009695269590FF05C0858520FF27C0806123
:1042700085879695269590FF05C0858520FF1BC0F4
:10428000806285879695269590FF05C0858520FFDD
:104290000FC08064858796952695992341F0858582
:1042A000222319F08068858708958F778587089580
:1042B0008F7B8587F0CF8F7D8587E4CF8F7E858745
:1042C000D8CF877F8587CCCF8B7F8587C0CF8D7FE9
:1042D0008587B4CF8E7F8587A6CFCF93DF93EC0100
:1042E000FB01808191819C8B8B8B828193819E8B42
:1042F0008D8BDE015896349688E001900D928A9558
:10430000E1F7DE019196FB013C9688E001900D9269
:104310008A95E1F7FB01848995899BA78AA78689FD
:1043200097899DA78CA7808D918D988B8F87828D83
:10433000938D9A8B898BDF91CF910895FB0120811A
:104340003181FC0137A726A7FB0122813381FC01C3
:1043500031AB20AB0895C3960C94B505FB01DC018D
:10436000A156BF4F1C92208111962C93218111964A
:104370002C932281FC01EE55FF4F2083319623E5DB
:10438000208331961082319620E12083319621E1FD
:104390002083319625E020830895982F92959F7071
:1043A0008927982F969596958927982F96958927EE
:1043B0008095817008956AE070E090E00E9472310B
:1043C0009B0122953295307F3227207F32278F70D4
:1043D000822B08956AE070E090E00E947231AC0197
:1043E0006930710549F0262F2295207F493051050B
:1043F00039F08F70822B089520EF49305105C9F7AD
:104400008FE0822B089580913E06089580913E06AC
:10441000811101C0089582E0809344068091430693
:10442000807F8360809343068FE396E00E94AD25F2
:1044300004C08FE396E00E94AD2561E08FE396E033
:104440000E9426058111F5CF86EB93E00E940C288F
:1044500010923C0610923D0610923E0680E00C94AD
:1044600003180F931F93CF938C0180913E068823EE
:1044700061F182E08093440680914306807F8360EF
:10448000809343068FE396E00E94AD2504C08FE33E
:1044900096E00E94AD2561E08FE396E00E9426053C
:1044A000C82F8111F4CF86EB93E00E940C28109264
:1044B0003C0610923D0610923E0680E00E940318D2
:1044C0008C2FCF911F910F9108950E94E22BC82F3E
:1044D00081114DC0F8018081807F8038A1F18481F5
:1044E0008F70843009F449C0853051F78AE0809399
:1044F0003B0686EE93E00E940C2886E0F801AFE3CD
:10450000B6E001900D928A95E1F781E080933E0636
:104510000E9403188091530690915406A09155066D
:10452000B09156064E96A11DB11D8093370690930B
:104530003806A0933906B0933A06C1E08C2FCF918C
:104540001F910F910895F80183818F7090E0089773
:10455000079708F0B5CF8481282F22952F7030E07F
:10456000215031092730310508F4BACFA9CF83ECA7
:1045700093E00E940C28C0E0A3CF89E080933B0623
:10458000B8CFCF9380913E06882321F080914A06D0
:10459000882311F0CF9108950E94E22B811145C02C
:1045A000C0E00E94E22B882329F080913B068A30EC
:1045B00009F468C080913D0681113EC080913C069F
:1045C000811144C0C0933D06C111B1C010923C0698
:1045D0008091370690913806A0913906B0913A063D
:1045E00040915306509154066091550670915606BD
:1045F00084179507A607B70790F04091530650918E
:1046000054066091550670915606415E5F4F6F4F9C
:104610007F4F481759076A077B0708F0BBCF809187
:104620003E068111A9C080E0B5CFC1E080913B0674
:10463000893009F0B5CFB5CFC0933D06CC2309F43E
:1046400053C080913C06882309F4A4CF10923C0605
:1046500082E08093440680914306807F836080934C
:1046600043068FE396E00E94AD2504C08FE396E0F9
:104670000E94AD2561E08FE396E00E94260581113E
:10468000F5CF88CFCC2309F491C080913E068823D2
:1046900051F282E08093440680914306807F8360DC
:1046A000809343068FE396E00E94AD2504C08FE31C
:1046B00096E00E94AD2561E08FE396E00E9426051A
:1046C0008111F5CF86EB93E00E940C2810923C06F6
:1046D00010923D0610923E0680E00E94031880E092
:1046E00059CF10923D06C1E082E08093440680914C
:1046F0004306807F8360809343068FE396E00E94A9
:10470000AD2504C08FE396E00E94AD2561E08FE304
:1047100096E00E9426058111F5CF80913C06882302
:1047200009F438CFC0933C06C11134CF91CF109219
:10473000440680914306807F8960809343068FE31F
:1047400096E00E94AD2561E08FE396E00E94260589
:104750008091530690915406A0915506B09156064B
:104760004E96A11DB11D8093370690933806A093F5
:104770003906B0933A060ECF82E0809344068091CA
:104780004306807F8360809343068FE396E00E9418
:10479000AD2504C08FE396E00E94AD2561E08FE374
:1047A00096E00E9426058111F5CF8CCF80913D06C1
:1047B000811197CF80913C06882321F081E080937E
:1047C0003C06E8CE10923D0681E080933C061092B4
:1047D000440680914306807F8A60AFCFFC018081D0
:1047E0009181A281B381B23C20F08058924AA149C4
:1047F000B44BBC01CD016059794A8D4E984D20E8EB
:104800003AE349E050E00E948631DA01C901880F9D
:10481000991FAA1FBB1F880F991FAA1FBB1F880FB4
:10482000991FAA1FBB1F821B930BA40BB50BBC01C6
:10483000CD01660F771F881F991F660F771F881F8E
:10484000991F25EB35E040E050E00E948631683545
:10485000734018F480E19EE0089580E090E00895B0
:1048600080E19EE00895FC0180819181A281B38165
:10487000B23C20F08058924AA149B44BBC01CD0112
:104880006059794A8D4E984D20E83AE349E050E06E
:104890000E948631DA01C901880F991FAA1FBB1F28
:1048A000880F991FAA1FBB1F880F991FAA1FBB1F24
:1048B000821B930BA40BB50BBC01CD01660F771FB8
:1048C000881F991F660F771F881F991F25EB35E0FA
:1048D00040E050E00E9486316835734018F480E172
:1048E0009EE0089580E090E008950F931F93CF938A
:1048F000DF9300D000D0CDB7DEB78C0180E090E030
:104900000E94282E69837A838B839C83CE01019633
:104910000E94392EB8010E94223084E5F801828776
:1049200081E00F900F900F900F90DF91CF911F912A
:104930000F9108950F931F93CF93DF93CDB7DEB7F9
:10494000A0970FB6F894DEBF0FBECDBFFC0101905B
:104950000020E9F79F01245131092817390761F038
:1049600080E0A0960FB6F894DEBF0FBECDBFDF91FA
:10497000CF911F910F910895BC0143E150E0CE010A
:1049800001960E94D0371C8A8E010B5E1F4F8CE06F
:10499000F80111928A95E9F762EF73E0CE01019672
:1049A0000E94AE370097E1F20E9487378C569740FD
:1049B0009C8F8B8F62EF73E080E090E00E94AE37B7
:1049C000009771F20E94873781508A8F64EF73E0FD
:1049D00080E090E00E94AE37009711F20E94873786
:1049E000888F68EF73E080E090E00E94AE37009718
:1049F00009F4B6CF0E9487378F8B68EF73E080E0B1
:104A000090E00E94AE37009709F4AACF0E94873742
:104A10008E8B6EE171E080E090E00E94AE370097EF
:104A200009F49ECF0E9487378D8B8FEF9FEF98A35D
:104A30008F8FC8010E94B72E611571058105910500
:104A400009F48ECF22E0209339070E94293181E0BA
:104A500088CFCF92DF92EF92FF9220E030E041E6E4
:104A600055E46091D5077091D6078091D707909152
:104A7000D8070E9474340E94F1320E94323120E043
:104A800030E041E655E46091CD077091CE0780910A
:104A9000CF079091D0070E9474340E94F1326B01CD
:104AA0007C0120E030E041E655E46091D10770914F
:104AB000D2078091D3079091D4070E9474340E944A
:104AC000F132A70196010E94A62E8091D90782306B
:104AD000E1F0833091F0813041F080E090E0FF9090
:104AE000EF90DF90CF900C94242F8EEE93E2FF9006
:104AF000EF90DF90CF900C94242F80E394E2FF900E
:104B0000EF90DF90CF900C94242F83E394E2FF90FA
:104B1000EF90DF90CF900C94242FFC01CB01AA27BB
:104B2000BB2780835183428322E1238314822FEFAA
:104B300025839927AA27BB2780329105A105B105B6
:104B400049F080399105A105B10519F487E1838306
:104B50000895089581E183830895FC013381932FA3
:104B600092959F709F5F9F7041F0292F2295207F23
:104B7000932F9F70922B9383089520E1932F9F7022
:104B8000922B938308950E94D1040E94C1220E9417
:104B9000381780919006882309F440C080919006D0
:104BA0008130B9F060F0843050F48AEF93E00E94D5
:104BB0000C286091900681E996E00E94451F609163
:104BC000900681E996E00E94B61B882309F10C94B7
:104BD000201885E0E1E9F6E0AAE8B6E001900D9240
:104BE0008A95E1F780E090E00E94C11287EF93E0A0
:104BF0000E940C286091900681E996E00E94451F72
:104C00006091900681E996E00E94B61B8111DFCF8A
:104C100080E194E00E940C280C9420180895CF9312
:104C2000DF9383E294E00E940C2883E694E00E94E4
:104C30000C28C5ECD7E0688179818A819B8140E0AE
:104C40000E94B8288EE694E00E940C286C817D8139
:104C50008E819F8140E00E9487298FED92E00E9423
:104C60000C2885E794E00E940C28688579858A8560
:104C70009B8545E050E00E94DA2987E894E00E9495
:104C80000C286C857D858E859F8545E050E00E94CF
:104C9000DA2982E994E00E940C28688979898A8956
:104CA0009B8942E050E00E94DA298FED92E00E9459
:104CB0000C288EE994E0DF91CF910C940C280E948F
:104CC00029254091C5075091C6076091C70770918B
:104CD000C80789E596E00E948D250E940F2683E093
:104CE0000E94012C80E090E008950F931F93CF93D2
:104CF000DF93EC018C010A5F1F4F61E089910E94F4
:104D00004728C017D107C9F7DF91CF911F910F91A5
:104D10000C9401288F929F92AF92BF92CF92DF9214
:104D2000EF92FF920F931F93CF93DF93CDB7DEB730
:104D300060970FB6F894DEBF0FBECDBF6C01162F83
:104D400080E1E0E2F1E0DE01119601900D928A959A
:104D5000E1F789EC94E00E940C28D60114968C911E
:104D60000E941F2B8FEC94E00E940C28F601858195
:104D70000E941F2B81ED94E00E940C28D60116960C
:104D8000EC91E770F0E0EE0FFF1F81E090E08C0FF8
:104D90009D1FE80FF91F808191810E940C2882EDF0
:104DA00094E00E940C28D60112968C910E941F2B31
:104DB00088EF93E00E940C28F60181810E941F2B4E
:104DC00088EF93E00E940C28D6018C910E941F2B43
:104DD000F601878182FD78C00E940128111161C00F
:104DE000D60117968C9187FD79C080FD72C082E054
:104DF00095E00E940C285601F9E0AF0EB11C760137
:104E00008DE2E80EF11C450188E0880E911C8501B9
:104E1000D80111968C910E941F2B88EF93E00E947D
:104E20000C28F80180810E941F2B84EA91E00E94E7
:104E30000C280E5F1F4F8016910651F70E94012823
:104E4000F9E0AF0EB11CEA14FB04E9F68FE095E03F
:104E50000E940C28560199E9A90EB11C670188E04F
:104E6000C80ED11C8701D80111968C910E941F2B6E
:104E700088EF93E00E940C28F80180810E941F2B8C
:104E800084EA91E00E940C280E5F1F4F0C151D054F
:104E900051F70E940128F9E0EF0EF11CEA14FB041F
:104EA000E9F660960FB6F894DEBF0FBECDBFDF9176
:104EB000CF911F910F91FF90EF90DF90CF90BF9017
:104EC000AF909F908F90089585ED94E00E940C28FC
:104ED00083CF8FEE94E00E940C2889CF8AED94E076
:104EE0000E940C28F601878180CF0F931F93CF93E8
:104EF000DF9300D01F92CDB7DEB7182F40E1BE017F
:104F00006F5F7F4F90E00E940638107FE1F1ACE3C5
:104F1000B5E08C91E0913E07F0913F078823D1F1F5
:104F2000309789F08D010F5F1F4F0995019671F140
:104F3000F80181918F01882349F1E0913E07F091BA
:104F40003F07309791F78981811115C0E0E0F0E0CB
:104F5000309789F005EA11E08CE20995019659F045
:104F6000F80181918F01882331F0E0913E07F091A3
:104F70003F07309791F70F900F900F90DF91CF91EF
:104F80001F910F910895A8E3B5E0C3CFE0913E07CC
:104F9000F0913F0789818823D9F2309761F38E0120
:104FA0000E5F1F4F0995019699F0F80181918F01CD
:104FB000882371F0E0913E07F0913F07309791F719
:104FC0000F900F900F90DF91CF911F910F91089547
:104FD000E0913E07F0913F07BBCFE0913E07F09193
:104FE0003F07309709F009948FEF9FEF0895E09104
:104FF0003C07F0913D07309709F009948FEF9FEF40
:105000000895E0913E07F0913F07309711F08AE054
:1050100009948FEF9FEF0895CF93DF93EC01888180
:105020008823C1F0E0913E07F0913F07309769F087
:1050300021960995019649F08991882359F0E091CC
:105040003E07F0913F073097A1F78FEF9FEFDF9179
:10505000CF91089580E090E0DF91CF910895CF93B4
:10506000DF93EC01FE018491882361F0E0913E071B
:10507000F0913F07309709F009952196FE01849140
:105080008111F4CF80E090E0DF91CF910895FF92FD
:105090000F931F93CF93DF9300D01F92CDB7DEB74E
:1050A000182FF62E40E1BE016F5F7F4F90E00E9407
:1050B0000638107F09F059C0A8E3B5E08C91882329
:1050C000C9F1E0913E07F0913F07309789F08D01DB
:1050D0000F5F1F4F0995019669F1F80181918F01CA
:1050E000882341F1E0913E07F0913F07309791F717
:1050F000FF20B9F0E0913E07F0913F07309789F02B
:1051000005EA11E08CE20995019659F0F8018191C8
:105110008F01882331F0E0913E07F0913F073097EF
:1051200091F70F900F900F90DF91CF911F910F91FA
:10513000FF90089589818823D9F2E0913E07F0918C
:105140003F073097A9F28E010E5F1F4F0995019618
:1051500079F2F80181918F01882351F2E0913E07A5
:10516000F0913F07309791F7C3CFACE3B5E0A6CFFE
:105170008F929F92AF92BF92FF920F931F93CF9304
:10518000DF93CDB7DEB72A970FB6F894DEBF0FBE18
:10519000CDBF4B015C01F42E20E1AE014F5F5F4FAC
:1051A0000E941C38D501C401807F892B8A2B8B2B50
:1051B000D9F1D501C4018827892B8A2B8B2B09F4BF
:1051C00094C0D501C4018827907F892B8A2B8B2B13
:1051D00009F48EC0D501C40188279927892B8A2B11
:1051E0008B2B09F488C0D501C40188279927A07F9B
:1051F000892B8A2B8B2B09F481C0D501C401882708
:105200009927AA27892B8A2B8B2B09F47AC088240B
:105210009924AA2420EFB22289288A288B2809F40D
:1052200073C0ACE3B5E002C0A3E5B5E08C91882380
:1052300009F440C0E0913E07F0913F07309789F0B4
:105240008D010F5F1F4F09950196A1F1F801819122
:105250008F01882379F1E0913E07F0913F07309765
:1052600091F7FF20B9F0E0913E07F0913F073097AA
:1052700089F005EA11E08CE20995019659F0F801F0
:1052800081918F01882331F0E0913E07F0913F0733
:10529000309791F72A960FB6F894DEBF0FBECDBFB8
:1052A000DF91CF911F910F91FF90BF90AF909F9092
:1052B0008F90089589818823A1F2E0913E07F091B3
:1052C0003F07309771F28E010E5F1F4F09950196CF
:1052D00041F2F80181918F01882319F2E0913E0794
:1052E000F0913F07309791F7BCCFAAE4B5E09ECF8D
:1052F000A4E6B5E09BCFADE5B5E098CFA4E4B5E07A
:1053000095CFAFE3B5E092CFA8E3B5E08FCFFF92A2
:105310000F931F93CF93DF93CDB7DEB72C970FB6C4
:10532000F894DEBF0FBECDBFF42E2AE0AE014F5F72
:105330005F4F0E941C3889818823B9F0E0913E07B5
:10534000F0913F07309789F08E010E5F1F4F09954E
:10535000019659F0F80181918F01882331F0E09195
:105360003E07F0913F07309791F7FF20B9F0E091A9
:105370003E07F0913F07309789F005EA11E08CE293
:105380000995019659F0F80181918F01882331F038
:10539000E0913E07F0913F07309791F72C960FB6BA
:1053A000F894DEBF0FBECDBFDF91CF911F910F915B
:1053B000FF9008952F923F924F925F926F927F924B
:1053C0008F929F92AF92BF92CF92DF92EF92FF9215
:1053D0000F931F93CF93DF93CDB7DEB72C970FB604
:1053E000F894DEBF0FBECDBF4B015C018A010E9465
:1053F000F1322B013C011B014AE0BE016F5F7F4F80
:10540000C2010E940638DC018C91E0913E07F091C8
:105410003F07882309F495C03097A1F07D012FEF55
:10542000E21AF20A0995019609F487C0F701819101
:105430007F01882309F481C0E0913E07F0913F0786
:10544000309781F7B201550C880B990B0E942933D4
:105450009B01AC01C501B4010E940D326B017C01BE
:1054600037FC75C020E030E040E85FE361E070E0C9
:1054700080E090E0101611060CF520E030E0DC0131
:10548000CB01880F991FAA1FBB1F2C013D01440CA3
:10549000551C661C771C440C551C661C771CBC01F3
:1054A000CD01640D751D861D971D2F5F3F4F02179F
:1054B000130729F70E9429339B01AC01C701B601EC
:1054C0000E9474340E94F8322AE0AE014F5F5F4FB1
:1054D0000E941C3889818823B9F0E0913E07F09141
:1054E0003F07309789F08E010E5F1F4F0995019697
:1054F00059F0F80181918F01882331F0E0913E0746
:10550000F0913F07309791F72C960FB6F894DEBFD5
:105510000FBECDBFDF91CF911F910F91FF90EF9004
:10552000DF90CF90BF90AF909F908F907F906F90C3
:105530005F904F903F902F900895E0913E07F0913B
:105540003F07309709F47ECF8EE209957BCF20E0AC
:1055500030E040E85FEB6FEF7FEFCB018BCF0F9335
:105560001F93CF93DF93CDB7DEB72D970FB6F89487
:10557000DEBF0FBECDBF9A01AE014F5F5F4F0E94ED
:105580001138DC018C918823B9F0E0913E07F0914D
:105590003F07309789F08D010F5F1F4F09950196E6
:1055A00059F0F80181918F01882331F0E0913E0795
:1055B000F0913F07309791F72D960FB6F894DEBF24
:1055C0000FBECDBFDF91CF911F910F9108950F9323
:1055D0001F93CF93DF93CDB7DEB72A970FB6F8941A
:1055E000DEBF0FBECDBF4AE0BE016F5F7F4F0E949E
:1055F0000638DC018C918823B9F0E0913E07F091E8
:105600003F07309789F08D010F5F1F4F0995019675
:1056100059F0F80181918F01882331F0E0913E0724
:10562000F0913F07309791F72A960FB6F894DEBFB6
:105630000FBECDBFDF91CF911F910F910895FF92C3
:105640000F931F93CF93DF93CDB7DEB72A970FB693
:10565000F894DEBF0FBECDBFF82E82958F7040E16B
:10566000BE016F5F7F4F90E00E940638DC018C9195
:105670008823B9F0E0913E07F0913F07309789F019
:105680008D010F5F1F4F0995019659F0F801819127
:105690008F01882331F0E0913E07F0913F0730976A
:1056A00091F78F2D8F7040E1BE016F5F7F4F90E0CB
:1056B0000E940638DC018C918823B9F0E0913E0706
:1056C000F0913F07309789F08D010F5F1F4F0995CB
:1056D000019659F0F80181918F01882331F0E09112
:1056E0003E07F0913F07309791F72A960FB6F8944E
:1056F000DEBF0FBECDBFDF91CF911F910F91FF9005
:1057000008950F931F93CF93DF931616170654F443
:10571000EC018C01060F171F89910E947527C01795
:10572000D107D1F7E0913E07F0913F07309731F074
:105730008AE0DF91CF911F910F910994DF91CF9172
:105740001F910F9108950E94C32B0E94DE2B609140
:10575000C9077091CA078091CB079091CC070E942E
:105760007D2C0E94602D87E29CE290933F078093FE
:105770003E078BE59CE290933D0780933C070E9497
:10578000192E7894089541E450E064E070E085ECCF
:1057900097E00C94823841E450E064E070E085ECDE
:1057A00097E00C94923889B182FB882780F908959C
:1057B000811102C02B9808952B9A08955298239A2C
:1057C0002B98089580E008950E94A32B8CE695E025
:1057D0000E940C280E945F2683B7816083BF889552
:1057E00083B78E7F83BF0E94C325F6CF98E088E100
:1057F0000FB6F894A895809360000FBE9093600058
:10580000FFCF579A579A569A482F50E0440F551F8A
:1058100090E012C05F9A5E9A5F9A292F30E02417B9
:105820003507A4F42FEF34E38CE021503040804062
:10583000E1F700C000009F5F90FDECCF5F985E989D
:105840005F98292F30E02417350764F308952091DD
:1058500008089091230830E02F5F3F4F29272F70D1
:105860003327232B41F493B7916093BF889593B767
:105870009E7F93BFECCF209108089091230830E0E1
:105880002F5F3F4F29272F703327232B89F09091CB
:1058900008089F5F90930808E0910808EF70F0E017
:1058A000EE5EF74F80838091C10080628093C100DB
:1058B00080E090E00895909106088091070889277C
:1058C0008770C1F09091060880910708892787703A
:1058D00019F480E090E00895809107088F5F80932D
:1058E0000708E0910708E770F0E0E65FF74F808176
:1058F00090E008958FEF9FEF08954F925F926F921F
:105900007F928F929F92AF92BF92CF92DF92EF924F
:10591000FF920F931F93CF93DF9300D000D000D05E
:10592000CDB7DEB72B013C016B017C01CC0CDD1C3B
:10593000EE1CFF1CCC0CDD1CEE1CFF1CCC0CDD1C7B
:10594000EE1CFF1C812C54E2952E54EFA52EB12C99
:10595000C501B401A70196010E94863129833A83CB
:105960004B835C8389819A8101979E838D8391E427
:10597000491692E459069FE06906710408F070C068
:10598000A7019601220F331F441F551FC501B40103
:105990000E94863169017A0122953295307F322743
:1059A000207F322740E050E0C501B4010E948631DB
:1059B000CA01B901A30192010E94863111E0012FB1
:1059C000021B89819A81880F991F880F991F880F60
:1059D000991F9C0140E050E0C501B4010E9486314E
:1059E000CA01B901A30192010E948631121B10174E
:1059F00058F191E0C91AD108C092C400D092C500F4
:105A00008091C0008D7F8093C00088E18093C100A9
:105A10001092C00086E08093C20026960FB6F894DC
:105A2000DEBF0FBECDBFDF91CF911F910F91FF90D1
:105A3000EF90DF90CF90BF90AF909F908F907F902E
:105A40006F905F904F9008959D819093C4008E81D8
:105A50008093C5008091C00082608093C000D5CF44
:105A60008093C400F4CF1F920F920FB60F921124AF
:105A70008F939F93EF93FF93909108088091230851
:105A800089278F70B9F0809123088F5F8093230856
:105A9000E0912308EF70F0E0EE5EF74F8081809395
:105AA000C600FF91EF919F918F910F900FBE0F90C5
:105AB0001F9018958091C1008F7D8093C100F1CF18
:105AC000E1ECF0E080818068808308951F920F925E
:105AD0000FB60F9211242F938F939F93EF93FF9301
