:100000000C9468040C9491040C9491040C94910445
:100010000C9491040C9491040C9491040C9491040C
:100020000C9491040C9491040C9491040C94952DCF
:100030000C9491040C9491040C9491040C949104EC
:100040000C9491040C9491040C94592D0C94262D2D
:100050000C9491040C9491040C9491040C949104CC
:100060000C9491040C949104072C7AA5BA6CC59059
:10007000DA3B9365FC8BBC53F810FD3C5692834DE4
:10008000BD879D3AB63DCBC9BF5BBE73DA0FC93F92
:1000900005A84CCDB2D44EB93836A9020C50B9914E
:1000A0008688083CA6AAAA2ABE000000803F737971
:1000B0006E7461783A20636F6D6D616E64206F704D
:1000C00074696F6E3D76616C7565202E2E2E3B0A2D
:1000D000636F6D6D616E6473206172653A200074A8
:1000E000797065202768656C7020636F6D6D616E37
:1000F000643B2720206F72202768656C7020616C3C
:100100006C3B270A636F6D6D616E6473206172656D
:100110003A20006461696C793D5420202020202021
:100120002020656E61626C6573206461696C792062
:1001300074696D65722E20542069732075702F6468
:100140006F776E206C696B6520303733302D206FF0
:1001500072203037333032303030206F72202D3201
:100160003030302020666F722075702030373A337F
:100170003020616E642F6F7220646F776E20323092
:100180003A30300A7765656B6C793D545454545459
:10019000545420656E61626C6573207765656B6C85
:1001A000792074696D65722E2054206C696B65200E
:1001B0007769746820276461696C7927206F7220E1
:1001C000272B2720746F20636F7079207468652057
:1001D00054206F6E20746865206C6566742E20282C
:1001E0007765656B6C793D303733302D2B2B2B2B9E
:1001F000303930302D2B290A617374726F5B3D4E9C
:100200005D202020202020656E61626C6573206176
:100210007374726F206175746F6D617469632E20E1
:100220004E20697320746865206F6666736574205C
:10023000746F20636976696C206475736B20696ED6
:10024000206D696E757465732E2043616E20626542
:1002500020706F7374697665206F72206E656761B8
:10026000746976652E0A73756E2D6175746F202022
:100270002020202020656E61626C65732073756E8E
:10028000206175746F6D617469630A72616E646F69
:100290006D202020202020202020656E61626C656A
:1002A000732072616E646F6D206175746F6D61741F
:1002B00069632E2073687574746572206F70656E43
:1002C0007320616E6420636C6F73657320617420AA
:1002D00072616E646F6D2074696D65732E0A72743D
:1002E000632D6F6E6C7920202020202020646F6E9B
:1002F0002774206368616E67652074696D65727329
:100300002E206F6E6C792075706461746520696E43
:100310007465726E616C207265616C2074696D65C4
:1003200020636C6F636B0A612C206720616E642010
:100330006D3A202020206C696B6520696E20736502
:100340006E6420636F6D6D616E640A72733D283058
:100350007C317C322920202020207265616420625B
:1003600061636B2073617665642074696D657220CA
:10037000646174612E2069662073657420746F2037
:10038000322C2072657475726E20616E7920646102
:100390007461206D61746368696E67206720616EA7
:1003A00064206D20652E672E206D3D302028616E03
:1003B00079206D656D6265722920696E737465615F
:1003C00064206F66206D3D320A007072696E743D64
:1003D000287274637C6375290A0027636F6E6669EF
:1003E00067272073657473206F72206765747320AC
:1003F0006F7074696F6E732E205573653A20636F4A
:100400006E666967206F7074696F6E3D76616C759A
:1004100065202E2E2E3B20746F207365742E205580
:1004200073653A20636F6E666967206F7074696FD9
:100430006E3D3F202E2E2E3B20746F206765742C5E
:1004400020696620737570706F727465640A0A6340
:10045000753D2849447C6175746F7C3F29202020BC
:100460002020362D646967697420686578204944C6
:10047000206F662043656E7472616C2D556E6974D1
:100480002E206175746F3A206361707475726520F7
:100490004944207769746820636F6E6E6563746584
:1004A000642052462072656365697665720A7274CB
:1004B000633D2849534F5F54494D457C3F292020D7
:1004C000202020287274633D323031372D31322D97
:1004D00033315432333A35393A3539290A62617544
:1004E000643D284E7C3F29202020202020202020F1
:1004F000202073657269616C20626175642072618D
:1005000074652028626175643D3338343030290ABF
:100510006C6F6E6769747564653D284445477C3F20
:10052000290A6C617469747564653D284445477C8B
:100530003F290A74696D652D7A6F6E653D284E7C82
:100540003F29202020202020206578616D706C6577
:100550003A20636F6E66696720206C6F6E676974FE
:100560007564653D2B31332E3233343532206C6166
:100570007469747564653D2B35322E3334323334EF
:100580002074696D652D7A6F6E653D2B312E303B81
:100590000A6473743D2865757C307C317C3F29206A
:1005A00020202020206461796C6967687420736161
:1005B00076696E672074696D653A206175746F6D38
:1005C000617469633A2065753D6575726F70652E5B
:1005D000206D616E75616C6C793A20303D6F666696
:1005E0002C20313D6F6E0A766572626F73653D280F
:1005F000302E2E357C3F29202020207365742074F6
:10060000657874206F757470757420766572626F8A
:1006100073697479206C6576656C3A203020666F5A
:1006200072206E6F6E65202E2E2E203520666F7222
:10063000206D6178290A7365742D70773D70617340
:1006400073776F7264202020736574206120636F5C
:100650006E6669672070617373776F72642E2069AC
:10066000662073657420657665727920636F6E66A7
:10067000696720636F6D6D616E6473206E6565647C
:100680007320746865207077206F7074696F6E0ACC
:1006900070773D505720202020202020202020202F
:1006A00020206578616D706C653A20636F6E6669B5
:1006B000672070773D6D795F706173737720647325
:1006C000743D65753B0A72657374617274202020F5
:1006D00020202020202020207265737461727420F5
:1006E0004D43550A00613D28307C49442920202093
:1006F00020686578204944206F662073656E6465C4
:1007000072206F722072656365697665722E203083
:10071000202864656661756C742920757365732083
:100720002763752720696E20636F6E6669670A67A5
:100730003D5B302D375D202020202067726F757063
:10074000206E756D6265722E2030202864656661AA
:10075000756C7429206164647265737365732061BC
:100760006C6C2067726F7570730A6D3D5B302D374E
:100770005D202020202067726F7570206D656D628E
:1007800065722E2030202864656661756C7429209E
:1007900061646472657373657320616C6C206D6550
:1007A0006D626572730A633D636F6D6D616E642087
:1007B0002020436F6D6D616E6420746F2073656ED1
:1007C000642E204F6E65206F663A2075702C206471
:1007D0006F776E2C2073746F702C2073756E2D6480
:1007E0006F776E2C2073756E2D696E73742C207369
:1007F00065740A723D4E20202020202020202052A7
:10080000657065617465642073656E64696E6720E8
:10081000666F7220626574746572207265636570BC
:1008200074696F6E2E2053656E6420746865206352
:100830006F6D6D616E6420312B4E2074696D657330
:100840005345505B3D307C315D20202053776974E7
:10085000636820746F20656E61626C6520656E64EC
:100860002D706F736974696F6E2061646A7573743B
:100870006D656E742E20486F6C64206861726477B9
:1008800061726520627574746F6E20746F2061648C
:100890006A75737420656E6420706F736974696F14
:1008A0006E2028657370383236363A206770696F6B
:1008B000302F666C61736820627574746F6E206F80
:1008C0006E206D696E6920626F6172647329000029
:1008D00011241FBECFEFD8E0DEBFCDBF14BE0FB6D0
:1008E000F894A895809160008861809360001092D0
:1008F00060000FBE15E0A0E0B1E0E0ECF1E702C05F
:1009000005900D92A038B107D9F728E0A0E8B5E02E
:1009100001C01D92A834B207E1F70E94D72B0C94B6
:10092000DE380C9400008F938FB78F93F8948091EA
:100930002C088F5F80932C0880912D088F4F809317
:100940002D0880912E088F4F80932E0880912F08BC
:100950008F4F80932F088F918FBF8F910895CF93E2
:1009600080914E0681113DC0809154061816ACF559
:10097000809153068F708330C1F180914E068111B2
:100980002CC081E00E94F617C82F882331F1809196
:10099000540681508093540685E0EFE4F6E0A5E923
:1009A000B6E001900D928A95E1F761E085E996E065
:1009B0000E94861D8091E50781111CC08CE090E0AB
:1009C000909356068093550681E080934E0680E012
:1009D0000E94F6178C2FCF910895C1E08C2FCF91F4
:1009E0000895C0E08C2FCF9108958FE496E00E9487
:1009F000A025C3CF80E391E00E94FF2761E085E955
:100A000096E00E94381FDACF0F931F93CF93DF93A6
:100A10008C01D62F80914E06811136C0011511052B
:100A200031F080915406181614F41092540681E0A7
:100A30000E94F617C82F882339F1D130E9F185E0FB
:100A4000F801A5E9B6E001900D928A95E1F76D2FC6
:100A500085E996E00E94861D8091E50781111BC003
:100A6000D23039F180E591E0909356068093550697
:100A700081E080934E0680E00E94F6178C2FDF9174
:100A8000CF911F910F910895C0E08C2FDF91CF91EE
:100A90001F910F91089580E391E00E94FF278091BC
:100AA000E507823040F16D2F85E996E00E94381FFE
:100AB000D7CF8EE190E0D8CF0115110511F186E076
:100AC000F801AFE4B6E001900D928A95E1F785E078
:100AD000F801A5E9B6E001900D928A95E1F761E091
:100AE00085E996E00E94861D8091E507811111C07D
:100AF0008CE090E0B9CF61E085E996E00E94381F74
:100B0000AFCF809154068150809354060FE416E0D5
:100B1000DECF80E391E00E94FF2761E085E996E067
:100B20000E94381FE5CF2F923F924F925F926F92B3
:100B30007F928F929F92AF92BF92CF92DF92EF926D
:100B4000FF920F931F93CF93DF93CDB7DEB76E97CE
:100B50000FB6F894DEBF0FBECDBF8C01072E000C80
:100B6000880B990B0E941C3320E030E040E752E4F0
:100B70000E947232698F7A8F8B8F9C8F9801285FC9
:100B80003F4F38872F83C8018C589F4F9E8F8D8F82
:100B90008AEE96E6ABEDBDEB8D8B9E8BAF8BB88F5F
:100BA00085E89BEBACE0BEEB898B9A8BAB8BBC8B67
:100BB00080ED9BEEAAE6BFE38D879E87AF87B88B5B
:100BC00086E693E7ABECBEEB89879A87AB87BC8759
:100BD000312C212C90E89D83AFEBAE83812C80E8F3
:100BE000982E81EBA82E83E4B82E890108501109B4
:100BF0002BED3FE049E450E46091D5077091D607B2
:100C00008091D7079091D8070E94673420E030E0A8
:100C100044E353E40E9472326B017C010E94D4349D
:100C20002B013C01C701B6010E946D326B017C01B2
:100C300029853A854B855C85C301B2010E946734E2
:100C40009B01AC0165E073E186ED9DEB0E940032F3
:100C50002B013C012D853E854F855889C701B60182
:100C60000E9467349B01AC01C301B2010E94723241
:100C70000E94EF3120E030E040E451E40E9467340C
:100C80002BED3FE049E450E40E94723220E030E076
:100C900040E451E40E9401326B017C0120EA3AE118
:100CA0004FE25EEB69897A898B899C890E9467345F
:100CB0002B013C0121E834E045E05EE36D897E894B
:100CC0008F89988D0E9467349B01AC01C301B201EA
:100CD0000E9400329B01AC01C701B6010E940032A4
:100CE0006B017C0120E030E040E751E46091D107E6
:100CF0007091D2078091D3079091D4070E947232ED
:100D00009B01AC01C701B6010E9400326B017C015E
:100D10002091D9073091DA074091DB075091DC0729
:100D2000698D7A8D8B8D9C8D0E9401329B01AC0167
:100D3000C701B6010E9401326B017C019B01AC012D
:100D4000632D722D8D819E810E942E34181624F001
:100D50003C2C2D2CED82FE82AE014F5F5F4F632D48
:100D6000722D8D819E810E9433346B017C010F3F77
:100D7000BFEF1B0759F069817A818B819C810E94AA
:100D8000EB32862F0E94DD21F801818301151105C8
:100D900089F020E030E040E752E4C701B6010E944C
:100DA00067340E94EB3281E0860F8E7F0E94DD2146
:100DB000D8018C9320E030E843E750E4C501B4014A
:100DC0000E9400324B015C010E5F1F4FEF81F885DE
:100DD000E017F10709F44FC028E03CE240EA52E492
:100DE000C501B4010E94003224E73EE74AE85CE313
:100DF0000E9467340E94D4342CEF39EA41ED5EE35F
:100E00000E9467346B017C010E94D43469877A8721
:100E10008B879C87C701B6010E946D326D877E87E4
:100E20008F87988B23E039E04AE05DE3C501B40188
:100E30000E9467342BE734E14EEE5EE30E940132FC
:100E40000E94D434698B7A8B8B8B9C8B2BE134E69C
:100E500042E95CE3C501B4010E94673421E338E054
:100E60004CE25EE30E9400320E94D4346D8B7E8B94
:100E70008F8B988FBDCE3996F887EF832D8D3E8D61
:100E8000E217F30709F44FC028E03CE240EA52E4DD
:100E90000E94003224E73EE74AE85CE30E946734A0
:100EA0000E94D4342CEF39EA41ED5EE30E946734AE
:100EB0006B017C010E94D43469877A878B879C8779
:100EC000C701B6010E946D326D877E878F87988B30
:100ED00023E039E04AE05DE3C501B4010E946734D4
:100EE0002BE734E14EEE5EE30E9401320E94D434DF
:100EF000698B7A8B8B8B9C8B2BE134E642E95CE32C
:100F0000C501B4010E94673421E338E04CE25EE39E
:100F10000E9400320E94D4346D8B7E8B8F8B988F11
:100F20000F81188563CE6E960FB6F894DEBF0FBEA4
:100F3000CDBFDF91CF911F910F91FF90EF90DF9088
:100F4000CF90BF90AF909F908F907F906F905F9069
:100F50004F903F902F9008958F929F92AF92BF92A3
:100F6000CF92DF92EF92FF920F931F93CF93DF9375
:100F7000CDB7DEB764970FB6F894DEBF0FBECDBF16
:100F8000623071050CF460C0FC01E480F580C6801D
:100F9000D780E114F10409F485C0C114D10409F427
:100FA00081C04B018C01AA24A394B12C25C069E314
:100FB00071E0C6010E94BA37892B09F448C06DE37D
:100FC00071E0C6010E94BA37892B09F44EC0FFEFC9
:100FD000AF1ABF0A8A149B04B9F1F801E084F184C6
:100FE000C284D384E114F10409F45CC00C5F1F4F88
:100FF000C114D10409F456C063E371E0C7010E9433
:10100000BA37892BA1F287E591E00E94FF278091F2
:101010005B0690915C06892BD9F58AE30E94E02754
:101020008FE591E00E94FF278FEC94E00E94FF275C
:10103000C7010E94FF278AE00E94E027FFEFAF1A56
:10104000BF0A8A149B0449F680E090E02DC0CE01CF
:1010500001960E946824882309F4B9CFCE01019635
:101060000E94FF270E94F427B2CF80E491E00E9403
:10107000FF276091C9077091CA078091CB079091B3
:10108000CC0740E150E00E94A22A0E94F4279FCFA3
:1010900080E40E94E02780915B0690915C060E94AC
:1010A000DA2ABBCF8FEF9FEF64960FB6F894DEBFBE
:1010B0000FBECDBFDF91CF911F910F91FF90EF90A9
:1010C000DF90CF90BF90AF909F908F900895CF9278
:1010D000DF92EF92FF920F931F93CF93DF936C01F8
:1010E0007B016130710509F4D4C00CF499C001E0B2
:1010F00010E054C0BE0180910001909101010E9456
:10110000BA37892B09F4A5C0BE01809106019091E0
:1011100007010E94BA37892B09F4AFC0BE01809144
:101120000C0190910D010E94BA37892B09F4A8C0D7
:10113000BE0180911201909113010E94BA37892B50
:1011400009F4A1C0BE0180911801909119010E947B
:10115000BA37892B09F49AC087E591E00E94FF27EE
:1011600080915B0690915C06892B09F068C08AE348
:101170000E94E0278FE591E00E94FF278FEC94E02A
:101180000E94FF27CE010E94FF278AE00E94E027ED
:101190000F5F1F4F0E151F050CF042C0F801EE0F38
:1011A000FF1FEE0FFF1FEC0DFD1DC081D1816AEA0C
:1011B00071E0CE010E94BA37892B09F09BCF8EEAED
:1011C00090E00E942228C0E0D1E08E01F8018081E9
:1011D00091810E94FF2787EA91E00E94FF270A5F22
:1011E0001F4FF1E00E311F0789F70E94F427888115
:1011F00099810E94FF278EEA91E00E94FF278C814F
:101200009D810E9422280E94F427269681E0CE31FB
:10121000D80769F706E010E00E151F050CF4BECFE5
:101220008EE691E00E94FF2780E090E0DF91CF9171
:101230001F910F91FF90EF90DF90CF90089580E481
:101240000E94E02780915B0690915C060E94DA2A5A
:101250008ECF80E090E0FC01EE0FFF1FE80FF91F3A
:10126000EE0FFF1FE050FF4F848195810E942228DE
:101270000E94F4270F5F1F4F8DCF81E090E0EBCFEE
:1012800082E090E0E8CF83E090E0E5CF84E090E07A
:10129000E2CF8FED90E00E942228C0E0D1E00EE185
:1012A00011E0888199810E94FF2787EA91E00E94DE
:1012B000FF2726960C171D07A1F70E94F427B4CF2D
:1012C0002F923F924F925F926F927F928F929F9256
:1012D000AF92BF92CF92DF92EF92FF920F931F9344
:1012E000CF93DF9300D000D0CDB7DEB73B016230A3
:1012F00071050CF41AC2FC0104811581C680D780E7
:101300000115110509F4C3C09C838B83312C1A820B
:10131000212CF2E0F98344244A94542C812C912C02
:101320005401EE24E394F12C20C0C114D10409F43B
:1013300084C040E150E060E070E0C6010E946F357B
:101340004B015C01FFEFEF1AFF0A6E147F0471F18D
:10135000EB81FC81008511853496FC83EB83C6808C
:10136000D7800115110509F492C069EB71E0C8013D
:101370000E94BA37892BC9F26CEA73E0C8010E9457
:10138000BA37892B09F042C0C114D10409F46AC0EC
:10139000C6010E947A378830910508F063C0382E64
:1013A000FFEFEF1AFF0A6E147F0491F68114910487
:1013B000A104B10409F41BC120918305822F90E0A0
:1013C000A0E0B0E0DC019927882730918505832BC8
:1013D0004091840550E0542F442760E070E0842B56
:1013E000952BA62BB72B88169906AA06BB0609F4DF
:1013F000E1C0B501A40183E895E00E948025209119
:101400008305E3E8F5E0FC83EB83D8C06AE573E08D
:10141000C8010E94BA37892BA1F4C114D10411F17B
:10142000C6010E947A3788309105E0F4009709F4EC
:101430008DC0E7E02E2E280E85CF812C912C5401F3
:1014400081CF62EB73E0C8010E94BA37892BC1F5E6
:10145000C114D10439F0C6010E947A3789838B30D8
:1014600008F470CF81EC91E00E94FF2780915B0629
:1014700090915C06892B09F028C18FEC94E00E94C2
:10148000FF278BEB91E00E94FF270E94F4278FEF4C
:101490009FEF0F900F900F900F90DF91CF911F91C2
:1014A0000F91FF90EF90DF90CF90BF90AF909F9003
:1014B0008F907F906F905F904F903F902F90089506
:1014C0006BE371E0C8010E94BA37892B09F040C074
:1014D000C114D10439F260ED71E0C6010E94BA373F
:1014E000892B09F40CC169ED71E0C6010E94BA377D
:1014F000892B09F401C167EC71E0C6010E94BA377B
:10150000892B09F4FFC06CEC71E0C6010E94BA3768
:10151000892B09F4EEC065ED71E0C6010E94BA376F
:10152000892B09F4FFC06CED71E0C6010E94BA3747
:10153000892B09F4F4C065EE71E0C6010E94BA3748
:10154000892B09F08FCF8DE08A83FCCE212CFACE37
:1015500069EE71E0C8010E94BA37892B71F4C11499
:10156000D10421F0F6018081813321F44424439495
:10157000512CE8CE412C512CE5CE87E591E00E941C
:10158000FF2780915B0690915C06892B09F0A7C02C
:101590008AE30E94E0278FE591E00E94FF278FEC0D
:1015A00094E00E94FF27C8010E94FF278AE00E9462
:1015B000E027C8CE83E895E09C838B83207F20388A
:1015C000F9F0FFEF4F165F0699F1EB81FC81848102
:1015D000982F907F8A818F70892B8483452809F406
:1015E00058C0CF010E94242280E090E052CF209189
:1015F0005D068DE596E09C838B83207F203809F77C
:10160000EB81FC8124812F70F0E13F9EC001112409
:10161000322E382AEB81FC8134828381982F907F8F
:10162000822D8F70892B8383FFEF4F165F0669F63B
:10163000FA81FF2399F1EB81FC818481982F907FBF
:101640008A818F70892B8483CF010E94A0252981F4
:10165000EB81FC81258361E0CF010E940405882392
:10166000E9F081EC91E00E94FF2780915B06909168
:101670005C06892B09F068C08FEC94E00E94FF277C
:101680008FE393E00E94FF270E94F42780E090E020
:1016900000CF0E94F92180E090E0FBCE81EC91E048
:1016A0000E94FF2780915B0690915C06892B69F56B
:1016B0008FEC94E00E94FF278BEB91E00E94FF27C4
:1016C0000E94F42780E090E0E4CE80E40E94E027CE
:1016D00080915B0690915C060E94DA2ACECE80E46F
:1016E0000E94E02780915B0690915C060E94DA2AB6
:1016F0004FCF86E08A8326CE84E08A8323CE85E09E
:101700008A8320CE83E08A831DCE80E40E94E02776
:1017100080915B0690915C060E94DA2AC9CF88E02E
:101720008A8310CE87E08A830DCE20915D0632E059
:10173000398344244A94542C212C1A82312C8DE56F
:1017400096E09C838B833ACF80E40E94E0278091CF
:101750005B0690915C060E94DA2A8ECFCF93DF93CE
:10176000EC0187E591E00E94FF2780915B06909154
:101770005C06892B99F48AE30E94E0278FE591E0CB
:101780000E94FF278FEC94E00E94FF27CE010E9469
:10179000FF278AE0DF91CF910C94E02780E40E943C
:1017A000E02780915B0690915C060E94DA2AE3CFE5
:1017B0002F923F924F925F926F927F928F929F9261
:1017C000AF92BF92CF92DF92EF92FF920F931F934F
:1017D000CF93DF93CDB7DEB76E970FB6F894DEBF29
:1017E0000FBECDBF4B01332433942091EA07211162
:1017F000312C02E0801691040CF41CC2FC0104811F
:101800001581C680D7800115110509F439C1C114AD
:10181000D10409F435C17C015DEE652E51E0752ED1
:10182000212C1E8E1D8EAA24A394B12C25C0B60196
:101830008AEE97E00E94BA37892B09F01DC18AEF22
:1018400091E00E94FF273FEFA31AB30A8A149B047A
:1018500009F453C0F70100851185C284D3840115B2
:10186000110509F40DC1F4E0EF0EF11C332433949B
:10187000C114D10409F404C165EA72E0C8010E94F0
:10188000BA37892BA1F2332009F40EC267E372E064
:10189000C8010E94BA37892B09F4AAC069E371E034
:1018A000C8010E94BA37892B09F04EC0F601808129
:1018B0008F3309F448C1C6010E948D24882309F49E
:1018C000C5C081EC91E00E94FF2780915B0690915A
:1018D0005C06892B09F01BC18FEC94E00E94FF2766
:1018E0008FE393E00E94FF270E94F4273FEFA31AA3
:1018F000B30A8A149B0409F0ADCF2110B3C166ED81
:1019000074E0C3010E94BA37892B09F4AEC12D8C53
:101910003E8C232809F48EC181EC91E00E94FF27C0
:1019200080915B0690915C06892B09F07CC28FEC5C
:1019300094E00E94FF278BEB91E00E94FF270E941A
:10194000F42780E090E0B3C06DE371E0C8010E942D
:10195000BA37892B09F04FC0F60180818F3309F423
:1019600089C160E673E0C6010E94BA37892B09F489
:101970000EC163E872E0C6010E94BA37892B09F0F4
:1019800035C160918E06862F90E0A0E0B0E0DC01CA
:101990009927882720919006AC01BD01422B8091A8
:1019A0008F0690E0982F8827A0E0B0E01A012B0165
:1019B000282A392A4A2A5B2AC201B1018201222738
:1019C0003327003811052105310509F059C000936E
:1019D0005D0670935E0660935F066093C90770931F
:1019E000CA078093CB079093CC07222423942BCF54
:1019F0000E94E92B28CF6CE872E0C8010E94BA3738
:101A0000892B09F48EC064E972E0C8010E94BA37DC
:101A1000892B09F465C069E972E0C8010E94BA37F0
:101A2000892B09F4FAC061EA72E0C8010E94BA3752
:101A3000892B09F058C1F60101900020E9F7319790
:101A4000EC19FD09E031F10508F4C9C181EC91E020
:101A50000E94FF2780915B0690915C06892B09F01C
:101A60008CC08FEC94E00E94FF278BEB91E00E94EA
:101A7000FF270E94F427E7CE87E092E00E94FF272D
:101A800081EC91E00E94FF2780915B0690915C06BB
:101A9000892B09F0A1C08FEC94E00E94FF278BEB0B
:101AA00091E00E94FF270E94F4278FEF9FEF6E9630
:101AB0000FB6F894DEBF0FBECDBFDF91CF911F915F
:101AC0000F91FF90EF90DF90CF90BF90AF909F90DD
:101AD0008F907F906F905F904F903F902F900895E0
:101AE000F60180818F3309F4E4C04AE050E060E001
:101AF00070E0C6010E9485366093CD077093CE07D3
:101B00008093CF079093D007222423949CCE80E427
:101B10000E94E02780915B0690915C060E94DA2A81
:101B2000DBCE40E150E060E070E0C6010E94853607
:101B30006093E6077093E7078093E8079093E907BF
:101B40002224239480CECE0101960E94682488230B
:101B500009F479CEC3010E94FF27C8010E94FF2724
:101B600086E794E00E94FF27CE0101960E94FF279E
:101B700046ED642E44E0742E66CE80E40E94E02799
:101B800080915B0690915C060E94DA2A6ACF809170
:101B9000570690915806A0915906B0915A06CC96D6
:101BA000A11DB11D8093910590939205A09393057B
:101BB000B093940510928E0680915B0690915C061E
:101BC0009093900580938F05F1E0F0938D068FE35D
:101BD00092E00E94FF2775CE80E40E94E02780916A
:101BE0005B0690915C060E94DA2A55CF40E150E0F6
:101BF00060E070E0C6010E9485368C012227332701
:101C0000003809F03DCF292E3324442455242328BD
:101C10002428252809F4DBCE33CFF60180818F33C9
:101C200009F417C1C6010E947A378093E507222480
:101C3000239409CE81EC91E00E94FF2780915B06FE
:101C400090915C06892B09F0E4C08FEC94E00E942F
:101C5000FF278FE393E00E94FF270E94F42780E094
:101C600090E025CF0E94BE2B4ACE82EE92E00E94E9
:101C7000FF274DCEC3010E94FF27C8010E94FF2706
:101C800086E794E00E94FF276091C9077091CA0718
:101C90008091CB079091CC0740E00E94AB2836EDB5
:101CA000632E34E0732ECFCD8EE192E00E94FF27A9
:101CB000E7CEC3010E94FF27C8010E94FF2786E7E5
:101CC00094E00E94FF276091CD077091CE0780912C
:101CD000CF079091D00740E00E947A2956ED652EFB
:101CE00054E0752EB0CD68EA72E0C8010E94BA37A0
:101CF000892B09F4A2C065EB72E0C8010E94BA37D3
:101D0000892B09F477C061EC72E0C8010E94BA37F0
:101D1000892B09F0B2C0F60180818F3309F4E6C146
:101D20008D3209F4FEC1082F60E070E0CB01212C58
:101D3000312C10E8412E1FE3512E298E3A8E4B8E06
:101D40005C8E002309F40FC11FEFC11AD10A1D8A4E
:101D50001E8A1F8A188E212C312C3BC010E00053A4
:101D600011090A30110578F52114310471F020E0D1
:101D700030E040E251E4698D7A8D8B8D9C8D0E941C
:101D80007232698F7A8F8B8F9C8F20E030E040E237
:101D900051E46D897E898F89988D0E9467346D8B9F
:101DA0007E8B8F8B988FB801110F880B990B0E9437
:101DB0001C332D893E894F89588D0E9401326D8BCD
:101DC0007E8B8F8B988FF60101916F01002309F4B0
:101DD000C0C00E3219F622242394312CF4CFAF0167
:101DE0004F5F5F4FB6018AEE97E00E94A63722242C
:101DF000239429CD64E275E0C6010E94BA37892B8D
:101E000009F04CC1332433943092E3070E94BE2B77
:101E100058CD80E40E94E02780915B0690915C069B
:101E20000E94DA2A12CF80E40E94E02780915B06AC
:101E300090915C060E94DA2A7ACD64E275E0C601D0
:101E40000E94BA37892B09F09BC0F1E0F093E207BA
:101E5000DDCFC3010E94FF27C8010E94FF2786E74C
:101E600094E00E94FF278091E50790E00E94DA2A23
:101E700046ED642E44E0742EE6CC6BEC72E0C801B3
:101E80000E94BA37892B09F086C0F60180818F3312
:101E900009F45CC18D3209F48BC1082F60E070E059
:101EA000CB01212C312CE0E84E2EEFE35E2E298E63
:101EB0003A8E4B8E5C8E002309F4E3C01FEFC11AEB
:101EC000D10A1D8A1E8A1F8A188E212C312C3BC0F4
:101ED00010E0005311090A30110578F5211431047E
:101EE00071F020E030E040E251E4698D7A8D8B8D15
:101EF0009C8D0E947232698F7A8F8B8F9C8F20E02D
:101F000030E040E251E46D897E898F89988D0E948E
:101F100067346D8B7E8B8F8B988FB801110F880B78
:101F2000990B0E941C332D893E894F89588D0E9440
:101F300001326D8B7E8B8F8B988FF60101916F0133
:101F4000002309F494C00E3219F622242394312C74
:101F5000F4CF298D3A8D4B8D5C8D6D897E898F896B
:101F6000988D0E9467346093D1077093D207809355
:101F7000D3079093D4070E941C252224239463CC7A
:101F800061EB72E0C6010E94BA37892B09F05ECD81
:101F90001092E2073BCF64ED72E0C8010E94BA37AD
:101FA000892B09F086C0F60180818F3309F43EC188
:101FB0008D3209F41CC1082F60E070E0CB01212CA8
:101FC000312C30E8432E3FE3532E2D8A3E8A4F8A30
:101FD000588E002309F4DFC01FEFC11AD10A198EF1
:101FE0001A8E1B8E1C8E212C312C3BC010E000530E
:101FF00011090A30110578F52114310471F020E03F
:1020000030E040E251E46D897E898F89988D0E948D
:1020100072326D8B7E8B8F8B988F20E030E040E2A8
:1020200051E4698D7A8D8B8D9C8D0E946734698F08
:102030007A8F8B8F9C8FB801110F880B990B0E94A0
:102040001C33298D3A8D4B8D5C8D0E940132698F36
:102050007A8F8B8F9C8FF60101916F01002309F419
:1020600090C00E3219F622242394312CF4CF298DFE
:102070003A8D4B8D5C8D6D897E898F89988D0E94FC
:1020800067346093D5077093D6078093D7079093F2
:10209000D8070E941C2522242394D5CB61EB72E043
:1020A000C6010E94BA37892B09F0D0CC1092E30701
:1020B000ADCE6EED72E0C8010E94BA37892B09F0EF
:1020C000ABC0F60180818F3309F4D7C067EF71E0B0
:1020D000C6010E94BA37892B09F07FC0F1E0F09366
:1020E000DD070E941C2522242394ADCBC3010E944E
:1020F000FF27C8010E94FF2786E794E00E94FF2780
:102100006091D1077091D2078091D3079091D40745
:1021100045E050E00E94CD2936ED632E34E0732E69
:1021200092CBF601018196012F5F3F4F690160E07C
:1021300070E080E090E8212C312C20E8422E2FEB3B
:10214000522E298E3A8E4B8E5C8EFBCDC3010E949F
:10215000FF27C8010E94FF2786E794E00E94FF271F
:102160006091D5077091D6078091D7079091D807D5
:1021700045E050E00E94CD29A6ED6A2EA4E07A2E1B
:1021800062CB2D893E894F89588D698D7A8D8B8DD3
:102190009C8D0E9467346093D9077093DA0780930F
:1021A000DB079093DC070E941C25222423944BCB51
:1021B000F601018196012F5F3F4F690160E070E0F9
:1021C00080E090E8212C312CF0E84F2EFFEB5F2EC1
:1021D000298E3A8E4B8E5C8E6ECE6EE575E0C60112
:1021E0000E94BA37892BE9F51092DD077ACFF60104
:1021F000018196012F5F3F4F690160E070E080E050
:1022000090E8212C312C40E8442E4FEB542E2D8A9F
:102210003E8A4F8A588EDDCE2D8D3E8D2F5F3F4FEB
:102220003E8F2D8FC8010E94AE0B0DCBC3010E94C3
:10223000FF27C8010E94FF2786E794E00E94FF273E
:102240006091D9077091DA078091DB079091DC07E4
:1022500042E050E00E94CD2956ED652E54E0752EE7
:10226000F2CA65EF71E0C6010E94BA37892BF1F41A
:1022700083E0282E2092DD0734CFC3010E94FF2780
:10228000C8010E94FF2786E794E00E94FF27809103
:10229000DD07813091F081110DC08EE595E00E943F
:1022A000FF2796ED692E94E0792ECDCAC8010E94D1
:1022B000AE0B17CF85EF91E0F2CF87EF91E0EFCF34
:1022C0000E94EA278F3F2FEF9207D9F08D309105BA
:1022D000D9F08A309105C1F08830910509F441C0E8
:1022E00082329105B1F020919505222301F1CB971F
:1022F00039F7109295050E94EA278F3F2FEF92073A
:1023000029F780E090E008951092190610921806BF
:10231000D7CF20911806309119062F5F3F4F309389
:10232000190620931806209195052111C9CF2091F7
:102330001606309117062F37310584F5409118069F
:1023400040FD03C08B339105B9F1A9014F5F5F4F89
:102350005093170640931606F901EA56FA4F808308
:10236000AFCF8091160690911706009709F4A8CF79
:1023700001979093170680931606FC01EA56FA4FD0
:102380008081823209F09CCF8091180690911906C5
:102390000197909319068093180692CF81E080935D
:1023A000950580E090E010921706109216061092A4
:1023B00019061092180608952115310539F0F90112
:1023C000EA56FA4F108286E995E0EDCF80E090E082
:1023D000EACFEF92FF920F931F93CF93DF93EC011D
:1023E00010925C0610925B0600E010E0888180325B
:1023F00041F4DE01FE013196EF011D9281918032A0
:10240000D9F3882309F487C07801EE0CFF1CEE0C89
:10241000FF1CF701ED59F94FD183C0838881982FB4
:102420009F7D61F08D33E9F0FE01319602C08D335E
:10243000C1F0EF018191982F9F7DC9F7F701ED5908
:10244000F94F138212820F5F1F4F0A30110571F688
:102450008FEF9FEFDF91CF911F910F91FF90EF9042
:102460000895188289818B3399F3803289F38232FF
:10247000B9F1882369F3FE013196D701AD59B94FFF
:102480001396FC93EE9312978981882371F0803222
:10249000F1F18D33E1F1229604C08032C1F18D3328
:1024A000B1F1FE0189918111F8CFEF01C7018D597A
:1024B000994F7C016EEE72E0FC01808191810E9457
:1024C000BA37892B09F0BFCFF701828193810E942F
:1024D0007A3790935C0680935B0601501109B3CF65
:1024E000CE0102962A81222309F4B2CFF701ED59D9
:1024F000F94F9383828362E270E00E94AF37EC0170
:10250000892B09F4A5CF8881882381F2FE01EF0190
:1025100021961082CBCFC801DF91CF911F910F91EF
:10252000FF90EF90089581EC91E00E94FF27809149
:102530005B0690915C06892B69F48FEC94E00E9415
:10254000FF278BEB91E00E94FF270E94F4278FEF7B
:102550009FEF089580E40E94E02780915B069091B0
:102560005C060E94DA2AE9CF0F931F93CF93DF9383
:10257000009731F58091910590919205A091930576
:10258000B09194050097A105B105A1F040915706BF
:10259000509158066091590670915A068417950714
:1025A000A607B70708F481C080918E06982F907F08
:1025B000903879F180E0DF91CF911F910F910895CC
:1025C00040915706509158066091590670915A06ED
:1025D0008A019B01080F191F211D311D00939105D0
:1025E00010939205209393053093940510928E06D4
:1025F00080915B0690915C069093900580938F0587
:1026000081E080938D0680E0DF91CF911F910F9143
:10261000089590E0A0E0B0E0DC01992788272091A0
:102620009006822B40918F0650E0542F442760E0A3
:1026300070E0842B952BA62BB72BA0935D0690936F
:102640005E0680935F068093C9079093CA07A093A4
:10265000CB07B093CC07109291051092920510927F
:1026600093051092940585E193E00E94FF2781EC89
:1026700091E00E94FF2780915B0690915C06892B78
:1026800009F04AC08AE30E94E0278AE393E00E94AF
:10269000FF278FEC94E00E94FF270E94F4270E94FE
:1026A000BE2B10928D0681E086CFC0915B06D09143
:1026B0005C0610929105109292051092930510926B
:1026C000940582EF92E00E94FF2780918F05909100
:1026D000900590935C0680935B0681EC91E00E94EC
:1026E000FF2780915B0690915C06892BF9F48AE3C1
:1026F0000E94E02787E093E00E94FF278FEC94E0A0
:102700000E94FF270E94F427D0935C06C0935B06CB
:1027100010928D0680E04FCF80E40E94E0278091E8
:102720005B0690915C060E94DA2AACCF80E40E949E
:10273000E02780915B0690915C060E94DA2AD7CF51
:102740004F925F926F927F928F929F92AF92BF92C1
:10275000CF92DF92EF92FF920F931F93CF93DF936D
:1027600000D01F92CDB7DEB77C015B014A011B820E
:10277000452B09F4A9C0FC01808120E030E08823CA
:1027800009F45BC000E010E055245A949FE0492E04
:102790001EC0F501E20FF31F50826801FFEFCF1A50
:1027A000DF0AC814D90408F04CC0F501EC0DFD1D7A
:1027B00040828FEFE81AF80A86010F5F1F4F9801D9
:1027C00008151905D0F5F70180818823B1F18B3206
:1027D00009F44CC08D32E9F28983F70181818A8343
:1027E0006801FFEFCF1ADF0AC814D90450F5CE01F3
:1027F00001960E947A370E94CE21F501EC0DFD1D55
:102800008083F701828189833701F4E06F0E711CA8
:10281000F70183818A830A0D1B1DCE0101960E9458
:102820007A370E94CE21F8018083730186010F5F01
:102830001F4F98010815190530F281E082169306A2
:1028400009F080E00F900F900F90DF91CF911F91D2
:102850000F91FF90EF90DF90CF90BF90AF909F903F
:102860008F907F906F905F904F9008950430110586
:1028700044F3C80104968816990618F3D501A20FEF
:10288000B31FFD01349780818C93F8013196EA0DD6
:10289000FB1DDF0114978C918083F8013296EA0DBD
:1028A000FB1DDF0114978C9180836801E3E0CE0E5D
:1028B000D11CF501EC0DFD1DDF0114978C91808377
:1028C000FFEFEF1AFF0A78CF20E030E0B6CF2F926B
:1028D0003F924F925F926F927F928F929F92AF92B0
:1028E000BF92CF92DF92EF92FF920F931F93CF93FD
:1028F000DF93CDB7DEB7A8970FB6F894DEBF0FBE53
:10290000CDBFFC014B012FEF29839FE09A832B83DE
:102910009C832D839E832F83988729879A872B8773
:102920009C872D879E872F87988B298B9A8B2B8B43
:102930009C8B2D8B9E8B2F8B988F298F9A8F2B8F13
:102940009C8F2D8F9E8F2F8F98A3623071050CF472
:1029500068C2E480F580A680B780E114F10409F430
:10296000ECC08F01312C18A6FEEFFFA319A2212C79
:102970001BA21CA21DA21EA2612C712C1AA2512CFA
:10298000412CCC24C394D12C21C0A114B10409F44E
:10299000B7C04CE150E0BE016F5F7F4FC5010E94A0
:1029A000A013582E4FEFC41AD40A8C149D0481F141
:1029B000D8011896ED90FC9019970C5F1F4FF80105
:1029C000A680B780E114F10409F4B7C062E473E0B3
:1029D000C7010E94BA37892BC1F269E473E0C701CD
:1029E0000E94BA37892B09F046C0A114B10409F43A
:1029F00087C044E050E0BE01635E7F4FC5010E9486
:102A0000A013482E4FEFC41AD40A8C149D0481F6EB
:102A10006BA17CA18DA19EA1672B682B692B09F46A
:102A2000EDC020918905822F90E0A0E0B0E0DC01AC
:102A30009927882730918B05832B40918A0550E098
:102A4000542F442760E070E0842B952BA62BB72BE6
:102A50004BA15CA16DA17EA1481759076A077B07AE
:102A600009F44CC189E895E00E94802520918905F0
:102A700009E815E0C7C06FE473E0C7010E94BA37E8
:102A8000892B59F4A114B10409F4ACC0C5010E940A
:102A90007A373C0121E02AA385CF65E573E0C701C1
:102AA0000E94BA37892B91F4A114B10441F0D501E9
:102AB0008C91803309F48FC0813309F073CF79A1F1
:102AC000716079A3822D8160282E6CCF6CE573E054
:102AD000C7010E94BA37892B09F04AC0A114B1047A
:102AE00041F0F5018081803309F481C0813309F020
:102AF00059CF99A1906899A3A22DA0682A2E52CFF0
:102B000081EC91E00E94FF2780915B0690915C062A
:102B1000892B49F080E40E94E02780915B06909128
:102B20005C060E94DA2A8FEC94E00E94FF278BEB70
:102B300091E00E94FF270E94F4278FEF9FEFA89655
:102B40000FB6F894DEBF0FBECDBFDF91CF911F91BE
:102B50000F91FF90EF90DF90CF90BF90AF909F903C
:102B60008F907F906F905F904F903F902F9008953F
:102B700065E673E0C7010E94BA37892B79F4A11486
:102B8000B10409F4F1C0D5018C91803309F45FC020
:102B9000813309F0B6C0F1E0FFA304CF69EB71E027
:102BA000C7010E94BA37892B09F441C06CEA73E06F
:102BB000C7010E94BA37892B09F0BCC0A114B10427
:102BC00009F4CFC0C5010E947A378830910508F01A
:102BD000C8C0382EE7CE39A1316039A3422D4E7FCF
:102BE000242EE0CE612C712C31E03AA3DBCE59A12A
:102BF000506859A3622D6F77262ED4CE20915D06A2
:102C00000DE516E0207F203809F463C0D801149642
:102C10008C918F60F8018483C8010E94A02581E017
:102C20000E94F617811115C080E090E088CFA114B2
:102C3000B10409F49CC040E150E060E070E0C501DF
:102C40000E946F356BA37CA38DA39EA3ABCE1FA266
:102C5000A9CE85E996E00E94771FFFA1F13009F423
:102C6000A3C0511097C041108DC02AA1211184C06A
:102C700060E085E996E00E94922049A1622D85E9F5
:102C800096E00E94FE20B80185E996E00E94A1210D
:102C900063E0C8010E9404058823B1F181EC91E052
:102CA0000E94FF2780915B0690915C06892B09F0BA
:102CB00092C08FEC94E00E94FF278FE393E00E9484
:102CC000FF270E94F42780E00E94F61780E090E042
:102CD00036CFF8018481282F2F70F0E13F9EC0018C
:102CE0001124822BD80113969C911397292F207FB2
:102CF00098A59F70922B13969C938BCF09E815E0B3
:102D000081CFBFEFBFA34ECE81EC91E00E94FF27A1
:102D100080915B0690915C06892B09F052C08FEC84
:102D200094E00E94FF278BEB91E00E94FF270E9416
:102D3000F427C9CF6AE573E0C7010E94BA37892B2F
:102D400009F053C0A114B10461F0C5010E947A37A3
:102D50008830910530F4009729F127E0280F28A743
:102D600021CE0E949312EBCEE1E0EFA31BCE1BA27B
:102D70001CA21DA21EA216CEB30185E996E00E94F8
:102D80009E2176CFBE01635E7F4F85E996E00E946B
:102D900091216BCFBE016F5F7F4F85E996E00E9466
:102DA000602161CF18A6FECD61E085E996E00E9422
:102DB000922049A1622D85E996E00E94FE2062E002
:102DC00068CF80E40E94E02780915B0690915C06CA
:102DD0000E94DA2AA4CF80E40E94E02780915B065B
:102DE00090915C060E94DA2A64CF87E591E00E9408
:102DF000FF2780915B0690915C06892B11F58AE391
:102E00000E94E0278FE591E00E94FF278FEC94E07D
:102E10000E94FF27C7010E94FF278AE00E94E02747
:102E2000C1CD20915D06312C512C612C712C212CAF
:102E300019A23EEF3FA31AA2412C18A60DE516E0F9
:102E4000E1CE80E40E94E02780915B0690915C06D1
:102E50000E94DA2AD4CF0F931F93CF93DF930E945F
:102E60006011EC01892B09F44BC00E94F427CE01BC
:102E70000E94E9118C0197FD53C00E94F621892B15
:102E800009F093C0C0916306D0916406609100017F
:102E900070910101CE010E94BA37892B09F466C0F6
:102EA0006091060170910701CE010E94BA37892B0B
:102EB00009F46FC060910C0170910D01CE010E9468
:102EC000BA37892B09F468C060911201709113011F
:102ED000CE010E94BA37892B09F461C060911801B4
:102EE00070911901CE010E94BA37892B09F45AC09A
:102EF00085EE92E0DF91CF911F910F910C94FF2707
:102F000080918205811107C085EE92E00E94FF2723
:102F100081E080938205DF91CF911F910F910895F9
:102F200081EC91E00E94FF2780915B0690915C0606
:102F3000892B91F48FEC94E00E94FF278BEB91E0BA
:102F40000E94FF270E94F42785EE92E0DF91CF9147
:102F50001F910F910C94FF2780E40E94E02780913D
:102F60005B0690915C060E94DA2AE4CF80E090E054
:102F7000FC01EE0FFF1FE80FF91FEE0FFF1FE050DF
:102F8000FF4F0280F381E02DB80183E696E00995BA
:102F9000AFCF81E090E0ECCF82E090E0E9CF83E03A
:102FA00090E0E6CF84E090E0E3CF0E94F92181EC4D
:102FB00091E00E94FF2780915B0690915C06892B2F
:102FC00059F48FEC94E00E94FF278EE693E00E9474
:102FD000FF270E94F4278CCF80E40E94E027809195
:102FE0005B0690915C060E94DA2AEBCF8823A1F061
:102FF00080913A068F5F80933A0604C08091E20781
:10300000813041F484E690E00E948E2D8091390653
:103010008823A1F381E0089580913A06815080933E
:103020003A0681E008951092360610923506109205
:10303000370610923806109230061092220610922F
:103040002106109294061092200610921F0686E028
:1030500090E090931E0680931D060895EF92FF92D4
:103060000F931F93CF93DF930E94C62B8093280664
:1030700090912706891709F482C0811161C09FEFE2
:1030800090932F068093270620919406211109C062
:1030900020914E06211105C020913906222309F402
:1030A00070C080912D0690912E0620913A06222321
:1030B00009F448C02091390621111AC01092360631
:1030C000109235061092370610923806109230068C
:1030D0001092220610922106109294061092200659
:1030E00010921F0626E030E030931E0620931D0646
:1030F00021E020933906019690932E0680932D06A9
:1031000080912806882309F180912B0690912C0646
:10311000019690932C0680932B0680912F0618160B
:103120000CF510922E0610922D0610922C0610927D
:103130002B06DF91CF911F910F91FF90EF90089593
:1031400091E09ECF10923906D6CF809129069091BA
:103150002A06019690932A068093290680912F06CD
:103160001816FCF2882329F310922A0610922906D9
:10317000DF91CF911F910F91FF90EF90089590E014
:103180007FCF4091230650912406609125067091CF
:103190002606411551056105710509F44BC04150E2
:1031A00051096109710940932306509324066093E5
:1031B000250670932606452B462B472BD9F51092F2
:1031C0003606109235061092370610923806109285
:1031D0003006109222061092210610929406109248
:1031E000200610921F0626E030E030931E06209342
:1031F0001D06913009F055CF2091300680912D06A3
:1032000090912E06AC0127300CF0F8C04C505109BB
:103210004D31510508F049CF40912B0650912C06B5
:10322000445051094131510508F03FCF2F5F2093A1
:1032300030063BCF81111FC080913806882309F4E6
:1032400040C19F3F09F491C090913006973009F03A
:1032500028CF21E0280F2831B8F01092380680914D
:1032600037068F5F8A30B8F48093370680912D0639
:1032700090912E061ACF2091290630912A06213FDF
:10328000310508F09CCFD8CF80912D0690912E0665
:10329000209338060ACF10923706209135063091D8
:1032A000360620FDC0C080911D0690911E064091FB
:1032B0001F06509120062F5F3F4F30933606209314
:1032C00035064817590708F4ECCE8F30910509F4FC
:1032D00074C0883A910509F46CC0069709F0E1CEF4
:1032E0008091210690912206892B01F58091950607
:1032F00091E0811190E020919606820F211190E0DB
:1033000020919706820F211190E020919806820F5C
:10331000211190E020919906820F211102C0911194
:1033200005C090919A06891709F4D0C0109236060C
:103330001092350610923706109238061092300619
:1033400010922206109221061092940610922006E6
:1033500010921F0686E090E090931E0680931D0653
:1033600080912D0690912E06A0CE20912B063091B3
:103370002C06E0913506F0913606E170FF27EE0F3E
:10338000FF1FEF5CF94F2C30310530F521E030E0C4
:10339000A9010090370602C0440F551F0A94E2F7B6
:1033A00020813181242B352B31832083909130066D
:1033B0004DCF83E08093940674CE8091A10687FD63
:1033C00092C088EA90E090931E0680931D0680913B
:1033D0002D0690912E0669CE21E030E00090370650
:1033E00002C0220F331F0A94E2F7209530954081E6
:1033F0005181242335233183208326CF4C53510917
:103400004D33510508F051CE40912B0650912C06BA
:10341000445051094531510508F047CE273009F095
:1034200044CE21E035CFC0911F06D0912006CB5667
:10343000D94F00913106109132067801FF24802F78
:103440000E94C021811162C080E092E08E299F29F4
:103450000817190709F45DC000913306109134066E
:103460007801FF24802F0E94C021882309F465C0C1
:1034700080E093E08E299F290817190709F460C09E
:1034800087E7888380912106909122060196909388
:1034900022068093210640911F06509120068091BC
:1034A0001D0690911E068417950728F52091350674
:1034B000309136062F5F3F4F309336062093350606
:1034C00004CF209137062111BCCE93CE809199066E
:1034D0008F708F3011F181E08093940680912D06DA
:1034E00090912E06E2CD82E08093940680912D0685
:1034F00090912E06DACD4F5F5F4F50932006409398
:103500001F062091350630913606D5CE80E090E03A
:103510009DCF809131068883BECF80919506807FB4
:103520008038C9F68FE090E090931E0680931D06C8
:1035300080912D0690912E06B8CD80E091E09ACF33
:10354000809133068883A7CF0F931F93CF93DF9388
:1035500080914E06811105C0DF91CF911F910F918F
:10356000089590911B0691111FC0209138062230BA
:1035700008F47DC010921C062F5F263008F44DC061
:1035800010923806209137062F5F233008F484C04C
:1035900010923706982F80E090931B06DF91CF9111
:1035A0001F910F910C94CB2B80911A06811139C079
:1035B0009091380681E0923008F080E080931C06FC
:1035C0009F5F943000F110923806909137069F5F0C
:1035D000973008F455C01092370681E080931A06A0
:1035E00080919506C82FD0E00E94C02181114BC068
:1035F00080E092E08C2B9D2B9093320680933106D5
:1036000080911C06CBCF9093380610921A06DF915A
:10361000CF911F910F910C94CB2B80E02093380613
:10362000BBCF20913706422F50E043505109909173
:10363000380657FD2BC0923090F0943058F561E079
:1036400070E002C0660F771F4A95E2F7409131069D
:10365000509132064623572381E0452BD9F48093BD
:103660001C069F5F9630E0F49093380697CF309118
:10367000370631117FCF31E030931C062F5FCECF5C
:1036800090933706C2CF80E090E0B4CF211102C002
:10369000923028F380E0E3CF2093370680E07CCFA0
:1036A000109238062F5F2D3018F42093370676CF0E
:1036B00010923706C0913506D09136062196D093E8
:1036C0003606C09335062091550630915606C2172E
:1036D000D307D8F0109236061092350610921A06CB
:1036E00010921B060E94CB2B10924E0610923606AB
:1036F00010923506109237061092380680E0DF915E
:10370000CF911F910F910C94CB2BFE01F695E7956D
:10371000EB56F94F8081082F10E00E94C021C0FFB6
:103720000DC0882381F080E093E0802B912B909353
:1037300032068093310680911C0630CF811106C07D
:1037400080E092E0F2CF80E091E0EFCF80E090E087
:10375000ECCFCF93DF93FC0190818181980F828120
:10376000980F8381980F8481890F95818913C6C131
:10377000880F613009F4C6C19681980F2781920F96
:103780002085920F2185920F8285980F8385980F4F
:103790008485980F8585980F86859813AFC1990FFA
:1037A000623009F4AFC127858089280F8189280FED
:1037B0008289280F8389280F8489280F8589280FFB
:1037C0008689280F920F8789981398C1208D818D43
:1037D000820F228D820F238D820F248D820F258DE3
:1037E000820F268D820F378D830F890F292F280F87
:1037F00080A1281383C191A182A1890F93A1890F70
:1038000094A1890F95A1890F96A1890F97A1890F7E
:1038100090A5890F820F982F920F81A598136EC1E2
:1038200022A583A5820F24A5820F25A5820F26A598
:10383000820F27A5820F20A9820F21A9820F890F4D
:10384000890F92A989135AC124A993A9920F25A976
:10385000920F26A9920F27A9920F20AD920F21ADAA
:10386000920F22AD920F980F890F23AD281346C1F6
:1038700095AD84AD890F96AD890F97AD890FDF01A6
:10388000A05CBF4F9C91890F11969C91890F119656
:103890009C91890F11969C91890F820F820F11962E
:1038A0009C9198132BC112962C9111979C91920F79
:1038B00012962C91920F11962C91920F11962C9199
:1038C000920F11962C91920F11962C91920F1196A6
:1038D0002C91920F980F890F11964C9148130EC19D
:1038E00012969C9111978C91890F12969C91890F39
:1038F00011969C91890F11969C91890F11969C911C
:10390000890F11969C91890F11969C91890F840FB4
:10391000480F11969C919413F1C011968C911196B9
:103920004C91840F11964C91840F11964C91840FF9
:1039300011964C91840F11964C91840F11964C91D5
:10394000840F11964C91840F890F292F280F1196FF
:103950008C912813D3C011969C9111968C91890F4C
:1039600011969C91890F11969C91890F11969C91AB
:10397000890F11969C91890F11969C91890F119630
:103980009C91890F820F922F980F11968C9198130A
:10399000B5C011963C9111968C91380F11968C916F
:1039A000380F11968C91380F11968C91380F119613
:1039B0008C91380F11968C91380F11968C91380F8D
:1039C000390F892F830F11969C91891397C01196F7
:1039D0002C9111969C91290F11969C91290F11966B
:1039E0009C91290F11969C91290F11969C91290F5A
:1039F00011969C91290F11969C91290F280F382F11
:103A0000320F11968C91381379C011969C911196B2
:103A10008C91980F11968C91980F11968C91980F0C
:103A200011968C91980F11968C91980F11968C91FC
:103A3000980F11968C91980F930F232F290F1196A1
:103A40008C9128135BC011969C9111968C91890FD3
:103A500011969C91890F11969C91890F11969C91BA
:103A6000890F11969C91890F11969C91890F11963F
:103A70009C91890F820F922F980F11968C91981319
:103A80003DC011962C9111968C91820F11962C911C
:103A9000820F11962C91820F11962C91820F119604
:103AA0002C91820F11962C91820F11962C91820FDE
:103AB000890F890F11969C91891320C0EF01CA5676
:103AC000DF4F129628819C91920F11962C91920FA4
:103AD00011962C91920F11962C91920F11962C9178
:103AE000920F11962C91920F11962C91920F980F84
:103AF000980FE256FF4F81E02081921380E0DF9122
:103B0000CF91089581E0DF91CF910895CF93DF9316
:103B1000FC0190818181980F8281980F8381980F99
:103B20008481890F8583880F613009F49EC1968155
:103B3000980F2781920F2085920F2185920F828501
:103B4000980F8385980F8485980F8585980F9687A1
:103B5000990F623009F489C137858089380F8189CE
:103B6000380F8289380F8389380F8489380F858907
:103B7000380F8689380F390F378B908D818D890FDB
:103B8000928D890F938D890F948D890F958D890F53
:103B9000968D890F478D840F830F932F980F90A3D5
:103BA00031A182A1380F83A1380F84A1380F85A1DC
:103BB000380F86A1380F87A1380F80A5380F390F2D
:103BC000832F890F81A722A593A5290F94A5290FDB
:103BD00095A5290F96A5290F97A5290F90A9290F1B
:103BE00091A9290F280F322F380F32AB93A984A93E
:103BF000980F85A9980F86A9980F87A9980F80AD6F
:103C0000980F81AD980F82AD980F930F292F230F36
:103C100023AF95AD84AD890F96AD890F97AD890F10
:103C2000DF01A05CBF4F9C91890F11969C91890F79
:103C300011969C91890F11969C91890F820F982F54
:103C4000920F11969C93EF01CA5BDF4F119628816A
:103C50008C91820F12962C91820F11962C91820FCB
:103C600011962C91820F11962C91820F11962C9106
:103C7000820F11962C91820F890F890F11968C93C8
:103C80002996119628819C91920F12962C91920F51
:103C900011962C91920F11962C91920F11962C91B6
:103CA000920F11962C91920F11962C91920F980FC2
:103CB000890F11968C932996119628819C91920FC9
:103CC00012962C91920F11962C91920F11962C9185
:103CD000920F11962C91920F11962C91920F119692
:103CE0002C91920F980F890F11968C93289612960B
:103CF00028819C91920F11962C91920F11962C91E4
:103D0000920F11962C91920F11962C91920F119661
:103D10002C91920F11962C91920F980F890F11965A
:103D20008C932996129628819C91920F11962C9132
:103D3000920F11962C91920F11962C91920F119631
:103D40002C91920F11962C91920F11962C91920F0B
:103D5000980F890F11968C932996129628819C9121
:103D6000920F11962C91920F11962C91920F119601
:103D70002C91920F11962C91920F11962C91920FDB
:103D800011962C91920F980F890F11968C9329966A
:103D9000129628819C91920F11962C91920F119658
:103DA0002C91920F11962C91920F11962C91920FAB
:103DB00011962C91920F11962C91920F980F282FFB
:103DC000290F11962C932996129698818C91890F20
:103DD00011969C91890F11969C91890F11969C9137
:103DE000890F11969C91890F11969C91890F1196BC
:103DF0009C91890F820F280F11962C932996129669
:103E000098818C91890F11969C91890F11969C91A4
:103E1000890F11969C91890F11969C91890F11968B
:103E20009C91890F11969C91890F820F820F119698
:103E30008C932996129628819C91920F11962C9121
:103E4000920F11962C91920F11962C91920F119620
:103E50002C91920F11962C91920F11962C91920FFA
:103E6000980FE256FF4F890F8083DF91CF9108951D
:103E70000F931F93CF93DF93EC01162F0E946826B8
:103E80008EEF810F823028F0DF91CF911F910F913B
:103E900008952696123039F160E002E110E0809139
:103EA000E5078530C8F0C801880F991F880F991F52
:103EB000880F991F080F191F0C0F1D1F69E070E074
:103EC000CE010E94742B2996C017D107B9F7DF9154
:103ED000CF911F910F910895CE01DF91CF911F9146
:103EE0000F910C947D2661E001E010E0D8CFCF93D4
:103EF000DF93FC01DC01169688E0ED0119928A95AA
:103F0000E9F79FEF97878FE0808B918B828B938B64
:103F1000848B958B868B908F818F928F838F948FDC
:103F2000858F968F878F91A382A393A384A395A354
:103F300086A397A380A792A783A794A785A796A7F0
:103F400087A790AB81AB93AB84AB95AB86AB97ABBC
:103F500080AF91AF82AF94AF85AF96AF87AFDA965F
:103F60009C9311968C9311969C9311968C93129618
:103F70009C9311968C93119712969C93129713967B
:103F80008C93139714969C93149715968C9315976E
:103F900016969C93169717968C93179719969C9341
:103FA00011968C93119712969C93129713968C935B
:103FB000139714969C93149715968C9315971696B1
:103FC0009C93169717968C93179719969C93119616
:103FD0008C93119712969C93129713968C93139728
:103FE00014969C93149715968C93159716969C93FC
:103FF000169717968C93179719969C9311968C93F6
:10400000119712969C93129713968C93139714966C
:104010009C93149715968C93159716969C931697C8
:1040200017968C93179719969C9311968C931197CA
:1040300012969C93129713968C93139714969C93B5
:10404000149715968C93159716969C93169717961A
:104050008C93179719969C9311968C93119712969F
:104060009C93129713968C93139714969C93149782
:1040700015968C93159716969C93169717968C9376
:10408000179719969C9311968C93119712969C935F
:10409000129713968C93139714969C9314971596D6
:1040A0008C93159716969C93169717968C93179743
:1040B00019969C9311968C93119712969C93129734
:1040C00013968C93139714969C93149715968C9330
:1040D000159716969C93169717968C931797199683
:1040E0009C9311968C93119712969C93129713960A
:1040F0008C93139714969C93149715968C931597FD
:1041000016969C93169717968C93EA56FF4F9083BA
:104110008183928383839483858396838783DF91CE
:10412000CF910895DF92EF92FF920F931F93CF9359
:10413000DF9300D000D0CDB7DEB78C01D62E80E063
:1041400090E00E941B2E69837A838B839C83CE012F
:1041500001960E942C2E7C01FC0180810E94CE21C0
:10416000F8018683F70181810E94CE21F8018783BF
:10417000F70182810E94CE21F8018087F7018381B7
:104180000E94CE21F8018287F70185818F5F0E940E
:10419000CE21F8018387DD2051F187E820E8F7017F
:1041A0009481992311F0892F822BF801848781E073
:1041B00090E0F701048002C0880F991F0A94E2F78B
:1041C000F8018187F70182859385F801892B91F4A5
:1041D00085858B7F85870F900F900F900F90DF91D3
:1041E000CF911F910F91FF90EF90DF90089587E09E
:1041F00020E0D5CF858584608587EDCFFC0140FF29
:1042000005C0858560FF59C081608587942F96958C
:10421000262F269590FF05C0858520FF4BC0826024
:1042200085879695269590FF05C0858520FF3FC020
:10423000846085879695269590FF05C0858520FF2B
:1042400033C0886085879695269590FF05C0858543
:1042500020FF27C0806185879695269590FF05C031
:10426000858520FF1BC0806285879695269590FFE7
:1042700005C0858520FF0FC08064858796952695AB
:10428000992341F08585222319F080688587089558
:104290008F77858708958F7B8587F0CF8F7D858782
:1042A000E4CF8F7E8587D8CF877F8587CCCF8B7FE4
:1042B0008587C0CF8D7F8587B4CF8E7F8587A6CF3A
:1042C000CF93DF93EC01FB01808191819C8B8B8BE1
:1042D000828193819E8B8D8BDE015896349688E087
:1042E00001900D928A95E1F7DE019196FB013C96D3
:1042F00088E001900D928A95E1F7FB018489958908
:104300009BA78AA7868997899DA78CA7808D918D69
:10431000988B8F87828D938D9A8B898BDF91CF912C
:104320000895FB0120813181FC0137A726A7FB01FD
:1043300022813381FC0131AB20AB0895C3960C94EC
:104340009305FB01DC01A156BF4F1C922081119601
:104350002C93218111962C932281FC01EE55FF4F65
:104360002083319623E5208331961082319620E117
:104370002083319621E12083319625E02083089522
:10438000982F92959F708927982F969596958927B3
:10439000982F969589278095817008956AE070E03E
:1043A00090E00E9465319B0122953295307F322743
:1043B000207F32278F70822B08956AE070E090E0B2
:1043C0000E946531AC016930710549F0262F2295B4
:1043D000207F4930510539F08F70822B089520EFEE
:1043E00049305105C9F78FE0822B0895809142062C
:1043F000089580914206811101C0089582E0809362
:10440000480680914706807F83608093470683E457
:1044100096E00E94A02504C083E496E00E94A025B7
:1044200061E083E496E00E9404058111F5CF89EBF9
:1044300093E00E94FF2710924006109241061092CE
:10444000420680E00C94F6170F931F93CF938C01D4
:1044500080914206882361F182E080934806809132
:104460004706807F83608093470683E496E00E943E
:10447000A02504C083E496E00E94A02561E083E4C7
:1044800096E00E940405C82F8111F4CF89EB93E0D8
:104490000E94FF2710924006109241061092420699
:1044A00080E00E94F6178C2FCF911F910F910895F5
:1044B0000E94D52BC82F81114DC0F8018081807FCB
:1044C0008038A1F184818F70843009F449C085302F
:1044D00051F78AE080933F0689EE93E00E94FF2720
:1044E00086E0F801A3E4B6E001900D928A95E1F729
:1044F00081E0809342060E94F617809157069091C2
:104500005806A0915906B0915A064E96A11DB11DAC
:1045100080933B0690933C06A0933D06B0933E06E5
:10452000C1E08C2FCF911F910F910895F8018381E5
:104530008F7090E00897079708F0B5CF8481282FF7
:1045400022952F7030E0215031092730310508F4D1
:10455000BACFA9CF86EC93E00E94FF27C0E0A3CF9B
:1045600089E080933F06B8CFCF938091420688239D
:1045700021F080914E06882311F0CF9108950E947A
:10458000D52B811145C0C0E00E94D52B882329F08E
:1045900080913F068A3009F468C0809141068111FC
:1045A0003EC080914006811144C0C0934106C111B4
:1045B000B1C01092400680913B0690913C06A091BC
:1045C0003D06B0913E0640915706509158066091C5
:1045D000590670915A0684179507A607B70790F0F9
:1045E00040915706509158066091590670915A06AD
:1045F000415E5F4F6F4F7F4F481759076A077B0730
:1046000008F0BBCF809142068111A9C080E0B5CFF0
:10461000C1E080913F06893009F0B5CFB5CFC09396
:104620004106CC2309F453C080914006882309F445
:10463000A4CF1092400682E08093480680914706FE
:10464000807F83608093470683E496E00E94A025E4
:1046500004C083E496E00E94A02561E083E496E034
:104660000E9404058111F5CF88CFCC2309F491C0B5
:1046700080914206882351F282E08093480680911F
:104680004706807F83608093470683E496E00E941C
:10469000A02504C083E496E00E94A02561E083E4A5
:1046A00096E00E9404058111F5CF89EB93E00E940A
:1046B000FF2710924006109241061092420680E0B9
:1046C0000E94F61780E059CF10924106C1E082E0C7
:1046D0008093480680914706807F836080934706D9
:1046E00083E496E00E94A02504C083E496E00E9443
:1046F000A02561E083E496E00E9404058111F5CFD6
:1047000080914006882309F438CFC0934006C11138
:1047100034CF91CF1092480680914706807F896000
:104720008093470683E496E00E94A02561E083E43D
:1047300096E00E9404058091570690915806A0913A
:104740005906B0915A064E96A11DB11D80933B06A5
:1047500090933C06A0933D06B0933E060ECF82E0B8
:104760008093480680914706807F83608093470648
:1047700083E496E00E94A02504C083E496E00E94B2
:10478000A02561E083E496E00E9404058111F5CF45
:104790008CCF80914106811197CF8091400688236C
:1047A00021F081E080934006E8CE1092410681E03E
:1047B000809340061092480680914706807F8A6069
:1047C000AFCFFC0180819181A281B381B23C20F006
:1047D0008058924AA149B44BBC01CD016059794A35
:1047E0008D4E984D20E83AE349E050E00E9479313F
:1047F000DA01C901880F991FAA1FBB1F880F991FD3
:10480000AA1FBB1F880F991FAA1FBB1F821B930BD8
:10481000A40BB50BBC01CD01660F771F881F991F34
:10482000660F771F881F991F25EB35E040E050E0A9
:104830000E9479316835734018F480E19EE0089554
:1048400080E090E0089580E19EE00895FC01808181
:104850009181A281B381B23C20F08058924AA14953
:10486000B44BBC01CD016059794A8D4E984D20E87A
:104870003AE349E050E00E947931DA01C901880F3A
:10488000991FAA1FBB1F880F991FAA1FBB1F880F44
:10489000991FAA1FBB1F821B930BA40BB50BBC0156
:1048A000CD01660F771F881F991F660F771F881F1E
:1048B000991F25EB35E040E050E00E9479316835E2
:1048C000734018F480E19EE0089580E090E0089540
:1048D0000F931F93CF93DF9300D000D0CDB7DEB7F7
:1048E0008C0180E090E00E941B2E69837A838B8389
:1048F0009C83CE0101960E942C2EB8010E94153097
:1049000084E5F801828781E00F900F900F900F905F
:10491000DF91CF911F910F9108950F931F93CF9324
:10492000DF93CDB7DEB7A0970FB6F894DEBF0FBE0A
:10493000CDBFFC0101900020E9F79F01245131090E
:104940002817390761F080E0A0960FB6F894DEBF13
:104950000FBECDBFDF91CF911F910F910895BC0184
:1049600043E150E0CE0101960E94C3371C8A8E01BC
:104970000B5E1F4F8CE0F80111928A95E9F765EF05
:1049800073E0CE0101960E94A1370097E1F20E94E8
:104990007A378C5697409C8F8B8F65EF73E080E061
:1049A00090E00E94A137009771F20E947A378150FF
:1049B0008A8F67EF73E080E090E00E94A137009754
:1049C00011F20E947A37888F6BEF73E080E090E0FD
:1049D0000E94A137009709F4B6CF0E947A378F8BD7
:1049E0006BEF73E080E090E00E94A137009709F43C
:1049F000AACF0E947A378E8B6EE171E080E090E062
:104A00000E94A137009709F49ECF0E947A378D8BC0
:104A10008FEF9FEF98A38F8FC8010E94AA2E611578
:104A200071058105910509F48ECF22E020933D07A1
:104A30000E941C3181E088CFCF92DF92EF92FF92EB
:104A400020E030E041E655E46091D9077091DA0743
:104A50008091DB079091DC070E9467340E94E4326A
:104A60000E94253120E030E041E655E46091D10715
:104A70007091D2078091D3079091D4070E94673438
:104A80000E94E4326B017C0120E030E041E655E415
:104A90006091D5077091D6078091D7079091D8077C
:104AA0000E9467340E94E432A70196010E94992E69
:104AB0008091DD078230E1F0833091F0813041F068
:104AC00080E090E0FF90EF90DF90CF900C94172F54
:104AD00081EE93E2FF90EF90DF90CF900C94172F30
:104AE00083E294E2FF90EF90DF90CF900C94172F29
:104AF00086E294E2FF90EF90DF90CF900C94172F16
:104B0000FC01CB01AA27BB2780835183428322E18A
:104B1000238314822FEF25839927AA27BB2780326E
:104B20009105A105B10549F080399105A105B105AF
:104B300019F487E183830895089581E183830895BB
:104B4000FC013381932F92959F709F5F9F7041F07E
:104B5000292F2295207F932F9F70922B9383089566
:104B600020E1932F9F70922B938308950E94AF04AE
:104B70000E94B4220E942B1780919406882309F486
:104B800040C0809194068130B9F060F0843050F4D8
:104B90008DEF93E00E94FF276091940685E996E0EF
:104BA0000E94381F6091940685E996E00E94A91B37
:104BB000882309F10C94131885E0E5E9F6E0AEE8E6
:104BC000B6E001900D928A95E1F780E090E00E94B6
:104BD000B4128AEF93E00E94FF276091940685E962
:104BE00096E00E94381F6091940685E996E00E9445
:104BF000A91B8111DFCF83E194E00E94FF270C9471
:104C000013180895CF93DF9386E294E00E94FF2764
:104C100086E694E00E94FF27C9ECD7E0688179819D
:104C20008A819B8140E00E94AB2881E794E00E944A
:104C3000FF276C817D818E819F8140E00E947A29CF
:104C400082EE92E00E94FF2788E794E00E94FF270F
:104C5000688579858A859B8545E050E00E94CD294D
:104C60008AE894E00E94FF276C857D858E859F856C
:104C700045E050E00E94CD2985E994E00E94FF279D
:104C8000688979898A899B8942E050E00E94CD2910
:104C900082EE92E00E94FF2781EA94E0DF91CF91BB
:104CA0000C94FF270E941C254091C9075091CA0708
:104CB0006091CB077091CC078DE596E00E9480252E
:104CC0000E94022683E00E94F42B80E090E0089589
:104CD0000F931F93CF93DF93EC018C010A5F1F4F5B
:104CE00061E089910E943A28C017D107C9F7DF9186
:104CF000CF911F910F910C94F4278F929F92AF92B6
:104D0000BF92CF92DF92EF92FF920F931F93CF93B8
:104D1000DF93CDB7DEB760970FB6F894DEBF0FBE56
:104D2000CDBF6C01162F80E1E0E2F1E0DE011196CB
:104D300001900D928A95E1F78CEC94E00E94FF2798
:104D4000D60114968C910E94122B82ED94E00E9461
:104D5000FF27F60185810E94122B84ED94E00E94CA
:104D6000FF27D6011696EC91E770F0E0EE0FFF1FDB
:104D700081E090E08C0F9D1FE80FF91F80819181E9
:104D80000E94FF2785ED94E00E94FF27D60112962E
:104D90008C910E94122B8BEF93E00E94FF27F6016B
:104DA00081810E94122B8BEF93E00E94FF27D60196
:104DB0008C910E94122BF601878182FD78C00E949F
:104DC000F427111161C0D60117968C9187FD79C027
:104DD00080FD72C085E095E00E94FF275601F9E052
:104DE000AF0EB11C76018DE2E80EF11C450188E0A2
:104DF000880E911C8501D80111968C910E94122B6E
:104E00008BEF93E00E94FF27F80180810E94122B14
:104E100087EA91E00E94FF270E5F1F4F80169106E0
:104E200051F70E94F427F9E0AF0EB11CEA14FB041D
:104E3000E9F682E195E00E94FF27560199E9A90E63
:104E4000B11C670188E0C80ED11C8701D8011196FA
:104E50008C910E94122B8BEF93E00E94FF27F801A8
:104E600080810E94122B87EA91E00E94FF270E5F4B
:104E70001F4F0C151D0551F70E94F427F9E0EF0EA6
:104E8000F11CEA14FB04E9F660960FB6F894DEBF55
:104E90000FBECDBFDF91CF911F910F91FF90EF908B
:104EA000DF90CF90BF90AF909F908F90089588ED46
:104EB00094E00E94FF2783CF82EF94E00E94FF27B7
:104EC00089CF8DED94E00E94FF27F601878180CF86
:104ED0000F931F93CF93DF9300D01F92CDB7DEB710
:104EE000182F40E1BE016F5F7F4F90E00E94F937BD
:104EF000107FE1F1AFE3B5E08C91E0914207F091D2
:104F000043078823D1F1309789F08D010F5F1F4F40
:104F10000995019671F1F80181918F01882349F17A
:104F2000E0914207F0914307309791F78981811111
:104F300015C0E0E0F0E0309789F008EA11E08CE27B
:104F40000995019659F0F80181918F01882331F07C
:104F5000E0914207F0914307309791F70F900F903F
:104F60000F90DF91CF911F910F910895ABE3B5E0C2
:104F7000C3CFE0914207F091430789818823D9F29A
:104F8000309761F38E010E5F1F4F0995019699F0DE
:104F9000F80181918F01882371F0E0914207F0912F
:104FA0004307309791F70F900F900F90DF91CF91BB
:104FB0001F910F910895E0914207F0914307BBCFF5
:104FC000E0914207F0914307309709F009948FEF81
:104FD0009FEF0895E0914007F0914107309709F065
:104FE00009948FEF9FEF0895E0914207F0914307F6
:104FF000309711F08AE009948FEF9FEF0895CF93D7
:10500000DF93EC0188818823C1F0E0914207F091A1
:105010004307309769F021960995019649F08991E7
:10502000882359F0E0914207F09143073097A1F7A8
:105030008FEF9FEFDF91CF91089580E090E0DF91B7
:10504000CF910895CF93DF93EC01FE0184918823E3
:1050500061F0E0914207F0914307309709F009951C
:105060002196FE0184918111F4CF80E090E0DF91E0
:10507000CF910895FF920F931F93CF93DF9300D0AA
:105080001F92CDB7DEB7182FF62E40E1BE016F5F3D
:105090007F4F90E00E94F937107F09F059C0ABE3D1
:1050A000B5E08C918823C9F1E0914207F091430764
:1050B000309789F08D010F5F1F4F0995019669F1B7
:1050C000F80181918F01882341F1E0914207F0912D
:1050D0004307309791F7FF20B9F0E0914207F09134
:1050E0004307309789F008EA11E08CE209950196B0
:1050F00059F0F80181918F01882331F0E091420746
:10510000F0914307309791F70F900F900F90DF9138
:10511000CF911F910F91FF90089589818823D9F233
:10512000E0914207F09143073097A9F28E010E5F9C
:105130001F4F0995019679F2F80181918F0188231B
:1051400051F2E0914207F0914307309791F7C3CFB6
:10515000AFE3B5E0A6CF8F929F92AF92BF92FF923E
:105160000F931F93CF93DF93CDB7DEB72A970FB678
:10517000F894DEBF0FBECDBF4B015C01F42E20E1E1
:10518000AE014F5F5F4F0E940F38D501C401807F91
:10519000892B8A2B8B2BD9F1D501C4018827892B28
:1051A0008A2B8B2B09F494C0D501C4018827907FEA
:1051B000892B8A2B8B2B09F48EC0D501C40188273B
:1051C0009927892B8A2B8B2B09F488C0D501C40120
:1051D00088279927A07F892B8A2B8B2B09F481C0E4
:1051E000D501C40188279927AA27892B8A2B8B2BC5
:1051F00009F47AC088249924AA2420EFB2228928AD
:105200008A288B2809F473C0AFE3B5E002C0A6E595
:10521000B5E08C91882309F440C0E0914207F091F9
:105220004307309789F08D010F5F1F4F0995019655
:10523000A1F1F80181918F01882379F1E091420772
:10524000F0914307309791F7FF20B9F0E0914207C2
:10525000F0914307309789F008EA11E08CE2099554
:10526000019659F0F80181918F01882331F0E09186
:105270004207F0914307309791F72A960FB6F894BA
:10528000DEBF0FBECDBFDF91CF911F910F91FF9079
:10529000BF90AF909F908F90089589818823A1F24D
:1052A000E0914207F0914307309771F28E010E5F53
:1052B0001F4F0995019641F2F80181918F018823D2
:1052C00019F2E0914207F0914307309791F7BCCF74
:1052D000ADE4B5E09ECFA7E6B5E09BCFA0E6B5E094
:1052E00098CFA7E4B5E095CFA2E4B5E092CFABE3C9
:1052F000B5E08FCFFF920F931F93CF93DF93CDB77E
:10530000DEB72C970FB6F894DEBF0FBECDBFF42EDC
:105310002AE0AE014F5F5F4F0E940F3889818823DA
:10532000B9F0E0914207F0914307309789F08E0180
:105330000E5F1F4F0995019659F0F80181918F0179
:10534000882331F0E0914207F0914307309791F7BD
:10535000FF20B9F0E0914207F0914307309789F0C0
:1053600008EA11E08CE20995019659F0F801819163
:105370008F01882331F0E0914207F0914307309785
:1053800091F72C960FB6F894DEBF0FBECDBFDF911C
:10539000CF911F910F91FF9008952F923F924F92BE
:1053A0005F926F927F928F929F92AF92BF92CF92B5
:1053B000DF92EF92FF920F931F93CF93DF93CDB7BE
:1053C000DEB72C970FB6F894DEBF0FBECDBF4B01F2
:1053D0005C018A010E94E4322B013C011B014AE07E
:1053E000BE016F5F7F4FC2010E94F937DC018C91D3
:1053F000E0914207F0914307882309F495C0309764
:10540000A1F07D012FEFE21AF20A0995019609F445
:1054100087C0F70181917F01882309F481C0E09161
:105420004207F0914307309781F7B201550C880B82
:10543000990B0E941C339B01AC01C501B4010E9471
:1054400000326B017C0137FC75C020E030E040E8A1
:105450005FE361E070E080E090E0101611060CF56B
:1054600020E030E0DC01CB01880F991FAA1FBB1F91
:105470002C013D01440C551C661C771C440C551C2A
:10548000661C771CBC01CD01640D751D861D971D22
:105490002F5F3F4F0217130729F70E941C339B0110
:1054A000AC01C701B6010E9467340E94EB322AE0CA
:1054B000AE014F5F5F4F0E940F3889818823B9F09A
:1054C000E0914207F0914307309789F08E010E5F1B
:1054D0001F4F0995019659F0F80181918F0188239A
:1054E00031F0E0914207F0914307309791F72C9605
:1054F0000FB6F894DEBF0FBECDBFDF91CF911F91E5
:105500000F91FF90EF90DF90CF90BF90AF909F9062
:105510008F907F906F905F904F903F902F90089565
:10552000E0914207F0914307309709F47ECF8EE275
:1055300009957BCF20E030E040E85FEB6FEF7FEF35
:10554000CB018BCF0F931F93CF93DF93CDB7DEB7F4
:105550002D970FB6F894DEBF0FBECDBF9A01AE01F6
:105560004F5F5F4F0E940438DC018C918823B9F0B3
:10557000E0914207F0914307309789F08D010F5F6A
:105580001F4F0995019659F0F80181918F018823E9
:1055900031F0E0914207F0914307309791F72D9653
:1055A0000FB6F894DEBF0FBECDBFDF91CF911F9134
:1055B0000F9108950F931F93CF93DF93CDB7DEB76D
:1055C0002A970FB6F894DEBF0FBECDBF4AE0BE01EA
:1055D0006F5F7F4F0E94F937DC018C918823B9F00F
:1055E000E0914207F0914307309789F08D010F5FFA
:1055F0001F4F0995019659F0F80181918F01882379
:1056000031F0E0914207F0914307309791F72A96E5
:105610000FB6F894DEBF0FBECDBFDF91CF911F91C3
:105620000F910895FF920F931F93CF93DF93CDB700
:10563000DEB72A970FB6F894DEBF0FBECDBFF82EA7
:1056400082958F7040E1BE016F5F7F4F90E00E94B6
:10565000F937DC018C918823B9F0E0914207F09191
:105660004307309789F08D010F5F1F4F0995019611
:1056700059F0F80181918F01882331F0E0914207C0
:10568000F0914307309791F78F2D8F7040E1BE0165
:105690006F5F7F4F90E00E94F937DC018C91882387
:1056A000B9F0E0914207F0914307309789F08D01FE
:1056B0000F5F1F4F0995019659F0F80181918F01F5
:1056C000882331F0E0914207F0914307309791F73A
:1056D0002A960FB6F894DEBF0FBECDBFDF91CF91F3
:1056E0001F910F91FF9008950F931F93CF93DF9316
:1056F0001616170654F4EC018C01060F171F89913A
:105700000E946827C017D107D1F7E0914207F091B6
:105710004307309731F08AE0DF91CF911F910F91CD
:105720000994DF91CF911F910F9108950E94B62B9C
:105730000E94D12B6091CD077091CE078091CF0749
:105740009091D0070E94702C0E94532D8AE19CE218
:1057500090934307809342078EE49CE29093410725
:10576000809340070E940C2E7894089541E450E005
:1057700064E070E089EC97E00C94753841E450E007
:1057800064E070E089EC97E00C94853889B182FB85
:10579000882780F90895811102C02B9808952B9ACB
:1057A00008955298239A2B98089580E008950E94B6
:1057B000962B8FE695E00E94FF270E94522683B722
:1057C000816083BF889583B78E7F83BF0E94B62593
:1057D000F6CF98E088E10FB6F894A8958093600022
:1057E0000FBE90936000FFCF579A579A569A482F52
:1057F00050E0440F551F90E012C05F9A5E9A5F9A86
:10580000292F30E024173507A4F42FEF34E38CE080
:10581000215030408040E1F700C000009F5F90FDC4
:10582000ECCF5F985E985F98292F30E024173507FA
:1058300064F3089520910C089091270830E02F5FC1
:105840003F4F29272F703327232B41F493B79160C3
:1058500093BF889593B79E7F93BFECCF20910C08A0
:105860009091270830E02F5F3F4F29272F70332773
:10587000232B89F090910C089F5F90930C08E09186
:105880000C08EF70F0E0EA5EF74F80838091C10072
:1058900080628093C10080E090E0089590910A08B2
:1058A00080910B0889278770C1F090910A08809138
:1058B0000B088927877019F480E090E008958091A3
:1058C0000B088F5F80930B08E0910B08E770F0E006
:1058D000E25FF74F808190E008958FEF9FEF08958A
:1058E0004F925F926F927F928F929F92AF92BF92F0
:1058F000CF92DF92EF92FF920F931F93CF93DF939C
:1059000000D000D000D0CDB7DEB72B013C016B0139
:105910007C01CC0CDD1CEE1CFF1CCC0CDD1CEE1C39
:10592000FF1CCC0CDD1CEE1CFF1C812C54E2952EC0
:1059300054EFA52EB12CC501B401A70196010E9418
:10594000793129833A834B835C8389819A810197DA
:105950009E838D8391E4491692E459069FE069067F
:10596000710408F070C0A7019601220F331F441F75
:10597000551FC501B4010E94793169017A01229550
:105980003295307F3227207F322740E050E0C5013A
:10599000B4010E947931CA01B901A30192010E94A8
:1059A000793111E0012F021B89819A81880F991F9B
:1059B000880F991F880F991F9C0140E050E0C50196
:1059C000B4010E947931CA01B901A30192010E9478
:1059D0007931121B101758F191E0C91AD108C09201
:1059E000C400D092C5008091C0008D7F8093C0001C
:1059F00088E18093C1001092C00086E08093C200CD
:105A000026960FB6F894DEBF0FBECDBFDF91CF91C3
:105A10001F910F91FF90EF90DF90CF90BF90AF90CC
:105A20009F908F907F906F905F904F9008959D8191
:105A30009093C4008E818093C5008091C0008260E5
:105A40008093C000D5CF8093C400F4CF1F920F92F3
:105A50000FB60F9211248F939F93EF93FF93909122
:105A60000C088091270889278F70B9F0809127084A
:105A70008F5F80932708E0912708EF70F0E0EA5EDF
:105A8000F74F80818093C600FF91EF919F918F9196
:105A90000F900FBE0F901F9018958091C1008F7DC1
:105AA0008093C100F1CFE1ECF0E0808180688083D9
:105AB00008951F920F920FB60F9211242F938F9378
:105AC0009F93EF93FF9380910A0820910B0890E039
:105AD0000196822787709927892BC1F080910A0847
