:100000000C94B3030C94DC030C94DC030C94DC031D
:100010000C94DC030C94DC030C94DC030C94DC03E4
:100020000C94DC030C94DC030C94DC030C94172874
:100030000C94DC030C94DC030C94DC030C94DC03C4
:100040000C94DC030C94DC030C94DB270C94A827A1
:100050000C94DC030C94DC030C94DC030C94DC03A4
:100060000C94DC030C94DC03072C7AA5BA6CC590C5
:10007000DA3B9365FC8BBC53F810FD3C5692834DE4
:10008000BD879D3AB63DCBC9BF5BBE73DA0FC93F92
:1000900005A84CCDB2D44EB93836A9020C50B9914E
:1000A0008688083CA6AAAA2ABE000000803F737971
:1000B0006E7461783A20636F6D6D616E64206F704D
:1000C00074696F6E3D76616C7565202E2E2E3B0A2D
:1000D000636F6D6D616E6473206172653A200074A8
:1000E000797065202768656C7020636F6D6D616E37
:1000F000643B2720206F72202768656C7020616C3C
:100100006C3B270A636F6D6D616E6473206172656D
:100110003A20006461696C793D5420202020202021
:100120002020656E61626C6573206461696C792062
:1001300074696D65722E20542069732075702F6468
:100140006F776E206C696B6520303733302D206FF0
:1001500072203037333032303030206F72202D3201
:100160003030302020666F722075702030373A337F
:100170003020616E642F6F7220646F776E20323092
:100180003A30300A7765656B6C793D545454545459
:10019000545420656E61626C6573207765656B6C85
:1001A000792074696D65722E2054206C696B65200E
:1001B0007769746820276461696C7927206F7220E1
:1001C000272B2720746F20636F7079207468652057
:1001D00054206F6E20746865206C6566742E20282C
:1001E0007765656B6C793D303733302D2B2B2B2B9E
:1001F000303930302D2B290A617374726F5B3D4E9C
:100200005D202020202020656E61626C6573206176
:100210007374726F206175746F6D617469632E20E1
:100220004E20697320746865206F6666736574205C
:10023000746F20636976696C206475736B20696ED6
:10024000206D696E757465732E2043616E20626542
:1002500020706F7374697665206F72206E656761B8
:10026000746976652E0A73756E2D6175746F202022
:100270002020202020656E61626C65732073756E8E
:10028000206175746F6D617469630A72616E646F69
:100290006D202020202020202020656E61626C656A
:1002A000732072616E646F6D206175746F6D61741F
:1002B00069632E2073687574746572206F70656E43
:1002C0007320616E6420636C6F73657320617420AA
:1002D00072616E646F6D2074696D65732E0A72743D
:1002E000632D6F6E6C7920202020202020646F6E9B
:1002F0002774206368616E67652074696D65727329
:100300002E206F6E6C792075706461746520696E43
:100310007465726E616C207265616C2074696D65C4
:1003200020636C6F636B0A612C206720616E642010
:100330006D3A202020206C696B6520696E20736502
:100340006E6420636F6D6D616E640A72733D283058
:100350007C317C322920202020207265616420625B
:1003600061636B2073617665642074696D657220CA
:10037000646174612E2069662073657420746F2037
:10038000322C2072657475726E20616E7920646102
:100390007461206D61746368696E67206720616EA7
:1003A00064206D20652E672E206D3D302028616E03
:1003B00079206D656D6265722920696E737465615F
:1003C00064206F66206D3D320A007072696E743D64
:1003D000287274637C6375290A0063753D2849445B
:1003E0007C6175746F292020202020362D64696778
:1003F000697420686578204944206F662043656EE3
:100400007472616C2D556E69742E206175746F3A2B
:10041000206361707475726520494420776974683F
:1004200020636F6E6E65637465642052462072654A
:100430006365697665720A7274633D49534F5F5410
:10044000494D452020202020287274633D323031F0
:10045000372D31322D33315432333A35393A35393B
:10046000290A626175643D4E202020202020202032
:1004700020202073657269616C206261756420724E
:100480006174652028626175643D333834303029E9
:100490000A6C6F6E6769747564653D4445430A6C08
:1004A000617469747564653D4445430A74696D659A
:1004B0002D7A6F6E653D4E2020202020202065780B
:1004C000616D706C653A20636F6E66696720206CA1
:1004D0006F6E6769747564653D2D31332E32333428
:1004E0003532206C617469747564653D2B35322E2C
:1004F00033343233342074696D652D7A6F6E653D07
:100500002B312E303B0A6473743D2865757C307C3A
:1005100031292020202020206461796C696768746B
:1005200020736176696E672074696D653A20617524
:10053000746F6D617469633A2065753D6575726F9E
:1005400070652E206D616E75616C6C793A20303D5E
:100550006F66662C20313D6F6E0A766572626F732E
:10056000653D28302E2E35292020202073657420EB
:1005700074657874206F7574707574207665726216
:100580006F73697479206C6576656C3A20302066EB
:100590006F72206E6F6E65202E2E2E203520666FB6
:1005A00072206D6178290A7365742D70773D7061D2
:1005B0007373776F726420202073657420612063E9
:1005C0006F6E6669672070617373776F72642E2037
:1005D00069662073657420657665727920636F6E35
:1005E00066696720636F6D6D616E6473206E65650B
:1005F000647320746865207077206F7074696F6E03
:100600000A70773D505720202020202020202020D5
:100610002020206578616D706C653A20636F6E668E
:1006200069672070773D6D795F70617373772064BF
:1006300073743D65753B0A72657374617274202032
:100640002020202020202020207265737461727485
:10065000204D43550A00613D28307C494429202023
:100660002020686578204944206F662073656E6499
:100670006572206F722072656365697665722E20DF
:1006800030202864656661756C7429207573657304
:10069000202763752720696E20636F6E6669670A7D
:1006A000673D5B302D375D202020202067726F75FD
:1006B00070206E756D6265722E203020286465662C
:1006C00061756C742920616464726573736573204D
:1006D000616C6C2067726F7570730A6D3D5B302DB5
:1006E000375D202020202067726F7570206D656D4A
:1006F0006265722E2030202864656661756C7429ED
:100700002061646472657373657320616C6C206D25
:10071000656D626572730A633D636F6D6D616E64D2
:10072000202020436F6D6D616E6420746F207365AF
:100730006E642E204F6E65206F663A2075702C20F7
:10074000646F776E2C2073746F702C2073756E2D10
:10075000646F776E2C2073756E2D696E73742C2008
:100760007365740A000011241FBECFEFD8E0DEBF0E
:10077000CDBF14BE0FB6F894A89580916000886133
:1007800080936000109260000FBE15E0A0E0B1E021
:10079000E2E6F6E602C005900D92A836B107D9F759
:1007A00028E0A8E6B5E001C01D92A731B207E1F745
:1007B0000E9459260C942F330C9400008F938FB70E
:1007C0008F93F8948091FB078F5F8093FB07809154
:1007D000FC078F4F8093FC078091FD078F4F80931C
:1007E000FD078091FE078F4F8093FE078F918FBF8B
:1007F0008F9108950F931F93CF93FC01909128063A
:10080000992331F0C0E08C2FCF911F910F91089563
:100810008F0181E00E945914C82F882399F385E045
:10082000F801A4E6B6E001900D928A95E1F761E047
:1008300084E696E00E94D3198091B407811111C01B
:100840008CE090E090932A068093290681E08093C3
:10085000280680E00E9459148C2FCF911F910F9190
:10086000089580E391E00E94832261E084E696E0AF
:100870000E94851BE5CF20912806222311F080E0FD
:100880000895FC0185E0A4E6B6E001900D928A95FA
:10089000E1F760917006661F6627661F83E0861B7E
:1008A000682F84E696E00E94D3198091B4078111E5
:1008B0000EC08091700687FD1BC080E591E090938B
:1008C0002A068093290681E080932806089580E314
:1008D00091E00E9483228091B407823098F063E017
:1008E00084E696E00E94851B8091700687FFE5CF25
:1008F0008EE190E090932A068093290681E0809310
:100900002806089561E0ECCF2F923F924F925F92BC
:100910006F927F928F929F92AF92BF92CF92DF920F
:10092000EF92FF920F931F93CF93DF93CDB7DEB774
:100930006A970FB6F894DEBF0FBECDBF8C01072EAD
:10094000000C880B990B0E94962D20E030E040E7C8
:1009500052E40E94EC2C6F8B788F898F9A8F0D8BCD
:100960001E8B85E391E09C8B8B8B8AEEC82E86E6EE
:10097000D82E8BEDE82E8DEBF82E85E89BEBACE0C6
:10098000BEEB8D879E87AF87B88B80ED9BEEAAE686
:10099000BFE389879A87AB87BC8786E693E7ABEC92
:1009A000BEEB8D839E83AF83B887AB89BC892D88CE
:1009B0003E8898E0290E311CBA8BA98B0D891E89BF
:1009C0002BED3FE049E450E46091A4077091A50746
:1009D0008091A6079091A7070E94DC2E20E030E0CE
:1009E00044E353E40E94EC2C4B015C010E94492F2C
:1009F0002B013C01C501B4010E94E72C4B015C01B5
:100A00002D813E814F815885C301B2010E94DC2EA9
:100A10009B01AC0165E073E186ED9DEB0E947A2CB1
:100A20002B013C0129853A854B855C85C501B401C4
:100A30000E94DC2E9B01AC01C301B2010E94EC2C90
:100A40000E94692C20E030E040E451E40E94DC2E5A
:100A50002BED3FE049E450E40E94EC2C20E030E034
:100A600040E451E40E947B2C4B015C0120EA3AE116
:100A70004FE25EEB6D857E858F8598890E94DC2E26
:100A80002B013C0121E834E045E05EE3C701B601FB
:100A90000E94DC2E9B01AC01C301B2010E947A2CA2
:100AA0009B01AC01C501B4010E947A2C6B017C0151
:100AB00020E030E040E751E46091A0077091A10789
:100AC0008091A2079091A3070E94EC2C9B01AC019E
:100AD000C701B6010E947B2C6B017C012091A80705
:100AE0003091A9074091AA075091AB076F89788D83
:100AF000898D9A8D0E947B2C9B01AC01C701B601A8
:100B00000E947B2CAE014F5F5F4F0E94A82E6B01AD
:100B10007C010F3FBFEF1B0759F069817A818B8100
:100B20009C810E94652D862F0E942A1EF8018183D8
:100B30000115110581F020E030E040E752E4C701E3
:100B4000B6010E94DC2E0E94652D862F8E7F0E94AA
:100B50002A1ED8018C930E5F1F4F0215130509F44E
:100B600059C0A989BA896D917D91BA8BA98B072E3D
:100B7000000C880B990B0E94962D6B017C0128E0DC
:100B80003CE240EA52E40E947A2C24E73EE74AE83D
:100B90005CE30E94DC2E0E94492F2CEF39EA41EDE4
:100BA0005EE30E94DC2E4B015C010E94492F6D83A5
:100BB0007E838F839887C501B4010E94E72C6987E3
:100BC0007A878B879C8723E039E04AE05DE3C701A1
:100BD000B6010E94DC2E2BE734E14EEE5EE30E946C
:100BE0007B2C0E94492F6D877E878F87988B2BE106
:100BF00034E642E95CE3C701B6010E94DC2E21E342
:100C000038E04CE25EE30E947A2C0E94492F6B018F
:100C10007C01D6CEED89FE893996FE8BED8B8B89D2
:100C20009C89A1E08D389A0709F45CC0FC016681BB
:100C30007781072E000C880B990B0E94962D6B0173
:100C40007C0128E03CE240EA52E40E947A2C24E74E
:100C50003EE74AE85CE30E94DC2E0E94492F2CEF1D
:100C600039EA41ED5EE30E94DC2E4B015C010E94FB
:100C7000492F6D837E838F839887C501B4010E94BD
:100C8000E72C69877A878B879C8723E039E04AE0E5
:100C90005DE3C701B6010E94DC2E2BE734E14EEE86
:100CA0005EE30E947B2C0E94492F6D877E878F8791
:100CB000988B2BE134E642E95CE3C701B6010E9460
:100CC000DC2E21E338E04CE25EE30E947A2C0E94A5
:100CD000492F6B017C018B899C8908969C8B8B8B9F
:100CE000DC0165CE6A960FB6F894DEBF0FBECDBFAD
:100CF000DF91CF911F910F91FF90EF90DF90CF90F8
:100D0000BF90AF909F908F907F906F905F904F902B
:100D10003F902F9008958F929F92AF92BF92CF9263
:100D2000DF92EF92FF920F931F93CF93DF93CDB794
:100D3000DEB764970FB6F894DEBF0FBECDBF62304A
:100D400071050CF460C0FC01E480F580C680D7809A
:100D5000E114F10409F485C0C114D10409F481C07F
:100D60004B018C01AA24A394B12C25C069E971E040
:100D7000C6010E940B32892B09F448C06DE971E06D
:100D8000C6010E940B32892B09F44EC0FFEFAF1A47
:100D9000BF0A8A149B04B9F1F801E084F184C2848B
:100DA000D384E114F10409F45CC00C5F1F4FC1143B
:100DB000D10409F456C063E971E0C7010E940B3207
:100DC000892BA1F287EB91E00E94832280912B0670
:100DD00090912C06892BD9F58AE30E9464228FEB2F
:100DE00091E00E94832287EB94E00E948322C70156
:100DF0000E9483228AE00E946422FFEFAF1ABF0A9A
:100E00008A149B0449F680E090E02DC0CE01019643
:100E10000E94CA1E882309F4B9CFCE0101960E9410
:100E200083220E947822B2CF80EA91E00E9483223E
:100E3000609198077091990780919A0790919B070C
:100E400040E150E00E9426250E9478229FCF80E456
:100E50000E94642280912B0690912C060E945E25B0
:100E6000BBCF8FEF9FEF64960FB6F894DEBF0FBE37
:100E7000CDBFDF91CF911F910F91FF90EF90DF9049
:100E8000CF90BF90AF909F908F900895CF92DF92B8
:100E9000EF92FF920F931F93CF93DF936C017B012F
:100EA0006130710509F4D4C00CF499C001E010E080
:100EB00054C0BE0180910001909101010E940B324B
:100EC000892B09F4A5C0BE0180910601909107010C
:100ED0000E940B32892B09F4AFC0BE0180910C0136
:100EE00090910D010E940B32892B09F4A8C0BE011C
:100EF00080911201909113010E940B32892B09F409
:100F0000A1C0BE0180911801909119010E940B327D
:100F1000892B09F49AC087EB91E00E94832280918B
:100F20002B0690912C06892B09F068C08AE30E9459
:100F300064228FEB91E00E94832287EB94E00E9471
:100F40008322CE010E9483228AE00E9464220F5FE6
:100F50001F4F0E151F050CF042C0F801EE0FFF1FCA
:100F6000EE0FFF1FEC0DFD1DC081D1816AE072E024
:100F7000CE010E940B32892B09F09BCF8EEA90E0C4
:100F80000E94A622C0E0D1E08E01F801808191810B
:100F90000E94832287E092E00E9483220A5F1F4F13
:100FA000F1E00E311F0789F70E947822888199812C
:100FB0000E9483228EE092E00E9483228C819D8198
:100FC0000E94A6220E947822269681E0CE31D80780
:100FD00069F706E010E00E151F050CF4BECF8EEC8D
:100FE00091E00E94832280E090E0DF91CF911F91F9
:100FF0000F91FF90EF90DF90CF90089580E40E94D2
:10100000642280912B0690912C060E945E258ECF43
:1010100080E090E0FC01EE0FFF1FE80FF91FEE0FDC
:10102000FF1FE050FF4F848195810E94A6220E94FD
:1010300078220F5F1F4F8DCF81E090E0EBCF82E0F1
:1010400090E0E8CF83E090E0E5CF84E090E0E2CF6D
:101050008FED90E00E94A622C0E0D1E00EE111E009
:10106000888199810E94832287E092E00E948322F6
:1010700026960C171D07A1F70E947822B4CF3F9245
:101080004F925F926F927F928F929F92AF92BF9298
:10109000CF92DF92EF92FF920F931F93CF93DF9344
:1010A0003B01623071050CF4B5C1FC01048115816E
:1010B000E680F7800115110509F433C1EC01412CDC
:1010C000312C512C812C912C5401CC24C394D12C43
:1010D0001CC0E114F10409F4A4C040E150E060E058
:1010E00070E0C7010E94C02F4B015C01FFEFCF1AD7
:1010F000DF0A6C147D0431F1088519852496EE8091
:10110000FF800115110509F40CC169E172E0C80105
:101110000E940B32892BE9F26DEC73E0C8010E944A
:101120000B32892B09F068C0E114F10409F4C5C041
:10113000C7010E94CB31582EFFEFCF1ADF0A6C1483
:101140007D04D1F681149104A104B10409F4FDC019
:1011500020916A05822F90E0A0E0B0E0DC019927A1
:10116000882730916C05832B40916B0550E0542FFC
:10117000442760E070E0842B952BA62BB72B8816B4
:101180009906AA06BB0641F0B501A4018AE695E0DE
:101190000E94E21F20916A05CAE6D5E0207F203830
:1011A00009F0DBC02C812F7030E1539EC001112467
:1011B000522E582A5C828B81982F907F832D8F70BE
:1011C000892B8B834110CCC08DE392E00E94832257
:1011D00080912B0690912C06892B09F0F2C087EBA9
:1011E00094E00E94832283E492E00E9483220E9482
:1011F000782280E090E097C06BEA73E0C8010E941B
:101200000B32892B91F4E114F10409F454C0C701A5
:101210000E94CB31009709F44EC077E0372E380E8C
:1012200065CF812C912C540161CF6BE971E0C8012D
:101230000E940B32892B09F042C0E114F10409F439
:101240005BC064E272E0C7010E940B32892B09F493
:10125000C2C06DE272E0C7010E940B32892B09F413
:10126000BDC06BE172E0C7010E940B32892B09F40B
:10127000B8C060E272E0C7010E940B32892B09F40A
:10128000B3C069E272E0C7010E940B32892B09F4F6
:10129000AEC060E372E0C7010E940B32892B09F4F3
:1012A000A9C069E372E0C7010E940B32892B09F4DF
:1012B000A4C0412C1BCF312C19CF512C17CF87EB59
:1012C00091E00E94832280912B0690912C06892B1D
:1012D00009F06DC08AE30E9464228FEB91E00E94C6
:1012E000832287EB94E00E948322C8010E9483221C
:1012F0008AE00E946422FACE8DE392E00E9483226B
:1013000080912B0690912C06892B09F08BC087EBDE
:1013100094E00E94832283E492E00E9483220E9450
:1013200078228FEF9FEFDF91CF911F910F91FF9068
:10133000EF90DF90CF90BF90AF909F908F907F9075
:101340006F905F904F903F90089520912D06CDE2D1
:10135000D6E0207F203809F425CF442009F434CF8B
:101360009C81907F842D8F70492E482A4C82CE011B
:101370000E940220CE010E94FA03882309F424CFA0
:101380008DE392E00E94832280912B0690912C069F
:10139000892BB1F587EB94E00E94832280E993E0EA
:1013A0000E9483220E94782280E090E0BCCF80E4FB
:1013B0000E94642280912B0690912C060E945E254B
:1013C00089CF80E40E94642280912B0690912C06A4
:1013D0000E945E2504CF85E0482E88CE84E0482E0A
:1013E00085CE83E0482E82CE86E0482E7FCE87E0F1
:1013F000482E7CCE88E0482E79CE8DE0482E76CEE1
:1014000080E40E94642280912B0690912C060E9419
:101410005E25C0CF20912D06412C512C312CCDE2E0
:10142000D6E097CF80E40E94642280912B069091B1
:101430002C060E945E256BCF2F923F924F925F92B7
:101440006F927F928F929F92AF92BF92CF92DF92D4
:10145000EF92FF920F931F93CF93DF9300D000D0B2
:10146000CDB7DEB7992493942091B9072111912C1F
:10147000623071050CF475C06B019C838B83FC0199
:10148000A480B58006811781A114B10409F451C16B
:101490000115110509F44DC1EE24E394F12C26C089
:1014A000B80189EB97E00E940B32892B09F03DC10E
:1014B00089E492E00E9483221FEFE11AF10ACE1420
:1014C000DF0409F44EC0EB81FC81A084B184028565
:1014D0001385A114B10409F42CC13496FC83EB8369
:1014E000992493940115110509F423C164EF72E066
:1014F000C5010E940B32892B99F2992009F4D6C1BB
:1015000066E872E0C5010E940B32892B09F4EAC03B
:1015100069E971E0C5010E940B32892B09F094C082
:10152000C8010E94EF1E811179C08DE392E00E94F4
:10153000832280912B0690912C06892B09F031C1D2
:1015400087EB94E00E94832283E492E00E9483224E
:101550000E9478221FEFE11AF10ACE14DF0409F08D
:10156000B2CF80E090E0FCC060EF72E0C5010E9465
:101570000B32892B09F484C167EF72E0C5010E9428
:101580000B32892B09F4EBC164E073E0C5010E94C2
:101590000B32892B09F4EEC160E173E0C5010E94B2
:1015A0000B32892B09F487C16AE173E0C5010E94FF
:1015B0000B32892B09F408C263E273E0C5010E9473
:1015C0000B32892B09F472C26DE273E0C5010E94EF
:1015D0000B32892B09F0D1C261E373E0C8010E948C
:1015E0000B32892B19F0F1E0F093AC0766E475E05B
:1015F000C8010E940B32892B11F01092AC0764E3F2
:1016000073E0C8010E940B32892B09F4E9C203E0A0
:101610000093AC070E947E1F0E9442268DE392E059
:101620000E94832280912B0690912C06892B09F031
:10163000AEC087EB94E00E94832280E993E00E9491
:1016400083220E94782238CF6DE971E0C5010E94A3
:101650000B32892B09F049C061EB73E0C8010E948D
:101660000B32892B09F4A7C062ED72E0C8010E9419
:101670000B32892B09F0EDC060915D06862F90E05A
:10168000A0E0B0E0DC019927882720915F06AC013B
:10169000BD01422B80915E0690E0982F8827A0E044
:1016A000B0E08A019B01082B192B2A2B3B2BC90187
:1016B000B8018C0122273327003811052105310597
:1016C000C1F500932D0670932E0660932F0660934C
:1016D00098077093990780939A0790939B070E94AD
:1016E00042269CCF0E946B26E7CE6BED72E0C501CF
:1016F0000E940B32892B09F47EC063EE72E0C501B3
:101700000E940B32892B09F492C068EE72E0C50189
:101710000E940B32892B09F027CFC8010E94CB31E0
:101720008093B4070E94422679CF86E592E00E941A
:1017300083228DE392E00E94832280912B06909178
:101740002C06892B09F069C087EB94E00E94832264
:1017500083E492E00E9483220E9478228FEF9FEF21
:101760000F900F900F900F90DF91CF911F910F91DD
:10177000FF90EF90DF90CF90BF90AF909F908F90B1
:101780007F906F905F904F903F902F90089580E4EE
:101790000E94642280912B0690912C060E945E2567
:1017A00048CF80E40E94642280912B0690912C0601
:1017B0000E945E25C5CE80E090E00E949D28DC015D
:1017C000CB01CC96A11DB11D80937805909379052E
:1017D000A0937A05B0937B0510925D0680912B064D
:1017E00090912C0690937705809376058EE892E091
:1017F0000E94832213CF40E150E060E070E0C80116
:101800000E94D6306093B5077093B6078093B707F0
:101810009093B8070E94422601CF80E40E94642280
:1018200080912B0690912C060E945E258DCF4AE078
:1018300050E060E070E0C8010E94D63060939C07E1
:1018400070939D0780939E0790939F070E94422666
:10185000E5CE40E150E060E070E0C8010E94D63083
:101860008C0122273327003809F063CF892E992471
:10187000AA24BB2489288A288B2809F422CF59CF8F
:10188000F80101900020E9F73197E01BF10BE031FE
:10189000F10508F04ACEAF014F5F5F4FB80189EB09
:1018A00097E00E94F7310E944226B8CE8DE692E082
:1018B0000E9483223ECFF80180818D3209F482C1DB
:1018C000282F60E070E0CB01412C512CF0E86F2E06
:1018D000FFE37F2E222309F45FC00F5F1F4F622FAB
:1018E000812C912C54011A82198232C070E01B01A4
:1018F000F0E32F1A31082AE02216310420F58981FD
:101900009A81892B51F020E030E040E251E4C3019C
:10191000B2010E94EC2C2B013C0120E030E040E2BF
:1019200051E4C501B4010E94DC2E4B015C01B10100
:10193000330C880B990B0E94962DA50194010E94EF
:101940007B2C4B015C01F80161918F016623F1F062
:101950006E3261F6E1E0F0E0FA83E983F4CF6CE007
:1019600075E0C8010E940B32892B19F511E0109324
:10197000B10752CE6CE075E0C8010E940B32892B92
:1019800009F076C021E02093B20746CEA301920170
:10199000C501B4010E94DC2E6093A0077093A107DB
:1019A0008093A2079093A3070E947E1F0E94422665
:1019B00035CE60E073E0C8010E940B32892B09F03C
:1019C000B4CD1092B10728CEF80180818D3209F490
:1019D00023C1282F60E070E0CB01412C512C50E84E
:1019E000652E5FE3752E222309F453C00F5F1F4F4E
:1019F000622F812C912C54011A82198232C070E01E
:101A00001B01F0E32F1A31082AE02216310420F5D9
:101A100089819A81892B51F020E030E040E251E445
:101A2000C301B2010E94EC2C2B013C0120E030E00C
:101A300040E251E4C501B4010E94DC2E4B015C017F
:101A4000B101330C880B990B0E94962DA5019401CE
:101A50000E947B2C4B015C01F80161918F01662390
:101A600091F06E3261F6E1E0F0E0FA83E983F4CFC1
:101A700060E073E0C8010E940B32892B09F055CD5C
:101A80001092B207C9CDA3019201C501B4010E9411
:101A9000DC2E6093A4077093A5078093A60790930C
:101AA000A7070E947E1F0E944226B8CDF8018081C0
:101AB0008D3209F4BFC0282F60E070E0CB01412CCB
:101AC000512C30E8632E3FE3732E222309F448C0E3
:101AD0000F5F1F4F622F812C912C54011A821982A3
:101AE00032C070E01B01F0E32F1A31082AE0221601
:101AF000310420F589819A81892B51F020E030E072
:101B000040E251E4C301B2010E94EC2C2B013C01E4
:101B100020E030E040E251E4C501B4010E94DC2E37
:101B20004B015C01B101330C880B990B0E94962D7F
:101B3000A50194010E947B2C4B015C01F80161918D
:101B40008F01662339F06E3261F6E1E0F0E0FA834E
:101B5000E983F4CFA3019201C501B4010E94DC2EF8
:101B60006093A8077093A9078093AA079093AB0787
:101B70000E947E1F0E94422651CD87EB91E00E9479
:101B8000832280912B0690912C06892B49F080E4CA
:101B90000E94642280912B0690912C060E945E2563
:101BA0008AE30E9464228FEB91E00E94832287EBFC
:101BB00094E00E948322C5010E9483228AE00E9451
:101BC00064227ACC21810F5F1F4F60E070E080E0DB
:101BD00090E8412C512CA0E86A2EAFEB7A2E7ACEF9
:101BE00087EB91E00E94832280912B0690912C0636
:101BF000892B71F58AE30E9464228FEB91E00E94A9
:101C0000832287EB94E00E948322C5010E948322F5
:101C10008AE00E946422FECC21810F5F1F4F60E0AA
:101C200070E080E090E8412C512CE0E86E2EEFEB64
:101C30007E2ED9CE21810F5F1F4F60E070E080E0E3
:101C400090E8412C512C40E8642E4FEB742E3DCF90
:101C500080E40E94642280912B0690912C060E94C1
:101C60005E25C8CF86E393E00C9483220E946E2207
:101C70008F3F2FEF9207D9F08D309105D9F08A3040
:101C80009105C1F08830910509F441C08232910577
:101C9000B1F020917C05222301F1CB9739F7109206
:101CA0007C050E946E228F3F2FEF920729F780E07C
:101CB00090E00895109200061092FF05D7CF209172
:101CC000FF05309100062F5F3F4F309300062093B1
:101CD000FF0520917C052111C9CF2091FD05309190
:101CE000FE052F37310584F54091FF0540FD03C007
:101CF0008B339105B9F1A9014F5F5F4F5093FE05FA
:101D00004093FD05F901E358FA4F8083AFCF8091EE
:101D1000FD059091FE05009709F4A8CF01979093D7
:101D2000FE058093FD05FC01E358FA4F8081823265
:101D300009F09CCF8091FF05909100060197909348
:101D400000068093FF0592CF81E080937C0580E0C0
:101D500090E01092FE051092FD0510920006109280
:101D6000FF0508952115310539F0F901E358FA4FBF
:101D700010828DE795E0EDCF80E090E0EACFEF9222
:101D8000FF920F931F93CF93DF93EC0110922C06D9
:101D900010922B0600E010E08881803241F4DE01D1
:101DA000FE013196EF011D9281918032D9F3882393
:101DB00009F487C07801EE0CFF1CEE0CFF1CF70144
:101DC000ED5CF94FD183C0838881982F9F7D61F0AE
:101DD0008D33E9F0FE01319602C08D33C1F0EF0181
:101DE0008191982F9F7DC9F7F701ED5CF94F138220
:101DF00012820F5F1F4F0A30110571F68FEF9FEFB0
:101E0000DF91CF911F910F91FF90EF90089518826D
:101E100089818B3399F3803289F38232B9F1882337
:101E200069F3FE013196D701AD5CB94F1396FC936F
:101E3000EE9312978981882371F08032F1F18D330E
:101E4000E1F1229604C08032C1F18D33B1F1FE017F
:101E500089918111F8CFEF01C7018D5C994F7C0109
:101E60006FE373E0FC01808191810E940B32892B2A
:101E700009F0BFCFF701828193810E94CB3190930B
:101E80002C0680932B0601501109B3CFCE01029688
:101E90002A81222309F4B2CFF701ED5CF94F938335
:101EA000828362E270E00E940032EC01892B09F427
:101EB000A5CF8881882381F2FE01EF01219610824F
:101EC000CBCFC801DF91CF911F910F91FF90EF9081
:101ED00008950F931F93CF93DF93EC01892B09F0A3
:101EE00074C08091780590917905A0917A05B091A0
:101EF0007B05892B8A2B8B2B31F480E0DF91CF91EE
:101F00001F910F91089580E090E00E949D2800911C
:101F100078051091790520917A0530917B05061797
:101F200017072807390708F472C080915D06982FBB
:101F3000907F903811F790E0A0E0B0E0DC019927A5
:101F4000882720915F06822B40915E0650E0542F37
:101F5000442760E070E0842B952BA62BB72BA09331
:101F60002D0690932E0680932F06809398079093CA
:101F70009907A0939A07B0939B0710927805109247
:101F8000790510927A0510927B0586E693E00E940F
:101F900083228DE392E00E94832280912B06909110
:101FA0002C06892B09F071C08AE30E9464228BE819
:101FB00093E00E94832287EB94E00E9483220E9498
:101FC00078220E94422681E099CF80E090E00E9432
:101FD0009D28DC01CB018C0F9D1FA11DB11D80939D
:101FE000780590937905A0937A05B0937B051092BC
:101FF0005D0680912B0690912C0690937705809337
:10200000760580E0DF91CF911F910F910895C091E7
:102010002B06D0912C06109278051092790510921B
:102020007A0510927B0583E493E00E9483228091DD
:1020300076059091770590932C0680932B068DE37F
:1020400092E00E94832280912B0690912C06892B8E
:1020500091F48AE30E94642288E593E00E9483223F
:1020600087EB94E00E9483220E947822D0932C0672
:10207000C0932B0642CF80E40E94642280912B06FD
:1020800090912C060E945E25E4CF80E40E94642299
:1020900080912B0690912C060E945E2585CF4F9251
:1020A0005F926F927F928F929F92AF92BF92CF92E8
:1020B000DF92EF92FF920F931F93CF93DF9300D0A5
:1020C0001F92CDB7DEB77C015B014A011B82452B15
:1020D00009F4A9C0FC01808120E030E0882309F4E4
:1020E0005BC000E010E055245A949FE0492E1EC0CA
:1020F000F501E20FF31F50826801FFEFCF1ADF0AEC
:10210000C814D90408F04CC0F501EC0DFD1D408247
:102110008FEFE81AF80A86010F5F1F4F9801081524
:102120001905D0F5F70180818823B1F18B3209F4CC
:102130004CC08D32E9F28983F70181818A8368017D
:10214000FFEFCF1ADF0AC814D90450F5CE0101966B
:102150000E94CB310E941B1EF501EC0DFD1D8083FA
:10216000F701828189833701F4E06F0E711CF7015A
:1021700083818A830A0D1B1DCE0101960E94CB31FB
:102180000E941B1EF8018083730186010F5F1F4FA1
:1021900098010815190530F281E08216930609F0BE
:1021A00080E00F900F900F90DF91CF911F910F91D2
:1021B000FF90EF90DF90CF90BF90AF909F908F9067
:1021C0007F906F905F904F9008950430110544F315
:1021D000C80104968816990618F3D501A20FB31FFB
:1021E000FD01349780818C93F8013196EA0DFB1D37
:1021F000DF0114978C918083F8013296EA0DFB1D64
:10220000DF0114978C9180836801E3E0CE0ED11C2E
:10221000F501EC0DFD1DDF0114978C918083FFEF1C
:10222000EF1AFF0A78CF20E030E0B6CF2F923F922E
:102230004F925F926F927F928F929F92AF92BF92D6
:10224000CF92DF92EF92FF920F931F93CF93DF9382
:10225000CDB7DEB7A8970FB6F894DEBF0FBECDBFDF
:10226000FC014B012FEF29839FE09A832B839C83F2
:102270002D839E832F83988729879A872B879C8716
:102280002D879E872F87988B298B9A8B2B8B9C8BE6
:102290002D8B9E8B2F8B988F298F9A8F2B8F9C8FB6
:1022A0002D8F9E8F2F8F98A3623071050CF43DC245
:1022B000E480F580A680B780E114F10409F4ECC055
:1022C0008F01FEEFFFA319A2212C1BA21CA21DA2AD
:1022D0001EA218A6312C612C712C1AA2512C412C53
:1022E000CC24C394D12C21C0A114B10409F4B7C0EB
:1022F0004CE150E0BE016F5F7F4FC5010E944F105F
:10230000582E4FEFC41AD40A8C149D0481F1D801C1
:102310001896ED90FC9019970C5F1F4FF801A6805E
:10232000B780E114F10409F4B7C063E973E0C701B1
:102330000E940B32892BC1F26AE973E0C7010E9447
:102340000B32892B09F046C0A114B10409F487C0EF
:1023500044E050E0BE01635E7F4FC5010E944F1014
:10236000482E4FEFC41AD40A8C149D0481F66BA139
:102370007CA18DA19EA1672B682B692B09F4E1C07C
:1023800020917005822F90E0A0E0B0E0DC01992759
:10239000882730917205832B4091710550E0542FAE
:1023A000442760E070E0842B952BA62BB72B4BA124
:1023B0005CA16DA17EA1481759076A077B0709F444
:1023C00046C180E795E00E94E21F2091700500E77A
:1023D00015E0BBC060EA73E0C7010E940B32892B95
:1023E00059F4A114B10409F48FC0C5010E94CB3186
:1023F0003C0121E02AA385CF66EA73E0C7010E9471
:102400000B32892B91F4A114B10441F0D5018C91C8
:10241000803309F472C0813309F073CF79A1716000
:1024200079A3822D8160282E6CCF6DEA73E0C701FD
:102430000E940B32892B09F04AC0A114B10441F06B
:10244000F5018081803309F4A7C0813309F059CFA9
:1024500099A1906899A3A22DA0682A2E52CF8DE34E
:1024600092E00E94832280912B0690912C06892B6A
:1024700049F080E40E94642280912B0690912C0602
:102480000E945E2587EB94E00E94832283E492E021
:102490000E9483220E9478228FEF9FEFA8960FB6AA
:1024A000F894DEBF0FBECDBFDF91CF911F910F918A
:1024B000FF90EF90DF90CF90BF90AF909F908F9064
:1024C0007F906F905F904F903F902F90089566EBB4
:1024D00073E0C7010E940B32892BD9F4A114B10417
:1024E00009F40EC1D5018C91803309F453C08133B6
:1024F00009F0C6C0F1E0FFA304CF39A1316039A3D0
:10250000422D4E7F242EFDCE612C712C31E03AA35A
:10251000F8CE69E172E0C7010E940B32892B51F1BC
:102520006DEC73E0C7010E940B32892B09F0ABC040
:10253000A114B10409F429C1C5010E94CB31382E80
:10254000E0CE20912D060DE216E0207F203809F420
:1025500069C0D80114968C918F60F8018483C801FA
:102560000E94022081E00E94591481111CC080E069
:1025700090E094CFA114B10409F4B7C040E150E059
:1025800060E070E0C5010E94C02F6BA37CA38DA307
:102590009EA3B7CE1FA2B5CE59A1506859A3622DF4
:1025A0006F77262EAECE84E696E00E94C41BFFA174
:1025B000F13009F4DEC05110AEC04110A4C02AA110
:1025C000211198C060E084E696E00E94DF1C49A1DA
:1025D000622D84E696E00E944B1DB80184E696E0E9
:1025E0000E94EE1DC8010E943B04882399F18DE3EF
:1025F00092E00E94832280912B0690912C06892BD9
:1026000009F0ADC087EB94E00E94832280E993E05B
:102610000E9483220E94782280E00E94591480E068
:1026200090E03CCFF8018481282F2F70F0E13F9E8D
:10263000C0011124822BD80113969C911397292F46
:10264000207F98A59F70922B13969C9385CF00E7CF
:1026500015E07BCF8DE392E00E94832280912B06D0
:1026600090912C06892B09F070C087EB94E00E94B2
:10267000832283E492E00E9483220E947822CCCFBE
:10268000BFEFBFA33ECE6BEA73E0C7010E940B32DF
:10269000892B71F4A114B10409F445C0C5010E944D
:1026A000CB31009709F43FC027E0280F28A729CE97
:1026B00087EB91E00E94832280912B0690912C065B
:1026C000892B09F064C08AE30E9464228FEB91E0B9
:1026D0000E94832287EB94E00E948322C7010E941C
:1026E00083228AE00E9464220CCE1BA21CA21DA29F
:1026F0001EA207CEB30184E696E00E94EB1D62CFD6
:10270000E1E0EFA3FECDBE01635E7F4F84E696E07D
:102710000E94DE1D54CFBE016F5F7F4F84E696E0BE
:102720000E94AD1D4ACF18A6ECCD20912D063EEF9C
:102730003FA319A2212C612C712C1AA2412C512CDF
:10274000312C18A60DE216E000CF80E40E9464222E
:1027500080912B0690912C060E945E2586CF80E406
:102760000E94642280912B0690912C060E945E2587
:1027700049CF61E084E696E00E94DF1C49A1622D0A
:1027800084E696E00E944B1D2DCF312CBACD80E41B
:102790000E94642280912B0690912C060E945E2557
:1027A00092CF0F931F93CF93DF930E94BF0E8C01A4
:1027B00097FD3BC0C0913306D09134066091000173
:1027C00070910101CE010E940B32892B09F44FC098
:1027D0006091060170910701CE010E940B32892B96
:1027E00009F45BC060910C0170910D01CE010E9453
:1027F0000B32892B09F454C06091120170911301BE
:10280000CE010E940B32892B09F44DC06091180152
:1028100070911901CE010E940B32892B09F446C038
:10282000DF91CF911F910F9108958DE392E00E9467
:10283000832280912B0690912C06892B71F487EBD3
:1028400094E00E94832283E492E00E948322DF913D
:10285000CF911F910F910C94782280E40E94642202
:1028600080912B0690912C060E945E25E8CF80E097
:1028700090E0FC01EE0FFF1FE80FF91FEE0FFF1FA6
:10288000E050FF4F0280F381E02DB80183E396E032
:10289000DF91CF911F910F91099481E090E0E9CFF2
:1028A00082E090E0E6CF83E090E0E3CF84E090E048
:1028B000E0CF882391F081E08093210604C08091CD
:1028C000B107813041F484E690E00E9410288091A5
:1028D00020068823A1F381E008951092210681E06B
:1028E000089510921D0610921C0610921E0610925A
:1028F0001F061092170610920906109208061092F1
:102900006306109207061092060686E090E0909308
:102910000506809304060895EF92FF920F931F938C
:10292000CF93DF930E944A2680930F0690910E0664
:10293000891709F482C0811161C09FEF9093160638
:1029400080930E0620916306211109C0209128066C
:10295000211105C020912006222309F470C0809126
:1029600014069091150620912106222309F448C0EF
:102970002091200621111AC010921D0610921C06EB
:1029800010921E0610921F0610921706109209064A
:10299000109208061092630610920706109206061F
:1029A00026E030E0309305062093040621E02093D2
:1029B00020060196909315068093140680910F06C9
:1029C000882309F180911206909113060196909345
:1029D0001306809312068091160618160CF51092B5
:1029E0001506109214061092130610921206DF912B
:1029F000CF911F910F91FF90EF90089591E09ECF9E
:102A000010922006D6CF8091100690911106019663
:102A10009093110680931006809116061816FCF20A
:102A2000882329F31092110610921006DF91CF919E
:102A30001F910F91FF90EF90089590E07FCF40910C
:102A40000A0650910B0660910C0670910D06411517
:102A500051056105710509F44BC0415051096109E7
:102A6000710940930A0650930B0660930C0670930D
:102A70000D06452B462B472BD9F510921D061092BB
:102A80001C0610921E0610921F0610921706109236
:102A9000090610920806109263061092070610921B
:102AA000060626E030E030930506209304069130B8
:102AB00009F055CF209117068091140690911506C4
:102AC000AC0127300CF0EBC04C5051094D31510591
:102AD00008F049CF40911206509113064450510915
:102AE0004131510508F03FCF2F5F209317063BCFB0
:102AF00081111FC080911F06882309F433C19F3FB5
:102B000009F484C090911706973009F028CF21E08E
:102B1000280F2831B8F010921F0680911E068F5F93
:102B20008A30B8F480931E068091140690911506A1
:102B30001ACF2091100630911106213F310508F07F
:102B40009CCFD8CF809114069091150620931F0634
:102B50000ACF10921E0620911C0630911D0620FD02
:102B6000B3C08091040690910506409106065091ED
:102B700007062F5F3F4F30931D0620931C06481712
:102B8000590708F4ECCE8F30910509F463C0883AF8
:102B9000910509F46EC0069709F0E1CE8091080610
:102BA00090910906892B99F480916506209164061D
:102BB000820F90916606890F90916706890F909118
:102BC0006806890F30916906831709F4D0C0109206
:102BD0001D0610921C0610921E0610921F061092DF
:102BE00017061092090610920806109263061092BA
:102BF00007061092060686E090E090930506809303
:102C000004068091140690911506ADCE209112060F
:102C100030911306E0911C06F0911D06E170FF272C
:102C2000EE0FFF1FE85EF94F2C30310530F521E043
:102C300030E0A90100901E0602C0440F551F0A94FF
:102C4000E2F720813181242B352B31832083909131
:102C500017065ACF8091700687FD94C088EA90E0ED
:102C600090930506809304068091140690911506B2
:102C70007ACE83E08093630672CE21E030E000904C
:102C80001E0602C0220F331F0A94E2F720953095EA
:102C900040815181242335233183208333CF4C530A
:102CA00051094D33510508F05ECE40911206509106
:102CB0001306445051094531510508F054CE2730D0
:102CC00009F051CE21E042CFC0910606D09107060F
:102CD000CC59D94F00911806109119067801FF249C
:102CE000802F0E940D1E811160C080E092E08E292D
:102CF0009F290817190709F45BC000911A06109163
:102D00001B067801FF24802F0E940D1E882309F4E2
:102D100061C080E093E08E299F290817190709F404
:102D20005CC087E788838091080690910906019628
:102D30009093090680930806409106065091070675
:102D400080910406909105068417950718F5209147
:102D50001C0630911D062F5F3F4F30931D062093B8
:102D60001C0611CF20911E062111C9CEA0CE9F7046
:102D70009F3011F181E08093630680911406909159
:102D80001506F1CD82E08093630680911406909140
:102D90001506E9CD4F5F5F4F509307064093060637
:102DA00020911C0630911D06E4CE80E090E09FCF7C
:102DB000809118068883C0CF207F2038D9F68FE015
:102DC00090E09093050680930406809114069091FC
:102DD0001506C9CD80E091E09ECF80911A068883C8
:102DE000ABCF0F931F93CF93DF9380912806811170
:102DF00005C0DF91CF911F910F9108959091020628
:102E000091111FC020911F06223008F47DC010923E
:102E100003062F5F263008F44DC010921F06209144
:102E20001E062F5F233008F484C010921E06982FD0
:102E300080E090930206DF91CF911F910F910C9447
:102E40004F2680910106811139C090911F0681E0C3
:102E5000923008F080E0809303069F5F943000F189
:102E600010921F0690911E069F5F973008F455C080
:102E700010921E0681E08093010680916406C82F9F
:102E8000D0E00E940D1E81114BC080E092E08C2B9F
:102E90009D2B909319068093180680910306CBCF43
:102EA00090931F0610920106DF91CF911F910F9111
:102EB0000C944F2680E020931F06BBCF20911E0666
:102EC000422F50E04350510990911F0657FD2BC0EF
:102ED000923090F0943058F561E070E002C0660FD7
:102EE000771F4A95E2F7409118065091190646233C
:102EF000572381E0452BD9F4809303069F5F9630DA
:102F0000E0F490931F0697CF30911E0631117FCFCA
:102F100031E0309303062F5FCECF90931E06C2CFD1
:102F200080E090E0B4CF211102C0923028F380E01D
:102F3000E3CF20931E0680E07CCF10921F062F5F08
:102F40002D3018F420931E0676CF10921E06C091E5
:102F50001C06D0911D062196D0931D06C0931C0619
:102F60002091290630912A06C217D307D8F0109273
:102F70001D0610921C0610920106109202060E9475
:102F80004F261092280610921D0610921C061092D1
:102F90001E0610921F0680E0DF91CF911F910F91C6
:102FA0000C944F26FE01F695E795EC59F94F808178
:102FB000082F10E00E940D1EC0FF0DC0882381F075
:102FC00080E093E0802B912B909319068093180654
:102FD0008091030630CF811106C080E092E0F2CFED
:102FE00080E091E0EFCF80E090E0ECCFCF93DF93F3
:102FF000FC0190818181980F8281980F8381980FC5
:103000008481890F95818913C6C1880F613009F4C5
:10301000C6C19681980F2781920F2085920F218536
:10302000920F8285980F8385980F8485980F8585E8
:10303000980F86859813AFC1990F623009F4AFC11C
:1030400027858089280F8189280F8289280F838905
:10305000280F8489280F8589280F8689280F920FC9
:103060008789981398C1208D818D820F228D820FC0
:10307000238D820F248D820F258D820F268D820F46
:10308000378D830F890F292F280F80A1281383C123
:1030900091A182A1890F93A1890F94A1890F95A174
:1030A000890F96A1890F97A1890F90A5890F820F8B
:1030B000982F920F81A598136EC122A583A5820F28
:1030C00024A5820F25A5820F26A5820F27A5820F92
:1030D00020A9820F21A9820F890F890F92A9891334
:1030E0005AC124A993A9920F25A9920F26A9920F3C
:1030F00027A9920F20AD920F21AD920F22AD920F12
:10310000980F890F23AD281346C195AD84AD890F63
:1031100096AD890F97AD890FDF01A05CBF4F9C91E1
:10312000890F11969C91890F11969C91890F119688
:103130009C91890F820F820F11969C9198132BC13D
:1031400012962C9111979C91920F12962C91920F9E
:1031500011962C91920F11962C91920F11962C9101
:10316000920F11962C91920F11962C91920F980F0D
:10317000890F11964C9148130EC112969C9111978C
:103180008C91890F12969C91890F11969C91890FB1
:1031900011969C91890F11969C91890F11969C9183
:1031A000890F11969C91890F840F480F11969C915D
:1031B0009413F1C011968C9111964C91840F119635
:1031C0004C91840F11964C91840F11964C91840F61
:1031D00011964C91840F11964C91840F11964C913D
:1031E000840F890F292F280F11968C912813D3C093
:1031F00011969C9111968C91890F11969C91890F33
:1032000011969C91890F11969C91890F11969C9112
:10321000890F11969C91890F11969C91890F820FAD
:10322000922F980F11968C919813B5C011963C91DE
:1032300011968C91380F11968C91380F11968C91B4
:10324000380F11968C91380F11968C91380F11967A
:103250008C91380F11968C91380F390F892F830F6D
:1032600011969C91891397C011962C9111969C915F
:10327000290F11969C91290F11969C91290F119657
:103280009C91290F11969C91290F11969C91290FC1
:1032900011969C91290F280F382F320F11968C917F
:1032A000381379C011969C9111968C91980F1196B4
:1032B0008C91980F11968C91980F11968C91980F74
:1032C00011968C91980F11968C91980F11968C9164
:1032D000980F930F232F290F11968C9128135BC001
:1032E00011969C9111968C91890F11969C91890F42
:1032F00011969C91890F11969C91890F11969C9122
:10330000890F11969C91890F11969C91890F820FBC
:10331000922F980F11968C9198133DC011962C9175
:1033200011968C91820F11962C91820F11962C91EF
:10333000820F11962C91820F11962C91820F11966B
:103340002C91820F11962C91820F890F890F119663
:103350009C91891320C0EF01CA56DF4F1296288135
:103360009C91920F11962C91920F11962C91920F85
:1033700011962C91920F11962C91920F11962C91DF
:10338000920F11962C91920F980F980FE256FF4FC3
:1033900081E02081921380E0DF91CF91089581E058
:1033A000DF91CF910895CF93DF93FC0190818181CC
:1033B000980F8281980F8381980F8481890F85836C
:1033C000880F613009F49EC19681980F2781920F72
:1033D0002085920F2185920F8285980F8385980F03
:1033E0008485980F8585980F9687990F623009F428
:1033F00089C137858089380F8189380F8289380FD4
:103400008389380F8489380F8589380F8689380F6A
:10341000390F378B908D818D890F928D890F938D08
:10342000890F948D890F958D890F968D890F478D02
:10343000840F830F932F980F90A331A182A1380F8F
:1034400083A1380F84A1380F85A1380F86A1380FCA
:1034500087A1380F80A5380F390F832F890F81A7D7
:1034600022A593A5290F94A5290F95A5290F96A507
:10347000290F97A5290F90A9290F91A9290F280F86
:10348000322F380F32AB93A984A9980F85A9980FD2
:1034900086A9980F87A9980F80AD980F81AD980FD6
:1034A00082AD980F930F292F230F23AF95AD84ADD5
:1034B000890F96AD890F97AD890FDF01A05CBF4FD3
:1034C0009C91890F11969C91890F11969C91890F5F
:1034D00011969C91890F820F982F920F11969C93B1
:1034E000EF01CA5BDF4F119628818C91820F1296F3
:1034F0002C91820F11962C91820F11962C91820F94
:1035000011962C91820F11962C91820F11962C916D
:10351000820F890F890F11968C9329961196288115
:103520009C91920F12962C91920F11962C91920FC2
:1035300011962C91920F11962C91920F11962C911D
:10354000920F11962C91920F980F890F11968C93D0
:103550002996119628819C91920F12962C91920F88
:1035600011962C91920F11962C91920F11962C91ED
:10357000920F11962C91920F11962C91920F980FF9
:10358000890F11968C932896129628819C91920F00
:1035900011962C91920F11962C91920F11962C91BD
:1035A000920F11962C91920F11962C91920F1196C9
:1035B0002C91920F980F890F11968C932996129641
:1035C00028819C91920F11962C91920F11962C911B
:1035D000920F11962C91920F11962C91920F119699
:1035E0002C91920F11962C91920F980F890F119692
:1035F0008C932996129628819C91920F11962C916A
:10360000920F11962C91920F11962C91920F119668
:103610002C91920F11962C91920F11962C91920F42
:10362000980F890F11968C932996129628819C9158
:10363000920F11962C91920F11962C91920F119638
:103640002C91920F11962C91920F11962C91920F12
:1036500011962C91920F980F282F290F11962C93C9
:103660002996129698818C91890F11969C91890FB9
:1036700011969C91890F11969C91890F11969C919E
:10368000890F11969C91890F11969C91890F820F39
:10369000280F11962C932996129698818C91890F58
:1036A00011969C91890F11969C91890F11969C916E
:1036B000890F11969C91890F11969C91890F1196F3
:1036C0009C91890F820F820F11968C9329961296E6
:1036D00028819C91920F11962C91920F11962C910A
:1036E000920F11962C91920F11962C91920F119688
:1036F0002C91920F11962C91920F980FE256FF4F3A
:10370000890F8083DF91CF9108950F931F93CF93FB
:10371000DF93EC01162F0E94EC208EEF810F823098
:1037200028F0DF91CF911F910F91089526961230C6
:1037300039F160E002E110E08091B4078530C8F013
:10374000C801880F991F880F991F880F991F080FAC
:10375000191F0C0F1D1F69E070E0CE010E94F825B3
:103760002996C017D107B9F7DF91CF911F910F911B
:103770000895CE01DF91CF911F910F910C940121FB
:1037800061E001E010E0D8CFCF93DF93FC01DC01D2
:10379000169688E0ED0119928A95E9F79FEF9787D1
:1037A0008FE0808B918B828B938B848B958B868B18
:1037B000908F818F928F838F948F858F968F878F35
:1037C00091A382A393A384A395A386A397A380A781
:1037D00092A783A794A785A796A787A790AB81AB4D
:1037E00093AB84AB95AB86AB97AB80AF91AF82AF19
:1037F00094AF85AF96AF87AFDA969C9311968C9372
:1038000011969C9311968C9312969C9311968C937F
:10381000119712969C93129713968C931397149664
:103820009C93149715968C93159716969C931697C0
:1038300017968C93179719969C9311968C931197C2
:1038400012969C93129713968C93139714969C93AD
:10385000149715968C93159716969C931697179612
:103860008C93179719969C9311968C931197129697
:103870009C93129713968C93139714969C9314977A
:1038800015968C93159716969C93169717968C936E
:10389000179719969C9311968C93119712969C9357
:1038A000129713968C93139714969C9314971596CE
:1038B0008C93159716969C93169717968C9317973B
:1038C00019969C9311968C93119712969C9312972C
:1038D00013968C93139714969C93149715968C9328
:1038E000159716969C93169717968C93179719967B
:1038F0009C9311968C93119712969C931297139602
:103900008C93139714969C93149715968C931597F4
:1039100016969C93169717968C93179719969C93C7
:1039200011968C93119712969C93129713968C93E1
:10393000139714969C93149715968C931597169637
:103940009C93169717968C93179719969C9311969C
:103950008C93119712969C93129713968C931397AE
:1039600014969C93149715968C93159716969C9382
:10397000169717968C93179719969C9311968C937C
:10398000119712969C93129713968C9313971496F3
:103990009C93149715968C93159716969C9316974F
:1039A00017968C93EA56FF4F90838183928383838B
:1039B0009483858396838783DF91CF910895DF92E7
:1039C000EF92FF920F931F93CF93DF9300D000D01D
:1039D000CDB7DEB78C01D62E80E090E00E949D2806
:1039E00069837A838B839C83CE0101960E94A628EB
:1039F0007C01FC0180810E941B1EF8018683F70177
:103A000081810E941B1EF8018783F70182810E9439
:103A10001B1EF8018087F70183810E941B1EF8019D
:103A20008287F70185818F5F0E941B1EF8018387C3
:103A3000DD2051F187E820E8F7019481992311F006
:103A4000892F822BF801848781E090E0F7010480C0
:103A500002C0880F991F0A94E2F7F8018187F701E5
:103A600082859385F801892B91F485858B7F8587E5
:103A70000F900F900F900F90DF91CF911F910F91AA
:103A8000FF90EF90DF90089587E020E0D5CF858507
:103A900084608587EDCFFC0140FF05C0858560FF10
:103AA00059C081608587942F9695262F269590FF83
:103AB00005C0858520FF4BC0826085879695269539
:103AC00090FF05C0858520FF3FC08460858796955F
:103AD000269590FF05C0858520FF33C088608587C7
:103AE0009695269590FF05C0858520FF27C08061AB
:103AF00085879695269590FF05C0858520FF1BC07C
:103B0000806285879695269590FF05C0858520FF64
:103B10000FC08064858796952695992341F0858509
:103B2000222319F08068858708958F778587089507
:103B30008F7B8587F0CF8F7D8587E4CF8F7E8587CC
:103B4000D8CF877F8587CCCF8B7F8587C0CF8D7F70
:103B50008587B4CF8E7F8587A6CFCF93DF93EC0187
:103B6000FB01808191819C8B8B8B828193819E8BC9
:103B70008D8BDE015896349688E001900D928A95DF
:103B8000E1F7DE019196FB013C9688E001900D92F1
:103B90008A95E1F7FB01848995899BA78AA7868985
:103BA00097899DA78CA7808D918D988B8F87828D0B
:103BB000938D9A8B898BDF91CF910895FB012081A2
:103BC0003181FC0137A726A7FB0122813381FC014B
:103BD00031AB20AB0895C3960C948404FB01DC0147
:103BE000A156BF4F1C92208111962C9321811196D2
:103BF0002C932281FC01EE55FF4F2083319623E563
:103C0000208331961082319620E12083319621E184
:103C10002083319625E020830895982F92959F70F8
:103C20008927982F969596958927982F9695892775
:103C30008095817008956AE070E090E00E94DF2B2B
:103C40009B0122953295307F3227207F32278F705B
:103C5000822B08956AE070E090E00E94DF2BAC01B7
:103C60006930710549F0262F2295207F4930510592
:103C700039F08F70822B089520EF49305105C9F734
:103C80008FE0822B0895FC0180819181A281B38114
:103C9000B23C20F08058924AA149B44BBC01CD01FE
:103CA0006059794A8D4E984D20E83AE349E050E05A
:103CB0000E94F32BDA01C901880F991FAA1FBB1FAD
:103CC000880F991FAA1FBB1F880F991FAA1FBB1F10
:103CD000821B930BA40BB50BBC01CD01660F771FA4
:103CE000881F991F660F771F881F991F25EB35E0E6
:103CF00040E050E00E94F32B6835734018F480E1F7
:103D00009EE0089580E090E0089580E19EE00895AF
:103D1000FC0180819181A281B381B23C20F0805866
:103D2000924AA149B44BBC01CD016059794A8D4EEC
:103D3000984D20E83AE349E050E00E94F32BDA0185
:103D4000C901880F991FAA1FBB1F880F991FAA1F9F
:103D5000BB1F880F991FAA1FBB1F821B930BA40BAD
:103D6000B50BBC01CD01660F771F881F991F660F29
:103D7000771F881F991F25EB35E040E050E00E9437
:103D8000F32B6835734018F480E19EE0089580E0DD
:103D900090E008950F931F93CF93DF9300D000D04E
:103DA000CDB7DEB78C0180E090E00E949D2869834A
:103DB0007A838B839C83CE0101960E94A628B8014A
:103DC0000E948F2A84E5F801828781E00F900F908E
:103DD0000F900F90DF91CF911F910F9108950F9346
:103DE0001F93CF93DF93CDB7DEB7A0970FB6F894AC
:103DF000DEBF0FBECDBFFC0101900020E9F79F019F
:103E0000245131092817390761F080E0A0960FB6D8
:103E1000F894DEBF0FBECDBFDF91CF911F910F9100
:103E20000895BC0143E150E0CE0101960E94143296
:103E30001C8A8E010B5E1F4F8CE0F80111928A954F
:103E4000E9F76AED73E0CE0101960E94F231009726
:103E5000E1F20E94CB318C5697409C8F8B8F6AED9C
:103E600073E080E090E00E94F231009771F20E94CE
:103E7000CB3181508A8F6CED73E080E090E00E943E
:103E8000F231009711F20E94CB31888F60EE73E01F
:103E900080E090E00E94F231009709F4B6CF0E94D2
:103EA000CB318F8B60EE73E080E090E00E94F231C6
:103EB000009709F4AACF0E94CB318E8B6EE171E09E
:103EC00080E090E00E94F231009709F49ECF0E94BA
:103ED000CB318D8B8FEF9FEF98A38F8FC8010E94FE
:103EE0002429611571058105910509F48ECF22E021
:103EF00020930C070E94962B81E088CFCF92DF920F
:103F0000EF92FF9220E030E041E655E46091A8078F
:103F10007091A9078091AA079091AB070E94DC2EAF
:103F20000E945E2D0E949F2B20E030E041E655E488
:103F30006091A0077091A1078091A2079091A307BB
:103F40000E94DC2E0E945E2D6B017C0120E030E09F
:103F500041E655E46091A4077091A5078091A607FA
:103F60009091A7070E94DC2E0E945E2DA70196016A
:103F70000E9413298091AC078230E1F0833091F0E8
:103F8000813041F080E090E0FF90EF90DF90CF90A3
:103F90000C94912983E49EE1FF90EF90DF90CF9005
:103FA0000C94912985E89EE1FF90EF90DF90CF90EF
:103FB0000C94912988E89EE1FF90EF90DF90CF90DC
:103FC0000C949129FC01CB01AA27BB278083518344
:103FD000428322E1238314822FEF25839927AA2786
:103FE000BB2780329105A105B10549F080399105C3
:103FF000A105B10519F487E183830895089581E14E
:1040000083830895FC018081807F803891F09381C3
:10401000292F22952F702F5F2F7031F02295207F4E
:104020009F70922B9383089520E19F70922B93832E
:104030000895858118165CF784818F70833039F379
:104040000895CF93DF930E94360EEC01892B09F47B
:1040500053C00E947822CE010E94D11310922206F2
:1040600080916306882309F444C0809163068130FF
:10407000C9F060F0843050F482EE93E00E94832215
:104080006091630684E696E00E94851B609163065A
:1040900084E696E00E94F617882319F1DF91CF910C
:1040A0000C94711485E0E4E6F6E0ADE5B6E001902D
:1040B0000D928A95E1F780E090E00E94690F8FED04
:1040C00093E00E9483226091630684E696E00E945A
:1040D000851B6091630684E696E00E94F6178111C5
:1040E000DDCF88EF93E00E948322DF91CF910C9483
:1040F0007114DF91CF910895809122068111B0CF84
:104100000E94320E81E080932206AACFCF93DF93E4
:104110008BE094E00E9483228BE494E00E9483224F
:10412000C8E9D7E0688179818A819B8140E00E945B
:104130002F2386E594E00E9483226C817D818E810D
:104140009F8140E00E94FE238DE594E00E9483223F
:1041500080E694E00E948322688579858A859B8524
:1041600045E050E00E94512482E794E00E948322BF
:104170006C857D858E859F8545E050E00E945124A9
:104180008DE794E00E948322688979898A899B89D6
:1041900042E050E00E9451248DE594E00E94832289
:1041A00089E894E0DF91CF910C9483220E947E1FD6
:1041B000409198075091990760919A0770919B07D9
:1041C0008DE296E00E94E21F0E94862083E00E941A
:1041D000762680E090E008950F931F93CF93DF93AE
:1041E000EC018C010A5F1F4F61E089910E94BE22A1
:1041F000C017D107C9F7DF91CF911F910F910C9490
:1042000078228F929F92AF92BF92CF92DF92EF92DD
:10421000FF920F931F93CF93DF93CDB7DEB76097D5
:104220000FB6F894DEBF0FBECDBF6C01162F80E134
:10423000E0E2F1E0DE01119601900D928A95E1F73E
:1042400084EB94E00E948322D60114968C910E9404
:1042500096258AEB94E00E948322F60185810E94D4
:1042600096258CEB94E00E948322D6011696EC9161
:10427000E770F0E0EE0FFF1F81E090E08C0F9D1FD4
:10428000E80FF91F808191810E9483228DEB94E0D9
:104290000E948322D60112968C910E94962580EE70
:1042A00093E00E948322F60181810E94962580EE90
:1042B00093E00E948322D6018C910E949625F601FC
:1042C000878182FD78C00E947822111161C0D601D9
:1042D00017968C9187FD79C080FD72C08DEE94E0B9
:1042E0000E9483225601F9E0AF0EB11C76018DE2E7
:1042F000E80EF11C450188E0880E911C8501D8016B
:1043000011968C910E94962580EE93E00E94832264
:10431000F80180810E94962587E092E00E94832226
:104320000E5F1F4F8016910651F70E947822F9E028
:10433000AF0EB11CEA14FB04E9F68AEF94E00E9488
:104340008322560199E9A90EB11C670188E0C80EC5
:10435000D11C8701D80111968C910E94962580EE80
:1043600093E00E948322F80180810E94962587E0D5
:1043700092E00E9483220E5F1F4F0C151D0551F71E
:104380000E947822F9E0EF0EF11CEA14FB04E9F632
:1043900060960FB6F894DEBF0FBECDBFDF91CF9110
:1043A0001F910F91FF90EF90DF90CF90BF90AF9053
:1043B0009F908F90089580EC94E00E94832283CF99
:1043C0008AED94E00E94832289CF85EC94E00E94DC
:1043D0008322F601878180CF0F931F93CF93DF93C2
:1043E00000D01F92CDB7DEB7182F40E1BE016F5F3E
:1043F0007F4F90E00E944A32107FE1F1A7E2B5E0E2
:104400008C91E0911107F09112078823D1F1309738
:1044100089F08D010F5F1F4F0995019671F1F80129
:1044200081918F01882349F1E0911107F0911207E2
:10443000309791F78981811115C0E0E0F0E0309765
:1044400089F008E012E08CE20995019659F0F80134
:1044500081918F01882331F0E0911107F0911207CB
:10446000309791F70F900F900F90DF91CF911F91A0
:104470000F910895A3E2B5E0C3CFE0911107F09149
:10448000120789818823D9F2309761F38E010E5F7C
:104490001F4F0995019699F0F80181918F018823AA
:1044A00071F0E0911107F0911207309791F70F909A
:1044B0000F900F90DF91CF911F910F910895E09190
:1044C0001107F0911207BBCFE0911107F09112078D
:1044D000309709F009948FEF9FEF0895E0910F074F
:1044E000F0911007309709F009948FEF9FEF08952E
:1044F000E0911107F0911207309711F08AE00994CA
:104500008FEF9FEF0895CF93DF93EC01888188238D
:10451000C1F0E0911107F0911207309769F02196F0
:104520000995019649F08991882359F0E091110786
:10453000F09112073097A1F78FEF9FEFDF91CF91A6
:10454000089580E090E0DF91CF910895CF93DF93BD
:10455000EC01FE018491882361F0E0911107F09154
:104560001207309709F009952196FE018491811177
:10457000F4CF80E090E0DF91CF910895FF920F9308
:104580001F93CF93DF9300D01F92CDB7DEB7182FC4
:10459000F62E40E1BE016F5F7F4F90E00E944A32ED
:1045A000107F09F059C0A3E2B5E08C918823C9F1CE
:1045B000E0911107F0911207309789F08D010F5F9C
:1045C0001F4F0995019669F1F80181918F018823A8
:1045D00041F1E0911107F0911207309791F7FF2018
:1045E000B9F0E0911107F0911207309789F008E0D7
:1045F00012E08CE20995019659F0F80181918F0142
:10460000882331F0E0911107F0911207309791F76C
:104610000F900F900F90DF91CF911F910F91FF900E
:10462000089589818823D9F2E0911107F09112074A
:104630003097A9F28E010E5F1F4F0995019679F20E
:10464000F80181918F01882351F2E0911107F091D7
:104650001207309791F7C3CFA7E2B5E0A6CF8F92AC
:104660009F92AF92BF92FF920F931F93CF93DF93CE
:10467000CDB7DEB72A970FB6F894DEBF0FBECDBF19
:104680004B015C01F42E20E1AE014F5F5F4F0E94B1
:104690006032D501C401807F892B8A2B8B2BD9F105
:1046A000D501C4018827892B8A2B8B2B09F494C050
:1046B000D501C4018827907F892B8A2B8B2B09F485
:1046C0008EC0D501C40188279927892B8A2B8B2B73
:1046D00009F488C0D501C40188279927A07F892BB8
:1046E0008A2B8B2B09F481C0D501C4018827992717
:1046F000AA27892B8A2B8B2B09F47AC0882499242A
:10470000AA2420EFB22289288A288B2809F473C0B2
:10471000A7E2B5E002C0AEE3B5E08C91882309F4CE
:1047200040C0E0911107F0911207309789F08D0198
:104730000F5F1F4F09950196A1F1F80181918F013B
:10474000882379F1E0911107F0911207309791F7E2
:10475000FF20B9F0E0911107F0911207309789F02E
:1047600008E012E08CE20995019659F0F801819178
:104770008F01882331F0E0911107F09112073097F3
:1047800091F72A960FB6F894DEBF0FBECDBFDF912A
:10479000CF911F910F91FF90BF90AF909F908F90FE
:1047A000089589818823A1F2E0911107F091120701
:1047B000309771F28E010E5F1F4F0995019641F2FD
:1047C000F80181918F01882319F2E0911107F0918E
:1047D0001207309791F7BCCFA5E3B5E09ECFAFE4C9
:1047E000B5E09BCFA8E4B5E098CFAFE2B5E095CFB8
:1047F000AAE2B5E092CFA3E2B5E08FCFFF920F938C
:104800001F93CF93DF93CDB7DEB72C970FB6F894F5
:10481000DEBF0FBECDBFF42E2AE0AE014F5F5F4F6B
:104820000E94603289818823B9F0E0911107F091EC
:104830001207309789F08E010E5F1F4F0995019680
:1048400059F0F80181918F01882331F0E09111072F
:10485000F0911207309791F7FF20B9F0E09111071E
:10486000F0911207309789F008E012E08CE2099588
:10487000019659F0F80181918F01882331F0E09180
:104880001107F0911207309791F72C960FB6F89414
:10489000DEBF0FBECDBFDF91CF911F910F91FF9073
:1048A00008952F923F924F925F926F927F928F92D4
:1048B0009F92AF92BF92CF92DF92EF92FF920F93AF
:1048C0001F93CF93DF93CDB7DEB72C970FB6F89435
:1048D000DEBF0FBECDBF4B015C018A010E945E2D81
:1048E0002B013C011B014AE0BE016F5F7F4FC201FB
:1048F0000E944A32DC018C91E0911107F09112077D
:10490000882309F495C03097A1F07D012FEFE21ABA
:10491000F20A0995019609F487C0F70181917F0198
:10492000882309F481C0E0911107F09112073097B4
:1049300081F7B201550C880B990B0E94962D9B01B3
:10494000AC01C501B4010E947A2C6B017C0137FCDB
:1049500075C020E030E040E85FE361E070E080E0B7
:1049600090E0101611060CF520E030E0DC01CB01E0
:10497000880F991FAA1FBB1F2C013D01440C551C19
:10498000661C771C440C551C661C771CBC01CD01B1
:10499000640D751D861D971D2F5F3F4F021713076E
:1049A00029F70E94962D9B01AC01C701B6010E9418
:1049B000DC2E0E94652D2AE0AE014F5F5F4F0E9402
:1049C000603289818823B9F0E0911107F0911207D4
:1049D000309789F08E010E5F1F4F0995019659F0AF
:1049E000F80181918F01882331F0E0911107F09156
:1049F0001207309791F72C960FB6F894DEBF0FBED2
:104A0000CDBFDF91CF911F910F91FF90EF90DF907D
:104A1000CF90BF90AF909F908F907F906F905F905E
:104A20004F903F902F900895E0911107F091120759
:104A3000309709F47ECF8EE209957BCF20E030E0FD
:104A400040E85FEB6FEF7FEFCB018BCF0F931F93AE
:104A5000CF93DF93CDB7DEB72D970FB6F894DEBFB7
:104A60000FBECDBF9A01AE014F5F5F4F0E9455321E
:104A7000DC018C918823B9F0E0911107F0911207C5
:104A8000309789F08D010F5F1F4F0995019659F0FE
:104A9000F80181918F01882331F0E0911107F091A5
:104AA0001207309791F72D960FB6F894DEBF0FBE20
:104AB000CDBFDF91CF911F910F9108950F931F9359
:104AC000CF93DF93CDB7DEB72A970FB6F894DEBF4A
:104AD0000FBECDBF4AE0BE016F5F7F4F0E944A32DA
:104AE000DC018C918823B9F0E0911107F091120755
:104AF000309789F08D010F5F1F4F0995019659F08E
:104B0000F80181918F01882331F0E0911107F09134
:104B10001207309791F72A960FB6F894DEBF0FBEB2
:104B2000CDBFDF91CF911F910F910895FF920F9309
:104B30001F93CF93DF93CDB7DEB72A970FB6F894C4
:104B4000DEBF0FBECDBFF82E82958F7040E1BE0153
:104B50006F5F7F4F90E00E944A32DC018C91882386
:104B6000B9F0E0911107F0911207309789F08D01AB
:104B70000F5F1F4F0995019659F0F80181918F0140
:104B8000882331F0E0911107F0911207309791F7E7
:104B90008F2D8F7040E1BE016F5F7F4F90E00E94CC
:104BA0004A32DC018C918823B9F0E0911107F09131
:104BB0001207309789F08D010F5F1F4F09950196FD
:104BC00059F0F80181918F01882331F0E0911107AC
:104BD000F0911207309791F72A960FB6F894DEBF3E
:104BE0000FBECDBFDF91CF911F910F91FF90089520
:104BF0000F931F93CF93DF931616170654F4EC010F
:104C00008C01060F171F89910E94EC21C017D10754
:104C1000D1F7E0911107F0911207309731F08AE057
:104C2000DF91CF911F910F910994DF91CF911F9147
:104C30000F9108950E943A260E94552660919C0784
:104C400070919D0780919E0790919F070E94F22688
:104C50000E94D5278CE996E2909312078093110762
:104C600080ED96E29093100780930F070E948E28A4
:104C70007894089541E450E064E070E088E997E0BA
:104C80000C94C63241E450E064E070E088E997E0BB
:104C90000C94D63289B182FB882780F9089581115E
:104CA00002C02B9808952B9A08955298239A2B9816
:104CB00008950E941A2687E595E00E9483220E94AB
:104CC000D62083B7816083BF889583B78E7F83BFEB
:104CD0000E942120F6CF98E088E10FB6F894A895BD
:104CE000809360000FBE90936000FFCF579A579A51
:104CF000569A482F50E0440F551F90E012C05F9A1B
:104D00005E9A5F9A292F30E024173507A4F42FEF1D
:104D100034E38CE0215030408040E1F700C00000D7
:104D20009F5F90FDECCF5F985E985F98292F30E0F1
:104D30002417350764F308952091DB079091F60757
:104D400030E02F5F3F4F29272F703327232B41F46B
:104D500093B7916093BF889593B79E7F93BFECCF35
:104D60002091DB079091F60730E02F5F3F4F292716
:104D70002F703327232B89F09091DB079F5F90934F
:104D8000DB07E091DB07EF70F0E0EB51F84F808339
:104D90008091C10080628093C10080E090E008951E
:104DA0009091D9078091DA0789278770C1F0909197
:104DB000D9078091DA078927877019F480E090E09D
:104DC00008958091DA078F5F8093DA07E091DA0720
:104DD000E770F0E0E352F84F808190E008958FEFA4
:104DE0009FEF08954F925F926F927F928F929F9262
:104DF000AF92BF92CF92DF92EF92FF920F931F93E9
:104E0000CF93DF9300D000D000D0CDB7DEB72B0119
:104E10003C016B017C01CC0CDD1CEE1CFF1CCC0C9E
:104E2000DD1CEE1CFF1CCC0CDD1CEE1CFF1C812CC1
:104E300054E2952E54EFA52EB12CC501B401A70163
:104E400096010E94F32B29833A834B835C838981EB
:104E50009A8101979E838D8391E4491692E45906C5
:104E60009FE06906710408F070C0A7019601220F47
:104E7000331F441F551FC501B4010E94F32B690164
:104E80007A0122953295307F3227207F322740E009
:104E900050E0C501B4010E94F32BCA01B901A3017E
:104EA00092010E94F32B11E0012F021B89819A814C
:104EB000880F991F880F991F880F991F9C0140E048
:104EC00050E0C501B4010E94F32BCA01B901A3014E
:104ED00092010E94F32B121B101758F191E0C91A8E
:104EE000D108C092C400D092C5008091C0008D7FCF
:104EF0008093C00088E18093C1001092C00086E0DA
:104F00008093C20026960FB6F894DEBF0FBECDBFC9
:104F1000DF91CF911F910F91FF90EF90DF90CF9095
:104F2000BF90AF909F908F907F906F905F904F90C9
:104F300008959D819093C4008E818093C5008091D7
:104F4000C00082608093C000D5CF8093C400F4CFAE
:104F50001F920F920FB60F9211248F939F93EF938E
:104F6000FF939091DB078091F60789278F70B9F046
:104F70008091F6078F5F8093F607E091F607EF7058
:104F8000F0E0EB51F84F80818093C600FF91EF91E4
:104F90009F918F910F900FBE0F901F901895809149
:104FA000C1008F7D8093C100F1CFE1ECF0E0808102
:104FB0008068808308951F920F920FB60F9211247C
:104FC0002F938F939F93EF93FF938091D907209115
:104FD000DA0790E00196822787709927892BC1F024
:104FE0008091D9078F5F8093D907E091D907E77047
:104FF000F0E08091C600E352F84F8083FF91EF917B
:105000009F918F912F910F900FBE0F901F90189529
:105010008091C6008093F50781E08093F507EECF7D
:105020008FE891E00197F1F700C0000008951F920A
:105030000F920FB60F9211242F933F934F935F93CC
:105040006F937F938F939F93AF93BF93EF93FF9350
:105050008091B207813009F453C08091B10781304B
:1050600009F459C08091B307813089F0FF91EF9125
:10507000BF91AF919F918F917F916F915F914F9170
:105080003F912F910F900FBE0F901F901895809118
:10509000230690912406A0912506B0912606AC0126
:1050A000BD01415051096109710940932306509394
:1050B00024066093250670932606892B8A2B8B2B5A
:1050C000A9F66091AD077091AE078091AF079091FE
:1050D000B00720E533EC40E050E00E94F32BDA010A
:1050E000C901805E914BAF4FBF4F809323069093D1
:1050F0002406A0932506B09326060E94DE03B6CFB1
:10510000809127068F5F80932706837009F0A5CFD3
:105110000E94F116A2CF0E948C14A4CF109280009E
:1051200089E08093810080E293E0909389008093EE
:10513000880082E080936F0008956091FB07709172
:10514000FC078091FD079091FE07089569E078E0E3
:105150000E94AD2889E098E00895CF92DF92EF9207
:10516000FF920F931F93CF93DF9300D000D0CDB762
:10517000DEB76C017B01E091FF07F09100083097EA
:10518000D1F167EF77E009958C01F60140815181FB
:10519000628173818091F7079091F807A091F907D8
:1051A000B091FA07840F951FA61FB71F101611069E
:1051B0004CF4A801012E000C660B770B840F951F91
:1051C000A61FB71F89839A83AB83BC83B701CE0127
:1051D00001960E949629F701138702870F900F907E
:1051E0000F900F90DF91CF911F910F91FF90EF9053
:1051F000DF90CF900895FC014081518162817381DD
:105200008091F7079091F807A091F907B091FA07FC
:10521000840F951FA61FB71F89839A83AB83BC8316
:105220000FEF1FEFD3CF60930108709302088093B4
:1052300003089093040820930508309306084093D0
:1052400007085093080808958F929F92AF92BF92DB
:10525000EF92FF920F931F93CF93DF9300D000D074
:10526000CDB7DEB78C010E94E22A69837A838B83F3
:105270009C83F8018284938497FC38C09E012F5F41
:105280003F4F79011814190444F4092C000CAA08A2
:10529000BB08681979098A099B098090F7079090E3
:1052A000F807A090F907B090FA07DC01CB01881944
:1052B0009909AA09BB0989839A83AB83BC83B80186
:1052C000C7010E94AD2869817A818B819C810F90F2
:1052D0000F900F900F90DF91CF911F910F91FF9042
:1052E000EF90BF90AF909F908F900895E091FF074F
:1052F000F0910008309789F067EF77E09E012F5F0B
:105300003F4F7901C90109954C01F80193878287C4
:1053100069817A818B819C81B5CFFE0131967F01B5
:10532000BCCF909300088093FF070895CF92DF923F
:10533000EF92FF920F931F93CF93DF93CDB7DEB71A
:1053400028970FB6F894DEBF0FBECDBF8B01FC01CE
:10535000608171818281938120E831E541E050E0F4
:105360000E94F32B69017A012CE330E040E050E029
:105370000E94152C29833A834B835C8389819A810F
:10538000AB81BC81F80160836CE370E00E94DF2B8D
:10539000DC01CB01F801A1838283A6014A5F5F4F44
:1053A0009A01A3E9B4E20E94342C281B390B3695EC
:1053B0002795820F931F96958795969587959C01C3
:1053C000220F331F220F331F220F331FB901681B17
:1053D000790B461B570B44832DEA3EE840E050E032
:1053E000C701B6010E94152C29833A836D837E8301
:1053F0008F83988789819A8124E6289F6001299F5D
:10540000D00C11246D817E818F81988525EB35E04C
:1054100040E050E00E94152C29833A836D837E83FF
:10542000E980FA80EE0CFF1CEE0CFF1CEC0CFD1C5E
:105430008D819E8175E6E716F10408F45AC0019645
:105440002CE330E04DE651E0E1E0F0E04817590789
:1054500068F46DE671E08E1B9F0B0E94DF2BDC0170
:10546000CB01E80EF91ECD012BE330E0F4E6EF0EA0
:10547000F11CF801F782E6829187808782179307F3
:1054800008F443C069E970E0821B930B0E94DF2B94
:10549000DC01CB01F82EFF0CFF0CF80E6DE370E081
:1054A000CD010E94DF2BDC01CB01E82EEE0C6FE179
:1054B00070E0CD010E94DF2BDC01CB0122E0280F40
:1054C000F20EFE0CF801F5828A2FF801138612867F
:1054D0008F5F838328960FB6F894DEBF0FBECDBFD3
:1054E000DF91CF911F910F91FF90EF90DF90CF90C0
:1054F0000895E4E6EE16F10409F0A2CF2BE330E0C4
:105500004CE651E0E0E0F0E0A1CF6FE170E00E94F6
:10551000DF2BDC01CB01F80185838A2FD6CFEF92F8
:10552000FF920F931F93CF93DF938C01EB01FC014C
:10553000868197818459984F64E670E00E94DF2B42
:105540009B017C014DE2BE01C9010E94BD2BBE0141
:105550006E5F7F4F4DE2C7010E94BD2BBE016B5FA6
:105560007F4FF801858190E04DE201960E94BD2BAE
:10557000BE01685F7F4FF801838140E290E00E94A6
:10558000BD2BBE01655F7F4FF80182814AE390E049
:105590000E94BD2BBE01625F7F4FF80181814AE30B
:1055A00090E00E94BD2BBE016F5E7F4FF8018081AD
:1055B00040E090E0DF91CF911F910F91FF90EF902D
:1055C0000C94BD2B8F929F92AF92BF92CF92DF929D
:1055D000EF92FF920F931F93CF93DF93EC01EE8135
:1055E000FF818F010456110909F48EC0C80101978B
:1055F0006C0197FD96C0D594C794D594C7946CE977
:105600007FEF0E94DF2BC60ED71E8FEFC81AD80A75
:105610000D2C000CEE08FF082DE631E0D8010E94A9
:10562000432CC60ED71EE81EF91E8B8190E08C011C
:10563000015011092D81223008F46AC0CF0184592C
:10564000984F0E94A82B282F30E0255C3F4F200F59
:10565000311F8D8190E002978530910514F0275617
:105660003F4F65E070E00E94DF2BAC0197FD56C014
:10567000559547959DE3949F8001959F100D1124AA
:10568000020F131F80FF02C0015E1F4FC801110FE0
:10569000AA0BBB0B9C01AD012C0D3D1D4E1D5F1DCA
:1056A00060E871E581E090E00E94CF2B4B015C0146
:1056B0002A8130E0A0E1BEE00E94342C6B017C0125
:1056C000298130E0ACE3B0E00E94342CDC01CB0156
:1056D0008C0D9D1DAE1DBF1D2881820F911DA11D2A
:1056E000B11DBC01CD01680D791D8A1D9B1DDF9187
:1056F000CF911F910F91FF90EF90DF90CF90BF90CF
:10570000AF909F908F900895C12CD12C760184CFBB
:10571000222309F4BBCF015E1F4FB8CF4F5F5F4F0D
:10572000A7CF680122E0C20ED11C65CF6093FB07B2
:105730007093FC078093FD079093FE070895609394
:10574000F7077093F8078093F9079093FA07089585
:105750009C0123703327232B61F464E670E00E94E0
:10576000DF2B892B41F46370772781E0672B09F4E5
:10577000089580E0089581E008951F93CF93DF930B
:10578000EB01142F6AE070E00E94DF2B605D6883FC
:10579000805D89831A83DF91CF911F910895DB018A
:1057A0008F939F930E944A2CBF91AF91A29F800D2F
:1057B000911DA39F900DB29F900D1124089597FB0A
:1057C000072E16F4009407D077FD09D00E94552CBF
:1057D00007FC05D03EF4909581959F4F08957095F4
:1057E00061957F4F0895A1E21A2EAA1BBB1BFD01F4
:1057F0000DC0AA1FBB1FEE1FFF1FA217B307E407B0
:10580000F50720F0A21BB30BE40BF50B661F771F07
:10581000881F991F1A9469F76095709580959095E7
:105820009B01AC01BD01CF010895052E97FB1EF42D
:1058300000940E942C2C57FD07D00E94F32B07FCEC
:1058400003D04EF40C942C2C509540953095219516
:105850003F4F4F4F5F4F089590958095709561959C
:105860007F4F8F4F9F4F0895A29FB001B39FC001FC
:10587000A39F700D811D1124911DB29F700D811D7C
:105880001124911D08950E94342CB7FF0895821BA6
:10589000930B08950E94342CA59F900DB49F900DFA
:1058A000A49F800D911D11240895AA1BBB1B51E1DB
:1058B00007C0AA1FBB1FA617B70710F0A61BB70B80
:1058C000881F991F5A95A9F780959095BC01CD0125
:1058D00008959F939F770E94D12D0F90002042F44E
:1058E0009058A2EA2AED3FE049E450E40E94922C4D
:1058F0000C945A2E5058BB27AA270E94922C0C9425
:105900005A2E0E94212E38F00E94282E20F039F4C1
:105910009F3F19F426F40C94F72D0EF4E095E7FB65
:105920000C94F12DE92F0E947F2E58F3BA176207CD
:1059300073078407950720F079F4A6F50C94A12E3F
:105940000EF4E0950B2EBA2FA02D0B01B90190019A
:105950000C01CA01A0011124FF27591B99F0593FDE
:1059600050F4503E68F11A16F040A22F232F342F26
:105970004427585FF3CF469537952795A795F04074
:105980005395C9F77EF41F16BA0B620B730B840B89
:10599000BAF09150A1F0FF0FBB1F661F771F881F41
:1059A000C2F70EC0BA0F621F731F841F48F4879599
:1059B00077956795B795F7959E3F08F0B0CF93958B
:1059C000880F08F09927EE0F9795879508950E9404
:1059D000312EE3950C946B2E0E94002D0C945A2EC0
:1059E0000E94282E58F00E94212E40F029F45F3F9B
:1059F00029F00C94F12D51110C94A22E0C94F72D3A
:105A00000E947F2E68F39923B1F3552391F3951BE0
:105A1000550BBB27AA2762177307840738F09F5FCF
:105A20005F4F220F331F441FAA1FA9F335D00E2E3C
:105A30003AF0E0E832D091505040E695001CCAF7A9
:105A40002BD0FE2F29D0660F771F881FBB1F26176C
:105A500037074807AB07B0E809F0BB0B802DBF0143
:105A6000FF2793585F4F3AF09E3F510578F00C9412
:105A7000F12D0C94A22E5F3FE4F3983ED4F386956B
:105A800077956795B795F7959F5FC9F7880F911D33
:105A90009695879597F90895E1E0660F771F881F1F
:105AA000BB1F621773078407BA0720F0621B730BD2
:105AB000840BBA0BEE1F88F7E09508950E94652DC0
:105AC0006894B1110C94A22E08950E94872E88F03C
:105AD0009F5798F0B92F9927B751B0F0E1F0660FB2
